{
  "_format": "hh-sol-artifact-1",
  "contractName": "DistributionManager",
  "sourceName": "contracts/misc/DistributionManager.sol",
  "abi": [
    {
      "anonymous": false,
      "inputs": [
        {
          "indexed": true,
          "internalType": "address",
          "name": "asset",
          "type": "address"
        },
        {
          "indexed": false,
          "internalType": "uint256",
          "name": "emission",
          "type": "uint256"
        }
      ],
      "name": "AssetConfigUpdated",
      "type": "event"
    },
    {
      "anonymous": false,
      "inputs": [
        {
          "indexed": true,
          "internalType": "address",
          "name": "asset",
          "type": "address"
        },
        {
          "indexed": false,
          "internalType": "uint256",
          "name": "index",
          "type": "uint256"
        }
      ],
      "name": "AssetIndexUpdated",
      "type": "event"
    },
    {
      "anonymous": false,
      "inputs": [
        {
          "indexed": false,
          "internalType": "uint8",
          "name": "version",
          "type": "uint8"
        }
      ],
      "name": "Initialized",
      "type": "event"
    },
    {
      "anonymous": false,
      "inputs": [
        {
          "indexed": true,
          "internalType": "address",
          "name": "previousOwner",
          "type": "address"
        },
        {
          "indexed": true,
          "internalType": "address",
          "name": "newOwner",
          "type": "address"
        }
      ],
      "name": "OwnershipTransferred",
      "type": "event"
    },
    {
      "anonymous": false,
      "inputs": [
        {
          "indexed": true,
          "internalType": "uint256",
          "name": "tokenId",
          "type": "uint256"
        },
        {
          "indexed": true,
          "internalType": "address",
          "name": "asset",
          "type": "address"
        },
        {
          "indexed": false,
          "internalType": "uint256",
          "name": "index",
          "type": "uint256"
        }
      ],
      "name": "UserIndexUpdated",
      "type": "event"
    },
    {
      "inputs": [],
      "name": "DISTRIBUTION_END",
      "outputs": [
        {
          "internalType": "uint256",
          "name": "",
          "type": "uint256"
        }
      ],
      "stateMutability": "view",
      "type": "function"
    },
    {
      "inputs": [],
      "name": "PRECISION",
      "outputs": [
        {
          "internalType": "uint8",
          "name": "",
          "type": "uint8"
        }
      ],
      "stateMutability": "view",
      "type": "function"
    },
    {
      "inputs": [
        {
          "internalType": "address",
          "name": "",
          "type": "address"
        }
      ],
      "name": "assets",
      "outputs": [
        {
          "internalType": "uint128",
          "name": "emissionPerSecond",
          "type": "uint128"
        },
        {
          "internalType": "uint128",
          "name": "lastUpdateTimestamp",
          "type": "uint128"
        },
        {
          "internalType": "uint256",
          "name": "index",
          "type": "uint256"
        }
      ],
      "stateMutability": "view",
      "type": "function"
    },
    {
      "inputs": [
        {
          "components": [
            {
              "internalType": "uint128",
              "name": "emissionPerSecond",
              "type": "uint128"
            },
            {
              "internalType": "uint256",
              "name": "totalPower",
              "type": "uint256"
            },
            {
              "internalType": "address",
              "name": "underlyingAsset",
              "type": "address"
            }
          ],
          "internalType": "struct DistributionTypes.AssetConfigInput[]",
          "name": "assetsConfigInput",
          "type": "tuple[]"
        }
      ],
      "name": "configureAssets",
      "outputs": [],
      "stateMutability": "nonpayable",
      "type": "function"
    },
    {
      "inputs": [
        {
          "internalType": "uint256",
          "name": "tokenId",
          "type": "uint256"
        },
        {
          "internalType": "address",
          "name": "asset",
          "type": "address"
        }
      ],
      "name": "getTokenAssetData",
      "outputs": [
        {
          "internalType": "uint256",
          "name": "",
          "type": "uint256"
        }
      ],
      "stateMutability": "view",
      "type": "function"
    },
    {
      "inputs": [],
      "name": "owner",
      "outputs": [
        {
          "internalType": "address",
          "name": "",
          "type": "address"
        }
      ],
      "stateMutability": "view",
      "type": "function"
    },
    {
      "inputs": [],
      "name": "renounceOwnership",
      "outputs": [],
      "stateMutability": "nonpayable",
      "type": "function"
    },
    {
      "inputs": [
        {
          "internalType": "uint256",
          "name": "distributionDuration",
          "type": "uint256"
        }
      ],
      "name": "setDistributionDuration",
      "outputs": [],
      "stateMutability": "nonpayable",
      "type": "function"
    },
    {
      "inputs": [
        {
          "internalType": "address",
          "name": "newOwner",
          "type": "address"
        }
      ],
      "name": "transferOwnership",
      "outputs": [],
      "stateMutability": "nonpayable",
      "type": "function"
    }
  ],
  "bytecode": "0x608060405234801561001057600080fd5b50610b5a806100206000396000f3fe608060405234801561001057600080fd5b50600436106100935760003560e01c8063919cd40f11610066578063919cd40f146100f6578063aaf5eb68146100ff578063b2a5dbfa14610119578063f11b81881461012c578063f2fde38b1461018e57600080fd5b80630498e2a7146100985780635d3c0cfe146100be578063715018a6146100d35780638da5cb5b146100db575b600080fd5b6100ab6100a636600461082a565b6101a1565b6040519081526020015b60405180910390f35b6100d16100cc366004610856565b6101cf565b005b6100d16101e7565b6033546040516001600160a01b0390911681526020016100b5565b6100ab60655481565b610107601281565b60405160ff90911681526020016100b5565b6100d161012736600461086f565b6101fb565b61016861013a3660046108e4565b606660205260009081526040902080546001909101546001600160801b0380831692600160801b9004169083565b604080516001600160801b039485168152939092166020840152908201526060016100b5565b6100d161019c3660046108e4565b6103ab565b6001600160a01b03811660009081526066602090815260408083208584526002019091529020545b92915050565b6101d7610429565b6101e14282610483565b60655550565b6101ef610429565b6101f960006104e9565b565b610203610429565b60005b818110156103a657600060666000858585818110610226576102266108ff565b905060600201604001602081019061023e91906108e4565b6001600160a01b03166001600160a01b0316815260200190815260200160002090506102af848484818110610275576102756108ff565b905060600201604001602081019061028d91906108e4565b828686868181106102a0576102a06108ff565b9050606002016020013561053b565b508383838181106102c2576102c26108ff565b6102d89260206060909202019081019150610915565b81546fffffffffffffffffffffffffffffffff19166001600160801b039190911617815583838381811061030e5761030e6108ff565b905060600201604001602081019061032691906108e4565b6001600160a01b03167f87fa03892a0556cb6b8f97e6d533a150d4d55fcbf275fff5fa003fa636bcc7fa858585818110610362576103626108ff565b6103789260206060909202019081019150610915565b6040516001600160801b03909116815260200160405180910390a2508061039e81610954565b915050610206565b505050565b6103b3610429565b6001600160a01b03811661041d5760405162461bcd60e51b815260206004820152602660248201527f4f776e61626c653a206e6577206f776e657220697320746865207a65726f206160448201526564647265737360d01b60648201526084015b60405180910390fd5b610426816104e9565b50565b6033546001600160a01b031633146101f95760405162461bcd60e51b815260206004820181905260248201527f4f776e61626c653a2063616c6c6572206973206e6f7420746865206f776e65726044820152606401610414565b600080610490838561096f565b9050838110156104e25760405162461bcd60e51b815260206004820152601b60248201527f536166654d6174683a206164646974696f6e206f766572666c6f7700000000006044820152606401610414565b9392505050565b603380546001600160a01b038381166001600160a01b0319831681179093556040519116919082907f8be0079c531659141344cd1fd0a4f28419497f9722a3daafe3b4186f6b6457e090600090a35050565b6001820154825460009190600160801b90046001600160801b031642811415610566575090506104e2565b84546000906105819084906001600160801b031684886105f3565b90508281146105d057600186018190556040518181526001600160a01b038816907f5777ca300dfe5bead41006fbce4389794dbc0ed8d6cccebfaf94630aa04184bc9060200160405180910390a25b85546001600160801b03428116600160801b029116178655925050509392505050565b6000831580610600575081155b80610613575042836001600160801b0316145b806106295750606554836001600160801b031610155b1561063557508361069b565b60006065544211610646574261064a565b6065545b90506000610661826001600160801b0387166106a3565b9050610696876106908661068a61067a6012600a610a6b565b6106848c886106e5565b906106e5565b90610764565b90610483565b925050505b949350505050565b60006104e283836040518060400160405280601e81526020017f536166654d6174683a207375627472616374696f6e206f766572666c6f7700008152506107a6565b6000826106f4575060006101c9565b60006107008385610a77565b90508261070d8583610a96565b146104e25760405162461bcd60e51b815260206004820152602160248201527f536166654d6174683a206d756c7469706c69636174696f6e206f766572666c6f6044820152607760f81b6064820152608401610414565b60006104e283836040518060400160405280601a81526020017f536166654d6174683a206469766973696f6e206279207a65726f0000000000008152506107e0565b600081848411156107ca5760405162461bcd60e51b81526004016104149190610ab8565b5060006107d78486610b0d565b95945050505050565b600081836108015760405162461bcd60e51b81526004016104149190610ab8565b5060006107d78486610a96565b80356001600160a01b038116811461082557600080fd5b919050565b6000806040838503121561083d57600080fd5b8235915061084d6020840161080e565b90509250929050565b60006020828403121561086857600080fd5b5035919050565b6000806020838503121561088257600080fd5b823567ffffffffffffffff8082111561089a57600080fd5b818501915085601f8301126108ae57600080fd5b8135818111156108bd57600080fd5b8660206060830285010111156108d257600080fd5b60209290920196919550909350505050565b6000602082840312156108f657600080fd5b6104e28261080e565b634e487b7160e01b600052603260045260246000fd5b60006020828403121561092757600080fd5b81356001600160801b03811681146104e257600080fd5b634e487b7160e01b600052601160045260246000fd5b60006000198214156109685761096861093e565b5060010190565b600082198211156109825761098261093e565b500190565b600181815b808511156109c25781600019048211156109a8576109a861093e565b808516156109b557918102915b93841c939080029061098c565b509250929050565b6000826109d9575060016101c9565b816109e6575060006101c9565b81600181146109fc5760028114610a0657610a22565b60019150506101c9565b60ff841115610a1757610a1761093e565b50506001821b6101c9565b5060208310610133831016604e8410600b8410161715610a45575081810a6101c9565b610a4f8383610987565b8060001904821115610a6357610a6361093e565b029392505050565b60006104e283836109ca565b6000816000190483118215151615610a9157610a9161093e565b500290565b600082610ab357634e487b7160e01b600052601260045260246000fd5b500490565b600060208083528351808285015260005b81811015610ae557858101830151858201604001528201610ac9565b81811115610af7576000604083870101525b50601f01601f1916929092016040019392505050565b600082821015610b1f57610b1f61093e565b50039056fea2646970667358221220ffde1f3d4661aa8585dcff1626b8fcaf4a4130f8ec6ca50cc9877f2aef1b699c64736f6c634300080b0033",
  "linkReferences": {},
  "deployedLinkReferences": {}
}