{
  "_format": "hh-sol-artifact-1",
  "contractName": "MockStaked",
  "sourceName": "contracts/mock/MockStaked.sol",
  "abi": [
    {
      "inputs": [],
      "stateMutability": "nonpayable",
      "type": "constructor"
    },
    {
      "anonymous": false,
      "inputs": [
        {
          "indexed": false,
          "internalType": "address",
          "name": "sender",
          "type": "address"
        },
        {
          "indexed": false,
          "internalType": "uint256",
          "name": "tokenId",
          "type": "uint256"
        },
        {
          "indexed": false,
          "internalType": "uint256",
          "name": "amount",
          "type": "uint256"
        }
      ],
      "name": "ClaimReward",
      "type": "event"
    },
    {
      "anonymous": false,
      "inputs": [
        {
          "indexed": false,
          "internalType": "address",
          "name": "sender",
          "type": "address"
        },
        {
          "indexed": false,
          "internalType": "uint256",
          "name": "tokenId",
          "type": "uint256"
        }
      ],
      "name": "Redeem",
      "type": "event"
    },
    {
      "anonymous": false,
      "inputs": [
        {
          "indexed": false,
          "internalType": "address",
          "name": "sender",
          "type": "address"
        },
        {
          "indexed": false,
          "internalType": "uint256",
          "name": "tokenId",
          "type": "uint256"
        }
      ],
      "name": "Stake",
      "type": "event"
    },
    {
      "anonymous": false,
      "inputs": [
        {
          "indexed": false,
          "internalType": "address",
          "name": "sender",
          "type": "address"
        },
        {
          "indexed": false,
          "internalType": "uint256",
          "name": "tokenId",
          "type": "uint256"
        }
      ],
      "name": "Withdraw",
      "type": "event"
    },
    {
      "inputs": [],
      "name": "claimRewards",
      "outputs": [],
      "stateMutability": "nonpayable",
      "type": "function"
    },
    {
      "inputs": [
        {
          "internalType": "uint256",
          "name": "_tokenId",
          "type": "uint256"
        }
      ],
      "name": "redeem",
      "outputs": [],
      "stateMutability": "nonpayable",
      "type": "function"
    },
    {
      "inputs": [],
      "name": "round",
      "outputs": [
        {
          "internalType": "uint256",
          "name": "",
          "type": "uint256"
        }
      ],
      "stateMutability": "view",
      "type": "function"
    },
    {
      "inputs": [
        {
          "internalType": "uint256",
          "name": "_tokenId",
          "type": "uint256"
        }
      ],
      "name": "stake",
      "outputs": [],
      "stateMutability": "nonpayable",
      "type": "function"
    },
    {
      "inputs": [],
      "name": "tokenId",
      "outputs": [
        {
          "internalType": "uint256",
          "name": "",
          "type": "uint256"
        }
      ],
      "stateMutability": "view",
      "type": "function"
    },
    {
      "inputs": [],
      "name": "totalDeposit",
      "outputs": [
        {
          "internalType": "uint256",
          "name": "",
          "type": "uint256"
        }
      ],
      "stateMutability": "view",
      "type": "function"
    },
    {
      "inputs": [],
      "name": "totalPower",
      "outputs": [
        {
          "internalType": "uint256",
          "name": "",
          "type": "uint256"
        }
      ],
      "stateMutability": "view",
      "type": "function"
    },
    {
      "inputs": [],
      "name": "totalStaked",
      "outputs": [
        {
          "internalType": "uint256",
          "name": "",
          "type": "uint256"
        }
      ],
      "stateMutability": "view",
      "type": "function"
    },
    {
      "inputs": [
        {
          "internalType": "uint256",
          "name": "_tokenId",
          "type": "uint256"
        }
      ],
      "name": "withdraw",
      "outputs": [],
      "stateMutability": "nonpayable",
      "type": "function"
    }
  ],
  "bytecode": "0x608060405234801561001057600080fd5b5061037c806100206000396000f3fe608060405234801561001057600080fd5b50600436106100935760003560e01c8063817b1cd211610066578063817b1cd2146100d9578063a694fc3a146100e2578063db006a75146100f5578063db3ad22c14610108578063f6153ccd1461011157600080fd5b8063146ca5311461009857806317d70f7c146100b35780632e1a7d4d146100bc578063372500ab146100d1575b600080fd5b6100a160005481565b60405190815260200160405180910390f35b6100a160045481565b6100cf6100ca3660046102b6565b61011a565b005b6100cf610184565b6100a160025481565b6100cf6100f03660046102b6565b6101cf565b6100cf6101033660046102b6565b610251565b6100a160035481565b6100a160015481565b600481905560408051338152602081018390527f884edad9ce6fa2440d8a54cc123490eb96d2768479d49ff9c7366125a9424364910160405180910390a1600080549080610167836102e5565b90915550506002805490600061017c83610300565b919050555050565b6004546040805133815260208101929092526064908201819052907fe74e5c9d4ac1fc33412485f18c159a0a391efe287ab3fd271123f30e6bacf4e39060600160405180910390a150565b600481905560408051338152602081018390527febedb8b3c678666e7f36970bc8f57abf6d8fa2e828c0da91ea5b75bf68ed101a910160405180910390a160008054908061021c836102e5565b909155505060028054906000610231836102e5565b91905055506014600360008282546102499190610317565b909155505050565b600481905560408051338152602081018390527f222838db2794d11532d940e8dec38ae307ed0b63cd97c233322e221f998767a6910160405180910390a160008054908061029e836102e5565b9190505550601460036000828254610249919061032f565b6000602082840312156102c857600080fd5b5035919050565b634e487b7160e01b600052601160045260246000fd5b60006000198214156102f9576102f96102cf565b5060010190565b60008161030f5761030f6102cf565b506000190190565b6000821982111561032a5761032a6102cf565b500190565b600082821015610341576103416102cf565b50039056fea264697066735822122052cde66748c94a7a8644a3182425e3e735d816ae48fff6fdcf1f2b85369b964e64736f6c634300080b0033",
  "linkReferences": {},
  "deployedLinkReferences": {}
}