{
  "contracts/test/NFTCardMock.sol": {
    "NFTCardMock": {
      "abi": [
        {
          "inputs": [
            {
              "internalType": "uint256",
              "name": "tokenId",
              "type": "uint256"
            }
          ],
          "name": "getCardProperty",
          "outputs": [
            {
              "components": [
                {
                  "internalType": "string",
                  "name": "name",
                  "type": "string"
                },
                {
                  "internalType": "string",
                  "name": "country",
                  "type": "string"
                },
                {
                  "internalType": "string",
                  "name": "position",
                  "type": "string"
                },
                {
                  "internalType": "uint256",
                  "name": "starLevel",
                  "type": "uint256"
                },
                {
                  "internalType": "uint256",
                  "name": "gradient",
                  "type": "uint256"
                }
              ],
              "internalType": "struct NFTCardMock.SoccerStar",
              "name": "",
              "type": "tuple"
            }
          ],
          "stateMutability": "view",
          "type": "function"
        },
        {
          "inputs": [
            {
              "internalType": "uint256",
              "name": "tokenId",
              "type": "uint256"
            }
          ],
          "name": "ownerOf",
          "outputs": [
            {
              "internalType": "address",
              "name": "",
              "type": "address"
            }
          ],
          "stateMutability": "view",
          "type": "function"
        }
      ],
      "evm": {
        "bytecode": {
          "linkReferences": {},
          "object": "608060405234801561001057600080fd5b50610328806100206000396000f3fe608060405234801561001057600080fd5b50600436106100365760003560e01c80631ff8f7301461003b5780636352211e14610064575b600080fd5b61004e610049366004610213565b61008f565b60405161005b9190610279565b60405180910390f35b610077610072366004610213565b61017c565b6040516001600160a01b03909116815260200161005b565b6100c16040518060a0016040528060608152602001606081526020016060815260200160008152602001600081525090565b60028211156101235750506040805160e081018252600160a08201818152603160f81b60c08401528252825160208181018552600080835281850192909252845190810185529081529282019290925260046060820152608081019190915290565b50506040805160e081018252600160a08201818152603160f81b60c08401528252825160208181018552600080835281850192909252845190810185529081529282019290925260036060820152608081019190915290565b600081600114156101a2575073f39fd6e51aad88f6f4ce6ab8827279cfffb92266919050565b81600214156101c657507370997970c51812dc3a010c7d01b50e0d17dc79c8919050565b81600314156101ea5750733c44cdddb6a900fa2b585dd299e03d12fa4293bc919050565b816004141561020e57507390f79bf6eb2c4f870365e785982e1f101e93b906919050565b919050565b60006020828403121561022557600080fd5b5035919050565b6000815180845260005b8181101561025257602081850181015186830182015201610236565b81811115610264576000602083870101525b50601f01601f19169290920160200192915050565b602081526000825160a0602084015261029560c084018261022c565b90506020840151601f19808584030160408601526102b3838361022c565b92506040860151915080858403016060860152506102d1828261022c565b91505060608401516080840152608084015160a0840152809150509291505056fea26469706673582212201d6421e715f464749b0b4d53b8b98b5220ed687507eb038dc374ac9d6b17cf1764736f6c634300080b0033",
          "opcodes": "PUSH1 0x80 PUSH1 0x40 MSTORE CALLVALUE DUP1 ISZERO PUSH2 0x10 JUMPI PUSH1 0x0 DUP1 REVERT JUMPDEST POP PUSH2 0x328 DUP1 PUSH2 0x20 PUSH1 0x0 CODECOPY PUSH1 0x0 RETURN INVALID PUSH1 0x80 PUSH1 0x40 MSTORE CALLVALUE DUP1 ISZERO PUSH2 0x10 JUMPI PUSH1 0x0 DUP1 REVERT JUMPDEST POP PUSH1 0x4 CALLDATASIZE LT PUSH2 0x36 JUMPI PUSH1 0x0 CALLDATALOAD PUSH1 0xE0 SHR DUP1 PUSH4 0x1FF8F730 EQ PUSH2 0x3B JUMPI DUP1 PUSH4 0x6352211E EQ PUSH2 0x64 JUMPI JUMPDEST PUSH1 0x0 DUP1 REVERT JUMPDEST PUSH2 0x4E PUSH2 0x49 CALLDATASIZE PUSH1 0x4 PUSH2 0x213 JUMP JUMPDEST PUSH2 0x8F JUMP JUMPDEST PUSH1 0x40 MLOAD PUSH2 0x5B SWAP2 SWAP1 PUSH2 0x279 JUMP JUMPDEST PUSH1 0x40 MLOAD DUP1 SWAP2 SUB SWAP1 RETURN JUMPDEST PUSH2 0x77 PUSH2 0x72 CALLDATASIZE PUSH1 0x4 PUSH2 0x213 JUMP JUMPDEST PUSH2 0x17C JUMP JUMPDEST PUSH1 0x40 MLOAD PUSH1 0x1 PUSH1 0x1 PUSH1 0xA0 SHL SUB SWAP1 SWAP2 AND DUP2 MSTORE PUSH1 0x20 ADD PUSH2 0x5B JUMP JUMPDEST PUSH2 0xC1 PUSH1 0x40 MLOAD DUP1 PUSH1 0xA0 ADD PUSH1 0x40 MSTORE DUP1 PUSH1 0x60 DUP2 MSTORE PUSH1 0x20 ADD PUSH1 0x60 DUP2 MSTORE PUSH1 0x20 ADD PUSH1 0x60 DUP2 MSTORE PUSH1 0x20 ADD PUSH1 0x0 DUP2 MSTORE PUSH1 0x20 ADD PUSH1 0x0 DUP2 MSTORE POP SWAP1 JUMP JUMPDEST PUSH1 0x2 DUP3 GT ISZERO PUSH2 0x123 JUMPI POP POP PUSH1 0x40 DUP1 MLOAD PUSH1 0xE0 DUP2 ADD DUP3 MSTORE PUSH1 0x1 PUSH1 0xA0 DUP3 ADD DUP2 DUP2 MSTORE PUSH1 0x31 PUSH1 0xF8 SHL PUSH1 0xC0 DUP5 ADD MSTORE DUP3 MSTORE DUP3 MLOAD PUSH1 0x20 DUP2 DUP2 ADD DUP6 MSTORE PUSH1 0x0 DUP1 DUP4 MSTORE DUP2 DUP6 ADD SWAP3 SWAP1 SWAP3 MSTORE DUP5 MLOAD SWAP1 DUP2 ADD DUP6 MSTORE SWAP1 DUP2 MSTORE SWAP3 DUP3 ADD SWAP3 SWAP1 SWAP3 MSTORE PUSH1 0x4 PUSH1 0x60 DUP3 ADD MSTORE PUSH1 0x80 DUP2 ADD SWAP2 SWAP1 SWAP2 MSTORE SWAP1 JUMP JUMPDEST POP POP PUSH1 0x40 DUP1 MLOAD PUSH1 0xE0 DUP2 ADD DUP3 MSTORE PUSH1 0x1 PUSH1 0xA0 DUP3 ADD DUP2 DUP2 MSTORE PUSH1 0x31 PUSH1 0xF8 SHL PUSH1 0xC0 DUP5 ADD MSTORE DUP3 MSTORE DUP3 MLOAD PUSH1 0x20 DUP2 DUP2 ADD DUP6 MSTORE PUSH1 0x0 DUP1 DUP4 MSTORE DUP2 DUP6 ADD SWAP3 SWAP1 SWAP3 MSTORE DUP5 MLOAD SWAP1 DUP2 ADD DUP6 MSTORE SWAP1 DUP2 MSTORE SWAP3 DUP3 ADD SWAP3 SWAP1 SWAP3 MSTORE PUSH1 0x3 PUSH1 0x60 DUP3 ADD MSTORE PUSH1 0x80 DUP2 ADD SWAP2 SWAP1 SWAP2 MSTORE SWAP1 JUMP JUMPDEST PUSH1 0x0 DUP2 PUSH1 0x1 EQ ISZERO PUSH2 0x1A2 JUMPI POP PUSH20 0xF39FD6E51AAD88F6F4CE6AB8827279CFFFB92266 SWAP2 SWAP1 POP JUMP JUMPDEST DUP2 PUSH1 0x2 EQ ISZERO PUSH2 0x1C6 JUMPI POP PUSH20 0x70997970C51812DC3A010C7D01B50E0D17DC79C8 SWAP2 SWAP1 POP JUMP JUMPDEST DUP2 PUSH1 0x3 EQ ISZERO PUSH2 0x1EA JUMPI POP PUSH20 0x3C44CDDDB6A900FA2B585DD299E03D12FA4293BC SWAP2 SWAP1 POP JUMP JUMPDEST DUP2 PUSH1 0x4 EQ ISZERO PUSH2 0x20E JUMPI POP PUSH20 0x90F79BF6EB2C4F870365E785982E1F101E93B906 SWAP2 SWAP1 POP JUMP JUMPDEST SWAP2 SWAP1 POP JUMP JUMPDEST PUSH1 0x0 PUSH1 0x20 DUP3 DUP5 SUB SLT ISZERO PUSH2 0x225 JUMPI PUSH1 0x0 DUP1 REVERT JUMPDEST POP CALLDATALOAD SWAP2 SWAP1 POP JUMP JUMPDEST PUSH1 0x0 DUP2 MLOAD DUP1 DUP5 MSTORE PUSH1 0x0 JUMPDEST DUP2 DUP2 LT ISZERO PUSH2 0x252 JUMPI PUSH1 0x20 DUP2 DUP6 ADD DUP2 ADD MLOAD DUP7 DUP4 ADD DUP3 ADD MSTORE ADD PUSH2 0x236 JUMP JUMPDEST DUP2 DUP2 GT ISZERO PUSH2 0x264 JUMPI PUSH1 0x0 PUSH1 0x20 DUP4 DUP8 ADD ADD MSTORE JUMPDEST POP PUSH1 0x1F ADD PUSH1 0x1F NOT AND SWAP3 SWAP1 SWAP3 ADD PUSH1 0x20 ADD SWAP3 SWAP2 POP POP JUMP JUMPDEST PUSH1 0x20 DUP2 MSTORE PUSH1 0x0 DUP3 MLOAD PUSH1 0xA0 PUSH1 0x20 DUP5 ADD MSTORE PUSH2 0x295 PUSH1 0xC0 DUP5 ADD DUP3 PUSH2 0x22C JUMP JUMPDEST SWAP1 POP PUSH1 0x20 DUP5 ADD MLOAD PUSH1 0x1F NOT DUP1 DUP6 DUP5 SUB ADD PUSH1 0x40 DUP7 ADD MSTORE PUSH2 0x2B3 DUP4 DUP4 PUSH2 0x22C JUMP JUMPDEST SWAP3 POP PUSH1 0x40 DUP7 ADD MLOAD SWAP2 POP DUP1 DUP6 DUP5 SUB ADD PUSH1 0x60 DUP7 ADD MSTORE POP PUSH2 0x2D1 DUP3 DUP3 PUSH2 0x22C JUMP JUMPDEST SWAP2 POP POP PUSH1 0x60 DUP5 ADD MLOAD PUSH1 0x80 DUP5 ADD MSTORE PUSH1 0x80 DUP5 ADD MLOAD PUSH1 0xA0 DUP5 ADD MSTORE DUP1 SWAP2 POP POP SWAP3 SWAP2 POP POP JUMP INVALID LOG2 PUSH5 0x6970667358 0x22 SLT KECCAK256 SAR PUSH5 0x21E715F464 PUSH21 0x9B0B4D53B8B98B5220ED687507EB038DC374AC9D6B OR 0xCF OR PUSH5 0x736F6C6343 STOP ADDMOD SIGNEXTEND STOP CALLER "
        },
        "methodIdentifiers": {
          "getCardProperty(uint256)": "1ff8f730",
          "ownerOf(uint256)": "6352211e"
        }
      }
    }
  }
}