{
  "_format": "hh-sol-artifact-1",
  "contractName": "NFTCardMock",
  "sourceName": "contracts/test/NFTCardMock.sol",
  "abi": [
    {
      "inputs": [
        {
          "internalType": "uint256",
          "name": "tokenId",
          "type": "uint256"
        }
      ],
      "name": "getCardProperty",
      "outputs": [
        {
          "components": [
            {
              "internalType": "string",
              "name": "name",
              "type": "string"
            },
            {
              "internalType": "string",
              "name": "country",
              "type": "string"
            },
            {
              "internalType": "string",
              "name": "position",
              "type": "string"
            },
            {
              "internalType": "uint256",
              "name": "starLevel",
              "type": "uint256"
            },
            {
              "internalType": "uint256",
              "name": "gradient",
              "type": "uint256"
            }
          ],
          "internalType": "struct NFTCardMock.SoccerStar",
          "name": "",
          "type": "tuple"
        }
      ],
      "stateMutability": "view",
      "type": "function"
    },
    {
      "inputs": [
        {
          "internalType": "uint256",
          "name": "tokenId",
          "type": "uint256"
        }
      ],
      "name": "ownerOf",
      "outputs": [
        {
          "internalType": "address",
          "name": "",
          "type": "address"
        }
      ],
      "stateMutability": "view",
      "type": "function"
    }
  ],
  "bytecode": "0x608060405234801561001057600080fd5b50610328806100206000396000f3fe608060405234801561001057600080fd5b50600436106100365760003560e01c80631ff8f7301461003b5780636352211e14610064575b600080fd5b61004e610049366004610213565b61008f565b60405161005b9190610279565b60405180910390f35b610077610072366004610213565b61017c565b6040516001600160a01b03909116815260200161005b565b6100c16040518060a0016040528060608152602001606081526020016060815260200160008152602001600081525090565b60028211156101235750506040805160e081018252600160a08201818152603160f81b60c08401528252825160208181018552600080835281850192909252845190810185529081529282019290925260046060820152608081019190915290565b50506040805160e081018252600160a08201818152603160f81b60c08401528252825160208181018552600080835281850192909252845190810185529081529282019290925260036060820152608081019190915290565b600081600114156101a2575073f39fd6e51aad88f6f4ce6ab8827279cfffb92266919050565b81600214156101c657507370997970c51812dc3a010c7d01b50e0d17dc79c8919050565b81600314156101ea5750733c44cdddb6a900fa2b585dd299e03d12fa4293bc919050565b816004141561020e57507390f79bf6eb2c4f870365e785982e1f101e93b906919050565b919050565b60006020828403121561022557600080fd5b5035919050565b6000815180845260005b8181101561025257602081850181015186830182015201610236565b81811115610264576000602083870101525b50601f01601f19169290920160200192915050565b602081526000825160a0602084015261029560c084018261022c565b90506020840151601f19808584030160408601526102b3838361022c565b92506040860151915080858403016060860152506102d1828261022c565b91505060608401516080840152608084015160a0840152809150509291505056fea26469706673582212201d6421e715f464749b0b4d53b8b98b5220ed687507eb038dc374ac9d6b17cf1764736f6c634300080b0033",
  "linkReferences": {},
  "deployedLinkReferences": {}
}