{
  "_format": "hh-sol-artifact-1",
  "contractName": "BIBNodeHarness",
  "sourceName": "contracts/test/BIBNodeHarness.sol",
  "abi": [
    {
      "anonymous": false,
      "inputs": [
        {
          "indexed": true,
          "internalType": "address",
          "name": "owner",
          "type": "address"
        },
        {
          "indexed": true,
          "internalType": "address",
          "name": "approved",
          "type": "address"
        },
        {
          "indexed": true,
          "internalType": "uint256",
          "name": "tokenId",
          "type": "uint256"
        }
      ],
      "name": "Approval",
      "type": "event"
    },
    {
      "anonymous": false,
      "inputs": [
        {
          "indexed": true,
          "internalType": "address",
          "name": "owner",
          "type": "address"
        },
        {
          "indexed": true,
          "internalType": "address",
          "name": "operator",
          "type": "address"
        },
        {
          "indexed": false,
          "internalType": "bool",
          "name": "approved",
          "type": "bool"
        }
      ],
      "name": "ApprovalForAll",
      "type": "event"
    },
    {
      "anonymous": false,
      "inputs": [
        {
          "indexed": true,
          "internalType": "address",
          "name": "user",
          "type": "address"
        },
        {
          "indexed": true,
          "internalType": "uint256",
          "name": "cardNFTId",
          "type": "uint256"
        },
        {
          "indexed": false,
          "internalType": "uint256",
          "name": "bibAmount",
          "type": "uint256"
        },
        {
          "indexed": false,
          "internalType": "uint256",
          "name": "ticketId",
          "type": "uint256"
        }
      ],
      "name": "CreateNode",
      "type": "event"
    },
    {
      "anonymous": false,
      "inputs": [
        {
          "indexed": true,
          "internalType": "address",
          "name": "user",
          "type": "address"
        },
        {
          "indexed": true,
          "internalType": "uint256",
          "name": "cardNFTId",
          "type": "uint256"
        },
        {
          "indexed": false,
          "internalType": "uint256",
          "name": "ticketId",
          "type": "uint256"
        }
      ],
      "name": "DisbandNode",
      "type": "event"
    },
    {
      "anonymous": false,
      "inputs": [
        {
          "indexed": false,
          "internalType": "uint8",
          "name": "version",
          "type": "uint8"
        }
      ],
      "name": "Initialized",
      "type": "event"
    },
    {
      "anonymous": false,
      "inputs": [
        {
          "indexed": true,
          "internalType": "uint256",
          "name": "fromTicketId",
          "type": "uint256"
        },
        {
          "indexed": true,
          "internalType": "uint256",
          "name": "ticketId",
          "type": "uint256"
        },
        {
          "indexed": false,
          "internalType": "uint256",
          "name": "bibAmount",
          "type": "uint256"
        }
      ],
      "name": "NodeStaking",
      "type": "event"
    },
    {
      "anonymous": false,
      "inputs": [
        {
          "indexed": true,
          "internalType": "uint256",
          "name": "fromTicketId",
          "type": "uint256"
        },
        {
          "indexed": true,
          "internalType": "uint256",
          "name": "ticketId",
          "type": "uint256"
        },
        {
          "indexed": false,
          "internalType": "uint256",
          "name": "bibAmount",
          "type": "uint256"
        }
      ],
      "name": "NodeUnStaking",
      "type": "event"
    },
    {
      "anonymous": false,
      "inputs": [
        {
          "indexed": true,
          "internalType": "address",
          "name": "previousOwner",
          "type": "address"
        },
        {
          "indexed": true,
          "internalType": "address",
          "name": "newOwner",
          "type": "address"
        }
      ],
      "name": "OwnershipTransferred",
      "type": "event"
    },
    {
      "anonymous": false,
      "inputs": [
        {
          "indexed": false,
          "internalType": "address",
          "name": "account",
          "type": "address"
        }
      ],
      "name": "Paused",
      "type": "event"
    },
    {
      "anonymous": false,
      "inputs": [
        {
          "indexed": true,
          "internalType": "address",
          "name": "from",
          "type": "address"
        },
        {
          "indexed": true,
          "internalType": "address",
          "name": "to",
          "type": "address"
        },
        {
          "indexed": true,
          "internalType": "uint256",
          "name": "tokenId",
          "type": "uint256"
        }
      ],
      "name": "Transfer",
      "type": "event"
    },
    {
      "anonymous": false,
      "inputs": [
        {
          "indexed": false,
          "internalType": "address",
          "name": "account",
          "type": "address"
        }
      ],
      "name": "Unpaused",
      "type": "event"
    },
    {
      "anonymous": false,
      "inputs": [
        {
          "indexed": true,
          "internalType": "address",
          "name": "user",
          "type": "address"
        },
        {
          "indexed": true,
          "internalType": "uint256",
          "name": "cardNFTId",
          "type": "uint256"
        },
        {
          "indexed": false,
          "internalType": "uint256",
          "name": "starLevel",
          "type": "uint256"
        }
      ],
      "name": "UpgradeNode",
      "type": "event"
    },
    {
      "inputs": [],
      "name": "BIBStaking",
      "outputs": [
        {
          "internalType": "contract IBIBStaking",
          "name": "",
          "type": "address"
        }
      ],
      "stateMutability": "view",
      "type": "function"
    },
    {
      "inputs": [],
      "name": "BIBToken",
      "outputs": [
        {
          "internalType": "contract IERC20Upgradeable",
          "name": "",
          "type": "address"
        }
      ],
      "stateMutability": "view",
      "type": "function"
    },
    {
      "inputs": [],
      "name": "BLACK_HOLE",
      "outputs": [
        {
          "internalType": "address",
          "name": "",
          "type": "address"
        }
      ],
      "stateMutability": "view",
      "type": "function"
    },
    {
      "inputs": [
        {
          "internalType": "address",
          "name": "to",
          "type": "address"
        },
        {
          "internalType": "uint256",
          "name": "tokenId",
          "type": "uint256"
        }
      ],
      "name": "approve",
      "outputs": [],
      "stateMutability": "nonpayable",
      "type": "function"
    },
    {
      "inputs": [
        {
          "internalType": "address",
          "name": "owner",
          "type": "address"
        }
      ],
      "name": "balanceOf",
      "outputs": [
        {
          "internalType": "uint256",
          "name": "",
          "type": "uint256"
        }
      ],
      "stateMutability": "view",
      "type": "function"
    },
    {
      "inputs": [],
      "name": "baseURI",
      "outputs": [
        {
          "internalType": "string",
          "name": "",
          "type": "string"
        }
      ],
      "stateMutability": "view",
      "type": "function"
    },
    {
      "inputs": [
        {
          "internalType": "uint256",
          "name": "tokenId",
          "type": "uint256"
        }
      ],
      "name": "burn",
      "outputs": [],
      "stateMutability": "nonpayable",
      "type": "function"
    },
    {
      "inputs": [
        {
          "internalType": "address",
          "name": "",
          "type": "address"
        }
      ],
      "name": "cardNFTFreezeMap",
      "outputs": [
        {
          "internalType": "uint256",
          "name": "cardNftId",
          "type": "uint256"
        },
        {
          "internalType": "uint256",
          "name": "expireTime",
          "type": "uint256"
        }
      ],
      "stateMutability": "view",
      "type": "function"
    },
    {
      "inputs": [
        {
          "internalType": "uint256",
          "name": "",
          "type": "uint256"
        }
      ],
      "name": "cardNFTOwners",
      "outputs": [
        {
          "internalType": "address",
          "name": "",
          "type": "address"
        }
      ],
      "stateMutability": "view",
      "type": "function"
    },
    {
      "inputs": [],
      "name": "cardNFTStake",
      "outputs": [
        {
          "internalType": "contract IStakedSoccerStarNftV2",
          "name": "",
          "type": "address"
        }
      ],
      "stateMutability": "view",
      "type": "function"
    },
    {
      "inputs": [
        {
          "internalType": "uint256",
          "name": "_ticket",
          "type": "uint256"
        }
      ],
      "name": "changeStakeNode",
      "outputs": [],
      "stateMutability": "nonpayable",
      "type": "function"
    },
    {
      "inputs": [
        {
          "internalType": "uint256",
          "name": "_cardNFTId",
          "type": "uint256"
        },
        {
          "internalType": "uint256",
          "name": "_bibAmount",
          "type": "uint256"
        },
        {
          "internalType": "uint256",
          "name": "ticket",
          "type": "uint256"
        }
      ],
      "name": "createNode",
      "outputs": [],
      "stateMutability": "nonpayable",
      "type": "function"
    },
    {
      "inputs": [],
      "name": "currentTime",
      "outputs": [
        {
          "internalType": "uint256",
          "name": "",
          "type": "uint256"
        }
      ],
      "stateMutability": "view",
      "type": "function"
    },
    {
      "inputs": [],
      "name": "disbandNode",
      "outputs": [],
      "stateMutability": "nonpayable",
      "type": "function"
    },
    {
      "inputs": [
        {
          "internalType": "uint256",
          "name": "tokenId",
          "type": "uint256"
        }
      ],
      "name": "getApproved",
      "outputs": [
        {
          "internalType": "address",
          "name": "",
          "type": "address"
        }
      ],
      "stateMutability": "view",
      "type": "function"
    },
    {
      "inputs": [
        {
          "internalType": "address",
          "name": "user",
          "type": "address"
        }
      ],
      "name": "getCardNFTByAddress",
      "outputs": [
        {
          "internalType": "uint256",
          "name": "",
          "type": "uint256"
        }
      ],
      "stateMutability": "view",
      "type": "function"
    },
    {
      "inputs": [
        {
          "internalType": "address",
          "name": "_cardNFTStake",
          "type": "address"
        },
        {
          "internalType": "address",
          "name": "_soccerStarNft",
          "type": "address"
        },
        {
          "internalType": "address",
          "name": "_bibToken",
          "type": "address"
        },
        {
          "internalType": "address",
          "name": "_bibStaking",
          "type": "address"
        }
      ],
      "name": "initialize",
      "outputs": [],
      "stateMutability": "nonpayable",
      "type": "function"
    },
    {
      "inputs": [
        {
          "internalType": "address",
          "name": "owner",
          "type": "address"
        },
        {
          "internalType": "address",
          "name": "operator",
          "type": "address"
        }
      ],
      "name": "isApprovedForAll",
      "outputs": [
        {
          "internalType": "bool",
          "name": "",
          "type": "bool"
        }
      ],
      "stateMutability": "view",
      "type": "function"
    },
    {
      "inputs": [
        {
          "internalType": "uint256",
          "name": "tokenId",
          "type": "uint256"
        }
      ],
      "name": "isStakedAsNode",
      "outputs": [
        {
          "internalType": "bool",
          "name": "",
          "type": "bool"
        }
      ],
      "stateMutability": "view",
      "type": "function"
    },
    {
      "inputs": [],
      "name": "maxSubNodeCount",
      "outputs": [
        {
          "internalType": "uint256",
          "name": "",
          "type": "uint256"
        }
      ],
      "stateMutability": "view",
      "type": "function"
    },
    {
      "inputs": [
        {
          "internalType": "address",
          "name": "to",
          "type": "address"
        },
        {
          "internalType": "uint256",
          "name": "tokenId",
          "type": "uint256"
        }
      ],
      "name": "mint",
      "outputs": [],
      "stateMutability": "nonpayable",
      "type": "function"
    },
    {
      "inputs": [],
      "name": "name",
      "outputs": [
        {
          "internalType": "string",
          "name": "",
          "type": "string"
        }
      ],
      "stateMutability": "view",
      "type": "function"
    },
    {
      "inputs": [
        {
          "internalType": "uint256",
          "name": "",
          "type": "uint256"
        }
      ],
      "name": "nodeList",
      "outputs": [
        {
          "internalType": "uint256",
          "name": "",
          "type": "uint256"
        }
      ],
      "stateMutability": "view",
      "type": "function"
    },
    {
      "inputs": [
        {
          "internalType": "uint256",
          "name": "",
          "type": "uint256"
        }
      ],
      "name": "nodeMap",
      "outputs": [
        {
          "internalType": "address",
          "name": "ownerAddress",
          "type": "address"
        },
        {
          "internalType": "uint256",
          "name": "cardNftId",
          "type": "uint256"
        },
        {
          "internalType": "uint256",
          "name": "createTime",
          "type": "uint256"
        },
        {
          "internalType": "uint256",
          "name": "upNode",
          "type": "uint256"
        }
      ],
      "stateMutability": "view",
      "type": "function"
    },
    {
      "inputs": [],
      "name": "owner",
      "outputs": [
        {
          "internalType": "address",
          "name": "",
          "type": "address"
        }
      ],
      "stateMutability": "view",
      "type": "function"
    },
    {
      "inputs": [
        {
          "internalType": "uint256",
          "name": "tokenId",
          "type": "uint256"
        }
      ],
      "name": "ownerOf",
      "outputs": [
        {
          "internalType": "address",
          "name": "",
          "type": "address"
        }
      ],
      "stateMutability": "view",
      "type": "function"
    },
    {
      "inputs": [],
      "name": "paused",
      "outputs": [
        {
          "internalType": "bool",
          "name": "",
          "type": "bool"
        }
      ],
      "stateMutability": "view",
      "type": "function"
    },
    {
      "inputs": [],
      "name": "renounceOwnership",
      "outputs": [],
      "stateMutability": "nonpayable",
      "type": "function"
    },
    {
      "inputs": [
        {
          "internalType": "address",
          "name": "from",
          "type": "address"
        },
        {
          "internalType": "address",
          "name": "to",
          "type": "address"
        },
        {
          "internalType": "uint256",
          "name": "tokenId",
          "type": "uint256"
        }
      ],
      "name": "safeTransferFrom",
      "outputs": [],
      "stateMutability": "nonpayable",
      "type": "function"
    },
    {
      "inputs": [
        {
          "internalType": "address",
          "name": "from",
          "type": "address"
        },
        {
          "internalType": "address",
          "name": "to",
          "type": "address"
        },
        {
          "internalType": "uint256",
          "name": "tokenId",
          "type": "uint256"
        },
        {
          "internalType": "bytes",
          "name": "data",
          "type": "bytes"
        }
      ],
      "name": "safeTransferFrom",
      "outputs": [],
      "stateMutability": "nonpayable",
      "type": "function"
    },
    {
      "inputs": [
        {
          "internalType": "address",
          "name": "operator",
          "type": "address"
        },
        {
          "internalType": "bool",
          "name": "approved",
          "type": "bool"
        }
      ],
      "name": "setApprovalForAll",
      "outputs": [],
      "stateMutability": "nonpayable",
      "type": "function"
    },
    {
      "inputs": [
        {
          "internalType": "string",
          "name": "uri",
          "type": "string"
        }
      ],
      "name": "setBaseURI",
      "outputs": [],
      "stateMutability": "nonpayable",
      "type": "function"
    },
    {
      "inputs": [
        {
          "internalType": "address",
          "name": "_cardNft",
          "type": "address"
        }
      ],
      "name": "setCardNft",
      "outputs": [],
      "stateMutability": "nonpayable",
      "type": "function"
    },
    {
      "inputs": [
        {
          "internalType": "address",
          "name": "_cardNftStake",
          "type": "address"
        }
      ],
      "name": "setCardNftStake",
      "outputs": [],
      "stateMutability": "nonpayable",
      "type": "function"
    },
    {
      "inputs": [
        {
          "internalType": "uint256",
          "name": "_currentTime",
          "type": "uint256"
        }
      ],
      "name": "setCurrentTime",
      "outputs": [],
      "stateMutability": "nonpayable",
      "type": "function"
    },
    {
      "inputs": [],
      "name": "soccerStarNft",
      "outputs": [
        {
          "internalType": "contract ERC721Upgradeable",
          "name": "",
          "type": "address"
        }
      ],
      "stateMutability": "view",
      "type": "function"
    },
    {
      "inputs": [
        {
          "internalType": "uint256",
          "name": "_ticket",
          "type": "uint256"
        }
      ],
      "name": "stakeNode",
      "outputs": [
        {
          "internalType": "bool",
          "name": "",
          "type": "bool"
        }
      ],
      "stateMutability": "nonpayable",
      "type": "function"
    },
    {
      "inputs": [
        {
          "internalType": "uint256",
          "name": "",
          "type": "uint256"
        },
        {
          "internalType": "uint256",
          "name": "",
          "type": "uint256"
        }
      ],
      "name": "subNodes",
      "outputs": [
        {
          "internalType": "uint256",
          "name": "",
          "type": "uint256"
        }
      ],
      "stateMutability": "view",
      "type": "function"
    },
    {
      "inputs": [
        {
          "internalType": "bytes4",
          "name": "interfaceId",
          "type": "bytes4"
        }
      ],
      "name": "supportsInterface",
      "outputs": [
        {
          "internalType": "bool",
          "name": "",
          "type": "bool"
        }
      ],
      "stateMutability": "view",
      "type": "function"
    },
    {
      "inputs": [],
      "name": "symbol",
      "outputs": [
        {
          "internalType": "string",
          "name": "",
          "type": "string"
        }
      ],
      "stateMutability": "view",
      "type": "function"
    },
    {
      "inputs": [
        {
          "internalType": "address",
          "name": "",
          "type": "address"
        }
      ],
      "name": "ticketMap",
      "outputs": [
        {
          "internalType": "uint256",
          "name": "",
          "type": "uint256"
        }
      ],
      "stateMutability": "view",
      "type": "function"
    },
    {
      "inputs": [
        {
          "internalType": "uint256",
          "name": "tokenId",
          "type": "uint256"
        }
      ],
      "name": "tokenURI",
      "outputs": [
        {
          "internalType": "string",
          "name": "",
          "type": "string"
        }
      ],
      "stateMutability": "view",
      "type": "function"
    },
    {
      "inputs": [
        {
          "internalType": "address",
          "name": "from",
          "type": "address"
        },
        {
          "internalType": "address",
          "name": "to",
          "type": "address"
        },
        {
          "internalType": "uint256",
          "name": "tokenId",
          "type": "uint256"
        }
      ],
      "name": "transferFrom",
      "outputs": [],
      "stateMutability": "nonpayable",
      "type": "function"
    },
    {
      "inputs": [
        {
          "internalType": "address",
          "name": "newOwner",
          "type": "address"
        }
      ],
      "name": "transferOwnership",
      "outputs": [],
      "stateMutability": "nonpayable",
      "type": "function"
    },
    {
      "inputs": [
        {
          "internalType": "uint256",
          "name": "_ticket",
          "type": "uint256"
        }
      ],
      "name": "unStakeNode",
      "outputs": [
        {
          "internalType": "bool",
          "name": "",
          "type": "bool"
        }
      ],
      "stateMutability": "nonpayable",
      "type": "function"
    },
    {
      "inputs": [
        {
          "internalType": "uint256[]",
          "name": "_cardNFTIds",
          "type": "uint256[]"
        }
      ],
      "name": "upgradeNode",
      "outputs": [],
      "stateMutability": "nonpayable",
      "type": "function"
    }
  ],
  "bytecode": "0x608060405234801561001057600080fd5b506133d4806100206000396000f3fe608060405234801561001057600080fd5b506004361061028a5760003560e01c80636352211e1161015c578063a4ab0b2e116100ce578063d1577c7c11610087578063d1577c7c1461063a578063d18e81b31461064d578063e985e9c514610657578063f2fde38b1461066a578063f6a9010b1461067d578063f8c8765e1461069057600080fd5b8063a4ab0b2e14610587578063b7d5f2e41461059a578063b88d4fde146105c4578063be60c83b146105d7578063be78343314610614578063c87b56dd1461062757600080fd5b80638908d676116101205780638908d676146104fb578063893c8cc11461050e5780638da5cb5b1461053a57806395d89b411461054b57806396ae99b414610553578063a22cb4651461057457600080fd5b80636352211e146104b25780636c0360eb146104c557806370a08231146104cd578063715018a6146104e057806378f64c8c146104e857600080fd5b806323b872dd1161020057806342842e0e116101b957806342842e0e1461045357806342966c68146104665780634d351f651461047957806355eda4e81461048c57806355f804b3146104945780635c975abb146104a757600080fd5b806323b872dd1461038a5780632aa647711461039d5780632f973512146103b05780633328bd4e146103c3578063356ff5cd146103d657806340c10f191461044057600080fd5b80630c98a385116102525780630c98a3851461032257806314cf76c81461033557806316833cca14610348578063208f2a31146103505780632269d36d1461036357806322f8e5661461037657600080fd5b806301d380911461028f57806301ffc9a7146102aa57806306fdde03146102cd578063081812fc146102e2578063095ea7b31461030d575b600080fd5b610297600a81565b6040519081526020015b60405180910390f35b6102bd6102b8366004612b09565b6106a3565b60405190151581526020016102a1565b6102d56106f5565b6040516102a19190612b7e565b6102f56102f0366004612b91565b610787565b6040516001600160a01b0390911681526020016102a1565b61032061031b366004612bbf565b6107ae565b005b60ff546102f5906001600160a01b031681565b60fe546102f5906001600160a01b031681565b6103206108c9565b61029761035e366004612b91565b610ac4565b610297610371366004612beb565b610ae6565b610320610384366004612b91565b61010655565b610320610398366004612c08565b610b13565b6102bd6103ab366004612b91565b610b44565b6103206103be366004612beb565b610e3b565b6103206103d1366004612b91565b610ead565b6104166103e4366004612b91565b6101006020526000908152604090208054600182015460028301546003909301546001600160a01b0390921692909184565b604080516001600160a01b03909516855260208501939093529183015260608201526080016102a1565b61032061044e366004612bbf565b610f09565b610320610461366004612c08565b610f1f565b610320610474366004612b91565b610f3a565b60fc546102f5906001600160a01b031681565b6102f5600181565b6103206104a2366004612d1f565b610f4e565b60335460ff166102bd565b6102f56104c0366004612b91565b610f69565b6102d5610fc9565b6102976104db366004612beb565b611057565b6103206110dd565b60fd546102f5906001600160a01b031681565b610320610509366004612beb565b6110f1565b6102bd61051c366004612b91565b600090815261010360205260409020546001600160a01b0316151590565b6065546001600160a01b03166102f5565b6102d5611163565b610297610561366004612beb565b6101026020526000908152604090205481565b610320610582366004612d76565b611172565b6102bd610595366004612b91565b61117d565b6102f56105a8366004612b91565b610103602052600090815260409020546001600160a01b031681565b6103206105d2366004612daf565b61138f565b6105ff6105e5366004612beb565b610104602052600090815260409020805460019091015482565b604080519283526020830191909152016102a1565b610320610622366004612e2f565b6113c1565b6102d5610635366004612b91565b611726565b610320610648366004612ea4565b61178d565b6102976101065481565b6102bd610665366004612ed0565b611b54565b610320610678366004612beb565b611b82565b61029761068b366004612efe565b611bf8565b61032061069e366004612f20565b611c2a565b60006001600160e01b031982166380ac58cd60e01b14806106d457506001600160e01b03198216635b5e139f60e01b145b806106ef57506301ffc9a760e01b6001600160e01b03198316145b92915050565b606060c9805461070490612f7c565b80601f016020809104026020016040519081016040528092919081815260200182805461073090612f7c565b801561077d5780601f106107525761010080835404028352916020019161077d565b820191906000526020600020905b81548152906001019060200180831161076057829003601f168201915b5050505050905090565b600061079282611db4565b50600090815260cd60205260409020546001600160a01b031690565b60006107b982610f69565b9050806001600160a01b0316836001600160a01b0316141561082c5760405162461bcd60e51b815260206004820152602160248201527f4552433732313a20617070726f76616c20746f2063757272656e74206f776e656044820152603960f91b60648201526084015b60405180910390fd5b336001600160a01b038216148061084857506108488133611b54565b6108ba5760405162461bcd60e51b815260206004820152603e60248201527f4552433732313a20617070726f76652063616c6c6572206973206e6f7420746f60448201527f6b656e206f776e6572206e6f7220617070726f76656420666f7220616c6c00006064820152608401610823565b6108c48383611e13565b505050565b3360008181526101026020908152604080832054808452610100909252909120600281015461090a5760405162461bcd60e51b815260040161082390612fb7565b600061091584610ae6565b905061092083611e81565b6001600160a01b03848116600081815261010260205260408082209190915560fd5490516336b14edf60e11b815260048101929092526024820186905290911690636d629dbe90604401600060405180830381600087803b15801561098457600080fd5b505af1158015610998573d6000803e3d6000fd5b5050610101549150505b8015610a5957806109b281612ffb565b9150508361010182815481106109ca576109ca613012565b90600052602060002001541415610a545761010180546109ec90600190613028565b815481106109fc576109fc613012565b90600052602060002001546101018281548110610a1b57610a1b613012565b600091825260209091200155610101805480610a3957610a3961303f565b60019003818190600052602060002001600090559055610a59565b6109a2565b600082815261010360205260409081902080546001600160a01b03191690555182906001600160a01b038716907fe89522f30cc3ab418b3126979d7793b955bf00d510a3d265b7065d62a423061790610ab59088815260200190565b60405180910390a35050505050565b6101018181548110610ad557600080fd5b600091825260209091200154905081565b6001600160a01b031660009081526101026020908152604080832054835261010090915290206001015490565b610b1d3382611f1c565b610b395760405162461bcd60e51b815260040161082390613055565b6108c4838383611f7b565b60008181526101006020526040812060020154610b945760405162461bcd60e51b815260206004820152600e60248201526d139bd919481b9bdd08195e1a5cdd60921b6044820152606401610823565b60008281526101056020526040902054600a11610be25760405162461bcd60e51b815260206004820152600c60248201526b139bd919481a5cc8199d5b1b60a21b6044820152606401610823565b33600081815261010260209081526040808320548084526101009092529091206002810154610c235760405162461bcd60e51b815260040161082390612fb7565b84816003015414610c695760405162461bcd60e51b815260206004820152601060248201526f4e6f7420796f7572207570206e6f646560801b6044820152606401610823565b600085815261010560205260409020545b8015610d725780610c8a81612ffb565b9150508261010560008881526020019081526020016000208281548110610cb357610cb3613012565b90600052602060002001541415610d6d576000868152610105602052604090208054610ce190600190613028565b81548110610cf157610cf1613012565b906000526020600020015461010560008881526020019081526020016000208281548110610d2157610d21613012565b90600052602060002001819055506101056000878152602001908152602001600020805480610d5257610d5261303f565b60019003818190600052602060002001600090559055610d72565b610c7a565b60006003830181905560fd54604051630443ee9160e51b815260048101869052602481018990526001600160a01b039091169063887dd220906044016020604051808303816000875af1158015610dcd573d6000803e3d6000fd5b505050506040513d601f19601f82011682018060405250810190610df191906130a3565b905086847f1167679d9905b71e2c953444b39b9d22bf70de84ab2994e46a787ad43e5a42d083604051610e2691815260200190565b60405180910390a35060019695505050505050565b610e436120b6565b6001600160a01b038116610e8b5760405162461bcd60e51b815260206004820152600f60248201526e496e76616c6964206164647265737360881b6044820152606401610823565b60ff80546001600160a01b0319166001600160a01b0392909216919091179055565b336000818152610102602090815260408083205480845261010090925290912060030154831415610edd57505050565b60008181526101006020526040902060030154610ef990610b44565b50610f038361117d565b50505050565b610f116120b6565b610f1b8282612110565b5050565b6108c48383836040518060200160405280600081525061138f565b610f426120b6565b610f4b81611e81565b50565b610f566120b6565b8051610f1b9060fb906020840190612a5a565b600081815260cb60205260408120546001600160a01b0316806106ef5760405162461bcd60e51b8152602060048201526018602482015277115490cdcc8c4e881a5b9d985b1a59081d1bdad95b88125160421b6044820152606401610823565b60fb8054610fd690612f7c565b80601f016020809104026020016040519081016040528092919081815260200182805461100290612f7c565b801561104f5780601f106110245761010080835404028352916020019161104f565b820191906000526020600020905b81548152906001019060200180831161103257829003601f168201915b505050505081565b60006001600160a01b0382166110c15760405162461bcd60e51b815260206004820152602960248201527f4552433732313a2061646472657373207a65726f206973206e6f7420612076616044820152683634b21037bbb732b960b91b6064820152608401610823565b506001600160a01b0316600090815260cc602052604090205490565b6110e56120b6565b6110ef6000612252565b565b6110f96120b6565b6001600160a01b0381166111415760405162461bcd60e51b815260206004820152600f60248201526e496e76616c6964206164647265737360881b6044820152606401610823565b60fc80546001600160a01b0319166001600160a01b0392909216919091179055565b606060ca805461070490612f7c565b610f1b3383836122a4565b600081815261010060205260408120600201546111cd5760405162461bcd60e51b815260206004820152600e60248201526d139bd919481b9bdd08195e1a5cdd60921b6044820152606401610823565b60008281526101056020526040902054600a1161121b5760405162461bcd60e51b815260206004820152600c60248201526b139bd919481a5cc8199d5b1b60a21b6044820152606401610823565b3360008181526101026020526040902054838114156112745760405162461bcd60e51b815260206004820152601560248201527421b0b73713ba1039ba30b5b2903cb7bab939b2b63360591b6044820152606401610823565b60008181526101006020526040902060028101546112a45760405162461bcd60e51b815260040161082390612fb7565b60008581526101056020908152604080832080546001810182559084529183209091018490556003830187905560fd5490516301da99d960e51b815260048101859052602481018890526001600160a01b0390911690633b533b20906044016020604051808303816000875af1158015611322573d6000803e3d6000fd5b505050506040513d601f19601f8201168201806040525081019061134691906130a3565b905085837f0130450a68fc0dbac40ab2206a57f484144fbb75cdf86c3fdaa0c813d6bce5c78360405161137b91815260200190565b60405180910390a350600195945050505050565b6113993383611f1c565b6113b55760405162461bcd60e51b815260040161082390613055565b610f0384848484612373565b336000818152610102602090815260408083205480845261010090925290912060028101546114025760405162461bcd60e51b815260040161082390612fb7565b600061140d84610ae6565b60ff546040516301ff8f7360e41b8152600481018390529192506000916001600160a01b0390911690631ff8f73090602401600060405180830381865afa15801561145c573d6000803e3d6000fd5b505050506040513d6000823e601f3d908101601f191682016040526114849190810190613101565b905080606001516003146114d15760405162461bcd60e51b81526020600482015260146024820152734f4e4c595f535441524c4556454c5f544852454560601b6044820152606401610823565b60fc5460608201516001600160a01b0390911690637ae6d7419084906114f89060016131cd565b6040516001600160e01b031960e085901b16815260048101929092526024820152604401600060405180830381600087803b15801561153657600080fd5b505af115801561154a573d6000803e3d6000fd5b5050506004871490506115925760405162461bcd60e51b815260206004820152601060248201526f4e4545445f464f55525f544f4b454e5360801b6044820152606401610823565b6115cf828888808060200260200160405190810160405280939291908181526020018383602002808284376000920191909152506123a692505050565b61161b5760405162461bcd60e51b815260206004820152601860248201527f4e4545445f53414d455f544f4b454e5f50524f504552545900000000000000006044820152606401610823565b60005b868110156116ce5760ff546001600160a01b03166323b872dd3360018b8b8681811061164c5761164c613012565b6040516001600160e01b031960e088901b1681526001600160a01b03958616600482015294909316602485015250602090910201356044820152606401600060405180830381600087803b1580156116a357600080fd5b505af11580156116b7573d6000803e3d6000fd5b5050505080806116c6906131e5565b91505061161e565b5081856001600160a01b03167fd8b0734c4fb9ac9d66dc0c553b24ee5baee3215f9006d5188dc91460aa603af78360600151600161170c91906131cd565b60405190815260200160405180910390a350505050505050565b606061173182611db4565b600061173b612501565b9050600081511161175b5760405180602001604052806000815250611786565b8061176584612510565b604051602001611776929190613200565b6040516020818303038152906040525b9392505050565b60fc54604051635d528fc360e11b8152600481018590526001600160a01b039091169063baa51f8690602401602060405180830381865afa1580156117d6573d6000803e3d6000fd5b505050506040513d601f19601f820116820180604052508101906117fa919061322f565b61183c5760405162461bcd60e51b815260206004820152601360248201527210d85c99081b5d5cdd081899481cdd185ad959606a1b6044820152606401610823565b60003360fc5460405163a5cd761f60e01b8152600481018790529192506001600160a01b038084169291169063a5cd761f90602401602060405180830381865afa15801561188e573d6000803e3d6000fd5b505050506040513d601f19601f820116820180604052508101906118b2919061324c565b6001600160a01b0316146118fb5760405162461bcd60e51b815260206004820152601060248201526f4e4654206973206e6f7420796f75727360801b6044820152606401610823565b61190481611057565b156119455760405162461bcd60e51b8152602060048201526011602482015270416c72656164792068617665206e6f646560781b6044820152606401610823565b600084815261010360205260409020546001600160a01b0316156119a05760405162461bcd60e51b8152602060048201526012602482015271105b1c9958591e481c9959da5cdd195c995960721b6044820152606401610823565b600082815261010060205260409020546001600160a01b0316156119f75760405162461bcd60e51b815260206004820152600e60248201526d1d1a58dad95d081a5cc81d5cd95960921b6044820152606401610823565b60008481526101036020908152604080832080546001600160a01b0386166001600160a01b0319918216811790925586855261010090935292208054909116909117815560018101859055611a4c6101065490565b6002820155611a5b8284612110565b6001600160a01b0382811660008181526101026020526040808220879055610101805460018101825592527f109ea3cebb188b9c1b9fc5bb3920be60dfdc8699098dff92f3d80daaca74768990910186905560fd54905163a2f8de7760e01b8152600481019290925260248201869052604482018790529091169063a2f8de7790606401600060405180830381600087803b158015611af957600080fd5b505af1158015611b0d573d6000803e3d6000fd5b505060408051878152602081018790528893506001600160a01b03861692507f970d66696fa342805d6fc5131876bf40c04110feed7e00001baee26b8f6109b89101610ab5565b6001600160a01b03918216600090815260ce6020908152604080832093909416825291909152205460ff1690565b611b8a6120b6565b6001600160a01b038116611bef5760405162461bcd60e51b815260206004820152602660248201527f4f776e61626c653a206e6577206f776e657220697320746865207a65726f206160448201526564647265737360d01b6064820152608401610823565b610f4b81612252565b6101056020528160005260406000208181548110611c1557600080fd5b90600052602060002001600091509150505481565b600054600190610100900460ff16158015611c4c575060005460ff8083169116105b611caf5760405162461bcd60e51b815260206004820152602e60248201527f496e697469616c697a61626c653a20636f6e747261637420697320616c72656160448201526d191e481a5b9a5d1a585b1a5e995960921b6064820152608401610823565b6000805461ffff191660ff808416919091176101001790915560fc80546001600160a01b038089166001600160a01b03199283161790925582548783169082161790925560fe805486831690841617905560fd805491851691909216179055604080518082018252601081526f424942204e4f4445204552432037323160801b602080830191909152825180840190935260078352664249424e6f646560c81b90830152611d5c9161260e565b611d6461263f565b611d6c61266e565b6000805461ff001916905560405160ff821681527f7f26b83ff96e1f2b6a682f133852f6798a09c465da95921460cefb38474024989060200160405180910390a15050505050565b600081815260cb60205260409020546001600160a01b0316610f4b5760405162461bcd60e51b8152602060048201526018602482015277115490cdcc8c4e881a5b9d985b1a59081d1bdad95b88125160421b6044820152606401610823565b600081815260cd6020526040902080546001600160a01b0319166001600160a01b0384169081179091558190611e4882610f69565b6001600160a01b03167f8c5be1e5ebec7d5bd14f71427d1e84f3dd0314c0f7b2291e5b200ac8c7c3b92560405160405180910390a45050565b6000611e8c82610f69565b9050611e99600083611e13565b6001600160a01b038116600090815260cc60205260408120805460019290611ec2908490613028565b9091555050600082815260cb602052604080822080546001600160a01b0319169055518391906001600160a01b038416907fddf252ad1be2c89b69c2b068fc378daa952ba7f163c4a11628f55a4df523b3ef908390a45050565b600080611f2883610f69565b9050806001600160a01b0316846001600160a01b03161480611f4f5750611f4f8185611b54565b80611f735750836001600160a01b0316611f6884610787565b6001600160a01b0316145b949350505050565b6001600160a01b0380841660009081526101026020908152604080832083905592851680835283832085905584835261010090915291902080546001600160a01b0319169091179055611fcf83838361269d565b60fd54604051633a6ac7ad60e21b81526001600160a01b0385811660048301528481166024830152604482018490529091169063e9ab1eb490606401600060405180830381600087803b15801561202557600080fd5b505af1158015612039573d6000803e3d6000fd5b50505050600061204884610ae6565b60fc546040516359de158160e11b8152600481018390526001600160a01b03868116602483015292935091169063b3bc2b0290604401600060405180830381600087803b15801561209857600080fd5b505af11580156120ac573d6000803e3d6000fd5b5050505050505050565b6065546001600160a01b031633146110ef5760405162461bcd60e51b815260206004820181905260248201527f4f776e61626c653a2063616c6c6572206973206e6f7420746865206f776e65726044820152606401610823565b6001600160a01b0382166121665760405162461bcd60e51b815260206004820181905260248201527f4552433732313a206d696e7420746f20746865207a65726f20616464726573736044820152606401610823565b600081815260cb60205260409020546001600160a01b0316156121cb5760405162461bcd60e51b815260206004820152601c60248201527f4552433732313a20746f6b656e20616c7265616479206d696e746564000000006044820152606401610823565b6001600160a01b038216600090815260cc602052604081208054600192906121f49084906131cd565b9091555050600081815260cb602052604080822080546001600160a01b0319166001600160a01b03861690811790915590518392907fddf252ad1be2c89b69c2b068fc378daa952ba7f163c4a11628f55a4df523b3ef908290a45050565b606580546001600160a01b038381166001600160a01b0319831681179093556040519116919082907f8be0079c531659141344cd1fd0a4f28419497f9722a3daafe3b4186f6b6457e090600090a35050565b816001600160a01b0316836001600160a01b031614156123065760405162461bcd60e51b815260206004820152601960248201527f4552433732313a20617070726f766520746f2063616c6c6572000000000000006044820152606401610823565b6001600160a01b03838116600081815260ce6020908152604080832094871680845294825291829020805460ff191686151590811790915591519182527f17307eab39ab6107e8899845ad3d59bd9653f200f220920489ca2b5937696c31910160405180910390a3505050565b61237e848484611f7b565b61238a84848484612839565b610f035760405162461bcd60e51b815260040161082390613269565b60008151600014156123ba575060006106ef565b60ff546040516301ff8f7360e41b8152600481018590526001600160a01b03909116906000908290631ff8f73090602401600060405180830381865afa158015612408573d6000803e3d6000fd5b505050506040513d6000823e601f3d908101601f191682016040526124309190810190613101565b905060005b84518110156124f5576124d382846001600160a01b0316631ff8f73088858151811061246357612463613012565b60200260200101516040518263ffffffff1660e01b815260040161248991815260200190565b600060405180830381865afa1580156124a6573d6000803e3d6000fd5b505050506040513d6000823e601f3d908101601f191682016040526124ce9190810190613101565b612937565b6124e357600093505050506106ef565b806124ed816131e5565b915050612435565b50600195945050505050565b606060fb805461070490612f7c565b6060816125345750506040805180820190915260018152600360fc1b602082015290565b8160005b811561255e5780612548816131e5565b91506125579050600a836132d1565b9150612538565b60008167ffffffffffffffff81111561257957612579612c49565b6040519080825280601f01601f1916602001820160405280156125a3576020820181803683370190505b5090505b8415611f73576125b8600183613028565b91506125c5600a866132e5565b6125d09060306131cd565b60f81b8183815181106125e5576125e5613012565b60200101906001600160f81b031916908160001a905350612607600a866132d1565b94506125a7565b600054610100900460ff166126355760405162461bcd60e51b8152600401610823906132f9565b610f1b82826129a9565b600054610100900460ff166126665760405162461bcd60e51b8152600401610823906132f9565b6110ef6129f7565b600054610100900460ff166126955760405162461bcd60e51b8152600401610823906132f9565b6110ef612a2a565b826001600160a01b03166126b082610f69565b6001600160a01b0316146127145760405162461bcd60e51b815260206004820152602560248201527f4552433732313a207472616e736665722066726f6d20696e636f72726563742060448201526437bbb732b960d91b6064820152608401610823565b6001600160a01b0382166127765760405162461bcd60e51b8152602060048201526024808201527f4552433732313a207472616e7366657220746f20746865207a65726f206164646044820152637265737360e01b6064820152608401610823565b612781600082611e13565b6001600160a01b038316600090815260cc602052604081208054600192906127aa908490613028565b90915550506001600160a01b038216600090815260cc602052604081208054600192906127d89084906131cd565b9091555050600081815260cb602052604080822080546001600160a01b0319166001600160a01b0386811691821790925591518493918716917fddf252ad1be2c89b69c2b068fc378daa952ba7f163c4a11628f55a4df523b3ef91a4505050565b60006001600160a01b0384163b1561292c57604051630a85bd0160e11b81526001600160a01b0385169063150b7a029061287d903390899088908890600401613344565b6020604051808303816000875af19250505080156128b8575060408051601f3d908101601f191682019092526128b591810190613381565b60015b612912573d8080156128e6576040519150601f19603f3d011682016040523d82523d6000602084013e6128eb565b606091505b50805161290a5760405162461bcd60e51b815260040161082390613269565b805181602001fd5b6001600160e01b031916630a85bd0160e11b149050611f73565b506001949350505050565b60008160000151805190602001208360000151805190602001201480156129735750816020015180519060200120836020015180519060200120145b80156129945750816040015180519060200120836040015180519060200120145b80156117865750506080908101519101511490565b600054610100900460ff166129d05760405162461bcd60e51b8152600401610823906132f9565b81516129e39060c9906020850190612a5a565b5080516108c49060ca906020840190612a5a565b600054610100900460ff16612a1e5760405162461bcd60e51b8152600401610823906132f9565b6033805460ff19169055565b600054610100900460ff16612a515760405162461bcd60e51b8152600401610823906132f9565b6110ef33612252565b828054612a6690612f7c565b90600052602060002090601f016020900481019282612a885760008555612ace565b82601f10612aa157805160ff1916838001178555612ace565b82800160010185558215612ace579182015b82811115612ace578251825591602001919060010190612ab3565b50612ada929150612ade565b5090565b5b80821115612ada5760008155600101612adf565b6001600160e01b031981168114610f4b57600080fd5b600060208284031215612b1b57600080fd5b813561178681612af3565b60005b83811015612b41578181015183820152602001612b29565b83811115610f035750506000910152565b60008151808452612b6a816020860160208601612b26565b601f01601f19169290920160200192915050565b6020815260006117866020830184612b52565b600060208284031215612ba357600080fd5b5035919050565b6001600160a01b0381168114610f4b57600080fd5b60008060408385031215612bd257600080fd5b8235612bdd81612baa565b946020939093013593505050565b600060208284031215612bfd57600080fd5b813561178681612baa565b600080600060608486031215612c1d57600080fd5b8335612c2881612baa565b92506020840135612c3881612baa565b929592945050506040919091013590565b634e487b7160e01b600052604160045260246000fd5b60405160a0810167ffffffffffffffff81118282101715612c8257612c82612c49565b60405290565b604051601f8201601f1916810167ffffffffffffffff81118282101715612cb157612cb1612c49565b604052919050565b600067ffffffffffffffff821115612cd357612cd3612c49565b50601f01601f191660200190565b6000612cf4612cef84612cb9565b612c88565b9050828152838383011115612d0857600080fd5b828260208301376000602084830101529392505050565b600060208284031215612d3157600080fd5b813567ffffffffffffffff811115612d4857600080fd5b8201601f81018413612d5957600080fd5b611f7384823560208401612ce1565b8015158114610f4b57600080fd5b60008060408385031215612d8957600080fd5b8235612d9481612baa565b91506020830135612da481612d68565b809150509250929050565b60008060008060808587031215612dc557600080fd5b8435612dd081612baa565b93506020850135612de081612baa565b925060408501359150606085013567ffffffffffffffff811115612e0357600080fd5b8501601f81018713612e1457600080fd5b612e2387823560208401612ce1565b91505092959194509250565b60008060208385031215612e4257600080fd5b823567ffffffffffffffff80821115612e5a57600080fd5b818501915085601f830112612e6e57600080fd5b813581811115612e7d57600080fd5b8660208260051b8501011115612e9257600080fd5b60209290920196919550909350505050565b600080600060608486031215612eb957600080fd5b505081359360208301359350604090920135919050565b60008060408385031215612ee357600080fd5b8235612eee81612baa565b91506020830135612da481612baa565b60008060408385031215612f1157600080fd5b50508035926020909101359150565b60008060008060808587031215612f3657600080fd5b8435612f4181612baa565b93506020850135612f5181612baa565b92506040850135612f6181612baa565b91506060850135612f7181612baa565b939692955090935050565b600181811c90821680612f9057607f821691505b60208210811415612fb157634e487b7160e01b600052602260045260246000fd5b50919050565b6020808252601490820152732cb7ba903237b713ba103430bb32903737b2329760611b604082015260600190565b634e487b7160e01b600052601160045260246000fd5b60008161300a5761300a612fe5565b506000190190565b634e487b7160e01b600052603260045260246000fd5b60008282101561303a5761303a612fe5565b500390565b634e487b7160e01b600052603160045260246000fd5b6020808252602e908201527f4552433732313a2063616c6c6572206973206e6f7420746f6b656e206f776e6560408201526d1c881b9bdc88185c1c1c9bdd995960921b606082015260800190565b6000602082840312156130b557600080fd5b5051919050565b600082601f8301126130cd57600080fd5b81516130db612cef82612cb9565b8181528460208386010111156130f057600080fd5b611f73826020830160208701612b26565b60006020828403121561311357600080fd5b815167ffffffffffffffff8082111561312b57600080fd5b9083019060a0828603121561313f57600080fd5b613147612c5f565b82518281111561315657600080fd5b613162878286016130bc565b82525060208301518281111561317757600080fd5b613183878286016130bc565b60208301525060408301518281111561319b57600080fd5b6131a7878286016130bc565b604083015250606083015160608201526080830151608082015280935050505092915050565b600082198211156131e0576131e0612fe5565b500190565b60006000198214156131f9576131f9612fe5565b5060010190565b60008351613212818460208801612b26565b835190830190613226818360208801612b26565b01949350505050565b60006020828403121561324157600080fd5b815161178681612d68565b60006020828403121561325e57600080fd5b815161178681612baa565b60208082526032908201527f4552433732313a207472616e7366657220746f206e6f6e20455243373231526560408201527131b2b4bb32b91034b6b83632b6b2b73a32b960711b606082015260800190565b634e487b7160e01b600052601260045260246000fd5b6000826132e0576132e06132bb565b500490565b6000826132f4576132f46132bb565b500690565b6020808252602b908201527f496e697469616c697a61626c653a20636f6e7472616374206973206e6f74206960408201526a6e697469616c697a696e6760a81b606082015260800190565b6001600160a01b038581168252841660208201526040810183905260806060820181905260009061337790830184612b52565b9695505050505050565b60006020828403121561339357600080fd5b815161178681612af356fea264697066735822122042d9d9c71a2098e5a5eb2d2ff2e93533c570e7bd9dcb3222165bbdeb254dadee64736f6c634300080b0033",
  "linkReferences": {},
  "deployedLinkReferences": {}
}