{
  "_format": "hh-sol-artifact-1",
  "contractName": "BIBNodeHarness",
  "sourceName": "contracts/test/BIBNodeHarness.sol",
  "abi": [
    {
      "anonymous": false,
      "inputs": [
        {
          "indexed": true,
          "internalType": "address",
          "name": "owner",
          "type": "address"
        },
        {
          "indexed": true,
          "internalType": "address",
          "name": "approved",
          "type": "address"
        },
        {
          "indexed": true,
          "internalType": "uint256",
          "name": "tokenId",
          "type": "uint256"
        }
      ],
      "name": "Approval",
      "type": "event"
    },
    {
      "anonymous": false,
      "inputs": [
        {
          "indexed": true,
          "internalType": "address",
          "name": "owner",
          "type": "address"
        },
        {
          "indexed": true,
          "internalType": "address",
          "name": "operator",
          "type": "address"
        },
        {
          "indexed": false,
          "internalType": "bool",
          "name": "approved",
          "type": "bool"
        }
      ],
      "name": "ApprovalForAll",
      "type": "event"
    },
    {
      "anonymous": false,
      "inputs": [
        {
          "indexed": true,
          "internalType": "address",
          "name": "user",
          "type": "address"
        },
        {
          "indexed": true,
          "internalType": "uint256",
          "name": "cardNFTId",
          "type": "uint256"
        },
        {
          "indexed": false,
          "internalType": "uint256",
          "name": "bibAmount",
          "type": "uint256"
        },
        {
          "indexed": false,
          "internalType": "uint256",
          "name": "ticketId",
          "type": "uint256"
        }
      ],
      "name": "CreateNode",
      "type": "event"
    },
    {
      "anonymous": false,
      "inputs": [
        {
          "indexed": true,
          "internalType": "address",
          "name": "user",
          "type": "address"
        },
        {
          "indexed": true,
          "internalType": "uint256",
          "name": "cardNFTId",
          "type": "uint256"
        },
        {
          "indexed": false,
          "internalType": "uint256",
          "name": "ticketId",
          "type": "uint256"
        }
      ],
      "name": "DisbandNode",
      "type": "event"
    },
    {
      "anonymous": false,
      "inputs": [
        {
          "indexed": false,
          "internalType": "uint8",
          "name": "version",
          "type": "uint8"
        }
      ],
      "name": "Initialized",
      "type": "event"
    },
    {
      "anonymous": false,
      "inputs": [
        {
          "indexed": true,
          "internalType": "uint256",
          "name": "fromTicketId",
          "type": "uint256"
        },
        {
          "indexed": true,
          "internalType": "uint256",
          "name": "ticketId",
          "type": "uint256"
        },
        {
          "indexed": false,
          "internalType": "uint256",
          "name": "bibAmount",
          "type": "uint256"
        }
      ],
      "name": "NodeStaking",
      "type": "event"
    },
    {
      "anonymous": false,
      "inputs": [
        {
          "indexed": true,
          "internalType": "uint256",
          "name": "fromTicketId",
          "type": "uint256"
        },
        {
          "indexed": true,
          "internalType": "uint256",
          "name": "ticketId",
          "type": "uint256"
        },
        {
          "indexed": false,
          "internalType": "uint256",
          "name": "bibAmount",
          "type": "uint256"
        }
      ],
      "name": "NodeUnStaking",
      "type": "event"
    },
    {
      "anonymous": false,
      "inputs": [
        {
          "indexed": true,
          "internalType": "address",
          "name": "previousOwner",
          "type": "address"
        },
        {
          "indexed": true,
          "internalType": "address",
          "name": "newOwner",
          "type": "address"
        }
      ],
      "name": "OwnershipTransferred",
      "type": "event"
    },
    {
      "anonymous": false,
      "inputs": [
        {
          "indexed": false,
          "internalType": "address",
          "name": "account",
          "type": "address"
        }
      ],
      "name": "Paused",
      "type": "event"
    },
    {
      "anonymous": false,
      "inputs": [
        {
          "indexed": true,
          "internalType": "address",
          "name": "from",
          "type": "address"
        },
        {
          "indexed": true,
          "internalType": "address",
          "name": "to",
          "type": "address"
        },
        {
          "indexed": true,
          "internalType": "uint256",
          "name": "tokenId",
          "type": "uint256"
        }
      ],
      "name": "Transfer",
      "type": "event"
    },
    {
      "anonymous": false,
      "inputs": [
        {
          "indexed": false,
          "internalType": "address",
          "name": "account",
          "type": "address"
        }
      ],
      "name": "Unpaused",
      "type": "event"
    },
    {
      "anonymous": false,
      "inputs": [
        {
          "indexed": false,
          "internalType": "uint256",
          "name": "maxCount",
          "type": "uint256"
        }
      ],
      "name": "UpdateMaxSubNodeCount",
      "type": "event"
    },
    {
      "anonymous": false,
      "inputs": [
        {
          "indexed": true,
          "internalType": "address",
          "name": "user",
          "type": "address"
        },
        {
          "indexed": true,
          "internalType": "uint256",
          "name": "cardNFTId",
          "type": "uint256"
        },
        {
          "indexed": false,
          "internalType": "uint256",
          "name": "starLevel",
          "type": "uint256"
        }
      ],
      "name": "UpgradeNode",
      "type": "event"
    },
    {
      "inputs": [],
      "name": "BIBStaking",
      "outputs": [
        {
          "internalType": "contract IBIBStaking",
          "name": "",
          "type": "address"
        }
      ],
      "stateMutability": "view",
      "type": "function"
    },
    {
      "inputs": [],
      "name": "BIBToken",
      "outputs": [
        {
          "internalType": "contract IERC20Upgradeable",
          "name": "",
          "type": "address"
        }
      ],
      "stateMutability": "view",
      "type": "function"
    },
    {
      "inputs": [],
      "name": "BLACK_HOLE",
      "outputs": [
        {
          "internalType": "address",
          "name": "",
          "type": "address"
        }
      ],
      "stateMutability": "view",
      "type": "function"
    },
    {
      "inputs": [
        {
          "internalType": "address",
          "name": "to",
          "type": "address"
        },
        {
          "internalType": "uint256",
          "name": "tokenId",
          "type": "uint256"
        }
      ],
      "name": "approve",
      "outputs": [],
      "stateMutability": "nonpayable",
      "type": "function"
    },
    {
      "inputs": [
        {
          "internalType": "address",
          "name": "owner",
          "type": "address"
        }
      ],
      "name": "balanceOf",
      "outputs": [
        {
          "internalType": "uint256",
          "name": "",
          "type": "uint256"
        }
      ],
      "stateMutability": "view",
      "type": "function"
    },
    {
      "inputs": [],
      "name": "baseURI",
      "outputs": [
        {
          "internalType": "string",
          "name": "",
          "type": "string"
        }
      ],
      "stateMutability": "view",
      "type": "function"
    },
    {
      "inputs": [
        {
          "internalType": "uint256",
          "name": "tokenId",
          "type": "uint256"
        }
      ],
      "name": "burn",
      "outputs": [],
      "stateMutability": "nonpayable",
      "type": "function"
    },
    {
      "inputs": [
        {
          "internalType": "uint256",
          "name": "",
          "type": "uint256"
        }
      ],
      "name": "cardNFTOwners",
      "outputs": [
        {
          "internalType": "address",
          "name": "",
          "type": "address"
        }
      ],
      "stateMutability": "view",
      "type": "function"
    },
    {
      "inputs": [],
      "name": "cardNFTStake",
      "outputs": [
        {
          "internalType": "contract IStakedSoccerStarNftV2",
          "name": "",
          "type": "address"
        }
      ],
      "stateMutability": "view",
      "type": "function"
    },
    {
      "inputs": [
        {
          "internalType": "uint256",
          "name": "_ticket",
          "type": "uint256"
        }
      ],
      "name": "changeStakeNode",
      "outputs": [],
      "stateMutability": "nonpayable",
      "type": "function"
    },
    {
      "inputs": [
        {
          "internalType": "uint256",
          "name": "_cardNFTId",
          "type": "uint256"
        },
        {
          "internalType": "uint256",
          "name": "_bibAmount",
          "type": "uint256"
        },
        {
          "internalType": "uint256",
          "name": "ticket",
          "type": "uint256"
        }
      ],
      "name": "createNode",
      "outputs": [],
      "stateMutability": "nonpayable",
      "type": "function"
    },
    {
      "inputs": [],
      "name": "currentTime",
      "outputs": [
        {
          "internalType": "uint256",
          "name": "",
          "type": "uint256"
        }
      ],
      "stateMutability": "view",
      "type": "function"
    },
    {
      "inputs": [
        {
          "internalType": "uint256",
          "name": "_ticket",
          "type": "uint256"
        }
      ],
      "name": "deleteSubNode",
      "outputs": [
        {
          "internalType": "bool",
          "name": "",
          "type": "bool"
        }
      ],
      "stateMutability": "nonpayable",
      "type": "function"
    },
    {
      "inputs": [],
      "name": "disbandNode",
      "outputs": [],
      "stateMutability": "nonpayable",
      "type": "function"
    },
    {
      "inputs": [
        {
          "internalType": "uint256",
          "name": "tokenId",
          "type": "uint256"
        }
      ],
      "name": "getApproved",
      "outputs": [
        {
          "internalType": "address",
          "name": "",
          "type": "address"
        }
      ],
      "stateMutability": "view",
      "type": "function"
    },
    {
      "inputs": [
        {
          "internalType": "address",
          "name": "user",
          "type": "address"
        }
      ],
      "name": "getCardNFTByAddress",
      "outputs": [
        {
          "internalType": "uint256",
          "name": "",
          "type": "uint256"
        }
      ],
      "stateMutability": "view",
      "type": "function"
    },
    {
      "inputs": [
        {
          "internalType": "uint256",
          "name": "tokenId",
          "type": "uint256"
        }
      ],
      "name": "getCardProperty",
      "outputs": [
        {
          "components": [
            {
              "internalType": "string",
              "name": "name",
              "type": "string"
            },
            {
              "internalType": "string",
              "name": "country",
              "type": "string"
            },
            {
              "internalType": "string",
              "name": "position",
              "type": "string"
            },
            {
              "internalType": "uint256",
              "name": "starLevel",
              "type": "uint256"
            },
            {
              "internalType": "uint256",
              "name": "gradient",
              "type": "uint256"
            }
          ],
          "internalType": "struct ISoccerStarNft.SoccerStar",
          "name": "",
          "type": "tuple"
        }
      ],
      "stateMutability": "view",
      "type": "function"
    },
    {
      "inputs": [
        {
          "internalType": "address",
          "name": "_cardNFTStake",
          "type": "address"
        },
        {
          "internalType": "address",
          "name": "_soccerStarNft",
          "type": "address"
        },
        {
          "internalType": "address",
          "name": "_bibToken",
          "type": "address"
        },
        {
          "internalType": "address",
          "name": "_bibStaking",
          "type": "address"
        },
        {
          "internalType": "address",
          "name": "_soccerStartNftMarket",
          "type": "address"
        }
      ],
      "name": "initialize",
      "outputs": [],
      "stateMutability": "nonpayable",
      "type": "function"
    },
    {
      "inputs": [
        {
          "internalType": "address",
          "name": "owner",
          "type": "address"
        },
        {
          "internalType": "address",
          "name": "operator",
          "type": "address"
        }
      ],
      "name": "isApprovedForAll",
      "outputs": [
        {
          "internalType": "bool",
          "name": "",
          "type": "bool"
        }
      ],
      "stateMutability": "view",
      "type": "function"
    },
    {
      "inputs": [
        {
          "internalType": "uint256",
          "name": "tokenId",
          "type": "uint256"
        }
      ],
      "name": "isStakedAsNode",
      "outputs": [
        {
          "internalType": "bool",
          "name": "",
          "type": "bool"
        }
      ],
      "stateMutability": "view",
      "type": "function"
    },
    {
      "inputs": [],
      "name": "maxSubNodeCount",
      "outputs": [
        {
          "internalType": "uint256",
          "name": "",
          "type": "uint256"
        }
      ],
      "stateMutability": "view",
      "type": "function"
    },
    {
      "inputs": [
        {
          "internalType": "address",
          "name": "to",
          "type": "address"
        },
        {
          "internalType": "uint256",
          "name": "tokenId",
          "type": "uint256"
        }
      ],
      "name": "mint",
      "outputs": [],
      "stateMutability": "nonpayable",
      "type": "function"
    },
    {
      "inputs": [],
      "name": "name",
      "outputs": [
        {
          "internalType": "string",
          "name": "",
          "type": "string"
        }
      ],
      "stateMutability": "view",
      "type": "function"
    },
    {
      "inputs": [
        {
          "internalType": "uint256",
          "name": "",
          "type": "uint256"
        }
      ],
      "name": "nodeList",
      "outputs": [
        {
          "internalType": "uint256",
          "name": "",
          "type": "uint256"
        }
      ],
      "stateMutability": "view",
      "type": "function"
    },
    {
      "inputs": [
        {
          "internalType": "uint256",
          "name": "",
          "type": "uint256"
        }
      ],
      "name": "nodeMap",
      "outputs": [
        {
          "internalType": "address",
          "name": "ownerAddress",
          "type": "address"
        },
        {
          "internalType": "uint256",
          "name": "cardNftId",
          "type": "uint256"
        },
        {
          "internalType": "uint256",
          "name": "createTime",
          "type": "uint256"
        },
        {
          "internalType": "uint256",
          "name": "upNode",
          "type": "uint256"
        }
      ],
      "stateMutability": "view",
      "type": "function"
    },
    {
      "inputs": [],
      "name": "owner",
      "outputs": [
        {
          "internalType": "address",
          "name": "",
          "type": "address"
        }
      ],
      "stateMutability": "view",
      "type": "function"
    },
    {
      "inputs": [
        {
          "internalType": "uint256",
          "name": "tokenId",
          "type": "uint256"
        }
      ],
      "name": "ownerOf",
      "outputs": [
        {
          "internalType": "address",
          "name": "",
          "type": "address"
        }
      ],
      "stateMutability": "view",
      "type": "function"
    },
    {
      "inputs": [],
      "name": "paused",
      "outputs": [
        {
          "internalType": "bool",
          "name": "",
          "type": "bool"
        }
      ],
      "stateMutability": "view",
      "type": "function"
    },
    {
      "inputs": [],
      "name": "renounceOwnership",
      "outputs": [],
      "stateMutability": "nonpayable",
      "type": "function"
    },
    {
      "inputs": [
        {
          "internalType": "address",
          "name": "from",
          "type": "address"
        },
        {
          "internalType": "address",
          "name": "to",
          "type": "address"
        },
        {
          "internalType": "uint256",
          "name": "tokenId",
          "type": "uint256"
        }
      ],
      "name": "safeTransferFrom",
      "outputs": [],
      "stateMutability": "nonpayable",
      "type": "function"
    },
    {
      "inputs": [
        {
          "internalType": "address",
          "name": "from",
          "type": "address"
        },
        {
          "internalType": "address",
          "name": "to",
          "type": "address"
        },
        {
          "internalType": "uint256",
          "name": "tokenId",
          "type": "uint256"
        },
        {
          "internalType": "bytes",
          "name": "data",
          "type": "bytes"
        }
      ],
      "name": "safeTransferFrom",
      "outputs": [],
      "stateMutability": "nonpayable",
      "type": "function"
    },
    {
      "inputs": [
        {
          "internalType": "address",
          "name": "operator",
          "type": "address"
        },
        {
          "internalType": "bool",
          "name": "approved",
          "type": "bool"
        }
      ],
      "name": "setApprovalForAll",
      "outputs": [],
      "stateMutability": "nonpayable",
      "type": "function"
    },
    {
      "inputs": [
        {
          "internalType": "string",
          "name": "uri",
          "type": "string"
        }
      ],
      "name": "setBaseURI",
      "outputs": [],
      "stateMutability": "nonpayable",
      "type": "function"
    },
    {
      "inputs": [
        {
          "internalType": "address",
          "name": "_cardNft",
          "type": "address"
        }
      ],
      "name": "setCardNft",
      "outputs": [],
      "stateMutability": "nonpayable",
      "type": "function"
    },
    {
      "inputs": [
        {
          "internalType": "address",
          "name": "_cardNftStake",
          "type": "address"
        }
      ],
      "name": "setCardNftStake",
      "outputs": [],
      "stateMutability": "nonpayable",
      "type": "function"
    },
    {
      "inputs": [
        {
          "internalType": "uint256",
          "name": "_currentTime",
          "type": "uint256"
        }
      ],
      "name": "setCurrentTime",
      "outputs": [],
      "stateMutability": "nonpayable",
      "type": "function"
    },
    {
      "inputs": [
        {
          "internalType": "uint256",
          "name": "_maxSubNodeCount",
          "type": "uint256"
        }
      ],
      "name": "setMaxSubNodeCount",
      "outputs": [],
      "stateMutability": "nonpayable",
      "type": "function"
    },
    {
      "inputs": [],
      "name": "soccerStarNft",
      "outputs": [
        {
          "internalType": "contract ERC721Upgradeable",
          "name": "",
          "type": "address"
        }
      ],
      "stateMutability": "view",
      "type": "function"
    },
    {
      "inputs": [],
      "name": "soccerStartNftMarket",
      "outputs": [
        {
          "internalType": "address",
          "name": "",
          "type": "address"
        }
      ],
      "stateMutability": "view",
      "type": "function"
    },
    {
      "inputs": [
        {
          "internalType": "uint256",
          "name": "_ticket",
          "type": "uint256"
        }
      ],
      "name": "stakeNode",
      "outputs": [
        {
          "internalType": "bool",
          "name": "",
          "type": "bool"
        }
      ],
      "stateMutability": "nonpayable",
      "type": "function"
    },
    {
      "inputs": [
        {
          "internalType": "uint256",
          "name": "",
          "type": "uint256"
        },
        {
          "internalType": "uint256",
          "name": "",
          "type": "uint256"
        }
      ],
      "name": "subNodes",
      "outputs": [
        {
          "internalType": "uint256",
          "name": "",
          "type": "uint256"
        }
      ],
      "stateMutability": "view",
      "type": "function"
    },
    {
      "inputs": [
        {
          "internalType": "bytes4",
          "name": "interfaceId",
          "type": "bytes4"
        }
      ],
      "name": "supportsInterface",
      "outputs": [
        {
          "internalType": "bool",
          "name": "",
          "type": "bool"
        }
      ],
      "stateMutability": "view",
      "type": "function"
    },
    {
      "inputs": [],
      "name": "symbol",
      "outputs": [
        {
          "internalType": "string",
          "name": "",
          "type": "string"
        }
      ],
      "stateMutability": "view",
      "type": "function"
    },
    {
      "inputs": [
        {
          "internalType": "address",
          "name": "",
          "type": "address"
        }
      ],
      "name": "ticketMap",
      "outputs": [
        {
          "internalType": "uint256",
          "name": "",
          "type": "uint256"
        }
      ],
      "stateMutability": "view",
      "type": "function"
    },
    {
      "inputs": [
        {
          "internalType": "uint256",
          "name": "",
          "type": "uint256"
        }
      ],
      "name": "ticketProperty",
      "outputs": [
        {
          "internalType": "string",
          "name": "name",
          "type": "string"
        },
        {
          "internalType": "string",
          "name": "country",
          "type": "string"
        },
        {
          "internalType": "string",
          "name": "position",
          "type": "string"
        },
        {
          "internalType": "uint256",
          "name": "starLevel",
          "type": "uint256"
        },
        {
          "internalType": "uint256",
          "name": "gradient",
          "type": "uint256"
        }
      ],
      "stateMutability": "view",
      "type": "function"
    },
    {
      "inputs": [
        {
          "internalType": "uint256",
          "name": "_nftId",
          "type": "uint256"
        }
      ],
      "name": "tokenURI",
      "outputs": [
        {
          "internalType": "string",
          "name": "",
          "type": "string"
        }
      ],
      "stateMutability": "view",
      "type": "function"
    },
    {
      "inputs": [
        {
          "internalType": "address",
          "name": "from",
          "type": "address"
        },
        {
          "internalType": "address",
          "name": "to",
          "type": "address"
        },
        {
          "internalType": "uint256",
          "name": "tokenId",
          "type": "uint256"
        }
      ],
      "name": "transferFrom",
      "outputs": [],
      "stateMutability": "nonpayable",
      "type": "function"
    },
    {
      "inputs": [
        {
          "internalType": "address",
          "name": "newOwner",
          "type": "address"
        }
      ],
      "name": "transferOwnership",
      "outputs": [],
      "stateMutability": "nonpayable",
      "type": "function"
    },
    {
      "inputs": [
        {
          "internalType": "uint256",
          "name": "_ticket",
          "type": "uint256"
        }
      ],
      "name": "unStakeNode",
      "outputs": [
        {
          "internalType": "bool",
          "name": "",
          "type": "bool"
        }
      ],
      "stateMutability": "nonpayable",
      "type": "function"
    },
    {
      "inputs": [
        {
          "internalType": "uint256[]",
          "name": "_cardNFTIds",
          "type": "uint256[]"
        }
      ],
      "name": "upgradeNode",
      "outputs": [],
      "stateMutability": "nonpayable",
      "type": "function"
    }
  ],
  "bytecode": "0x608060405234801561001057600080fd5b50613eb3806100206000396000f3fe608060405234801561001057600080fd5b50600436106102d55760003560e01c806355f804b31161018257806396ae99b4116100e9578063c87b56dd116100a2578063d810fe6b1161007c578063d810fe6b146106d4578063e985e9c5146106f8578063f2fde38b1461070b578063f6a9010b1461071e57600080fd5b8063c87b56dd146106a4578063d1577c7c146106b7578063d18e81b3146106ca57600080fd5b806396ae99b41461060d578063a22cb4651461062e578063a4ab0b2e14610641578063b7d5f2e414610654578063b88d4fde1461067e578063be7834331461069157600080fd5b8063715018a61161013b578063715018a61461059a57806378f64c8c146105a25780638908d676146105b5578063893c8cc1146105c85780638da5cb5b146105f457806395d89b411461060557600080fd5b806355f804b31461053a57806357299d291461054d5780635c975abb146105615780636352211e1461056c5780636c0360eb1461057f57806370a082311461058757600080fd5b80632269d36d11610241578063342874ec116101fa57806342842e0e116101d457806342842e0e146104f957806342966c681461050c5780634d351f651461051f57806355eda4e81461053257600080fd5b8063342874ec14610469578063356ff5cd1461047c57806340c10f19146104e657600080fd5b80632269d36d146103f657806322f8e5661461040957806323b872dd1461041d5780632aa64771146104305780632f973512146104435780633328bd4e1461045657600080fd5b80630c98a385116102935780630c98a385146103825780631459457a1461039557806314cf76c8146103a857806316833cca146103bb5780631ff8f730146103c3578063208f2a31146103e357600080fd5b80627c3d54146102da57806301d38091146102ef57806301ffc9a71461030c57806306fdde031461032f578063081812fc14610344578063095ea7b31461036f575b600080fd5b6102ed6102e83660046134be565b610731565b005b6102f96101075481565b6040519081526020015b60405180910390f35b61031f61031a3660046134ed565b610775565b6040519015158152602001610303565b6103376107c7565b6040516103039190613562565b6103576103523660046134be565b610859565b6040516001600160a01b039091168152602001610303565b6102ed61037d36600461358a565b610880565b60ff54610357906001600160a01b031681565b6102ed6103a33660046135b6565b61099b565b60fe54610357906001600160a01b031681565b6102ed610b6c565b6103d66103d13660046134be565b610d67565b6040516103039190613627565b6102f96103f13660046134be565b610f83565b6102f96104043660046136a0565b610fa5565b6102ed6104173660046134be565b61010855565b6102ed61042b3660046136bd565b610fd2565b61031f61043e3660046134be565b611003565b6102ed6104513660046136a0565b6112d9565b6102ed6104643660046134be565b61134b565b61031f6104773660046134be565b6113a7565b6104bc61048a3660046134be565b6101016020526000908152604090208054600182015460028301546003909301546001600160a01b0390921692909184565b604080516001600160a01b0390951685526020850193909352918301526060820152608001610303565b6102ed6104f436600461358a565b611635565b6102ed6105073660046136bd565b61164b565b6102ed61051a3660046134be565b611666565b60fc54610357906001600160a01b031681565b610357600181565b6102ed6105483660046137d4565b61167a565b61010054610357906001600160a01b031681565b60335460ff1661031f565b61035761057a3660046134be565b611695565b6103376116f5565b6102f96105953660046136a0565b611783565b6102ed611809565b60fd54610357906001600160a01b031681565b6102ed6105c33660046136a0565b61181d565b61031f6105d63660046134be565b600090815261010460205260409020546001600160a01b0316151590565b6065546001600160a01b0316610357565b61033761188f565b6102f961061b3660046136a0565b6101036020526000908152604090205481565b6102ed61063c36600461382b565b61189e565b61031f61064f3660046134be565b6118a9565b6103576106623660046134be565b610104602052600090815260409020546001600160a01b031681565b6102ed61068c366004613864565b611a9c565b6102ed61069f3660046138e4565b611ace565b6103376106b23660046134be565b611e55565b6102ed6106c5366004613959565b611f18565b6102f96101085481565b6106e76106e23660046134be565b6123c3565b604051610303959493929190613985565b61031f6107063660046139d3565b61258a565b6102ed6107193660046136a0565b6125b8565b6102f961072c366004613a01565b61262e565b610739612660565b6101078190556040518181527f12290ca071004812e79b71614c6f6473592118262e3e527d82585aa4d3aa1d389060200160405180910390a150565b60006001600160e01b031982166380ac58cd60e01b14806107a657506001600160e01b03198216635b5e139f60e01b145b806107c157506301ffc9a760e01b6001600160e01b03198316145b92915050565b606060c980546107d690613a23565b80601f016020809104026020016040519081016040528092919081815260200182805461080290613a23565b801561084f5780601f106108245761010080835404028352916020019161084f565b820191906000526020600020905b81548152906001019060200180831161083257829003601f168201915b5050505050905090565b6000610864826126ba565b50600090815260cd60205260409020546001600160a01b031690565b600061088b82611695565b9050806001600160a01b0316836001600160a01b031614156108fe5760405162461bcd60e51b815260206004820152602160248201527f4552433732313a20617070726f76616c20746f2063757272656e74206f776e656044820152603960f91b60648201526084015b60405180910390fd5b336001600160a01b038216148061091a575061091a813361258a565b61098c5760405162461bcd60e51b815260206004820152603e60248201527f4552433732313a20617070726f76652063616c6c6572206973206e6f7420746f60448201527f6b656e206f776e6572206e6f7220617070726f76656420666f7220616c6c000060648201526084016108f5565b6109968383612719565b505050565b600054600190610100900460ff161580156109bd575060005460ff8083169116105b610a205760405162461bcd60e51b815260206004820152602e60248201527f496e697469616c697a61626c653a20636f6e747261637420697320616c72656160448201526d191e481a5b9a5d1a585b1a5e995960921b60648201526084016108f5565b6000805461ffff191660ff8084169190911761010090811790925560fc80546001600160a01b03808b166001600160a01b03199283161790925582548983169082161790925560fe805488831690841617905560fd805487831690841617905582549085169116179055604080518082018252601081526f424942204e4f4445204552432037323160801b602080830191909152825180840190935260078352664249424e6f646560c81b90830152610ad891612787565b610ae06127b8565b610ae86127e7565b600a6101078190556040519081527f12290ca071004812e79b71614c6f6473592118262e3e527d82585aa4d3aa1d389060200160405180910390a16000805461ff001916905560405160ff821681527f7f26b83ff96e1f2b6a682f133852f6798a09c465da95921460cefb38474024989060200160405180910390a1505050505050565b33600081815261010360209081526040808320548084526101019092529091206002810154610bad5760405162461bcd60e51b81526004016108f590613a5e565b6000610bb884610fa5565b9050610bc383612816565b6001600160a01b03848116600081815261010360205260408082209190915560fd5490516336b14edf60e11b815260048101929092526024820186905290911690636d629dbe90604401600060405180830381600087803b158015610c2757600080fd5b505af1158015610c3b573d6000803e3d6000fd5b5050610102549150505b8015610cfc5780610c5581613aa2565b915050836101028281548110610c6d57610c6d613ab9565b90600052602060002001541415610cf7576101028054610c8f90600190613acf565b81548110610c9f57610c9f613ab9565b90600052602060002001546101028281548110610cbe57610cbe613ab9565b600091825260209091200155610102805480610cdc57610cdc613ae6565b60019003818190600052602060002001600090559055610cfc565b610c45565b600082815261010460205260409081902080546001600160a01b03191690555182906001600160a01b038716907fe89522f30cc3ab418b3126979d7793b955bf00d510a3d265b7065d62a423061790610d589088815260200190565b60405180910390a35050505050565b610d996040518060a0016040528060608152602001606081526020016060815260200160008152602001600081525090565b6000828152610105602052604090819020815160a08101909252805482908290610dc290613a23565b80601f0160208091040260200160405190810160405280929190818152602001828054610dee90613a23565b8015610e3b5780601f10610e1057610100808354040283529160200191610e3b565b820191906000526020600020905b815481529060010190602001808311610e1e57829003601f168201915b50505050508152602001600182018054610e5490613a23565b80601f0160208091040260200160405190810160405280929190818152602001828054610e8090613a23565b8015610ecd5780601f10610ea257610100808354040283529160200191610ecd565b820191906000526020600020905b815481529060010190602001808311610eb057829003601f168201915b50505050508152602001600282018054610ee690613a23565b80601f0160208091040260200160405190810160405280929190818152602001828054610f1290613a23565b8015610f5f5780601f10610f3457610100808354040283529160200191610f5f565b820191906000526020600020905b815481529060010190602001808311610f4257829003601f168201915b50505050508152602001600382015481526020016004820154815250509050919050565b6101028181548110610f9457600080fd5b600091825260209091200154905081565b6001600160a01b031660009081526101036020908152604080832054835261010190915290206001015490565b610fdc33826128b1565b610ff85760405162461bcd60e51b81526004016108f590613afc565b610996838383612910565b600081815261010160205260408120600201546110325760405162461bcd60e51b81526004016108f590613b4a565b60008281526101066020526040902054600a116110805760405162461bcd60e51b815260206004820152600c60248201526b139bd919481a5cc8199d5b1b60a21b60448201526064016108f5565b336000818152610103602090815260408083205480845261010190925290912060028101546110c15760405162461bcd60e51b81526004016108f590613a5e565b848160030154146111075760405162461bcd60e51b815260206004820152601060248201526f4e6f7420796f7572207570206e6f646560801b60448201526064016108f5565b600085815261010660205260409020545b8015611210578061112881613aa2565b915050826101066000888152602001908152602001600020828154811061115157611151613ab9565b9060005260206000200154141561120b57600086815261010660205260409020805461117f90600190613acf565b8154811061118f5761118f613ab9565b9060005260206000200154610106600088815260200190815260200160002082815481106111bf576111bf613ab9565b906000526020600020018190555061010660008781526020019081526020016000208054806111f0576111f0613ae6565b60019003818190600052602060002001600090559055611210565b611118565b60006003830181905560fd54604051630443ee9160e51b815260048101869052602481018990526001600160a01b039091169063887dd220906044016020604051808303816000875af115801561126b573d6000803e3d6000fd5b505050506040513d601f19601f8201168201806040525081019061128f9190613b72565b905086847f1167679d9905b71e2c953444b39b9d22bf70de84ab2994e46a787ad43e5a42d0836040516112c491815260200190565b60405180910390a35060019695505050505050565b6112e1612660565b6001600160a01b0381166113295760405162461bcd60e51b815260206004820152600f60248201526e496e76616c6964206164647265737360881b60448201526064016108f5565b60ff80546001600160a01b0319166001600160a01b0392909216919091179055565b33600081815261010360209081526040808320548084526101019092529091206003015483141561137b57505050565b6000818152610101602052604090206003015461139790611003565b506113a1836118a9565b50505050565b600081815261010160205260408120600201546113d65760405162461bcd60e51b81526004016108f590613b4a565b336000818152610103602090815260408083205480845261010190925290912060028101546114175760405162461bcd60e51b81526004016108f590613a5e565b60008581526101016020526040902060030154821461146c5760405162461bcd60e51b81526020600482015260116024820152704e6f7420796f757220737562206e6f646560781b60448201526064016108f5565b600082815261010660205260409020545b8015611575578061148d81613aa2565b91505085610106600085815260200190815260200160002082815481106114b6576114b6613ab9565b906000526020600020015414156115705760008381526101066020526040902080546114e490600190613acf565b815481106114f4576114f4613ab9565b90600052602060002001546101066000858152602001908152602001600020828154811061152457611524613ab9565b9060005260206000200181905550610106600084815260200190815260200160002080548061155557611555613ae6565b60019003818190600052602060002001600090559055611575565b61147d565b6000868152610101602052604080822060030182905560fd549051630443ee9160e51b815260048101899052602481018690526001600160a01b039091169063887dd220906044016020604051808303816000875af11580156115dc573d6000803e3d6000fd5b505050506040513d601f19601f820116820180604052508101906116009190613b72565b905083877f1167679d9905b71e2c953444b39b9d22bf70de84ab2994e46a787ad43e5a42d0836040516112c491815260200190565b61163d612660565b6116478282612b6a565b5050565b61099683838360405180602001604052806000815250611a9c565b61166e612660565b61167781612816565b50565b611682612660565b80516116479060fb906020840190613425565b600081815260cb60205260408120546001600160a01b0316806107c15760405162461bcd60e51b8152602060048201526018602482015277115490cdcc8c4e881a5b9d985b1a59081d1bdad95b88125160421b60448201526064016108f5565b60fb805461170290613a23565b80601f016020809104026020016040519081016040528092919081815260200182805461172e90613a23565b801561177b5780601f106117505761010080835404028352916020019161177b565b820191906000526020600020905b81548152906001019060200180831161175e57829003601f168201915b505050505081565b60006001600160a01b0382166117ed5760405162461bcd60e51b815260206004820152602960248201527f4552433732313a2061646472657373207a65726f206973206e6f7420612076616044820152683634b21037bbb732b960b91b60648201526084016108f5565b506001600160a01b0316600090815260cc602052604090205490565b611811612660565b61181b6000612cac565b565b611825612660565b6001600160a01b03811661186d5760405162461bcd60e51b815260206004820152600f60248201526e496e76616c6964206164647265737360881b60448201526064016108f5565b60fc80546001600160a01b0319166001600160a01b0392909216919091179055565b606060ca80546107d690613a23565b611647338383612cfe565b600081815261010160205260408120600201546118d85760405162461bcd60e51b81526004016108f590613b4a565b6101075460008381526101066020526040902054106119285760405162461bcd60e51b815260206004820152600c60248201526b139bd919481a5cc8199d5b1b60a21b60448201526064016108f5565b3360008181526101036020526040902054838114156119815760405162461bcd60e51b815260206004820152601560248201527421b0b73713ba1039ba30b5b2903cb7bab939b2b63360591b60448201526064016108f5565b60008181526101016020526040902060028101546119b15760405162461bcd60e51b81526004016108f590613a5e565b60008581526101066020908152604080832080546001810182559084529183209091018490556003830187905560fd5490516301da99d960e51b815260048101859052602481018890526001600160a01b0390911690633b533b20906044016020604051808303816000875af1158015611a2f573d6000803e3d6000fd5b505050506040513d601f19601f82011682018060405250810190611a539190613b72565b905085837f0130450a68fc0dbac40ab2206a57f484144fbb75cdf86c3fdaa0c813d6bce5c783604051611a8891815260200190565b60405180910390a350600195945050505050565b611aa633836128b1565b611ac25760405162461bcd60e51b81526004016108f590613afc565b6113a184848484612dcd565b33600081815261010360209081526040808320548084526101019092529091206002810154611b0f5760405162461bcd60e51b81526004016108f590613a5e565b6000611b1a84610fa5565b60ff546040516301ff8f7360e41b8152600481018390529192506000916001600160a01b0390911690631ff8f73090602401600060405180830381865afa158015611b69573d6000803e3d6000fd5b505050506040513d6000823e601f3d908101601f19168201604052611b919190810190613bd0565b90508060600151600314611bde5760405162461bcd60e51b81526020600482015260146024820152734f4e4c595f535441524c4556454c5f544852454560601b60448201526064016108f5565b60fc5460608201516001600160a01b0390911690637ae6d741908490611c05906001613c9c565b6040516001600160e01b031960e085901b16815260048101929092526024820152604401600060405180830381600087803b158015611c4357600080fd5b505af1158015611c57573d6000803e3d6000fd5b5050506060820151611c6b91506001613c9c565b6000858152610105602052604090206003015560048614611cc15760405162461bcd60e51b815260206004820152601060248201526f4e4545445f464f55525f544f4b454e5360801b60448201526064016108f5565b611cfe82888880806020026020016040519081016040528093929190818152602001838360200280828437600092019190915250612e0092505050565b611d4a5760405162461bcd60e51b815260206004820152601860248201527f4e4545445f53414d455f544f4b454e5f50524f5045525459000000000000000060448201526064016108f5565b60005b86811015611dfd5760ff546001600160a01b03166323b872dd3360018b8b86818110611d7b57611d7b613ab9565b6040516001600160e01b031960e088901b1681526001600160a01b03958616600482015294909316602485015250602090910201356044820152606401600060405180830381600087803b158015611dd257600080fd5b505af1158015611de6573d6000803e3d6000fd5b505050508080611df590613cb4565b915050611d4d565b5081856001600160a01b03167fd8b0734c4fb9ac9d66dc0c553b24ee5baee3215f9006d5188dc91460aa603af783606001516001611e3b9190613c9c565b60405190815260200160405180910390a350505050505050565b600081815260cb60205260409020546060906001600160a01b0316611ebc5760405162461bcd60e51b815260206004820152601760248201527f54686973204e465420646f65736e27742065786973742e00000000000000000060448201526064016108f5565b6000611ec6612f5b565b90506000815111611ee65760405180602001604052806000815250611f11565b80611ef084612f6a565b604051602001611f01929190613ccf565b6040516020818303038152906040525b9392505050565b60fc54604051635d528fc360e11b8152600481018590526001600160a01b039091169063baa51f8690602401602060405180830381865afa158015611f61573d6000803e3d6000fd5b505050506040513d601f19601f82011682018060405250810190611f859190613d0e565b611fc75760405162461bcd60e51b815260206004820152601360248201527210d85c99081b5d5cdd081899481cdd185ad959606a1b60448201526064016108f5565b60003360fc5460405163a5cd761f60e01b8152600481018790529192506001600160a01b038084169291169063a5cd761f90602401602060405180830381865afa158015612019573d6000803e3d6000fd5b505050506040513d601f19601f8201168201806040525081019061203d9190613d2b565b6001600160a01b0316146120865760405162461bcd60e51b815260206004820152601060248201526f4e4654206973206e6f7420796f75727360801b60448201526064016108f5565b61208f81611783565b156120d05760405162461bcd60e51b8152602060048201526011602482015270416c72656164792068617665206e6f646560781b60448201526064016108f5565b600084815261010460205260409020546001600160a01b03161561212b5760405162461bcd60e51b8152602060048201526012602482015271105b1c9958591e481c9959da5cdd195c995960721b60448201526064016108f5565b600082815261010160205260409020546001600160a01b0316156121825760405162461bcd60e51b815260206004820152600e60248201526d1d1a58dad95d081a5cc81d5cd95960921b60448201526064016108f5565b60008481526101046020908152604080832080546001600160a01b0386166001600160a01b03199182168117909255868552610101909352922080549091169091178155600181018590556121d76101085490565b60028201556121e68284612b6a565b6001600160a01b0382811660008181526101036020526040808220879055610102805460018101825592527f93bdaa6a4190909b7c3fbe8d42169ffe1cab19f51dfc8db24c71abf849eced4a90910186905560fd54905163a2f8de7760e01b8152600481019290925260248201869052604482018790529091169063a2f8de7790606401600060405180830381600087803b15801561228457600080fd5b505af1158015612298573d6000803e3d6000fd5b505060ff546040516301ff8f7360e41b8152600481018990526001600160a01b039091169250631ff8f7309150602401600060405180830381865afa1580156122e5573d6000803e3d6000fd5b505050506040513d6000823e601f3d908101601f1916820160405261230d9190810190613bd0565b60008481526101056020908152604090912082518051919261233492849290910190613425565b50602082810151805161234d9260018501920190613425565b5060408201518051612369916002840191602090910190613425565b5060608201516003820155608090910151600490910155604080518581526020810185905286916001600160a01b038516917f970d66696fa342805d6fc5131876bf40c04110feed7e00001baee26b8f6109b89101610d58565b610105602052600090815260409020805481906123df90613a23565b80601f016020809104026020016040519081016040528092919081815260200182805461240b90613a23565b80156124585780601f1061242d57610100808354040283529160200191612458565b820191906000526020600020905b81548152906001019060200180831161243b57829003601f168201915b50505050509080600101805461246d90613a23565b80601f016020809104026020016040519081016040528092919081815260200182805461249990613a23565b80156124e65780601f106124bb576101008083540402835291602001916124e6565b820191906000526020600020905b8154815290600101906020018083116124c957829003601f168201915b5050505050908060020180546124fb90613a23565b80601f016020809104026020016040519081016040528092919081815260200182805461252790613a23565b80156125745780601f1061254957610100808354040283529160200191612574565b820191906000526020600020905b81548152906001019060200180831161255757829003601f168201915b5050505050908060030154908060040154905085565b6001600160a01b03918216600090815260ce6020908152604080832093909416825291909152205460ff1690565b6125c0612660565b6001600160a01b0381166126255760405162461bcd60e51b815260206004820152602660248201527f4f776e61626c653a206e6577206f776e657220697320746865207a65726f206160448201526564647265737360d01b60648201526084016108f5565b61167781612cac565b610106602052816000526040600020818154811061264b57600080fd5b90600052602060002001600091509150505481565b6065546001600160a01b0316331461181b5760405162461bcd60e51b815260206004820181905260248201527f4f776e61626c653a2063616c6c6572206973206e6f7420746865206f776e657260448201526064016108f5565b600081815260cb60205260409020546001600160a01b03166116775760405162461bcd60e51b8152602060048201526018602482015277115490cdcc8c4e881a5b9d985b1a59081d1bdad95b88125160421b60448201526064016108f5565b600081815260cd6020526040902080546001600160a01b0319166001600160a01b038416908117909155819061274e82611695565b6001600160a01b03167f8c5be1e5ebec7d5bd14f71427d1e84f3dd0314c0f7b2291e5b200ac8c7c3b92560405160405180910390a45050565b600054610100900460ff166127ae5760405162461bcd60e51b81526004016108f590613d48565b6116478282613068565b600054610100900460ff166127df5760405162461bcd60e51b81526004016108f590613d48565b61181b6130b6565b600054610100900460ff1661280e5760405162461bcd60e51b81526004016108f590613d48565b61181b6130e9565b600061282182611695565b905061282e600083612719565b6001600160a01b038116600090815260cc60205260408120805460019290612857908490613acf565b9091555050600082815260cb602052604080822080546001600160a01b0319169055518391906001600160a01b038416907fddf252ad1be2c89b69c2b068fc378daa952ba7f163c4a11628f55a4df523b3ef908390a45050565b6000806128bd83611695565b9050806001600160a01b0316846001600160a01b031614806128e457506128e4818561258a565b806129085750836001600160a01b03166128fd84610859565b6001600160a01b0316145b949350505050565b61291b838383613119565b610100546001600160a01b038381169116141561293757505050565b610100546001600160a01b038481169116141561296a57600081815261010160205260409020546001600160a01b031692505b816001600160a01b0316836001600160a01b0316141561298957505050565b6001600160a01b03821660009081526101036020526040902054156129e85760405162461bcd60e51b8152602060048201526015602482015274596f7520616c72656164792068617665206e6f646560581b60448201526064016108f5565b6001600160a01b038381166000818152610103602090815260408083208390558685168084528184208790558684526101019092529182902080546001600160a01b0319168217905560fd549151633a6ac7ad60e21b815260048101939093526024830152604482018490529091169063e9ab1eb490606401600060405180830381600087803b158015612a7b57600080fd5b505af1158015612a8f573d6000803e3d6000fd5b505050506000612a9e83610fa5565b60fc546040516359de158160e11b8152600481018390526001600160a01b03868116602483015292935091169063b3bc2b0290604401600060405180830381600087803b158015612aee57600080fd5b505af1158015612b02573d6000803e3d6000fd5b50506101005460405163d789571560e01b81523060048201526001600160a01b03909116925063d78957159150602401600060405180830381600087803b158015612b4c57600080fd5b505af1158015612b60573d6000803e3d6000fd5b5050505050505050565b6001600160a01b038216612bc05760405162461bcd60e51b815260206004820181905260248201527f4552433732313a206d696e7420746f20746865207a65726f206164647265737360448201526064016108f5565b600081815260cb60205260409020546001600160a01b031615612c255760405162461bcd60e51b815260206004820152601c60248201527f4552433732313a20746f6b656e20616c7265616479206d696e7465640000000060448201526064016108f5565b6001600160a01b038216600090815260cc60205260408120805460019290612c4e908490613c9c565b9091555050600081815260cb602052604080822080546001600160a01b0319166001600160a01b03861690811790915590518392907fddf252ad1be2c89b69c2b068fc378daa952ba7f163c4a11628f55a4df523b3ef908290a45050565b606580546001600160a01b038381166001600160a01b0319831681179093556040519116919082907f8be0079c531659141344cd1fd0a4f28419497f9722a3daafe3b4186f6b6457e090600090a35050565b816001600160a01b0316836001600160a01b03161415612d605760405162461bcd60e51b815260206004820152601960248201527f4552433732313a20617070726f766520746f2063616c6c65720000000000000060448201526064016108f5565b6001600160a01b03838116600081815260ce6020908152604080832094871680845294825291829020805460ff191686151590811790915591519182527f17307eab39ab6107e8899845ad3d59bd9653f200f220920489ca2b5937696c31910160405180910390a3505050565b612dd8848484612910565b612de4848484846132b5565b6113a15760405162461bcd60e51b81526004016108f590613d93565b6000815160001415612e14575060006107c1565b60ff546040516301ff8f7360e41b8152600481018590526001600160a01b03909116906000908290631ff8f73090602401600060405180830381865afa158015612e62573d6000803e3d6000fd5b505050506040513d6000823e601f3d908101601f19168201604052612e8a9190810190613bd0565b905060005b8451811015612f4f57612f2d82846001600160a01b0316631ff8f730888581518110612ebd57612ebd613ab9565b60200260200101516040518263ffffffff1660e01b8152600401612ee391815260200190565b600060405180830381865afa158015612f00573d6000803e3d6000fd5b505050506040513d6000823e601f3d908101601f19168201604052612f289190810190613bd0565b6133b3565b612f3d57600093505050506107c1565b80612f4781613cb4565b915050612e8f565b50600195945050505050565b606060fb80546107d690613a23565b606081612f8e5750506040805180820190915260018152600360fc1b602082015290565b8160005b8115612fb85780612fa281613cb4565b9150612fb19050600a83613dfb565b9150612f92565b60008167ffffffffffffffff811115612fd357612fd36136fe565b6040519080825280601f01601f191660200182016040528015612ffd576020820181803683370190505b5090505b841561290857613012600183613acf565b915061301f600a86613e0f565b61302a906030613c9c565b60f81b81838151811061303f5761303f613ab9565b60200101906001600160f81b031916908160001a905350613061600a86613dfb565b9450613001565b600054610100900460ff1661308f5760405162461bcd60e51b81526004016108f590613d48565b81516130a29060c9906020850190613425565b5080516109969060ca906020840190613425565b600054610100900460ff166130dd5760405162461bcd60e51b81526004016108f590613d48565b6033805460ff19169055565b600054610100900460ff166131105760405162461bcd60e51b81526004016108f590613d48565b61181b33612cac565b826001600160a01b031661312c82611695565b6001600160a01b0316146131905760405162461bcd60e51b815260206004820152602560248201527f4552433732313a207472616e736665722066726f6d20696e636f72726563742060448201526437bbb732b960d91b60648201526084016108f5565b6001600160a01b0382166131f25760405162461bcd60e51b8152602060048201526024808201527f4552433732313a207472616e7366657220746f20746865207a65726f206164646044820152637265737360e01b60648201526084016108f5565b6131fd600082612719565b6001600160a01b038316600090815260cc60205260408120805460019290613226908490613acf565b90915550506001600160a01b038216600090815260cc60205260408120805460019290613254908490613c9c565b9091555050600081815260cb602052604080822080546001600160a01b0319166001600160a01b0386811691821790925591518493918716917fddf252ad1be2c89b69c2b068fc378daa952ba7f163c4a11628f55a4df523b3ef91a4505050565b60006001600160a01b0384163b156133a857604051630a85bd0160e11b81526001600160a01b0385169063150b7a02906132f9903390899088908890600401613e23565b6020604051808303816000875af1925050508015613334575060408051601f3d908101601f1916820190925261333191810190613e60565b60015b61338e573d808015613362576040519150601f19603f3d011682016040523d82523d6000602084013e613367565b606091505b5080516133865760405162461bcd60e51b81526004016108f590613d93565b805181602001fd5b6001600160e01b031916630a85bd0160e11b149050612908565b506001949350505050565b60008160000151805190602001208360000151805190602001201480156133ef5750816020015180519060200120836020015180519060200120145b80156134105750816040015180519060200120836040015180519060200120145b8015611f115750506080908101519101511490565b82805461343190613a23565b90600052602060002090601f0160209004810192826134535760008555613499565b82601f1061346c57805160ff1916838001178555613499565b82800160010185558215613499579182015b8281111561349957825182559160200191906001019061347e565b506134a59291506134a9565b5090565b5b808211156134a557600081556001016134aa565b6000602082840312156134d057600080fd5b5035919050565b6001600160e01b03198116811461167757600080fd5b6000602082840312156134ff57600080fd5b8135611f11816134d7565b60005b8381101561352557818101518382015260200161350d565b838111156113a15750506000910152565b6000815180845261354e81602086016020860161350a565b601f01601f19169290920160200192915050565b602081526000611f116020830184613536565b6001600160a01b038116811461167757600080fd5b6000806040838503121561359d57600080fd5b82356135a881613575565b946020939093013593505050565b600080600080600060a086880312156135ce57600080fd5b85356135d981613575565b945060208601356135e981613575565b935060408601356135f981613575565b9250606086013561360981613575565b9150608086013561361981613575565b809150509295509295909350565b602081526000825160a0602084015261364360c0840182613536565b90506020840151601f19808584030160408601526136618383613536565b925060408601519150808584030160608601525061367f8282613536565b91505060608401516080840152608084015160a08401528091505092915050565b6000602082840312156136b257600080fd5b8135611f1181613575565b6000806000606084860312156136d257600080fd5b83356136dd81613575565b925060208401356136ed81613575565b929592945050506040919091013590565b634e487b7160e01b600052604160045260246000fd5b60405160a0810167ffffffffffffffff81118282101715613737576137376136fe565b60405290565b604051601f8201601f1916810167ffffffffffffffff81118282101715613766576137666136fe565b604052919050565b600067ffffffffffffffff821115613788576137886136fe565b50601f01601f191660200190565b60006137a96137a48461376e565b61373d565b90508281528383830111156137bd57600080fd5b828260208301376000602084830101529392505050565b6000602082840312156137e657600080fd5b813567ffffffffffffffff8111156137fd57600080fd5b8201601f8101841361380e57600080fd5b61290884823560208401613796565b801515811461167757600080fd5b6000806040838503121561383e57600080fd5b823561384981613575565b915060208301356138598161381d565b809150509250929050565b6000806000806080858703121561387a57600080fd5b843561388581613575565b9350602085013561389581613575565b925060408501359150606085013567ffffffffffffffff8111156138b857600080fd5b8501601f810187136138c957600080fd5b6138d887823560208401613796565b91505092959194509250565b600080602083850312156138f757600080fd5b823567ffffffffffffffff8082111561390f57600080fd5b818501915085601f83011261392357600080fd5b81358181111561393257600080fd5b8660208260051b850101111561394757600080fd5b60209290920196919550909350505050565b60008060006060848603121561396e57600080fd5b505081359360208301359350604090920135919050565b60a08152600061399860a0830188613536565b82810360208401526139aa8188613536565b905082810360408401526139be8187613536565b60608401959095525050608001529392505050565b600080604083850312156139e657600080fd5b82356139f181613575565b9150602083013561385981613575565b60008060408385031215613a1457600080fd5b50508035926020909101359150565b600181811c90821680613a3757607f821691505b60208210811415613a5857634e487b7160e01b600052602260045260246000fd5b50919050565b6020808252601490820152732cb7ba903237b713ba103430bb32903737b2329760611b604082015260600190565b634e487b7160e01b600052601160045260246000fd5b600081613ab157613ab1613a8c565b506000190190565b634e487b7160e01b600052603260045260246000fd5b600082821015613ae157613ae1613a8c565b500390565b634e487b7160e01b600052603160045260246000fd5b6020808252602e908201527f4552433732313a2063616c6c6572206973206e6f7420746f6b656e206f776e6560408201526d1c881b9bdc88185c1c1c9bdd995960921b606082015260800190565b6020808252600e908201526d139bd919481b9bdd08195e1a5cdd60921b604082015260600190565b600060208284031215613b8457600080fd5b5051919050565b600082601f830112613b9c57600080fd5b8151613baa6137a48261376e565b818152846020838601011115613bbf57600080fd5b61290882602083016020870161350a565b600060208284031215613be257600080fd5b815167ffffffffffffffff80821115613bfa57600080fd5b9083019060a08286031215613c0e57600080fd5b613c16613714565b825182811115613c2557600080fd5b613c3187828601613b8b565b825250602083015182811115613c4657600080fd5b613c5287828601613b8b565b602083015250604083015182811115613c6a57600080fd5b613c7687828601613b8b565b604083015250606083015160608201526080830151608082015280935050505092915050565b60008219821115613caf57613caf613a8c565b500190565b6000600019821415613cc857613cc8613a8c565b5060010190565b60008351613ce181846020880161350a565b835190830190613cf581836020880161350a565b64173539b7b760d91b9101908152600501949350505050565b600060208284031215613d2057600080fd5b8151611f118161381d565b600060208284031215613d3d57600080fd5b8151611f1181613575565b6020808252602b908201527f496e697469616c697a61626c653a20636f6e7472616374206973206e6f74206960408201526a6e697469616c697a696e6760a81b606082015260800190565b60208082526032908201527f4552433732313a207472616e7366657220746f206e6f6e20455243373231526560408201527131b2b4bb32b91034b6b83632b6b2b73a32b960711b606082015260800190565b634e487b7160e01b600052601260045260246000fd5b600082613e0a57613e0a613de5565b500490565b600082613e1e57613e1e613de5565b500690565b6001600160a01b0385811682528416602082015260408101839052608060608201819052600090613e5690830184613536565b9695505050505050565b600060208284031215613e7257600080fd5b8151611f11816134d756fea2646970667358221220df6ccf977da7239cffc344a50686087d55c2599318922c2ec5217c2736255cdb64736f6c634300080b0033",
  "linkReferences": {},
  "deployedLinkReferences": {}
}