{
  "_format": "hh-sol-artifact-1",
  "contractName": "BIBNodeHarness",
  "sourceName": "contracts/test/BIBNodeHarness.sol",
  "abi": [
    {
      "anonymous": false,
      "inputs": [
        {
          "indexed": true,
          "internalType": "address",
          "name": "owner",
          "type": "address"
        },
        {
          "indexed": true,
          "internalType": "address",
          "name": "approved",
          "type": "address"
        },
        {
          "indexed": true,
          "internalType": "uint256",
          "name": "tokenId",
          "type": "uint256"
        }
      ],
      "name": "Approval",
      "type": "event"
    },
    {
      "anonymous": false,
      "inputs": [
        {
          "indexed": true,
          "internalType": "address",
          "name": "owner",
          "type": "address"
        },
        {
          "indexed": true,
          "internalType": "address",
          "name": "operator",
          "type": "address"
        },
        {
          "indexed": false,
          "internalType": "bool",
          "name": "approved",
          "type": "bool"
        }
      ],
      "name": "ApprovalForAll",
      "type": "event"
    },
    {
      "anonymous": false,
      "inputs": [
        {
          "indexed": true,
          "internalType": "address",
          "name": "user",
          "type": "address"
        },
        {
          "indexed": true,
          "internalType": "uint256",
          "name": "cardNFTId",
          "type": "uint256"
        },
        {
          "indexed": false,
          "internalType": "uint256",
          "name": "bibAmount",
          "type": "uint256"
        },
        {
          "indexed": false,
          "internalType": "uint256",
          "name": "ticketId",
          "type": "uint256"
        }
      ],
      "name": "CreateNode",
      "type": "event"
    },
    {
      "anonymous": false,
      "inputs": [
        {
          "indexed": true,
          "internalType": "address",
          "name": "user",
          "type": "address"
        },
        {
          "indexed": true,
          "internalType": "uint256",
          "name": "cardNFTId",
          "type": "uint256"
        },
        {
          "indexed": false,
          "internalType": "uint256",
          "name": "ticketId",
          "type": "uint256"
        }
      ],
      "name": "DisbandNode",
      "type": "event"
    },
    {
      "anonymous": false,
      "inputs": [
        {
          "indexed": false,
          "internalType": "uint8",
          "name": "version",
          "type": "uint8"
        }
      ],
      "name": "Initialized",
      "type": "event"
    },
    {
      "anonymous": false,
      "inputs": [
        {
          "indexed": true,
          "internalType": "uint256",
          "name": "fromTicketId",
          "type": "uint256"
        },
        {
          "indexed": true,
          "internalType": "uint256",
          "name": "ticketId",
          "type": "uint256"
        },
        {
          "indexed": false,
          "internalType": "uint256",
          "name": "bibAmount",
          "type": "uint256"
        }
      ],
      "name": "NodeStaking",
      "type": "event"
    },
    {
      "anonymous": false,
      "inputs": [
        {
          "indexed": true,
          "internalType": "uint256",
          "name": "fromTicketId",
          "type": "uint256"
        },
        {
          "indexed": true,
          "internalType": "uint256",
          "name": "ticketId",
          "type": "uint256"
        },
        {
          "indexed": false,
          "internalType": "uint256",
          "name": "bibAmount",
          "type": "uint256"
        }
      ],
      "name": "NodeUnStaking",
      "type": "event"
    },
    {
      "anonymous": false,
      "inputs": [
        {
          "indexed": true,
          "internalType": "address",
          "name": "previousOwner",
          "type": "address"
        },
        {
          "indexed": true,
          "internalType": "address",
          "name": "newOwner",
          "type": "address"
        }
      ],
      "name": "OwnershipTransferred",
      "type": "event"
    },
    {
      "anonymous": false,
      "inputs": [
        {
          "indexed": false,
          "internalType": "address",
          "name": "account",
          "type": "address"
        }
      ],
      "name": "Paused",
      "type": "event"
    },
    {
      "anonymous": false,
      "inputs": [
        {
          "indexed": true,
          "internalType": "address",
          "name": "from",
          "type": "address"
        },
        {
          "indexed": true,
          "internalType": "address",
          "name": "to",
          "type": "address"
        },
        {
          "indexed": true,
          "internalType": "uint256",
          "name": "tokenId",
          "type": "uint256"
        }
      ],
      "name": "Transfer",
      "type": "event"
    },
    {
      "anonymous": false,
      "inputs": [
        {
          "indexed": false,
          "internalType": "address",
          "name": "account",
          "type": "address"
        }
      ],
      "name": "Unpaused",
      "type": "event"
    },
    {
      "anonymous": false,
      "inputs": [
        {
          "indexed": false,
          "internalType": "uint256",
          "name": "maxCount",
          "type": "uint256"
        }
      ],
      "name": "UpdateMaxSubNodeCount",
      "type": "event"
    },
    {
      "anonymous": false,
      "inputs": [
        {
          "indexed": true,
          "internalType": "address",
          "name": "user",
          "type": "address"
        },
        {
          "indexed": true,
          "internalType": "uint256",
          "name": "cardNFTId",
          "type": "uint256"
        },
        {
          "indexed": false,
          "internalType": "uint256",
          "name": "starLevel",
          "type": "uint256"
        }
      ],
      "name": "UpgradeNode",
      "type": "event"
    },
    {
      "inputs": [],
      "name": "BIBStaking",
      "outputs": [
        {
          "internalType": "contract IBIBStaking",
          "name": "",
          "type": "address"
        }
      ],
      "stateMutability": "view",
      "type": "function"
    },
    {
      "inputs": [],
      "name": "BIBToken",
      "outputs": [
        {
          "internalType": "contract IERC20Upgradeable",
          "name": "",
          "type": "address"
        }
      ],
      "stateMutability": "view",
      "type": "function"
    },
    {
      "inputs": [],
      "name": "BLACK_HOLE",
      "outputs": [
        {
          "internalType": "address",
          "name": "",
          "type": "address"
        }
      ],
      "stateMutability": "view",
      "type": "function"
    },
    {
      "inputs": [
        {
          "internalType": "address",
          "name": "to",
          "type": "address"
        },
        {
          "internalType": "uint256",
          "name": "tokenId",
          "type": "uint256"
        }
      ],
      "name": "approve",
      "outputs": [],
      "stateMutability": "nonpayable",
      "type": "function"
    },
    {
      "inputs": [
        {
          "internalType": "address",
          "name": "owner",
          "type": "address"
        }
      ],
      "name": "balanceOf",
      "outputs": [
        {
          "internalType": "uint256",
          "name": "",
          "type": "uint256"
        }
      ],
      "stateMutability": "view",
      "type": "function"
    },
    {
      "inputs": [],
      "name": "baseURI",
      "outputs": [
        {
          "internalType": "string",
          "name": "",
          "type": "string"
        }
      ],
      "stateMutability": "view",
      "type": "function"
    },
    {
      "inputs": [
        {
          "internalType": "uint256",
          "name": "tokenId",
          "type": "uint256"
        }
      ],
      "name": "burn",
      "outputs": [],
      "stateMutability": "nonpayable",
      "type": "function"
    },
    {
      "inputs": [
        {
          "internalType": "uint256",
          "name": "",
          "type": "uint256"
        }
      ],
      "name": "cardNFTOwners",
      "outputs": [
        {
          "internalType": "address",
          "name": "",
          "type": "address"
        }
      ],
      "stateMutability": "view",
      "type": "function"
    },
    {
      "inputs": [],
      "name": "cardNFTStake",
      "outputs": [
        {
          "internalType": "contract IStakedSoccerStarNftV2",
          "name": "",
          "type": "address"
        }
      ],
      "stateMutability": "view",
      "type": "function"
    },
    {
      "inputs": [
        {
          "internalType": "uint256",
          "name": "_ticket",
          "type": "uint256"
        }
      ],
      "name": "changeStakeNode",
      "outputs": [],
      "stateMutability": "nonpayable",
      "type": "function"
    },
    {
      "inputs": [
        {
          "internalType": "uint256",
          "name": "_cardNFTId",
          "type": "uint256"
        },
        {
          "internalType": "uint256",
          "name": "_bibAmount",
          "type": "uint256"
        },
        {
          "internalType": "uint256",
          "name": "ticket",
          "type": "uint256"
        }
      ],
      "name": "createNode",
      "outputs": [],
      "stateMutability": "nonpayable",
      "type": "function"
    },
    {
      "inputs": [],
      "name": "currentTime",
      "outputs": [
        {
          "internalType": "uint256",
          "name": "",
          "type": "uint256"
        }
      ],
      "stateMutability": "view",
      "type": "function"
    },
    {
      "inputs": [
        {
          "internalType": "uint256",
          "name": "_ticket",
          "type": "uint256"
        }
      ],
      "name": "deleteSubNode",
      "outputs": [
        {
          "internalType": "bool",
          "name": "",
          "type": "bool"
        }
      ],
      "stateMutability": "nonpayable",
      "type": "function"
    },
    {
      "inputs": [],
      "name": "disbandNode",
      "outputs": [],
      "stateMutability": "nonpayable",
      "type": "function"
    },
    {
      "inputs": [
        {
          "internalType": "uint256",
          "name": "tokenId",
          "type": "uint256"
        }
      ],
      "name": "getApproved",
      "outputs": [
        {
          "internalType": "address",
          "name": "",
          "type": "address"
        }
      ],
      "stateMutability": "view",
      "type": "function"
    },
    {
      "inputs": [
        {
          "internalType": "address",
          "name": "user",
          "type": "address"
        }
      ],
      "name": "getCardNFTByAddress",
      "outputs": [
        {
          "internalType": "uint256",
          "name": "",
          "type": "uint256"
        }
      ],
      "stateMutability": "view",
      "type": "function"
    },
    {
      "inputs": [
        {
          "internalType": "uint256",
          "name": "tokenId",
          "type": "uint256"
        }
      ],
      "name": "getCardProperty",
      "outputs": [
        {
          "components": [
            {
              "internalType": "string",
              "name": "name",
              "type": "string"
            },
            {
              "internalType": "string",
              "name": "country",
              "type": "string"
            },
            {
              "internalType": "string",
              "name": "position",
              "type": "string"
            },
            {
              "internalType": "uint256",
              "name": "starLevel",
              "type": "uint256"
            },
            {
              "internalType": "uint256",
              "name": "gradient",
              "type": "uint256"
            }
          ],
          "internalType": "struct ISoccerStarNft.SoccerStar",
          "name": "",
          "type": "tuple"
        }
      ],
      "stateMutability": "view",
      "type": "function"
    },
    {
      "inputs": [
        {
          "internalType": "address",
          "name": "_cardNFTStake",
          "type": "address"
        },
        {
          "internalType": "address",
          "name": "_soccerStarNft",
          "type": "address"
        },
        {
          "internalType": "address",
          "name": "_bibToken",
          "type": "address"
        },
        {
          "internalType": "address",
          "name": "_bibStaking",
          "type": "address"
        },
        {
          "internalType": "address",
          "name": "_soccerStartNftMarket",
          "type": "address"
        }
      ],
      "name": "initialize",
      "outputs": [],
      "stateMutability": "nonpayable",
      "type": "function"
    },
    {
      "inputs": [
        {
          "internalType": "address",
          "name": "owner",
          "type": "address"
        },
        {
          "internalType": "address",
          "name": "operator",
          "type": "address"
        }
      ],
      "name": "isApprovedForAll",
      "outputs": [
        {
          "internalType": "bool",
          "name": "",
          "type": "bool"
        }
      ],
      "stateMutability": "view",
      "type": "function"
    },
    {
      "inputs": [
        {
          "internalType": "uint256",
          "name": "tokenId",
          "type": "uint256"
        }
      ],
      "name": "isStakedAsNode",
      "outputs": [
        {
          "internalType": "bool",
          "name": "",
          "type": "bool"
        }
      ],
      "stateMutability": "view",
      "type": "function"
    },
    {
      "inputs": [],
      "name": "maxSubNodeCount",
      "outputs": [
        {
          "internalType": "uint256",
          "name": "",
          "type": "uint256"
        }
      ],
      "stateMutability": "view",
      "type": "function"
    },
    {
      "inputs": [
        {
          "internalType": "address",
          "name": "to",
          "type": "address"
        },
        {
          "internalType": "uint256",
          "name": "tokenId",
          "type": "uint256"
        }
      ],
      "name": "mint",
      "outputs": [],
      "stateMutability": "nonpayable",
      "type": "function"
    },
    {
      "inputs": [],
      "name": "name",
      "outputs": [
        {
          "internalType": "string",
          "name": "",
          "type": "string"
        }
      ],
      "stateMutability": "view",
      "type": "function"
    },
    {
      "inputs": [
        {
          "internalType": "uint256",
          "name": "",
          "type": "uint256"
        }
      ],
      "name": "nodeList",
      "outputs": [
        {
          "internalType": "uint256",
          "name": "",
          "type": "uint256"
        }
      ],
      "stateMutability": "view",
      "type": "function"
    },
    {
      "inputs": [
        {
          "internalType": "uint256",
          "name": "",
          "type": "uint256"
        }
      ],
      "name": "nodeMap",
      "outputs": [
        {
          "internalType": "address",
          "name": "ownerAddress",
          "type": "address"
        },
        {
          "internalType": "uint256",
          "name": "cardNftId",
          "type": "uint256"
        },
        {
          "internalType": "uint256",
          "name": "createTime",
          "type": "uint256"
        },
        {
          "internalType": "uint256",
          "name": "upNode",
          "type": "uint256"
        }
      ],
      "stateMutability": "view",
      "type": "function"
    },
    {
      "inputs": [],
      "name": "owner",
      "outputs": [
        {
          "internalType": "address",
          "name": "",
          "type": "address"
        }
      ],
      "stateMutability": "view",
      "type": "function"
    },
    {
      "inputs": [
        {
          "internalType": "uint256",
          "name": "tokenId",
          "type": "uint256"
        }
      ],
      "name": "ownerOf",
      "outputs": [
        {
          "internalType": "address",
          "name": "",
          "type": "address"
        }
      ],
      "stateMutability": "view",
      "type": "function"
    },
    {
      "inputs": [],
      "name": "paused",
      "outputs": [
        {
          "internalType": "bool",
          "name": "",
          "type": "bool"
        }
      ],
      "stateMutability": "view",
      "type": "function"
    },
    {
      "inputs": [],
      "name": "renounceOwnership",
      "outputs": [],
      "stateMutability": "nonpayable",
      "type": "function"
    },
    {
      "inputs": [
        {
          "internalType": "address",
          "name": "from",
          "type": "address"
        },
        {
          "internalType": "address",
          "name": "to",
          "type": "address"
        },
        {
          "internalType": "uint256",
          "name": "tokenId",
          "type": "uint256"
        }
      ],
      "name": "safeTransferFrom",
      "outputs": [],
      "stateMutability": "nonpayable",
      "type": "function"
    },
    {
      "inputs": [
        {
          "internalType": "address",
          "name": "from",
          "type": "address"
        },
        {
          "internalType": "address",
          "name": "to",
          "type": "address"
        },
        {
          "internalType": "uint256",
          "name": "tokenId",
          "type": "uint256"
        },
        {
          "internalType": "bytes",
          "name": "data",
          "type": "bytes"
        }
      ],
      "name": "safeTransferFrom",
      "outputs": [],
      "stateMutability": "nonpayable",
      "type": "function"
    },
    {
      "inputs": [
        {
          "internalType": "address",
          "name": "operator",
          "type": "address"
        },
        {
          "internalType": "bool",
          "name": "approved",
          "type": "bool"
        }
      ],
      "name": "setApprovalForAll",
      "outputs": [],
      "stateMutability": "nonpayable",
      "type": "function"
    },
    {
      "inputs": [
        {
          "internalType": "address",
          "name": "_bibToken",
          "type": "address"
        }
      ],
      "name": "setBIBToken",
      "outputs": [],
      "stateMutability": "nonpayable",
      "type": "function"
    },
    {
      "inputs": [
        {
          "internalType": "string",
          "name": "uri",
          "type": "string"
        }
      ],
      "name": "setBaseURI",
      "outputs": [],
      "stateMutability": "nonpayable",
      "type": "function"
    },
    {
      "inputs": [
        {
          "internalType": "address",
          "name": "_cardNft",
          "type": "address"
        }
      ],
      "name": "setCardNft",
      "outputs": [],
      "stateMutability": "nonpayable",
      "type": "function"
    },
    {
      "inputs": [
        {
          "internalType": "address",
          "name": "_cardNftStake",
          "type": "address"
        }
      ],
      "name": "setCardNftStake",
      "outputs": [],
      "stateMutability": "nonpayable",
      "type": "function"
    },
    {
      "inputs": [
        {
          "internalType": "uint256",
          "name": "_currentTime",
          "type": "uint256"
        }
      ],
      "name": "setCurrentTime",
      "outputs": [],
      "stateMutability": "nonpayable",
      "type": "function"
    },
    {
      "inputs": [
        {
          "internalType": "uint256",
          "name": "_maxSubNodeCount",
          "type": "uint256"
        }
      ],
      "name": "setMaxSubNodeCount",
      "outputs": [],
      "stateMutability": "nonpayable",
      "type": "function"
    },
    {
      "inputs": [],
      "name": "soccerStarNft",
      "outputs": [
        {
          "internalType": "contract ERC721Upgradeable",
          "name": "",
          "type": "address"
        }
      ],
      "stateMutability": "view",
      "type": "function"
    },
    {
      "inputs": [],
      "name": "soccerStartNftMarket",
      "outputs": [
        {
          "internalType": "address",
          "name": "",
          "type": "address"
        }
      ],
      "stateMutability": "view",
      "type": "function"
    },
    {
      "inputs": [
        {
          "internalType": "uint256",
          "name": "_ticket",
          "type": "uint256"
        }
      ],
      "name": "stakeNode",
      "outputs": [
        {
          "internalType": "bool",
          "name": "",
          "type": "bool"
        }
      ],
      "stateMutability": "nonpayable",
      "type": "function"
    },
    {
      "inputs": [
        {
          "internalType": "uint256",
          "name": "",
          "type": "uint256"
        },
        {
          "internalType": "uint256",
          "name": "",
          "type": "uint256"
        }
      ],
      "name": "subNodes",
      "outputs": [
        {
          "internalType": "uint256",
          "name": "",
          "type": "uint256"
        }
      ],
      "stateMutability": "view",
      "type": "function"
    },
    {
      "inputs": [
        {
          "internalType": "bytes4",
          "name": "interfaceId",
          "type": "bytes4"
        }
      ],
      "name": "supportsInterface",
      "outputs": [
        {
          "internalType": "bool",
          "name": "",
          "type": "bool"
        }
      ],
      "stateMutability": "view",
      "type": "function"
    },
    {
      "inputs": [],
      "name": "symbol",
      "outputs": [
        {
          "internalType": "string",
          "name": "",
          "type": "string"
        }
      ],
      "stateMutability": "view",
      "type": "function"
    },
    {
      "inputs": [
        {
          "internalType": "address",
          "name": "",
          "type": "address"
        }
      ],
      "name": "ticketMap",
      "outputs": [
        {
          "internalType": "uint256",
          "name": "",
          "type": "uint256"
        }
      ],
      "stateMutability": "view",
      "type": "function"
    },
    {
      "inputs": [
        {
          "internalType": "uint256",
          "name": "",
          "type": "uint256"
        }
      ],
      "name": "ticketProperty",
      "outputs": [
        {
          "internalType": "string",
          "name": "name",
          "type": "string"
        },
        {
          "internalType": "string",
          "name": "country",
          "type": "string"
        },
        {
          "internalType": "string",
          "name": "position",
          "type": "string"
        },
        {
          "internalType": "uint256",
          "name": "starLevel",
          "type": "uint256"
        },
        {
          "internalType": "uint256",
          "name": "gradient",
          "type": "uint256"
        }
      ],
      "stateMutability": "view",
      "type": "function"
    },
    {
      "inputs": [
        {
          "internalType": "uint256",
          "name": "_nftId",
          "type": "uint256"
        }
      ],
      "name": "tokenURI",
      "outputs": [
        {
          "internalType": "string",
          "name": "",
          "type": "string"
        }
      ],
      "stateMutability": "view",
      "type": "function"
    },
    {
      "inputs": [
        {
          "internalType": "address",
          "name": "from",
          "type": "address"
        },
        {
          "internalType": "address",
          "name": "to",
          "type": "address"
        },
        {
          "internalType": "uint256",
          "name": "tokenId",
          "type": "uint256"
        }
      ],
      "name": "transferFrom",
      "outputs": [],
      "stateMutability": "nonpayable",
      "type": "function"
    },
    {
      "inputs": [
        {
          "internalType": "address",
          "name": "newOwner",
          "type": "address"
        }
      ],
      "name": "transferOwnership",
      "outputs": [],
      "stateMutability": "nonpayable",
      "type": "function"
    },
    {
      "inputs": [
        {
          "internalType": "uint256",
          "name": "_ticket",
          "type": "uint256"
        }
      ],
      "name": "unStakeNode",
      "outputs": [
        {
          "internalType": "bool",
          "name": "",
          "type": "bool"
        }
      ],
      "stateMutability": "nonpayable",
      "type": "function"
    },
    {
      "inputs": [
        {
          "internalType": "uint256[]",
          "name": "_cardNFTIds",
          "type": "uint256[]"
        }
      ],
      "name": "upgradeNode",
      "outputs": [],
      "stateMutability": "nonpayable",
      "type": "function"
    }
  ],
  "bytecode": "0x608060405234801561001057600080fd5b50613fa5806100206000396000f3fe608060405234801561001057600080fd5b50600436106102f05760003560e01c806355f804b31161019d57806396ae99b4116100e9578063c87b56dd116100a2578063d810fe6b1161007c578063d810fe6b14610702578063e985e9c514610726578063f2fde38b14610739578063f6a9010b1461074c57600080fd5b8063c87b56dd146106d2578063d1577c7c146106e5578063d18e81b3146106f857600080fd5b806396ae99b41461063b578063a22cb4651461065c578063a4ab0b2e1461066f578063b7d5f2e414610682578063b88d4fde146106ac578063be783433146106bf57600080fd5b806370a08231116101565780638908d676116101305780638908d676146105e3578063893c8cc1146105f65780638da5cb5b1461062257806395d89b411461063357600080fd5b806370a08231146105b5578063715018a6146105c857806378f64c8c146105d057600080fd5b806355f804b31461055557806357299d29146105685780635c975abb1461057c5780635f4bc287146105875780636352211e1461059a5780636c0360eb146105ad57600080fd5b80632269d36d1161025c578063342874ec1161021557806342842e0e116101ef57806342842e0e1461051457806342966c68146105275780634d351f651461053a57806355eda4e81461054d57600080fd5b8063342874ec14610484578063356ff5cd1461049757806340c10f191461050157600080fd5b80632269d36d1461041157806322f8e5661461042457806323b872dd146104385780632aa647711461044b5780632f9735121461045e5780633328bd4e1461047157600080fd5b80630c98a385116102ae5780630c98a3851461039d5780631459457a146103b057806314cf76c8146103c357806316833cca146103d65780631ff8f730146103de578063208f2a31146103fe57600080fd5b80627c3d54146102f557806301d380911461030a57806301ffc9a71461032757806306fdde031461034a578063081812fc1461035f578063095ea7b31461038a575b600080fd5b6103086103033660046135b0565b61075f565b005b6103146101075481565b6040519081526020015b60405180910390f35b61033a6103353660046135df565b6107a3565b604051901515815260200161031e565b6103526107f5565b60405161031e9190613654565b61037261036d3660046135b0565b610887565b6040516001600160a01b03909116815260200161031e565b61030861039836600461367c565b6108ae565b60ff54610372906001600160a01b031681565b6103086103be3660046136a8565b6109c9565b60fe54610372906001600160a01b031681565b610308610b9a565b6103f16103ec3660046135b0565b610d95565b60405161031e9190613719565b61031461040c3660046135b0565b610fb1565b61031461041f366004613792565b610fd3565b6103086104323660046135b0565b61010855565b6103086104463660046137af565b611000565b61033a6104593660046135b0565b611031565b61030861046c366004613792565b611307565b61030861047f3660046135b0565b611379565b61033a6104923660046135b0565b6113d5565b6104d76104a53660046135b0565b6101016020526000908152604090208054600182015460028301546003909301546001600160a01b0390921692909184565b604080516001600160a01b039095168552602085019390935291830152606082015260800161031e565b61030861050f36600461367c565b611663565b6103086105223660046137af565b611679565b6103086105353660046135b0565b611694565b60fc54610372906001600160a01b031681565b610372600181565b6103086105633660046138c6565b6116a8565b61010054610372906001600160a01b031681565b60335460ff1661033a565b610308610595366004613792565b6116c3565b6103726105a83660046135b0565b6116ed565b61035261174d565b6103146105c3366004613792565b6117db565b610308611861565b60fd54610372906001600160a01b031681565b6103086105f1366004613792565b611875565b61033a6106043660046135b0565b600090815261010460205260409020546001600160a01b0316151590565b6065546001600160a01b0316610372565b6103526118e7565b610314610649366004613792565b6101036020526000908152604090205481565b61030861066a36600461391d565b6118f6565b61033a61067d3660046135b0565b611901565b6103726106903660046135b0565b610104602052600090815260409020546001600160a01b031681565b6103086106ba366004613956565b611b8e565b6103086106cd3660046139d6565b611bc0565b6103526106e03660046135b0565b611f47565b6103086106f3366004613a4b565b61200a565b6103146101085481565b6107156107103660046135b0565b6124b5565b60405161031e959493929190613a77565b61033a610734366004613ac5565b61267c565b610308610747366004613792565b6126aa565b61031461075a366004613af3565b612720565b610767612752565b6101078190556040518181527f12290ca071004812e79b71614c6f6473592118262e3e527d82585aa4d3aa1d389060200160405180910390a150565b60006001600160e01b031982166380ac58cd60e01b14806107d457506001600160e01b03198216635b5e139f60e01b145b806107ef57506301ffc9a760e01b6001600160e01b03198316145b92915050565b606060c9805461080490613b15565b80601f016020809104026020016040519081016040528092919081815260200182805461083090613b15565b801561087d5780601f106108525761010080835404028352916020019161087d565b820191906000526020600020905b81548152906001019060200180831161086057829003601f168201915b5050505050905090565b6000610892826127ac565b50600090815260cd60205260409020546001600160a01b031690565b60006108b9826116ed565b9050806001600160a01b0316836001600160a01b0316141561092c5760405162461bcd60e51b815260206004820152602160248201527f4552433732313a20617070726f76616c20746f2063757272656e74206f776e656044820152603960f91b60648201526084015b60405180910390fd5b336001600160a01b03821614806109485750610948813361267c565b6109ba5760405162461bcd60e51b815260206004820152603e60248201527f4552433732313a20617070726f76652063616c6c6572206973206e6f7420746f60448201527f6b656e206f776e6572206e6f7220617070726f76656420666f7220616c6c00006064820152608401610923565b6109c4838361280b565b505050565b600054600190610100900460ff161580156109eb575060005460ff8083169116105b610a4e5760405162461bcd60e51b815260206004820152602e60248201527f496e697469616c697a61626c653a20636f6e747261637420697320616c72656160448201526d191e481a5b9a5d1a585b1a5e995960921b6064820152608401610923565b6000805461ffff191660ff8084169190911761010090811790925560fc80546001600160a01b03808b166001600160a01b03199283161790925582548983169082161790925560fe805488831690841617905560fd805487831690841617905582549085169116179055604080518082018252601081526f424942204e4f4445204552432037323160801b602080830191909152825180840190935260078352664249424e6f646560c81b90830152610b0691612879565b610b0e6128aa565b610b166128d9565b600a6101078190556040519081527f12290ca071004812e79b71614c6f6473592118262e3e527d82585aa4d3aa1d389060200160405180910390a16000805461ff001916905560405160ff821681527f7f26b83ff96e1f2b6a682f133852f6798a09c465da95921460cefb38474024989060200160405180910390a1505050505050565b33600081815261010360209081526040808320548084526101019092529091206002810154610bdb5760405162461bcd60e51b815260040161092390613b50565b6000610be684610fd3565b9050610bf183612908565b6001600160a01b03848116600081815261010360205260408082209190915560fd5490516336b14edf60e11b815260048101929092526024820186905290911690636d629dbe90604401600060405180830381600087803b158015610c5557600080fd5b505af1158015610c69573d6000803e3d6000fd5b5050610102549150505b8015610d2a5780610c8381613b94565b915050836101028281548110610c9b57610c9b613bab565b90600052602060002001541415610d25576101028054610cbd90600190613bc1565b81548110610ccd57610ccd613bab565b90600052602060002001546101028281548110610cec57610cec613bab565b600091825260209091200155610102805480610d0a57610d0a613bd8565b60019003818190600052602060002001600090559055610d2a565b610c73565b600082815261010460205260409081902080546001600160a01b03191690555182906001600160a01b038716907fe89522f30cc3ab418b3126979d7793b955bf00d510a3d265b7065d62a423061790610d869088815260200190565b60405180910390a35050505050565b610dc76040518060a0016040528060608152602001606081526020016060815260200160008152602001600081525090565b6000828152610105602052604090819020815160a08101909252805482908290610df090613b15565b80601f0160208091040260200160405190810160405280929190818152602001828054610e1c90613b15565b8015610e695780601f10610e3e57610100808354040283529160200191610e69565b820191906000526020600020905b815481529060010190602001808311610e4c57829003601f168201915b50505050508152602001600182018054610e8290613b15565b80601f0160208091040260200160405190810160405280929190818152602001828054610eae90613b15565b8015610efb5780601f10610ed057610100808354040283529160200191610efb565b820191906000526020600020905b815481529060010190602001808311610ede57829003601f168201915b50505050508152602001600282018054610f1490613b15565b80601f0160208091040260200160405190810160405280929190818152602001828054610f4090613b15565b8015610f8d5780601f10610f6257610100808354040283529160200191610f8d565b820191906000526020600020905b815481529060010190602001808311610f7057829003601f168201915b50505050508152602001600382015481526020016004820154815250509050919050565b6101028181548110610fc257600080fd5b600091825260209091200154905081565b6001600160a01b031660009081526101036020908152604080832054835261010190915290206001015490565b61100a33826129a3565b6110265760405162461bcd60e51b815260040161092390613bee565b6109c4838383612a02565b600081815261010160205260408120600201546110605760405162461bcd60e51b815260040161092390613c3c565b60008281526101066020526040902054600a116110ae5760405162461bcd60e51b815260206004820152600c60248201526b139bd919481a5cc8199d5b1b60a21b6044820152606401610923565b336000818152610103602090815260408083205480845261010190925290912060028101546110ef5760405162461bcd60e51b815260040161092390613b50565b848160030154146111355760405162461bcd60e51b815260206004820152601060248201526f4e6f7420796f7572207570206e6f646560801b6044820152606401610923565b600085815261010660205260409020545b801561123e578061115681613b94565b915050826101066000888152602001908152602001600020828154811061117f5761117f613bab565b906000526020600020015414156112395760008681526101066020526040902080546111ad90600190613bc1565b815481106111bd576111bd613bab565b9060005260206000200154610106600088815260200190815260200160002082815481106111ed576111ed613bab565b9060005260206000200181905550610106600087815260200190815260200160002080548061121e5761121e613bd8565b6001900381819060005260206000200160009055905561123e565b611146565b60006003830181905560fd54604051630443ee9160e51b815260048101869052602481018990526001600160a01b039091169063887dd220906044016020604051808303816000875af1158015611299573d6000803e3d6000fd5b505050506040513d601f19601f820116820180604052508101906112bd9190613c64565b905086847f1167679d9905b71e2c953444b39b9d22bf70de84ab2994e46a787ad43e5a42d0836040516112f291815260200190565b60405180910390a35060019695505050505050565b61130f612752565b6001600160a01b0381166113575760405162461bcd60e51b815260206004820152600f60248201526e496e76616c6964206164647265737360881b6044820152606401610923565b60ff80546001600160a01b0319166001600160a01b0392909216919091179055565b3360008181526101036020908152604080832054808452610101909252909120600301548314156113a957505050565b600081815261010160205260409020600301546113c590611031565b506113cf83611901565b50505050565b600081815261010160205260408120600201546114045760405162461bcd60e51b815260040161092390613c3c565b336000818152610103602090815260408083205480845261010190925290912060028101546114455760405162461bcd60e51b815260040161092390613b50565b60008581526101016020526040902060030154821461149a5760405162461bcd60e51b81526020600482015260116024820152704e6f7420796f757220737562206e6f646560781b6044820152606401610923565b600082815261010660205260409020545b80156115a357806114bb81613b94565b91505085610106600085815260200190815260200160002082815481106114e4576114e4613bab565b9060005260206000200154141561159e57600083815261010660205260409020805461151290600190613bc1565b8154811061152257611522613bab565b90600052602060002001546101066000858152602001908152602001600020828154811061155257611552613bab565b9060005260206000200181905550610106600084815260200190815260200160002080548061158357611583613bd8565b600190038181906000526020600020016000905590556115a3565b6114ab565b6000868152610101602052604080822060030182905560fd549051630443ee9160e51b815260048101899052602481018690526001600160a01b039091169063887dd220906044016020604051808303816000875af115801561160a573d6000803e3d6000fd5b505050506040513d601f19601f8201168201806040525081019061162e9190613c64565b905083877f1167679d9905b71e2c953444b39b9d22bf70de84ab2994e46a787ad43e5a42d0836040516112f291815260200190565b61166b612752565b6116758282612c5c565b5050565b6109c483838360405180602001604052806000815250611b8e565b61169c612752565b6116a581612908565b50565b6116b0612752565b80516116759060fb906020840190613517565b6116cb612752565b60fe80546001600160a01b0319166001600160a01b0392909216919091179055565b600081815260cb60205260408120546001600160a01b0316806107ef5760405162461bcd60e51b8152602060048201526018602482015277115490cdcc8c4e881a5b9d985b1a59081d1bdad95b88125160421b6044820152606401610923565b60fb805461175a90613b15565b80601f016020809104026020016040519081016040528092919081815260200182805461178690613b15565b80156117d35780601f106117a8576101008083540402835291602001916117d3565b820191906000526020600020905b8154815290600101906020018083116117b657829003601f168201915b505050505081565b60006001600160a01b0382166118455760405162461bcd60e51b815260206004820152602960248201527f4552433732313a2061646472657373207a65726f206973206e6f7420612076616044820152683634b21037bbb732b960b91b6064820152608401610923565b506001600160a01b0316600090815260cc602052604090205490565b611869612752565b6118736000612d9e565b565b61187d612752565b6001600160a01b0381166118c55760405162461bcd60e51b815260206004820152600f60248201526e496e76616c6964206164647265737360881b6044820152606401610923565b60fc80546001600160a01b0319166001600160a01b0392909216919091179055565b606060ca805461080490613b15565b611675338383612df0565b600081815261010160205260408120600201546119305760405162461bcd60e51b815260040161092390613c3c565b60008281526101016020526040902060030154156119825760405162461bcd60e51b815260206004820152600f60248201526e4e6f6465206973207375626e6f646560881b6044820152606401610923565b6101075460008381526101066020526040902054106119d25760405162461bcd60e51b815260206004820152600c60248201526b139bd919481a5cc8199d5b1b60a21b6044820152606401610923565b336000818152610103602052604090205483811415611a2b5760405162461bcd60e51b815260206004820152601560248201527421b0b73713ba1039ba30b5b2903cb7bab939b2b63360591b6044820152606401610923565b6000818152610101602052604090206002810154611a5b5760405162461bcd60e51b815260040161092390613b50565b600381015415611aa35760405162461bcd60e51b81526020600482015260136024820152722cb7ba9030b63932b0b23c9039ba30b5b2b21760691b6044820152606401610923565b60008581526101066020908152604080832080546001810182559084529183209091018490556003830187905560fd5490516301da99d960e51b815260048101859052602481018890526001600160a01b0390911690633b533b20906044016020604051808303816000875af1158015611b21573d6000803e3d6000fd5b505050506040513d601f19601f82011682018060405250810190611b459190613c64565b905085837f0130450a68fc0dbac40ab2206a57f484144fbb75cdf86c3fdaa0c813d6bce5c783604051611b7a91815260200190565b60405180910390a350600195945050505050565b611b9833836129a3565b611bb45760405162461bcd60e51b815260040161092390613bee565b6113cf84848484612ebf565b33600081815261010360209081526040808320548084526101019092529091206002810154611c015760405162461bcd60e51b815260040161092390613b50565b6000611c0c84610fd3565b60ff546040516301ff8f7360e41b8152600481018390529192506000916001600160a01b0390911690631ff8f73090602401600060405180830381865afa158015611c5b573d6000803e3d6000fd5b505050506040513d6000823e601f3d908101601f19168201604052611c839190810190613cc2565b90508060600151600314611cd05760405162461bcd60e51b81526020600482015260146024820152734f4e4c595f535441524c4556454c5f544852454560601b6044820152606401610923565b60fc5460608201516001600160a01b0390911690637ae6d741908490611cf7906001613d8e565b6040516001600160e01b031960e085901b16815260048101929092526024820152604401600060405180830381600087803b158015611d3557600080fd5b505af1158015611d49573d6000803e3d6000fd5b5050506060820151611d5d91506001613d8e565b6000858152610105602052604090206003015560048614611db35760405162461bcd60e51b815260206004820152601060248201526f4e4545445f464f55525f544f4b454e5360801b6044820152606401610923565b611df082888880806020026020016040519081016040528093929190818152602001838360200280828437600092019190915250612ef292505050565b611e3c5760405162461bcd60e51b815260206004820152601860248201527f4e4545445f53414d455f544f4b454e5f50524f504552545900000000000000006044820152606401610923565b60005b86811015611eef5760ff546001600160a01b03166323b872dd3360018b8b86818110611e6d57611e6d613bab565b6040516001600160e01b031960e088901b1681526001600160a01b03958616600482015294909316602485015250602090910201356044820152606401600060405180830381600087803b158015611ec457600080fd5b505af1158015611ed8573d6000803e3d6000fd5b505050508080611ee790613da6565b915050611e3f565b5081856001600160a01b03167fd8b0734c4fb9ac9d66dc0c553b24ee5baee3215f9006d5188dc91460aa603af783606001516001611f2d9190613d8e565b60405190815260200160405180910390a350505050505050565b600081815260cb60205260409020546060906001600160a01b0316611fae5760405162461bcd60e51b815260206004820152601760248201527f54686973204e465420646f65736e27742065786973742e0000000000000000006044820152606401610923565b6000611fb861304d565b90506000815111611fd85760405180602001604052806000815250612003565b80611fe28461305c565b604051602001611ff3929190613dc1565b6040516020818303038152906040525b9392505050565b60fc54604051635d528fc360e11b8152600481018590526001600160a01b039091169063baa51f8690602401602060405180830381865afa158015612053573d6000803e3d6000fd5b505050506040513d601f19601f820116820180604052508101906120779190613e00565b6120b95760405162461bcd60e51b815260206004820152601360248201527210d85c99081b5d5cdd081899481cdd185ad959606a1b6044820152606401610923565b60003360fc5460405163a5cd761f60e01b8152600481018790529192506001600160a01b038084169291169063a5cd761f90602401602060405180830381865afa15801561210b573d6000803e3d6000fd5b505050506040513d601f19601f8201168201806040525081019061212f9190613e1d565b6001600160a01b0316146121785760405162461bcd60e51b815260206004820152601060248201526f4e4654206973206e6f7420796f75727360801b6044820152606401610923565b612181816117db565b156121c25760405162461bcd60e51b8152602060048201526011602482015270416c72656164792068617665206e6f646560781b6044820152606401610923565b600084815261010460205260409020546001600160a01b03161561221d5760405162461bcd60e51b8152602060048201526012602482015271105b1c9958591e481c9959da5cdd195c995960721b6044820152606401610923565b600082815261010160205260409020546001600160a01b0316156122745760405162461bcd60e51b815260206004820152600e60248201526d1d1a58dad95d081a5cc81d5cd95960921b6044820152606401610923565b60008481526101046020908152604080832080546001600160a01b0386166001600160a01b03199182168117909255868552610101909352922080549091169091178155600181018590556122c96101085490565b60028201556122d88284612c5c565b6001600160a01b0382811660008181526101036020526040808220879055610102805460018101825592527f93bdaa6a4190909b7c3fbe8d42169ffe1cab19f51dfc8db24c71abf849eced4a90910186905560fd54905163a2f8de7760e01b8152600481019290925260248201869052604482018790529091169063a2f8de7790606401600060405180830381600087803b15801561237657600080fd5b505af115801561238a573d6000803e3d6000fd5b505060ff546040516301ff8f7360e41b8152600481018990526001600160a01b039091169250631ff8f7309150602401600060405180830381865afa1580156123d7573d6000803e3d6000fd5b505050506040513d6000823e601f3d908101601f191682016040526123ff9190810190613cc2565b60008481526101056020908152604090912082518051919261242692849290910190613517565b50602082810151805161243f9260018501920190613517565b506040820151805161245b916002840191602090910190613517565b5060608201516003820155608090910151600490910155604080518581526020810185905286916001600160a01b038516917f970d66696fa342805d6fc5131876bf40c04110feed7e00001baee26b8f6109b89101610d86565b610105602052600090815260409020805481906124d190613b15565b80601f01602080910402602001604051908101604052809291908181526020018280546124fd90613b15565b801561254a5780601f1061251f5761010080835404028352916020019161254a565b820191906000526020600020905b81548152906001019060200180831161252d57829003601f168201915b50505050509080600101805461255f90613b15565b80601f016020809104026020016040519081016040528092919081815260200182805461258b90613b15565b80156125d85780601f106125ad576101008083540402835291602001916125d8565b820191906000526020600020905b8154815290600101906020018083116125bb57829003601f168201915b5050505050908060020180546125ed90613b15565b80601f016020809104026020016040519081016040528092919081815260200182805461261990613b15565b80156126665780601f1061263b57610100808354040283529160200191612666565b820191906000526020600020905b81548152906001019060200180831161264957829003601f168201915b5050505050908060030154908060040154905085565b6001600160a01b03918216600090815260ce6020908152604080832093909416825291909152205460ff1690565b6126b2612752565b6001600160a01b0381166127175760405162461bcd60e51b815260206004820152602660248201527f4f776e61626c653a206e6577206f776e657220697320746865207a65726f206160448201526564647265737360d01b6064820152608401610923565b6116a581612d9e565b610106602052816000526040600020818154811061273d57600080fd5b90600052602060002001600091509150505481565b6065546001600160a01b031633146118735760405162461bcd60e51b815260206004820181905260248201527f4f776e61626c653a2063616c6c6572206973206e6f7420746865206f776e65726044820152606401610923565b600081815260cb60205260409020546001600160a01b03166116a55760405162461bcd60e51b8152602060048201526018602482015277115490cdcc8c4e881a5b9d985b1a59081d1bdad95b88125160421b6044820152606401610923565b600081815260cd6020526040902080546001600160a01b0319166001600160a01b0384169081179091558190612840826116ed565b6001600160a01b03167f8c5be1e5ebec7d5bd14f71427d1e84f3dd0314c0f7b2291e5b200ac8c7c3b92560405160405180910390a45050565b600054610100900460ff166128a05760405162461bcd60e51b815260040161092390613e3a565b611675828261315a565b600054610100900460ff166128d15760405162461bcd60e51b815260040161092390613e3a565b6118736131a8565b600054610100900460ff166129005760405162461bcd60e51b815260040161092390613e3a565b6118736131db565b6000612913826116ed565b905061292060008361280b565b6001600160a01b038116600090815260cc60205260408120805460019290612949908490613bc1565b9091555050600082815260cb602052604080822080546001600160a01b0319169055518391906001600160a01b038416907fddf252ad1be2c89b69c2b068fc378daa952ba7f163c4a11628f55a4df523b3ef908390a45050565b6000806129af836116ed565b9050806001600160a01b0316846001600160a01b031614806129d657506129d6818561267c565b806129fa5750836001600160a01b03166129ef84610887565b6001600160a01b0316145b949350505050565b612a0d83838361320b565b610100546001600160a01b0383811691161415612a2957505050565b610100546001600160a01b0384811691161415612a5c57600081815261010160205260409020546001600160a01b031692505b816001600160a01b0316836001600160a01b03161415612a7b57505050565b6001600160a01b0382166000908152610103602052604090205415612ada5760405162461bcd60e51b8152602060048201526015602482015274596f7520616c72656164792068617665206e6f646560581b6044820152606401610923565b6001600160a01b038381166000818152610103602090815260408083208390558685168084528184208790558684526101019092529182902080546001600160a01b0319168217905560fd549151633a6ac7ad60e21b815260048101939093526024830152604482018490529091169063e9ab1eb490606401600060405180830381600087803b158015612b6d57600080fd5b505af1158015612b81573d6000803e3d6000fd5b505050506000612b9083610fd3565b60fc546040516359de158160e11b8152600481018390526001600160a01b03868116602483015292935091169063b3bc2b0290604401600060405180830381600087803b158015612be057600080fd5b505af1158015612bf4573d6000803e3d6000fd5b50506101005460405163d789571560e01b81523060048201526001600160a01b03909116925063d78957159150602401600060405180830381600087803b158015612c3e57600080fd5b505af1158015612c52573d6000803e3d6000fd5b5050505050505050565b6001600160a01b038216612cb25760405162461bcd60e51b815260206004820181905260248201527f4552433732313a206d696e7420746f20746865207a65726f20616464726573736044820152606401610923565b600081815260cb60205260409020546001600160a01b031615612d175760405162461bcd60e51b815260206004820152601c60248201527f4552433732313a20746f6b656e20616c7265616479206d696e746564000000006044820152606401610923565b6001600160a01b038216600090815260cc60205260408120805460019290612d40908490613d8e565b9091555050600081815260cb602052604080822080546001600160a01b0319166001600160a01b03861690811790915590518392907fddf252ad1be2c89b69c2b068fc378daa952ba7f163c4a11628f55a4df523b3ef908290a45050565b606580546001600160a01b038381166001600160a01b0319831681179093556040519116919082907f8be0079c531659141344cd1fd0a4f28419497f9722a3daafe3b4186f6b6457e090600090a35050565b816001600160a01b0316836001600160a01b03161415612e525760405162461bcd60e51b815260206004820152601960248201527f4552433732313a20617070726f766520746f2063616c6c6572000000000000006044820152606401610923565b6001600160a01b03838116600081815260ce6020908152604080832094871680845294825291829020805460ff191686151590811790915591519182527f17307eab39ab6107e8899845ad3d59bd9653f200f220920489ca2b5937696c31910160405180910390a3505050565b612eca848484612a02565b612ed6848484846133a7565b6113cf5760405162461bcd60e51b815260040161092390613e85565b6000815160001415612f06575060006107ef565b60ff546040516301ff8f7360e41b8152600481018590526001600160a01b03909116906000908290631ff8f73090602401600060405180830381865afa158015612f54573d6000803e3d6000fd5b505050506040513d6000823e601f3d908101601f19168201604052612f7c9190810190613cc2565b905060005b84518110156130415761301f82846001600160a01b0316631ff8f730888581518110612faf57612faf613bab565b60200260200101516040518263ffffffff1660e01b8152600401612fd591815260200190565b600060405180830381865afa158015612ff2573d6000803e3d6000fd5b505050506040513d6000823e601f3d908101601f1916820160405261301a9190810190613cc2565b6134a5565b61302f57600093505050506107ef565b8061303981613da6565b915050612f81565b50600195945050505050565b606060fb805461080490613b15565b6060816130805750506040805180820190915260018152600360fc1b602082015290565b8160005b81156130aa578061309481613da6565b91506130a39050600a83613eed565b9150613084565b60008167ffffffffffffffff8111156130c5576130c56137f0565b6040519080825280601f01601f1916602001820160405280156130ef576020820181803683370190505b5090505b84156129fa57613104600183613bc1565b9150613111600a86613f01565b61311c906030613d8e565b60f81b81838151811061313157613131613bab565b60200101906001600160f81b031916908160001a905350613153600a86613eed565b94506130f3565b600054610100900460ff166131815760405162461bcd60e51b815260040161092390613e3a565b81516131949060c9906020850190613517565b5080516109c49060ca906020840190613517565b600054610100900460ff166131cf5760405162461bcd60e51b815260040161092390613e3a565b6033805460ff19169055565b600054610100900460ff166132025760405162461bcd60e51b815260040161092390613e3a565b61187333612d9e565b826001600160a01b031661321e826116ed565b6001600160a01b0316146132825760405162461bcd60e51b815260206004820152602560248201527f4552433732313a207472616e736665722066726f6d20696e636f72726563742060448201526437bbb732b960d91b6064820152608401610923565b6001600160a01b0382166132e45760405162461bcd60e51b8152602060048201526024808201527f4552433732313a207472616e7366657220746f20746865207a65726f206164646044820152637265737360e01b6064820152608401610923565b6132ef60008261280b565b6001600160a01b038316600090815260cc60205260408120805460019290613318908490613bc1565b90915550506001600160a01b038216600090815260cc60205260408120805460019290613346908490613d8e565b9091555050600081815260cb602052604080822080546001600160a01b0319166001600160a01b0386811691821790925591518493918716917fddf252ad1be2c89b69c2b068fc378daa952ba7f163c4a11628f55a4df523b3ef91a4505050565b60006001600160a01b0384163b1561349a57604051630a85bd0160e11b81526001600160a01b0385169063150b7a02906133eb903390899088908890600401613f15565b6020604051808303816000875af1925050508015613426575060408051601f3d908101601f1916820190925261342391810190613f52565b60015b613480573d808015613454576040519150601f19603f3d011682016040523d82523d6000602084013e613459565b606091505b5080516134785760405162461bcd60e51b815260040161092390613e85565b805181602001fd5b6001600160e01b031916630a85bd0160e11b1490506129fa565b506001949350505050565b60008160000151805190602001208360000151805190602001201480156134e15750816020015180519060200120836020015180519060200120145b80156135025750816040015180519060200120836040015180519060200120145b80156120035750506080908101519101511490565b82805461352390613b15565b90600052602060002090601f016020900481019282613545576000855561358b565b82601f1061355e57805160ff191683800117855561358b565b8280016001018555821561358b579182015b8281111561358b578251825591602001919060010190613570565b5061359792915061359b565b5090565b5b80821115613597576000815560010161359c565b6000602082840312156135c257600080fd5b5035919050565b6001600160e01b0319811681146116a557600080fd5b6000602082840312156135f157600080fd5b8135612003816135c9565b60005b838110156136175781810151838201526020016135ff565b838111156113cf5750506000910152565b600081518084526136408160208601602086016135fc565b601f01601f19169290920160200192915050565b6020815260006120036020830184613628565b6001600160a01b03811681146116a557600080fd5b6000806040838503121561368f57600080fd5b823561369a81613667565b946020939093013593505050565b600080600080600060a086880312156136c057600080fd5b85356136cb81613667565b945060208601356136db81613667565b935060408601356136eb81613667565b925060608601356136fb81613667565b9150608086013561370b81613667565b809150509295509295909350565b602081526000825160a0602084015261373560c0840182613628565b90506020840151601f19808584030160408601526137538383613628565b92506040860151915080858403016060860152506137718282613628565b91505060608401516080840152608084015160a08401528091505092915050565b6000602082840312156137a457600080fd5b813561200381613667565b6000806000606084860312156137c457600080fd5b83356137cf81613667565b925060208401356137df81613667565b929592945050506040919091013590565b634e487b7160e01b600052604160045260246000fd5b60405160a0810167ffffffffffffffff81118282101715613829576138296137f0565b60405290565b604051601f8201601f1916810167ffffffffffffffff81118282101715613858576138586137f0565b604052919050565b600067ffffffffffffffff82111561387a5761387a6137f0565b50601f01601f191660200190565b600061389b61389684613860565b61382f565b90508281528383830111156138af57600080fd5b828260208301376000602084830101529392505050565b6000602082840312156138d857600080fd5b813567ffffffffffffffff8111156138ef57600080fd5b8201601f8101841361390057600080fd5b6129fa84823560208401613888565b80151581146116a557600080fd5b6000806040838503121561393057600080fd5b823561393b81613667565b9150602083013561394b8161390f565b809150509250929050565b6000806000806080858703121561396c57600080fd5b843561397781613667565b9350602085013561398781613667565b925060408501359150606085013567ffffffffffffffff8111156139aa57600080fd5b8501601f810187136139bb57600080fd5b6139ca87823560208401613888565b91505092959194509250565b600080602083850312156139e957600080fd5b823567ffffffffffffffff80821115613a0157600080fd5b818501915085601f830112613a1557600080fd5b813581811115613a2457600080fd5b8660208260051b8501011115613a3957600080fd5b60209290920196919550909350505050565b600080600060608486031215613a6057600080fd5b505081359360208301359350604090920135919050565b60a081526000613a8a60a0830188613628565b8281036020840152613a9c8188613628565b90508281036040840152613ab08187613628565b60608401959095525050608001529392505050565b60008060408385031215613ad857600080fd5b8235613ae381613667565b9150602083013561394b81613667565b60008060408385031215613b0657600080fd5b50508035926020909101359150565b600181811c90821680613b2957607f821691505b60208210811415613b4a57634e487b7160e01b600052602260045260246000fd5b50919050565b6020808252601490820152732cb7ba903237b713ba103430bb32903737b2329760611b604082015260600190565b634e487b7160e01b600052601160045260246000fd5b600081613ba357613ba3613b7e565b506000190190565b634e487b7160e01b600052603260045260246000fd5b600082821015613bd357613bd3613b7e565b500390565b634e487b7160e01b600052603160045260246000fd5b6020808252602e908201527f4552433732313a2063616c6c6572206973206e6f7420746f6b656e206f776e6560408201526d1c881b9bdc88185c1c1c9bdd995960921b606082015260800190565b6020808252600e908201526d139bd919481b9bdd08195e1a5cdd60921b604082015260600190565b600060208284031215613c7657600080fd5b5051919050565b600082601f830112613c8e57600080fd5b8151613c9c61389682613860565b818152846020838601011115613cb157600080fd5b6129fa8260208301602087016135fc565b600060208284031215613cd457600080fd5b815167ffffffffffffffff80821115613cec57600080fd5b9083019060a08286031215613d0057600080fd5b613d08613806565b825182811115613d1757600080fd5b613d2387828601613c7d565b825250602083015182811115613d3857600080fd5b613d4487828601613c7d565b602083015250604083015182811115613d5c57600080fd5b613d6887828601613c7d565b604083015250606083015160608201526080830151608082015280935050505092915050565b60008219821115613da157613da1613b7e565b500190565b6000600019821415613dba57613dba613b7e565b5060010190565b60008351613dd38184602088016135fc565b835190830190613de78183602088016135fc565b64173539b7b760d91b9101908152600501949350505050565b600060208284031215613e1257600080fd5b81516120038161390f565b600060208284031215613e2f57600080fd5b815161200381613667565b6020808252602b908201527f496e697469616c697a61626c653a20636f6e7472616374206973206e6f74206960408201526a6e697469616c697a696e6760a81b606082015260800190565b60208082526032908201527f4552433732313a207472616e7366657220746f206e6f6e20455243373231526560408201527131b2b4bb32b91034b6b83632b6b2b73a32b960711b606082015260800190565b634e487b7160e01b600052601260045260246000fd5b600082613efc57613efc613ed7565b500490565b600082613f1057613f10613ed7565b500690565b6001600160a01b0385811682528416602082015260408101839052608060608201819052600090613f4890830184613628565b9695505050505050565b600060208284031215613f6457600080fd5b8151612003816135c956fea26469706673582212208a50515b1293e291fe4cceccf55eda9234b2dccbaa02063f041ef1f0a439f57064736f6c634300080b0033",
  "linkReferences": {},
  "deployedLinkReferences": {}
}