{
  "_format": "hh-sol-artifact-1",
  "contractName": "ERC721Mintable",
  "sourceName": "contracts/test/ERC721Mintable.sol",
  "abi": [
    {
      "inputs": [],
      "stateMutability": "nonpayable",
      "type": "constructor"
    },
    {
      "anonymous": false,
      "inputs": [
        {
          "indexed": true,
          "internalType": "address",
          "name": "owner",
          "type": "address"
        },
        {
          "indexed": true,
          "internalType": "address",
          "name": "approved",
          "type": "address"
        },
        {
          "indexed": true,
          "internalType": "uint256",
          "name": "tokenId",
          "type": "uint256"
        }
      ],
      "name": "Approval",
      "type": "event"
    },
    {
      "anonymous": false,
      "inputs": [
        {
          "indexed": true,
          "internalType": "address",
          "name": "owner",
          "type": "address"
        },
        {
          "indexed": true,
          "internalType": "address",
          "name": "operator",
          "type": "address"
        },
        {
          "indexed": false,
          "internalType": "bool",
          "name": "approved",
          "type": "bool"
        }
      ],
      "name": "ApprovalForAll",
      "type": "event"
    },
    {
      "anonymous": false,
      "inputs": [
        {
          "indexed": false,
          "internalType": "uint8",
          "name": "version",
          "type": "uint8"
        }
      ],
      "name": "Initialized",
      "type": "event"
    },
    {
      "anonymous": false,
      "inputs": [
        {
          "indexed": true,
          "internalType": "address",
          "name": "from",
          "type": "address"
        },
        {
          "indexed": true,
          "internalType": "address",
          "name": "to",
          "type": "address"
        },
        {
          "indexed": true,
          "internalType": "uint256",
          "name": "tokenId",
          "type": "uint256"
        }
      ],
      "name": "Transfer",
      "type": "event"
    },
    {
      "inputs": [
        {
          "internalType": "address",
          "name": "to",
          "type": "address"
        },
        {
          "internalType": "uint256",
          "name": "tokenId",
          "type": "uint256"
        }
      ],
      "name": "approve",
      "outputs": [],
      "stateMutability": "nonpayable",
      "type": "function"
    },
    {
      "inputs": [
        {
          "internalType": "address",
          "name": "owner",
          "type": "address"
        }
      ],
      "name": "balanceOf",
      "outputs": [
        {
          "internalType": "uint256",
          "name": "",
          "type": "uint256"
        }
      ],
      "stateMutability": "view",
      "type": "function"
    },
    {
      "inputs": [
        {
          "internalType": "uint256",
          "name": "tokenId",
          "type": "uint256"
        }
      ],
      "name": "burn",
      "outputs": [],
      "stateMutability": "nonpayable",
      "type": "function"
    },
    {
      "inputs": [
        {
          "internalType": "uint256",
          "name": "tokenId",
          "type": "uint256"
        }
      ],
      "name": "getApproved",
      "outputs": [
        {
          "internalType": "address",
          "name": "",
          "type": "address"
        }
      ],
      "stateMutability": "view",
      "type": "function"
    },
    {
      "inputs": [
        {
          "internalType": "address",
          "name": "owner",
          "type": "address"
        },
        {
          "internalType": "address",
          "name": "operator",
          "type": "address"
        }
      ],
      "name": "isApprovedForAll",
      "outputs": [
        {
          "internalType": "bool",
          "name": "",
          "type": "bool"
        }
      ],
      "stateMutability": "view",
      "type": "function"
    },
    {
      "inputs": [
        {
          "internalType": "address",
          "name": "to",
          "type": "address"
        },
        {
          "internalType": "uint256",
          "name": "tokenId",
          "type": "uint256"
        }
      ],
      "name": "mint",
      "outputs": [],
      "stateMutability": "nonpayable",
      "type": "function"
    },
    {
      "inputs": [],
      "name": "name",
      "outputs": [
        {
          "internalType": "string",
          "name": "",
          "type": "string"
        }
      ],
      "stateMutability": "view",
      "type": "function"
    },
    {
      "inputs": [
        {
          "internalType": "uint256",
          "name": "tokenId",
          "type": "uint256"
        }
      ],
      "name": "ownerOf",
      "outputs": [
        {
          "internalType": "address",
          "name": "",
          "type": "address"
        }
      ],
      "stateMutability": "view",
      "type": "function"
    },
    {
      "inputs": [
        {
          "internalType": "address",
          "name": "from",
          "type": "address"
        },
        {
          "internalType": "address",
          "name": "to",
          "type": "address"
        },
        {
          "internalType": "uint256",
          "name": "tokenId",
          "type": "uint256"
        }
      ],
      "name": "safeTransferFrom",
      "outputs": [],
      "stateMutability": "nonpayable",
      "type": "function"
    },
    {
      "inputs": [
        {
          "internalType": "address",
          "name": "from",
          "type": "address"
        },
        {
          "internalType": "address",
          "name": "to",
          "type": "address"
        },
        {
          "internalType": "uint256",
          "name": "tokenId",
          "type": "uint256"
        },
        {
          "internalType": "bytes",
          "name": "data",
          "type": "bytes"
        }
      ],
      "name": "safeTransferFrom",
      "outputs": [],
      "stateMutability": "nonpayable",
      "type": "function"
    },
    {
      "inputs": [
        {
          "internalType": "address",
          "name": "operator",
          "type": "address"
        },
        {
          "internalType": "bool",
          "name": "approved",
          "type": "bool"
        }
      ],
      "name": "setApprovalForAll",
      "outputs": [],
      "stateMutability": "nonpayable",
      "type": "function"
    },
    {
      "inputs": [
        {
          "internalType": "bytes4",
          "name": "interfaceId",
          "type": "bytes4"
        }
      ],
      "name": "supportsInterface",
      "outputs": [
        {
          "internalType": "bool",
          "name": "",
          "type": "bool"
        }
      ],
      "stateMutability": "view",
      "type": "function"
    },
    {
      "inputs": [],
      "name": "symbol",
      "outputs": [
        {
          "internalType": "string",
          "name": "",
          "type": "string"
        }
      ],
      "stateMutability": "view",
      "type": "function"
    },
    {
      "inputs": [
        {
          "internalType": "uint256",
          "name": "tokenId",
          "type": "uint256"
        }
      ],
      "name": "tokenURI",
      "outputs": [
        {
          "internalType": "string",
          "name": "",
          "type": "string"
        }
      ],
      "stateMutability": "view",
      "type": "function"
    },
    {
      "inputs": [
        {
          "internalType": "address",
          "name": "from",
          "type": "address"
        },
        {
          "internalType": "address",
          "name": "to",
          "type": "address"
        },
        {
          "internalType": "uint256",
          "name": "tokenId",
          "type": "uint256"
        }
      ],
      "name": "transferFrom",
      "outputs": [],
      "stateMutability": "nonpayable",
      "type": "function"
    }
  ],
  "bytecode": "0x60806040523480156200001157600080fd5b506200005e604051806040016040528060078152602001664552432037323160c81b8152506040518060400160405280600381526020016213919560ea1b8152506200006460201b60201c565b62000243565b600054610100900460ff16620000c45760405162461bcd60e51b815260206004820152602b6024820152600080516020620015c583398151915260448201526a6e697469616c697a696e6760a81b60648201526084015b60405180910390fd5b620000d08282620000d4565b5050565b600054610100900460ff16620001305760405162461bcd60e51b815260206004820152602b6024820152600080516020620015c583398151915260448201526a6e697469616c697a696e6760a81b6064820152608401620000bb565b81516200014590606590602085019062000160565b5080516200015b90606690602084019062000160565b505050565b8280546200016e9062000206565b90600052602060002090601f016020900481019282620001925760008555620001dd565b82601f10620001ad57805160ff1916838001178555620001dd565b82800160010185558215620001dd579182015b82811115620001dd578251825591602001919060010190620001c0565b50620001eb929150620001ef565b5090565b5b80821115620001eb5760008155600101620001f0565b600181811c908216806200021b57607f821691505b602082108114156200023d57634e487b7160e01b600052602260045260246000fd5b50919050565b61137280620002536000396000f3fe608060405234801561001057600080fd5b50600436106100f55760003560e01c806342966c6811610097578063a22cb46511610066578063a22cb465146101ff578063b88d4fde14610212578063c87b56dd14610225578063e985e9c51461023857600080fd5b806342966c68146101b05780636352211e146101c357806370a08231146101d657806395d89b41146101f757600080fd5b8063095ea7b3116100d3578063095ea7b31461016257806323b872dd1461017757806340c10f191461018a57806342842e0e1461019d57600080fd5b806301ffc9a7146100fa57806306fdde0314610122578063081812fc14610137575b600080fd5b61010d610108366004610e85565b610274565b60405190151581526020015b60405180910390f35b61012a6102c6565b6040516101199190610efa565b61014a610145366004610f0d565b610358565b6040516001600160a01b039091168152602001610119565b610175610170366004610f42565b61037f565b005b610175610185366004610f6c565b61049a565b610175610198366004610f42565b6104cb565b6101756101ab366004610f6c565b6104d9565b6101756101be366004610f0d565b6104f4565b61014a6101d1366004610f0d565b610500565b6101e96101e4366004610fa8565b610560565b604051908152602001610119565b61012a6105e6565b61017561020d366004610fc3565b6105f5565b610175610220366004611015565b610600565b61012a610233366004610f0d565b610638565b61010d6102463660046110f1565b6001600160a01b039182166000908152606a6020908152604080832093909416825291909152205460ff1690565b60006001600160e01b031982166380ac58cd60e01b14806102a557506001600160e01b03198216635b5e139f60e01b145b806102c057506301ffc9a760e01b6001600160e01b03198316145b92915050565b6060606580546102d590611124565b80601f016020809104026020016040519081016040528092919081815260200182805461030190611124565b801561034e5780601f106103235761010080835404028352916020019161034e565b820191906000526020600020905b81548152906001019060200180831161033157829003601f168201915b5050505050905090565b6000610363826106ac565b506000908152606960205260409020546001600160a01b031690565b600061038a82610500565b9050806001600160a01b0316836001600160a01b031614156103fd5760405162461bcd60e51b815260206004820152602160248201527f4552433732313a20617070726f76616c20746f2063757272656e74206f776e656044820152603960f91b60648201526084015b60405180910390fd5b336001600160a01b038216148061041957506104198133610246565b61048b5760405162461bcd60e51b815260206004820152603e60248201527f4552433732313a20617070726f76652063616c6c6572206973206e6f7420746f60448201527f6b656e206f776e6572206e6f7220617070726f76656420666f7220616c6c000060648201526084016103f4565b610495838361070b565b505050565b6104a43382610779565b6104c05760405162461bcd60e51b81526004016103f49061115f565b6104958383836107f8565b6104d58282610994565b5050565b61049583838360405180602001604052806000815250610600565b6104fd81610ad6565b50565b6000818152606760205260408120546001600160a01b0316806102c05760405162461bcd60e51b8152602060048201526018602482015277115490cdcc8c4e881a5b9d985b1a59081d1bdad95b88125160421b60448201526064016103f4565b60006001600160a01b0382166105ca5760405162461bcd60e51b815260206004820152602960248201527f4552433732313a2061646472657373207a65726f206973206e6f7420612076616044820152683634b21037bbb732b960b91b60648201526084016103f4565b506001600160a01b031660009081526068602052604090205490565b6060606680546102d590611124565b6104d5338383610b71565b61060a3383610779565b6106265760405162461bcd60e51b81526004016103f49061115f565b61063284848484610c40565b50505050565b6060610643826106ac565b600061065a60408051602081019091526000815290565b9050600081511161067a57604051806020016040528060008152506106a5565b8061068484610c73565b6040516020016106959291906111ad565b6040516020818303038152906040525b9392505050565b6000818152606760205260409020546001600160a01b03166104fd5760405162461bcd60e51b8152602060048201526018602482015277115490cdcc8c4e881a5b9d985b1a59081d1bdad95b88125160421b60448201526064016103f4565b600081815260696020526040902080546001600160a01b0319166001600160a01b038416908117909155819061074082610500565b6001600160a01b03167f8c5be1e5ebec7d5bd14f71427d1e84f3dd0314c0f7b2291e5b200ac8c7c3b92560405160405180910390a45050565b60008061078583610500565b9050806001600160a01b0316846001600160a01b031614806107cc57506001600160a01b038082166000908152606a602090815260408083209388168352929052205460ff165b806107f05750836001600160a01b03166107e584610358565b6001600160a01b0316145b949350505050565b826001600160a01b031661080b82610500565b6001600160a01b03161461086f5760405162461bcd60e51b815260206004820152602560248201527f4552433732313a207472616e736665722066726f6d20696e636f72726563742060448201526437bbb732b960d91b60648201526084016103f4565b6001600160a01b0382166108d15760405162461bcd60e51b8152602060048201526024808201527f4552433732313a207472616e7366657220746f20746865207a65726f206164646044820152637265737360e01b60648201526084016103f4565b6108dc60008261070b565b6001600160a01b03831660009081526068602052604081208054600192906109059084906111f2565b90915550506001600160a01b0382166000908152606860205260408120805460019290610933908490611209565b909155505060008181526067602052604080822080546001600160a01b0319166001600160a01b0386811691821790925591518493918716917fddf252ad1be2c89b69c2b068fc378daa952ba7f163c4a11628f55a4df523b3ef91a4505050565b6001600160a01b0382166109ea5760405162461bcd60e51b815260206004820181905260248201527f4552433732313a206d696e7420746f20746865207a65726f206164647265737360448201526064016103f4565b6000818152606760205260409020546001600160a01b031615610a4f5760405162461bcd60e51b815260206004820152601c60248201527f4552433732313a20746f6b656e20616c7265616479206d696e7465640000000060448201526064016103f4565b6001600160a01b0382166000908152606860205260408120805460019290610a78908490611209565b909155505060008181526067602052604080822080546001600160a01b0319166001600160a01b03861690811790915590518392907fddf252ad1be2c89b69c2b068fc378daa952ba7f163c4a11628f55a4df523b3ef908290a45050565b6000610ae182610500565b9050610aee60008361070b565b6001600160a01b0381166000908152606860205260408120805460019290610b179084906111f2565b909155505060008281526067602052604080822080546001600160a01b0319169055518391906001600160a01b038416907fddf252ad1be2c89b69c2b068fc378daa952ba7f163c4a11628f55a4df523b3ef908390a45050565b816001600160a01b0316836001600160a01b03161415610bd35760405162461bcd60e51b815260206004820152601960248201527f4552433732313a20617070726f766520746f2063616c6c65720000000000000060448201526064016103f4565b6001600160a01b038381166000818152606a6020908152604080832094871680845294825291829020805460ff191686151590811790915591519182527f17307eab39ab6107e8899845ad3d59bd9653f200f220920489ca2b5937696c31910160405180910390a3505050565b610c4b8484846107f8565b610c5784848484610d71565b6106325760405162461bcd60e51b81526004016103f490611221565b606081610c975750506040805180820190915260018152600360fc1b602082015290565b8160005b8115610cc15780610cab81611273565b9150610cba9050600a836112a4565b9150610c9b565b60008167ffffffffffffffff811115610cdc57610cdc610fff565b6040519080825280601f01601f191660200182016040528015610d06576020820181803683370190505b5090505b84156107f057610d1b6001836111f2565b9150610d28600a866112b8565b610d33906030611209565b60f81b818381518110610d4857610d486112cc565b60200101906001600160f81b031916908160001a905350610d6a600a866112a4565b9450610d0a565b60006001600160a01b0384163b15610e6457604051630a85bd0160e11b81526001600160a01b0385169063150b7a0290610db59033908990889088906004016112e2565b6020604051808303816000875af1925050508015610df0575060408051601f3d908101601f19168201909252610ded9181019061131f565b60015b610e4a573d808015610e1e576040519150601f19603f3d011682016040523d82523d6000602084013e610e23565b606091505b508051610e425760405162461bcd60e51b81526004016103f490611221565b805181602001fd5b6001600160e01b031916630a85bd0160e11b1490506107f0565b506001949350505050565b6001600160e01b0319811681146104fd57600080fd5b600060208284031215610e9757600080fd5b81356106a581610e6f565b60005b83811015610ebd578181015183820152602001610ea5565b838111156106325750506000910152565b60008151808452610ee6816020860160208601610ea2565b601f01601f19169290920160200192915050565b6020815260006106a56020830184610ece565b600060208284031215610f1f57600080fd5b5035919050565b80356001600160a01b0381168114610f3d57600080fd5b919050565b60008060408385031215610f5557600080fd5b610f5e83610f26565b946020939093013593505050565b600080600060608486031215610f8157600080fd5b610f8a84610f26565b9250610f9860208501610f26565b9150604084013590509250925092565b600060208284031215610fba57600080fd5b6106a582610f26565b60008060408385031215610fd657600080fd5b610fdf83610f26565b915060208301358015158114610ff457600080fd5b809150509250929050565b634e487b7160e01b600052604160045260246000fd5b6000806000806080858703121561102b57600080fd5b61103485610f26565b935061104260208601610f26565b925060408501359150606085013567ffffffffffffffff8082111561106657600080fd5b818701915087601f83011261107a57600080fd5b81358181111561108c5761108c610fff565b604051601f8201601f19908116603f011681019083821181831017156110b4576110b4610fff565b816040528281528a60208487010111156110cd57600080fd5b82602086016020830137600060208483010152809550505050505092959194509250565b6000806040838503121561110457600080fd5b61110d83610f26565b915061111b60208401610f26565b90509250929050565b600181811c9082168061113857607f821691505b6020821081141561115957634e487b7160e01b600052602260045260246000fd5b50919050565b6020808252602e908201527f4552433732313a2063616c6c6572206973206e6f7420746f6b656e206f776e6560408201526d1c881b9bdc88185c1c1c9bdd995960921b606082015260800190565b600083516111bf818460208801610ea2565b8351908301906111d3818360208801610ea2565b01949350505050565b634e487b7160e01b600052601160045260246000fd5b600082821015611204576112046111dc565b500390565b6000821982111561121c5761121c6111dc565b500190565b60208082526032908201527f4552433732313a207472616e7366657220746f206e6f6e20455243373231526560408201527131b2b4bb32b91034b6b83632b6b2b73a32b960711b606082015260800190565b6000600019821415611287576112876111dc565b5060010190565b634e487b7160e01b600052601260045260246000fd5b6000826112b3576112b361128e565b500490565b6000826112c7576112c761128e565b500690565b634e487b7160e01b600052603260045260246000fd5b6001600160a01b038581168252841660208201526040810183905260806060820181905260009061131590830184610ece565b9695505050505050565b60006020828403121561133157600080fd5b81516106a581610e6f56fea26469706673582212205bfedbf67bcfe78df0e802cafbfeb6c5c89b42e1aa9c53d637d787c440b1a1db64736f6c634300080b0033496e697469616c697a61626c653a20636f6e7472616374206973206e6f742069",
  "linkReferences": {},
  "deployedLinkReferences": {}
}