{
  "_format": "hh-sol-artifact-1",
  "contractName": "BIBStaking",
  "sourceName": "contracts/community/BIBStaking.sol",
  "abi": [
    {
      "anonymous": false,
      "inputs": [
        {
          "indexed": false,
          "internalType": "uint8",
          "name": "version",
          "type": "uint8"
        }
      ],
      "name": "Initialized",
      "type": "event"
    },
    {
      "anonymous": false,
      "inputs": [
        {
          "indexed": true,
          "internalType": "address",
          "name": "previousOwner",
          "type": "address"
        },
        {
          "indexed": true,
          "internalType": "address",
          "name": "newOwner",
          "type": "address"
        }
      ],
      "name": "OwnershipTransferred",
      "type": "event"
    },
    {
      "anonymous": false,
      "inputs": [
        {
          "indexed": false,
          "internalType": "address",
          "name": "account",
          "type": "address"
        }
      ],
      "name": "Paused",
      "type": "event"
    },
    {
      "anonymous": false,
      "inputs": [
        {
          "indexed": false,
          "internalType": "uint256",
          "name": "iterations",
          "type": "uint256"
        },
        {
          "indexed": false,
          "internalType": "uint256",
          "name": "claims",
          "type": "uint256"
        },
        {
          "indexed": false,
          "internalType": "uint256",
          "name": "lastProcessedIndex",
          "type": "uint256"
        },
        {
          "indexed": true,
          "internalType": "bool",
          "name": "automatic",
          "type": "bool"
        },
        {
          "indexed": false,
          "internalType": "uint256",
          "name": "gas",
          "type": "uint256"
        },
        {
          "indexed": true,
          "internalType": "address",
          "name": "processor",
          "type": "address"
        }
      ],
      "name": "ProcessedDividendTracker",
      "type": "event"
    },
    {
      "anonymous": false,
      "inputs": [
        {
          "indexed": true,
          "internalType": "address",
          "name": "user",
          "type": "address"
        },
        {
          "indexed": true,
          "internalType": "uint256",
          "name": "ticketId",
          "type": "uint256"
        },
        {
          "indexed": false,
          "internalType": "uint256",
          "name": "bibAmount",
          "type": "uint256"
        }
      ],
      "name": "Staking",
      "type": "event"
    },
    {
      "anonymous": false,
      "inputs": [
        {
          "indexed": false,
          "internalType": "uint256",
          "name": "ticketId",
          "type": "uint256"
        }
      ],
      "name": "SuperNode",
      "type": "event"
    },
    {
      "anonymous": false,
      "inputs": [
        {
          "indexed": true,
          "internalType": "address",
          "name": "user",
          "type": "address"
        },
        {
          "indexed": true,
          "internalType": "uint256",
          "name": "ticketId",
          "type": "uint256"
        },
        {
          "indexed": false,
          "internalType": "uint256",
          "name": "bibAmount",
          "type": "uint256"
        }
      ],
      "name": "UnStaking",
      "type": "event"
    },
    {
      "anonymous": false,
      "inputs": [
        {
          "indexed": false,
          "internalType": "uint256",
          "name": "ticketId",
          "type": "uint256"
        }
      ],
      "name": "UnSuperNode",
      "type": "event"
    },
    {
      "anonymous": false,
      "inputs": [
        {
          "indexed": false,
          "internalType": "address",
          "name": "account",
          "type": "address"
        }
      ],
      "name": "Unpaused",
      "type": "event"
    },
    {
      "anonymous": false,
      "inputs": [
        {
          "indexed": true,
          "internalType": "uint256",
          "name": "level",
          "type": "uint256"
        },
        {
          "indexed": false,
          "internalType": "uint256",
          "name": "newMaxSetUp",
          "type": "uint256"
        }
      ],
      "name": "UpdateMaxSetUp",
      "type": "event"
    },
    {
      "inputs": [],
      "name": "BIBDividend",
      "outputs": [
        {
          "internalType": "contract IBIBDividend",
          "name": "",
          "type": "address"
        }
      ],
      "stateMutability": "view",
      "type": "function"
    },
    {
      "inputs": [],
      "name": "BIBNode",
      "outputs": [
        {
          "internalType": "contract IBIBNode",
          "name": "",
          "type": "address"
        }
      ],
      "stateMutability": "view",
      "type": "function"
    },
    {
      "inputs": [],
      "name": "BIBToken",
      "outputs": [
        {
          "internalType": "contract IERC20Upgradeable",
          "name": "",
          "type": "address"
        }
      ],
      "stateMutability": "view",
      "type": "function"
    },
    {
      "inputs": [
        {
          "internalType": "address",
          "name": "operator",
          "type": "address"
        },
        {
          "internalType": "uint256",
          "name": "_ticket",
          "type": "uint256"
        },
        {
          "internalType": "uint256",
          "name": "_bibAmount",
          "type": "uint256"
        }
      ],
      "name": "createNode",
      "outputs": [],
      "stateMutability": "nonpayable",
      "type": "function"
    },
    {
      "inputs": [
        {
          "internalType": "address",
          "name": "operator",
          "type": "address"
        },
        {
          "internalType": "uint256",
          "name": "_ticket",
          "type": "uint256"
        }
      ],
      "name": "disbandNode",
      "outputs": [],
      "stateMutability": "nonpayable",
      "type": "function"
    },
    {
      "inputs": [],
      "name": "freezeTime",
      "outputs": [
        {
          "internalType": "uint256",
          "name": "",
          "type": "uint256"
        }
      ],
      "stateMutability": "view",
      "type": "function"
    },
    {
      "inputs": [],
      "name": "gasForProcessing",
      "outputs": [
        {
          "internalType": "uint256",
          "name": "",
          "type": "uint256"
        }
      ],
      "stateMutability": "view",
      "type": "function"
    },
    {
      "inputs": [
        {
          "internalType": "address",
          "name": "_account",
          "type": "address"
        }
      ],
      "name": "getAvailableAmount",
      "outputs": [
        {
          "internalType": "uint256",
          "name": "",
          "type": "uint256"
        }
      ],
      "stateMutability": "view",
      "type": "function"
    },
    {
      "inputs": [
        {
          "internalType": "address",
          "name": "_account",
          "type": "address"
        }
      ],
      "name": "getFreezeAmount",
      "outputs": [
        {
          "internalType": "uint256",
          "name": "",
          "type": "uint256"
        }
      ],
      "stateMutability": "view",
      "type": "function"
    },
    {
      "inputs": [
        {
          "internalType": "uint256",
          "name": "_ticketId",
          "type": "uint256"
        }
      ],
      "name": "getNodeCurrentMaxStake",
      "outputs": [
        {
          "internalType": "uint256",
          "name": "",
          "type": "uint256"
        }
      ],
      "stateMutability": "view",
      "type": "function"
    },
    {
      "inputs": [
        {
          "internalType": "uint256",
          "name": "_ticketId",
          "type": "uint256"
        }
      ],
      "name": "getNodeMaxStake",
      "outputs": [
        {
          "internalType": "uint256",
          "name": "",
          "type": "uint256"
        }
      ],
      "stateMutability": "view",
      "type": "function"
    },
    {
      "inputs": [
        {
          "internalType": "uint256",
          "name": "_ticketId",
          "type": "uint256"
        }
      ],
      "name": "getNodeMinStake",
      "outputs": [
        {
          "internalType": "uint256",
          "name": "",
          "type": "uint256"
        }
      ],
      "stateMutability": "view",
      "type": "function"
    },
    {
      "inputs": [
        {
          "internalType": "uint256",
          "name": "_ticket",
          "type": "uint256"
        }
      ],
      "name": "getNodeStakeAmount",
      "outputs": [
        {
          "internalType": "uint256",
          "name": "",
          "type": "uint256"
        }
      ],
      "stateMutability": "view",
      "type": "function"
    },
    {
      "inputs": [
        {
          "internalType": "uint256",
          "name": "_ticket",
          "type": "uint256"
        }
      ],
      "name": "getNodeStakingList",
      "outputs": [
        {
          "internalType": "address[]",
          "name": "",
          "type": "address[]"
        }
      ],
      "stateMutability": "view",
      "type": "function"
    },
    {
      "inputs": [
        {
          "internalType": "address",
          "name": "_account",
          "type": "address"
        }
      ],
      "name": "getUserStakeAmount",
      "outputs": [
        {
          "internalType": "uint256",
          "name": "",
          "type": "uint256"
        }
      ],
      "stateMutability": "view",
      "type": "function"
    },
    {
      "inputs": [
        {
          "internalType": "address",
          "name": "_account",
          "type": "address"
        }
      ],
      "name": "getUserStakeList",
      "outputs": [
        {
          "internalType": "uint256[]",
          "name": "nodeList",
          "type": "uint256[]"
        },
        {
          "internalType": "uint256[]",
          "name": "stakeDetail",
          "type": "uint256[]"
        }
      ],
      "stateMutability": "view",
      "type": "function"
    },
    {
      "inputs": [
        {
          "internalType": "address",
          "name": "_bibToken",
          "type": "address"
        },
        {
          "internalType": "address",
          "name": "_bibNode",
          "type": "address"
        },
        {
          "internalType": "address",
          "name": "_bibDividend",
          "type": "address"
        },
        {
          "internalType": "address",
          "name": "_soccerStarNft",
          "type": "address"
        }
      ],
      "name": "initialize",
      "outputs": [],
      "stateMutability": "nonpayable",
      "type": "function"
    },
    {
      "inputs": [
        {
          "internalType": "uint256",
          "name": "_ticketId",
          "type": "uint256"
        }
      ],
      "name": "isTopNode",
      "outputs": [
        {
          "internalType": "bool",
          "name": "",
          "type": "bool"
        }
      ],
      "stateMutability": "view",
      "type": "function"
    },
    {
      "inputs": [
        {
          "internalType": "uint256",
          "name": "",
          "type": "uint256"
        }
      ],
      "name": "maxSetupAmount",
      "outputs": [
        {
          "internalType": "uint256",
          "name": "",
          "type": "uint256"
        }
      ],
      "stateMutability": "view",
      "type": "function"
    },
    {
      "inputs": [
        {
          "internalType": "uint256",
          "name": "",
          "type": "uint256"
        }
      ],
      "name": "nodeMap",
      "outputs": [
        {
          "internalType": "uint256",
          "name": "stakingAmount",
          "type": "uint256"
        },
        {
          "internalType": "uint256",
          "name": "expireTime",
          "type": "uint256"
        },
        {
          "internalType": "address",
          "name": "owner",
          "type": "address"
        }
      ],
      "stateMutability": "view",
      "type": "function"
    },
    {
      "inputs": [
        {
          "internalType": "uint256",
          "name": "_from",
          "type": "uint256"
        },
        {
          "internalType": "uint256",
          "name": "_to",
          "type": "uint256"
        }
      ],
      "name": "nodeStake",
      "outputs": [
        {
          "internalType": "uint256",
          "name": "",
          "type": "uint256"
        }
      ],
      "stateMutability": "nonpayable",
      "type": "function"
    },
    {
      "inputs": [
        {
          "internalType": "uint256",
          "name": "",
          "type": "uint256"
        },
        {
          "internalType": "address",
          "name": "",
          "type": "address"
        }
      ],
      "name": "nodeStakedDetail",
      "outputs": [
        {
          "internalType": "uint256",
          "name": "",
          "type": "uint256"
        }
      ],
      "stateMutability": "view",
      "type": "function"
    },
    {
      "inputs": [
        {
          "internalType": "uint256",
          "name": "",
          "type": "uint256"
        },
        {
          "internalType": "uint256",
          "name": "",
          "type": "uint256"
        }
      ],
      "name": "nodeStakedUsers",
      "outputs": [
        {
          "internalType": "address",
          "name": "",
          "type": "address"
        }
      ],
      "stateMutability": "view",
      "type": "function"
    },
    {
      "inputs": [
        {
          "internalType": "uint256",
          "name": "_from",
          "type": "uint256"
        },
        {
          "internalType": "uint256",
          "name": "_to",
          "type": "uint256"
        }
      ],
      "name": "nodeUnStake",
      "outputs": [
        {
          "internalType": "uint256",
          "name": "",
          "type": "uint256"
        }
      ],
      "stateMutability": "nonpayable",
      "type": "function"
    },
    {
      "inputs": [
        {
          "internalType": "uint256",
          "name": "",
          "type": "uint256"
        }
      ],
      "name": "nodeWigth",
      "outputs": [
        {
          "internalType": "uint256",
          "name": "",
          "type": "uint256"
        }
      ],
      "stateMutability": "view",
      "type": "function"
    },
    {
      "inputs": [],
      "name": "owner",
      "outputs": [
        {
          "internalType": "address",
          "name": "",
          "type": "address"
        }
      ],
      "stateMutability": "view",
      "type": "function"
    },
    {
      "inputs": [],
      "name": "paused",
      "outputs": [
        {
          "internalType": "bool",
          "name": "",
          "type": "bool"
        }
      ],
      "stateMutability": "view",
      "type": "function"
    },
    {
      "inputs": [],
      "name": "renounceOwnership",
      "outputs": [],
      "stateMutability": "nonpayable",
      "type": "function"
    },
    {
      "inputs": [
        {
          "internalType": "uint256",
          "name": "level",
          "type": "uint256"
        },
        {
          "internalType": "uint256",
          "name": "setupAmount",
          "type": "uint256"
        }
      ],
      "name": "setMaxSetupAmount",
      "outputs": [],
      "stateMutability": "nonpayable",
      "type": "function"
    },
    {
      "inputs": [
        {
          "internalType": "uint256[]",
          "name": "_nodeWigth",
          "type": "uint256[]"
        }
      ],
      "name": "setNodeWeight",
      "outputs": [],
      "stateMutability": "nonpayable",
      "type": "function"
    },
    {
      "inputs": [
        {
          "internalType": "address",
          "name": "_soccerStarNft",
          "type": "address"
        }
      ],
      "name": "setSoccerStarNft",
      "outputs": [],
      "stateMutability": "nonpayable",
      "type": "function"
    },
    {
      "inputs": [
        {
          "internalType": "uint256",
          "name": "times",
          "type": "uint256"
        }
      ],
      "name": "setStakeCapTimes",
      "outputs": [],
      "stateMutability": "nonpayable",
      "type": "function"
    },
    {
      "inputs": [
        {
          "internalType": "uint256",
          "name": "c",
          "type": "uint256"
        }
      ],
      "name": "setTopNodeCount",
      "outputs": [],
      "stateMutability": "nonpayable",
      "type": "function"
    },
    {
      "inputs": [],
      "name": "soccerStarNft",
      "outputs": [
        {
          "internalType": "contract ISoccerStarNft",
          "name": "",
          "type": "address"
        }
      ],
      "stateMutability": "view",
      "type": "function"
    },
    {
      "inputs": [],
      "name": "stakeCapTimes",
      "outputs": [
        {
          "internalType": "uint256",
          "name": "",
          "type": "uint256"
        }
      ],
      "stateMutability": "view",
      "type": "function"
    },
    {
      "inputs": [
        {
          "internalType": "address",
          "name": "",
          "type": "address"
        },
        {
          "internalType": "uint256",
          "name": "",
          "type": "uint256"
        }
      ],
      "name": "stakeNodesMap",
      "outputs": [
        {
          "internalType": "uint256",
          "name": "",
          "type": "uint256"
        }
      ],
      "stateMutability": "view",
      "type": "function"
    },
    {
      "inputs": [],
      "name": "topNodeCount",
      "outputs": [
        {
          "internalType": "uint256",
          "name": "",
          "type": "uint256"
        }
      ],
      "stateMutability": "view",
      "type": "function"
    },
    {
      "inputs": [
        {
          "internalType": "address",
          "name": "from",
          "type": "address"
        },
        {
          "internalType": "address",
          "name": "to",
          "type": "address"
        },
        {
          "internalType": "uint256",
          "name": "_ticket",
          "type": "uint256"
        }
      ],
      "name": "transferNodeSetUp",
      "outputs": [],
      "stateMutability": "nonpayable",
      "type": "function"
    },
    {
      "inputs": [
        {
          "internalType": "address",
          "name": "newOwner",
          "type": "address"
        }
      ],
      "name": "transferOwnership",
      "outputs": [],
      "stateMutability": "nonpayable",
      "type": "function"
    },
    {
      "inputs": [
        {
          "internalType": "uint256",
          "name": "newValue",
          "type": "uint256"
        }
      ],
      "name": "updateGasForProcessing",
      "outputs": [],
      "stateMutability": "nonpayable",
      "type": "function"
    },
    {
      "inputs": [
        {
          "internalType": "uint256[]",
          "name": "_tickets",
          "type": "uint256[]"
        },
        {
          "internalType": "uint256[]",
          "name": "_bibAmounts",
          "type": "uint256[]"
        }
      ],
      "name": "updateStake",
      "outputs": [],
      "stateMutability": "nonpayable",
      "type": "function"
    },
    {
      "inputs": [
        {
          "internalType": "address",
          "name": "",
          "type": "address"
        },
        {
          "internalType": "uint256",
          "name": "",
          "type": "uint256"
        }
      ],
      "name": "userFreezeMap",
      "outputs": [
        {
          "internalType": "uint256",
          "name": "amount",
          "type": "uint256"
        },
        {
          "internalType": "uint256",
          "name": "expireTime",
          "type": "uint256"
        }
      ],
      "stateMutability": "view",
      "type": "function"
    }
  ],
  "bytecode": "0x62093a80609d556032609e55601e609f5561010060405260646080908152605a60a0908152605060c052604860e0526200003b91600462000057565b50620493e060a7553480156200005057600080fd5b50620000c3565b8280548282559060005260206000209081019282156200009a579160200282015b828111156200009a578251829060ff1690559160200191906001019062000078565b50620000a8929150620000ac565b5090565b5b80821115620000a85760008155600101620000ad565b61370980620000d36000396000f3fe608060405234801561001057600080fd5b506004361061025e5760003560e01c8063871c128d11610146578063a537809d116100c3578063be54aa9a11610087578063be54aa9a146105b0578063e4ca273a146105c3578063e9ab1eb4146105ee578063f2fde38b14610601578063f8c8765e14610614578063fd7e1bee1461062757600080fd5b8063a537809d14610544578063a9dcb09b14610557578063aa5a34bd1461056a578063b55dd98e1461058a578063b78a4a921461059d57600080fd5b8063953548861161010a57806395354886146104e25780639c1b8af5146104f5578063a10f2dab146104fe578063a2f8de7714610511578063a3d081271461052457600080fd5b8063871c128d14610485578063887dd220146104985780638da5cb5b146104ab57806393219680146104bc57806395336bae146104cf57600080fd5b80633a12dc19116101df5780636d629dbe116101a35780636d629dbe1461041b5780636f1d2f641461042e578063715018a6146104375780637612f53c1461043f5780637d4f6e7714610452578063824430fa1461046557600080fd5b80633a12dc19146103a95780633b533b20146103cc57806342d28769146103df5780635c975abb146103e85780636b9fa445146103f357600080fd5b80631f3a71ba116102265780631f3a71ba146103015780632299d43d146103145780632f6e60fb14610327578063333fd8a21461033a578063356ff5cd1461034d57600080fd5b806305652c801461026357806307f461d0146102785780630c98a385146102a257806314cf76c8146102cd578063178fd188146102e0575b600080fd5b610276610271366004612eed565b610630565b005b61028b610286366004612f1b565b61063d565b604051610299929190612f73565b60405180910390f35b609c546102b5906001600160a01b031681565b6040516001600160a01b039091168152602001610299565b609a546102b5906001600160a01b031681565b6102f36102ee366004612eed565b61078d565b604051908152602001610299565b6102f361030f366004612f1b565b6107ae565b610276610322366004612fa1565b610836565b61027661033536600461300f565b61088f565b6102f361034836600461307b565b610b88565b61038561035b366004612eed565b60a6602052600090815260409020805460018201546002909201549091906001600160a01b031683565b6040805193845260208401929092526001600160a01b031690820152606001610299565b6103bc6103b7366004612eed565b610bb9565b6040519015158152602001610299565b6102f36103da366004612fa1565b610bed565b6102f3609f5481565b60335460ff166103bc565b61040661040136600461307b565b610ebd565b60408051928352602083019190915201610299565b61027661042936600461307b565b610ef9565b6102f3609e5481565b610276610fc7565b6102f361044d366004612f1b565b610fdb565b609b546102b5906001600160a01b031681565b6102f3610473366004612eed565b600090815260a6602052604090205490565b610276610493366004612eed565b611107565b6102f36104a6366004612fa1565b611153565b6065546001600160a01b03166102b5565b6099546102b5906001600160a01b031681565b6102766104dd366004612f1b565b611263565b6102766104f0366004613117565b61128d565b6102f360a75481565b6102b561050c366004612fa1565b6112ef565b61027661051f3660046131bd565b611327565b610537610532366004612eed565b61156d565b60405161029991906131f2565b6102f3610552366004612eed565b6115d9565b6102f3610565366004612eed565b6116f2565b6102f3610578366004612eed565b60a16020526000908152604090205481565b6102f3610598366004612eed565b61171b565b6102f36105ab366004612f1b565b611793565b6102766105be366004612eed565b6119aa565b6102f36105d136600461323f565b60a560209081526000928352604080842090915290825290205481565b6102766105fc36600461326f565b6119b7565b61027661060f366004612f1b565b611ad1565b6102766106223660046132b0565b611b4a565b6102f3609d5481565b610638611cea565b609e55565b60608060a26000846001600160a01b03166001600160a01b031681526020019081526020016000208054806020026020016040519081016040528092919081815260200182805480156106af57602002820191906000526020600020905b81548152602001906001019080831161069b575b50505050509150815167ffffffffffffffff8111156106d0576106d06130a7565b6040519080825280602002602001820160405280156106f9578160200160208202803683370190505b50905060005b82518110156107875760a5600084838151811061071e5761071e61330c565b602002602001015181526020019081526020016000206000856001600160a01b03166001600160a01b031681526020019081526020016000205482828151811061076a5761076a61330c565b60209081029190910101528061077f81613338565b9150506106ff565b50915091565b60a0818154811061079d57600080fd5b600091825260209091200154905081565b60006108306107bc83611793565b609a546040516370a0823160e01b81526001600160a01b038681166004830152909116906370a0823190602401602060405180830381865afa158015610806573d6000803e3d6000fd5b505050506040513d601f19601f8201168201806040525081019061082a9190613353565b90611d44565b92915050565b61083e611cea565b600082815260a16020526040908190208290555182907f8a6cdf838d1eb4be6812cb55a4c0b92fc14f098944cec72ad3158ed986101dcf906108839084815260200190565b60405180910390a25050565b8281146108d25760405162461bcd60e51b815260206004820152600c60248201526b496e76616c6964206172677360a01b60448201526064015b60405180910390fd5b3360006108de826107ae565b905060005b85811015610aa757600060a560008989858181106109035761090361330c565b9050602002013581526020019081526020016000206000856001600160a01b03166001600160a01b03168152602001908152602001600020549050808686848181106109515761095161330c565b9050602002013514156109645750610a95565b808686848181106109775761097761330c565b905060200201351115610a245760006109b18288888681811061099c5761099c61330c565b90506020020135611d4490919063ffffffff16565b9050808410156109fa5760405162461bcd60e51b8152602060048201526014602482015273496e73756666696369656e742062616c616e636560601b60448201526064016108c9565b610a1d858a8a86818110610a1057610a1061330c565b9050602002013583611d57565b5050610a93565b80868684818110610a3757610a3761330c565b905060200201351015610a9357610a9184898985818110610a5a57610a5a61330c565b90506020020135610a8c898987818110610a7657610a7661330c565b9050602002013585611d4490919063ffffffff16565b611f90565b505b505b80610a9f81613338565b9150506108e3565b50610ab1826123e7565b609b5460a7546040516001624d3b8760e01b031981526001600160a01b039092169163ffb2c47991610ae99160040190815260200190565b6060604051808303816000875af1925050508015610b24575060408051601f3d908101601f19168201909252610b219181019061336c565b60015b610b2d57610b80565b60a754604080518581526020810185905280820184905260608101929092525132916001917fc864333d6121033635ab41b29ae52f10a22cf4438c3e4f1c4c68518feb2f8a989181900360800190a35050505b505050505050565b60a26020528160005260406000208181548110610ba457600080fd5b90600052602060002001600091509150505481565b6000609f54610bc760975490565b1015610bd557506001919050565b6000610be26097846124de565b609f54119392505050565b6099546000906001600160a01b03163314610c1a5760405162461bcd60e51b81526004016108c99061339a565b600083815260a6602052604081208054609b5460029092015490926001600160a01b039283169263dfb21477921690610c54908590612557565b8760a0600081548110610c6957610c6961330c565b90600052602060002001546040518563ffffffff1660e01b8152600401610c9394939291906133bd565b600060405180830381600087803b158015610cad57600080fd5b505af1158015610cc1573d6000803e3d6000fd5b505050507fb6c736c794c1532c9da42ce0da65d14c9eb97d61760ceb2ebca32f24a4e042d184604051610cf691815260200190565b60405180910390a1610d0783610bb9565b15610ddc57609b54600085815260a660205260409020600201546001600160a01b039182169163dfb214779116610d3f846001612557565b8760a0600181548110610d5457610d5461330c565b90600052602060002001546040518563ffffffff1660e01b8152600401610d7e94939291906133bd565b600060405180830381600087803b158015610d9857600080fd5b505af1158015610dac573d6000803e3d6000fd5b505050506000805160206136b483398151915284604051610dcf91815260200190565b60405180910390a1610ea8565b609b54600085815260a660205260409020600201546001600160a01b039182169163dfb214779116610e0f846003612557565b8760a0600381548110610e2457610e2461330c565b90600052602060002001546040518563ffffffff1660e01b8152600401610e4e94939291906133bd565b600060405180830381600087803b158015610e6857600080fd5b505af1158015610e7c573d6000803e3d6000fd5b505050506000805160206136b483398151915284604051610e9f91815260200190565b60405180910390a15b505050600090815260a6602052604090205490565b60a36020528160005260406000208181548110610ed957600080fd5b600091825260209091206002909102018054600190910154909250905082565b6099546001600160a01b03163314610f235760405162461bcd60e51b81526004016108c99061339a565b600081815260a660205260409020610f44609d54610f3e4290565b90612594565b600182015560008155610f56826125a0565b609b546001600160a01b03166304a8d8b58484610f7282610fdb565b6040518463ffffffff1660e01b8152600401610f90939291906133e3565b600060405180830381600087803b158015610faa57600080fd5b505af1158015610fbe573d6000803e3d6000fd5b50505050505050565b610fcf611cea565b610fd960006129f6565b565b6001600160a01b038116600090815260a2602090815260408083208054825181850281018501909352808352849383018282801561103857602002820191906000526020600020905b815481526020019060010190808311611024575b50505050509050600080600090505b82518110156110ff5760a660008483815181106110665761106661330c565b6020026020010151815260200190815260200160002060010154600014156110ed576110ea60a560008584815181106110a1576110a161330c565b602002602001015181526020019081526020016000206000876001600160a01b03166001600160a01b03168152602001908152602001600020548361259490919063ffffffff16565b91505b806110f781613338565b915050611047565b509392505050565b61110f611cea565b60a75481141561114e5760405162461bcd60e51b815260206004820152600a60248201526953616d652076616c756560b01b60448201526064016108c9565b60a755565b6099546000906001600160a01b031633146111805760405162461bcd60e51b81526004016108c99061339a565b609b54600084815260a660205260409020600281015490546001600160a01b039283169263dfb214779216906111b7906001612557565b8660a06001815481106111cc576111cc61330c565b90600052602060002001546040518563ffffffff1660e01b81526004016111f694939291906133bd565b600060405180830381600087803b15801561121057600080fd5b505af1158015611224573d6000803e3d6000fd5b505050506000805160206136b48339815191528360405161124791815260200190565b60405180910390a15050600090815260a6602052604090205490565b61126b611cea565b609c80546001600160a01b0319166001600160a01b0392909216919091179055565b611295611cea565b6004815110156112d85760405162461bcd60e51b815260206004820152600e60248201526d496e76616c696420636f6e66696760901b60448201526064016108c9565b80516112eb9060a0906020840190612e8d565b5050565b60a4602052816000526040600020818154811061130b57600080fd5b6000918252602090912001546001600160a01b03169150829050565b6099546001600160a01b031633146113515760405162461bcd60e51b81526004016108c99061339a565b600082815260a66020526040902080541561139e5760405162461bcd60e51b815260206004820152600d60248201526c139bd919481a5cc8195e1a5cdd609a1b60448201526064016108c9565b816113a8856107ae565b10156113ed5760405162461bcd60e51b8152602060048201526014602482015273496e73756666696369656e742062616c616e636560601b60448201526064016108c9565b8181556002810180546001600160a01b0386166001600160a01b03199182168117909255600085815260a460209081526040808320805460018181018355918552838520018054909516861790945584835260a2825280832080549485018155835281832090930187905586825260a581528282208483529052819020849055518491907fa7cce4e8ff59a515dccbee3a6382e94deb1db79bdb43cf35a51251d41ea395f0906114a09086815260200190565b60405180910390a36114b1836125a0565b80546114bc846115d9565b10156114fb5760405162461bcd60e51b815260206004820152600e60248201526d131a5b5a5d08195e18d95959195960921b60448201526064016108c9565b609b546001600160a01b03166304a8d8b5858561151782610fdb565b6040518463ffffffff1660e01b8152600401611535939291906133e3565b600060405180830381600087803b15801561154f57600080fd5b505af1158015611563573d6000803e3d6000fd5b5050505050505050565b600081815260a460209081526040918290208054835181840281018401909452808452606093928301828280156115cd57602002820191906000526020600020905b81546001600160a01b031681526001909101906020018083116115af575b50505050509050919050565b60995460405163356ff5cd60e01b81526004810183905260009182916001600160a01b039091169063356ff5cd90602401608060405180830381865afa158015611627573d6000803e3d6000fd5b505050506040513d601f19601f8201168201806040525081019061164b9190613404565b60200151609c546040516301ff8f7360e41b8152600481018390529192506000916001600160a01b0390911690631ff8f73090602401600060405180830381865afa15801561169e573d6000803e3d6000fd5b505050506040513d6000823e601f3d908101601f191682016040526116c691908101906134ff565b609e546060820151600090815260a160205260409020549192506116ea9190612a48565b949350505050565b6000610830609e54600161170691906135cb565b600084815260a6602052604090205490612a54565b600080611727836115d9565b600084815260a6602090815260408083206002015460a583528184206001600160a01b039091168085529252822054609e549394509092909190611777906117709060016135cb565b8390612a48565b9050808411156117875780611789565b835b9695505050505050565b6001600160a01b038116600090815260a260209081526040808320805482518185028101850190935280835284938301828280156117f057602002820191906000526020600020905b8154815260200190600101908083116117dc575b50505050509050600080600090505b82518110156118a85760a6600084838151811061181e5761181e61330c565b60200260200101518152602001908152602001600020600101546000148061187557504260a660008584815181106118585761185861330c565b602002602001015181526020019081526020016000206001015410155b156118965761189360a560008584815181106110a1576110a161330c565b91505b806118a081613338565b9150506117ff565b506001600160a01b038416600090815260a36020908152604080832080548251818502810185019093528083529192909190849084015b82821015611925578382906000526020600020906002020160405180604001604052908160008201548152602001600182015481525050815260200190600101906118df565b50505050905060005b81518110156119a0574282828151811061194a5761194a61330c565b6020026020010151602001511061198e5761198b8282815181106119705761197061330c565b6020026020010151600001518461259490919063ffffffff16565b92505b8061199881613338565b91505061192e565b5090949350505050565b6119b2611cea565b609f55565b6099546001600160a01b031633146119e15760405162461bcd60e51b81526004016108c99061339a565b600081815260a6602052604090206002810180546001600160a01b0319166001600160a01b03858116918217909255600084815260a5602090815260408083209489168084529490915280822080549383529082209290925591825255611a47826125a0565b609b546001600160a01b03166304a8d8b58584611a6382610fdb565b6040518463ffffffff1660e01b8152600401611a81939291906133e3565b600060405180830381600087803b158015611a9b57600080fd5b505af1158015611aaf573d6000803e3d6000fd5b5050609b546001600160a01b031691506304a8d8b59050848461151782610fdb565b611ad9611cea565b6001600160a01b038116611b3e5760405162461bcd60e51b815260206004820152602660248201527f4f776e61626c653a206e6577206f776e657220697320746865207a65726f206160448201526564647265737360d01b60648201526084016108c9565b611b47816129f6565b50565b600054600190610100900460ff16158015611b6c575060005460ff8083169116105b611bcf5760405162461bcd60e51b815260206004820152602e60248201527f496e697469616c697a61626c653a20636f6e747261637420697320616c72656160448201526d191e481a5b9a5d1a585b1a5e995960921b60648201526084016108c9565b6000805461ffff191660ff831617610100179055609a80546001600160a01b038088166001600160a01b03199283161790925560998054878416908316179055609b8054868416908316179055609c805492851692909116919091179055611c35612a60565b611c3d612a8f565b60a16020908152692a5a058fc295ed0000007f82810f81d5d6068ad5b62b5073b1161d037affd3559d84ef47a831e06ad04e8655600460009081526a01a784379d99db420000007f452a9a645b43619dc9681d051339fd2836f59d845037283e59145a406fad0d0055805461ff001916905560405160ff831681527f7f26b83ff96e1f2b6a682f133852f6798a09c465da95921460cefb3847402498910160405180910390a15050505050565b6065546001600160a01b03163314610fd95760405162461bcd60e51b815260206004820181905260248201527f4f776e61626c653a2063616c6c6572206973206e6f7420746865206f776e657260448201526064016108c9565b6000611d5082846135e3565b9392505050565b600082815260a660205260408120600181015415611da85760405162461bcd60e51b815260206004820152600e60248201526d139bd919481b9bdd08195e1a5cdd60921b60448201526064016108c9565b600084815260a5602090815260408083206001600160a01b0389168452909152902054611e2557600084815260a4602090815260408083208054600180820183559185528385200180546001600160a01b0319166001600160a01b038b16908117909155845260a283529083208054918201815583529120018490555b600084815260a5602090815260408083206001600160a01b0389168452909152902054611e529084612594565b600085815260a5602090815260408083206001600160a01b038a1684529091529020558054611e819084612594565b808255611e8d8561171b565b1015611ecc5760405162461bcd60e51b815260206004820152600e60248201526d131a5b5a5d08195e18d95959195960921b60448201526064016108c9565b83856001600160a01b03167fa7cce4e8ff59a515dccbee3a6382e94deb1db79bdb43cf35a51251d41ea395f085604051611f0891815260200190565b60405180910390a3611f19846125a0565b609b546001600160a01b03166304a8d8b58686611f3582610fdb565b6040518463ffffffff1660e01b8152600401611f53939291906133e3565b600060405180830381600087803b158015611f6d57600080fd5b505af1158015611f81573d6000803e3d6000fd5b50600198975050505050505050565b600082815260a66020908152604080832060a583528184206001600160a01b038816855290925282205480611fca57600192505050611d50565b8381101561200f5760405162461bcd60e51b8152602060048201526012602482015271496e73756666696369656e74207374616b6560701b60448201526064016108c9565b60028201546001600160a01b038781169116141561207a576120318185611d44565b61203a866116f2565b111561207a5760405162461bcd60e51b815260206004820152600f60248201526e135a5b881cd95d1d5c081b1a5b5a5d608a1b60448201526064016108c9565b81546120869085611d44565b82558084141561228f57600085815260a46020526040902080545b80156121a557806120b1816135fa565b915050876001600160a01b03168282815481106120d0576120d061330c565b6000918252602090912001546001600160a01b031614156121a057815482906120fb906001906135e3565b8154811061210b5761210b61330c565b9060005260206000200160009054906101000a90046001600160a01b031682828154811061213b5761213b61330c565b9060005260206000200160006101000a8154816001600160a01b0302191690836001600160a01b031602179055508180548061217957612179613611565b600082815260209020810160001990810180546001600160a01b03191690550190556121a5565b6120a1565b600087815260a5602090815260408083206001600160a01b038c168452825280832083905560a2909152902080545b801561228657806121e4816135fa565b915050888282815481106121fa576121fa61330c565b90600052602060002001541415612281578154829061221b906001906135e3565b8154811061222b5761222b61330c565b90600052602060002001548282815481106122485761224861330c565b90600052602060002001819055508180548061226657612266613611565b60019003818190600052602060002001600090559055612286565b6121d4565b505050506122bd565b6122998185611d44565b600086815260a5602090815260408083206001600160a01b038b1684529091529020555b60a36000876001600160a01b03166001600160a01b031681526020019081526020016000206040518060400160405280868152602001612300609d54610f3e4290565b9052815460018082018455600093845260209384902083516002909302019182559183015191015560405185815286916001600160a01b038916917fc7c828c532c03d3105bb4d86d724a0b9aae548a0fb733a5eaee9fea00959c5e5910160405180910390a361236f856125a0565b609b546001600160a01b03166304a8d8b5878761238b82610fdb565b6040518463ffffffff1660e01b81526004016123a9939291906133e3565b600060405180830381600087803b1580156123c357600080fd5b505af11580156123d7573d6000803e3d6000fd5b5060019998505050505050505050565b6001600160a01b038116600090815260a36020526040902080545b80156124d95780612412816135fa565b91505061241c4290565b82828154811061242e5761242e61330c565b90600052602060002090600202016001015410156124d45781548290612456906001906135e3565b815481106124665761246661330c565b90600052602060002090600202018282815481106124865761248661330c565b60009182526020909120825460029092020190815560019182015491015581548290806124b5576124b5613611565b6000828152602081206002600019909301928302018181556001015590555b612402565b505050565b60006124e8835490565b6124f457506000610830565b60006125038460006001612abe565b9150505b80158015906125195750828114600114155b15612550578161252881613338565b6000928352600180870160209081526040808620928652919052909220549192506125079050565b5092915050565b6000611d50606461258e60a085815481106125745761257461330c565b906000526020600020015486612a4890919063ffffffff16565b90612a54565b6000611d5082846135cb565b60006125ad6097836124de565b6125b89060016135cb565b90506125c5609783612b05565b50600082815260a66020526040812054906125e260973084612b9f565b90506125f060978286612c6a565b50600084815260a660205260408120600201546001600160a01b0316906126186097876124de565b6126239060016135cb565b9050609f548111158061263a5750609f5460975411155b1561270b57609b546001600160a01b031663dfb214778361265c876000612557565b8960a06000815481106126715761267161330c565b90600052602060002001546040518563ffffffff1660e01b815260040161269b94939291906133bd565b600060405180830381600087803b1580156126b557600080fd5b505af11580156126c9573d6000803e3d6000fd5b505050507fb6c736c794c1532c9da42ce0da65d14c9eb97d61760ceb2ebca32f24a4e042d1866040516126fe91815260200190565b60405180910390a16127cb565b609f548111156127cb57609b546001600160a01b031663dfb2147783612732876002612557565b8960a06002815481106127475761274761330c565b90600052602060002001546040518563ffffffff1660e01b815260040161277194939291906133bd565b600060405180830381600087803b15801561278b57600080fd5b505af115801561279f573d6000803e3d6000fd5b505050506000805160206136b4833981519152866040516127c291815260200190565b60405180910390a15b609f5485111580156127de5750609f5481115b156128ea5760006127ff6001609f546127f791906135e3565b609790612c79565b609b54600082815260a660205260408120600281015490549394506001600160a01b039283169363dfb21477939091169161283a9190612557565b8460a060008154811061284f5761284f61330c565b90600052602060002001546040518563ffffffff1660e01b815260040161287994939291906133bd565b600060405180830381600087803b15801561289357600080fd5b505af11580156128a7573d6000803e3d6000fd5b505050507fb6c736c794c1532c9da42ce0da65d14c9eb97d61760ceb2ebca32f24a4e042d1816040516128dc91815260200190565b60405180910390a150610b80565b609f54851180156128fd5750609f548111155b15610b8057600061291a609f546097612c7990919063ffffffff16565b609b54600082815260a66020526040902060028082015491549394506001600160a01b039283169363dfb21477939092169161295591612557565b8460a060028154811061296a5761296a61330c565b90600052602060002001546040518563ffffffff1660e01b815260040161299494939291906133bd565b600060405180830381600087803b1580156129ae57600080fd5b505af11580156129c2573d6000803e3d6000fd5b505050506000805160206136b4833981519152816040516129e591815260200190565b60405180910390a150505050505050565b606580546001600160a01b038381166001600160a01b0319831681179093556040519116919082907f8be0079c531659141344cd1fd0a4f28419497f9722a3daafe3b4186f6b6457e090600090a35050565b6000611d508284613627565b6000611d508284613646565b600054610100900460ff16612a875760405162461bcd60e51b81526004016108c990613668565b610fd9612ce8565b600054610100900460ff16612ab65760405162461bcd60e51b81526004016108c990613668565b610fd9612d1b565b600080612acb8585612d4b565b612ada57506000905080612afd565b505060008281526001848101602090815260408084208515158552909152909120545b935093915050565b6000811580612b1b5750612b198383612d4b565b155b15612b2857506000610830565b600082815260018481016020908152604080842084805290915280832054828452922054612b5a928692909190612dcf565b60008281526001848101602090815260408084208480529091528083208390558183528220829055845490918591612b939084906135e3565b90915550919392505050565b6000612ba9845490565b612bb557506000611d50565b6000612bc48560006001612abe565b9150505b8015801590612c435750604051634122187d60e11b8152600481018290526001906001600160a01b0386169063824430fa90602401602060405180830381865afa158015612c1a573d6000803e3d6000fd5b505050506040513d601f19601f82011682018060405250810190612c3e9190613353565b841014155b156116ea576000908152600180860160209081526040808420928452919052902054612bc8565b60006116ea8484846001612e04565b6000612c83835490565b612c8f57506000610830565b6000612c9e8460006001612abe565b9150505b8015801590612cb15750600083115b15611d505782612cc0816135fa565b600092835260018087016020908152604080862092865291905290922054919350612ca29050565b600054610100900460ff16612d0f5760405162461bcd60e51b81526004016108c990613668565b6033805460ff19169055565b600054610100900460ff16612d425760405162461bcd60e51b81526004016108c990613668565b610fd9336129f6565b60008181526001830160209081526040808320838052909152812054158015612d8e57506000828152600180850160209081526040808420928452919052902054155b15612dc7576000808052600180850160209081526040808420928452919052902054821415612dbf57506001610830565b506000610830565b506001610830565b600082815260019094016020818152604080872093158088529382528087208690559486529081528385209115855252912055565b6000612e108584612d4b565b158015612e225750612e228585612d4b565b15612e8257600084815260018601602090815260408083208515158452909152902054612e5186868686612dcf565b612e5d86858386612dcf565b6001866000016000828254612e7291906135cb565b90915550600192506116ea915050565b506000949350505050565b828054828255906000526020600020908101928215612ec8579160200282015b82811115612ec8578251825591602001919060010190612ead565b50612ed4929150612ed8565b5090565b5b80821115612ed45760008155600101612ed9565b600060208284031215612eff57600080fd5b5035919050565b6001600160a01b0381168114611b4757600080fd5b600060208284031215612f2d57600080fd5b8135611d5081612f06565b600081518084526020808501945080840160005b83811015612f6857815187529582019590820190600101612f4c565b509495945050505050565b604081526000612f866040830185612f38565b8281036020840152612f988185612f38565b95945050505050565b60008060408385031215612fb457600080fd5b50508035926020909101359150565b60008083601f840112612fd557600080fd5b50813567ffffffffffffffff811115612fed57600080fd5b6020830191508360208260051b850101111561300857600080fd5b9250929050565b6000806000806040858703121561302557600080fd5b843567ffffffffffffffff8082111561303d57600080fd5b61304988838901612fc3565b9096509450602087013591508082111561306257600080fd5b5061306f87828801612fc3565b95989497509550505050565b6000806040838503121561308e57600080fd5b823561309981612f06565b946020939093013593505050565b634e487b7160e01b600052604160045260246000fd5b60405160a0810167ffffffffffffffff811182821017156130e0576130e06130a7565b60405290565b604051601f8201601f1916810167ffffffffffffffff8111828210171561310f5761310f6130a7565b604052919050565b6000602080838503121561312a57600080fd5b823567ffffffffffffffff8082111561314257600080fd5b818501915085601f83011261315657600080fd5b813581811115613168576131686130a7565b8060051b91506131798483016130e6565b818152918301840191848101908884111561319357600080fd5b938501935b838510156131b157843582529385019390850190613198565b98975050505050505050565b6000806000606084860312156131d257600080fd5b83356131dd81612f06565b95602085013595506040909401359392505050565b6020808252825182820181905260009190848201906040850190845b818110156132335783516001600160a01b03168352928401929184019160010161320e565b50909695505050505050565b6000806040838503121561325257600080fd5b82359150602083013561326481612f06565b809150509250929050565b60008060006060848603121561328457600080fd5b833561328f81612f06565b9250602084013561329f81612f06565b929592945050506040919091013590565b600080600080608085870312156132c657600080fd5b84356132d181612f06565b935060208501356132e181612f06565b925060408501356132f181612f06565b9150606085013561330181612f06565b939692955090935050565b634e487b7160e01b600052603260045260246000fd5b634e487b7160e01b600052601160045260246000fd5b600060001982141561334c5761334c613322565b5060010190565b60006020828403121561336557600080fd5b5051919050565b60008060006060848603121561338157600080fd5b8351925060208401519150604084015190509250925092565b6020808252600990820152684f4e4c595f4e4f444560b81b604082015260600190565b6001600160a01b0394909416845260208401929092526040830152606082015260800190565b6001600160a01b039390931683526020830191909152604082015260600190565b60006080828403121561341657600080fd5b6040516080810181811067ffffffffffffffff82111715613439576134396130a7565b604052825161344781612f06565b808252506020830151602082015260408301516040820152606083015160608201528091505092915050565b600082601f83011261348457600080fd5b815167ffffffffffffffff81111561349e5761349e6130a7565b60206134b2601f8301601f191682016130e6565b82815285828487010111156134c657600080fd5b60005b838110156134e45785810183015182820184015282016134c9565b838111156134f55760008385840101525b5095945050505050565b60006020828403121561351157600080fd5b815167ffffffffffffffff8082111561352957600080fd5b9083019060a0828603121561353d57600080fd5b6135456130bd565b82518281111561355457600080fd5b61356087828601613473565b82525060208301518281111561357557600080fd5b61358187828601613473565b60208301525060408301518281111561359957600080fd5b6135a587828601613473565b604083015250606083015160608201526080830151608082015280935050505092915050565b600082198211156135de576135de613322565b500190565b6000828210156135f5576135f5613322565b500390565b60008161360957613609613322565b506000190190565b634e487b7160e01b600052603160045260246000fd5b600081600019048311821515161561364157613641613322565b500290565b60008261366357634e487b7160e01b600052601260045260246000fd5b500490565b6020808252602b908201527f496e697469616c697a61626c653a20636f6e7472616374206973206e6f74206960408201526a6e697469616c697a696e6760a81b60608201526080019056fe118869071cb652a628d27af83fd5e44c01eea1aea7c78b23f6cdbfb10f2bb3d8a2646970667358221220222cd428f4405f16a7be9536267096c2b220c1fe718dfe40b91807d2d46fe25464736f6c634300080b0033",
  "linkReferences": {},
  "deployedLinkReferences": {}
}