{
  "_format": "hh-sol-artifact-1",
  "contractName": "BIBStaking",
  "sourceName": "contracts/community/BIBStaking.sol",
  "abi": [
    {
      "anonymous": false,
      "inputs": [
        {
          "indexed": false,
          "internalType": "uint8",
          "name": "version",
          "type": "uint8"
        }
      ],
      "name": "Initialized",
      "type": "event"
    },
    {
      "anonymous": false,
      "inputs": [
        {
          "indexed": true,
          "internalType": "address",
          "name": "previousOwner",
          "type": "address"
        },
        {
          "indexed": true,
          "internalType": "address",
          "name": "newOwner",
          "type": "address"
        }
      ],
      "name": "OwnershipTransferred",
      "type": "event"
    },
    {
      "anonymous": false,
      "inputs": [
        {
          "indexed": false,
          "internalType": "address",
          "name": "account",
          "type": "address"
        }
      ],
      "name": "Paused",
      "type": "event"
    },
    {
      "anonymous": false,
      "inputs": [
        {
          "indexed": false,
          "internalType": "uint256",
          "name": "iterations",
          "type": "uint256"
        },
        {
          "indexed": false,
          "internalType": "uint256",
          "name": "claims",
          "type": "uint256"
        },
        {
          "indexed": false,
          "internalType": "uint256",
          "name": "lastProcessedIndex",
          "type": "uint256"
        },
        {
          "indexed": true,
          "internalType": "bool",
          "name": "automatic",
          "type": "bool"
        },
        {
          "indexed": false,
          "internalType": "uint256",
          "name": "gas",
          "type": "uint256"
        },
        {
          "indexed": true,
          "internalType": "address",
          "name": "processor",
          "type": "address"
        }
      ],
      "name": "ProcessedDividendTracker",
      "type": "event"
    },
    {
      "anonymous": false,
      "inputs": [
        {
          "indexed": true,
          "internalType": "address",
          "name": "user",
          "type": "address"
        },
        {
          "indexed": true,
          "internalType": "uint256",
          "name": "ticketId",
          "type": "uint256"
        },
        {
          "indexed": false,
          "internalType": "uint256",
          "name": "bibAmount",
          "type": "uint256"
        }
      ],
      "name": "Staking",
      "type": "event"
    },
    {
      "anonymous": false,
      "inputs": [
        {
          "indexed": false,
          "internalType": "uint256",
          "name": "ticketId",
          "type": "uint256"
        }
      ],
      "name": "SuperNode",
      "type": "event"
    },
    {
      "anonymous": false,
      "inputs": [
        {
          "indexed": true,
          "internalType": "address",
          "name": "user",
          "type": "address"
        },
        {
          "indexed": true,
          "internalType": "uint256",
          "name": "ticketId",
          "type": "uint256"
        },
        {
          "indexed": false,
          "internalType": "uint256",
          "name": "bibAmount",
          "type": "uint256"
        }
      ],
      "name": "UnStaking",
      "type": "event"
    },
    {
      "anonymous": false,
      "inputs": [
        {
          "indexed": false,
          "internalType": "uint256",
          "name": "ticketId",
          "type": "uint256"
        }
      ],
      "name": "UnSuperNode",
      "type": "event"
    },
    {
      "anonymous": false,
      "inputs": [
        {
          "indexed": false,
          "internalType": "address",
          "name": "account",
          "type": "address"
        }
      ],
      "name": "Unpaused",
      "type": "event"
    },
    {
      "anonymous": false,
      "inputs": [
        {
          "indexed": true,
          "internalType": "uint256",
          "name": "level",
          "type": "uint256"
        },
        {
          "indexed": false,
          "internalType": "uint256",
          "name": "newMaxSetUp",
          "type": "uint256"
        }
      ],
      "name": "UpdateMaxSetUp",
      "type": "event"
    },
    {
      "inputs": [],
      "name": "BIBDividend",
      "outputs": [
        {
          "internalType": "contract IBIBDividend",
          "name": "",
          "type": "address"
        }
      ],
      "stateMutability": "view",
      "type": "function"
    },
    {
      "inputs": [],
      "name": "BIBNode",
      "outputs": [
        {
          "internalType": "contract IBIBNode",
          "name": "",
          "type": "address"
        }
      ],
      "stateMutability": "view",
      "type": "function"
    },
    {
      "inputs": [],
      "name": "BIBToken",
      "outputs": [
        {
          "internalType": "contract IERC20Upgradeable",
          "name": "",
          "type": "address"
        }
      ],
      "stateMutability": "view",
      "type": "function"
    },
    {
      "inputs": [
        {
          "internalType": "address",
          "name": "operator",
          "type": "address"
        },
        {
          "internalType": "uint256",
          "name": "_ticket",
          "type": "uint256"
        },
        {
          "internalType": "uint256",
          "name": "_bibAmount",
          "type": "uint256"
        }
      ],
      "name": "createNode",
      "outputs": [],
      "stateMutability": "nonpayable",
      "type": "function"
    },
    {
      "inputs": [
        {
          "internalType": "address",
          "name": "operator",
          "type": "address"
        },
        {
          "internalType": "uint256",
          "name": "_ticket",
          "type": "uint256"
        }
      ],
      "name": "disbandNode",
      "outputs": [],
      "stateMutability": "nonpayable",
      "type": "function"
    },
    {
      "inputs": [],
      "name": "freezeTime",
      "outputs": [
        {
          "internalType": "uint256",
          "name": "",
          "type": "uint256"
        }
      ],
      "stateMutability": "view",
      "type": "function"
    },
    {
      "inputs": [],
      "name": "gasForProcessing",
      "outputs": [
        {
          "internalType": "uint256",
          "name": "",
          "type": "uint256"
        }
      ],
      "stateMutability": "view",
      "type": "function"
    },
    {
      "inputs": [
        {
          "internalType": "address",
          "name": "_account",
          "type": "address"
        }
      ],
      "name": "getAvailableAmount",
      "outputs": [
        {
          "internalType": "uint256",
          "name": "",
          "type": "uint256"
        }
      ],
      "stateMutability": "view",
      "type": "function"
    },
    {
      "inputs": [
        {
          "internalType": "address",
          "name": "_account",
          "type": "address"
        }
      ],
      "name": "getFreezeAmount",
      "outputs": [
        {
          "internalType": "uint256",
          "name": "",
          "type": "uint256"
        }
      ],
      "stateMutability": "view",
      "type": "function"
    },
    {
      "inputs": [
        {
          "internalType": "uint256",
          "name": "_ticketId",
          "type": "uint256"
        }
      ],
      "name": "getLevelByTicket",
      "outputs": [
        {
          "internalType": "uint256",
          "name": "",
          "type": "uint256"
        }
      ],
      "stateMutability": "view",
      "type": "function"
    },
    {
      "inputs": [
        {
          "internalType": "uint256",
          "name": "_ticketId",
          "type": "uint256"
        }
      ],
      "name": "getNodeCurrentMaxStake",
      "outputs": [
        {
          "internalType": "uint256",
          "name": "",
          "type": "uint256"
        }
      ],
      "stateMutability": "view",
      "type": "function"
    },
    {
      "inputs": [
        {
          "internalType": "uint256",
          "name": "_ticketId",
          "type": "uint256"
        }
      ],
      "name": "getNodeMaxStake",
      "outputs": [
        {
          "internalType": "uint256",
          "name": "",
          "type": "uint256"
        }
      ],
      "stateMutability": "view",
      "type": "function"
    },
    {
      "inputs": [
        {
          "internalType": "uint256",
          "name": "_ticketId",
          "type": "uint256"
        }
      ],
      "name": "getNodeMinStake",
      "outputs": [
        {
          "internalType": "uint256",
          "name": "",
          "type": "uint256"
        }
      ],
      "stateMutability": "view",
      "type": "function"
    },
    {
      "inputs": [
        {
          "internalType": "uint256",
          "name": "_ticket",
          "type": "uint256"
        }
      ],
      "name": "getNodeStakeAmount",
      "outputs": [
        {
          "internalType": "uint256",
          "name": "",
          "type": "uint256"
        }
      ],
      "stateMutability": "view",
      "type": "function"
    },
    {
      "inputs": [
        {
          "internalType": "uint256",
          "name": "_ticket",
          "type": "uint256"
        }
      ],
      "name": "getNodeStakingList",
      "outputs": [
        {
          "internalType": "address[]",
          "name": "",
          "type": "address[]"
        }
      ],
      "stateMutability": "view",
      "type": "function"
    },
    {
      "inputs": [
        {
          "internalType": "address",
          "name": "_account",
          "type": "address"
        }
      ],
      "name": "getUserStakeAmount",
      "outputs": [
        {
          "internalType": "uint256",
          "name": "",
          "type": "uint256"
        }
      ],
      "stateMutability": "view",
      "type": "function"
    },
    {
      "inputs": [
        {
          "internalType": "address",
          "name": "_account",
          "type": "address"
        }
      ],
      "name": "getUserStakeList",
      "outputs": [
        {
          "internalType": "uint256[]",
          "name": "nodeList",
          "type": "uint256[]"
        },
        {
          "internalType": "uint256[]",
          "name": "stakeDetail",
          "type": "uint256[]"
        }
      ],
      "stateMutability": "view",
      "type": "function"
    },
    {
      "inputs": [
        {
          "internalType": "address",
          "name": "_bibToken",
          "type": "address"
        },
        {
          "internalType": "address",
          "name": "_bibNode",
          "type": "address"
        },
        {
          "internalType": "address",
          "name": "_bibDividend",
          "type": "address"
        },
        {
          "internalType": "address",
          "name": "_soccerStarNft",
          "type": "address"
        }
      ],
      "name": "initialize",
      "outputs": [],
      "stateMutability": "nonpayable",
      "type": "function"
    },
    {
      "inputs": [
        {
          "internalType": "uint256",
          "name": "_ticketId",
          "type": "uint256"
        }
      ],
      "name": "isTopNode",
      "outputs": [
        {
          "internalType": "bool",
          "name": "",
          "type": "bool"
        }
      ],
      "stateMutability": "view",
      "type": "function"
    },
    {
      "inputs": [
        {
          "internalType": "uint256",
          "name": "",
          "type": "uint256"
        }
      ],
      "name": "maxSetupAmount",
      "outputs": [
        {
          "internalType": "uint256",
          "name": "",
          "type": "uint256"
        }
      ],
      "stateMutability": "view",
      "type": "function"
    },
    {
      "inputs": [
        {
          "internalType": "uint256",
          "name": "",
          "type": "uint256"
        }
      ],
      "name": "nodeMap",
      "outputs": [
        {
          "internalType": "uint256",
          "name": "stakingAmount",
          "type": "uint256"
        },
        {
          "internalType": "uint256",
          "name": "expireTime",
          "type": "uint256"
        },
        {
          "internalType": "address",
          "name": "owner",
          "type": "address"
        }
      ],
      "stateMutability": "view",
      "type": "function"
    },
    {
      "inputs": [
        {
          "internalType": "uint256",
          "name": "_from",
          "type": "uint256"
        },
        {
          "internalType": "uint256",
          "name": "_to",
          "type": "uint256"
        }
      ],
      "name": "nodeStake",
      "outputs": [
        {
          "internalType": "uint256",
          "name": "",
          "type": "uint256"
        }
      ],
      "stateMutability": "nonpayable",
      "type": "function"
    },
    {
      "inputs": [
        {
          "internalType": "uint256",
          "name": "",
          "type": "uint256"
        },
        {
          "internalType": "address",
          "name": "",
          "type": "address"
        }
      ],
      "name": "nodeStakedDetail",
      "outputs": [
        {
          "internalType": "uint256",
          "name": "",
          "type": "uint256"
        }
      ],
      "stateMutability": "view",
      "type": "function"
    },
    {
      "inputs": [
        {
          "internalType": "uint256",
          "name": "",
          "type": "uint256"
        },
        {
          "internalType": "uint256",
          "name": "",
          "type": "uint256"
        }
      ],
      "name": "nodeStakedUsers",
      "outputs": [
        {
          "internalType": "address",
          "name": "",
          "type": "address"
        }
      ],
      "stateMutability": "view",
      "type": "function"
    },
    {
      "inputs": [
        {
          "internalType": "uint256",
          "name": "_from",
          "type": "uint256"
        },
        {
          "internalType": "uint256",
          "name": "_to",
          "type": "uint256"
        }
      ],
      "name": "nodeUnStake",
      "outputs": [
        {
          "internalType": "uint256",
          "name": "",
          "type": "uint256"
        }
      ],
      "stateMutability": "nonpayable",
      "type": "function"
    },
    {
      "inputs": [
        {
          "internalType": "uint256",
          "name": "",
          "type": "uint256"
        }
      ],
      "name": "nodeWigth",
      "outputs": [
        {
          "internalType": "uint256",
          "name": "",
          "type": "uint256"
        }
      ],
      "stateMutability": "view",
      "type": "function"
    },
    {
      "inputs": [],
      "name": "owner",
      "outputs": [
        {
          "internalType": "address",
          "name": "",
          "type": "address"
        }
      ],
      "stateMutability": "view",
      "type": "function"
    },
    {
      "inputs": [],
      "name": "paused",
      "outputs": [
        {
          "internalType": "bool",
          "name": "",
          "type": "bool"
        }
      ],
      "stateMutability": "view",
      "type": "function"
    },
    {
      "inputs": [],
      "name": "renounceOwnership",
      "outputs": [],
      "stateMutability": "nonpayable",
      "type": "function"
    },
    {
      "inputs": [
        {
          "internalType": "address",
          "name": "_bibToken",
          "type": "address"
        }
      ],
      "name": "setBIBToken",
      "outputs": [],
      "stateMutability": "nonpayable",
      "type": "function"
    },
    {
      "inputs": [
        {
          "internalType": "uint256",
          "name": "times",
          "type": "uint256"
        }
      ],
      "name": "setFreezeTime",
      "outputs": [],
      "stateMutability": "nonpayable",
      "type": "function"
    },
    {
      "inputs": [
        {
          "internalType": "uint256",
          "name": "level",
          "type": "uint256"
        },
        {
          "internalType": "uint256",
          "name": "setupAmount",
          "type": "uint256"
        }
      ],
      "name": "setMaxSetupAmount",
      "outputs": [],
      "stateMutability": "nonpayable",
      "type": "function"
    },
    {
      "inputs": [
        {
          "internalType": "uint256[]",
          "name": "_nodeWigth",
          "type": "uint256[]"
        }
      ],
      "name": "setNodeWeight",
      "outputs": [],
      "stateMutability": "nonpayable",
      "type": "function"
    },
    {
      "inputs": [
        {
          "internalType": "address",
          "name": "_soccerStarNft",
          "type": "address"
        }
      ],
      "name": "setSoccerStarNft",
      "outputs": [],
      "stateMutability": "nonpayable",
      "type": "function"
    },
    {
      "inputs": [
        {
          "internalType": "uint256",
          "name": "times",
          "type": "uint256"
        }
      ],
      "name": "setStakeCapTimes",
      "outputs": [],
      "stateMutability": "nonpayable",
      "type": "function"
    },
    {
      "inputs": [
        {
          "internalType": "uint256",
          "name": "c",
          "type": "uint256"
        }
      ],
      "name": "setTopNodeCount",
      "outputs": [],
      "stateMutability": "nonpayable",
      "type": "function"
    },
    {
      "inputs": [],
      "name": "soccerStarNft",
      "outputs": [
        {
          "internalType": "contract ISoccerStarNft",
          "name": "",
          "type": "address"
        }
      ],
      "stateMutability": "view",
      "type": "function"
    },
    {
      "inputs": [],
      "name": "stakeCapTimes",
      "outputs": [
        {
          "internalType": "uint256",
          "name": "",
          "type": "uint256"
        }
      ],
      "stateMutability": "view",
      "type": "function"
    },
    {
      "inputs": [
        {
          "internalType": "address",
          "name": "",
          "type": "address"
        },
        {
          "internalType": "uint256",
          "name": "",
          "type": "uint256"
        }
      ],
      "name": "stakeNodesMap",
      "outputs": [
        {
          "internalType": "uint256",
          "name": "",
          "type": "uint256"
        }
      ],
      "stateMutability": "view",
      "type": "function"
    },
    {
      "inputs": [],
      "name": "topNodeCount",
      "outputs": [
        {
          "internalType": "uint256",
          "name": "",
          "type": "uint256"
        }
      ],
      "stateMutability": "view",
      "type": "function"
    },
    {
      "inputs": [
        {
          "internalType": "address",
          "name": "from",
          "type": "address"
        },
        {
          "internalType": "address",
          "name": "to",
          "type": "address"
        },
        {
          "internalType": "uint256",
          "name": "_ticket",
          "type": "uint256"
        }
      ],
      "name": "transferNodeSetUp",
      "outputs": [],
      "stateMutability": "nonpayable",
      "type": "function"
    },
    {
      "inputs": [
        {
          "internalType": "address",
          "name": "newOwner",
          "type": "address"
        }
      ],
      "name": "transferOwnership",
      "outputs": [],
      "stateMutability": "nonpayable",
      "type": "function"
    },
    {
      "inputs": [
        {
          "internalType": "uint256",
          "name": "newValue",
          "type": "uint256"
        }
      ],
      "name": "updateGasForProcessing",
      "outputs": [],
      "stateMutability": "nonpayable",
      "type": "function"
    },
    {
      "inputs": [
        {
          "internalType": "uint256[]",
          "name": "_tickets",
          "type": "uint256[]"
        },
        {
          "internalType": "uint256[]",
          "name": "_bibAmounts",
          "type": "uint256[]"
        }
      ],
      "name": "updateStake",
      "outputs": [],
      "stateMutability": "nonpayable",
      "type": "function"
    },
    {
      "inputs": [
        {
          "internalType": "address",
          "name": "",
          "type": "address"
        },
        {
          "internalType": "uint256",
          "name": "",
          "type": "uint256"
        }
      ],
      "name": "userFreezeMap",
      "outputs": [
        {
          "internalType": "uint256",
          "name": "amount",
          "type": "uint256"
        },
        {
          "internalType": "uint256",
          "name": "expireTime",
          "type": "uint256"
        }
      ],
      "stateMutability": "view",
      "type": "function"
    }
  ],
  "bytecode": "0x608060405234801561001057600080fd5b506136c1806100206000396000f3fe608060405234801561001057600080fd5b506004361061027f5760003560e01c8063824430fa1161015c578063a537809d116100ce578063be54aa9a11610087578063be54aa9a1461060a578063e4ca273a1461061d578063e9ab1eb414610648578063f2fde38b1461065b578063f8c8765e1461066e578063fd7e1bee1461068157600080fd5b8063a537809d1461058b578063a9dcb09b1461059e578063aa5a34bd146105b1578063aafc057f146105d1578063b55dd98e146105e4578063b78a4a92146105f757600080fd5b806395336bae1161012057806395336bae1461051657806395354886146105295780639c1b8af51461053c578063a10f2dab14610545578063a2f8de7714610558578063a3d081271461056b57600080fd5b8063824430fa146104ac578063871c128d146104cc578063887dd220146104df5780638da5cb5b146104f2578063932196801461050357600080fd5b80633a12dc19116101f55780636b9fa445116101b95780636b9fa4451461043a5780636d629dbe146104625780636f1d2f6414610475578063715018a61461047e5780637612f53c146104865780637d4f6e771461049957600080fd5b80633a12dc19146103dd5780633b533b201461040057806342d28769146104135780635c975abb1461041c5780635f4bc2871461042757600080fd5b80631f3a71ba116102475780631f3a71ba146103225780631fce699e146103355780632299d43d146103485780632f6e60fb1461035b578063333fd8a21461036e578063356ff5cd1461038157600080fd5b806305652c801461028457806307f461d0146102995780630c98a385146102c357806314cf76c8146102ee578063178fd18814610301575b600080fd5b610297610292366004612eea565b61068a565b005b6102ac6102a7366004612f18565b610697565b6040516102ba929190612f70565b60405180910390f35b609c546102d6906001600160a01b031681565b6040516001600160a01b0390911681526020016102ba565b609a546102d6906001600160a01b031681565b61031461030f366004612eea565b6107e7565b6040519081526020016102ba565b610314610330366004612f18565b610808565b610314610343366004612eea565b610890565b610297610356366004612f9e565b610989565b61029761036936600461300c565b6109e2565b61031461037c366004613078565b610fb0565b6103b961038f366004612eea565b60a6602052600090815260409020805460018201546002909201549091906001600160a01b031683565b6040805193845260208401929092526001600160a01b0316908201526060016102ba565b6103f06103eb366004612eea565b610fe1565b60405190151581526020016102ba565b61031461040e366004612f9e565b611015565b610314609f5481565b60335460ff166103f0565b610297610435366004612f18565b611133565b61044d610448366004613078565b61115d565b604080519283526020830191909152016102ba565b610297610470366004613078565b611199565b610314609e5481565b6102976111f5565b610314610494366004612f18565b611209565b609b546102d6906001600160a01b031681565b6103146104ba366004612eea565b600090815260a6602052604090205490565b6102976104da366004612eea565b61132d565b6103146104ed366004612f9e565b61133a565b6065546001600160a01b03166102d6565b6099546102d6906001600160a01b031681565b610297610524366004612f18565b611384565b610297610537366004613114565b6113ae565b61031460a75481565b6102d6610553366004612f9e565b611410565b6102976105663660046131ba565b611448565b61057e610579366004612eea565b61162c565b6040516102ba91906131ef565b610314610599366004612eea565b611698565b6103146105ac366004612eea565b6116ca565b6103146105bf366004612eea565b60a16020526000908152604090205481565b6102976105df366004612eea565b6116e8565b6103146105f2366004612eea565b6116f5565b610314610605366004612f18565b611762565b610297610618366004612eea565b611979565b61031461062b36600461323c565b60a560209081526000928352604080842090915290825290205481565b61029761065636600461326c565b611986565b610297610669366004612f18565b611cb9565b61029761067c3660046132ad565b611d32565b610314609d5481565b610692611f1d565b609e55565b60608060a26000846001600160a01b03166001600160a01b0316815260200190815260200160002080548060200260200160405190810160405280929190818152602001828054801561070957602002820191906000526020600020905b8154815260200190600101908083116106f5575b50505050509150815167ffffffffffffffff81111561072a5761072a6130a4565b604051908082528060200260200182016040528015610753578160200160208202803683370190505b50905060005b82518110156107e15760a5600084838151811061077857610778613309565b602002602001015181526020019081526020016000206000856001600160a01b03166001600160a01b03168152602001908152602001600020548282815181106107c4576107c4613309565b6020908102919091010152806107d981613335565b915050610759565b50915091565b60a081815481106107f757600080fd5b600091825260209091200154905081565b600061088a61081683611762565b609a546040516370a0823160e01b81526001600160a01b038681166004830152909116906370a0823190602401602060405180830381865afa158015610860573d6000803e3d6000fd5b505050506040513d601f19601f820116820180604052508101906108849190613350565b90611f77565b92915050565b60995460405163356ff5cd60e01b81526004810183905260009182916001600160a01b039091169063356ff5cd90602401608060405180830381865afa1580156108de573d6000803e3d6000fd5b505050506040513d601f19601f820116820180604052508101906109029190613369565b60200151609c546040516301ff8f7360e41b8152600481018390529192506000916001600160a01b0390911690631ff8f73090602401600060405180830381865afa158015610955573d6000803e3d6000fd5b505050506040513d6000823e601f3d908101601f1916820160405261097d9190810190613464565b60600151949350505050565b610991611f1d565b600082815260a16020526040908190208290555182907f8a6cdf838d1eb4be6812cb55a4c0b92fc14f098944cec72ad3158ed986101dcf906109d69084815260200190565b60405180910390a25050565b828114610a255760405162461bcd60e51b815260206004820152600c60248201526b496e76616c6964206172677360a01b60448201526064015b60405180910390fd5b3360008080610a3384610808565b905060005b87811015610e0157600060a560008b8b85818110610a5857610a58613309565b9050602002013581526020019081526020016000206000876001600160a01b03166001600160a01b0316815260200190815260200160002054905080888884818110610aa657610aa6613309565b905060200201351415610ab95750610def565b80888884818110610acc57610acc613309565b905060200201351115610b3e576000610b06828a8a86818110610af157610af1613309565b90506020020135611f7790919063ffffffff16565b9050610b128682611f8a565b9550610b37878c8c86818110610b2a57610b2a613309565b9050602002013583611f96565b5050610bbf565b80888884818110610b5157610b51613309565b905060200201351015610bbf576000610b8b898985818110610b7557610b75613309565b9050602002013583611f7790919063ffffffff16565b9050610b978582611f8a565b9450610bbc878c8c86818110610baf57610baf613309565b905060200201358361215a565b50505b610beb8a8a84818110610bd457610bd4613309565b90506020020135609761228f90919063ffffffff16565b15610c1657610c118a8a84818110610c0557610c05613309565b90506020020135612313565b610d7c565b6099546000906001600160a01b031663356ff5cd8c8c86818110610c3c57610c3c613309565b905060200201356040518263ffffffff1660e01b8152600401610c6191815260200190565b608060405180830381865afa158015610c7e573d6000803e3d6000fd5b505050506040513d601f19601f82011682018060405250810190610ca29190613369565b606001519050600060a660008d8d87818110610cc057610cc0613309565b905060200201358152602001908152602001600020600001549050600060039050610cea83610fe1565b15610cf3575060015b610d7860a660008f8f89818110610d0c57610d0c613309565b60209081029290920135835250810191909152604001600020600201546001600160a01b0316610d3c8484612515565b8f8f89818110610d4e57610d4e613309565b9050602002013560a08581548110610d6857610d68613309565b9060005260206000200154612552565b5050505b610ded868b8b85818110610d9257610d92613309565b9050602002013560a560008e8e88818110610daf57610daf613309565b90506020020135815260200190815260200160002060008a6001600160a01b03166001600160a01b031681526020019081526020016000205461265d565b505b80610df981613335565b915050610a38565b50818310610e5e57610e138383611f77565b811015610e595760405162461bcd60e51b8152602060048201526014602482015273496e73756666696369656e742062616c616e636560601b6044820152606401610a1c565b610ece565b6001600160a01b038416600090815260a360205260409081902081518083019092529080610e8c8587611f77565b8152602001610ea4609d54610e9e4290565b90611f8a565b90528154600181810184556000938452602093849020835160029093020191825592909101519101555b610ed7846126c6565b609b5460a7546040516001624d3b8760e01b031981526001600160a01b039092169163ffb2c47991610f0f9160040190815260200190565b6060604051808303816000875af1925050508015610f4a575060408051601f3d908101601f19168201909252610f4791810190613530565b60015b610f5357610fa6565b60a754604080518581526020810185905280820184905260608101929092525132916001917fc864333d6121033635ab41b29ae52f10a22cf4438c3e4f1c4c68518feb2f8a989181900360800190a35050505b5050505050505050565b60a26020528160005260406000208181548110610fcc57600080fd5b90600052602060002001600091509150505481565b6000609f54610fef60975490565b1015610ffd57506001919050565b600061100a6097846127b8565b609f54119392505050565b6099546000906001600160a01b031633146110425760405162461bcd60e51b8152600401610a1c9061355e565b600083815260a66020526040902054609f54609754118015611068575061106884610fe1565b156110ce576000611085609f54609761283190919063ffffffff16565b600081815260a660205260408120600281015490549293506110cc926001600160a01b03909116916110b79190612515565b8360a0600081548110610d6857610d68613309565b505b6110d96097856128a0565b5060036110e584610fe1565b156110ee575060015b600085815260a6602052604090206002015461112b906001600160a01b03166111178484612515565b8760a08581548110610d6857610d68613309565b509392505050565b61113b611f1d565b609a80546001600160a01b0319166001600160a01b0392909216919091179055565b60a3602052816000526040600020818154811061117957600080fd5b600091825260209091206002909102018054600190910154909250905082565b6099546001600160a01b031633146111c35760405162461bcd60e51b8152600401610a1c9061355e565b600081815260a6602052604090206111de609d54610e9e4290565b6001820155600081556111f082612313565b505050565b6111fd611f1d565b611207600061293a565b565b6001600160a01b038116600090815260a2602090815260408083208054825181850281018501909352808352849383018282801561126657602002820191906000526020600020905b815481526020019060010190808311611252575b50505050509050600080600090505b825181101561112b5760a6600084838151811061129457611294613309565b60200260200101518152602001908152602001600020600101546000141561131b5761131860a560008584815181106112cf576112cf613309565b602002602001015181526020019081526020016000206000876001600160a01b03166001600160a01b031681526020019081526020016000205483611f8a90919063ffffffff16565b91505b8061132581613335565b915050611275565b611335611f1d565b60a755565b6099546000906001600160a01b031633146113675760405162461bcd60e51b8152600401610a1c9061355e565b61137083612313565b5050600090815260a6602052604090205490565b61138c611f1d565b609c80546001600160a01b0319166001600160a01b0392909216919091179055565b6113b6611f1d565b6004815110156113f95760405162461bcd60e51b815260206004820152600e60248201526d496e76616c696420636f6e66696760901b6044820152606401610a1c565b805161140c9060a0906020840190612e4a565b5050565b60a4602052816000526040600020818154811061142c57600080fd5b6000918252602090912001546001600160a01b03169150829050565b6099546001600160a01b031633146114725760405162461bcd60e51b8152600401610a1c9061355e565b600082815260a6602052604090208054156114bf5760405162461bcd60e51b815260206004820152600d60248201526c139bd919481a5cc8195e1a5cdd609a1b6044820152606401610a1c565b816114c985610808565b101561150e5760405162461bcd60e51b8152602060048201526014602482015273496e73756666696369656e742062616c616e636560601b6044820152606401610a1c565b8181556002810180546001600160a01b0386166001600160a01b03199182168117909255600085815260a460209081526040808320805460018181018355918552838520018054909516861790945584835260a2825280832080549485018155835281832090930187905586825260a581528282208483529052819020849055518491907fa7cce4e8ff59a515dccbee3a6382e94deb1db79bdb43cf35a51251d41ea395f0906115c19086815260200190565b60405180910390a36115d283612313565b816115dc84611698565b101561161b5760405162461bcd60e51b815260206004820152600e60248201526d131a5b5a5d08195e18d95959195960921b6044820152606401610a1c565b61162684848461265d565b50505050565b600081815260a4602090815260409182902080548351818402810184019094528084526060939283018282801561168c57602002820191906000526020600020905b81546001600160a01b0316815260019091019060200180831161166e575b50505050509050919050565b600061088a609e5460a160006116ad86610890565b81526020019081526020016000205461298c90919063ffffffff16565b609e54600082815260a66020526040812054909161088a9190612998565b6116f0611f1d565b609d55565b60008061170183611698565b600084815260a6602090815260408083206002015460a583528184206001600160a01b039091168085529252822054609e54939450909290919061174690839061298c565b9050808411156117565780611758565b835b9695505050505050565b6001600160a01b038116600090815260a260209081526040808320805482518185028101850190935280835284938301828280156117bf57602002820191906000526020600020905b8154815260200190600101908083116117ab575b50505050509050600080600090505b82518110156118775760a660008483815181106117ed576117ed613309565b60200260200101518152602001908152602001600020600101546000148061184457504260a6600085848151811061182757611827613309565b602002602001015181526020019081526020016000206001015410155b156118655761186260a560008584815181106112cf576112cf613309565b91505b8061186f81613335565b9150506117ce565b506001600160a01b038416600090815260a36020908152604080832080548251818502810185019093528083529192909190849084015b828210156118f4578382906000526020600020906002020160405180604001604052908160008201548152602001600182015481525050815260200190600101906118ae565b50505050905060005b815181101561196f574282828151811061191957611919613309565b6020026020010151602001511061195d5761195a82828151811061193f5761193f613309565b60200260200101516000015184611f8a90919063ffffffff16565b92505b8061196781613335565b9150506118fd565b5090949350505050565b611981611f1d565b609f55565b6099546001600160a01b031633146119b05760405162461bcd60e51b8152600401610a1c9061355e565b600081815260a660205260409020600060a160006119cd85610890565b8152602080820192909252604090810160009081205486825260a584528282206001600160a01b038a16835290935290812054919250818310611a105781611a12565b825b6002850180546001600160a01b0319166001600160a01b038916908117909155600087815260a5602090815260408083209383529290522054909150611aa857600085815260a4602090815260408083208054600180820183559185528385200180546001600160a01b0319166001600160a01b038c16908117909155845260a283529083208054918201815583529120018590555b600085815260a5602090815260408083206001600160a01b038a168452909152902054611ad59082611f8a565b600086815260a5602090815260408083206001600160a01b038b81168552925280832093909355891681522054811415611b1857611b1387866129a4565b611b69565b600085815260a5602090815260408083206001600160a01b038b168452909152902054611b459082611f77565b600086815260a5602090815260408083206001600160a01b038c1684529091529020555b609a546040516323b872dd60e01b81526001600160a01b038981166004830152888116602483015260448201849052909116906323b872dd906064016020604051808303816000875af1158015611bc4573d6000803e3d6000fd5b505050506040513d601f19601f82011682018060405250810190611be89190613581565b50600085815260a5602090815260408083206001600160a01b038b168452909152902054611c19908890879061265d565b600085815260a5602090815260408083206001600160a01b038a168452909152902054611c49908790879061265d565b609b546040516325c5ecbb60e01b81526001600160a01b0389811660048301528881166024830152909116906325c5ecbb90604401600060405180830381600087803b158015611c9857600080fd5b505af1158015611cac573d6000803e3d6000fd5b5050505050505050505050565b611cc1611f1d565b6001600160a01b038116611d265760405162461bcd60e51b815260206004820152602660248201527f4f776e61626c653a206e6577206f776e657220697320746865207a65726f206160448201526564647265737360d01b6064820152608401610a1c565b611d2f8161293a565b50565b600054600190610100900460ff16158015611d54575060005460ff8083169116105b611db75760405162461bcd60e51b815260206004820152602e60248201527f496e697469616c697a61626c653a20636f6e747261637420697320616c72656160448201526d191e481a5b9a5d1a585b1a5e995960921b6064820152608401610a1c565b6000805461ffff191660ff831617610100179055609a80546001600160a01b038088166001600160a01b03199283161790925560998054878416908316179055609b8054868416908316179055609c805492851692909116919091179055611e1d612ba2565b611e25612bd1565b60a16020908152692a5a058fc295ed0000007f82810f81d5d6068ad5b62b5073b1161d037affd3559d84ef47a831e06ad04e8655600460008190526a01a784379d99db420000007f452a9a645b43619dc9681d051339fd2836f59d845037283e59145a406fad0d005562093a80609d556032609e55601e609f556040805160808101825260648152605a9381019390935260509083015260486060830152611ecf9160a091612e95565b50600060a7819055805461ff001916905560405160ff821681527f7f26b83ff96e1f2b6a682f133852f6798a09c465da95921460cefb38474024989060200160405180910390a15050505050565b6065546001600160a01b031633146112075760405162461bcd60e51b815260206004820181905260248201527f4f776e61626c653a2063616c6c6572206973206e6f7420746865206f776e65726044820152606401610a1c565b6000611f8382846135a3565b9392505050565b6000611f8382846135ba565b600082815260a660205260408120600181015415611fe75760405162461bcd60e51b815260206004820152600e60248201526d139bd919481b9bdd08195e1a5cdd60921b6044820152606401610a1c565b600084815260a5602090815260408083206001600160a01b038916845290915290205461206457600084815260a4602090815260408083208054600180820183559185528385200180546001600160a01b0319166001600160a01b038b16908117909155845260a283529083208054918201815583529120018490555b600084815260a5602090815260408083206001600160a01b03891684529091529020546120919084611f8a565b600085815260a5602090815260408083206001600160a01b038a16845290915290205580546120c09084611f8a565b8082556120cc856116f5565b101561210b5760405162461bcd60e51b815260206004820152600e60248201526d131a5b5a5d08195e18d95959195960921b6044820152606401610a1c565b83856001600160a01b03167fa7cce4e8ff59a515dccbee3a6382e94deb1db79bdb43cf35a51251d41ea395f08560405161214791815260200190565b60405180910390a3506001949350505050565b600082815260a66020908152604080832060a583528184206001600160a01b038089168087529190945291842054600282015491939092911614156121ec576121a38185611f77565b6121ac866116ca565b11156121ec5760405162461bcd60e51b815260206004820152600f60248201526e135a5b881cd95d1d5c081b1a5b5a5d608a1b6044820152606401610a1c565b81546121f89085611f77565b8255808414156122115761220c86866129a4565b61223f565b61221b8185611f77565b600086815260a5602090815260408083206001600160a01b038b1684529091529020555b84866001600160a01b03167fc7c828c532c03d3105bb4d86d724a0b9aae548a0fb733a5eaee9fea00959c5e58660405161227b91815260200190565b60405180910390a350600195945050505050565b600081815260018301602090815260408083208380529091528120541580156122d257506000828152600180850160209081526040808420928452919052902054155b1561230b5760008080526001808501602090815260408084209284529190529020548214156123035750600161088a565b50600061088a565b50600161088a565b60006123206097836127b8565b61232b9060016135ba565b90506123386097836128a0565b50600082815260a660205260408120805460029091015460975491926001600160a01b039091169161236b9060016135ba565b905082156123e257600061238160973086612c00565b905061238f60978288612cd3565b5061239b6097876127b8565b6123a69060016135ba565b609f5490925060029083116123b9575060005b6123db846123c78784612515565b8960a08581548110610d6857610d68613309565b5050612460565b8261246057609b54600086815260a66020526040908190206002015490516336b14edf60e11b81526001600160a01b03918216600482015260248101889052911690636d629dbe90604401600060405180830381600087803b15801561244757600080fd5b505af115801561245b573d6000803e3d6000fd5b505050505b600080609f5486111580156124765750609f5483115b1561249557600090506001609f5461248e91906135a3565b91506124c2565b609f54861180156124a85750609f548311155b156124b9575050609f5460026124c2565b50505050505050565b60006124cf609784612831565b600081815260a66020526040902060028101549054919250610fa6916001600160a01b03909116906125019085612515565b8360a08681548110610d6857610d68613309565b6000611f83606461254c60a0858154811061253257612532613309565b90600052602060002001548661298c90919063ffffffff16565b90612998565b609b5460405163dfb2147760e01b81526001600160a01b0386811660048301526024820186905260448201859052606482018490529091169063dfb2147790608401600060405180830381600087803b1580156125ae57600080fd5b505af11580156125c2573d6000803e3d6000fd5b5050505060a06000815481106125da576125da613309565b9060005260206000200154811415612624576040518281527fb6c736c794c1532c9da42ce0da65d14c9eb97d61760ceb2ebca32f24a4e042d19060200160405180910390a1611626565b6040518281527f118869071cb652a628d27af83fd5e44c01eea1aea7c78b23f6cdbfb10f2bb3d89060200160405180910390a150505050565b609b546040516304a8d8b560e01b81526001600160a01b0385811660048301526024820185905260448201849052909116906304a8d8b590606401600060405180830381600087803b1580156126b257600080fd5b505af11580156124b9573d6000803e3d6000fd5b6001600160a01b038116600090815260a36020526040902080545b80156111f057806126f1816135d2565b9150506126fb4290565b82828154811061270d5761270d613309565b90600052602060002090600202016001015410156127b35781548290612735906001906135a3565b8154811061274557612745613309565b906000526020600020906002020182828154811061276557612765613309565b6000918252602090912082546002909202019081556001918201549101558154829080612794576127946135e9565b6000828152602081206002600019909301928302018181556001015590555b6126e1565b60006127c2835490565b6127ce5750600061088a565b60006127dd8460006001612ce2565b9150505b80158015906127f35750828114600114155b1561282a578161280281613335565b6000928352600180870160209081526040808620928652919052909220549192506127e19050565b5092915050565b600061283b835490565b6128475750600061088a565b60006128568460006001612ce2565b9150505b80158015906128695750600083115b15611f835782612878816135d2565b60009283526001808701602090815260408086209286529190529092205491935061285a9050565b60008115806128b657506128b4838361228f565b155b156128c35750600061088a565b6000828152600184810160209081526040808420848052909152808320548284529220546128f5928692909190612d29565b6000828152600184810160209081526040808420848052909152808320839055818352822082905584549091859161292e9084906135a3565b90915550919392505050565b606580546001600160a01b038381166001600160a01b0319831681179093556040519116919082907f8be0079c531659141344cd1fd0a4f28419497f9722a3daafe3b4186f6b6457e090600090a35050565b6000611f8382846135ff565b6000611f83828461361e565b600081815260a46020526040902080545b8015612ab957806129c5816135d2565b915050836001600160a01b03168282815481106129e4576129e4613309565b6000918252602090912001546001600160a01b03161415612ab45781548290612a0f906001906135a3565b81548110612a1f57612a1f613309565b9060005260206000200160009054906101000a90046001600160a01b0316828281548110612a4f57612a4f613309565b9060005260206000200160006101000a8154816001600160a01b0302191690836001600160a01b0316021790555081805480612a8d57612a8d6135e9565b600082815260209020810160001990810180546001600160a01b0319169055019055612ab9565b6129b5565b600083815260a5602090815260408083206001600160a01b0388168452825280832083905560a2909152902080545b8015612b9a5780612af8816135d2565b91505084828281548110612b0e57612b0e613309565b90600052602060002001541415612b955781548290612b2f906001906135a3565b81548110612b3f57612b3f613309565b9060005260206000200154828281548110612b5c57612b5c613309565b906000526020600020018190555081805480612b7a57612b7a6135e9565b60019003818190600052602060002001600090559055612b9a565b612ae8565b505050505050565b600054610100900460ff16612bc95760405162461bcd60e51b8152600401610a1c90613640565b611207612d5e565b600054610100900460ff16612bf85760405162461bcd60e51b8152600401610a1c90613640565b611207612d91565b6000612c0a845490565b612c1657506000611f83565b6000612c258560006001612ce2565b9150505b8015801590612ca45750604051634122187d60e11b8152600481018290526001906001600160a01b0386169063824430fa90602401602060405180830381865afa158015612c7b573d6000803e3d6000fd5b505050506040513d601f19601f82011682018060405250810190612c9f9190613350565b841115145b15612ccb576000908152600180860160209081526040808420928452919052902054612c29565b949350505050565b6000612ccb8484846000612dc1565b600080612cef858561228f565b612cfe57506000905080612d21565b505060008281526001848101602090815260408084208515158552909152909120545b935093915050565b600082815260019094016020818152604080872093158088529382528087208690559486529081528385209115855252912055565b600054610100900460ff16612d855760405162461bcd60e51b8152600401610a1c90613640565b6033805460ff19169055565b600054610100900460ff16612db85760405162461bcd60e51b8152600401610a1c90613640565b6112073361293a565b6000612dcd858461228f565b158015612ddf5750612ddf858561228f565b15612e3f57600084815260018601602090815260408083208515158452909152902054612e0e86868686612d29565b612e1a86858386612d29565b6001866000016000828254612e2f91906135ba565b9091555060019250612ccb915050565b506000949350505050565b828054828255906000526020600020908101928215612e85579160200282015b82811115612e85578251825591602001919060010190612e6a565b50612e91929150612ed5565b5090565b828054828255906000526020600020908101928215612e85579160200282015b82811115612e85578251829060ff16905591602001919060010190612eb5565b5b80821115612e915760008155600101612ed6565b600060208284031215612efc57600080fd5b5035919050565b6001600160a01b0381168114611d2f57600080fd5b600060208284031215612f2a57600080fd5b8135611f8381612f03565b600081518084526020808501945080840160005b83811015612f6557815187529582019590820190600101612f49565b509495945050505050565b604081526000612f836040830185612f35565b8281036020840152612f958185612f35565b95945050505050565b60008060408385031215612fb157600080fd5b50508035926020909101359150565b60008083601f840112612fd257600080fd5b50813567ffffffffffffffff811115612fea57600080fd5b6020830191508360208260051b850101111561300557600080fd5b9250929050565b6000806000806040858703121561302257600080fd5b843567ffffffffffffffff8082111561303a57600080fd5b61304688838901612fc0565b9096509450602087013591508082111561305f57600080fd5b5061306c87828801612fc0565b95989497509550505050565b6000806040838503121561308b57600080fd5b823561309681612f03565b946020939093013593505050565b634e487b7160e01b600052604160045260246000fd5b60405160a0810167ffffffffffffffff811182821017156130dd576130dd6130a4565b60405290565b604051601f8201601f1916810167ffffffffffffffff8111828210171561310c5761310c6130a4565b604052919050565b6000602080838503121561312757600080fd5b823567ffffffffffffffff8082111561313f57600080fd5b818501915085601f83011261315357600080fd5b813581811115613165576131656130a4565b8060051b91506131768483016130e3565b818152918301840191848101908884111561319057600080fd5b938501935b838510156131ae57843582529385019390850190613195565b98975050505050505050565b6000806000606084860312156131cf57600080fd5b83356131da81612f03565b95602085013595506040909401359392505050565b6020808252825182820181905260009190848201906040850190845b818110156132305783516001600160a01b03168352928401929184019160010161320b565b50909695505050505050565b6000806040838503121561324f57600080fd5b82359150602083013561326181612f03565b809150509250929050565b60008060006060848603121561328157600080fd5b833561328c81612f03565b9250602084013561329c81612f03565b929592945050506040919091013590565b600080600080608085870312156132c357600080fd5b84356132ce81612f03565b935060208501356132de81612f03565b925060408501356132ee81612f03565b915060608501356132fe81612f03565b939692955090935050565b634e487b7160e01b600052603260045260246000fd5b634e487b7160e01b600052601160045260246000fd5b60006000198214156133495761334961331f565b5060010190565b60006020828403121561336257600080fd5b5051919050565b60006080828403121561337b57600080fd5b6040516080810181811067ffffffffffffffff8211171561339e5761339e6130a4565b60405282516133ac81612f03565b808252506020830151602082015260408301516040820152606083015160608201528091505092915050565b600082601f8301126133e957600080fd5b815167ffffffffffffffff811115613403576134036130a4565b6020613417601f8301601f191682016130e3565b828152858284870101111561342b57600080fd5b60005b8381101561344957858101830151828201840152820161342e565b8381111561345a5760008385840101525b5095945050505050565b60006020828403121561347657600080fd5b815167ffffffffffffffff8082111561348e57600080fd5b9083019060a082860312156134a257600080fd5b6134aa6130ba565b8251828111156134b957600080fd5b6134c5878286016133d8565b8252506020830151828111156134da57600080fd5b6134e6878286016133d8565b6020830152506040830151828111156134fe57600080fd5b61350a878286016133d8565b604083015250606083015160608201526080830151608082015280935050505092915050565b60008060006060848603121561354557600080fd5b8351925060208401519150604084015190509250925092565b6020808252600990820152684f4e4c595f4e4f444560b81b604082015260600190565b60006020828403121561359357600080fd5b81518015158114611f8357600080fd5b6000828210156135b5576135b561331f565b500390565b600082198211156135cd576135cd61331f565b500190565b6000816135e1576135e161331f565b506000190190565b634e487b7160e01b600052603160045260246000fd5b60008160001904831182151516156136195761361961331f565b500290565b60008261363b57634e487b7160e01b600052601260045260246000fd5b500490565b6020808252602b908201527f496e697469616c697a61626c653a20636f6e7472616374206973206e6f74206960408201526a6e697469616c697a696e6760a81b60608201526080019056fea2646970667358221220c9f874dcbbf6e5013e27480b539dd5113ee110c1196c0ff03d75538612a62db264736f6c634300080b0033",
  "linkReferences": {},
  "deployedLinkReferences": {}
}