{
  "_format": "hh-sol-artifact-1",
  "contractName": "BIBStaking",
  "sourceName": "contracts/community/BIBStaking.sol",
  "abi": [
    {
      "anonymous": false,
      "inputs": [
        {
          "indexed": false,
          "internalType": "uint8",
          "name": "version",
          "type": "uint8"
        }
      ],
      "name": "Initialized",
      "type": "event"
    },
    {
      "anonymous": false,
      "inputs": [
        {
          "indexed": true,
          "internalType": "address",
          "name": "previousOwner",
          "type": "address"
        },
        {
          "indexed": true,
          "internalType": "address",
          "name": "newOwner",
          "type": "address"
        }
      ],
      "name": "OwnershipTransferred",
      "type": "event"
    },
    {
      "anonymous": false,
      "inputs": [
        {
          "indexed": false,
          "internalType": "address",
          "name": "account",
          "type": "address"
        }
      ],
      "name": "Paused",
      "type": "event"
    },
    {
      "anonymous": false,
      "inputs": [
        {
          "indexed": false,
          "internalType": "uint256",
          "name": "iterations",
          "type": "uint256"
        },
        {
          "indexed": false,
          "internalType": "uint256",
          "name": "claims",
          "type": "uint256"
        },
        {
          "indexed": false,
          "internalType": "uint256",
          "name": "lastProcessedIndex",
          "type": "uint256"
        },
        {
          "indexed": true,
          "internalType": "bool",
          "name": "automatic",
          "type": "bool"
        },
        {
          "indexed": false,
          "internalType": "uint256",
          "name": "gas",
          "type": "uint256"
        },
        {
          "indexed": true,
          "internalType": "address",
          "name": "processor",
          "type": "address"
        }
      ],
      "name": "ProcessedDividendTracker",
      "type": "event"
    },
    {
      "anonymous": false,
      "inputs": [
        {
          "indexed": true,
          "internalType": "address",
          "name": "user",
          "type": "address"
        },
        {
          "indexed": true,
          "internalType": "uint256",
          "name": "ticketId",
          "type": "uint256"
        },
        {
          "indexed": false,
          "internalType": "uint256",
          "name": "bibAmount",
          "type": "uint256"
        }
      ],
      "name": "Staking",
      "type": "event"
    },
    {
      "anonymous": false,
      "inputs": [
        {
          "indexed": false,
          "internalType": "uint256",
          "name": "ticketId",
          "type": "uint256"
        }
      ],
      "name": "SuperNode",
      "type": "event"
    },
    {
      "anonymous": false,
      "inputs": [
        {
          "indexed": true,
          "internalType": "address",
          "name": "user",
          "type": "address"
        },
        {
          "indexed": true,
          "internalType": "uint256",
          "name": "ticketId",
          "type": "uint256"
        },
        {
          "indexed": false,
          "internalType": "uint256",
          "name": "bibAmount",
          "type": "uint256"
        }
      ],
      "name": "UnStaking",
      "type": "event"
    },
    {
      "anonymous": false,
      "inputs": [
        {
          "indexed": false,
          "internalType": "uint256",
          "name": "ticketId",
          "type": "uint256"
        }
      ],
      "name": "UnSuperNode",
      "type": "event"
    },
    {
      "anonymous": false,
      "inputs": [
        {
          "indexed": false,
          "internalType": "address",
          "name": "account",
          "type": "address"
        }
      ],
      "name": "Unpaused",
      "type": "event"
    },
    {
      "anonymous": false,
      "inputs": [
        {
          "indexed": true,
          "internalType": "uint256",
          "name": "level",
          "type": "uint256"
        },
        {
          "indexed": false,
          "internalType": "uint256",
          "name": "newMaxSetUp",
          "type": "uint256"
        }
      ],
      "name": "UpdateMaxSetUp",
      "type": "event"
    },
    {
      "inputs": [],
      "name": "BIBDividend",
      "outputs": [
        {
          "internalType": "contract IBIBDividend",
          "name": "",
          "type": "address"
        }
      ],
      "stateMutability": "view",
      "type": "function"
    },
    {
      "inputs": [],
      "name": "BIBNode",
      "outputs": [
        {
          "internalType": "contract IBIBNode",
          "name": "",
          "type": "address"
        }
      ],
      "stateMutability": "view",
      "type": "function"
    },
    {
      "inputs": [],
      "name": "BIBToken",
      "outputs": [
        {
          "internalType": "contract IERC20Upgradeable",
          "name": "",
          "type": "address"
        }
      ],
      "stateMutability": "view",
      "type": "function"
    },
    {
      "inputs": [
        {
          "internalType": "address",
          "name": "operator",
          "type": "address"
        },
        {
          "internalType": "uint256",
          "name": "_ticket",
          "type": "uint256"
        },
        {
          "internalType": "uint256",
          "name": "_bibAmount",
          "type": "uint256"
        }
      ],
      "name": "createNode",
      "outputs": [],
      "stateMutability": "nonpayable",
      "type": "function"
    },
    {
      "inputs": [
        {
          "internalType": "address",
          "name": "operator",
          "type": "address"
        },
        {
          "internalType": "uint256",
          "name": "_ticket",
          "type": "uint256"
        }
      ],
      "name": "disbandNode",
      "outputs": [],
      "stateMutability": "nonpayable",
      "type": "function"
    },
    {
      "inputs": [],
      "name": "freezeTime",
      "outputs": [
        {
          "internalType": "uint256",
          "name": "",
          "type": "uint256"
        }
      ],
      "stateMutability": "view",
      "type": "function"
    },
    {
      "inputs": [],
      "name": "gasForProcessing",
      "outputs": [
        {
          "internalType": "uint256",
          "name": "",
          "type": "uint256"
        }
      ],
      "stateMutability": "view",
      "type": "function"
    },
    {
      "inputs": [
        {
          "internalType": "address",
          "name": "_account",
          "type": "address"
        }
      ],
      "name": "getAvailableAmount",
      "outputs": [
        {
          "internalType": "uint256",
          "name": "",
          "type": "uint256"
        }
      ],
      "stateMutability": "view",
      "type": "function"
    },
    {
      "inputs": [
        {
          "internalType": "address",
          "name": "_account",
          "type": "address"
        }
      ],
      "name": "getFreezeAmount",
      "outputs": [
        {
          "internalType": "uint256",
          "name": "",
          "type": "uint256"
        }
      ],
      "stateMutability": "view",
      "type": "function"
    },
    {
      "inputs": [
        {
          "internalType": "uint256",
          "name": "_ticketId",
          "type": "uint256"
        }
      ],
      "name": "getNodeCurrentMaxStake",
      "outputs": [
        {
          "internalType": "uint256",
          "name": "",
          "type": "uint256"
        }
      ],
      "stateMutability": "view",
      "type": "function"
    },
    {
      "inputs": [
        {
          "internalType": "uint256",
          "name": "_ticketId",
          "type": "uint256"
        }
      ],
      "name": "getNodeMaxStake",
      "outputs": [
        {
          "internalType": "uint256",
          "name": "",
          "type": "uint256"
        }
      ],
      "stateMutability": "view",
      "type": "function"
    },
    {
      "inputs": [
        {
          "internalType": "uint256",
          "name": "_ticketId",
          "type": "uint256"
        }
      ],
      "name": "getNodeMinStake",
      "outputs": [
        {
          "internalType": "uint256",
          "name": "",
          "type": "uint256"
        }
      ],
      "stateMutability": "view",
      "type": "function"
    },
    {
      "inputs": [
        {
          "internalType": "uint256",
          "name": "_ticket",
          "type": "uint256"
        }
      ],
      "name": "getNodeStakeAmount",
      "outputs": [
        {
          "internalType": "uint256",
          "name": "",
          "type": "uint256"
        }
      ],
      "stateMutability": "view",
      "type": "function"
    },
    {
      "inputs": [
        {
          "internalType": "uint256",
          "name": "_ticket",
          "type": "uint256"
        }
      ],
      "name": "getNodeStakingList",
      "outputs": [
        {
          "internalType": "address[]",
          "name": "",
          "type": "address[]"
        }
      ],
      "stateMutability": "view",
      "type": "function"
    },
    {
      "inputs": [
        {
          "internalType": "address",
          "name": "_account",
          "type": "address"
        }
      ],
      "name": "getUserStakeAmount",
      "outputs": [
        {
          "internalType": "uint256",
          "name": "",
          "type": "uint256"
        }
      ],
      "stateMutability": "view",
      "type": "function"
    },
    {
      "inputs": [
        {
          "internalType": "address",
          "name": "_account",
          "type": "address"
        }
      ],
      "name": "getUserStakeList",
      "outputs": [
        {
          "internalType": "uint256[]",
          "name": "nodeList",
          "type": "uint256[]"
        },
        {
          "internalType": "uint256[]",
          "name": "stakeDetail",
          "type": "uint256[]"
        }
      ],
      "stateMutability": "view",
      "type": "function"
    },
    {
      "inputs": [
        {
          "internalType": "address",
          "name": "_bibToken",
          "type": "address"
        },
        {
          "internalType": "address",
          "name": "_bibNode",
          "type": "address"
        },
        {
          "internalType": "address",
          "name": "_bibDividend",
          "type": "address"
        },
        {
          "internalType": "address",
          "name": "_soccerStarNft",
          "type": "address"
        }
      ],
      "name": "initialize",
      "outputs": [],
      "stateMutability": "nonpayable",
      "type": "function"
    },
    {
      "inputs": [
        {
          "internalType": "uint256",
          "name": "_ticketId",
          "type": "uint256"
        }
      ],
      "name": "isTopNode",
      "outputs": [
        {
          "internalType": "bool",
          "name": "",
          "type": "bool"
        }
      ],
      "stateMutability": "view",
      "type": "function"
    },
    {
      "inputs": [
        {
          "internalType": "uint256",
          "name": "",
          "type": "uint256"
        }
      ],
      "name": "maxSetupAmount",
      "outputs": [
        {
          "internalType": "uint256",
          "name": "",
          "type": "uint256"
        }
      ],
      "stateMutability": "view",
      "type": "function"
    },
    {
      "inputs": [
        {
          "internalType": "uint256",
          "name": "",
          "type": "uint256"
        }
      ],
      "name": "nodeMap",
      "outputs": [
        {
          "internalType": "uint256",
          "name": "stakingAmount",
          "type": "uint256"
        },
        {
          "internalType": "uint256",
          "name": "expireTime",
          "type": "uint256"
        },
        {
          "internalType": "address",
          "name": "owner",
          "type": "address"
        }
      ],
      "stateMutability": "view",
      "type": "function"
    },
    {
      "inputs": [
        {
          "internalType": "uint256",
          "name": "_from",
          "type": "uint256"
        },
        {
          "internalType": "uint256",
          "name": "_to",
          "type": "uint256"
        }
      ],
      "name": "nodeStake",
      "outputs": [
        {
          "internalType": "uint256",
          "name": "",
          "type": "uint256"
        }
      ],
      "stateMutability": "nonpayable",
      "type": "function"
    },
    {
      "inputs": [
        {
          "internalType": "uint256",
          "name": "",
          "type": "uint256"
        },
        {
          "internalType": "address",
          "name": "",
          "type": "address"
        }
      ],
      "name": "nodeStakedDetail",
      "outputs": [
        {
          "internalType": "uint256",
          "name": "",
          "type": "uint256"
        }
      ],
      "stateMutability": "view",
      "type": "function"
    },
    {
      "inputs": [
        {
          "internalType": "uint256",
          "name": "",
          "type": "uint256"
        },
        {
          "internalType": "uint256",
          "name": "",
          "type": "uint256"
        }
      ],
      "name": "nodeStakedUsers",
      "outputs": [
        {
          "internalType": "address",
          "name": "",
          "type": "address"
        }
      ],
      "stateMutability": "view",
      "type": "function"
    },
    {
      "inputs": [
        {
          "internalType": "uint256",
          "name": "_from",
          "type": "uint256"
        },
        {
          "internalType": "uint256",
          "name": "_to",
          "type": "uint256"
        }
      ],
      "name": "nodeUnStake",
      "outputs": [
        {
          "internalType": "uint256",
          "name": "",
          "type": "uint256"
        }
      ],
      "stateMutability": "nonpayable",
      "type": "function"
    },
    {
      "inputs": [
        {
          "internalType": "uint256",
          "name": "",
          "type": "uint256"
        }
      ],
      "name": "nodeWigth",
      "outputs": [
        {
          "internalType": "uint256",
          "name": "",
          "type": "uint256"
        }
      ],
      "stateMutability": "view",
      "type": "function"
    },
    {
      "inputs": [],
      "name": "owner",
      "outputs": [
        {
          "internalType": "address",
          "name": "",
          "type": "address"
        }
      ],
      "stateMutability": "view",
      "type": "function"
    },
    {
      "inputs": [],
      "name": "paused",
      "outputs": [
        {
          "internalType": "bool",
          "name": "",
          "type": "bool"
        }
      ],
      "stateMutability": "view",
      "type": "function"
    },
    {
      "inputs": [],
      "name": "renounceOwnership",
      "outputs": [],
      "stateMutability": "nonpayable",
      "type": "function"
    },
    {
      "inputs": [
        {
          "internalType": "uint256",
          "name": "times",
          "type": "uint256"
        }
      ],
      "name": "setFreezeTime",
      "outputs": [],
      "stateMutability": "nonpayable",
      "type": "function"
    },
    {
      "inputs": [
        {
          "internalType": "uint256",
          "name": "level",
          "type": "uint256"
        },
        {
          "internalType": "uint256",
          "name": "setupAmount",
          "type": "uint256"
        }
      ],
      "name": "setMaxSetupAmount",
      "outputs": [],
      "stateMutability": "nonpayable",
      "type": "function"
    },
    {
      "inputs": [
        {
          "internalType": "uint256[]",
          "name": "_nodeWigth",
          "type": "uint256[]"
        }
      ],
      "name": "setNodeWeight",
      "outputs": [],
      "stateMutability": "nonpayable",
      "type": "function"
    },
    {
      "inputs": [
        {
          "internalType": "address",
          "name": "_soccerStarNft",
          "type": "address"
        }
      ],
      "name": "setSoccerStarNft",
      "outputs": [],
      "stateMutability": "nonpayable",
      "type": "function"
    },
    {
      "inputs": [
        {
          "internalType": "uint256",
          "name": "times",
          "type": "uint256"
        }
      ],
      "name": "setStakeCapTimes",
      "outputs": [],
      "stateMutability": "nonpayable",
      "type": "function"
    },
    {
      "inputs": [
        {
          "internalType": "uint256",
          "name": "c",
          "type": "uint256"
        }
      ],
      "name": "setTopNodeCount",
      "outputs": [],
      "stateMutability": "nonpayable",
      "type": "function"
    },
    {
      "inputs": [],
      "name": "soccerStarNft",
      "outputs": [
        {
          "internalType": "contract ISoccerStarNft",
          "name": "",
          "type": "address"
        }
      ],
      "stateMutability": "view",
      "type": "function"
    },
    {
      "inputs": [],
      "name": "stakeCapTimes",
      "outputs": [
        {
          "internalType": "uint256",
          "name": "",
          "type": "uint256"
        }
      ],
      "stateMutability": "view",
      "type": "function"
    },
    {
      "inputs": [
        {
          "internalType": "address",
          "name": "",
          "type": "address"
        },
        {
          "internalType": "uint256",
          "name": "",
          "type": "uint256"
        }
      ],
      "name": "stakeNodesMap",
      "outputs": [
        {
          "internalType": "uint256",
          "name": "",
          "type": "uint256"
        }
      ],
      "stateMutability": "view",
      "type": "function"
    },
    {
      "inputs": [],
      "name": "topNodeCount",
      "outputs": [
        {
          "internalType": "uint256",
          "name": "",
          "type": "uint256"
        }
      ],
      "stateMutability": "view",
      "type": "function"
    },
    {
      "inputs": [
        {
          "internalType": "address",
          "name": "from",
          "type": "address"
        },
        {
          "internalType": "address",
          "name": "to",
          "type": "address"
        },
        {
          "internalType": "uint256",
          "name": "_ticket",
          "type": "uint256"
        }
      ],
      "name": "transferNodeSetUp",
      "outputs": [],
      "stateMutability": "nonpayable",
      "type": "function"
    },
    {
      "inputs": [
        {
          "internalType": "address",
          "name": "newOwner",
          "type": "address"
        }
      ],
      "name": "transferOwnership",
      "outputs": [],
      "stateMutability": "nonpayable",
      "type": "function"
    },
    {
      "inputs": [
        {
          "internalType": "uint256",
          "name": "newValue",
          "type": "uint256"
        }
      ],
      "name": "updateGasForProcessing",
      "outputs": [],
      "stateMutability": "nonpayable",
      "type": "function"
    },
    {
      "inputs": [
        {
          "internalType": "uint256[]",
          "name": "_tickets",
          "type": "uint256[]"
        },
        {
          "internalType": "uint256[]",
          "name": "_bibAmounts",
          "type": "uint256[]"
        }
      ],
      "name": "updateStake",
      "outputs": [],
      "stateMutability": "nonpayable",
      "type": "function"
    },
    {
      "inputs": [
        {
          "internalType": "address",
          "name": "",
          "type": "address"
        },
        {
          "internalType": "uint256",
          "name": "",
          "type": "uint256"
        }
      ],
      "name": "userFreezeMap",
      "outputs": [
        {
          "internalType": "uint256",
          "name": "amount",
          "type": "uint256"
        },
        {
          "internalType": "uint256",
          "name": "expireTime",
          "type": "uint256"
        }
      ],
      "stateMutability": "view",
      "type": "function"
    }
  ],
  "bytecode": "0x608060405234801561001057600080fd5b5061367d806100206000396000f3fe608060405234801561001057600080fd5b50600436106102695760003560e01c8063871c128d11610151578063a9dcb09b116100c3578063be54aa9a11610087578063be54aa9a146105ce578063e4ca273a146105e1578063e9ab1eb41461060c578063f2fde38b1461061f578063f8c8765e14610632578063fd7e1bee1461064557600080fd5b8063a9dcb09b14610562578063aa5a34bd14610575578063aafc057f14610595578063b55dd98e146105a8578063b78a4a92146105bb57600080fd5b8063953548861161011557806395354886146104ed5780639c1b8af514610500578063a10f2dab14610509578063a2f8de771461051c578063a3d081271461052f578063a537809d1461054f57600080fd5b8063871c128d14610490578063887dd220146104a35780638da5cb5b146104b657806393219680146104c757806395336bae146104da57600080fd5b80633a12dc19116101ea5780636d629dbe116101ae5780636d629dbe146104265780636f1d2f6414610439578063715018a6146104425780637612f53c1461044a5780637d4f6e771461045d578063824430fa1461047057600080fd5b80633a12dc19146103b45780633b533b20146103d757806342d28769146103ea5780635c975abb146103f35780636b9fa445146103fe57600080fd5b80631f3a71ba116102315780631f3a71ba1461030c5780632299d43d1461031f5780632f6e60fb14610332578063333fd8a214610345578063356ff5cd1461035857600080fd5b806305652c801461026e57806307f461d0146102835780630c98a385146102ad57806314cf76c8146102d8578063178fd188146102eb575b600080fd5b61028161027c366004612e86565b61064e565b005b610296610291366004612eb4565b61065b565b6040516102a4929190612f0c565b60405180910390f35b609c546102c0906001600160a01b031681565b6040516001600160a01b0390911681526020016102a4565b609a546102c0906001600160a01b031681565b6102fe6102f9366004612e86565b6107ab565b6040519081526020016102a4565b6102fe61031a366004612eb4565b6107cc565b61028161032d366004612f3a565b610854565b610281610340366004612fa8565b6108ad565b6102fe610353366004613014565b610ba6565b610390610366366004612e86565b60a6602052600090815260409020805460018201546002909201549091906001600160a01b031683565b6040805193845260208401929092526001600160a01b0316908201526060016102a4565b6103c76103c2366004612e86565b610bd7565b60405190151581526020016102a4565b6102fe6103e5366004612f3a565b610c0b565b6102fe609f5481565b60335460ff166103c7565b61041161040c366004613014565b610d74565b604080519283526020830191909152016102a4565b610281610434366004613014565b610db0565b6102fe609e5481565b610281610e70565b6102fe610458366004612eb4565b610e84565b609b546102c0906001600160a01b031681565b6102fe61047e366004612e86565b600090815260a6602052604090205490565b61028161049e366004612e86565b610fb0565b6102fe6104b1366004612f3a565b610ffc565b6065546001600160a01b03166102c0565b6099546102c0906001600160a01b031681565b6102816104e8366004612eb4565b6110a1565b6102816104fb3660046130b0565b6110cb565b6102fe60a75481565b6102c0610517366004612f3a565b61112d565b61028161052a366004613156565b611165565b61054261053d366004612e86565b61134a565b6040516102a4919061318b565b6102fe61055d366004612e86565b6113b6565b6102fe610570366004612e86565b6114cf565b6102fe610583366004612e86565b60a16020526000908152604090205481565b6102816105a3366004612e86565b6114f8565b6102fe6105b6366004612e86565b611505565b6102fe6105c9366004612eb4565b61157d565b6102816105dc366004612e86565b611794565b6102fe6105ef3660046131d8565b60a560209081526000928352604080842090915290825290205481565b61028161061a366004613208565b6117a1565b61028161062d366004612eb4565b611b4b565b610281610640366004613249565b611bc4565b6102fe609d5481565b610656611db1565b609e55565b60608060a26000846001600160a01b03166001600160a01b031681526020019081526020016000208054806020026020016040519081016040528092919081815260200182805480156106cd57602002820191906000526020600020905b8154815260200190600101908083116106b9575b50505050509150815167ffffffffffffffff8111156106ee576106ee613040565b604051908082528060200260200182016040528015610717578160200160208202803683370190505b50905060005b82518110156107a55760a5600084838151811061073c5761073c6132a5565b602002602001015181526020019081526020016000206000856001600160a01b03166001600160a01b0316815260200190815260200160002054828281518110610788576107886132a5565b60209081029190910101528061079d816132d1565b91505061071d565b50915091565b60a081815481106107bb57600080fd5b600091825260209091200154905081565b600061084e6107da8361157d565b609a546040516370a0823160e01b81526001600160a01b038681166004830152909116906370a0823190602401602060405180830381865afa158015610824573d6000803e3d6000fd5b505050506040513d601f19601f8201168201806040525081019061084891906132ec565b90611e0b565b92915050565b61085c611db1565b600082815260a16020526040908190208290555182907f8a6cdf838d1eb4be6812cb55a4c0b92fc14f098944cec72ad3158ed986101dcf906108a19084815260200190565b60405180910390a25050565b8281146108f05760405162461bcd60e51b815260206004820152600c60248201526b496e76616c6964206172677360a01b60448201526064015b60405180910390fd5b3360006108fc826107cc565b905060005b85811015610ac557600060a56000898985818110610921576109216132a5565b9050602002013581526020019081526020016000206000856001600160a01b03166001600160a01b031681526020019081526020016000205490508086868481811061096f5761096f6132a5565b9050602002013514156109825750610ab3565b80868684818110610995576109956132a5565b905060200201351115610a425760006109cf828888868181106109ba576109ba6132a5565b90506020020135611e0b90919063ffffffff16565b905080841015610a185760405162461bcd60e51b8152602060048201526014602482015273496e73756666696369656e742062616c616e636560601b60448201526064016108e7565b610a3b858a8a86818110610a2e57610a2e6132a5565b9050602002013583611e1e565b5050610ab1565b80868684818110610a5557610a556132a5565b905060200201351015610ab157610aaf84898985818110610a7857610a786132a5565b90506020020135610aaa898987818110610a9457610a946132a5565b9050602002013585611e0b90919063ffffffff16565b61201b565b505b505b80610abd816132d1565b915050610901565b50610acf82612246565b609b5460a7546040516001624d3b8760e01b031981526001600160a01b039092169163ffb2c47991610b079160040190815260200190565b6060604051808303816000875af1925050508015610b42575060408051601f3d908101601f19168201909252610b3f91810190613305565b60015b610b4b57610b9e565b60a754604080518581526020810185905280820184905260608101929092525132916001917fc864333d6121033635ab41b29ae52f10a22cf4438c3e4f1c4c68518feb2f8a989181900360800190a35050505b505050505050565b60a26020528160005260406000208181548110610bc257600080fd5b90600052602060002001600091509150505481565b6000609f54610be560975490565b1015610bf357506001919050565b6000610c0060978461233d565b609f54119392505050565b6099546000906001600160a01b03163314610c385760405162461bcd60e51b81526004016108e790613333565b600083815260a660209081526040918290205491518581527fb6c736c794c1532c9da42ce0da65d14c9eb97d61760ceb2ebca32f24a4e042d1910160405180910390a1610c8483610bd7565b15610cfe57600084815260a66020526040902060020154610cd8906001600160a01b0316610cb38360016123b6565b8660a0600181548110610cc857610cc86132a5565b90600052602060002001546123f3565b6040518481526000805160206136288339815191529060200160405180910390a1610d5f565b600084815260a66020526040902060020154610d3d906001600160a01b0316610d288360036123b6565b8660a0600381548110610cc857610cc86132a5565b6040518481526000805160206136288339815191529060200160405180910390a15b505050600090815260a6602052604090205490565b60a36020528160005260406000208181548110610d9057600080fd5b600091825260209091206002909102018054600190910154909250905082565b6099546001600160a01b03163314610dda5760405162461bcd60e51b81526004016108e790613333565b600081815260a660205260409020610dfb609d54610df54290565b9061246d565b600182015560008155609b546040516336b14edf60e11b81526001600160a01b0385811660048301526024820185905290911690636d629dbe906044015b600060405180830381600087803b158015610e5357600080fd5b505af1158015610e67573d6000803e3d6000fd5b50505050505050565b610e78611db1565b610e826000612479565b565b6001600160a01b038116600090815260a26020908152604080832080548251818502810185019093528083528493830182828015610ee157602002820191906000526020600020905b815481526020019060010190808311610ecd575b50505050509050600080600090505b8251811015610fa85760a66000848381518110610f0f57610f0f6132a5565b602002602001015181526020019081526020016000206001015460001415610f9657610f9360a56000858481518110610f4a57610f4a6132a5565b602002602001015181526020019081526020016000206000876001600160a01b03166001600160a01b03168152602001908152602001600020548361246d90919063ffffffff16565b91505b80610fa0816132d1565b915050610ef0565b509392505050565b610fb8611db1565b60a754811415610ff75760405162461bcd60e51b815260206004820152600a60248201526953616d652076616c756560b01b60448201526064016108e7565b60a755565b6099546000906001600160a01b031633146110295760405162461bcd60e51b81526004016108e790613333565b600083815260a6602052604090206002810154905461106c916001600160a01b0316906110579060016123b6565b8560a0600181548110610cc857610cc86132a5565b6040518381526000805160206136288339815191529060200160405180910390a15050600090815260a6602052604090205490565b6110a9611db1565b609c80546001600160a01b0319166001600160a01b0392909216919091179055565b6110d3611db1565b6004815110156111165760405162461bcd60e51b815260206004820152600e60248201526d496e76616c696420636f6e66696760901b60448201526064016108e7565b80516111299060a0906020840190612de6565b5050565b60a4602052816000526040600020818154811061114957600080fd5b6000918252602090912001546001600160a01b03169150829050565b6099546001600160a01b0316331461118f5760405162461bcd60e51b81526004016108e790613333565b600082815260a6602052604090208054156111dc5760405162461bcd60e51b815260206004820152600d60248201526c139bd919481a5cc8195e1a5cdd609a1b60448201526064016108e7565b816111e6856107cc565b101561122b5760405162461bcd60e51b8152602060048201526014602482015273496e73756666696369656e742062616c616e636560601b60448201526064016108e7565b8181556002810180546001600160a01b0386166001600160a01b03199182168117909255600085815260a460209081526040808320805460018181018355918552838520018054909516861790945584835260a2825280832080549485018155835281832090930187905586825260a581528282208483529052819020849055518491907fa7cce4e8ff59a515dccbee3a6382e94deb1db79bdb43cf35a51251d41ea395f0906112de9086815260200190565b60405180910390a36112ef836124cb565b80546112fa846113b6565b10156113395760405162461bcd60e51b815260206004820152600e60248201526d131a5b5a5d08195e18d95959195960921b60448201526064016108e7565b61134484848461276b565b50505050565b600081815260a460209081526040918290208054835181840281018401909452808452606093928301828280156113aa57602002820191906000526020600020905b81546001600160a01b0316815260019091019060200180831161138c575b50505050509050919050565b60995460405163356ff5cd60e01b81526004810183905260009182916001600160a01b039091169063356ff5cd90602401608060405180830381865afa158015611404573d6000803e3d6000fd5b505050506040513d601f19601f820116820180604052508101906114289190613356565b60200151609c546040516301ff8f7360e41b8152600481018390529192506000916001600160a01b0390911690631ff8f73090602401600060405180830381865afa15801561147b573d6000803e3d6000fd5b505050506040513d6000823e601f3d908101601f191682016040526114a39190810190613451565b609e546060820151600090815260a160205260409020549192506114c791906127ab565b949350505050565b600061084e609e5460016114e3919061351d565b600084815260a66020526040902054906127b7565b611500611db1565b609d55565b600080611511836113b6565b600084815260a6602090815260408083206002015460a583528184206001600160a01b039091168085529252822054609e5493945090929091906115619061155a90600161351d565b83906127ab565b9050808411156115715780611573565b835b9695505050505050565b6001600160a01b038116600090815260a260209081526040808320805482518185028101850190935280835284938301828280156115da57602002820191906000526020600020905b8154815260200190600101908083116115c6575b50505050509050600080600090505b82518110156116925760a66000848381518110611608576116086132a5565b60200260200101518152602001908152602001600020600101546000148061165f57504260a66000858481518110611642576116426132a5565b602002602001015181526020019081526020016000206001015410155b156116805761167d60a56000858481518110610f4a57610f4a6132a5565b91505b8061168a816132d1565b9150506115e9565b506001600160a01b038416600090815260a36020908152604080832080548251818502810185019093528083529192909190849084015b8282101561170f578382906000526020600020906002020160405180604001604052908160008201548152602001600182015481525050815260200190600101906116c9565b50505050905060005b815181101561178a5742828281518110611734576117346132a5565b602002602001015160200151106117785761177582828151811061175a5761175a6132a5565b6020026020010151600001518461246d90919063ffffffff16565b92505b80611782816132d1565b915050611718565b5090949350505050565b61179c611db1565b609f55565b6099546001600160a01b031633146117cb5760405162461bcd60e51b81526004016108e790613333565b600081815260a66020526040902060995460405163356ff5cd60e01b8152600481018490526000916001600160a01b03169063356ff5cd90602401608060405180830381865afa158015611823573d6000803e3d6000fd5b505050506040513d601f19601f820116820180604052508101906118479190613356565b60200151609c546040516301ff8f7360e41b8152600481018390529192506000916001600160a01b0390911690631ff8f73090602401600060405180830381865afa15801561189a573d6000803e3d6000fd5b505050506040513d6000823e601f3d908101601f191682016040526118c29190810190613451565b6060810151600090815260a1602090815260408083205488845260a583528184206001600160a01b038c16855290925282205492935091908183106119075781611909565b825b6002870180546001600160a01b0319166001600160a01b038b16908117909155600089815260a560209081526040808320938352929052205490915061199f57600087815260a4602090815260408083208054600180820183559185528385200180546001600160a01b0319166001600160a01b038e16908117909155845260a283529083208054918201815583529120018790555b600087815260a5602090815260408083206001600160a01b038c1684529091529020546119cc908261246d565b600088815260a5602090815260408083206001600160a01b038d811685529252808320939093558b1681522054811415611a0f57611a0a89886127c3565b611a60565b600087815260a5602090815260408083206001600160a01b038d168452909152902054611a3c9082611e0b565b600088815260a5602090815260408083206001600160a01b038e1684529091529020555b609a546040516323b872dd60e01b81526001600160a01b038b811660048301528a8116602483015260448201849052909116906323b872dd906064016020604051808303816000875af1158015611abb573d6000803e3d6000fd5b505050506040513d601f19601f82011682018060405250810190611adf9190613535565b50600087815260a5602090815260408083206001600160a01b038d168452909152902054611b10908a90899061276b565b600087815260a5602090815260408083206001600160a01b038c168452909152902054611b40908990899061276b565b505050505050505050565b611b53611db1565b6001600160a01b038116611bb85760405162461bcd60e51b815260206004820152602660248201527f4f776e61626c653a206e6577206f776e657220697320746865207a65726f206160448201526564647265737360d01b60648201526084016108e7565b611bc181612479565b50565b600054600190610100900460ff16158015611be6575060005460ff8083169116105b611c495760405162461bcd60e51b815260206004820152602e60248201527f496e697469616c697a61626c653a20636f6e747261637420697320616c72656160448201526d191e481a5b9a5d1a585b1a5e995960921b60648201526084016108e7565b6000805461ffff191660ff831617610100179055609a80546001600160a01b038088166001600160a01b03199283161790925560998054878416908316179055609b8054868416908316179055609c805492851692909116919091179055611caf6129b9565b611cb76129e8565b60a16020908152692a5a058fc295ed0000007f82810f81d5d6068ad5b62b5073b1161d037affd3559d84ef47a831e06ad04e8655600460008190526a01a784379d99db420000007f452a9a645b43619dc9681d051339fd2836f59d845037283e59145a406fad0d005562093a80609d556032609e55601e609f556040805160808101825260648152605a9381019390935260509083015260486060830152611d619160a091612e31565b50620493e060a7556000805461ff001916905560405160ff821681527f7f26b83ff96e1f2b6a682f133852f6798a09c465da95921460cefb38474024989060200160405180910390a15050505050565b6065546001600160a01b03163314610e825760405162461bcd60e51b815260206004820181905260248201527f4f776e61626c653a2063616c6c6572206973206e6f7420746865206f776e657260448201526064016108e7565b6000611e178284613557565b9392505050565b600082815260a660205260408120600181015415611e6f5760405162461bcd60e51b815260206004820152600e60248201526d139bd919481b9bdd08195e1a5cdd60921b60448201526064016108e7565b600084815260a5602090815260408083206001600160a01b0389168452909152902054611eec57600084815260a4602090815260408083208054600180820183559185528385200180546001600160a01b0319166001600160a01b038b16908117909155845260a283529083208054918201815583529120018490555b600084815260a5602090815260408083206001600160a01b0389168452909152902054611f19908461246d565b600085815260a5602090815260408083206001600160a01b038a1684529091529020558054611f48908461246d565b808255611f5485611505565b1015611f935760405162461bcd60e51b815260206004820152600e60248201526d131a5b5a5d08195e18d95959195960921b60448201526064016108e7565b83856001600160a01b03167fa7cce4e8ff59a515dccbee3a6382e94deb1db79bdb43cf35a51251d41ea395f085604051611fcf91815260200190565b60405180910390a3611fe0846124cb565b600084815260a5602090815260408083206001600160a01b0389168452909152902054612010908690869061276b565b506001949350505050565b600082815260a66020908152604080832060a583528184206001600160a01b03881685529092528220548061205557600192505050611e17565b8381101561209a5760405162461bcd60e51b8152602060048201526012602482015271496e73756666696369656e74207374616b6560701b60448201526064016108e7565b60028201546001600160a01b0387811691161415612105576120bc8185611e0b565b6120c5866114cf565b11156121055760405162461bcd60e51b815260206004820152600f60248201526e135a5b881cd95d1d5c081b1a5b5a5d608a1b60448201526064016108e7565b81546121119085611e0b565b82558084141561212a5761212586866127c3565b612158565b6121348185611e0b565b600086815260a5602090815260408083206001600160a01b038b1684529091529020555b60a36000876001600160a01b03166001600160a01b03168152602001908152602001600020604051806040016040528086815260200161219b609d54610df54290565b9052815460018082018455600093845260209384902083516002909302019182559183015191015560405185815286916001600160a01b038916917fc7c828c532c03d3105bb4d86d724a0b9aae548a0fb733a5eaee9fea00959c5e5910160405180910390a361220a856124cb565b600085815260a5602090815260408083206001600160a01b038a16845290915290205461223a908790879061276b565b50600195945050505050565b6001600160a01b038116600090815260a36020526040902080545b801561233857806122718161356e565b91505061227b4290565b82828154811061228d5761228d6132a5565b906000526020600020906002020160010154101561233357815482906122b590600190613557565b815481106122c5576122c56132a5565b90600052602060002090600202018282815481106122e5576122e56132a5565b600091825260209091208254600290920201908155600191820154910155815482908061231457612314613585565b6000828152602081206002600019909301928302018181556001015590555b612261565b505050565b6000612347835490565b6123535750600061084e565b60006123628460006001612a17565b9150505b80158015906123785750828114600114155b156123af5781612387816132d1565b6000928352600180870160209081526040808620928652919052909220549192506123669050565b5092915050565b6000611e1760646123ed60a085815481106123d3576123d36132a5565b9060005260206000200154866127ab90919063ffffffff16565b906127b7565b609b5460405163dfb2147760e01b81526001600160a01b0386811660048301526024820186905260448201859052606482018490529091169063dfb2147790608401600060405180830381600087803b15801561244f57600080fd5b505af1158015612463573d6000803e3d6000fd5b5050505050505050565b6000611e17828461351d565b606580546001600160a01b038381166001600160a01b0319831681179093556040519116919082907f8be0079c531659141344cd1fd0a4f28419497f9722a3daafe3b4186f6b6457e090600090a35050565b60006124d860978361233d565b6124e390600161351d565b90506124f0609783612a5e565b50600082815260a660205260408120549061250d60973084612af8565b905061251b60978286612bc3565b50600084815260a660205260408120600201546001600160a01b03169061254360978761233d565b61254e90600161351d565b9050609f54811115806125655750609f5460975411155b156125c65761258e826125798660006123b6565b8860a0600081548110610cc857610cc86132a5565b6040518681527fb6c736c794c1532c9da42ce0da65d14c9eb97d61760ceb2ebca32f24a4e042d19060200160405180910390a1612616565b609f54811115612616576125f4826125df8660026123b6565b8860a0600281548110610cc857610cc86132a5565b6040518681526000805160206136288339815191529060200160405180910390a15b609f5485111580156126295750609f5481115b156126ca57600061264a6001609f546126429190613557565b609790612bd2565b600081815260a66020526040812060028101549054929350612691926001600160a01b039091169161267c91906123b6565b8360a0600081548110610cc857610cc86132a5565b6040518181527fb6c736c794c1532c9da42ce0da65d14c9eb97d61760ceb2ebca32f24a4e042d19060200160405180910390a150610b9e565b609f54851180156126dd5750609f548111155b15610b9e5760006126fa609f546097612bd290919063ffffffff16565b600081815260a6602052604090206002808201549154929350612741926001600160a01b039092169161272c916123b6565b8360a0600281548110610cc857610cc86132a5565b6040518181526000805160206136288339815191529060200160405180910390a150505050505050565b609b546040516304a8d8b560e01b81526001600160a01b0385811660048301526024820185905260448201849052909116906304a8d8b590606401610e39565b6000611e17828461359b565b6000611e1782846135ba565b600081815260a46020526040902080545b80156128d857806127e48161356e565b915050836001600160a01b0316828281548110612803576128036132a5565b6000918252602090912001546001600160a01b031614156128d3578154829061282e90600190613557565b8154811061283e5761283e6132a5565b9060005260206000200160009054906101000a90046001600160a01b031682828154811061286e5761286e6132a5565b9060005260206000200160006101000a8154816001600160a01b0302191690836001600160a01b03160217905550818054806128ac576128ac613585565b600082815260209020810160001990810180546001600160a01b03191690550190556128d8565b6127d4565b600083815260a5602090815260408083206001600160a01b0388168452825280832083905560a2909152902080545b8015610b9e57806129178161356e565b9150508482828154811061292d5761292d6132a5565b906000526020600020015414156129b4578154829061294e90600190613557565b8154811061295e5761295e6132a5565b906000526020600020015482828154811061297b5761297b6132a5565b90600052602060002001819055508180548061299957612999613585565b60019003818190600052602060002001600090559055610b9e565b612907565b600054610100900460ff166129e05760405162461bcd60e51b81526004016108e7906135dc565b610e82612c41565b600054610100900460ff16612a0f5760405162461bcd60e51b81526004016108e7906135dc565b610e82612c74565b600080612a248585612ca4565b612a3357506000905080612a56565b505060008281526001848101602090815260408084208515158552909152909120545b935093915050565b6000811580612a745750612a728383612ca4565b155b15612a815750600061084e565b600082815260018481016020908152604080842084805290915280832054828452922054612ab3928692909190612d28565b60008281526001848101602090815260408084208480529091528083208390558183528220829055845490918591612aec908490613557565b90915550919392505050565b6000612b02845490565b612b0e57506000611e17565b6000612b1d8560006001612a17565b9150505b8015801590612b9c5750604051634122187d60e11b8152600481018290526001906001600160a01b0386169063824430fa90602401602060405180830381865afa158015612b73573d6000803e3d6000fd5b505050506040513d601f19601f82011682018060405250810190612b9791906132ec565b841014155b156114c7576000908152600180860160209081526040808420928452919052902054612b21565b60006114c78484846001612d5d565b6000612bdc835490565b612be85750600061084e565b6000612bf78460006001612a17565b9150505b8015801590612c0a5750600083115b15611e175782612c198161356e565b600092835260018087016020908152604080862092865291905290922054919350612bfb9050565b600054610100900460ff16612c685760405162461bcd60e51b81526004016108e7906135dc565b6033805460ff19169055565b600054610100900460ff16612c9b5760405162461bcd60e51b81526004016108e7906135dc565b610e8233612479565b60008181526001830160209081526040808320838052909152812054158015612ce757506000828152600180850160209081526040808420928452919052902054155b15612d20576000808052600180850160209081526040808420928452919052902054821415612d185750600161084e565b50600061084e565b50600161084e565b600082815260019094016020818152604080872093158088529382528087208690559486529081528385209115855252912055565b6000612d698584612ca4565b158015612d7b5750612d7b8585612ca4565b15612ddb57600084815260018601602090815260408083208515158452909152902054612daa86868686612d28565b612db686858386612d28565b6001866000016000828254612dcb919061351d565b90915550600192506114c7915050565b506000949350505050565b828054828255906000526020600020908101928215612e21579160200282015b82811115612e21578251825591602001919060010190612e06565b50612e2d929150612e71565b5090565b828054828255906000526020600020908101928215612e21579160200282015b82811115612e21578251829060ff16905591602001919060010190612e51565b5b80821115612e2d5760008155600101612e72565b600060208284031215612e9857600080fd5b5035919050565b6001600160a01b0381168114611bc157600080fd5b600060208284031215612ec657600080fd5b8135611e1781612e9f565b600081518084526020808501945080840160005b83811015612f0157815187529582019590820190600101612ee5565b509495945050505050565b604081526000612f1f6040830185612ed1565b8281036020840152612f318185612ed1565b95945050505050565b60008060408385031215612f4d57600080fd5b50508035926020909101359150565b60008083601f840112612f6e57600080fd5b50813567ffffffffffffffff811115612f8657600080fd5b6020830191508360208260051b8501011115612fa157600080fd5b9250929050565b60008060008060408587031215612fbe57600080fd5b843567ffffffffffffffff80821115612fd657600080fd5b612fe288838901612f5c565b90965094506020870135915080821115612ffb57600080fd5b5061300887828801612f5c565b95989497509550505050565b6000806040838503121561302757600080fd5b823561303281612e9f565b946020939093013593505050565b634e487b7160e01b600052604160045260246000fd5b60405160a0810167ffffffffffffffff8111828210171561307957613079613040565b60405290565b604051601f8201601f1916810167ffffffffffffffff811182821017156130a8576130a8613040565b604052919050565b600060208083850312156130c357600080fd5b823567ffffffffffffffff808211156130db57600080fd5b818501915085601f8301126130ef57600080fd5b81358181111561310157613101613040565b8060051b915061311284830161307f565b818152918301840191848101908884111561312c57600080fd5b938501935b8385101561314a57843582529385019390850190613131565b98975050505050505050565b60008060006060848603121561316b57600080fd5b833561317681612e9f565b95602085013595506040909401359392505050565b6020808252825182820181905260009190848201906040850190845b818110156131cc5783516001600160a01b0316835292840192918401916001016131a7565b50909695505050505050565b600080604083850312156131eb57600080fd5b8235915060208301356131fd81612e9f565b809150509250929050565b60008060006060848603121561321d57600080fd5b833561322881612e9f565b9250602084013561323881612e9f565b929592945050506040919091013590565b6000806000806080858703121561325f57600080fd5b843561326a81612e9f565b9350602085013561327a81612e9f565b9250604085013561328a81612e9f565b9150606085013561329a81612e9f565b939692955090935050565b634e487b7160e01b600052603260045260246000fd5b634e487b7160e01b600052601160045260246000fd5b60006000198214156132e5576132e56132bb565b5060010190565b6000602082840312156132fe57600080fd5b5051919050565b60008060006060848603121561331a57600080fd5b8351925060208401519150604084015190509250925092565b6020808252600990820152684f4e4c595f4e4f444560b81b604082015260600190565b60006080828403121561336857600080fd5b6040516080810181811067ffffffffffffffff8211171561338b5761338b613040565b604052825161339981612e9f565b808252506020830151602082015260408301516040820152606083015160608201528091505092915050565b600082601f8301126133d657600080fd5b815167ffffffffffffffff8111156133f0576133f0613040565b6020613404601f8301601f1916820161307f565b828152858284870101111561341857600080fd5b60005b8381101561343657858101830151828201840152820161341b565b838111156134475760008385840101525b5095945050505050565b60006020828403121561346357600080fd5b815167ffffffffffffffff8082111561347b57600080fd5b9083019060a0828603121561348f57600080fd5b613497613056565b8251828111156134a657600080fd5b6134b2878286016133c5565b8252506020830151828111156134c757600080fd5b6134d3878286016133c5565b6020830152506040830151828111156134eb57600080fd5b6134f7878286016133c5565b604083015250606083015160608201526080830151608082015280935050505092915050565b60008219821115613530576135306132bb565b500190565b60006020828403121561354757600080fd5b81518015158114611e1757600080fd5b600082821015613569576135696132bb565b500390565b60008161357d5761357d6132bb565b506000190190565b634e487b7160e01b600052603160045260246000fd5b60008160001904831182151516156135b5576135b56132bb565b500290565b6000826135d757634e487b7160e01b600052601260045260246000fd5b500490565b6020808252602b908201527f496e697469616c697a61626c653a20636f6e7472616374206973206e6f74206960408201526a6e697469616c697a696e6760a81b60608201526080019056fe118869071cb652a628d27af83fd5e44c01eea1aea7c78b23f6cdbfb10f2bb3d8a264697066735822122031c6dff74214bd584b66f48af5bd56687f8a447fce232fe6e0ecc3d369edf77a64736f6c634300080b0033",
  "linkReferences": {},
  "deployedLinkReferences": {}
}