{
  "_format": "hh-sol-artifact-1",
  "contractName": "FeeCollector",
  "sourceName": "contracts/misc/FeeCollector.sol",
  "abi": [
    {
      "anonymous": false,
      "inputs": [
        {
          "indexed": false,
          "internalType": "address",
          "name": "sender",
          "type": "address"
        },
        {
          "indexed": false,
          "internalType": "address",
          "name": "oldValue",
          "type": "address"
        },
        {
          "indexed": false,
          "internalType": "address",
          "name": "newValue",
          "type": "address"
        }
      ],
      "name": "BIBContractChanged",
      "type": "event"
    },
    {
      "anonymous": false,
      "inputs": [
        {
          "indexed": false,
          "internalType": "address",
          "name": "sender",
          "type": "address"
        },
        {
          "indexed": false,
          "internalType": "address",
          "name": "oldValue",
          "type": "address"
        },
        {
          "indexed": false,
          "internalType": "address",
          "name": "newValue",
          "type": "address"
        }
      ],
      "name": "BUSDContractChanged",
      "type": "event"
    },
    {
      "anonymous": false,
      "inputs": [
        {
          "indexed": false,
          "internalType": "address",
          "name": "sender",
          "type": "address"
        },
        {
          "indexed": false,
          "internalType": "address",
          "name": "receiver",
          "type": "address"
        },
        {
          "indexed": false,
          "internalType": "uint256",
          "name": "amount",
          "type": "uint256"
        }
      ],
      "name": "Distribute",
      "type": "event"
    },
    {
      "anonymous": false,
      "inputs": [
        {
          "indexed": false,
          "internalType": "address",
          "name": "sender",
          "type": "address"
        },
        {
          "indexed": false,
          "internalType": "enum FeeCollector.TokenType",
          "name": "tokenType",
          "type": "uint8"
        },
        {
          "indexed": false,
          "internalType": "uint256",
          "name": "amount",
          "type": "uint256"
        }
      ],
      "name": "HandleCollect",
      "type": "event"
    },
    {
      "anonymous": false,
      "inputs": [
        {
          "indexed": false,
          "internalType": "uint8",
          "name": "version",
          "type": "uint8"
        }
      ],
      "name": "Initialized",
      "type": "event"
    },
    {
      "anonymous": false,
      "inputs": [
        {
          "indexed": true,
          "internalType": "address",
          "name": "previousOwner",
          "type": "address"
        },
        {
          "indexed": true,
          "internalType": "address",
          "name": "newOwner",
          "type": "address"
        }
      ],
      "name": "OwnershipTransferred",
      "type": "event"
    },
    {
      "anonymous": false,
      "inputs": [
        {
          "indexed": false,
          "internalType": "address",
          "name": "account",
          "type": "address"
        }
      ],
      "name": "Paused",
      "type": "event"
    },
    {
      "anonymous": false,
      "inputs": [
        {
          "indexed": false,
          "internalType": "address",
          "name": "sender",
          "type": "address"
        },
        {
          "indexed": false,
          "internalType": "address",
          "name": "oldValue",
          "type": "address"
        },
        {
          "indexed": false,
          "internalType": "address",
          "name": "newValue",
          "type": "address"
        }
      ],
      "name": "RouterContractChanged",
      "type": "event"
    },
    {
      "anonymous": false,
      "inputs": [
        {
          "indexed": false,
          "internalType": "address",
          "name": "account",
          "type": "address"
        }
      ],
      "name": "Unpaused",
      "type": "event"
    },
    {
      "anonymous": false,
      "inputs": [
        {
          "indexed": false,
          "internalType": "address",
          "name": "sender",
          "type": "address"
        },
        {
          "indexed": false,
          "internalType": "address",
          "name": "oldValue",
          "type": "address"
        },
        {
          "indexed": false,
          "internalType": "address",
          "name": "newValue",
          "type": "address"
        }
      ],
      "name": "VaultChanged",
      "type": "event"
    },
    {
      "inputs": [],
      "name": "FEE_RATIO_DIV",
      "outputs": [
        {
          "internalType": "uint256",
          "name": "",
          "type": "uint256"
        }
      ],
      "stateMutability": "view",
      "type": "function"
    },
    {
      "inputs": [],
      "name": "VERSION",
      "outputs": [
        {
          "internalType": "uint256",
          "name": "",
          "type": "uint256"
        }
      ],
      "stateMutability": "view",
      "type": "function"
    },
    {
      "inputs": [
        {
          "internalType": "address",
          "name": "",
          "type": "address"
        }
      ],
      "name": "allowToCall",
      "outputs": [
        {
          "internalType": "bool",
          "name": "",
          "type": "bool"
        }
      ],
      "stateMutability": "view",
      "type": "function"
    },
    {
      "inputs": [],
      "name": "bibToken",
      "outputs": [
        {
          "internalType": "contract IERC20",
          "name": "",
          "type": "address"
        }
      ],
      "stateMutability": "view",
      "type": "function"
    },
    {
      "inputs": [],
      "name": "busdToken",
      "outputs": [
        {
          "internalType": "contract IERC20",
          "name": "",
          "type": "address"
        }
      ],
      "stateMutability": "view",
      "type": "function"
    },
    {
      "inputs": [
        {
          "internalType": "uint256",
          "name": "amount",
          "type": "uint256"
        },
        {
          "internalType": "uint256",
          "name": "feeRatio",
          "type": "uint256"
        }
      ],
      "name": "caculateFees",
      "outputs": [
        {
          "internalType": "uint256",
          "name": "",
          "type": "uint256"
        },
        {
          "internalType": "uint256",
          "name": "",
          "type": "uint256"
        }
      ],
      "stateMutability": "pure",
      "type": "function"
    },
    {
      "inputs": [],
      "name": "distributeFees",
      "outputs": [],
      "stateMutability": "nonpayable",
      "type": "function"
    },
    {
      "inputs": [
        {
          "internalType": "uint256",
          "name": "amount",
          "type": "uint256"
        }
      ],
      "name": "handleCollectBIB",
      "outputs": [],
      "stateMutability": "nonpayable",
      "type": "function"
    },
    {
      "inputs": [
        {
          "internalType": "uint256",
          "name": "amount",
          "type": "uint256"
        }
      ],
      "name": "handleCollectBNB",
      "outputs": [],
      "stateMutability": "payable",
      "type": "function"
    },
    {
      "inputs": [
        {
          "internalType": "uint256",
          "name": "amount",
          "type": "uint256"
        }
      ],
      "name": "handleCollectBUSD",
      "outputs": [],
      "stateMutability": "nonpayable",
      "type": "function"
    },
    {
      "inputs": [
        {
          "internalType": "address",
          "name": "_vault",
          "type": "address"
        },
        {
          "internalType": "address",
          "name": "_bibToken",
          "type": "address"
        },
        {
          "internalType": "address",
          "name": "_busdToken",
          "type": "address"
        },
        {
          "internalType": "address",
          "name": "_stakedReceiver",
          "type": "address"
        },
        {
          "internalType": "address",
          "name": "_kolReceiver",
          "type": "address"
        },
        {
          "internalType": "address",
          "name": "_poolReceiver",
          "type": "address"
        }
      ],
      "name": "initialize",
      "outputs": [],
      "stateMutability": "nonpayable",
      "type": "function"
    },
    {
      "inputs": [
        {
          "internalType": "address",
          "name": "caller",
          "type": "address"
        }
      ],
      "name": "isAllowCall",
      "outputs": [
        {
          "internalType": "bool",
          "name": "",
          "type": "bool"
        }
      ],
      "stateMutability": "view",
      "type": "function"
    },
    {
      "inputs": [],
      "name": "kolRatio",
      "outputs": [
        {
          "internalType": "uint256",
          "name": "",
          "type": "uint256"
        }
      ],
      "stateMutability": "view",
      "type": "function"
    },
    {
      "inputs": [],
      "name": "kolReceiver",
      "outputs": [
        {
          "internalType": "contract IFeeReceiver",
          "name": "",
          "type": "address"
        }
      ],
      "stateMutability": "view",
      "type": "function"
    },
    {
      "inputs": [],
      "name": "minBIBToSwap",
      "outputs": [
        {
          "internalType": "uint256",
          "name": "",
          "type": "uint256"
        }
      ],
      "stateMutability": "view",
      "type": "function"
    },
    {
      "inputs": [],
      "name": "minBNBToSwap",
      "outputs": [
        {
          "internalType": "uint256",
          "name": "",
          "type": "uint256"
        }
      ],
      "stateMutability": "view",
      "type": "function"
    },
    {
      "inputs": [],
      "name": "minBUSDToSwap",
      "outputs": [
        {
          "internalType": "uint256",
          "name": "",
          "type": "uint256"
        }
      ],
      "stateMutability": "view",
      "type": "function"
    },
    {
      "inputs": [],
      "name": "owner",
      "outputs": [
        {
          "internalType": "address",
          "name": "",
          "type": "address"
        }
      ],
      "stateMutability": "view",
      "type": "function"
    },
    {
      "inputs": [],
      "name": "paused",
      "outputs": [
        {
          "internalType": "bool",
          "name": "",
          "type": "bool"
        }
      ],
      "stateMutability": "view",
      "type": "function"
    },
    {
      "inputs": [],
      "name": "poolRatio",
      "outputs": [
        {
          "internalType": "uint256",
          "name": "",
          "type": "uint256"
        }
      ],
      "stateMutability": "view",
      "type": "function"
    },
    {
      "inputs": [],
      "name": "poolReceiver",
      "outputs": [
        {
          "internalType": "contract IFeeReceiver",
          "name": "",
          "type": "address"
        }
      ],
      "stateMutability": "view",
      "type": "function"
    },
    {
      "inputs": [],
      "name": "renounceOwnership",
      "outputs": [],
      "stateMutability": "nonpayable",
      "type": "function"
    },
    {
      "inputs": [
        {
          "internalType": "address",
          "name": "caller",
          "type": "address"
        },
        {
          "internalType": "bool",
          "name": "value",
          "type": "bool"
        }
      ],
      "name": "setAllowToCall",
      "outputs": [],
      "stateMutability": "nonpayable",
      "type": "function"
    },
    {
      "inputs": [
        {
          "internalType": "address",
          "name": "_bibToken",
          "type": "address"
        }
      ],
      "name": "setBIBContract",
      "outputs": [],
      "stateMutability": "nonpayable",
      "type": "function"
    },
    {
      "inputs": [
        {
          "internalType": "address",
          "name": "_busdToken",
          "type": "address"
        }
      ],
      "name": "setBUSDContract",
      "outputs": [],
      "stateMutability": "nonpayable",
      "type": "function"
    },
    {
      "inputs": [
        {
          "internalType": "uint256",
          "name": "_vaultRatio",
          "type": "uint256"
        },
        {
          "internalType": "uint256",
          "name": "_stakedRatio",
          "type": "uint256"
        },
        {
          "internalType": "uint256",
          "name": "_kolRatio",
          "type": "uint256"
        },
        {
          "internalType": "uint256",
          "name": "_poolRatio",
          "type": "uint256"
        }
      ],
      "name": "setDistributeRatio",
      "outputs": [],
      "stateMutability": "nonpayable",
      "type": "function"
    },
    {
      "inputs": [
        {
          "internalType": "address",
          "name": "_stakedReceiver",
          "type": "address"
        },
        {
          "internalType": "address",
          "name": "_kolReceiver",
          "type": "address"
        },
        {
          "internalType": "address",
          "name": "_poolReceiver",
          "type": "address"
        }
      ],
      "name": "setFeeReceiver",
      "outputs": [],
      "stateMutability": "nonpayable",
      "type": "function"
    },
    {
      "inputs": [
        {
          "internalType": "address",
          "name": "_uniswapV2Router",
          "type": "address"
        }
      ],
      "name": "setSwapRouter",
      "outputs": [],
      "stateMutability": "nonpayable",
      "type": "function"
    },
    {
      "inputs": [
        {
          "internalType": "uint256",
          "name": "_minBUSDToSwap",
          "type": "uint256"
        },
        {
          "internalType": "uint256",
          "name": "_minBNBToSwap",
          "type": "uint256"
        },
        {
          "internalType": "uint256",
          "name": "_minBIBToSwap",
          "type": "uint256"
        }
      ],
      "name": "setSwapThreshHold",
      "outputs": [],
      "stateMutability": "nonpayable",
      "type": "function"
    },
    {
      "inputs": [
        {
          "internalType": "address",
          "name": "_vault",
          "type": "address"
        }
      ],
      "name": "setVault",
      "outputs": [],
      "stateMutability": "nonpayable",
      "type": "function"
    },
    {
      "inputs": [],
      "name": "stakedRatio",
      "outputs": [
        {
          "internalType": "uint256",
          "name": "",
          "type": "uint256"
        }
      ],
      "stateMutability": "view",
      "type": "function"
    },
    {
      "inputs": [],
      "name": "stakedReceiver",
      "outputs": [
        {
          "internalType": "contract IFeeReceiver",
          "name": "",
          "type": "address"
        }
      ],
      "stateMutability": "view",
      "type": "function"
    },
    {
      "inputs": [
        {
          "internalType": "address",
          "name": "newOwner",
          "type": "address"
        }
      ],
      "name": "transferOwnership",
      "outputs": [],
      "stateMutability": "nonpayable",
      "type": "function"
    },
    {
      "inputs": [],
      "name": "uniswapV2Router",
      "outputs": [
        {
          "internalType": "contract IUniswapV2Router02",
          "name": "",
          "type": "address"
        }
      ],
      "stateMutability": "view",
      "type": "function"
    },
    {
      "inputs": [],
      "name": "vault",
      "outputs": [
        {
          "internalType": "address",
          "name": "",
          "type": "address"
        }
      ],
      "stateMutability": "view",
      "type": "function"
    },
    {
      "inputs": [],
      "name": "vaultRatio",
      "outputs": [
        {
          "internalType": "uint256",
          "name": "",
          "type": "uint256"
        }
      ],
      "stateMutability": "view",
      "type": "function"
    },
    {
      "stateMutability": "payable",
      "type": "receive"
    }
  ],
  "bytecode": "0x60806040526096609b55610190609c556032609d55610226609e556815af1d78b58c400000609f55671bc16d674ec8000060a055600160a85534801561004457600080fd5b5061208c806100546000396000f3fe6080604052600436106102135760003560e01c80638da5cb5b11610118578063de0e7014116100a0578063f3da46f91161006f578063f3da46f91461060d578063fad288df14610623578063fae27d7f14610643578063fbfa77cf14610659578063ffa1ad741461067957600080fd5b8063de0e701414610597578063e217f674146105b7578063e5239265146105d7578063f2fde38b146105ed57600080fd5b8063b74253e9116100e7578063b74253e9146104fd578063bb57ad2014610536578063c57feec91461054b578063cc2a9a5b14610561578063d8b8bc291461058157600080fd5b80638da5cb5b1461046f57806392895e4e1461048d5780639e6899f3146104ad578063b3e158b6146104dd57600080fd5b806352363da21161019b5780635c975abb1161016a5780635c975abb146103d65780636817031b146103fa578063715018a61461041a578063807432f91461042f578063890967dd1461044f57600080fd5b806352363da2146103605780635241914714610376578063527f1e5e1461039657806359693fc4146103b657600080fd5b806324d51523116101e257806324d51523146102d75780633344f21b146102f7578063340e59a11461030d578063360055d114610320578063412736571461034057600080fd5b80630d4870ba1461021f5780631694505e146102415780631ae029c71461027e5780631f9082d1146102b357600080fd5b3661021a57005b600080fd5b34801561022b57600080fd5b5061023f61023a366004611ba6565b61068e565b005b34801561024d57600080fd5b5060a454610261906001600160a01b031681565b6040516001600160a01b0390911681526020015b60405180910390f35b34801561028a57600080fd5b5061029e610299366004611bdf565b6106c1565b60408051928352602083019190915201610275565b3480156102bf57600080fd5b506102c96103e881565b604051908152602001610275565b3480156102e357600080fd5b5061023f6102f2366004611c01565b6106f4565b34801561030357600080fd5b506102c9609f5481565b61023f61031b366004611c4c565b61073b565b34801561032c57600080fd5b5061023f61033b366004611c65565b610a05565b34801561034c57600080fd5b5061023f61035b366004611c97565b610ad4565b34801561036c57600080fd5b506102c9609e5481565b34801561038257600080fd5b5061023f610391366004611c97565b610b6b565b3480156103a257600080fd5b5060a154610261906001600160a01b031681565b3480156103c257600080fd5b5061023f6103d1366004611cb4565b610c02565b3480156103e257600080fd5b5060655460ff165b6040519015158152602001610275565b34801561040657600080fd5b5061023f610415366004611c97565b610c18565b34801561042657600080fd5b5061023f610caf565b34801561043b57600080fd5b5060a254610261906001600160a01b031681565b34801561045b57600080fd5b5061023f61046a366004611c4c565b610cc3565b34801561047b57600080fd5b506033546001600160a01b0316610261565b34801561049957600080fd5b5060a354610261906001600160a01b031681565b3480156104b957600080fd5b506103ea6104c8366004611c97565b609a6020526000908152604090205460ff1681565b3480156104e957600080fd5b5060a654610261906001600160a01b031681565b34801561050957600080fd5b506103ea610518366004611c97565b6001600160a01b03166000908152609a602052604090205460ff1690565b34801561054257600080fd5b5061023f610faf565b34801561055757600080fd5b506102c960a85481565b34801561056d57600080fd5b5061023f61057c366004611ce0565b61109c565b34801561058d57600080fd5b506102c9609b5481565b3480156105a357600080fd5b5060a754610261906001600160a01b031681565b3480156105c357600080fd5b5061023f6105d2366004611c97565b611227565b3480156105e357600080fd5b506102c9609d5481565b3480156105f957600080fd5b5061023f610608366004611c97565b6112be565b34801561061957600080fd5b506102c960a05481565b34801561062f57600080fd5b5061023f61063e366004611c4c565b611334565b34801561064f57600080fd5b506102c9609c5481565b34801561066557600080fd5b5060a554610261906001600160a01b031681565b34801561068557600080fd5b506102c9600181565b61069661141f565b6001600160a01b03919091166000908152609a60205260409020805460ff1916911515919091179055565b600080806106db6103e86106d58787611479565b90611501565b9050806106e88682611543565b92509250509250929050565b6106fc61141f565b60a180546001600160a01b039485166001600160a01b03199182161790915560a280549385169382169390931790925560a38054919093169116179055565b336000908152609a602052604090205460ff166107735760405162461bcd60e51b815260040161076a90611d62565b60405180910390fd5b7ff835836bcaa4e91cd0879c2b4c3b8e038fa08a57d35b00eb23d4bd20c39e128c336000836040516107a793929190611d87565b60405180910390a147905060a0548110610a0257604080516002808252606082018352600092602083019080368337505060a454604080516315ab88c960e31b815290519394506001600160a01b039091169263ad5c4648925060048083019260209291908290030181865afa158015610825573d6000803e3d6000fd5b505050506040513d601f19601f820116820180604052508101906108499190611dc6565b8160008151811061085c5761085c611de3565b6001600160a01b03928316602091820292909201015260a65482519116908290600190811061088d5761088d611de3565b6001600160a01b03928316602091820292909201015260a6546040516370a0823160e01b815230600482015260009291909116906370a0823190602401602060405180830381865afa1580156108e7573d6000803e3d6000fd5b505050506040513d601f19601f8201168201806040525081019061090b9190611df9565b60a45460405163b6f9de9560e01b81529192506001600160a01b03169063b6f9de9590859061094590600090879030904290600401611e56565b6000604051808303818588803b15801561095e57600080fd5b505af1158015610972573d6000803e3d6000fd5b505060a6546040516370a0823160e01b8152306004820152600094506109f393508592506001600160a01b03909116906370a08231906024015b602060405180830381865afa1580156109c9573d6000803e3d6000fd5b505050506040513d601f19601f820116820180604052508101906109ed9190611df9565b90611543565b90506109fe81611585565b5050505b50565b610a0d61141f565b609b849055609d829055609e819055609c8390556103e8841115610a695760405162461bcd60e51b8152602060048201526013602482015272494e56414c49445f5641554c545f524154494f60681b604482015260640161076a565b6103e8610a8f609c54610a89609e54609d546119a990919063ffffffff16565b906119a9565b11156109fe5760405162461bcd60e51b8152602060048201526014602482015273494e56414c49445f444956454e445f524154494f60601b604482015260640161076a565b610adc61141f565b6001600160a01b038116610b025760405162461bcd60e51b815260040161076a90611e8b565b60a4546040517f2f7abb3b0ac1ff5aeddcb69df541ff5c506bb67b9fa574be4a52087df10ebb3f91610b419133916001600160a01b0316908590611eb4565b60405180910390a160a480546001600160a01b0319166001600160a01b0392909216919091179055565b610b7361141f565b6001600160a01b038116610b995760405162461bcd60e51b815260040161076a90611e8b565b60a7546040517f6aca743edeb4e0ea2946d2ebfd5a2328eca6b0f0250566cf6003c1724aef337791610bd89133916001600160a01b0316908590611eb4565b60405180910390a160a780546001600160a01b0319166001600160a01b0392909216919091179055565b610c0a61141f565b609f9290925560a05560a855565b610c2061141f565b6001600160a01b038116610c465760405162461bcd60e51b815260040161076a90611e8b565b60a5546040517f0afae7df36cbc23ef1010fb452e2802ea043ce6e6556c3afbe3e11b65953c4ab91610c859133916001600160a01b0316908590611eb4565b60405180910390a160a580546001600160a01b0319166001600160a01b0392909216919091179055565b610cb761141f565b610cc16000611a08565b565b336000908152609a602052604090205460ff16610cf25760405162461bcd60e51b815260040161076a90611d62565b7ff835836bcaa4e91cd0879c2b4c3b8e038fa08a57d35b00eb23d4bd20c39e128c33600283604051610d2693929190611d87565b60405180910390a160a7546040516370a0823160e01b81523060048201526001600160a01b03909116906370a0823190602401602060405180830381865afa158015610d76573d6000803e3d6000fd5b505050506040513d601f19601f82011682018060405250810190610d9a9190611df9565b9050609f548110610a0257604080516002808252606082018352600092602083019080368337505060a75482519293506001600160a01b031691839150600090610de657610de6611de3565b6001600160a01b03928316602091820292909201015260a654825191169082906001908110610e1757610e17611de3565b6001600160a01b03928316602091820292909201015260a75460a45460405163095ea7b360e01b815290831660048201526024810185905291169063095ea7b3906044016020604051808303816000875af1158015610e7a573d6000803e3d6000fd5b505050506040513d601f19601f82011682018060405250810190610e9e9190611ed7565b5060a6546040516370a0823160e01b81523060048201526000916001600160a01b0316906370a0823190602401602060405180830381865afa158015610ee8573d6000803e3d6000fd5b505050506040513d601f19601f82011682018060405250810190610f0c9190611df9565b60a454604051635c11d79560e01b81529192506001600160a01b031690635c11d79590610f46908690600090879030904290600401611ef4565b600060405180830381600087803b158015610f6057600080fd5b505af1158015610f74573d6000803e3d6000fd5b505060a6546040516370a0823160e01b8152306004820152600093506109f3925084916001600160a01b0316906370a08231906024016109ac565b610fb761141f565b60a6546040516370a0823160e01b8152306004820152611025916001600160a01b0316906370a0823190602401602060405180830381865afa158015611001573d6000803e3d6000fd5b505050506040513d601f19601f8201168201806040525081019061063e9190611df9565b60a7546040516370a0823160e01b8152306004820152611093916001600160a01b0316906370a0823190602401602060405180830381865afa15801561106f573d6000803e3d6000fd5b505050506040513d601f19601f8201168201806040525081019061046a9190611df9565b610cc14761073b565b600054600190610100900460ff161580156110be575060005460ff8083169116105b6111215760405162461bcd60e51b815260206004820152602e60248201527f496e697469616c697a61626c653a20636f6e747261637420697320616c72656160448201526d191e481a5b9a5d1a585b1a5e995960921b606482015260840161076a565b6000805461ffff191660ff83161761010017905560a580546001600160a01b03808a166001600160a01b03199283161790925560a6805489841690831617905560a7805488841690831617905560a1805487841690831617905560a2805486841690831617905560a38054928516929091169190911790556096609b55610190609c556032609d55610226609e556815af1d78b58c400000609f55671bc16d674ec8000060a055600160a8556111d5611a5a565b6111dd611a89565b6000805461ff001916905560405160ff821681527f7f26b83ff96e1f2b6a682f133852f6798a09c465da95921460cefb38474024989060200160405180910390a150505050505050565b61122f61141f565b6001600160a01b0381166112555760405162461bcd60e51b815260040161076a90611e8b565b60a6546040517f55263a2c34e1ca945ec24e98ab7634dfbdea3867d19adaac6da2ad9381018d39916112949133916001600160a01b0316908590611eb4565b60405180910390a160a680546001600160a01b0319166001600160a01b0392909216919091179055565b6112c661141f565b6001600160a01b03811661132b5760405162461bcd60e51b815260206004820152602660248201527f4f776e61626c653a206e6577206f776e657220697320746865207a65726f206160448201526564647265737360d01b606482015260840161076a565b610a0281611a08565b336000908152609a602052604090205460ff166113635760405162461bcd60e51b815260040161076a90611d62565b7ff835836bcaa4e91cd0879c2b4c3b8e038fa08a57d35b00eb23d4bd20c39e128c3360018360405161139793929190611d87565b60405180910390a160a6546040516370a0823160e01b81523060048201526001600160a01b03909116906370a0823190602401602060405180830381865afa1580156113e7573d6000803e3d6000fd5b505050506040513d601f19601f8201168201806040525081019061140b9190611df9565b905060a8548110610a0257610a0281611585565b6033546001600160a01b03163314610cc15760405162461bcd60e51b815260206004820181905260248201527f4f776e61626c653a2063616c6c6572206973206e6f7420746865206f776e6572604482015260640161076a565b600082611488575060006114fb565b60006114948385611f46565b9050826114a18583611f65565b146114f85760405162461bcd60e51b815260206004820152602160248201527f536166654d6174683a206d756c7469706c69636174696f6e206f766572666c6f6044820152607760f81b606482015260840161076a565b90505b92915050565b60006114f883836040518060400160405280601a81526020017f536166654d6174683a206469766973696f6e206279207a65726f000000000000815250611ab8565b60006114f883836040518060400160405280601e81526020017f536166654d6174683a207375627472616374696f6e206f766572666c6f770000815250611aef565b60008061159483609b546106c1565b60a55491935091506001600160a01b0316156116255760a65460a55460405163a9059cbb60e01b81526001600160a01b0391821660048201526024810185905291169063a9059cbb906044016020604051808303816000875af11580156115ff573d6000803e3d6000fd5b505050506040513d601f19601f820116820180604052508101906116239190611ed7565b505b600061163382609c546106c1565b5060a1549091506001600160a01b03161561176e5760a65460a15460405163a9059cbb60e01b81526001600160a01b0391821660048201526024810184905291169063a9059cbb906044016020604051808303816000875af115801561169d573d6000803e3d6000fd5b505050506040513d601f19601f820116820180604052508101906116c19190611ed7565b5060a154604051631bb5e90960e31b8152600481018390526001600160a01b039091169063ddaf484890602401600060405180830381600087803b15801561170857600080fd5b505af115801561171c573d6000803e3d6000fd5b505060a154604080513381526001600160a01b03909216602083015281018790527fafdc1eb311d58306e249917b5ca0044a827a66f0ec535c334d63372c4055d3649250606001905060405180910390a15b600061177c83609d546106c1565b5060a2549091506001600160a01b0316156118585760a65460a25460405163a9059cbb60e01b81526001600160a01b0391821660048201526024810184905291169063a9059cbb906044016020604051808303816000875af11580156117e6573d6000803e3d6000fd5b505050506040513d601f19601f8201168201806040525081019061180a9190611ed7565b5060a254604080513381526001600160a01b03909216602083015281018690527fafdc1eb311d58306e249917b5ca0044a827a66f0ec535c334d63372c4055d3649060600160405180910390a15b600061186684609e546106c1565b5060a3549091506001600160a01b0316156119a15760a65460a35460405163a9059cbb60e01b81526001600160a01b0391821660048201526024810184905291169063a9059cbb906044016020604051808303816000875af11580156118d0573d6000803e3d6000fd5b505050506040513d601f19601f820116820180604052508101906118f49190611ed7565b5060a354604051631bb5e90960e31b8152600481018390526001600160a01b039091169063ddaf484890602401600060405180830381600087803b15801561193b57600080fd5b505af115801561194f573d6000803e3d6000fd5b505060a354604080513381526001600160a01b03909216602083015281018990527fafdc1eb311d58306e249917b5ca0044a827a66f0ec535c334d63372c4055d3649250606001905060405180910390a15b505050505050565b6000806119b68385611f87565b9050838110156114f85760405162461bcd60e51b815260206004820152601b60248201527f536166654d6174683a206164646974696f6e206f766572666c6f770000000000604482015260640161076a565b603380546001600160a01b038381166001600160a01b0319831681179093556040519116919082907f8be0079c531659141344cd1fd0a4f28419497f9722a3daafe3b4186f6b6457e090600090a35050565b600054610100900460ff16611a815760405162461bcd60e51b815260040161076a90611f9f565b610cc1611b20565b600054610100900460ff16611ab05760405162461bcd60e51b815260040161076a90611f9f565b610cc1611b53565b60008183611ad95760405162461bcd60e51b815260040161076a9190611fea565b506000611ae68486611f65565b95945050505050565b60008184841115611b135760405162461bcd60e51b815260040161076a9190611fea565b506000611ae6848661203f565b600054610100900460ff16611b475760405162461bcd60e51b815260040161076a90611f9f565b6065805460ff19169055565b600054610100900460ff16611b7a5760405162461bcd60e51b815260040161076a90611f9f565b610cc133611a08565b6001600160a01b0381168114610a0257600080fd5b8015158114610a0257600080fd5b60008060408385031215611bb957600080fd5b8235611bc481611b83565b91506020830135611bd481611b98565b809150509250929050565b60008060408385031215611bf257600080fd5b50508035926020909101359150565b600080600060608486031215611c1657600080fd5b8335611c2181611b83565b92506020840135611c3181611b83565b91506040840135611c4181611b83565b809150509250925092565b600060208284031215611c5e57600080fd5b5035919050565b60008060008060808587031215611c7b57600080fd5b5050823594602084013594506040840135936060013592509050565b600060208284031215611ca957600080fd5b81356114f881611b83565b600080600060608486031215611cc957600080fd5b505081359360208301359350604090920135919050565b60008060008060008060c08789031215611cf957600080fd5b8635611d0481611b83565b95506020870135611d1481611b83565b94506040870135611d2481611b83565b93506060870135611d3481611b83565b92506080870135611d4481611b83565b915060a0870135611d5481611b83565b809150509295509295509295565b6020808252600b908201526a27a7262cafa1a0a62622a960a91b604082015260600190565b6001600160a01b03841681526060810160038410611db557634e487b7160e01b600052602160045260246000fd5b602082019390935260400152919050565b600060208284031215611dd857600080fd5b81516114f881611b83565b634e487b7160e01b600052603260045260246000fd5b600060208284031215611e0b57600080fd5b5051919050565b600081518084526020808501945080840160005b83811015611e4b5781516001600160a01b031687529582019590820190600101611e26565b509495945050505050565b848152608060208201526000611e6f6080830186611e12565b6001600160a01b03949094166040830152506060015292915050565b6020808252600f908201526e494e56414c49445f4144445245535360881b604082015260600190565b6001600160a01b0393841681529183166020830152909116604082015260600190565b600060208284031215611ee957600080fd5b81516114f881611b98565b85815284602082015260a060408201526000611f1360a0830186611e12565b6001600160a01b0394909416606083015250608001529392505050565b634e487b7160e01b600052601160045260246000fd5b6000816000190483118215151615611f6057611f60611f30565b500290565b600082611f8257634e487b7160e01b600052601260045260246000fd5b500490565b60008219821115611f9a57611f9a611f30565b500190565b6020808252602b908201527f496e697469616c697a61626c653a20636f6e7472616374206973206e6f74206960408201526a6e697469616c697a696e6760a81b606082015260800190565b600060208083528351808285015260005b8181101561201757858101830151858201604001528201611ffb565b81811115612029576000604083870101525b50601f01601f1916929092016040019392505050565b60008282101561205157612051611f30565b50039056fea2646970667358221220e784e4cba671f8ca964c8c76ee147c013528f172e9d5675bf21c6c17fb95337564736f6c634300080b0033",
  "linkReferences": {},
  "deployedLinkReferences": {}
}