{
  "_format": "hh-sol-artifact-1",
  "contractName": "FeeCollector",
  "sourceName": "contracts/misc/FeeCollector.sol",
  "abi": [
    {
      "anonymous": false,
      "inputs": [
        {
          "indexed": false,
          "internalType": "address",
          "name": "sender",
          "type": "address"
        },
        {
          "indexed": false,
          "internalType": "address",
          "name": "oldValue",
          "type": "address"
        },
        {
          "indexed": false,
          "internalType": "address",
          "name": "newValue",
          "type": "address"
        }
      ],
      "name": "BIBContractChanged",
      "type": "event"
    },
    {
      "anonymous": false,
      "inputs": [
        {
          "indexed": false,
          "internalType": "address",
          "name": "sender",
          "type": "address"
        },
        {
          "indexed": false,
          "internalType": "address",
          "name": "oldValue",
          "type": "address"
        },
        {
          "indexed": false,
          "internalType": "address",
          "name": "newValue",
          "type": "address"
        }
      ],
      "name": "BUSDContractChanged",
      "type": "event"
    },
    {
      "anonymous": false,
      "inputs": [
        {
          "indexed": false,
          "internalType": "address",
          "name": "sender",
          "type": "address"
        },
        {
          "indexed": false,
          "internalType": "address",
          "name": "receiver",
          "type": "address"
        },
        {
          "indexed": false,
          "internalType": "uint256",
          "name": "amount",
          "type": "uint256"
        }
      ],
      "name": "Distribute",
      "type": "event"
    },
    {
      "anonymous": false,
      "inputs": [
        {
          "indexed": false,
          "internalType": "address",
          "name": "sender",
          "type": "address"
        },
        {
          "indexed": false,
          "internalType": "enum FeeCollector.TokenType",
          "name": "tokenType",
          "type": "uint8"
        },
        {
          "indexed": false,
          "internalType": "uint256",
          "name": "amount",
          "type": "uint256"
        }
      ],
      "name": "HandleCollect",
      "type": "event"
    },
    {
      "anonymous": false,
      "inputs": [
        {
          "indexed": false,
          "internalType": "uint8",
          "name": "version",
          "type": "uint8"
        }
      ],
      "name": "Initialized",
      "type": "event"
    },
    {
      "anonymous": false,
      "inputs": [
        {
          "indexed": true,
          "internalType": "address",
          "name": "previousOwner",
          "type": "address"
        },
        {
          "indexed": true,
          "internalType": "address",
          "name": "newOwner",
          "type": "address"
        }
      ],
      "name": "OwnershipTransferred",
      "type": "event"
    },
    {
      "anonymous": false,
      "inputs": [
        {
          "indexed": false,
          "internalType": "address",
          "name": "account",
          "type": "address"
        }
      ],
      "name": "Paused",
      "type": "event"
    },
    {
      "anonymous": false,
      "inputs": [
        {
          "indexed": false,
          "internalType": "address",
          "name": "sender",
          "type": "address"
        },
        {
          "indexed": false,
          "internalType": "address",
          "name": "oldValue",
          "type": "address"
        },
        {
          "indexed": false,
          "internalType": "address",
          "name": "newValue",
          "type": "address"
        }
      ],
      "name": "RouterContractChanged",
      "type": "event"
    },
    {
      "anonymous": false,
      "inputs": [
        {
          "indexed": false,
          "internalType": "address",
          "name": "account",
          "type": "address"
        }
      ],
      "name": "Unpaused",
      "type": "event"
    },
    {
      "anonymous": false,
      "inputs": [
        {
          "indexed": false,
          "internalType": "address",
          "name": "sender",
          "type": "address"
        },
        {
          "indexed": false,
          "internalType": "address",
          "name": "oldValue",
          "type": "address"
        },
        {
          "indexed": false,
          "internalType": "address",
          "name": "newValue",
          "type": "address"
        }
      ],
      "name": "VaultChanged",
      "type": "event"
    },
    {
      "inputs": [],
      "name": "FEE_RATIO_DIV",
      "outputs": [
        {
          "internalType": "uint256",
          "name": "",
          "type": "uint256"
        }
      ],
      "stateMutability": "view",
      "type": "function"
    },
    {
      "inputs": [],
      "name": "VERSION",
      "outputs": [
        {
          "internalType": "uint256",
          "name": "",
          "type": "uint256"
        }
      ],
      "stateMutability": "view",
      "type": "function"
    },
    {
      "inputs": [
        {
          "internalType": "address",
          "name": "",
          "type": "address"
        }
      ],
      "name": "allowToCall",
      "outputs": [
        {
          "internalType": "bool",
          "name": "",
          "type": "bool"
        }
      ],
      "stateMutability": "view",
      "type": "function"
    },
    {
      "inputs": [],
      "name": "bibToken",
      "outputs": [
        {
          "internalType": "contract IERC20",
          "name": "",
          "type": "address"
        }
      ],
      "stateMutability": "view",
      "type": "function"
    },
    {
      "inputs": [],
      "name": "busdToken",
      "outputs": [
        {
          "internalType": "contract IERC20",
          "name": "",
          "type": "address"
        }
      ],
      "stateMutability": "view",
      "type": "function"
    },
    {
      "inputs": [
        {
          "internalType": "uint256",
          "name": "amount",
          "type": "uint256"
        },
        {
          "internalType": "uint256",
          "name": "feeRatio",
          "type": "uint256"
        }
      ],
      "name": "caculateFees",
      "outputs": [
        {
          "internalType": "uint256",
          "name": "",
          "type": "uint256"
        },
        {
          "internalType": "uint256",
          "name": "",
          "type": "uint256"
        }
      ],
      "stateMutability": "pure",
      "type": "function"
    },
    {
      "inputs": [],
      "name": "distributeFees",
      "outputs": [],
      "stateMutability": "nonpayable",
      "type": "function"
    },
    {
      "inputs": [
        {
          "internalType": "uint256",
          "name": "amount",
          "type": "uint256"
        }
      ],
      "name": "handleCollectBIB",
      "outputs": [],
      "stateMutability": "nonpayable",
      "type": "function"
    },
    {
      "inputs": [
        {
          "internalType": "uint256",
          "name": "amount",
          "type": "uint256"
        }
      ],
      "name": "handleCollectBNB",
      "outputs": [],
      "stateMutability": "nonpayable",
      "type": "function"
    },
    {
      "inputs": [
        {
          "internalType": "uint256",
          "name": "amount",
          "type": "uint256"
        }
      ],
      "name": "handleCollectBUSD",
      "outputs": [],
      "stateMutability": "nonpayable",
      "type": "function"
    },
    {
      "inputs": [
        {
          "internalType": "address",
          "name": "_vault",
          "type": "address"
        },
        {
          "internalType": "address",
          "name": "_bibToken",
          "type": "address"
        },
        {
          "internalType": "address",
          "name": "_busdToken",
          "type": "address"
        },
        {
          "internalType": "address",
          "name": "_stakedReceiver",
          "type": "address"
        },
        {
          "internalType": "address",
          "name": "_kolReceiver",
          "type": "address"
        },
        {
          "internalType": "address",
          "name": "_poolReceiver",
          "type": "address"
        }
      ],
      "name": "initialize",
      "outputs": [],
      "stateMutability": "nonpayable",
      "type": "function"
    },
    {
      "inputs": [
        {
          "internalType": "address",
          "name": "caller",
          "type": "address"
        }
      ],
      "name": "isAllowCall",
      "outputs": [
        {
          "internalType": "bool",
          "name": "",
          "type": "bool"
        }
      ],
      "stateMutability": "view",
      "type": "function"
    },
    {
      "inputs": [],
      "name": "kolRatio",
      "outputs": [
        {
          "internalType": "uint256",
          "name": "",
          "type": "uint256"
        }
      ],
      "stateMutability": "view",
      "type": "function"
    },
    {
      "inputs": [],
      "name": "kolReceiver",
      "outputs": [
        {
          "internalType": "contract IFeeReceiver",
          "name": "",
          "type": "address"
        }
      ],
      "stateMutability": "view",
      "type": "function"
    },
    {
      "inputs": [],
      "name": "minBNBToSwap",
      "outputs": [
        {
          "internalType": "uint256",
          "name": "",
          "type": "uint256"
        }
      ],
      "stateMutability": "view",
      "type": "function"
    },
    {
      "inputs": [],
      "name": "minBUSDToSwap",
      "outputs": [
        {
          "internalType": "uint256",
          "name": "",
          "type": "uint256"
        }
      ],
      "stateMutability": "view",
      "type": "function"
    },
    {
      "inputs": [],
      "name": "owner",
      "outputs": [
        {
          "internalType": "address",
          "name": "",
          "type": "address"
        }
      ],
      "stateMutability": "view",
      "type": "function"
    },
    {
      "inputs": [],
      "name": "paused",
      "outputs": [
        {
          "internalType": "bool",
          "name": "",
          "type": "bool"
        }
      ],
      "stateMutability": "view",
      "type": "function"
    },
    {
      "inputs": [],
      "name": "poolRatio",
      "outputs": [
        {
          "internalType": "uint256",
          "name": "",
          "type": "uint256"
        }
      ],
      "stateMutability": "view",
      "type": "function"
    },
    {
      "inputs": [],
      "name": "poolReceiver",
      "outputs": [
        {
          "internalType": "contract IFeeReceiver",
          "name": "",
          "type": "address"
        }
      ],
      "stateMutability": "view",
      "type": "function"
    },
    {
      "inputs": [],
      "name": "renounceOwnership",
      "outputs": [],
      "stateMutability": "nonpayable",
      "type": "function"
    },
    {
      "inputs": [
        {
          "internalType": "address",
          "name": "caller",
          "type": "address"
        },
        {
          "internalType": "bool",
          "name": "value",
          "type": "bool"
        }
      ],
      "name": "setAllowToCall",
      "outputs": [],
      "stateMutability": "nonpayable",
      "type": "function"
    },
    {
      "inputs": [
        {
          "internalType": "address",
          "name": "_bibToken",
          "type": "address"
        }
      ],
      "name": "setBIBContract",
      "outputs": [],
      "stateMutability": "nonpayable",
      "type": "function"
    },
    {
      "inputs": [
        {
          "internalType": "address",
          "name": "_busdToken",
          "type": "address"
        }
      ],
      "name": "setBUSDContract",
      "outputs": [],
      "stateMutability": "nonpayable",
      "type": "function"
    },
    {
      "inputs": [
        {
          "internalType": "uint256",
          "name": "_vaultRatio",
          "type": "uint256"
        },
        {
          "internalType": "uint256",
          "name": "_stakedRatio",
          "type": "uint256"
        },
        {
          "internalType": "uint256",
          "name": "_kolRatio",
          "type": "uint256"
        },
        {
          "internalType": "uint256",
          "name": "_poolRatio",
          "type": "uint256"
        }
      ],
      "name": "setDistributeRatio",
      "outputs": [],
      "stateMutability": "nonpayable",
      "type": "function"
    },
    {
      "inputs": [
        {
          "internalType": "address",
          "name": "_stakedReceiver",
          "type": "address"
        },
        {
          "internalType": "address",
          "name": "_kolReceiver",
          "type": "address"
        },
        {
          "internalType": "address",
          "name": "_poolReceiver",
          "type": "address"
        }
      ],
      "name": "setFeeReceiver",
      "outputs": [],
      "stateMutability": "nonpayable",
      "type": "function"
    },
    {
      "inputs": [
        {
          "internalType": "address",
          "name": "_uniswapV2Router",
          "type": "address"
        }
      ],
      "name": "setSwapRouter",
      "outputs": [],
      "stateMutability": "nonpayable",
      "type": "function"
    },
    {
      "inputs": [
        {
          "internalType": "uint256",
          "name": "_minBUSDToSwap",
          "type": "uint256"
        },
        {
          "internalType": "uint256",
          "name": "_minBNBToSwap",
          "type": "uint256"
        }
      ],
      "name": "setSwapThreshHold",
      "outputs": [],
      "stateMutability": "nonpayable",
      "type": "function"
    },
    {
      "inputs": [
        {
          "internalType": "address",
          "name": "_vault",
          "type": "address"
        }
      ],
      "name": "setVault",
      "outputs": [],
      "stateMutability": "nonpayable",
      "type": "function"
    },
    {
      "inputs": [],
      "name": "stakedRatio",
      "outputs": [
        {
          "internalType": "uint256",
          "name": "",
          "type": "uint256"
        }
      ],
      "stateMutability": "view",
      "type": "function"
    },
    {
      "inputs": [],
      "name": "stakedReceiver",
      "outputs": [
        {
          "internalType": "contract IFeeReceiver",
          "name": "",
          "type": "address"
        }
      ],
      "stateMutability": "view",
      "type": "function"
    },
    {
      "inputs": [
        {
          "internalType": "address",
          "name": "newOwner",
          "type": "address"
        }
      ],
      "name": "transferOwnership",
      "outputs": [],
      "stateMutability": "nonpayable",
      "type": "function"
    },
    {
      "inputs": [],
      "name": "uniswapV2Router",
      "outputs": [
        {
          "internalType": "contract IUniswapV2Router02",
          "name": "",
          "type": "address"
        }
      ],
      "stateMutability": "view",
      "type": "function"
    },
    {
      "inputs": [],
      "name": "vault",
      "outputs": [
        {
          "internalType": "address",
          "name": "",
          "type": "address"
        }
      ],
      "stateMutability": "view",
      "type": "function"
    },
    {
      "inputs": [],
      "name": "vaultRatio",
      "outputs": [
        {
          "internalType": "uint256",
          "name": "",
          "type": "uint256"
        }
      ],
      "stateMutability": "view",
      "type": "function"
    }
  ],
  "bytecode": "0x60806040526096609b55610190609c556032609d55610226609e556064609f55662386f26fc1000060a05534801561003657600080fd5b50611e01806100466000396000f3fe608060405234801561001057600080fd5b50600436106102115760003560e01c80638da5cb5b11610125578063de0e7014116100ad578063f3da46f91161007c578063f3da46f914610475578063fad288df1461047e578063fae27d7f14610491578063fbfa77cf1461049a578063ffa1ad74146104ad57600080fd5b8063de0e701414610433578063e217f67414610446578063e523926514610459578063f2fde38b1461046257600080fd5b8063b74253e9116100f4578063b74253e9146103d0578063b796362f146103fc578063bb57ad201461040f578063cc2a9a5b14610417578063d8b8bc291461042a57600080fd5b80638da5cb5b1461037657806392895e4e146103875780639e6899f31461039a578063b3e158b6146103bd57600080fd5b806341273657116101a85780635c975abb116101775780635c975abb1461031e5780636817031b14610335578063715018a614610348578063807432f914610350578063890967dd1461036357600080fd5b806341273657146102dc57806352363da2146102ef57806352419147146102f8578063527f1e5e1461030b57600080fd5b806324d51523116101e457806324d515231461029a5780633344f21b146102ad578063340e59a1146102b6578063360055d1146102c957600080fd5b80630d4870ba146102165780631694505e1461022b5780631ae029c71461025b5780631f9082d114610283575b600080fd5b610229610224366004611947565b6104b5565b005b60a45461023e906001600160a01b031681565b6040516001600160a01b0390911681526020015b60405180910390f35b61026e610269366004611980565b6104e8565b60408051928352602083019190915201610252565b61028c6103e881565b604051908152602001610252565b6102296102a83660046119a2565b61051b565b61028c609f5481565b6102296102c43660046119ed565b610562565b6102296102d7366004611a06565b610829565b6102296102ea366004611a38565b6108fe565b61028c609e5481565b610229610306366004611a38565b610995565b60a15461023e906001600160a01b031681565b60655460ff165b6040519015158152602001610252565b610229610343366004611a38565b610a2c565b610229610ac3565b60a25461023e906001600160a01b031681565b6102296103713660046119ed565b610ad7565b6033546001600160a01b031661023e565b60a35461023e906001600160a01b031681565b6103256103a8366004611a38565b609a6020526000908152604090205460ff1681565b60a65461023e906001600160a01b031681565b6103256103de366004611a38565b6001600160a01b03166000908152609a602052604090205460ff1690565b61022961040a366004611980565b610dc7565b610229610dda565b610229610425366004611a55565b610ec7565b61028c609b5481565b60a75461023e906001600160a01b031681565b610229610454366004611a38565b611044565b61028c609d5481565b610229610470366004611a38565b6110db565b61028c60a05481565b61022961048c3660046119ed565b611154565b61028c609c5481565b60a55461023e906001600160a01b031681565b61028c600181565b6104bd6111c0565b6001600160a01b03919091166000908152609a60205260409020805460ff1916911515919091179055565b600080806105026103e86104fc878761121a565b906112a2565b90508061050f86826112e4565b92509250509250929050565b6105236111c0565b60a180546001600160a01b039485166001600160a01b03199182161790915560a280549385169382169390931790925560a38054919093169116179055565b336000908152609a602052604090205460ff1661059a5760405162461bcd60e51b815260040161059190611ad7565b60405180910390fd5b60a05447106107ea57604080516002808252606082018352600092602083019080368337505060a454604080516315ab88c960e31b815290519394506001600160a01b039091169263ad5c4648925060048083019260209291908290030181865afa15801561060d573d6000803e3d6000fd5b505050506040513d601f19601f820116820180604052508101906106319190611afc565b8160008151811061064457610644611b19565b6001600160a01b03928316602091820292909201015260a65482519116908290600190811061067557610675611b19565b6001600160a01b03928316602091820292909201015260a6546040516370a0823160e01b815230600482015260009291909116906370a0823190602401602060405180830381865afa1580156106cf573d6000803e3d6000fd5b505050506040513d601f19601f820116820180604052508101906106f39190611b2f565b60a45460405163b6f9de9560e01b81529192506001600160a01b03169063b6f9de9590859061072d90600090879030904290600401611b8c565b6000604051808303818588803b15801561074657600080fd5b505af115801561075a573d6000803e3d6000fd5b505060a6546040516370a0823160e01b8152306004820152600094506107db93508592506001600160a01b03909116906370a08231906024015b602060405180830381865afa1580156107b1573d6000803e3d6000fd5b505050506040513d601f19601f820116820180604052508101906107d59190611b2f565b906112e4565b90506107e681611326565b5050505b7ff835836bcaa4e91cd0879c2b4c3b8e038fa08a57d35b00eb23d4bd20c39e128c3360008360405161081e93929190611bc1565b60405180910390a150565b6108316111c0565b609b849055609d829055609e819055609c8390556103e884111561088d5760405162461bcd60e51b8152602060048201526013602482015272494e56414c49445f5641554c545f524154494f60681b6044820152606401610591565b6103e86108b3609c546108ad609e54609d5461174a90919063ffffffff16565b9061174a565b11156108f85760405162461bcd60e51b8152602060048201526014602482015273494e56414c49445f444956454e445f524154494f60601b6044820152606401610591565b50505050565b6109066111c0565b6001600160a01b03811661092c5760405162461bcd60e51b815260040161059190611c00565b60a4546040517f2f7abb3b0ac1ff5aeddcb69df541ff5c506bb67b9fa574be4a52087df10ebb3f9161096b9133916001600160a01b0316908590611c29565b60405180910390a160a480546001600160a01b0319166001600160a01b0392909216919091179055565b61099d6111c0565b6001600160a01b0381166109c35760405162461bcd60e51b815260040161059190611c00565b60a7546040517f6aca743edeb4e0ea2946d2ebfd5a2328eca6b0f0250566cf6003c1724aef337791610a029133916001600160a01b0316908590611c29565b60405180910390a160a780546001600160a01b0319166001600160a01b0392909216919091179055565b610a346111c0565b6001600160a01b038116610a5a5760405162461bcd60e51b815260040161059190611c00565b60a5546040517f0afae7df36cbc23ef1010fb452e2802ea043ce6e6556c3afbe3e11b65953c4ab91610a999133916001600160a01b0316908590611c29565b60405180910390a160a580546001600160a01b0319166001600160a01b0392909216919091179055565b610acb6111c0565b610ad560006117a9565b565b336000908152609a602052604090205460ff16610b065760405162461bcd60e51b815260040161059190611ad7565b609f5460a7546040516370a0823160e01b81523060048201526001600160a01b03909116906370a0823190602401602060405180830381865afa158015610b51573d6000803e3d6000fd5b505050506040513d601f19601f82011682018060405250810190610b759190611b2f565b10610d9357604080516002808252606082018352600092602083019080368337505060a75482519293506001600160a01b031691839150600090610bbb57610bbb611b19565b6001600160a01b03928316602091820292909201015260a654825191169082906001908110610bec57610bec611b19565b6001600160a01b03928316602091820292909201015260a75460a45460405163095ea7b360e01b815290831660048201526024810185905291169063095ea7b3906044016020604051808303816000875af1158015610c4f573d6000803e3d6000fd5b505050506040513d601f19601f82011682018060405250810190610c739190611c4c565b5060a6546040516370a0823160e01b81523060048201526000916001600160a01b0316906370a0823190602401602060405180830381865afa158015610cbd573d6000803e3d6000fd5b505050506040513d601f19601f82011682018060405250810190610ce19190611b2f565b60a454604051635c11d79560e01b81529192506001600160a01b031690635c11d79590610d1b908690600090879030904290600401611c69565b600060405180830381600087803b158015610d3557600080fd5b505af1158015610d49573d6000803e3d6000fd5b505060a6546040516370a0823160e01b815230600482015260009350610d84925084916001600160a01b0316906370a0823190602401610794565b9050610d8f81611326565b5050505b7ff835836bcaa4e91cd0879c2b4c3b8e038fa08a57d35b00eb23d4bd20c39e128c3360028360405161081e93929190611bc1565b610dcf6111c0565b609f9190915560a055565b610de26111c0565b60a6546040516370a0823160e01b8152306004820152610e50916001600160a01b0316906370a0823190602401602060405180830381865afa158015610e2c573d6000803e3d6000fd5b505050506040513d601f19601f8201168201806040525081019061048c9190611b2f565b60a7546040516370a0823160e01b8152306004820152610ebe916001600160a01b0316906370a0823190602401602060405180830381865afa158015610e9a573d6000803e3d6000fd5b505050506040513d601f19601f820116820180604052508101906103719190611b2f565b610ad547610562565b600054600190610100900460ff16158015610ee9575060005460ff8083169116105b610f4c5760405162461bcd60e51b815260206004820152602e60248201527f496e697469616c697a61626c653a20636f6e747261637420697320616c72656160448201526d191e481a5b9a5d1a585b1a5e995960921b6064820152608401610591565b6000805461ffff191660ff83161761010017905560a580546001600160a01b03808a166001600160a01b03199283161790925560a6805489841690831617905560a7805488841690831617905560a1805487841690831617905560a2805486841690831617905560a38054928516929091169190911790556096609b55610190609c556032609d55610226609e556064609f55662386f26fc1000060a055610ff26117fb565b610ffa61182a565b6000805461ff001916905560405160ff821681527f7f26b83ff96e1f2b6a682f133852f6798a09c465da95921460cefb38474024989060200160405180910390a150505050505050565b61104c6111c0565b6001600160a01b0381166110725760405162461bcd60e51b815260040161059190611c00565b60a6546040517f55263a2c34e1ca945ec24e98ab7634dfbdea3867d19adaac6da2ad9381018d39916110b19133916001600160a01b0316908590611c29565b60405180910390a160a680546001600160a01b0319166001600160a01b0392909216919091179055565b6110e36111c0565b6001600160a01b0381166111485760405162461bcd60e51b815260206004820152602660248201527f4f776e61626c653a206e6577206f776e657220697320746865207a65726f206160448201526564647265737360d01b6064820152608401610591565b611151816117a9565b50565b336000908152609a602052604090205460ff166111835760405162461bcd60e51b815260040161059190611ad7565b61118c81611326565b7ff835836bcaa4e91cd0879c2b4c3b8e038fa08a57d35b00eb23d4bd20c39e128c3360018360405161081e93929190611bc1565b6033546001600160a01b03163314610ad55760405162461bcd60e51b815260206004820181905260248201527f4f776e61626c653a2063616c6c6572206973206e6f7420746865206f776e65726044820152606401610591565b6000826112295750600061129c565b60006112358385611cbb565b9050826112428583611cda565b146112995760405162461bcd60e51b815260206004820152602160248201527f536166654d6174683a206d756c7469706c69636174696f6e206f766572666c6f6044820152607760f81b6064820152608401610591565b90505b92915050565b600061129983836040518060400160405280601a81526020017f536166654d6174683a206469766973696f6e206279207a65726f000000000000815250611859565b600061129983836040518060400160405280601e81526020017f536166654d6174683a207375627472616374696f6e206f766572666c6f770000815250611890565b60008061133583609b546104e8565b60a55491935091506001600160a01b0316156113c65760a65460a55460405163a9059cbb60e01b81526001600160a01b0391821660048201526024810185905291169063a9059cbb906044016020604051808303816000875af11580156113a0573d6000803e3d6000fd5b505050506040513d601f19601f820116820180604052508101906113c49190611c4c565b505b60006113d482609c546104e8565b5060a1549091506001600160a01b03161561150f5760a65460a15460405163a9059cbb60e01b81526001600160a01b0391821660048201526024810184905291169063a9059cbb906044016020604051808303816000875af115801561143e573d6000803e3d6000fd5b505050506040513d601f19601f820116820180604052508101906114629190611c4c565b5060a154604051631bb5e90960e31b8152600481018390526001600160a01b039091169063ddaf484890602401600060405180830381600087803b1580156114a957600080fd5b505af11580156114bd573d6000803e3d6000fd5b505060a154604080513381526001600160a01b03909216602083015281018790527fafdc1eb311d58306e249917b5ca0044a827a66f0ec535c334d63372c4055d3649250606001905060405180910390a15b600061151d83609d546104e8565b5060a2549091506001600160a01b0316156115f95760a65460a25460405163a9059cbb60e01b81526001600160a01b0391821660048201526024810184905291169063a9059cbb906044016020604051808303816000875af1158015611587573d6000803e3d6000fd5b505050506040513d601f19601f820116820180604052508101906115ab9190611c4c565b5060a254604080513381526001600160a01b03909216602083015281018690527fafdc1eb311d58306e249917b5ca0044a827a66f0ec535c334d63372c4055d3649060600160405180910390a15b600061160784609e546104e8565b5060a3549091506001600160a01b0316156117425760a65460a35460405163a9059cbb60e01b81526001600160a01b0391821660048201526024810184905291169063a9059cbb906044016020604051808303816000875af1158015611671573d6000803e3d6000fd5b505050506040513d601f19601f820116820180604052508101906116959190611c4c565b5060a354604051631bb5e90960e31b8152600481018390526001600160a01b039091169063ddaf484890602401600060405180830381600087803b1580156116dc57600080fd5b505af11580156116f0573d6000803e3d6000fd5b505060a354604080513381526001600160a01b03909216602083015281018990527fafdc1eb311d58306e249917b5ca0044a827a66f0ec535c334d63372c4055d3649250606001905060405180910390a15b505050505050565b6000806117578385611cfc565b9050838110156112995760405162461bcd60e51b815260206004820152601b60248201527f536166654d6174683a206164646974696f6e206f766572666c6f7700000000006044820152606401610591565b603380546001600160a01b038381166001600160a01b0319831681179093556040519116919082907f8be0079c531659141344cd1fd0a4f28419497f9722a3daafe3b4186f6b6457e090600090a35050565b600054610100900460ff166118225760405162461bcd60e51b815260040161059190611d14565b610ad56118c1565b600054610100900460ff166118515760405162461bcd60e51b815260040161059190611d14565b610ad56118f4565b6000818361187a5760405162461bcd60e51b81526004016105919190611d5f565b5060006118878486611cda565b95945050505050565b600081848411156118b45760405162461bcd60e51b81526004016105919190611d5f565b5060006118878486611db4565b600054610100900460ff166118e85760405162461bcd60e51b815260040161059190611d14565b6065805460ff19169055565b600054610100900460ff1661191b5760405162461bcd60e51b815260040161059190611d14565b610ad5336117a9565b6001600160a01b038116811461115157600080fd5b801515811461115157600080fd5b6000806040838503121561195a57600080fd5b823561196581611924565b9150602083013561197581611939565b809150509250929050565b6000806040838503121561199357600080fd5b50508035926020909101359150565b6000806000606084860312156119b757600080fd5b83356119c281611924565b925060208401356119d281611924565b915060408401356119e281611924565b809150509250925092565b6000602082840312156119ff57600080fd5b5035919050565b60008060008060808587031215611a1c57600080fd5b5050823594602084013594506040840135936060013592509050565b600060208284031215611a4a57600080fd5b813561129981611924565b60008060008060008060c08789031215611a6e57600080fd5b8635611a7981611924565b95506020870135611a8981611924565b94506040870135611a9981611924565b93506060870135611aa981611924565b92506080870135611ab981611924565b915060a0870135611ac981611924565b809150509295509295509295565b6020808252600b908201526a27a7262cafa1a0a62622a960a91b604082015260600190565b600060208284031215611b0e57600080fd5b815161129981611924565b634e487b7160e01b600052603260045260246000fd5b600060208284031215611b4157600080fd5b5051919050565b600081518084526020808501945080840160005b83811015611b815781516001600160a01b031687529582019590820190600101611b5c565b509495945050505050565b848152608060208201526000611ba56080830186611b48565b6001600160a01b03949094166040830152506060015292915050565b6001600160a01b03841681526060810160038410611bef57634e487b7160e01b600052602160045260246000fd5b602082019390935260400152919050565b6020808252600f908201526e494e56414c49445f4144445245535360881b604082015260600190565b6001600160a01b0393841681529183166020830152909116604082015260600190565b600060208284031215611c5e57600080fd5b815161129981611939565b85815284602082015260a060408201526000611c8860a0830186611b48565b6001600160a01b0394909416606083015250608001529392505050565b634e487b7160e01b600052601160045260246000fd5b6000816000190483118215151615611cd557611cd5611ca5565b500290565b600082611cf757634e487b7160e01b600052601260045260246000fd5b500490565b60008219821115611d0f57611d0f611ca5565b500190565b6020808252602b908201527f496e697469616c697a61626c653a20636f6e7472616374206973206e6f74206960408201526a6e697469616c697a696e6760a81b606082015260800190565b600060208083528351808285015260005b81811015611d8c57858101830151858201604001528201611d70565b81811115611d9e576000604083870101525b50601f01601f1916929092016040019392505050565b600082821015611dc657611dc6611ca5565b50039056fea26469706673582212207511b5867c396f3493e9e9e35638840e40b99347879c04d8d4ad272966fc256a64736f6c634300080b0033",
  "linkReferences": {},
  "deployedLinkReferences": {}
}