{
  "_format": "hh-sol-artifact-1",
  "contractName": "ComposedSoccerStarNft",
  "sourceName": "contracts/composed/ComposedSoccerStarNft.sol",
  "abi": [
    {
      "anonymous": false,
      "inputs": [
        {
          "indexed": false,
          "internalType": "address",
          "name": "sender",
          "type": "address"
        },
        {
          "indexed": false,
          "internalType": "address",
          "name": "oldValue",
          "type": "address"
        },
        {
          "indexed": false,
          "internalType": "address",
          "name": "newValue",
          "type": "address"
        }
      ],
      "name": "BIBContractChanged",
      "type": "event"
    },
    {
      "anonymous": false,
      "inputs": [
        {
          "indexed": false,
          "internalType": "address",
          "name": "sender",
          "type": "address"
        },
        {
          "indexed": false,
          "internalType": "address",
          "name": "oldValue",
          "type": "address"
        },
        {
          "indexed": false,
          "internalType": "address",
          "name": "newValue",
          "type": "address"
        }
      ],
      "name": "BUSDContractChanged",
      "type": "event"
    },
    {
      "anonymous": false,
      "inputs": [
        {
          "indexed": false,
          "internalType": "address",
          "name": "sender",
          "type": "address"
        },
        {
          "indexed": false,
          "internalType": "uint256[]",
          "name": "tokenIds",
          "type": "uint256[]"
        },
        {
          "indexed": false,
          "internalType": "uint256",
          "name": "extraToken",
          "type": "uint256"
        },
        {
          "indexed": false,
          "internalType": "uint256",
          "name": "composedToken",
          "type": "uint256"
        },
        {
          "indexed": false,
          "internalType": "enum IComposedSoccerStarNft.ComposeMode",
          "name": "mode",
          "type": "uint8"
        },
        {
          "indexed": false,
          "internalType": "enum IComposedSoccerStarNft.PayMethod",
          "name": "payMethod",
          "type": "uint8"
        },
        {
          "indexed": false,
          "internalType": "uint256",
          "name": "payAmount",
          "type": "uint256"
        }
      ],
      "name": "Composed",
      "type": "event"
    },
    {
      "anonymous": false,
      "inputs": [
        {
          "indexed": false,
          "internalType": "address",
          "name": "sender",
          "type": "address"
        },
        {
          "indexed": false,
          "internalType": "uint256[12]",
          "name": "oldValue",
          "type": "uint256[12]"
        },
        {
          "indexed": false,
          "internalType": "uint256[12]",
          "name": "newValue",
          "type": "uint256[12]"
        }
      ],
      "name": "FeeRateChanged",
      "type": "event"
    },
    {
      "anonymous": false,
      "inputs": [
        {
          "indexed": false,
          "internalType": "uint8",
          "name": "version",
          "type": "uint8"
        }
      ],
      "name": "Initialized",
      "type": "event"
    },
    {
      "anonymous": false,
      "inputs": [
        {
          "indexed": true,
          "internalType": "address",
          "name": "previousOwner",
          "type": "address"
        },
        {
          "indexed": true,
          "internalType": "address",
          "name": "newOwner",
          "type": "address"
        }
      ],
      "name": "OwnershipTransferred",
      "type": "event"
    },
    {
      "anonymous": false,
      "inputs": [
        {
          "indexed": false,
          "internalType": "address",
          "name": "account",
          "type": "address"
        }
      ],
      "name": "Paused",
      "type": "event"
    },
    {
      "anonymous": false,
      "inputs": [
        {
          "indexed": false,
          "internalType": "address",
          "name": "sender",
          "type": "address"
        },
        {
          "indexed": false,
          "internalType": "address",
          "name": "oldValue",
          "type": "address"
        },
        {
          "indexed": false,
          "internalType": "address",
          "name": "newValue",
          "type": "address"
        }
      ],
      "name": "PriceOracleChanged",
      "type": "event"
    },
    {
      "anonymous": false,
      "inputs": [
        {
          "indexed": false,
          "internalType": "address",
          "name": "sender",
          "type": "address"
        },
        {
          "indexed": false,
          "internalType": "address",
          "name": "oldValue",
          "type": "address"
        },
        {
          "indexed": false,
          "internalType": "address",
          "name": "newValue",
          "type": "address"
        }
      ],
      "name": "TokenContractChanged",
      "type": "event"
    },
    {
      "anonymous": false,
      "inputs": [
        {
          "indexed": false,
          "internalType": "address",
          "name": "sender",
          "type": "address"
        },
        {
          "indexed": false,
          "internalType": "address",
          "name": "oldValue",
          "type": "address"
        },
        {
          "indexed": false,
          "internalType": "address",
          "name": "newValue",
          "type": "address"
        }
      ],
      "name": "TreasuryChanged",
      "type": "event"
    },
    {
      "anonymous": false,
      "inputs": [
        {
          "indexed": false,
          "internalType": "address",
          "name": "account",
          "type": "address"
        }
      ],
      "name": "Unpaused",
      "type": "event"
    },
    {
      "inputs": [],
      "name": "BLACK_HOLE",
      "outputs": [
        {
          "internalType": "address",
          "name": "",
          "type": "address"
        }
      ],
      "stateMutability": "view",
      "type": "function"
    },
    {
      "inputs": [],
      "name": "MAX_STARLEVEL",
      "outputs": [
        {
          "internalType": "uint256",
          "name": "",
          "type": "uint256"
        }
      ],
      "stateMutability": "view",
      "type": "function"
    },
    {
      "inputs": [],
      "name": "ORACLE_PRECISION",
      "outputs": [
        {
          "internalType": "uint256",
          "name": "",
          "type": "uint256"
        }
      ],
      "stateMutability": "view",
      "type": "function"
    },
    {
      "inputs": [],
      "name": "STARLEVEL_RANGE",
      "outputs": [
        {
          "internalType": "uint256",
          "name": "",
          "type": "uint256"
        }
      ],
      "stateMutability": "view",
      "type": "function"
    },
    {
      "inputs": [],
      "name": "bibContract",
      "outputs": [
        {
          "internalType": "contract IERC20",
          "name": "",
          "type": "address"
        }
      ],
      "stateMutability": "view",
      "type": "function"
    },
    {
      "inputs": [],
      "name": "busdContract",
      "outputs": [
        {
          "internalType": "contract IERC20",
          "name": "",
          "type": "address"
        }
      ],
      "stateMutability": "view",
      "type": "function"
    },
    {
      "inputs": [
        {
          "internalType": "uint256",
          "name": "bibAmount",
          "type": "uint256"
        }
      ],
      "name": "caculateBUSDAmount",
      "outputs": [
        {
          "internalType": "uint256",
          "name": "",
          "type": "uint256"
        }
      ],
      "stateMutability": "view",
      "type": "function"
    },
    {
      "inputs": [
        {
          "internalType": "uint256",
          "name": "starLevel",
          "type": "uint256"
        },
        {
          "internalType": "uint256",
          "name": "gradient",
          "type": "uint256"
        }
      ],
      "name": "caculateBurnAmount",
      "outputs": [
        {
          "internalType": "uint256",
          "name": "",
          "type": "uint256"
        }
      ],
      "stateMutability": "view",
      "type": "function"
    },
    {
      "inputs": [
        {
          "internalType": "uint256[]",
          "name": "tokenIds",
          "type": "uint256[]"
        },
        {
          "internalType": "enum IComposedSoccerStarNft.ComposeMode",
          "name": "mode",
          "type": "uint8"
        },
        {
          "internalType": "uint256",
          "name": "extralToken",
          "type": "uint256"
        },
        {
          "internalType": "enum IComposedSoccerStarNft.PayMethod",
          "name": "payMethod",
          "type": "uint8"
        }
      ],
      "name": "compose",
      "outputs": [],
      "stateMutability": "nonpayable",
      "type": "function"
    },
    {
      "inputs": [
        {
          "internalType": "uint256[12]",
          "name": "_feeRates",
          "type": "uint256[12]"
        }
      ],
      "name": "configFeeRate",
      "outputs": [],
      "stateMutability": "nonpayable",
      "type": "function"
    },
    {
      "inputs": [],
      "name": "deadline",
      "outputs": [
        {
          "internalType": "uint256",
          "name": "",
          "type": "uint256"
        }
      ],
      "stateMutability": "view",
      "type": "function"
    },
    {
      "inputs": [
        {
          "internalType": "uint256",
          "name": "",
          "type": "uint256"
        }
      ],
      "name": "feeRates",
      "outputs": [
        {
          "internalType": "uint256",
          "name": "",
          "type": "uint256"
        }
      ],
      "stateMutability": "view",
      "type": "function"
    },
    {
      "inputs": [
        {
          "internalType": "address",
          "name": "_tokenContract",
          "type": "address"
        },
        {
          "internalType": "address",
          "name": "_bibContract",
          "type": "address"
        },
        {
          "internalType": "address",
          "name": "_busdContract",
          "type": "address"
        },
        {
          "internalType": "address",
          "name": "_treasury",
          "type": "address"
        },
        {
          "internalType": "address",
          "name": "_priceOracle",
          "type": "address"
        }
      ],
      "name": "initialize",
      "outputs": [],
      "stateMutability": "nonpayable",
      "type": "function"
    },
    {
      "inputs": [],
      "name": "isActivityOpen",
      "outputs": [
        {
          "internalType": "bool",
          "name": "",
          "type": "bool"
        }
      ],
      "stateMutability": "view",
      "type": "function"
    },
    {
      "inputs": [],
      "name": "owner",
      "outputs": [
        {
          "internalType": "address",
          "name": "",
          "type": "address"
        }
      ],
      "stateMutability": "view",
      "type": "function"
    },
    {
      "inputs": [],
      "name": "paused",
      "outputs": [
        {
          "internalType": "bool",
          "name": "",
          "type": "bool"
        }
      ],
      "stateMutability": "view",
      "type": "function"
    },
    {
      "inputs": [],
      "name": "priceOracle",
      "outputs": [
        {
          "internalType": "contract IBIBOracle",
          "name": "",
          "type": "address"
        }
      ],
      "stateMutability": "view",
      "type": "function"
    },
    {
      "inputs": [],
      "name": "renounceOwnership",
      "outputs": [],
      "stateMutability": "nonpayable",
      "type": "function"
    },
    {
      "inputs": [
        {
          "internalType": "uint256",
          "name": "_startup",
          "type": "uint256"
        },
        {
          "internalType": "uint256",
          "name": "_deadline",
          "type": "uint256"
        }
      ],
      "name": "setActivityTimeline",
      "outputs": [],
      "stateMutability": "nonpayable",
      "type": "function"
    },
    {
      "inputs": [
        {
          "internalType": "address",
          "name": "_bibContract",
          "type": "address"
        }
      ],
      "name": "setBIBContract",
      "outputs": [],
      "stateMutability": "nonpayable",
      "type": "function"
    },
    {
      "inputs": [
        {
          "internalType": "address",
          "name": "_busdContract",
          "type": "address"
        }
      ],
      "name": "setBUSDContract",
      "outputs": [],
      "stateMutability": "nonpayable",
      "type": "function"
    },
    {
      "inputs": [
        {
          "internalType": "address",
          "name": "_priceOracle",
          "type": "address"
        }
      ],
      "name": "setPriceOracle",
      "outputs": [],
      "stateMutability": "nonpayable",
      "type": "function"
    },
    {
      "inputs": [
        {
          "internalType": "address",
          "name": "_tokenContract",
          "type": "address"
        }
      ],
      "name": "setTokenContract",
      "outputs": [],
      "stateMutability": "nonpayable",
      "type": "function"
    },
    {
      "inputs": [
        {
          "internalType": "address",
          "name": "_treasury",
          "type": "address"
        }
      ],
      "name": "setTreasury",
      "outputs": [],
      "stateMutability": "nonpayable",
      "type": "function"
    },
    {
      "inputs": [],
      "name": "startup",
      "outputs": [
        {
          "internalType": "uint256",
          "name": "",
          "type": "uint256"
        }
      ],
      "stateMutability": "view",
      "type": "function"
    },
    {
      "inputs": [],
      "name": "tokenContract",
      "outputs": [
        {
          "internalType": "contract ISoccerStarNft",
          "name": "",
          "type": "address"
        }
      ],
      "stateMutability": "view",
      "type": "function"
    },
    {
      "inputs": [
        {
          "internalType": "address",
          "name": "newOwner",
          "type": "address"
        }
      ],
      "name": "transferOwnership",
      "outputs": [],
      "stateMutability": "nonpayable",
      "type": "function"
    },
    {
      "inputs": [],
      "name": "treasury",
      "outputs": [
        {
          "internalType": "address",
          "name": "",
          "type": "address"
        }
      ],
      "stateMutability": "view",
      "type": "function"
    }
  ],
  "bytecode": "0x608060405234801561001057600080fd5b5061216c806100206000396000f3fe608060405234801561001057600080fd5b50600436106101c45760003560e01c80637d2f3117116100f9578063b3892c6411610097578063d749ba0511610071578063d749ba0514610221578063e217f6741461037c578063f0f442601461038f578063f2fde38b146103a257600080fd5b8063b3892c641461034d578063bbcd5bbe14610356578063cf9d101c1461036957600080fd5b8063aaa4a535116100d3578063aaa4a5351461030c578063ab331f4c14610314578063af3ee80714610327578063b1806b9f1461033a57600080fd5b80637d2f3117146102d95780638da5cb5b146102ec5780639c0d313f146102fd57600080fd5b806355a373d61161016657806361d027b31161014057806361d027b3146102985780636aafb369146102ab5780637092ebd0146102be578063715018a6146102d157600080fd5b806355a373d61461026657806355eda4e8146102795780635c975abb1461028157600080fd5b8063299f4a97116101a2578063299f4a971461022157806329dcb0cf146102375780635241914714610240578063530e784f1461025357600080fd5b806310cc6bb9146101c95780631459457a146101f95780632630c12f1461020e575b600080fd5b6098546101dc906001600160a01b031681565b6040516001600160a01b0390911681526020015b60405180910390f35b61020c61020736600461195a565b6103b5565b005b609a546101dc906001600160a01b031681565b610229600481565b6040519081526020016101f0565b61022960a95481565b61020c61024e3660046119cb565b610593565b61020c6102613660046119cb565b61062a565b6097546101dc906001600160a01b031681565b6101dc600181565b60655460ff165b60405190151581526020016101f0565b60a7546101dc906001600160a01b031681565b61020c6102b9366004611a58565b6106c1565b6102296102cc366004611ad7565b610753565b61020c6107ec565b61020c6102e7366004611b04565b610800565b6033546001600160a01b03166101dc565b610229670de0b6b3a764000081565b610288610ecb565b610229610322366004611ad7565b610ee5565b610229610335366004611bd6565b610efc565b61020c610348366004611bd6565b610fcf565b61022960a85481565b61020c6103643660046119cb565b611067565b6099546101dc906001600160a01b031681565b61020c61038a3660046119cb565b6110fe565b61020c61039d3660046119cb565b611195565b61020c6103b03660046119cb565b61122c565b600054600190610100900460ff161580156103d7575060005460ff8083169116105b61043f5760405162461bcd60e51b815260206004820152602e60248201527f496e697469616c697a61626c653a20636f6e747261637420697320616c72656160448201526d191e481a5b9a5d1a585b1a5e995960921b60648201526084015b60405180910390fd5b6000805461ffff191660ff831617610100908117909155609780546001600160a01b03808a166001600160a01b031992831617909255609880548984169083161790556099805488841690831617905560a78054878416908316179055609a805492861692909116919091179055604080516101808101825262057e408152620b2390602082015262124f8091810191909152622191c06060820152621b774060808201526237b1d060a0820152625b8d8060c082015262a7d8c060e0820152628954409181019190915263011679106101208201526301c9c3806101408201526303473bc061016082015261053990609b90600c6118ea565b506105426112a5565b61054a6112d4565b6000805461ff001916905560405160ff821681527f7f26b83ff96e1f2b6a682f133852f6798a09c465da95921460cefb38474024989060200160405180910390a1505050505050565b61059b611303565b6001600160a01b0381166105c15760405162461bcd60e51b815260040161043690611bf8565b6099546040517f6aca743edeb4e0ea2946d2ebfd5a2328eca6b0f0250566cf6003c1724aef3377916106009133916001600160a01b0316908590611c20565b60405180910390a1609980546001600160a01b0319166001600160a01b0392909216919091179055565b610632611303565b6001600160a01b0381166106585760405162461bcd60e51b815260040161043690611bf8565b609a546040517faa9286361fa1d600adfc6d80d4a21cfa0412ebd74ddc39850e0eabd975664081916106979133916001600160a01b0316908590611c20565b60405180910390a1609a80546001600160a01b0319166001600160a01b0392909216919091179055565b6106c9611303565b7fe97ac1a4b68cdbdabdfbabf29a683e697a3356894337673b8cbae6cd8b74338833609b836040516106fd93929190611c43565b60405180910390a160005b600c81101561074f578181600c811061072357610723611caf565b6020020151609b82600c811061073b5761073b611caf565b01558061074781611cdb565b915050610708565b5050565b609a5460985460405163b3596f0760e01b81526001600160a01b0391821660048201526000928392169063b3596f0790602401602060405180830381865afa1580156107a3573d6000803e3d6000fd5b505050506040513d601f19601f820116820180604052508101906107c79190611cf6565b90506107e5670de0b6b3a76400006107df858461135d565b906113dc565b9392505050565b6107f4611303565b6107fe600061141e565b565b610808611470565b835160041461084c5760405162461bcd60e51b815260206004820152601060248201526f4e4545445f464f55525f544f4b454e5360801b6044820152606401610436565b6108708460008151811061086257610862611caf565b6020026020010151856114b6565b6108b55760405162461bcd60e51b81526020600482015260166024820152752722a2a22fa9a0a6a2afaa27a5a2a72fa82927a822a960511b6044820152606401610436565b6108d8846000815181106108cb576108cb611caf565b6020026020010151611615565b61091b5760405162461bcd60e51b81526020600482015260146024820152731391515117d313d5d15497d4d51054931155915360621b6044820152606401610436565b61092484611697565b60005b84518110156109c95760975485516001600160a01b03909116906323b872dd90339060019089908690811061095e5761095e611caf565b60200260200101516040518463ffffffff1660e01b815260040161098493929190611d0f565b600060405180830381600087803b15801561099e57600080fd5b505af11580156109b2573d6000803e3d6000fd5b5050505080806109c190611cdb565b915050610927565b5060975484516000916001600160a01b031690631ff8f73090879084906109f2576109f2611caf565b60200260200101516040518263ffffffff1660e01b8152600401610a1891815260200190565b600060405180830381865afa158015610a35573d6000803e3d6000fd5b505050506040513d6000823e601f3d908101601f19168201604052610a5d9190810190611dcf565b90506000846001811115610a7357610a73611e9b565b610bb0576097546040516331a9108f60e11b8152600481018690526001600160a01b0390911690636352211e90602401602060405180830381865afa158015610ac0573d6000803e3d6000fd5b505050506040513d601f19601f82011682018060405250810190610ae49190611eb1565b6001600160a01b0316336001600160a01b031614610b445760405162461bcd60e51b815260206004820152601a60248201527f544f4b454e5f4e4f545f42454c4c4f575f544f5f53454e4445520000000000006044820152606401610436565b6097546040516323b872dd60e01b81526001600160a01b03909116906323b872dd90610b799033906001908990600401611d0f565b600060405180830381600087803b158015610b9357600080fd5b505af1158015610ba7573d6000803e3d6000fd5b50505050610d2e565b610bb8610ecb565b610bfd5760405162461bcd60e51b81526020600482015260166024820152751050d5125592551657d254d7d393d517d3d41153915160521b6044820152606401610436565b610c0f82606001518360800151610efc565b9050826001811115610c2357610c23611e9b565b610ca5576098546040516323b872dd60e01b81526001600160a01b03909116906323b872dd90610c5c9033906001908690600401611d0f565b6020604051808303816000875af1158015610c7b573d6000803e3d6000fd5b505050506040513d601f19601f82011682018060405250810190610c9f9190611ece565b50610d2e565b610cae81610753565b60995460a7546040516323b872dd60e01b81529293506001600160a01b03918216926323b872dd92610ce99233929116908690600401611d0f565b6020604051808303816000875af1158015610d08573d6000803e3d6000fd5b505050506040513d601f19601f82011682018060405250810190610d2c9190611ece565b505b60975460408051632dd585af60e01b815290516000926001600160a01b031691632dd585af916004808301926020929190829003018187875af1158015610d79573d6000803e3d6000fd5b505050506040513d601f19601f82011682018060405250810190610d9d9190611cf6565b9050600183606001818151610db29190611ef0565b90525060975460405163316a2fbf60e11b81526001600160a01b03909116906362d45f7e90610de79084908790600401611f34565b600060405180830381600087803b158015610e0157600080fd5b505af1158015610e15573d6000803e3d6000fd5b50506097546040516323b872dd60e01b81526001600160a01b0390911692506323b872dd9150610e4d90309033908690600401611d0f565b600060405180830381600087803b158015610e6757600080fd5b505af1158015610e7b573d6000803e3d6000fd5b505050507f53d58f34642a06ed0588fe4051315d64b1326fdd2b13c9f4c9d0f5d49783045c338887848a8988604051610eba9796959493929190611fd2565b60405180910390a150505050505050565b600060a8544210158015610ee0575060a95442105b905090565b609b81600c8110610ef557600080fd5b0154905081565b600080609860009054906101000a90046001600160a01b03166001600160a01b031663313ce5676040518163ffffffff1660e01b8152600401602060405180830381865afa158015610f52573d6000803e3d6000fd5b505050506040513d601f19601f82011682018060405250810190610f76919061205d565b60ff169050610fc581609b610f8c600187612080565b6004610f9960018a612080565b610fa39190612097565b610fad9190611ef0565b600c8110610fbd57610fbd611caf565b0154906117a5565b9150505b92915050565b610fd7611303565b42821161101a5760405162461bcd60e51b8152602060048201526011602482015270535441525455505f544f4f5f4541524c5960781b6044820152606401610436565b81811161105c5760405162461bcd60e51b815260206004820152601060248201526f494e56414c49445f444541444c494e4560801b6044820152606401610436565b60a89190915560a955565b61106f611303565b6001600160a01b0381166110955760405162461bcd60e51b815260040161043690611bf8565b6097546040517f5debc9a579ebcaf3dcc7526051ee83a5686ec09736fd9aa41e7833ec368e5bb4916110d49133916001600160a01b0316908590611c20565b60405180910390a1609780546001600160a01b0319166001600160a01b0392909216919091179055565b611106611303565b6001600160a01b03811661112c5760405162461bcd60e51b815260040161043690611bf8565b6098546040517f55263a2c34e1ca945ec24e98ab7634dfbdea3867d19adaac6da2ad9381018d399161116b9133916001600160a01b0316908590611c20565b60405180910390a1609880546001600160a01b0319166001600160a01b0392909216919091179055565b61119d611303565b6001600160a01b0381166111c35760405162461bcd60e51b815260040161043690611bf8565b60a7546040517f749a8050935feb73a55ab4641c867c4dacc84430990fcaada1d12ba9072ad02e916112029133916001600160a01b0316908590611c20565b60405180910390a160a780546001600160a01b0319166001600160a01b0392909216919091179055565b611234611303565b6001600160a01b0381166112995760405162461bcd60e51b815260206004820152602660248201527f4f776e61626c653a206e6577206f776e657220697320746865207a65726f206160448201526564647265737360d01b6064820152608401610436565b6112a28161141e565b50565b600054610100900460ff166112cc5760405162461bcd60e51b8152600401610436906120b6565b6107fe6117de565b600054610100900460ff166112fb5760405162461bcd60e51b8152600401610436906120b6565b6107fe611811565b6033546001600160a01b031633146107fe5760405162461bcd60e51b815260206004820181905260248201527f4f776e61626c653a2063616c6c6572206973206e6f7420746865206f776e65726044820152606401610436565b60008261136c57506000610fc9565b60006113788385612097565b9050826113858583612101565b146107e55760405162461bcd60e51b815260206004820152602160248201527f536166654d6174683a206d756c7469706c69636174696f6e206f766572666c6f6044820152607760f81b6064820152608401610436565b60006107e583836040518060400160405280601a81526020017f536166654d6174683a206469766973696f6e206279207a65726f000000000000815250611841565b603380546001600160a01b038381166001600160a01b0319831681179093556040519116919082907f8be0079c531659141344cd1fd0a4f28419497f9722a3daafe3b4186f6b6457e090600090a35050565b60655460ff16156107fe5760405162461bcd60e51b815260206004820152601060248201526f14185d5cd8589b194e881c185d5cd95960821b6044820152606401610436565b60008151600014156114ca57506000610fc9565b6097546040516301ff8f7360e41b8152600481018590526000916001600160a01b031690631ff8f73090602401600060405180830381865afa158015611514573d6000803e3d6000fd5b505050506040513d6000823e601f3d908101601f1916820160405261153c9190810190611dcf565b905060005b835181101561160a5760975484516115e99184916001600160a01b0390911690631ff8f7309088908690811061157957611579611caf565b60200260200101516040518263ffffffff1660e01b815260040161159f91815260200190565b600060405180830381865afa1580156115bc573d6000803e3d6000fd5b505050506040513d6000823e601f3d908101601f191682016040526115e49190810190611dcf565b611878565b6115f857600092505050610fc9565b8061160281611cdb565b915050611541565b506001949350505050565b6097546040516301ff8f7360e41b8152600480820184905260009290916001600160a01b0390911690631ff8f73090602401600060405180830381865afa158015611664573d6000803e3d6000fd5b505050506040513d6000823e601f3d908101601f1916820160405261168c9190810190611dcf565b606001511092915050565b60005b815181101561074f5760975482516001600160a01b0390911690636352211e908490849081106116cc576116cc611caf565b60200260200101516040518263ffffffff1660e01b81526004016116f291815260200190565b602060405180830381865afa15801561170f573d6000803e3d6000fd5b505050506040513d601f19601f820116820180604052508101906117339190611eb1565b6001600160a01b0316336001600160a01b0316146117935760405162461bcd60e51b815260206004820152601a60248201527f544f4b454e5f4e4f545f42454c4c4f575f544f5f53454e4445520000000000006044820152606401610436565b8061179d81611cdb565b91505061169a565b6000600160005b838110156117d3576117bf82600a61135d565b9150806117cb81611cdb565b9150506117ac565b50610fc5848261135d565b600054610100900460ff166118055760405162461bcd60e51b8152600401610436906120b6565b6065805460ff19169055565b600054610100900460ff166118385760405162461bcd60e51b8152600401610436906120b6565b6107fe3361141e565b600081836118625760405162461bcd60e51b81526004016104369190612123565b50600061186f8486612101565b95945050505050565b60008160000151805190602001208360000151805190602001201480156118b45750816020015180519060200120836020015180519060200120145b80156118d55750816040015180519060200120836040015180519060200120145b80156107e55750506080908101519101511490565b82600c8101928215611920579160200282015b82811115611920578251829063ffffffff169055916020019190600101906118fd565b5061192c929150611930565b5090565b5b8082111561192c5760008155600101611931565b6001600160a01b03811681146112a257600080fd5b600080600080600060a0868803121561197257600080fd5b853561197d81611945565b9450602086013561198d81611945565b9350604086013561199d81611945565b925060608601356119ad81611945565b915060808601356119bd81611945565b809150509295509295909350565b6000602082840312156119dd57600080fd5b81356107e581611945565b634e487b7160e01b600052604160045260246000fd5b60405160a0810167ffffffffffffffff81118282101715611a2157611a216119e8565b60405290565b604051601f8201601f1916810167ffffffffffffffff81118282101715611a5057611a506119e8565b604052919050565b6000610180808385031215611a6c57600080fd5b83601f840112611a7b57600080fd5b60405181810181811067ffffffffffffffff82111715611a9d57611a9d6119e8565b604052908301908085831115611ab257600080fd5b845b83811015611acc578035825260209182019101611ab4565b509095945050505050565b600060208284031215611ae957600080fd5b5035919050565b803560028110611aff57600080fd5b919050565b60008060008060808587031215611b1a57600080fd5b843567ffffffffffffffff80821115611b3257600080fd5b818701915087601f830112611b4657600080fd5b8135602082821115611b5a57611b5a6119e8565b8160051b9250611b6b818401611a27565b828152928401810192818101908b851115611b8557600080fd5b948201945b84861015611ba357853582529482019490820190611b8a565b9850611bb29050898201611af0565b96505050505060408501359150611bcb60608601611af0565b905092959194509250565b60008060408385031215611be957600080fd5b50508035926020909101359150565b6020808252600e908201526d494e564c49445f4144445245535360901b604082015260600190565b6001600160a01b0393841681529183166020830152909116604082015260600190565b6001600160a01b0384168152610320810160208083018560005b600c811015611c7a57815483529183019160019182019101611c5d565b5050506101a083018460005b600c811015611ca357815183529183019190830190600101611c86565b50505050949350505050565b634e487b7160e01b600052603260045260246000fd5b634e487b7160e01b600052601160045260246000fd5b6000600019821415611cef57611cef611cc5565b5060010190565b600060208284031215611d0857600080fd5b5051919050565b6001600160a01b039384168152919092166020820152604081019190915260600190565b60005b83811015611d4e578181015183820152602001611d36565b83811115611d5d576000848401525b50505050565b600082601f830112611d7457600080fd5b815167ffffffffffffffff811115611d8e57611d8e6119e8565b611da1601f8201601f1916602001611a27565b818152846020838601011115611db657600080fd5b611dc7826020830160208701611d33565b949350505050565b600060208284031215611de157600080fd5b815167ffffffffffffffff80821115611df957600080fd5b9083019060a08286031215611e0d57600080fd5b611e156119fe565b825182811115611e2457600080fd5b611e3087828601611d63565b825250602083015182811115611e4557600080fd5b611e5187828601611d63565b602083015250604083015182811115611e6957600080fd5b611e7587828601611d63565b604083015250606083015160608201526080830151608082015280935050505092915050565b634e487b7160e01b600052602160045260246000fd5b600060208284031215611ec357600080fd5b81516107e581611945565b600060208284031215611ee057600080fd5b815180151581146107e557600080fd5b60008219821115611f0357611f03611cc5565b500190565b60008151808452611f20816020860160208601611d33565b601f01601f19169290920160200192915050565b828152604060208201526000825160a06040840152611f5660e0840182611f08565b90506020840151603f1980858403016060860152611f748383611f08565b9250604086015191508085840301608086015250611f928282611f08565b915050606084015160a0840152608084015160c0840152809150509392505050565b600281106112a257634e487b7160e01b600052602160045260246000fd5b6001600160a01b038816815260e0602080830182905288519183018290526000918982019190610100850190845b8181101561201c57845183529383019391830191600101612000565b505080935050505086604083015285606083015261203985611fb4565b84608083015261204884611fb4565b60a082019390935260c0015295945050505050565b60006020828403121561206f57600080fd5b815160ff811681146107e557600080fd5b60008282101561209257612092611cc5565b500390565b60008160001904831182151516156120b1576120b1611cc5565b500290565b6020808252602b908201527f496e697469616c697a61626c653a20636f6e7472616374206973206e6f74206960408201526a6e697469616c697a696e6760a81b606082015260800190565b60008261211e57634e487b7160e01b600052601260045260246000fd5b500490565b6020815260006107e56020830184611f0856fea26469706673582212208eb8743671dac80ca137f2c5ae7efb7971560a08f013f18523ff4bf94312dfe364736f6c634300080b0033",
  "linkReferences": {},
  "deployedLinkReferences": {}
}