{
  "_format": "hh-sol-artifact-1",
  "contractName": "ComposedSoccerStarNft",
  "sourceName": "contracts/composed/ComposedSoccerStarNft.sol",
  "abi": [
    {
      "anonymous": false,
      "inputs": [
        {
          "indexed": false,
          "internalType": "address",
          "name": "sender",
          "type": "address"
        },
        {
          "indexed": false,
          "internalType": "address",
          "name": "oldValue",
          "type": "address"
        },
        {
          "indexed": false,
          "internalType": "address",
          "name": "newValue",
          "type": "address"
        }
      ],
      "name": "BIBContractChanged",
      "type": "event"
    },
    {
      "anonymous": false,
      "inputs": [
        {
          "indexed": false,
          "internalType": "address",
          "name": "sender",
          "type": "address"
        },
        {
          "indexed": false,
          "internalType": "address",
          "name": "oldValue",
          "type": "address"
        },
        {
          "indexed": false,
          "internalType": "address",
          "name": "newValue",
          "type": "address"
        }
      ],
      "name": "BUSDContractChanged",
      "type": "event"
    },
    {
      "anonymous": false,
      "inputs": [
        {
          "indexed": false,
          "internalType": "address",
          "name": "sender",
          "type": "address"
        },
        {
          "indexed": false,
          "internalType": "uint256[]",
          "name": "tokenIds",
          "type": "uint256[]"
        },
        {
          "indexed": false,
          "internalType": "uint256",
          "name": "extraToken",
          "type": "uint256"
        },
        {
          "indexed": false,
          "internalType": "uint256",
          "name": "composedToken",
          "type": "uint256"
        },
        {
          "indexed": false,
          "internalType": "enum IComposedSoccerStarNft.ComposeMode",
          "name": "mode",
          "type": "uint8"
        },
        {
          "indexed": false,
          "internalType": "enum IComposedSoccerStarNft.PayMethod",
          "name": "payMethod",
          "type": "uint8"
        },
        {
          "indexed": false,
          "internalType": "uint256",
          "name": "payAmount",
          "type": "uint256"
        }
      ],
      "name": "Composed",
      "type": "event"
    },
    {
      "anonymous": false,
      "inputs": [
        {
          "indexed": false,
          "internalType": "address",
          "name": "sender",
          "type": "address"
        },
        {
          "indexed": false,
          "internalType": "uint256[12]",
          "name": "oldValue",
          "type": "uint256[12]"
        },
        {
          "indexed": false,
          "internalType": "uint256[12]",
          "name": "newValue",
          "type": "uint256[12]"
        }
      ],
      "name": "FeeRateChanged",
      "type": "event"
    },
    {
      "anonymous": false,
      "inputs": [
        {
          "indexed": false,
          "internalType": "uint8",
          "name": "version",
          "type": "uint8"
        }
      ],
      "name": "Initialized",
      "type": "event"
    },
    {
      "anonymous": false,
      "inputs": [
        {
          "indexed": true,
          "internalType": "address",
          "name": "previousOwner",
          "type": "address"
        },
        {
          "indexed": true,
          "internalType": "address",
          "name": "newOwner",
          "type": "address"
        }
      ],
      "name": "OwnershipTransferred",
      "type": "event"
    },
    {
      "anonymous": false,
      "inputs": [
        {
          "indexed": false,
          "internalType": "address",
          "name": "account",
          "type": "address"
        }
      ],
      "name": "Paused",
      "type": "event"
    },
    {
      "anonymous": false,
      "inputs": [
        {
          "indexed": false,
          "internalType": "address",
          "name": "sender",
          "type": "address"
        },
        {
          "indexed": false,
          "internalType": "address",
          "name": "oldValue",
          "type": "address"
        },
        {
          "indexed": false,
          "internalType": "address",
          "name": "newValue",
          "type": "address"
        }
      ],
      "name": "SwapRouterChanged",
      "type": "event"
    },
    {
      "anonymous": false,
      "inputs": [
        {
          "indexed": false,
          "internalType": "address",
          "name": "sender",
          "type": "address"
        },
        {
          "indexed": false,
          "internalType": "address",
          "name": "oldValue",
          "type": "address"
        },
        {
          "indexed": false,
          "internalType": "address",
          "name": "newValue",
          "type": "address"
        }
      ],
      "name": "TokenContractChanged",
      "type": "event"
    },
    {
      "anonymous": false,
      "inputs": [
        {
          "indexed": false,
          "internalType": "address",
          "name": "sender",
          "type": "address"
        },
        {
          "indexed": false,
          "internalType": "address",
          "name": "oldValue",
          "type": "address"
        },
        {
          "indexed": false,
          "internalType": "address",
          "name": "newValue",
          "type": "address"
        }
      ],
      "name": "TreasuryChanged",
      "type": "event"
    },
    {
      "anonymous": false,
      "inputs": [
        {
          "indexed": false,
          "internalType": "address",
          "name": "account",
          "type": "address"
        }
      ],
      "name": "Unpaused",
      "type": "event"
    },
    {
      "inputs": [],
      "name": "BLACK_HOLE",
      "outputs": [
        {
          "internalType": "address",
          "name": "",
          "type": "address"
        }
      ],
      "stateMutability": "view",
      "type": "function"
    },
    {
      "inputs": [],
      "name": "MAX_STARLEVEL",
      "outputs": [
        {
          "internalType": "uint256",
          "name": "",
          "type": "uint256"
        }
      ],
      "stateMutability": "view",
      "type": "function"
    },
    {
      "inputs": [],
      "name": "ORACLE_PRECISION",
      "outputs": [
        {
          "internalType": "uint256",
          "name": "",
          "type": "uint256"
        }
      ],
      "stateMutability": "view",
      "type": "function"
    },
    {
      "inputs": [],
      "name": "STARLEVEL_RANGE",
      "outputs": [
        {
          "internalType": "uint256",
          "name": "",
          "type": "uint256"
        }
      ],
      "stateMutability": "view",
      "type": "function"
    },
    {
      "inputs": [
        {
          "internalType": "address",
          "name": "",
          "type": "address"
        }
      ],
      "name": "allowToCallTb",
      "outputs": [
        {
          "internalType": "bool",
          "name": "",
          "type": "bool"
        }
      ],
      "stateMutability": "view",
      "type": "function"
    },
    {
      "inputs": [],
      "name": "bibContract",
      "outputs": [
        {
          "internalType": "contract IERC20",
          "name": "",
          "type": "address"
        }
      ],
      "stateMutability": "view",
      "type": "function"
    },
    {
      "inputs": [],
      "name": "busdContract",
      "outputs": [
        {
          "internalType": "contract IERC20",
          "name": "",
          "type": "address"
        }
      ],
      "stateMutability": "view",
      "type": "function"
    },
    {
      "inputs": [
        {
          "internalType": "uint256",
          "name": "bibAmount",
          "type": "uint256"
        }
      ],
      "name": "caculateBUSDAmount",
      "outputs": [
        {
          "internalType": "uint256",
          "name": "",
          "type": "uint256"
        }
      ],
      "stateMutability": "view",
      "type": "function"
    },
    {
      "inputs": [
        {
          "internalType": "uint256",
          "name": "starLevel",
          "type": "uint256"
        },
        {
          "internalType": "uint256",
          "name": "gradient",
          "type": "uint256"
        }
      ],
      "name": "caculateBurnAmount",
      "outputs": [
        {
          "internalType": "uint256",
          "name": "",
          "type": "uint256"
        }
      ],
      "stateMutability": "view",
      "type": "function"
    },
    {
      "inputs": [
        {
          "internalType": "uint256[]",
          "name": "tokenIds",
          "type": "uint256[]"
        },
        {
          "internalType": "enum IComposedSoccerStarNft.ComposeMode",
          "name": "mode",
          "type": "uint8"
        },
        {
          "internalType": "uint256",
          "name": "extralToken",
          "type": "uint256"
        },
        {
          "internalType": "enum IComposedSoccerStarNft.PayMethod",
          "name": "payMethod",
          "type": "uint8"
        }
      ],
      "name": "compose",
      "outputs": [],
      "stateMutability": "nonpayable",
      "type": "function"
    },
    {
      "inputs": [
        {
          "internalType": "uint256[12]",
          "name": "_feeRates",
          "type": "uint256[12]"
        }
      ],
      "name": "configFeeRate",
      "outputs": [],
      "stateMutability": "nonpayable",
      "type": "function"
    },
    {
      "inputs": [],
      "name": "deadline",
      "outputs": [
        {
          "internalType": "uint256",
          "name": "",
          "type": "uint256"
        }
      ],
      "stateMutability": "view",
      "type": "function"
    },
    {
      "inputs": [
        {
          "internalType": "uint256",
          "name": "",
          "type": "uint256"
        }
      ],
      "name": "feeRates",
      "outputs": [
        {
          "internalType": "uint256",
          "name": "",
          "type": "uint256"
        }
      ],
      "stateMutability": "view",
      "type": "function"
    },
    {
      "inputs": [
        {
          "internalType": "address",
          "name": "_tokenContract",
          "type": "address"
        },
        {
          "internalType": "address",
          "name": "_bibContract",
          "type": "address"
        },
        {
          "internalType": "address",
          "name": "_busdContract",
          "type": "address"
        },
        {
          "internalType": "address",
          "name": "_treasury",
          "type": "address"
        },
        {
          "internalType": "address",
          "name": "_router",
          "type": "address"
        }
      ],
      "name": "initialize",
      "outputs": [],
      "stateMutability": "nonpayable",
      "type": "function"
    },
    {
      "inputs": [],
      "name": "isActivityOpen",
      "outputs": [
        {
          "internalType": "bool",
          "name": "",
          "type": "bool"
        }
      ],
      "stateMutability": "view",
      "type": "function"
    },
    {
      "inputs": [],
      "name": "owner",
      "outputs": [
        {
          "internalType": "address",
          "name": "",
          "type": "address"
        }
      ],
      "stateMutability": "view",
      "type": "function"
    },
    {
      "inputs": [],
      "name": "paused",
      "outputs": [
        {
          "internalType": "bool",
          "name": "",
          "type": "bool"
        }
      ],
      "stateMutability": "view",
      "type": "function"
    },
    {
      "inputs": [],
      "name": "renounceOwnership",
      "outputs": [],
      "stateMutability": "nonpayable",
      "type": "function"
    },
    {
      "inputs": [],
      "name": "router",
      "outputs": [
        {
          "internalType": "contract IUniswapV2Router02",
          "name": "",
          "type": "address"
        }
      ],
      "stateMutability": "view",
      "type": "function"
    },
    {
      "inputs": [
        {
          "internalType": "uint256",
          "name": "_startup",
          "type": "uint256"
        },
        {
          "internalType": "uint256",
          "name": "_deadline",
          "type": "uint256"
        }
      ],
      "name": "setActivityTimeline",
      "outputs": [],
      "stateMutability": "nonpayable",
      "type": "function"
    },
    {
      "inputs": [
        {
          "internalType": "address",
          "name": "_caller",
          "type": "address"
        },
        {
          "internalType": "bool",
          "name": "value",
          "type": "bool"
        }
      ],
      "name": "setAllowToCall",
      "outputs": [],
      "stateMutability": "nonpayable",
      "type": "function"
    },
    {
      "inputs": [
        {
          "internalType": "address",
          "name": "_bibContract",
          "type": "address"
        }
      ],
      "name": "setBIBContract",
      "outputs": [],
      "stateMutability": "nonpayable",
      "type": "function"
    },
    {
      "inputs": [
        {
          "internalType": "address",
          "name": "_busdContract",
          "type": "address"
        }
      ],
      "name": "setBUSDContract",
      "outputs": [],
      "stateMutability": "nonpayable",
      "type": "function"
    },
    {
      "inputs": [
        {
          "internalType": "address",
          "name": "_router",
          "type": "address"
        }
      ],
      "name": "setSwapRouter",
      "outputs": [],
      "stateMutability": "nonpayable",
      "type": "function"
    },
    {
      "inputs": [
        {
          "internalType": "address",
          "name": "_tokenContract",
          "type": "address"
        }
      ],
      "name": "setTokenContract",
      "outputs": [],
      "stateMutability": "nonpayable",
      "type": "function"
    },
    {
      "inputs": [
        {
          "internalType": "address",
          "name": "_treasury",
          "type": "address"
        }
      ],
      "name": "setTreasury",
      "outputs": [],
      "stateMutability": "nonpayable",
      "type": "function"
    },
    {
      "inputs": [],
      "name": "startup",
      "outputs": [
        {
          "internalType": "uint256",
          "name": "",
          "type": "uint256"
        }
      ],
      "stateMutability": "view",
      "type": "function"
    },
    {
      "inputs": [],
      "name": "tokenContract",
      "outputs": [
        {
          "internalType": "contract ISoccerStarNft",
          "name": "",
          "type": "address"
        }
      ],
      "stateMutability": "view",
      "type": "function"
    },
    {
      "inputs": [
        {
          "internalType": "address",
          "name": "newOwner",
          "type": "address"
        }
      ],
      "name": "transferOwnership",
      "outputs": [],
      "stateMutability": "nonpayable",
      "type": "function"
    },
    {
      "inputs": [],
      "name": "treasury",
      "outputs": [
        {
          "internalType": "address",
          "name": "",
          "type": "address"
        }
      ],
      "stateMutability": "view",
      "type": "function"
    }
  ],
  "bytecode": "0x608060405234801561001057600080fd5b50612386806100206000396000f3fe608060405234801561001057600080fd5b50600436106101da5760003560e01c80638019566511610104578063b3892c64116100a2578063e217f67411610071578063e217f674146103b5578063f0f44260146103c8578063f2fde38b146103db578063f887ea40146103ee57600080fd5b8063b3892c6414610386578063bbcd5bbe1461038f578063cf9d101c146103a2578063d749ba051461023757600080fd5b8063aaa4a535116100de578063aaa4a53514610345578063ab331f4c1461034d578063af3ee80714610360578063b1806b9f1461037357600080fd5b806380195665146103025780638da5cb5b146103255780639c0d313f1461033657600080fd5b806355a373d61161017c5780636aafb3691161014b5780636aafb369146102c15780637092ebd0146102d4578063715018a6146102e75780637d2f3117146102ef57600080fd5b806355a373d61461027c57806355eda4e81461028f5780635c975abb1461029757806361d027b3146102ae57600080fd5b8063299f4a97116101b8578063299f4a971461023757806329dcb0cf1461024d5780634127365714610256578063524191471461026957600080fd5b80630d4870ba146101df57806310cc6bb9146101f45780631459457a14610224575b600080fd5b6101f26101ed366004611a57565b610401565b005b609854610207906001600160a01b031681565b6040516001600160a01b0390911681526020015b60405180910390f35b6101f2610232366004611a90565b610434565b61023f600481565b60405190815260200161021b565b61023f60a95481565b6101f2610264366004611b01565b610612565b6101f2610277366004611b01565b6106a9565b609754610207906001600160a01b031681565b610207600181565b60655460ff165b604051901515815260200161021b565b60a754610207906001600160a01b031681565b6101f26102cf366004611b8e565b610740565b61023f6102e2366004611c0d565b6107d2565b6101f26108ee565b6101f26102fd366004611c5e565b610902565b61029e610310366004611b01565b60aa6020526000908152604090205460ff1681565b6033546001600160a01b0316610207565b61023f670de0b6b3a764000081565b61029e610fcd565b61023f61035b366004611c0d565b610fe7565b61023f61036e366004611d20565b610ffe565b6101f2610381366004611d20565b6110d1565b61023f60a85481565b6101f261039d366004611b01565b6111ca565b609954610207906001600160a01b031681565b6101f26103c3366004611b01565b611261565b6101f26103d6366004611b01565b6112f8565b6101f26103e9366004611b01565b61138f565b609a54610207906001600160a01b031681565b610409611408565b6001600160a01b0391909116600090815260aa60205260409020805460ff1916911515919091179055565b600054600190610100900460ff16158015610456575060005460ff8083169116105b6104be5760405162461bcd60e51b815260206004820152602e60248201527f496e697469616c697a61626c653a20636f6e747261637420697320616c72656160448201526d191e481a5b9a5d1a585b1a5e995960921b60648201526084015b60405180910390fd5b6000805461ffff191660ff831617610100908117909155609780546001600160a01b03808a166001600160a01b031992831617909255609880548984169083161790556099805488841690831617905560a78054878416908316179055609a805492861692909116919091179055604080516101808101825262057e408152620b2390602082015262124f8091810191909152622191c06060820152621b774060808201526237b1d060a0820152625b8d8060c082015262a7d8c060e0820152628954409181019190915263011679106101208201526301c9c3806101408201526303473bc06101608201526105b890609b90600c6119d9565b506105c1611462565b6105c9611491565b6000805461ff001916905560405160ff821681527f7f26b83ff96e1f2b6a682f133852f6798a09c465da95921460cefb38474024989060200160405180910390a1505050505050565b61061a611408565b6001600160a01b0381166106405760405162461bcd60e51b81526004016104b590611d42565b609a546040517f183f98025cbbac2e9f8c6153c73ddf04d9fa1536073f40a880193842cd6e88fd9161067f9133916001600160a01b0316908590611d6a565b60405180910390a1609a80546001600160a01b0319166001600160a01b0392909216919091179055565b6106b1611408565b6001600160a01b0381166106d75760405162461bcd60e51b81526004016104b590611d42565b6099546040517f6aca743edeb4e0ea2946d2ebfd5a2328eca6b0f0250566cf6003c1724aef3377916107169133916001600160a01b0316908590611d6a565b60405180910390a1609980546001600160a01b0319166001600160a01b0392909216919091179055565b610748611408565b7fe97ac1a4b68cdbdabdfbabf29a683e697a3356894337673b8cbae6cd8b74338833609b8360405161077c93929190611d8d565b60405180910390a160005b600c8110156107ce578181600c81106107a2576107a2611df9565b6020020151609b82600c81106107ba576107ba611df9565b0155806107c681611e25565b915050610787565b5050565b60408051600280825260608201835260009283929190602083019080368337505060985482519293506001600160a01b03169183915060009061081757610817611df9565b6001600160a01b03928316602091820292909201015260995482519116908290600190811061084857610848611df9565b6001600160a01b039283166020918202929092010152609a5460405163d06ca61f60e01b815291169063d06ca61f906108879086908590600401611e40565b600060405180830381865afa1580156108a4573d6000803e3d6000fd5b505050506040513d6000823e601f3d908101601f191682016040526108cc9190810190611e97565b6001815181106108de576108de611df9565b6020026020010151915050919050565b6108f6611408565b61090060006114c0565b565b61090a611512565b835160041461094e5760405162461bcd60e51b815260206004820152601060248201526f4e4545445f464f55525f544f4b454e5360801b60448201526064016104b5565b6109728460008151811061096457610964611df9565b602002602001015185611558565b6109b75760405162461bcd60e51b81526020600482015260166024820152752722a2a22fa9a0a6a2afaa27a5a2a72fa82927a822a960511b60448201526064016104b5565b6109da846000815181106109cd576109cd611df9565b60200260200101516116b7565b610a1d5760405162461bcd60e51b81526020600482015260146024820152731391515117d313d5d15497d4d51054931155915360621b60448201526064016104b5565b610a2684611739565b60005b8451811015610acb5760975485516001600160a01b03909116906323b872dd903390600190899086908110610a6057610a60611df9565b60200260200101516040518463ffffffff1660e01b8152600401610a8693929190611f28565b600060405180830381600087803b158015610aa057600080fd5b505af1158015610ab4573d6000803e3d6000fd5b505050508080610ac390611e25565b915050610a29565b5060975484516000916001600160a01b031690631ff8f7309087908490610af457610af4611df9565b60200260200101516040518263ffffffff1660e01b8152600401610b1a91815260200190565b600060405180830381865afa158015610b37573d6000803e3d6000fd5b505050506040513d6000823e601f3d908101601f19168201604052610b5f9190810190611fe8565b90506000846001811115610b7557610b756120b4565b610cb2576097546040516331a9108f60e11b8152600481018690526001600160a01b0390911690636352211e90602401602060405180830381865afa158015610bc2573d6000803e3d6000fd5b505050506040513d601f19601f82011682018060405250810190610be691906120ca565b6001600160a01b0316336001600160a01b031614610c465760405162461bcd60e51b815260206004820152601a60248201527f544f4b454e5f4e4f545f42454c4c4f575f544f5f53454e44455200000000000060448201526064016104b5565b6097546040516323b872dd60e01b81526001600160a01b03909116906323b872dd90610c7b9033906001908990600401611f28565b600060405180830381600087803b158015610c9557600080fd5b505af1158015610ca9573d6000803e3d6000fd5b50505050610e30565b610cba610fcd565b610cff5760405162461bcd60e51b81526020600482015260166024820152751050d5125592551657d254d7d393d517d3d41153915160521b60448201526064016104b5565b610d1182606001518360800151610ffe565b9050826001811115610d2557610d256120b4565b610da7576098546040516323b872dd60e01b81526001600160a01b03909116906323b872dd90610d5e9033906001908690600401611f28565b6020604051808303816000875af1158015610d7d573d6000803e3d6000fd5b505050506040513d601f19601f82011682018060405250810190610da191906120e7565b50610e30565b610db0816107d2565b60995460a7546040516323b872dd60e01b81529293506001600160a01b03918216926323b872dd92610deb9233929116908690600401611f28565b6020604051808303816000875af1158015610e0a573d6000803e3d6000fd5b505050506040513d601f19601f82011682018060405250810190610e2e91906120e7565b505b60975460408051632dd585af60e01b815290516000926001600160a01b031691632dd585af916004808301926020929190829003018187875af1158015610e7b573d6000803e3d6000fd5b505050506040513d601f19601f82011682018060405250810190610e9f9190612104565b9050600183606001818151610eb4919061211d565b90525060975460405163316a2fbf60e11b81526001600160a01b03909116906362d45f7e90610ee99084908790600401612161565b600060405180830381600087803b158015610f0357600080fd5b505af1158015610f17573d6000803e3d6000fd5b50506097546040516323b872dd60e01b81526001600160a01b0390911692506323b872dd9150610f4f90309033908690600401611f28565b600060405180830381600087803b158015610f6957600080fd5b505af1158015610f7d573d6000803e3d6000fd5b505050507f53d58f34642a06ed0588fe4051315d64b1326fdd2b13c9f4c9d0f5d49783045c338887848a8988604051610fbc97969594939291906121ff565b60405180910390a150505050505050565b600060a8544210158015610fe2575060a95442105b905090565b609b81600c8110610ff757600080fd5b0154905081565b600080609860009054906101000a90046001600160a01b03166001600160a01b031663313ce5676040518163ffffffff1660e01b8152600401602060405180830381865afa158015611054573d6000803e3d6000fd5b505050506040513d601f19601f82011682018060405250810190611078919061228a565b60ff1690506110c781609b61108e6001876122ad565b600461109b60018a6122ad565b6110a591906122c4565b6110af919061211d565b600c81106110bf576110bf611df9565b015490611847565b9150505b92915050565b33600090815260aa602052604090205460ff16806110f957506033546001600160a01b031633145b61113a5760405162461bcd60e51b815260206004820152601260248201527127a7262cafa822a926a4aa2fa1a0a62622a960711b60448201526064016104b5565b42821161117d5760405162461bcd60e51b8152602060048201526011602482015270535441525455505f544f4f5f4541524c5960781b60448201526064016104b5565b8181116111bf5760405162461bcd60e51b815260206004820152601060248201526f494e56414c49445f444541444c494e4560801b60448201526064016104b5565b60a89190915560a955565b6111d2611408565b6001600160a01b0381166111f85760405162461bcd60e51b81526004016104b590611d42565b6097546040517f5debc9a579ebcaf3dcc7526051ee83a5686ec09736fd9aa41e7833ec368e5bb4916112379133916001600160a01b0316908590611d6a565b60405180910390a1609780546001600160a01b0319166001600160a01b0392909216919091179055565b611269611408565b6001600160a01b03811661128f5760405162461bcd60e51b81526004016104b590611d42565b6098546040517f55263a2c34e1ca945ec24e98ab7634dfbdea3867d19adaac6da2ad9381018d39916112ce9133916001600160a01b0316908590611d6a565b60405180910390a1609880546001600160a01b0319166001600160a01b0392909216919091179055565b611300611408565b6001600160a01b0381166113265760405162461bcd60e51b81526004016104b590611d42565b60a7546040517f749a8050935feb73a55ab4641c867c4dacc84430990fcaada1d12ba9072ad02e916113659133916001600160a01b0316908590611d6a565b60405180910390a160a780546001600160a01b0319166001600160a01b0392909216919091179055565b611397611408565b6001600160a01b0381166113fc5760405162461bcd60e51b815260206004820152602660248201527f4f776e61626c653a206e6577206f776e657220697320746865207a65726f206160448201526564647265737360d01b60648201526084016104b5565b611405816114c0565b50565b6033546001600160a01b031633146109005760405162461bcd60e51b815260206004820181905260248201527f4f776e61626c653a2063616c6c6572206973206e6f7420746865206f776e657260448201526064016104b5565b600054610100900460ff166114895760405162461bcd60e51b81526004016104b5906122e3565b610900611880565b600054610100900460ff166114b85760405162461bcd60e51b81526004016104b5906122e3565b6109006118b3565b603380546001600160a01b038381166001600160a01b0319831681179093556040519116919082907f8be0079c531659141344cd1fd0a4f28419497f9722a3daafe3b4186f6b6457e090600090a35050565b60655460ff16156109005760405162461bcd60e51b815260206004820152601060248201526f14185d5cd8589b194e881c185d5cd95960821b60448201526064016104b5565b600081516000141561156c575060006110cb565b6097546040516301ff8f7360e41b8152600481018590526000916001600160a01b031690631ff8f73090602401600060405180830381865afa1580156115b6573d6000803e3d6000fd5b505050506040513d6000823e601f3d908101601f191682016040526115de9190810190611fe8565b905060005b83518110156116ac57609754845161168b9184916001600160a01b0390911690631ff8f7309088908690811061161b5761161b611df9565b60200260200101516040518263ffffffff1660e01b815260040161164191815260200190565b600060405180830381865afa15801561165e573d6000803e3d6000fd5b505050506040513d6000823e601f3d908101601f191682016040526116869190810190611fe8565b6118e3565b61169a576000925050506110cb565b806116a481611e25565b9150506115e3565b506001949350505050565b6097546040516301ff8f7360e41b8152600480820184905260009290916001600160a01b0390911690631ff8f73090602401600060405180830381865afa158015611706573d6000803e3d6000fd5b505050506040513d6000823e601f3d908101601f1916820160405261172e9190810190611fe8565b606001511092915050565b60005b81518110156107ce5760975482516001600160a01b0390911690636352211e9084908490811061176e5761176e611df9565b60200260200101516040518263ffffffff1660e01b815260040161179491815260200190565b602060405180830381865afa1580156117b1573d6000803e3d6000fd5b505050506040513d601f19601f820116820180604052508101906117d591906120ca565b6001600160a01b0316336001600160a01b0316146118355760405162461bcd60e51b815260206004820152601a60248201527f544f4b454e5f4e4f545f42454c4c4f575f544f5f53454e44455200000000000060448201526064016104b5565b8061183f81611e25565b91505061173c565b6000600160005b838110156118755761186182600a61195a565b91508061186d81611e25565b91505061184e565b506110c7848261195a565b600054610100900460ff166118a75760405162461bcd60e51b81526004016104b5906122e3565b6065805460ff19169055565b600054610100900460ff166118da5760405162461bcd60e51b81526004016104b5906122e3565b610900336114c0565b600081600001518051906020012083600001518051906020012014801561191f5750816020015180519060200120836020015180519060200120145b80156119405750816040015180519060200120836040015180519060200120145b8015611953575081608001518360800151145b9392505050565b600082611969575060006110cb565b600061197583856122c4565b905082611982858361232e565b146119535760405162461bcd60e51b815260206004820152602160248201527f536166654d6174683a206d756c7469706c69636174696f6e206f766572666c6f6044820152607760f81b60648201526084016104b5565b82600c8101928215611a0f579160200282015b82811115611a0f578251829063ffffffff169055916020019190600101906119ec565b50611a1b929150611a1f565b5090565b5b80821115611a1b5760008155600101611a20565b6001600160a01b038116811461140557600080fd5b801515811461140557600080fd5b60008060408385031215611a6a57600080fd5b8235611a7581611a34565b91506020830135611a8581611a49565b809150509250929050565b600080600080600060a08688031215611aa857600080fd5b8535611ab381611a34565b94506020860135611ac381611a34565b93506040860135611ad381611a34565b92506060860135611ae381611a34565b91506080860135611af381611a34565b809150509295509295909350565b600060208284031215611b1357600080fd5b813561195381611a34565b634e487b7160e01b600052604160045260246000fd5b60405160a0810167ffffffffffffffff81118282101715611b5757611b57611b1e565b60405290565b604051601f8201601f1916810167ffffffffffffffff81118282101715611b8657611b86611b1e565b604052919050565b6000610180808385031215611ba257600080fd5b83601f840112611bb157600080fd5b60405181810181811067ffffffffffffffff82111715611bd357611bd3611b1e565b604052908301908085831115611be857600080fd5b845b83811015611c02578035825260209182019101611bea565b509095945050505050565b600060208284031215611c1f57600080fd5b5035919050565b600067ffffffffffffffff821115611c4057611c40611b1e565b5060051b60200190565b803560028110611c5957600080fd5b919050565b60008060008060808587031215611c7457600080fd5b843567ffffffffffffffff811115611c8b57600080fd5b8501601f81018713611c9c57600080fd5b80356020611cb1611cac83611c26565b611b5d565b82815260059290921b8301810191818101908a841115611cd057600080fd5b938201935b83851015611cee57843582529382019390820190611cd5565b9750611cfd9050888201611c4a565b955050505060408501359150611d1560608601611c4a565b905092959194509250565b60008060408385031215611d3357600080fd5b50508035926020909101359150565b6020808252600e908201526d494e564c49445f4144445245535360901b604082015260600190565b6001600160a01b0393841681529183166020830152909116604082015260600190565b6001600160a01b0384168152610320810160208083018560005b600c811015611dc457815483529183019160019182019101611da7565b5050506101a083018460005b600c811015611ded57815183529183019190830190600101611dd0565b50505050949350505050565b634e487b7160e01b600052603260045260246000fd5b634e487b7160e01b600052601160045260246000fd5b6000600019821415611e3957611e39611e0f565b5060010190565b6000604082018483526020604081850152818551808452606086019150828701935060005b81811015611e8a5784516001600160a01b031683529383019391830191600101611e65565b5090979650505050505050565b60006020808385031215611eaa57600080fd5b825167ffffffffffffffff811115611ec157600080fd5b8301601f81018513611ed257600080fd5b8051611ee0611cac82611c26565b81815260059190911b82018301908381019087831115611eff57600080fd5b928401925b82841015611f1d57835182529284019290840190611f04565b979650505050505050565b6001600160a01b039384168152919092166020820152604081019190915260600190565b60005b83811015611f67578181015183820152602001611f4f565b83811115611f76576000848401525b50505050565b600082601f830112611f8d57600080fd5b815167ffffffffffffffff811115611fa757611fa7611b1e565b611fba601f8201601f1916602001611b5d565b818152846020838601011115611fcf57600080fd5b611fe0826020830160208701611f4c565b949350505050565b600060208284031215611ffa57600080fd5b815167ffffffffffffffff8082111561201257600080fd5b9083019060a0828603121561202657600080fd5b61202e611b34565b82518281111561203d57600080fd5b61204987828601611f7c565b82525060208301518281111561205e57600080fd5b61206a87828601611f7c565b60208301525060408301518281111561208257600080fd5b61208e87828601611f7c565b604083015250606083015160608201526080830151608082015280935050505092915050565b634e487b7160e01b600052602160045260246000fd5b6000602082840312156120dc57600080fd5b815161195381611a34565b6000602082840312156120f957600080fd5b815161195381611a49565b60006020828403121561211657600080fd5b5051919050565b6000821982111561213057612130611e0f565b500190565b6000815180845261214d816020860160208601611f4c565b601f01601f19169290920160200192915050565b828152604060208201526000825160a0604084015261218360e0840182612135565b90506020840151603f19808584030160608601526121a18383612135565b92506040860151915080858403016080860152506121bf8282612135565b915050606084015160a0840152608084015160c0840152809150509392505050565b6002811061140557634e487b7160e01b600052602160045260246000fd5b6001600160a01b038816815260e0602080830182905288519183018290526000918982019190610100850190845b818110156122495784518352938301939183019160010161222d565b5050809350505050866040830152856060830152612266856121e1565b846080830152612275846121e1565b60a082019390935260c0015295945050505050565b60006020828403121561229c57600080fd5b815160ff8116811461195357600080fd5b6000828210156122bf576122bf611e0f565b500390565b60008160001904831182151516156122de576122de611e0f565b500290565b6020808252602b908201527f496e697469616c697a61626c653a20636f6e7472616374206973206e6f74206960408201526a6e697469616c697a696e6760a81b606082015260800190565b60008261234b57634e487b7160e01b600052601260045260246000fd5b50049056fea26469706673582212207c58755086adafd8d9551a474a75e4c95d88aadf2f76aecfe7be21f36c04d90164736f6c634300080b0033",
  "linkReferences": {},
  "deployedLinkReferences": {}
}