{
  "_format": "hh-sol-artifact-1",
  "contractName": "BIBDividendHarness",
  "sourceName": "contracts/test/BIBDividendHarness.sol",
  "abi": [
    {
      "anonymous": false,
      "inputs": [
        {
          "indexed": true,
          "internalType": "uint256",
          "name": "newValue",
          "type": "uint256"
        },
        {
          "indexed": true,
          "internalType": "uint256",
          "name": "oldValue",
          "type": "uint256"
        }
      ],
      "name": "ClaimWaitUpdated",
      "type": "event"
    },
    {
      "anonymous": false,
      "inputs": [
        {
          "indexed": false,
          "internalType": "uint256",
          "name": "dripRatePerSecond",
          "type": "uint256"
        }
      ],
      "name": "DripRateChanged",
      "type": "event"
    },
    {
      "anonymous": false,
      "inputs": [
        {
          "indexed": false,
          "internalType": "uint8",
          "name": "version",
          "type": "uint8"
        }
      ],
      "name": "Initialized",
      "type": "event"
    },
    {
      "anonymous": false,
      "inputs": [
        {
          "indexed": true,
          "internalType": "address",
          "name": "user",
          "type": "address"
        },
        {
          "indexed": false,
          "internalType": "uint256",
          "name": "newTokens",
          "type": "uint256"
        }
      ],
      "name": "NodeClaimed",
      "type": "event"
    },
    {
      "anonymous": false,
      "inputs": [
        {
          "indexed": false,
          "internalType": "uint256",
          "name": "nodeRate",
          "type": "uint256"
        }
      ],
      "name": "NodeRateChange",
      "type": "event"
    },
    {
      "anonymous": false,
      "inputs": [
        {
          "indexed": true,
          "internalType": "address",
          "name": "previousOwner",
          "type": "address"
        },
        {
          "indexed": true,
          "internalType": "address",
          "name": "newOwner",
          "type": "address"
        }
      ],
      "name": "OwnershipTransferred",
      "type": "event"
    },
    {
      "anonymous": false,
      "inputs": [
        {
          "indexed": true,
          "internalType": "address",
          "name": "user",
          "type": "address"
        },
        {
          "indexed": false,
          "internalType": "uint256",
          "name": "newTokens",
          "type": "uint256"
        }
      ],
      "name": "UserClaimed",
      "type": "event"
    },
    {
      "anonymous": false,
      "inputs": [
        {
          "indexed": true,
          "internalType": "address",
          "name": "to",
          "type": "address"
        },
        {
          "indexed": false,
          "internalType": "uint256",
          "name": "amount",
          "type": "uint256"
        }
      ],
      "name": "Withdrawn",
      "type": "event"
    },
    {
      "inputs": [
        {
          "components": [
            {
              "internalType": "uint256",
              "name": "lastExchangeRateMantissa",
              "type": "uint256"
            },
            {
              "internalType": "uint256",
              "name": "balance",
              "type": "uint256"
            },
            {
              "internalType": "uint256",
              "name": "totalClaim",
              "type": "uint256"
            },
            {
              "internalType": "uint256",
              "name": "unClaim",
              "type": "uint256"
            },
            {
              "internalType": "uint256",
              "name": "lastDividendPerShare",
              "type": "uint256"
            }
          ],
          "internalType": "struct BIBDividend.ExState",
          "name": "userState",
          "type": "tuple"
        },
        {
          "internalType": "uint256",
          "name": "_exchangeRateMantissa",
          "type": "uint256"
        },
        {
          "internalType": "uint256",
          "name": "_dividendPerShare",
          "type": "uint256"
        }
      ],
      "name": "_getUserAllRewards",
      "outputs": [
        {
          "internalType": "uint256",
          "name": "",
          "type": "uint256"
        }
      ],
      "stateMutability": "pure",
      "type": "function"
    },
    {
      "inputs": [],
      "name": "asset",
      "outputs": [
        {
          "internalType": "contract IERC20Upgradeable",
          "name": "",
          "type": "address"
        }
      ],
      "stateMutability": "view",
      "type": "function"
    },
    {
      "inputs": [],
      "name": "claimWait",
      "outputs": [
        {
          "internalType": "uint256",
          "name": "",
          "type": "uint256"
        }
      ],
      "stateMutability": "view",
      "type": "function"
    },
    {
      "inputs": [],
      "name": "controller",
      "outputs": [
        {
          "internalType": "address",
          "name": "",
          "type": "address"
        }
      ],
      "stateMutability": "view",
      "type": "function"
    },
    {
      "inputs": [],
      "name": "currentTime",
      "outputs": [
        {
          "internalType": "uint32",
          "name": "",
          "type": "uint32"
        }
      ],
      "stateMutability": "view",
      "type": "function"
    },
    {
      "inputs": [
        {
          "internalType": "address",
          "name": "nodeOwner",
          "type": "address"
        },
        {
          "internalType": "uint256",
          "name": "ticketId",
          "type": "uint256"
        }
      ],
      "name": "disbandNode",
      "outputs": [],
      "stateMutability": "nonpayable",
      "type": "function"
    },
    {
      "inputs": [
        {
          "internalType": "uint256",
          "name": "amount",
          "type": "uint256"
        }
      ],
      "name": "distributeDividends",
      "outputs": [],
      "stateMutability": "nonpayable",
      "type": "function"
    },
    {
      "inputs": [],
      "name": "dividendSetter",
      "outputs": [
        {
          "internalType": "address",
          "name": "",
          "type": "address"
        }
      ],
      "stateMutability": "view",
      "type": "function"
    },
    {
      "inputs": [],
      "name": "drip",
      "outputs": [
        {
          "internalType": "uint256",
          "name": "",
          "type": "uint256"
        }
      ],
      "stateMutability": "nonpayable",
      "type": "function"
    },
    {
      "inputs": [],
      "name": "dripRatePerSecond",
      "outputs": [
        {
          "internalType": "uint256",
          "name": "",
          "type": "uint256"
        }
      ],
      "stateMutability": "view",
      "type": "function"
    },
    {
      "inputs": [
        {
          "internalType": "address",
          "name": "_account",
          "type": "address"
        }
      ],
      "name": "getAccount",
      "outputs": [
        {
          "internalType": "address",
          "name": "account",
          "type": "address"
        },
        {
          "internalType": "int256",
          "name": "index",
          "type": "int256"
        },
        {
          "internalType": "int256",
          "name": "iterationsUntilProcessed",
          "type": "int256"
        },
        {
          "internalType": "uint256",
          "name": "withdrawableDividends",
          "type": "uint256"
        },
        {
          "internalType": "uint256",
          "name": "totalDividends",
          "type": "uint256"
        },
        {
          "internalType": "uint256",
          "name": "lastClaimTime",
          "type": "uint256"
        },
        {
          "internalType": "uint256",
          "name": "nextClaimTime",
          "type": "uint256"
        },
        {
          "internalType": "uint256",
          "name": "secondsUntilAutoClaimAvailable",
          "type": "uint256"
        }
      ],
      "stateMutability": "view",
      "type": "function"
    },
    {
      "inputs": [
        {
          "internalType": "uint256",
          "name": "index",
          "type": "uint256"
        }
      ],
      "name": "getAccountAtIndex",
      "outputs": [
        {
          "internalType": "address",
          "name": "",
          "type": "address"
        },
        {
          "internalType": "int256",
          "name": "",
          "type": "int256"
        },
        {
          "internalType": "int256",
          "name": "",
          "type": "int256"
        },
        {
          "internalType": "uint256",
          "name": "",
          "type": "uint256"
        },
        {
          "internalType": "uint256",
          "name": "",
          "type": "uint256"
        },
        {
          "internalType": "uint256",
          "name": "",
          "type": "uint256"
        },
        {
          "internalType": "uint256",
          "name": "",
          "type": "uint256"
        },
        {
          "internalType": "uint256",
          "name": "",
          "type": "uint256"
        }
      ],
      "stateMutability": "view",
      "type": "function"
    },
    {
      "inputs": [],
      "name": "getLastProcessedIndex",
      "outputs": [
        {
          "internalType": "uint256",
          "name": "",
          "type": "uint256"
        }
      ],
      "stateMutability": "view",
      "type": "function"
    },
    {
      "inputs": [
        {
          "internalType": "address",
          "name": "user",
          "type": "address"
        }
      ],
      "name": "getNodeUnClaim",
      "outputs": [
        {
          "internalType": "uint256",
          "name": "",
          "type": "uint256"
        }
      ],
      "stateMutability": "view",
      "type": "function"
    },
    {
      "inputs": [
        {
          "internalType": "address[]",
          "name": "users",
          "type": "address[]"
        }
      ],
      "name": "getNodesAllRewards",
      "outputs": [
        {
          "internalType": "uint256[]",
          "name": "rewards",
          "type": "uint256[]"
        }
      ],
      "stateMutability": "view",
      "type": "function"
    },
    {
      "inputs": [
        {
          "internalType": "address[]",
          "name": "users",
          "type": "address[]"
        }
      ],
      "name": "getNodesUnClaim",
      "outputs": [
        {
          "internalType": "uint256[]",
          "name": "unClaims",
          "type": "uint256[]"
        }
      ],
      "stateMutability": "view",
      "type": "function"
    },
    {
      "inputs": [],
      "name": "getNumberOfTokenHolders",
      "outputs": [
        {
          "internalType": "uint256",
          "name": "",
          "type": "uint256"
        }
      ],
      "stateMutability": "view",
      "type": "function"
    },
    {
      "inputs": [
        {
          "internalType": "address",
          "name": "_user",
          "type": "address"
        }
      ],
      "name": "getUserApr",
      "outputs": [
        {
          "internalType": "uint256",
          "name": "",
          "type": "uint256"
        }
      ],
      "stateMutability": "view",
      "type": "function"
    },
    {
      "inputs": [
        {
          "internalType": "address",
          "name": "user",
          "type": "address"
        }
      ],
      "name": "getUserUnClaim",
      "outputs": [
        {
          "internalType": "uint256",
          "name": "newTokens",
          "type": "uint256"
        }
      ],
      "stateMutability": "view",
      "type": "function"
    },
    {
      "inputs": [
        {
          "internalType": "address",
          "name": "user",
          "type": "address"
        }
      ],
      "name": "getUserUnClaimWithNode",
      "outputs": [
        {
          "internalType": "uint256[]",
          "name": "_nodeList",
          "type": "uint256[]"
        },
        {
          "internalType": "uint256[]",
          "name": "_rewardsList",
          "type": "uint256[]"
        }
      ],
      "stateMutability": "view",
      "type": "function"
    },
    {
      "inputs": [
        {
          "internalType": "address[]",
          "name": "users",
          "type": "address[]"
        }
      ],
      "name": "getUsersAllRewards",
      "outputs": [
        {
          "internalType": "uint256[]",
          "name": "rewards",
          "type": "uint256[]"
        }
      ],
      "stateMutability": "view",
      "type": "function"
    },
    {
      "inputs": [
        {
          "internalType": "address[]",
          "name": "users",
          "type": "address[]"
        }
      ],
      "name": "getUsersUnClaim",
      "outputs": [
        {
          "internalType": "uint256[]",
          "name": "unClaims",
          "type": "uint256[]"
        }
      ],
      "stateMutability": "view",
      "type": "function"
    },
    {
      "inputs": [
        {
          "internalType": "uint256",
          "name": "amount",
          "type": "uint256"
        }
      ],
      "name": "handleReceive",
      "outputs": [],
      "stateMutability": "nonpayable",
      "type": "function"
    },
    {
      "inputs": [
        {
          "internalType": "contract IERC20Upgradeable",
          "name": "_asset",
          "type": "address"
        },
        {
          "internalType": "uint256",
          "name": "_dripRatePerSecond",
          "type": "uint256"
        }
      ],
      "name": "initialize",
      "outputs": [],
      "stateMutability": "nonpayable",
      "type": "function"
    },
    {
      "inputs": [
        {
          "internalType": "address",
          "name": "",
          "type": "address"
        }
      ],
      "name": "lastClaimTimes",
      "outputs": [
        {
          "internalType": "uint256",
          "name": "",
          "type": "uint256"
        }
      ],
      "stateMutability": "view",
      "type": "function"
    },
    {
      "inputs": [],
      "name": "lastDripTimestamp",
      "outputs": [
        {
          "internalType": "uint32",
          "name": "",
          "type": "uint32"
        }
      ],
      "stateMutability": "view",
      "type": "function"
    },
    {
      "inputs": [],
      "name": "lastProcessedIndex",
      "outputs": [
        {
          "internalType": "uint256",
          "name": "",
          "type": "uint256"
        }
      ],
      "stateMutability": "view",
      "type": "function"
    },
    {
      "inputs": [],
      "name": "minimumTokenBalanceForDividends",
      "outputs": [
        {
          "internalType": "uint256",
          "name": "",
          "type": "uint256"
        }
      ],
      "stateMutability": "view",
      "type": "function"
    },
    {
      "inputs": [
        {
          "internalType": "address",
          "name": "user",
          "type": "address"
        }
      ],
      "name": "nodeClaim",
      "outputs": [
        {
          "internalType": "uint256",
          "name": "",
          "type": "uint256"
        }
      ],
      "stateMutability": "nonpayable",
      "type": "function"
    },
    {
      "inputs": [],
      "name": "nodeDividendPerShare",
      "outputs": [
        {
          "internalType": "uint256",
          "name": "",
          "type": "uint256"
        }
      ],
      "stateMutability": "view",
      "type": "function"
    },
    {
      "inputs": [],
      "name": "nodeExchangeRateMantissa",
      "outputs": [
        {
          "internalType": "uint256",
          "name": "",
          "type": "uint256"
        }
      ],
      "stateMutability": "view",
      "type": "function"
    },
    {
      "inputs": [],
      "name": "nodeRate",
      "outputs": [
        {
          "internalType": "uint256",
          "name": "",
          "type": "uint256"
        }
      ],
      "stateMutability": "view",
      "type": "function"
    },
    {
      "inputs": [
        {
          "internalType": "address",
          "name": "",
          "type": "address"
        }
      ],
      "name": "nodeStates",
      "outputs": [
        {
          "internalType": "uint256",
          "name": "lastExchangeRateMantissa",
          "type": "uint256"
        },
        {
          "internalType": "uint256",
          "name": "balance",
          "type": "uint256"
        },
        {
          "internalType": "uint256",
          "name": "totalClaim",
          "type": "uint256"
        },
        {
          "internalType": "uint256",
          "name": "unClaim",
          "type": "uint256"
        },
        {
          "internalType": "uint256",
          "name": "lastDividendPerShare",
          "type": "uint256"
        }
      ],
      "stateMutability": "view",
      "type": "function"
    },
    {
      "inputs": [],
      "name": "nodeTotalStake",
      "outputs": [
        {
          "internalType": "uint256",
          "name": "",
          "type": "uint256"
        }
      ],
      "stateMutability": "view",
      "type": "function"
    },
    {
      "inputs": [
        {
          "internalType": "uint256",
          "name": "",
          "type": "uint256"
        }
      ],
      "name": "nodeWeight",
      "outputs": [
        {
          "internalType": "uint256",
          "name": "",
          "type": "uint256"
        }
      ],
      "stateMutability": "view",
      "type": "function"
    },
    {
      "inputs": [],
      "name": "owner",
      "outputs": [
        {
          "internalType": "address",
          "name": "",
          "type": "address"
        }
      ],
      "stateMutability": "view",
      "type": "function"
    },
    {
      "inputs": [
        {
          "internalType": "uint256",
          "name": "gas",
          "type": "uint256"
        }
      ],
      "name": "process",
      "outputs": [
        {
          "internalType": "uint256",
          "name": "",
          "type": "uint256"
        },
        {
          "internalType": "uint256",
          "name": "",
          "type": "uint256"
        },
        {
          "internalType": "uint256",
          "name": "",
          "type": "uint256"
        }
      ],
      "stateMutability": "nonpayable",
      "type": "function"
    },
    {
      "inputs": [
        {
          "internalType": "address",
          "name": "account",
          "type": "address"
        },
        {
          "internalType": "bool",
          "name": "automatic",
          "type": "bool"
        }
      ],
      "name": "processAccount",
      "outputs": [
        {
          "internalType": "bool",
          "name": "",
          "type": "bool"
        }
      ],
      "stateMutability": "nonpayable",
      "type": "function"
    },
    {
      "inputs": [],
      "name": "renounceOwnership",
      "outputs": [],
      "stateMutability": "nonpayable",
      "type": "function"
    },
    {
      "inputs": [
        {
          "internalType": "address",
          "name": "_asset",
          "type": "address"
        }
      ],
      "name": "setAsset",
      "outputs": [],
      "stateMutability": "nonpayable",
      "type": "function"
    },
    {
      "inputs": [
        {
          "internalType": "address",
          "name": "_cntr",
          "type": "address"
        }
      ],
      "name": "setController",
      "outputs": [],
      "stateMutability": "nonpayable",
      "type": "function"
    },
    {
      "inputs": [
        {
          "internalType": "uint32",
          "name": "_currentTime",
          "type": "uint32"
        }
      ],
      "name": "setCurrentTime",
      "outputs": [],
      "stateMutability": "nonpayable",
      "type": "function"
    },
    {
      "inputs": [
        {
          "internalType": "address",
          "name": "_setter",
          "type": "address"
        }
      ],
      "name": "setDividendSetter",
      "outputs": [],
      "stateMutability": "nonpayable",
      "type": "function"
    },
    {
      "inputs": [
        {
          "internalType": "uint256",
          "name": "_dripRatePerSecond",
          "type": "uint256"
        }
      ],
      "name": "setDripRatePerSecond",
      "outputs": [],
      "stateMutability": "nonpayable",
      "type": "function"
    },
    {
      "inputs": [
        {
          "internalType": "address",
          "name": "nodeOwner",
          "type": "address"
        },
        {
          "internalType": "uint256",
          "name": "amount",
          "type": "uint256"
        },
        {
          "internalType": "uint256",
          "name": "ticketId",
          "type": "uint256"
        },
        {
          "internalType": "uint256",
          "name": "weight",
          "type": "uint256"
        }
      ],
      "name": "setNodeBalance",
      "outputs": [],
      "stateMutability": "nonpayable",
      "type": "function"
    },
    {
      "inputs": [
        {
          "internalType": "uint256",
          "name": "_nodeRate",
          "type": "uint256"
        }
      ],
      "name": "setNodeRate",
      "outputs": [],
      "stateMutability": "nonpayable",
      "type": "function"
    },
    {
      "inputs": [
        {
          "internalType": "address",
          "name": "user",
          "type": "address"
        },
        {
          "internalType": "uint256",
          "name": "ticketId",
          "type": "uint256"
        },
        {
          "internalType": "uint256",
          "name": "amount",
          "type": "uint256"
        }
      ],
      "name": "setUserBalance",
      "outputs": [],
      "stateMutability": "nonpayable",
      "type": "function"
    },
    {
      "inputs": [],
      "name": "totalDividendsDistributed",
      "outputs": [
        {
          "internalType": "uint256",
          "name": "",
          "type": "uint256"
        }
      ],
      "stateMutability": "view",
      "type": "function"
    },
    {
      "inputs": [],
      "name": "totalDrip",
      "outputs": [
        {
          "internalType": "uint256",
          "name": "",
          "type": "uint256"
        }
      ],
      "stateMutability": "view",
      "type": "function"
    },
    {
      "inputs": [
        {
          "internalType": "address",
          "name": "olduser",
          "type": "address"
        },
        {
          "internalType": "address",
          "name": "newUser",
          "type": "address"
        }
      ],
      "name": "transferNode",
      "outputs": [],
      "stateMutability": "nonpayable",
      "type": "function"
    },
    {
      "inputs": [
        {
          "internalType": "address",
          "name": "newOwner",
          "type": "address"
        }
      ],
      "name": "transferOwnership",
      "outputs": [],
      "stateMutability": "nonpayable",
      "type": "function"
    },
    {
      "inputs": [
        {
          "internalType": "uint256",
          "name": "newClaimWait",
          "type": "uint256"
        }
      ],
      "name": "updateClaimWait",
      "outputs": [],
      "stateMutability": "nonpayable",
      "type": "function"
    },
    {
      "inputs": [
        {
          "internalType": "address",
          "name": "user",
          "type": "address"
        }
      ],
      "name": "userClaim",
      "outputs": [
        {
          "internalType": "uint256",
          "name": "",
          "type": "uint256"
        }
      ],
      "stateMutability": "nonpayable",
      "type": "function"
    },
    {
      "inputs": [],
      "name": "userDividendPerShare",
      "outputs": [
        {
          "internalType": "uint256",
          "name": "",
          "type": "uint256"
        }
      ],
      "stateMutability": "view",
      "type": "function"
    },
    {
      "inputs": [],
      "name": "userExchangeRateMantissa",
      "outputs": [
        {
          "internalType": "uint256",
          "name": "",
          "type": "uint256"
        }
      ],
      "stateMutability": "view",
      "type": "function"
    },
    {
      "inputs": [
        {
          "internalType": "uint256",
          "name": "",
          "type": "uint256"
        }
      ],
      "name": "userNodeDividendPerShare",
      "outputs": [
        {
          "internalType": "uint256",
          "name": "",
          "type": "uint256"
        }
      ],
      "stateMutability": "view",
      "type": "function"
    },
    {
      "inputs": [
        {
          "internalType": "uint256",
          "name": "",
          "type": "uint256"
        }
      ],
      "name": "userNodeRateMantissa",
      "outputs": [
        {
          "internalType": "uint256",
          "name": "",
          "type": "uint256"
        }
      ],
      "stateMutability": "view",
      "type": "function"
    },
    {
      "inputs": [
        {
          "internalType": "uint256",
          "name": "",
          "type": "uint256"
        }
      ],
      "name": "userNodeStates",
      "outputs": [
        {
          "internalType": "uint256",
          "name": "lastExchangeRateMantissa",
          "type": "uint256"
        },
        {
          "internalType": "uint256",
          "name": "balance",
          "type": "uint256"
        },
        {
          "internalType": "uint256",
          "name": "totalClaim",
          "type": "uint256"
        },
        {
          "internalType": "uint256",
          "name": "unClaim",
          "type": "uint256"
        },
        {
          "internalType": "uint256",
          "name": "lastDividendPerShare",
          "type": "uint256"
        }
      ],
      "stateMutability": "view",
      "type": "function"
    },
    {
      "inputs": [],
      "name": "userNodeTotalStake",
      "outputs": [
        {
          "internalType": "uint256",
          "name": "",
          "type": "uint256"
        }
      ],
      "stateMutability": "view",
      "type": "function"
    },
    {
      "inputs": [
        {
          "internalType": "address",
          "name": "",
          "type": "address"
        }
      ],
      "name": "userStakeStates",
      "outputs": [
        {
          "internalType": "uint256",
          "name": "unClaim",
          "type": "uint256"
        },
        {
          "internalType": "uint256",
          "name": "totalClaim",
          "type": "uint256"
        }
      ],
      "stateMutability": "view",
      "type": "function"
    },
    {
      "inputs": [
        {
          "internalType": "address",
          "name": "to",
          "type": "address"
        },
        {
          "internalType": "uint256",
          "name": "amount",
          "type": "uint256"
        }
      ],
      "name": "withdrawTo",
      "outputs": [],
      "stateMutability": "nonpayable",
      "type": "function"
    }
  ],
  "bytecode": "0x608060405234801561001057600080fd5b50613503806100206000396000f3fe608060405234801561001057600080fd5b50600436106103af5760003560e01c806392eefe9b116101f4578063d18e81b31161011a578063e964058c116100ad578063f77c47911161007c578063f77c4791146108e8578063fbcbc0f1146108fb578063fd3806211461090e578063ffb2c4791461091757600080fd5b8063e964058c146108a6578063e98030c7146108af578063f2fde38b146108c2578063f39a19bf146108d557600080fd5b8063ddaf4848116100e9578063ddaf484814610857578063dfb214771461086a578063e4b1eacc1461087d578063e7841ec01461089e57600080fd5b8063d18e81b3146107ef578063d2677c0514610814578063d33a981114610827578063d9772a251461084757600080fd5b8063b6f0731611610192578063c7f6d4cc11610161578063c7f6d4cc146107a3578063ca5baafc146107b6578063cd6dc687146107c9578063d0d552dd146107dc57600080fd5b8063b6f073161461075b578063bc4c4b3714610764578063be10b61414610787578063c7ad5eff1461079057600080fd5b8063a57e6437116101ce578063a57e64371461070c578063a60d5a1a14610715578063ab69b8ce14610728578063b3c1999e1461074857600080fd5b806392eefe9b146106e85780639f678cca146106fb5780639fd4e1cf1461070357600080fd5b80633bdfe437116102d9578063644a9e7111610277578063715018a611610246578063715018a6146106a657806380b49cdd146106ae57806385a6b3ae146106ce5780638da5cb5b146106d757600080fd5b8063644a9e711461064d57806368fd2e9f146106775780636d629dbe1461068a5780636f2789ec1461069d57600080fd5b80634195c410116102b35780634195c410146105c65780635183d6fd146105d95780635f13bb8d1461063157806360a22e501461064457600080fd5b80633bdfe437146105375780633df93072146105745780633f7b2ed91461058757600080fd5b8063205c2878116103515780633009a609116103205780633009a609146104dd5780633243c791146104e65780633749ea10146104f957806338d52e0f1461050c57600080fd5b8063205c287814610432578063226cfa3d1461044557806325c5ecbb1461046557806325f3cbeb1461047857600080fd5b80630a6b433f1161038d5780630a6b433f146103ed5780630d024684146104005780630fc1f08214610420578063187f33341461042957600080fd5b806304a8d8b5146103b457806305102062146103c957806309bbedde146103e5575b600080fd5b6103c76103c2366004612f78565b610945565b005b6103d2606a5481565b6040519081526020015b60405180910390f35b6077546103d2565b6103d26103fb366004612fad565b610c52565b61041361040e366004612fca565b610ef9565b6040516103dc919061307a565b6103d2606e5481565b6103d260685481565b6103c761044036600461308d565b610ffd565b6103d2610453366004612fad565b607c6020526000908152604090205481565b6103c76104733660046130b9565b61118d565b6104b5610486366004612fad565b607460205260009081526040902080546001820154600283015460038401546004909401549293919290919085565b604080519586526020860194909452928401919091526060830152608082015260a0016103dc565b6103d2607b5481565b6103c76104f43660046130f2565b611230565b6103d2610507366004612fad565b611309565b60655461051f906001600160a01b031681565b6040516001600160a01b0390911681526020016103dc565b6104b56105453660046130f2565b607360205260009081526040902080546001820154600283015460038401546004909401549293919290919085565b6103d2610582366004612fad565b611375565b6105b1610595366004612fad565b6076602052600090815260409020600281015460039091015482565b604080519283526020830191909152016103dc565b6103c76105d4366004612fad565b6113f3565b6105ec6105e73660046130f2565b611461565b604080516001600160a01b0390991689526020890197909752958701949094526060860192909252608085015260a084015260c083015260e0820152610100016103dc565b60675461051f906001600160a01b031681565b6103d2606d5481565b6103c761065b36600461310b565b6081805463ffffffff191663ffffffff92909216919091179055565b610413610685366004612fca565b6115b5565b6103c761069836600461308d565b6116c9565b6103d2607d5481565b6103c761177b565b6103d26106bc3660046130f2565b60756020526000908152604090205481565b6103d260705481565b6033546001600160a01b031661051f565b6103c76106f6366004612fad565b61178f565b6103d26117fd565b6103d2606f5481565b6103d260725481565b6103d2610723366004613147565b611908565b6103d26107363660046130f2565b607f6020526000908152604090205481565b610413610756366004612fca565b611933565b6103d260715481565b6107776107723660046131ef565b611a4f565b60405190151581526020016103dc565b6103d2607e5481565b6103c761079e3660046130f2565b611a91565b6103d26107b1366004612fad565b611b2e565b6103c76107c43660046130f2565b611c7b565b6103c76107d736600461308d565b611d11565b6103c76107ea366004612fad565b611e4f565b6081546107ff9063ffffffff1681565b60405163ffffffff90911681526020016103dc565b610413610822366004612fca565b611e79565b6103d26108353660046130f2565b60806020526000908152604090205481565b606c546107ff9063ffffffff1681565b6103c76108653660046130f2565b611f0f565b6103c761087836600461321d565b611f69565b61089061088b366004612fad565b6120b5565b6040516103dc929190613258565b607b546103d2565b6103d2606b5481565b6103c76108bd3660046130f2565b61231a565b6103c76108d0366004612fad565b612468565b6103d26108e3366004612fad565b6124de565b60665461051f906001600160a01b031681565b6105ec610909366004612fad565b612649565b6103d260695481565b61092a6109253660046130f2565b61280a565b604080519384526020840192909252908201526060016103dc565b6066546001600160a01b031633146109785760405162461bcd60e51b815260040161096f9061327d565b60405180910390fd5b6109806117fd565b5060008281526073602090815260408083206001600160a01b03871684526076909252909120806109b085612925565b50600085815260018084016020908152604080842092830154607f835281852054608090935293205491926109e792849290612a59565b50610a0d85610a0783600101548760010154612af990919063ffffffff16565b90612b05565b600180860191909155810154158015610a265750600085115b15610a41578154600181018355600083815260209020018690555b6001810185905560038101546002840154610a5b91612b05565b60028401556000600382015584610b4f57600086815260018085016020526040822082815590810182905560028101829055600381018290556004015581545b8015610b4d5780610aab816132bc565b91505086838281548110610ac157610ac16132d3565b90600052602060002001541415610b485782548390610ae2906001906132e9565b81548110610af257610af26132d3565b9060005260206000200154838281548110610b0f57610b0f6132d3565b906000526020600020018190555082805480610b2d57610b2d613300565b60019003818190600052602060002001600090559055610b4d565b610a9b565b505b607e548510610bd657604051632f0ad01760e21b8152607760048201526001600160a01b03881660248201526044810186905273__$4b09164eaf8a84d7a8044fedc88418fa6b$__9063bc2b405c9060640160006040518083038186803b158015610bb957600080fd5b505af4158015610bcd573d6000803e3d6000fd5b50505050610c49565b60405163131836e760e21b8152607760048201526001600160a01b038816602482015273__$4b09164eaf8a84d7a8044fedc88418fa6b$__90634c60db9c9060440160006040518083038186803b158015610c3057600080fd5b505af4158015610c44573d6000803e3d6000fd5b505050505b50505050505050565b6000610c5c6117fd565b506001600160a01b038216600090815260766020526040812060028101805492905580549091905b8015610df857610c956001826132e9565b90506000838281548110610cab57610cab6132d3565b90600052602060002001549050610cc181612925565b506001600160a01b03861660009081526076602090815260408083208484526001908101835281842090810154607f84528285205460809094529190932054610d0c92849291612a59565b506003810154610d1c9085612b05565b60006003830181905583815260736020526040902060010154909450610df1576001600160a01b03871660009081526076602090815260408083208584526001908101909252822082815580820183905560028101839055600381018390556004019190915585548691610d8f916132e9565b81548110610d9f57610d9f6132d3565b9060005260206000200154858481548110610dbc57610dbc6132d3565b906000526020600020018190555084805480610dda57610dda613300565b600190038181906000526020600020016000905590555b5050610c84565b6001600160a01b038516600090815260766020526040902060030154610e1e9083612b05565b6001600160a01b038681166000818152607660205260409081902060030193909355606554925163a9059cbb60e01b815260048101919091526024810185905291169063a9059cbb906044016020604051808303816000875af1158015610e89573d6000803e3d6000fd5b505050506040513d601f19601f82011682018060405250810190610ead9190613316565b50846001600160a01b03167f5329b89678b0f095cae2abe10b88ad57329871ee9296ae8f358a46b9fa0ff32883604051610ee991815260200190565b60405180910390a2509392505050565b60608167ffffffffffffffff811115610f1457610f14613131565b604051908082528060200260200182016040528015610f3d578160200160208202803683370190505b50905060005b82811015610ff657610fc760766000868685818110610f6457610f646132d3565b9050602002016020810190610f799190612fad565b6001600160a01b03166001600160a01b0316815260200190815260200160002060030154610a07868685818110610fb257610fb26132d3565b90506020020160208101906105829190612fad565b828281518110610fd957610fd96132d3565b602090810291909101015280610fee81613333565b915050610f43565b5092915050565b611005612b11565b61100d6117fd565b506065546040516370a0823160e01b81523060048201526000916001600160a01b0316906370a0823190602401602060405180830381865afa158015611057573d6000803e3d6000fd5b505050506040513d601f19601f8201168201806040525081019061107b919061334e565b9050808211156110cd5760405162461bcd60e51b815260206004820152601b60248201527f4469766964656e642f696e73756666696369656e742d66756e64730000000000604482015260640161096f565b60655460405163a9059cbb60e01b81526001600160a01b038581166004830152602482018590529091169063a9059cbb906044016020604051808303816000875af1158015611120573d6000803e3d6000fd5b505050506040513d601f19601f820116820180604052508101906111449190613316565b50826001600160a01b03167f7084f5476618d8e60b11ef0d7d3f06914655adb8793e28ff7f018d4c76d505d58360405161118091815260200190565b60405180910390a2505050565b6066546001600160a01b031633146111b75760405162461bcd60e51b815260040161096f9061327d565b6111c0826124de565b506001600160a01b039081166000908152607460205260408082209390921681529081208054835560018082018054918501919091556002808301805491860191909155600380840180549187019190915560048085018054919097015592849055908390558290558190559055565b6067546001600160a01b031633146112815760405162461bcd60e51b815260206004820152601460248201527327a7262cafa234bb34b232b7321029b2b2ba32b960611b604482015260640161096f565b80158061128e5750607254155b156112965750565b6070546112a39082612b05565b6070556069546000906112c4906064906112be908590612b6b565b90612b77565b60725490915015611304576112e1606f54610a0783607254612b83565b606f55606e5461130090610a076112f88585612af9565b607254612b83565b606e555b505b50565b6001600160a01b0381166000908152607460209081526040808320815160a081018352815481526001820154938101939093526002810154918301919091526003810154606083015260040154608082015261136f90611367612ba4565b606f54612c21565b92915050565b6001600160a01b038116600090815260766020526040902060020154606061139c836120b5565b9150600090505b81518110156113ec576113d88282815181106113c1576113c16132d3565b602002602001015184612b0590919063ffffffff16565b9250806113e481613333565b9150506113a3565b5050919050565b6113fb612b11565b6001600160a01b03811661143f5760405162461bcd60e51b815260206004820152600b60248201526a24a72b2624a22fa0a2222960a91b604482015260640161096f565b606780546001600160a01b0319166001600160a01b0392909216919091179055565b600080600080600080600080607773__$4b09164eaf8a84d7a8044fedc88418fa6b$__63deb3d89690916040518263ffffffff1660e01b81526004016114a991815260200190565b602060405180830381865af41580156114c6573d6000803e3d6000fd5b505050506040513d601f19601f820116820180604052508101906114ea919061334e565b891061150f5750600096506000199550859450869350839250829150819050806115aa565b6040516368d54f3f60e11b815260776004820152602481018a905260009073__$4b09164eaf8a84d7a8044fedc88418fa6b$__9063d1aa9e7e90604401602060405180830381865af4158015611569573d6000803e3d6000fd5b505050506040513d601f19601f8201168201806040525081019061158d9190613367565b905061159881612649565b98509850985098509850985098509850505b919395975091939597565b60608167ffffffffffffffff8111156115d0576115d0613131565b6040519080825280602002602001820160405280156115f9578160200160208202803683370190505b50905060005b82811015610ff65761169a60746000868685818110611620576116206132d3565b90506020020160208101906116359190612fad565b6001600160a01b03166001600160a01b031681526020019081526020016000206040518060a001604052908160008201548152602001600182015481526020016002820154815260200160038201548152602001600482015481525050611367612ba4565b8282815181106116ac576116ac6132d3565b6020908102919091010152806116c181613333565b9150506115ff565b6066546001600160a01b031633146116f35760405162461bcd60e51b815260040161096f9061327d565b6116fc826124de565b506001600160a01b03821660009081526074602052604090206001015460725461172591612af9565b6072556001600160a01b03821660009081526074602052604081208181556001810182905560028101829055600381018290556004015561176581612925565b5060009081526073602052604081206001015550565b611783612b11565b61178d6000612cb0565b565b611797612b11565b6001600160a01b0381166117db5760405162461bcd60e51b815260206004820152600b60248201526a24a72b2624a22fa0a2222960a91b604482015260640161096f565b606680546001600160a01b0319166001600160a01b0392909216919091179055565b60008061180f60815463ffffffff1690565b606c5463ffffffff91821692501681141561182c57600091505090565b606c5460009061184790839063ffffffff90811690612af916565b9050600061186060685483612b6b90919063ffffffff16565b9050600061187e60646112be60695485612b6b90919063ffffffff16565b607254909150156118cf57600061189782607254612b83565b606b549091506118a79082612b05565b606b5560006118b96112f88585612af9565b606a549091506118c99082612b05565b606a5550505b6118d884612d02565b606c805463ffffffff191663ffffffff928316179055606d546118fd918490612b0516565b606d55509392505050565b600080611916858585612c21565b60408601519091506119289082612b05565b9150505b9392505050565b60608167ffffffffffffffff81111561194e5761194e613131565b604051908082528060200260200182016040528015611977578160200160208202803683370190505b50905060005b82811015610ff657611a206074600086868581811061199e5761199e6132d3565b90506020020160208101906119b39190612fad565b6001600160a01b03166001600160a01b031681526020019081526020016000206040518060a001604052908160008201548152602001600182015481526020016002820154815260200160038201548152602001600482015481525050611a18612ba4565b606f54611908565b828281518110611a3257611a326132d3565b602090810291909101015280611a4781613333565b91505061197d565b600080611a5b84610c52565b90508015611a875750506001600160a01b0382166000908152607c60205260409020429055600161136f565b5060009392505050565b611a99612b11565b60008111611ae95760405162461bcd60e51b815260206004820152601c60248201527f546f6b656e4661756365742f6e6f6465526174652d67742d7a65726f00000000604482015260640161096f565b611af16117fd565b5060698190556040518181527ffab63a863d2b8bf77782de36d1f7ee259e4663ac848a09ffc79a72286bd7c3de906020015b60405180910390a150565b600060725460001415611b4357506000919050565b6001600160a01b03821660009081526076602052604081208190815b8154811015611c21576000828281548110611b7c57611b7c6132d3565b90600052602060002001549050607360008281526020019081526020016000206001015460001415611bae5750611c0f565b6001600160a01b0387166000908152607660209081526040808320848452600190810183528184206073909352922090910154611bf1908790610a079085612d6b565b9550611c0a816001015486612b0590919063ffffffff16565b945050505b80611c1981613333565b915050611b5f565b5081611c3257506000949350505050565b606854600090611c459062015180612b6b565b9050611c71836112be6072546112be6237b1d0611c6b878b612b6b90919063ffffffff16565b90612b6b565b9695505050505050565b611c83612b11565b60008111611cd35760405162461bcd60e51b815260206004820152601c60248201527f546f6b656e4661756365742f64726970526174652d67742d7a65726f00000000604482015260640161096f565b611cdb6117fd565b5060688190556040518181527f3d38e7cd2e029035006f9977a727c8724cd41dffb6d2a40d9f66bd4c26836a3290602001611b23565b600054600190610100900460ff16158015611d33575060005460ff8083169116105b611d965760405162461bcd60e51b815260206004820152602e60248201527f496e697469616c697a61626c653a20636f6e747261637420697320616c72656160448201526d191e481a5b9a5d1a585b1a5e995960921b606482015260840161096f565b6000805461ffff191660ff831617610100179055611db2612d8c565b608154606c805463ffffffff191663ffffffff909216919091179055606580546001600160a01b0385166001600160a01b0319909116179055611df482611c7b565b6014606955655af3107a4000607e55610e10607d556000805461ff001916905560405160ff821681527f7f26b83ff96e1f2b6a682f133852f6798a09c465da95921460cefb38474024989060200160405180910390a1505050565b611e57612b11565b606580546001600160a01b0319166001600160a01b0392909216919091179055565b60608167ffffffffffffffff811115611e9457611e94613131565b604051908082528060200260200182016040528015611ebd578160200160208202803683370190505b50905060005b82811015610ff657611ee0848483818110610fb257610fb26132d3565b828281518110611ef257611ef26132d3565b602090810291909101015280611f0781613333565b915050611ec3565b6067546001600160a01b03163314611f605760405162461bcd60e51b815260206004820152601460248201527327a7262cafa234bb34b232b7321029b2b2ba32b960611b604482015260640161096f565b61130681611230565b6066546001600160a01b03163314611f935760405162461bcd60e51b815260040161096f9061327d565b611f9b6117fd565b506001600160a01b03841660009081526074602052604090206001810154606b54606f54611fcb93929190612a59565b506001600160a01b038416600090815260746020526040902060010154607254611ffa918591610a0791612af9565b6072556001600160a01b038416600090815260746020526040902060010183905561202482612925565b506000828152607560205260409081902082905551632f0ad01760e21b8152607760048201526001600160a01b03851660248201526044810184905273__$4b09164eaf8a84d7a8044fedc88418fa6b$__9063bc2b405c9060640160006040518083038186803b15801561209757600080fd5b505af41580156120ab573d6000803e3d6000fd5b5050505050505050565b60608060006120c2612dbb565b6001600160a01b038516600090815260766020526040902080549192509067ffffffffffffffff8111156120f8576120f8613131565b604051908082528060200260200182016040528015612121578160200160208202803683370190505b50815490945067ffffffffffffffff81111561213f5761213f613131565b604051908082528060200260200182016040528015612168578160200160208202803683370190505b50925060005b815481101561231257600082828154811061218b5761218b6132d3565b60009182526020808320909101546001600160a01b038a16835260768252604080842082855260019081019093528320918201549093509091906121cf9084612d6b565b6000848152607360205260408120600101549192509081901561224357600085815260736020526040902054612206908990612af9565b91506122128286612d6b565b600086815260736020526040902060040154606e549193506122349190612af9565b90506122408186612d6b565b90505b83546000868152607f602052604090205461226a9190612264908590612b05565b90612af9565b9150600061227c856001015484612e3b565b60048601546000888152608060205260409020549192506122a291612264908590612b05565b915060006122b08584612e3b565b9050868c89815181106122c5576122c56132d3565b60209081029190910101526122da8282612b05565b8b89815181106122ec576122ec6132d3565b60200260200101818152505050505050505050808061230a90613333565b91505061216e565b505050915091565b612322612b11565b610e1081101580156123375750620151808111155b6123bd5760405162461bcd60e51b815260206004820152604b60248201527f546f6b656e5f4469766964656e645f547261636b65723a20636c61696d57616960448201527f74206d757374206265207570646174656420746f206265747765656e2031206160648201526a6e6420323420686f75727360a81b608482015260a40161096f565b607d548114156124355760405162461bcd60e51b815260206004820152603d60248201527f546f6b656e5f4469766964656e645f547261636b65723a2043616e6e6f74207560448201527f706461746520636c61696d5761697420746f2073616d652076616c7565000000606482015260840161096f565b607d5460405182907f474ea64804364a1e29a4487ddb63c3342a2dd826ccd8acf48825e680a0e6f20f90600090a3607d55565b612470612b11565b6001600160a01b0381166124d55760405162461bcd60e51b815260206004820152602660248201527f4f776e61626c653a206e6577206f776e657220697320746865207a65726f206160448201526564647265737360d01b606482015260840161096f565b61130681612cb0565b60006124e86117fd565b506001600160a01b03821660009081526074602052604090206001810154606b54606f5461251893929190612a59565b506001600160a01b03821660009081526074602052604090206003015461254157506000919050565b6001600160a01b0382166000908152607460205260408120600381018054929055600201546125709082612b05565b6001600160a01b038481166000818152607460205260409081902060020193909355606554925163a9059cbb60e01b815260048101919091526024810184905291169063a9059cbb906044016020604051808303816000875af11580156125db573d6000803e3d6000fd5b505050506040513d601f19601f820116820180604052508101906125ff9190613316565b50826001600160a01b03167f638b31b360307f664fe65f94e19b3fb3b6569d947245b7195cff88cf1c0e1c148260405161263b91815260200190565b60405180910390a292915050565b6040516317e142d160e01b8152607760048201526001600160a01b0382166024820152819060009081908190819081908190819073__$4b09164eaf8a84d7a8044fedc88418fa6b$__906317e142d190604401602060405180830381865af41580156126b9573d6000803e3d6000fd5b505050506040513d601f19601f820116820180604052508101906126dd919061334e565b965060001995506000871261273f57607b5487111561270b57607b54612704908890612e5c565b955061273f565b607b546077546000911061272057600061272f565b607b5460775461272f91612af9565b905061273b8882612ea8565b9650505b6001600160a01b03881660009081526074602090815260408083206003015460769092529091206002015461277391612b05565b6001600160a01b0389166000908152607460209081526040808320600201546076909252909120600301549196506127ab9190612b05565b6001600160a01b0389166000908152607c60205260409020549094509250826127d55760006127e3565b607d546127e3908490612b05565b91504282116127f35760006127fd565b6127fd8242612af9565b9050919395975091939597565b607754600090819081908061282a575050607b546000925082915061291e565b607b546000805a90506000805b898410801561284557508582105b1561290d578461285481613333565b6077549096508610905061286757600094505b60006077600001868154811061287f5761287f6132d3565b60009182526020808320909101546001600160a01b0316808352607c9091526040909120549091506128b090612ee6565b156128d3576128c0816001611a4f565b156128d357816128cf81613333565b9250505b826128dd81613333565b93505060005a905080851115612904576129016128fa8683612af9565b8790612b05565b95505b93506128379050565b607b85905590975095509193505050505b9193909250565b6000818152607360205260408120600181015482906129449085612d6b565b8254606a54919250141561295c575060009392505050565b8154606a5460009161296e9190612af9565b9050600061297c8383612e3b565b606a54855560038501549091506129939082612b05565b60038501556004840154606e546000916129ad9190612af9565b905060006129bb8583612e3b565b606e54600488015560038701549091506129d59082612b05565b60038701558415612a4357612a026129ed858a612d6b565b60008a8152607f602052604090205490612b05565b6000898152607f6020526040902055612a33612a1e838a612d6b565b60008a81526080602052604090205490612b05565b6000898152608060205260409020555b612a4d8382612b05565b98975050505050505050565b8354600090831415612a6d57506000612af1565b8454600090612a7d908590612af9565b90506000612a8b8683612e3b565b8588556003880154909150612aa09082612b05565b60038801556004870154600090612ac3908890612abe908890612af9565b612e3b565b600489018690556003890154909150612adc9082612b05565b6003890155612aeb8282612b05565b93505050505b949350505050565b600061192c82846132e9565b600061192c8284613384565b6033546001600160a01b0316331461178d5760405162461bcd60e51b815260206004820181905260248201527f4f776e61626c653a2063616c6c6572206973206e6f7420746865206f776e6572604482015260640161096f565b600061192c828461339c565b600061192c82846133bb565b600080612b9884670de0b6b3a7640000612b6b565b9050612af18184612b77565b606c54600090819063ffffffff16612bc160815463ffffffff1690565b612bcb91906133dd565b63ffffffff1690506000612bea60685483612b6b90919063ffffffff16565b90506000612c0860646112be60695485612b6b90919063ffffffff16565b9050612c19606b5460725483612f0d565b935050505090565b600080612c3b856080015184612af990919063ffffffff16565b90506000612c4d866020015183612e3b565b8651909150851415612c71576060860151612c689082612b05565b9250505061192c565b8551600090612c81908790612af9565b90506000612c93886020015183612e3b565b9050612a4d83610a07838b60600151612b0590919063ffffffff16565b603380546001600160a01b038381166001600160a01b0319831681179093556040519116919082907f8be0079c531659141344cd1fd0a4f28419497f9722a3daafe3b4186f6b6457e090600090a35050565b600063ffffffff821115612d675760405162461bcd60e51b815260206004820152602660248201527f53616665436173743a2076616c756520646f65736e27742066697420696e203360448201526532206269747360d01b606482015260840161096f565b5090565b60008181526075602052604081205461192c906064906112be908690612b6b565b600054610100900460ff16612db35760405162461bcd60e51b815260040161096f90613402565b61178d612f33565b606c54600090819063ffffffff16612dd860815463ffffffff1690565b612de291906133dd565b63ffffffff1690506000612e0160685483612b6b90919063ffffffff16565b90506000612e1f60646112be60695485612b6b90919063ffffffff16565b606a54607254919250612c1991612e368585612af9565b612f0d565b600080612e488385612b6b565b9050612af181670de0b6b3a7640000612b77565b6000808212158015612e77575082612e74838261344d565b13155b80612e955750600082128015612e95575082612e93838261344d565b135b612e9e57600080fd5b61192c828461344d565b600080612eb5838561348c565b905060008312158015612ec85750838112155b80612edd5750600083128015612edd57508381125b61192c57600080fd5b600042821115612ef857506000919050565b607d54612f054284612af9565b101592915050565b600082612f1b57508261192c565b6000612f278385612b83565b90506119288186612b05565b600054610100900460ff16612f5a5760405162461bcd60e51b815260040161096f90613402565b61178d33612cb0565b6001600160a01b038116811461130657600080fd5b600080600060608486031215612f8d57600080fd5b8335612f9881612f63565b95602085013595506040909401359392505050565b600060208284031215612fbf57600080fd5b813561192c81612f63565b60008060208385031215612fdd57600080fd5b823567ffffffffffffffff80821115612ff557600080fd5b818501915085601f83011261300957600080fd5b81358181111561301857600080fd5b8660208260051b850101111561302d57600080fd5b60209290920196919550909350505050565b600081518084526020808501945080840160005b8381101561306f57815187529582019590820190600101613053565b509495945050505050565b60208152600061192c602083018461303f565b600080604083850312156130a057600080fd5b82356130ab81612f63565b946020939093013593505050565b600080604083850312156130cc57600080fd5b82356130d781612f63565b915060208301356130e781612f63565b809150509250929050565b60006020828403121561310457600080fd5b5035919050565b60006020828403121561311d57600080fd5b813563ffffffff8116811461192c57600080fd5b634e487b7160e01b600052604160045260246000fd5b600080600083850360e081121561315d57600080fd5b60a081121561316b57600080fd5b5060405160a0810181811067ffffffffffffffff8211171561319d57634e487b7160e01b600052604160045260246000fd5b60409081528535825260208087013590830152858101359082015260608086013590820152608080860135908201529560a0850135955060c0909401359392505050565b801515811461130657600080fd5b6000806040838503121561320257600080fd5b823561320d81612f63565b915060208301356130e7816131e1565b6000806000806080858703121561323357600080fd5b843561323e81612f63565b966020860135965060408601359560600135945092505050565b60408152600061326b604083018561303f565b8281036020840152611928818561303f565b6020808252600f908201526e27a7262cafa1a7a72a2927a62622a960891b604082015260600190565b634e487b7160e01b600052601160045260246000fd5b6000816132cb576132cb6132a6565b506000190190565b634e487b7160e01b600052603260045260246000fd5b6000828210156132fb576132fb6132a6565b500390565b634e487b7160e01b600052603160045260246000fd5b60006020828403121561332857600080fd5b815161192c816131e1565b6000600019821415613347576133476132a6565b5060010190565b60006020828403121561336057600080fd5b5051919050565b60006020828403121561337957600080fd5b815161192c81612f63565b60008219821115613397576133976132a6565b500190565b60008160001904831182151516156133b6576133b66132a6565b500290565b6000826133d857634e487b7160e01b600052601260045260246000fd5b500490565b600063ffffffff838116908316818110156133fa576133fa6132a6565b039392505050565b6020808252602b908201527f496e697469616c697a61626c653a20636f6e7472616374206973206e6f74206960408201526a6e697469616c697a696e6760a81b606082015260800190565b60008083128015600160ff1b85018412161561346b5761346b6132a6565b6001600160ff1b0384018313811615613486576134866132a6565b50500390565b600080821280156001600160ff1b03849003851316156134ae576134ae6132a6565b600160ff1b83900384128116156134c7576134c76132a6565b5050019056fea264697066735822122080a5bd46b74b7e3fa7df69d2bfae1523bd544a5ef4aee7f4ccbf1fce413628d464736f6c634300080b0033",
  "linkReferences": {
    "contracts/lib/IterableMapping.sol": {
      "IterableMapping": [
        {
          "length": 20,
          "start": 2980
        },
        {
          "length": 20,
          "start": 3099
        },
        {
          "length": 20,
          "start": 5265
        },
        {
          "length": 20,
          "start": 5455
        },
        {
          "length": 20,
          "start": 8322
        },
        {
          "length": 20,
          "start": 9887
        }
      ]
    }
  },
  "deployedLinkReferences": {
    "contracts/lib/IterableMapping.sol": {
      "IterableMapping": [
        {
          "length": 20,
          "start": 2948
        },
        {
          "length": 20,
          "start": 3067
        },
        {
          "length": 20,
          "start": 5233
        },
        {
          "length": 20,
          "start": 5423
        },
        {
          "length": 20,
          "start": 8290
        },
        {
          "length": 20,
          "start": 9855
        }
      ]
    }
  }
}