{
  "_format": "hh-sol-artifact-1",
  "contractName": "BIBDividendHarness",
  "sourceName": "contracts/test/BIBDividendHarness.sol",
  "abi": [
    {
      "anonymous": false,
      "inputs": [
        {
          "indexed": true,
          "internalType": "uint256",
          "name": "newValue",
          "type": "uint256"
        },
        {
          "indexed": true,
          "internalType": "uint256",
          "name": "oldValue",
          "type": "uint256"
        }
      ],
      "name": "ClaimWaitUpdated",
      "type": "event"
    },
    {
      "anonymous": false,
      "inputs": [
        {
          "indexed": false,
          "internalType": "uint256",
          "name": "dripRatePerSecond",
          "type": "uint256"
        }
      ],
      "name": "DripRateChanged",
      "type": "event"
    },
    {
      "anonymous": false,
      "inputs": [
        {
          "indexed": false,
          "internalType": "uint8",
          "name": "version",
          "type": "uint8"
        }
      ],
      "name": "Initialized",
      "type": "event"
    },
    {
      "anonymous": false,
      "inputs": [
        {
          "indexed": true,
          "internalType": "address",
          "name": "user",
          "type": "address"
        },
        {
          "indexed": false,
          "internalType": "uint256",
          "name": "newTokens",
          "type": "uint256"
        }
      ],
      "name": "NodeClaimed",
      "type": "event"
    },
    {
      "anonymous": false,
      "inputs": [
        {
          "indexed": true,
          "internalType": "address",
          "name": "previousOwner",
          "type": "address"
        },
        {
          "indexed": true,
          "internalType": "address",
          "name": "newOwner",
          "type": "address"
        }
      ],
      "name": "OwnershipTransferred",
      "type": "event"
    },
    {
      "anonymous": false,
      "inputs": [
        {
          "indexed": true,
          "internalType": "address",
          "name": "user",
          "type": "address"
        },
        {
          "indexed": false,
          "internalType": "uint256",
          "name": "newTokens",
          "type": "uint256"
        }
      ],
      "name": "UserClaimed",
      "type": "event"
    },
    {
      "anonymous": false,
      "inputs": [
        {
          "indexed": true,
          "internalType": "address",
          "name": "to",
          "type": "address"
        },
        {
          "indexed": false,
          "internalType": "uint256",
          "name": "amount",
          "type": "uint256"
        }
      ],
      "name": "Withdrawn",
      "type": "event"
    },
    {
      "inputs": [
        {
          "components": [
            {
              "internalType": "uint256",
              "name": "lastExchangeRateMantissa",
              "type": "uint256"
            },
            {
              "internalType": "uint256",
              "name": "balance",
              "type": "uint256"
            },
            {
              "internalType": "uint256",
              "name": "totalClaim",
              "type": "uint256"
            },
            {
              "internalType": "uint256",
              "name": "unClaim",
              "type": "uint256"
            },
            {
              "internalType": "uint256",
              "name": "lastDividendPerShare",
              "type": "uint256"
            }
          ],
          "internalType": "struct BIBDividend.ExState",
          "name": "userState",
          "type": "tuple"
        },
        {
          "internalType": "uint256",
          "name": "_exchangeRateMantissa",
          "type": "uint256"
        },
        {
          "internalType": "uint256",
          "name": "_dividendPerShare",
          "type": "uint256"
        }
      ],
      "name": "_getUserAllRewards",
      "outputs": [
        {
          "internalType": "uint256",
          "name": "",
          "type": "uint256"
        }
      ],
      "stateMutability": "pure",
      "type": "function"
    },
    {
      "inputs": [],
      "name": "asset",
      "outputs": [
        {
          "internalType": "contract IERC20Upgradeable",
          "name": "",
          "type": "address"
        }
      ],
      "stateMutability": "view",
      "type": "function"
    },
    {
      "inputs": [],
      "name": "claimWait",
      "outputs": [
        {
          "internalType": "uint256",
          "name": "",
          "type": "uint256"
        }
      ],
      "stateMutability": "view",
      "type": "function"
    },
    {
      "inputs": [],
      "name": "controller",
      "outputs": [
        {
          "internalType": "address",
          "name": "",
          "type": "address"
        }
      ],
      "stateMutability": "view",
      "type": "function"
    },
    {
      "inputs": [],
      "name": "currentTime",
      "outputs": [
        {
          "internalType": "uint32",
          "name": "",
          "type": "uint32"
        }
      ],
      "stateMutability": "view",
      "type": "function"
    },
    {
      "inputs": [
        {
          "internalType": "uint256",
          "name": "amount",
          "type": "uint256"
        }
      ],
      "name": "distributeDividends",
      "outputs": [],
      "stateMutability": "nonpayable",
      "type": "function"
    },
    {
      "inputs": [],
      "name": "dividendSetter",
      "outputs": [
        {
          "internalType": "address",
          "name": "",
          "type": "address"
        }
      ],
      "stateMutability": "view",
      "type": "function"
    },
    {
      "inputs": [],
      "name": "drip",
      "outputs": [
        {
          "internalType": "uint256",
          "name": "",
          "type": "uint256"
        }
      ],
      "stateMutability": "nonpayable",
      "type": "function"
    },
    {
      "inputs": [],
      "name": "dripRatePerSecond",
      "outputs": [
        {
          "internalType": "uint256",
          "name": "",
          "type": "uint256"
        }
      ],
      "stateMutability": "view",
      "type": "function"
    },
    {
      "inputs": [
        {
          "internalType": "address",
          "name": "_account",
          "type": "address"
        }
      ],
      "name": "getAccount",
      "outputs": [
        {
          "internalType": "address",
          "name": "account",
          "type": "address"
        },
        {
          "internalType": "int256",
          "name": "index",
          "type": "int256"
        },
        {
          "internalType": "int256",
          "name": "iterationsUntilProcessed",
          "type": "int256"
        },
        {
          "internalType": "uint256",
          "name": "withdrawableDividends",
          "type": "uint256"
        },
        {
          "internalType": "uint256",
          "name": "totalDividends",
          "type": "uint256"
        },
        {
          "internalType": "uint256",
          "name": "lastClaimTime",
          "type": "uint256"
        },
        {
          "internalType": "uint256",
          "name": "nextClaimTime",
          "type": "uint256"
        },
        {
          "internalType": "uint256",
          "name": "secondsUntilAutoClaimAvailable",
          "type": "uint256"
        }
      ],
      "stateMutability": "view",
      "type": "function"
    },
    {
      "inputs": [
        {
          "internalType": "uint256",
          "name": "index",
          "type": "uint256"
        }
      ],
      "name": "getAccountAtIndex",
      "outputs": [
        {
          "internalType": "address",
          "name": "",
          "type": "address"
        },
        {
          "internalType": "int256",
          "name": "",
          "type": "int256"
        },
        {
          "internalType": "int256",
          "name": "",
          "type": "int256"
        },
        {
          "internalType": "uint256",
          "name": "",
          "type": "uint256"
        },
        {
          "internalType": "uint256",
          "name": "",
          "type": "uint256"
        },
        {
          "internalType": "uint256",
          "name": "",
          "type": "uint256"
        },
        {
          "internalType": "uint256",
          "name": "",
          "type": "uint256"
        },
        {
          "internalType": "uint256",
          "name": "",
          "type": "uint256"
        }
      ],
      "stateMutability": "view",
      "type": "function"
    },
    {
      "inputs": [],
      "name": "getLastProcessedIndex",
      "outputs": [
        {
          "internalType": "uint256",
          "name": "",
          "type": "uint256"
        }
      ],
      "stateMutability": "view",
      "type": "function"
    },
    {
      "inputs": [
        {
          "internalType": "address",
          "name": "user",
          "type": "address"
        }
      ],
      "name": "getNodeUnClaim",
      "outputs": [
        {
          "internalType": "uint256",
          "name": "",
          "type": "uint256"
        }
      ],
      "stateMutability": "view",
      "type": "function"
    },
    {
      "inputs": [
        {
          "internalType": "address[]",
          "name": "users",
          "type": "address[]"
        }
      ],
      "name": "getNodesAllRewards",
      "outputs": [
        {
          "internalType": "uint256[]",
          "name": "rewards",
          "type": "uint256[]"
        }
      ],
      "stateMutability": "view",
      "type": "function"
    },
    {
      "inputs": [
        {
          "internalType": "address[]",
          "name": "users",
          "type": "address[]"
        }
      ],
      "name": "getNodesUnClaim",
      "outputs": [
        {
          "internalType": "uint256[]",
          "name": "unClaims",
          "type": "uint256[]"
        }
      ],
      "stateMutability": "view",
      "type": "function"
    },
    {
      "inputs": [],
      "name": "getNumberOfTokenHolders",
      "outputs": [
        {
          "internalType": "uint256",
          "name": "",
          "type": "uint256"
        }
      ],
      "stateMutability": "view",
      "type": "function"
    },
    {
      "inputs": [
        {
          "internalType": "address",
          "name": "_user",
          "type": "address"
        }
      ],
      "name": "getUserApr",
      "outputs": [
        {
          "internalType": "uint256",
          "name": "",
          "type": "uint256"
        }
      ],
      "stateMutability": "view",
      "type": "function"
    },
    {
      "inputs": [
        {
          "internalType": "address",
          "name": "user",
          "type": "address"
        }
      ],
      "name": "getUserUnClaim",
      "outputs": [
        {
          "internalType": "uint256",
          "name": "",
          "type": "uint256"
        }
      ],
      "stateMutability": "view",
      "type": "function"
    },
    {
      "inputs": [
        {
          "internalType": "address[]",
          "name": "users",
          "type": "address[]"
        }
      ],
      "name": "getUsersAllRewards",
      "outputs": [
        {
          "internalType": "uint256[]",
          "name": "rewards",
          "type": "uint256[]"
        }
      ],
      "stateMutability": "view",
      "type": "function"
    },
    {
      "inputs": [
        {
          "internalType": "address[]",
          "name": "users",
          "type": "address[]"
        }
      ],
      "name": "getUsersUnClaim",
      "outputs": [
        {
          "internalType": "uint256[]",
          "name": "unClaims",
          "type": "uint256[]"
        }
      ],
      "stateMutability": "view",
      "type": "function"
    },
    {
      "inputs": [
        {
          "internalType": "uint256",
          "name": "amount",
          "type": "uint256"
        }
      ],
      "name": "handleReceive",
      "outputs": [],
      "stateMutability": "nonpayable",
      "type": "function"
    },
    {
      "inputs": [
        {
          "internalType": "contract IERC20Upgradeable",
          "name": "_asset",
          "type": "address"
        },
        {
          "internalType": "uint256",
          "name": "_dripRatePerSecond",
          "type": "uint256"
        }
      ],
      "name": "initialize",
      "outputs": [],
      "stateMutability": "nonpayable",
      "type": "function"
    },
    {
      "inputs": [
        {
          "internalType": "address",
          "name": "",
          "type": "address"
        }
      ],
      "name": "lastClaimTimes",
      "outputs": [
        {
          "internalType": "uint256",
          "name": "",
          "type": "uint256"
        }
      ],
      "stateMutability": "view",
      "type": "function"
    },
    {
      "inputs": [],
      "name": "lastDripTimestamp",
      "outputs": [
        {
          "internalType": "uint32",
          "name": "",
          "type": "uint32"
        }
      ],
      "stateMutability": "view",
      "type": "function"
    },
    {
      "inputs": [],
      "name": "lastProcessedIndex",
      "outputs": [
        {
          "internalType": "uint256",
          "name": "",
          "type": "uint256"
        }
      ],
      "stateMutability": "view",
      "type": "function"
    },
    {
      "inputs": [],
      "name": "minimumTokenBalanceForDividends",
      "outputs": [
        {
          "internalType": "uint256",
          "name": "",
          "type": "uint256"
        }
      ],
      "stateMutability": "view",
      "type": "function"
    },
    {
      "inputs": [
        {
          "internalType": "address",
          "name": "user",
          "type": "address"
        }
      ],
      "name": "nodeClaim",
      "outputs": [
        {
          "internalType": "uint256",
          "name": "",
          "type": "uint256"
        }
      ],
      "stateMutability": "nonpayable",
      "type": "function"
    },
    {
      "inputs": [],
      "name": "nodeDividendPerShare",
      "outputs": [
        {
          "internalType": "uint256",
          "name": "",
          "type": "uint256"
        }
      ],
      "stateMutability": "view",
      "type": "function"
    },
    {
      "inputs": [],
      "name": "nodeExchangeRateMantissa",
      "outputs": [
        {
          "internalType": "uint256",
          "name": "",
          "type": "uint256"
        }
      ],
      "stateMutability": "view",
      "type": "function"
    },
    {
      "inputs": [],
      "name": "nodeRate",
      "outputs": [
        {
          "internalType": "uint256",
          "name": "",
          "type": "uint256"
        }
      ],
      "stateMutability": "view",
      "type": "function"
    },
    {
      "inputs": [
        {
          "internalType": "address",
          "name": "",
          "type": "address"
        }
      ],
      "name": "nodeStates",
      "outputs": [
        {
          "internalType": "uint256",
          "name": "lastExchangeRateMantissa",
          "type": "uint256"
        },
        {
          "internalType": "uint256",
          "name": "balance",
          "type": "uint256"
        },
        {
          "internalType": "uint256",
          "name": "totalClaim",
          "type": "uint256"
        },
        {
          "internalType": "uint256",
          "name": "unClaim",
          "type": "uint256"
        },
        {
          "internalType": "uint256",
          "name": "lastDividendPerShare",
          "type": "uint256"
        }
      ],
      "stateMutability": "view",
      "type": "function"
    },
    {
      "inputs": [],
      "name": "nodeTotalStake",
      "outputs": [
        {
          "internalType": "uint256",
          "name": "",
          "type": "uint256"
        }
      ],
      "stateMutability": "view",
      "type": "function"
    },
    {
      "inputs": [
        {
          "internalType": "uint256",
          "name": "",
          "type": "uint256"
        }
      ],
      "name": "nodeWeight",
      "outputs": [
        {
          "internalType": "uint256",
          "name": "",
          "type": "uint256"
        }
      ],
      "stateMutability": "view",
      "type": "function"
    },
    {
      "inputs": [],
      "name": "owner",
      "outputs": [
        {
          "internalType": "address",
          "name": "",
          "type": "address"
        }
      ],
      "stateMutability": "view",
      "type": "function"
    },
    {
      "inputs": [
        {
          "internalType": "uint256",
          "name": "gas",
          "type": "uint256"
        }
      ],
      "name": "process",
      "outputs": [
        {
          "internalType": "uint256",
          "name": "",
          "type": "uint256"
        },
        {
          "internalType": "uint256",
          "name": "",
          "type": "uint256"
        },
        {
          "internalType": "uint256",
          "name": "",
          "type": "uint256"
        }
      ],
      "stateMutability": "nonpayable",
      "type": "function"
    },
    {
      "inputs": [
        {
          "internalType": "address",
          "name": "account",
          "type": "address"
        },
        {
          "internalType": "bool",
          "name": "automatic",
          "type": "bool"
        }
      ],
      "name": "processAccount",
      "outputs": [
        {
          "internalType": "bool",
          "name": "",
          "type": "bool"
        }
      ],
      "stateMutability": "nonpayable",
      "type": "function"
    },
    {
      "inputs": [],
      "name": "renounceOwnership",
      "outputs": [],
      "stateMutability": "nonpayable",
      "type": "function"
    },
    {
      "inputs": [
        {
          "internalType": "address",
          "name": "_cntr",
          "type": "address"
        }
      ],
      "name": "setController",
      "outputs": [],
      "stateMutability": "nonpayable",
      "type": "function"
    },
    {
      "inputs": [
        {
          "internalType": "uint32",
          "name": "_currentTime",
          "type": "uint32"
        }
      ],
      "name": "setCurrentTime",
      "outputs": [],
      "stateMutability": "nonpayable",
      "type": "function"
    },
    {
      "inputs": [
        {
          "internalType": "address",
          "name": "_setter",
          "type": "address"
        }
      ],
      "name": "setDividendSetter",
      "outputs": [],
      "stateMutability": "nonpayable",
      "type": "function"
    },
    {
      "inputs": [
        {
          "internalType": "uint256",
          "name": "_dripRatePerSecond",
          "type": "uint256"
        }
      ],
      "name": "setDripRatePerSecond",
      "outputs": [],
      "stateMutability": "nonpayable",
      "type": "function"
    },
    {
      "inputs": [
        {
          "internalType": "address",
          "name": "nodeOwner",
          "type": "address"
        },
        {
          "internalType": "uint256",
          "name": "amount",
          "type": "uint256"
        },
        {
          "internalType": "uint256",
          "name": "ticketId",
          "type": "uint256"
        },
        {
          "internalType": "uint256",
          "name": "weight",
          "type": "uint256"
        }
      ],
      "name": "setNodeBalance",
      "outputs": [],
      "stateMutability": "nonpayable",
      "type": "function"
    },
    {
      "inputs": [
        {
          "internalType": "address",
          "name": "user",
          "type": "address"
        },
        {
          "internalType": "uint256",
          "name": "ticketId",
          "type": "uint256"
        },
        {
          "internalType": "uint256",
          "name": "amount",
          "type": "uint256"
        }
      ],
      "name": "setUserBalance",
      "outputs": [],
      "stateMutability": "nonpayable",
      "type": "function"
    },
    {
      "inputs": [],
      "name": "totalDividendsDistributed",
      "outputs": [
        {
          "internalType": "uint256",
          "name": "",
          "type": "uint256"
        }
      ],
      "stateMutability": "view",
      "type": "function"
    },
    {
      "inputs": [],
      "name": "totalDrip",
      "outputs": [
        {
          "internalType": "uint256",
          "name": "",
          "type": "uint256"
        }
      ],
      "stateMutability": "view",
      "type": "function"
    },
    {
      "inputs": [
        {
          "internalType": "address",
          "name": "newOwner",
          "type": "address"
        }
      ],
      "name": "transferOwnership",
      "outputs": [],
      "stateMutability": "nonpayable",
      "type": "function"
    },
    {
      "inputs": [
        {
          "internalType": "uint256",
          "name": "newClaimWait",
          "type": "uint256"
        }
      ],
      "name": "updateClaimWait",
      "outputs": [],
      "stateMutability": "nonpayable",
      "type": "function"
    },
    {
      "inputs": [
        {
          "internalType": "address",
          "name": "user",
          "type": "address"
        }
      ],
      "name": "userClaim",
      "outputs": [
        {
          "internalType": "uint256",
          "name": "",
          "type": "uint256"
        }
      ],
      "stateMutability": "nonpayable",
      "type": "function"
    },
    {
      "inputs": [],
      "name": "userDividendPerShare",
      "outputs": [
        {
          "internalType": "uint256",
          "name": "",
          "type": "uint256"
        }
      ],
      "stateMutability": "view",
      "type": "function"
    },
    {
      "inputs": [],
      "name": "userExchangeRateMantissa",
      "outputs": [
        {
          "internalType": "uint256",
          "name": "",
          "type": "uint256"
        }
      ],
      "stateMutability": "view",
      "type": "function"
    },
    {
      "inputs": [
        {
          "internalType": "uint256",
          "name": "",
          "type": "uint256"
        }
      ],
      "name": "userNodeStates",
      "outputs": [
        {
          "internalType": "uint256",
          "name": "lastExchangeRateMantissa",
          "type": "uint256"
        },
        {
          "internalType": "uint256",
          "name": "balance",
          "type": "uint256"
        },
        {
          "internalType": "uint256",
          "name": "totalClaim",
          "type": "uint256"
        },
        {
          "internalType": "uint256",
          "name": "unClaim",
          "type": "uint256"
        },
        {
          "internalType": "uint256",
          "name": "lastDividendPerShare",
          "type": "uint256"
        }
      ],
      "stateMutability": "view",
      "type": "function"
    },
    {
      "inputs": [],
      "name": "userNodeTotalStake",
      "outputs": [
        {
          "internalType": "uint256",
          "name": "",
          "type": "uint256"
        }
      ],
      "stateMutability": "view",
      "type": "function"
    },
    {
      "inputs": [
        {
          "internalType": "address",
          "name": "",
          "type": "address"
        }
      ],
      "name": "userStakeStates",
      "outputs": [
        {
          "internalType": "uint256",
          "name": "unClaim",
          "type": "uint256"
        },
        {
          "internalType": "uint256",
          "name": "totalClaim",
          "type": "uint256"
        }
      ],
      "stateMutability": "view",
      "type": "function"
    },
    {
      "inputs": [
        {
          "internalType": "address",
          "name": "to",
          "type": "address"
        },
        {
          "internalType": "uint256",
          "name": "amount",
          "type": "uint256"
        }
      ],
      "name": "withdrawTo",
      "outputs": [],
      "stateMutability": "nonpayable",
      "type": "function"
    }
  ],
  "bytecode": "0x60a06040526014606955610e10607d55655af3107a400060805234801561002557600080fd5b50608051613071610048600039600081816106d90152610b3701526130716000f3fe608060405234801561001057600080fd5b50600436106103425760003560e01c80638da5cb5b116101b8578063d18e81b311610104578063e98030c7116100a2578063f77c47911161007c578063f77c4791146107ec578063fbcbc0f1146107ff578063fd38062114610812578063ffb2c4791461081b57600080fd5b8063e98030c7146107b3578063f2fde38b146107c6578063f39a19bf146107d957600080fd5b8063ddaf4848116100de578063ddaf48481461077c578063dfb214771461078f578063e7841ec0146107a2578063e964058c146107aa57600080fd5b8063d18e81b314610734578063d2677c0514610759578063d9772a251461076c57600080fd5b8063b3c1999e11610171578063be10b6141161014b578063be10b614146106d4578063c7f6d4cc146106fb578063ca5baafc1461070e578063cd6dc6871461072157600080fd5b8063b3c1999e14610695578063b6f07316146106a8578063bc4c4b37146106b157600080fd5b80638da5cb5b1461064457806392eefe9b146106555780639f678cca146106685780639fd4e1cf14610670578063a57e643714610679578063a60d5a1a1461068257600080fd5b806338d52e0f1161029257806360a22e50116102305780636f2789ec1161020a5780636f2789ec1461060a578063715018a61461061357806380b49cdd1461061b57806385a6b3ae1461063b57600080fd5b806360a22e50146105c4578063644a9e71146105cd57806368fd2e9f146105f757600080fd5b80633f7b2ed91161026c5780633f7b2ed9146105075780634195c410146105465780635183d6fd146105595780635f13bb8d146105b157600080fd5b806338d52e0f1461048c5780633bdfe437146104b75780633df93072146104f457600080fd5b8063187f3334116102ff57806325f3cbeb116102d957806325f3cbeb146103f85780633009a6091461045d5780633243c791146104665780633749ea101461047957600080fd5b8063187f3334146103bc578063205c2878146103c5578063226cfa3d146103d857600080fd5b806304a8d8b514610347578063051020621461035c57806309bbedde146103785780630a6b433f146103805780630d024684146103935780630fc1f082146103b3575b600080fd5b61035a610355366004612b6c565b610849565b005b610365606a5481565b6040519081526020015b60405180910390f35b607754610365565b61036561038e366004612ba1565b610c55565b6103a66103a1366004612bbe565b610f42565b60405161036f9190612c33565b610365606e5481565b61036560685481565b61035a6103d3366004612c77565b611046565b6103656103e6366004612ba1565b607c6020526000908152604090205481565b610435610406366004612ba1565b607460205260009081526040902080546001820154600283015460038401546004909401549293919290919085565b604080519586526020860194909452928401919091526060830152608082015260a00161036f565b610365607b5481565b61035a610474366004612ca3565b6111d6565b610365610487366004612ba1565b6112e7565b60655461049f906001600160a01b031681565b6040516001600160a01b03909116815260200161036f565b6104356104c5366004612ca3565b607360205260009081526040902080546001820154600283015460038401546004909401549293919290919085565b610365610502366004612ba1565b611353565b610531610515366004612ba1565b6076602052600090815260409020600281015460039091015482565b6040805192835260208301919091520161036f565b61035a610554366004612ba1565b6114ab565b61056c610567366004612ca3565b611519565b604080516001600160a01b0390991689526020890197909752958701949094526060860192909252608085015260a084015260c083015260e08201526101000161036f565b60675461049f906001600160a01b031681565b610365606d5481565b61035a6105db366004612cbc565b607e805463ffffffff191663ffffffff92909216919091179055565b6103a6610605366004612bbe565b61166d565b610365607d5481565b61035a611781565b610365610629366004612ca3565b60756020526000908152604090205481565b61036560705481565b6033546001600160a01b031661049f565b61035a610663366004612ba1565b611795565b610365611803565b610365606f5481565b61036560725481565b610365610690366004612cf8565b61191f565b6103a66106a3366004612bbe565b61194a565b61036560715481565b6106c46106bf366004612da0565b611a66565b604051901515815260200161036f565b6103657f000000000000000000000000000000000000000000000000000000000000000081565b610365610709366004612ba1565b611aa8565b61035a61071c366004612ca3565b611bc8565b61035a61072f366004612c77565b611c64565b607e546107449063ffffffff1681565b60405163ffffffff909116815260200161036f565b6103a6610767366004612bbe565b611d8d565b606c546107449063ffffffff1681565b61035a61078a366004612ca3565b611e23565b61035a61079d366004612dd9565b611e7d565b607b54610365565b610365606b5481565b61035a6107c1366004612ca3565b612063565b61035a6107d4366004612ba1565b6121b1565b6103656107e7366004612ba1565b612227565b60665461049f906001600160a01b031681565b61056c61080d366004612ba1565b612392565b61036560695481565b61082e610829366004612ca3565b612553565b6040805193845260208401929092529082015260600161036f565b6066546001600160a01b0316331461089a5760405162461bcd60e51b815260206004820152600f60248201526e27a7262cafa1a7a72a2927a62622a960891b60448201526064015b60405180910390fd5b6108a2611803565b5060008281526073602052604090206001810154606a54606e546108c89392919061266e565b506001600160a01b038316600090815260766020908152604080832085845260019081018352818420607590935292205491810154909161093791839161091c91606491610916919061270e565b9061271a565b6000868152607360205260409020805460049091015461266e565b5060018082015460008581526073602052604090209091015461096591849161095f91612726565b90612732565b6000848152607360209081526040808320600190810194909455607590915281205491830154909161099e91606491610916919061270e565b600085815260756020526040812054919250906109c39060649061091690879061270e565b90506109de8161095f8460715461272690919063ffffffff16565b60715560018301541580156109f35750600084115b15610a24576001600160a01b0386166000908152607660209081526040822080546001810182559083529120018590555b6001830184905583610b35576001600160a01b03861660008181526076602081815260408084208a8552600180820184529185208581559182018590556002820185905560038201859055600490910184905593909252905280545b8015610b325780610a9081612e2a565b91505086828281548110610aa657610aa6612e41565b90600052602060002001541415610b2d5781548290610ac790600190612e57565b81548110610ad757610ad7612e41565b9060005260206000200154828281548110610af457610af4612e41565b906000526020600020018190555081805480610b1257610b12612e6e565b60019003818190600052602060002001600090559055610b32565b610a80565b50505b7f00000000000000000000000000000000000000000000000000000000000000008410610bda57604051632f0ad01760e21b8152607760048201526001600160a01b03871660248201526044810185905273__$4b09164eaf8a84d7a8044fedc88418fa6b$__9063bc2b405c9060640160006040518083038186803b158015610bbd57600080fd5b505af4158015610bd1573d6000803e3d6000fd5b50505050610c4d565b60405163131836e760e21b8152607760048201526001600160a01b038716602482015273__$4b09164eaf8a84d7a8044fedc88418fa6b$__90634c60db9c9060440160006040518083038186803b158015610c3457600080fd5b505af4158015610c48573d6000803e3d6000fd5b505050505b505050505050565b6000610c5f611803565b506001600160a01b03821660009081526076602052604081206002810180549083905590915b8254811015610e4157610cfe60736000858481548110610ca757610ca7612e41565b9060005260206000200154815260200190815260200160002060736000868581548110610cd657610cd6612e41565b9060005260206000200154815260200190815260200160002060010154606a54606e5461266e565b50600060766000876001600160a01b03166001600160a01b031681526020019081526020016000206001016000858481548110610d3d57610d3d612e41565b906000526020600020015481526020019081526020016000209050610e1281610da76064610916607560008a8981548110610d7a57610d7a612e41565b9060005260206000200154815260200190815260200160002054866001015461270e90919063ffffffff16565b60736000888781548110610dbd57610dbd612e41565b906000526020600020015481526020019081526020016000206000015460736000898881548110610df057610df0612e41565b906000526020600020015481526020019081526020016000206004015461266e565b506003810154610e229084612732565b6000600390920191909155915080610e3981612e84565b915050610c85565b506001600160a01b038416600090815260766020526040902060030154610e689082612732565b6001600160a01b038581166000818152607660205260409081902060030193909355606554925163a9059cbb60e01b815260048101919091526024810184905291169063a9059cbb906044016020604051808303816000875af1158015610ed3573d6000803e3d6000fd5b505050506040513d601f19601f82011682018060405250810190610ef79190612e9f565b50836001600160a01b03167f5329b89678b0f095cae2abe10b88ad57329871ee9296ae8f358a46b9fa0ff32882604051610f3391815260200190565b60405180910390a29392505050565b60608167ffffffffffffffff811115610f5d57610f5d612ce2565b604051908082528060200260200182016040528015610f86578160200160208202803683370190505b50905060005b8281101561103f5761101060766000868685818110610fad57610fad612e41565b9050602002016020810190610fc29190612ba1565b6001600160a01b03166001600160a01b031681526020019081526020016000206003015461095f868685818110610ffb57610ffb612e41565b90506020020160208101906105029190612ba1565b82828151811061102257611022612e41565b60209081029190910101528061103781612e84565b915050610f8c565b5092915050565b61104e61273e565b611056611803565b506065546040516370a0823160e01b81523060048201526000916001600160a01b0316906370a0823190602401602060405180830381865afa1580156110a0573d6000803e3d6000fd5b505050506040513d601f19601f820116820180604052508101906110c49190612ebc565b9050808211156111165760405162461bcd60e51b815260206004820152601b60248201527f4469766964656e642f696e73756666696369656e742d66756e647300000000006044820152606401610891565b60655460405163a9059cbb60e01b81526001600160a01b038581166004830152602482018590529091169063a9059cbb906044016020604051808303816000875af1158015611169573d6000803e3d6000fd5b505050506040513d601f19601f8201168201806040525081019061118d9190612e9f565b50826001600160a01b03167f7084f5476618d8e60b11ef0d7d3f06914655adb8793e28ff7f018d4c76d505d5836040516111c991815260200190565b60405180910390a2505050565b6067546001600160a01b031633146112275760405162461bcd60e51b815260206004820152601460248201527327a7262cafa234bb34b232b7321029b2b2ba32b960611b6044820152606401610891565b801580611240575060715460725461123e91612732565b155b156112485750565b600061126460646109166069548561270e90919063ffffffff16565b6072549091501561129e5761128a606f5461095f6072548461271a90919063ffffffff16565b606f5560705461129a9082612732565b6070555b607154156112e2576112c5606e5461095f607154610916858761272690919063ffffffff16565b606e556112de6112d58383612726565b60705490612732565b6070555b505b50565b6001600160a01b0381166000908152607460209081526040808320815160a081018352815481526001820154938101939093526002810154918301919091526003810154606083015260040154608082015261134d90611345612798565b606f54612815565b92915050565b60008061135e6128a4565b6001600160a01b0384166000908152607660205260408120600281015492935091905b82548110156114a257600060766000886001600160a01b03166001600160a01b0316815260200190815260200160002060010160008584815481106113c8576113c8612e41565b906000526020600020015481526020019081526020016000209050600061143060646109166075600089888154811061140357611403612e41565b9060005260206000200154815260200190815260200160002054856001015461270e90919063ffffffff16565b8254909150600090611443908890612726565b905060006114518383612924565b905060006114786114718660040154606e5461272690919063ffffffff16565b859061270e565b90506114888161095f8985612732565b96505050505050808061149a90612e84565b915050611381565b50949350505050565b6114b361273e565b6001600160a01b0381166114f75760405162461bcd60e51b815260206004820152600b60248201526a24a72b2624a22fa0a2222960a91b6044820152606401610891565b606780546001600160a01b0319166001600160a01b0392909216919091179055565b600080600080600080600080607773__$4b09164eaf8a84d7a8044fedc88418fa6b$__63deb3d89690916040518263ffffffff1660e01b815260040161156191815260200190565b602060405180830381865af415801561157e573d6000803e3d6000fd5b505050506040513d601f19601f820116820180604052508101906115a29190612ebc565b89106115c7575060009650600019955085945086935083925082915081905080611662565b6040516368d54f3f60e11b815260776004820152602481018a905260009073__$4b09164eaf8a84d7a8044fedc88418fa6b$__9063d1aa9e7e90604401602060405180830381865af4158015611621573d6000803e3d6000fd5b505050506040513d601f19601f820116820180604052508101906116459190612ed5565b905061165081612392565b98509850985098509850985098509850505b919395975091939597565b60608167ffffffffffffffff81111561168857611688612ce2565b6040519080825280602002602001820160405280156116b1578160200160208202803683370190505b50905060005b8281101561103f57611752607460008686858181106116d8576116d8612e41565b90506020020160208101906116ed9190612ba1565b6001600160a01b03166001600160a01b031681526020019081526020016000206040518060a001604052908160008201548152602001600182015481526020016002820154815260200160038201548152602001600482015481525050611345612798565b82828151811061176457611764612e41565b60209081029190910101528061177981612e84565b9150506116b7565b61178961273e565b6117936000612945565b565b61179d61273e565b6001600160a01b0381166117e15760405162461bcd60e51b815260206004820152600b60248201526a24a72b2624a22fa0a2222960a91b6044820152606401610891565b606680546001600160a01b0319166001600160a01b0392909216919091179055565b600080611815607e5463ffffffff1690565b606c5463ffffffff91821692501681141561183257600091505090565b606c5460009061184d90839063ffffffff9081169061272616565b905060006118666068548361270e90919063ffffffff16565b9050600061188460646109166069548561270e90919063ffffffff16565b607254909150156118b257600061189d82607254612997565b606b549091506118ad9082612732565b606b55505b607154156118e65760006118d16118c98484612726565b607154612997565b606a549091506118e19082612732565b606a55505b6118ef846129b8565b606c805463ffffffff191663ffffffff928316179055606d5461191491849061273216565b606d55509392505050565b60008061192d858585612815565b604086015190915061193f9082612732565b9150505b9392505050565b60608167ffffffffffffffff81111561196557611965612ce2565b60405190808252806020026020018201604052801561198e578160200160208202803683370190505b50905060005b8281101561103f57611a37607460008686858181106119b5576119b5612e41565b90506020020160208101906119ca9190612ba1565b6001600160a01b03166001600160a01b031681526020019081526020016000206040518060a001604052908160008201548152602001600182015481526020016002820154815260200160038201548152602001600482015481525050611a2f612798565b606f5461191f565b828281518110611a4957611a49612e41565b602090810291909101015280611a5e81612e84565b915050611994565b600080611a7284610c55565b90508015611a9e5750506001600160a01b0382166000908152607c60205260409020429055600161134d565b5060009392505050565b600060715460001415611abd57506000919050565b6001600160a01b03821660009081526076602052604081208190815b8154811015611b8c57600060766000886001600160a01b03166001600160a01b031681526020019081526020016000206001016000848481548110611b2057611b20612e41565b906000526020600020015481526020019081526020016000209050611b5d8561095f606461091660756000898981548110610d7a57610d7a612e41565b9450611b7681600101548561273290919063ffffffff16565b9350508080611b8490612e84565b915050611ad9565b50611bbf82610916611bab607054606d5461273290919063ffffffff16565b607154611bb990889061271a565b9061270e565b95945050505050565b611bd061273e565b60008111611c205760405162461bcd60e51b815260206004820152601c60248201527f546f6b656e4661756365742f64726970526174652d67742d7a65726f000000006044820152606401610891565b611c28611803565b5060688190556040518181527f3d38e7cd2e029035006f9977a727c8724cd41dffb6d2a40d9f66bd4c26836a329060200160405180910390a150565b600054600190610100900460ff16158015611c86575060005460ff8083169116105b611ce95760405162461bcd60e51b815260206004820152602e60248201527f496e697469616c697a61626c653a20636f6e747261637420697320616c72656160448201526d191e481a5b9a5d1a585b1a5e995960921b6064820152608401610891565b6000805461ffff191660ff831617610100179055611d05612a21565b607e54606c805463ffffffff191663ffffffff909216919091179055606580546001600160a01b0385166001600160a01b0319909116179055611d4782611bc8565b6000805461ff001916905560405160ff821681527f7f26b83ff96e1f2b6a682f133852f6798a09c465da95921460cefb38474024989060200160405180910390a1505050565b60608167ffffffffffffffff811115611da857611da8612ce2565b604051908082528060200260200182016040528015611dd1578160200160208202803683370190505b50905060005b8281101561103f57611df4848483818110610ffb57610ffb612e41565b828281518110611e0657611e06612e41565b602090810291909101015280611e1b81612e84565b915050611dd7565b6067546001600160a01b03163314611e745760405162461bcd60e51b815260206004820152601460248201527327a7262cafa234bb34b232b7321029b2b2ba32b960611b6044820152606401610891565b6112e4816111d6565b6066546001600160a01b03163314611ec95760405162461bcd60e51b815260206004820152600f60248201526e27a7262cafa1a7a72a2927a62622a960891b6044820152606401610891565b611ed1611803565b506001600160a01b03841660009081526074602052604090206001810154606b54606f54611f019392919061266e565b506001600160a01b038416600090815260746020526040902060010154607254611f3091859161095f91612726565b6072556001600160a01b038416600090815260746020908152604080832060010186905584835260759091529020548114611fe4576000828152607560209081526040808320546073909252822060010154611f92916064916109169161270e565b60008481526073602052604081206001015491925090611fb2908461270e565b9050611fcd8161095f8460715461272690919063ffffffff16565b607155505060008281526075602052604090208190555b604051632f0ad01760e21b8152607760048201526001600160a01b03851660248201526044810184905273__$4b09164eaf8a84d7a8044fedc88418fa6b$__9063bc2b405c9060640160006040518083038186803b15801561204557600080fd5b505af4158015612059573d6000803e3d6000fd5b5050505050505050565b61206b61273e565b610e1081101580156120805750620151808111155b6121065760405162461bcd60e51b815260206004820152604b60248201527f546f6b656e5f4469766964656e645f547261636b65723a20636c61696d57616960448201527f74206d757374206265207570646174656420746f206265747765656e2031206160648201526a6e6420323420686f75727360a81b608482015260a401610891565b607d5481141561217e5760405162461bcd60e51b815260206004820152603d60248201527f546f6b656e5f4469766964656e645f547261636b65723a2043616e6e6f74207560448201527f706461746520636c61696d5761697420746f2073616d652076616c75650000006064820152608401610891565b607d5460405182907f474ea64804364a1e29a4487ddb63c3342a2dd826ccd8acf48825e680a0e6f20f90600090a3607d55565b6121b961273e565b6001600160a01b03811661221e5760405162461bcd60e51b815260206004820152602660248201527f4f776e61626c653a206e6577206f776e657220697320746865207a65726f206160448201526564647265737360d01b6064820152608401610891565b6112e481612945565b6000612231611803565b506001600160a01b03821660009081526074602052604090206001810154606b54606f546122619392919061266e565b506001600160a01b03821660009081526074602052604090206003015461228a57506000919050565b6001600160a01b0382166000908152607460205260408120600381018054929055600201546122b99082612732565b6001600160a01b038481166000818152607460205260409081902060020193909355606554925163a9059cbb60e01b815260048101919091526024810184905291169063a9059cbb906044016020604051808303816000875af1158015612324573d6000803e3d6000fd5b505050506040513d601f19601f820116820180604052508101906123489190612e9f565b50826001600160a01b03167f638b31b360307f664fe65f94e19b3fb3b6569d947245b7195cff88cf1c0e1c148260405161238491815260200190565b60405180910390a292915050565b6040516317e142d160e01b8152607760048201526001600160a01b0382166024820152819060009081908190819081908190819073__$4b09164eaf8a84d7a8044fedc88418fa6b$__906317e142d190604401602060405180830381865af4158015612402573d6000803e3d6000fd5b505050506040513d601f19601f820116820180604052508101906124269190612ebc565b965060001995506000871261248857607b5487111561245457607b5461244d908890612a50565b9550612488565b607b5460775460009110612469576000612478565b607b5460775461247891612726565b90506124848882612a9c565b9650505b6001600160a01b0388166000908152607460209081526040808320600301546076909252909120600201546124bc91612732565b6001600160a01b0389166000908152607460209081526040808320600201546076909252909120600301549196506124f49190612732565b6001600160a01b0389166000908152607c602052604090205490945092508261251e57600061252c565b607d5461252c908490612732565b915042821161253c576000612546565b6125468242612726565b9050919395975091939597565b6077546000908190819080612573575050607b5460009250829150612667565b607b546000805a90506000805b898410801561258e57508582105b15612656578461259d81612e84565b607754909650861090506125b057600094505b6000607760000186815481106125c8576125c8612e41565b60009182526020808320909101546001600160a01b0316808352607c9091526040909120549091506125f990612ada565b1561261c57612609816001611a66565b1561261c578161261881612e84565b9250505b8261262681612e84565b93505060005a90508085111561264d5761264a6126438683612726565b8790612732565b95505b93506125809050565b607b85905590975095509193505050505b9193909250565b835460009083141561268257506000612706565b8454600090612692908590612726565b905060006126a08683612924565b85885560038801549091506126b59082612732565b600388015560048701546000906126d8906126d1908790612726565b889061270e565b6004890186905560038901549091506126f19082612732565b60038901556127008282612732565b93505050505b949350505050565b60006119438284612ef2565b60006119438284612f11565b60006119438284612e57565b60006119438284612f33565b6033546001600160a01b031633146117935760405162461bcd60e51b815260206004820181905260248201527f4f776e61626c653a2063616c6c6572206973206e6f7420746865206f776e65726044820152606401610891565b606c54600090819063ffffffff166127b5607e5463ffffffff1690565b6127bf9190612f4b565b63ffffffff16905060006127de6068548361270e90919063ffffffff16565b905060006127fc60646109166069548561270e90919063ffffffff16565b905061280d606b5460725483612b01565b935050505090565b6000806128378560200151611bb987608001518661272690919063ffffffff16565b855190915084141561285a5760608501516128529082612732565b915050611943565b845160009061286a908690612726565b9050600061287c876020015183612924565b90506128998361095f838a6060015161273290919063ffffffff16565b979650505050505050565b606c54600090819063ffffffff166128c1607e5463ffffffff1690565b6128cb9190612f4b565b63ffffffff16905060006128ea6068548361270e90919063ffffffff16565b9050600061290860646109166069548561270e90919063ffffffff16565b606a5460715491925061280d9161291f8585612726565b612b01565b600080612931838561270e565b905061270681670de0b6b3a764000061271a565b603380546001600160a01b038381166001600160a01b0319831681179093556040519116919082907f8be0079c531659141344cd1fd0a4f28419497f9722a3daafe3b4186f6b6457e090600090a35050565b6000806129ac84670de0b6b3a764000061270e565b9050612706818461271a565b600063ffffffff821115612a1d5760405162461bcd60e51b815260206004820152602660248201527f53616665436173743a2076616c756520646f65736e27742066697420696e203360448201526532206269747360d01b6064820152608401610891565b5090565b600054610100900460ff16612a485760405162461bcd60e51b815260040161089190612f70565b611793612b27565b6000808212158015612a6b575082612a688382612fbb565b13155b80612a895750600082128015612a89575082612a878382612fbb565b135b612a9257600080fd5b6119438284612fbb565b600080612aa98385612ffa565b905060008312158015612abc5750838112155b80612ad15750600083128015612ad157508381125b61194357600080fd5b600042821115612aec57506000919050565b607d54612af94284612726565b101592915050565b600082612b0f575082611943565b6000612b1b8385612997565b905061193f8186612732565b600054610100900460ff16612b4e5760405162461bcd60e51b815260040161089190612f70565b61179333612945565b6001600160a01b03811681146112e457600080fd5b600080600060608486031215612b8157600080fd5b8335612b8c81612b57565b95602085013595506040909401359392505050565b600060208284031215612bb357600080fd5b813561194381612b57565b60008060208385031215612bd157600080fd5b823567ffffffffffffffff80821115612be957600080fd5b818501915085601f830112612bfd57600080fd5b813581811115612c0c57600080fd5b8660208260051b8501011115612c2157600080fd5b60209290920196919550909350505050565b6020808252825182820181905260009190848201906040850190845b81811015612c6b57835183529284019291840191600101612c4f565b50909695505050505050565b60008060408385031215612c8a57600080fd5b8235612c9581612b57565b946020939093013593505050565b600060208284031215612cb557600080fd5b5035919050565b600060208284031215612cce57600080fd5b813563ffffffff8116811461194357600080fd5b634e487b7160e01b600052604160045260246000fd5b600080600083850360e0811215612d0e57600080fd5b60a0811215612d1c57600080fd5b5060405160a0810181811067ffffffffffffffff82111715612d4e57634e487b7160e01b600052604160045260246000fd5b60409081528535825260208087013590830152858101359082015260608086013590820152608080860135908201529560a0850135955060c0909401359392505050565b80151581146112e457600080fd5b60008060408385031215612db357600080fd5b8235612dbe81612b57565b91506020830135612dce81612d92565b809150509250929050565b60008060008060808587031215612def57600080fd5b8435612dfa81612b57565b966020860135965060408601359560600135945092505050565b634e487b7160e01b600052601160045260246000fd5b600081612e3957612e39612e14565b506000190190565b634e487b7160e01b600052603260045260246000fd5b600082821015612e6957612e69612e14565b500390565b634e487b7160e01b600052603160045260246000fd5b6000600019821415612e9857612e98612e14565b5060010190565b600060208284031215612eb157600080fd5b815161194381612d92565b600060208284031215612ece57600080fd5b5051919050565b600060208284031215612ee757600080fd5b815161194381612b57565b6000816000190483118215151615612f0c57612f0c612e14565b500290565b600082612f2e57634e487b7160e01b600052601260045260246000fd5b500490565b60008219821115612f4657612f46612e14565b500190565b600063ffffffff83811690831681811015612f6857612f68612e14565b039392505050565b6020808252602b908201527f496e697469616c697a61626c653a20636f6e7472616374206973206e6f74206960408201526a6e697469616c697a696e6760a81b606082015260800190565b60008083128015600160ff1b850184121615612fd957612fd9612e14565b6001600160ff1b0384018313811615612ff457612ff4612e14565b50500390565b600080821280156001600160ff1b038490038513161561301c5761301c612e14565b600160ff1b839003841281161561303557613035612e14565b5050019056fea26469706673582212201e36f7289230aa9e89d2f132e4475cd05380d3218558361f042c122ec4de83e164736f6c634300080b0033",
  "linkReferences": {
    "contracts/lib/IterableMapping.sol": {
      "IterableMapping": [
        {
          "length": 20,
          "start": 3024
        },
        {
          "length": 20,
          "start": 3143
        },
        {
          "length": 20,
          "start": 5489
        },
        {
          "length": 20,
          "start": 5679
        },
        {
          "length": 20,
          "start": 8280
        },
        {
          "length": 20,
          "start": 9232
        }
      ]
    }
  },
  "deployedLinkReferences": {
    "contracts/lib/IterableMapping.sol": {
      "IterableMapping": [
        {
          "length": 20,
          "start": 2952
        },
        {
          "length": 20,
          "start": 3071
        },
        {
          "length": 20,
          "start": 5417
        },
        {
          "length": 20,
          "start": 5607
        },
        {
          "length": 20,
          "start": 8208
        },
        {
          "length": 20,
          "start": 9160
        }
      ]
    }
  }
}