{
  "_format": "hh-sol-artifact-1",
  "contractName": "BIBDividendHarness",
  "sourceName": "contracts/test/BIBDividendHarness.sol",
  "abi": [
    {
      "anonymous": false,
      "inputs": [
        {
          "indexed": true,
          "internalType": "uint256",
          "name": "newValue",
          "type": "uint256"
        },
        {
          "indexed": true,
          "internalType": "uint256",
          "name": "oldValue",
          "type": "uint256"
        }
      ],
      "name": "ClaimWaitUpdated",
      "type": "event"
    },
    {
      "anonymous": false,
      "inputs": [
        {
          "indexed": false,
          "internalType": "uint256",
          "name": "dripRatePerSecond",
          "type": "uint256"
        }
      ],
      "name": "DripRateChanged",
      "type": "event"
    },
    {
      "anonymous": false,
      "inputs": [
        {
          "indexed": false,
          "internalType": "uint8",
          "name": "version",
          "type": "uint8"
        }
      ],
      "name": "Initialized",
      "type": "event"
    },
    {
      "anonymous": false,
      "inputs": [
        {
          "indexed": true,
          "internalType": "address",
          "name": "user",
          "type": "address"
        },
        {
          "indexed": false,
          "internalType": "uint256",
          "name": "newTokens",
          "type": "uint256"
        }
      ],
      "name": "NodeClaimed",
      "type": "event"
    },
    {
      "anonymous": false,
      "inputs": [
        {
          "indexed": false,
          "internalType": "uint256",
          "name": "nodeRate",
          "type": "uint256"
        }
      ],
      "name": "NodeRateChange",
      "type": "event"
    },
    {
      "anonymous": false,
      "inputs": [
        {
          "indexed": true,
          "internalType": "address",
          "name": "previousOwner",
          "type": "address"
        },
        {
          "indexed": true,
          "internalType": "address",
          "name": "newOwner",
          "type": "address"
        }
      ],
      "name": "OwnershipTransferred",
      "type": "event"
    },
    {
      "anonymous": false,
      "inputs": [
        {
          "indexed": true,
          "internalType": "address",
          "name": "user",
          "type": "address"
        },
        {
          "indexed": false,
          "internalType": "uint256",
          "name": "newTokens",
          "type": "uint256"
        }
      ],
      "name": "UserClaimed",
      "type": "event"
    },
    {
      "anonymous": false,
      "inputs": [
        {
          "indexed": true,
          "internalType": "address",
          "name": "to",
          "type": "address"
        },
        {
          "indexed": false,
          "internalType": "uint256",
          "name": "amount",
          "type": "uint256"
        }
      ],
      "name": "Withdrawn",
      "type": "event"
    },
    {
      "inputs": [
        {
          "components": [
            {
              "internalType": "uint256",
              "name": "lastExchangeRateMantissa",
              "type": "uint256"
            },
            {
              "internalType": "uint256",
              "name": "balance",
              "type": "uint256"
            },
            {
              "internalType": "uint256",
              "name": "totalClaim",
              "type": "uint256"
            },
            {
              "internalType": "uint256",
              "name": "unClaim",
              "type": "uint256"
            },
            {
              "internalType": "uint256",
              "name": "lastDividendPerShare",
              "type": "uint256"
            }
          ],
          "internalType": "struct BIBDividend.ExState",
          "name": "userState",
          "type": "tuple"
        },
        {
          "internalType": "uint256",
          "name": "_exchangeRateMantissa",
          "type": "uint256"
        },
        {
          "internalType": "uint256",
          "name": "_dividendPerShare",
          "type": "uint256"
        }
      ],
      "name": "_getUserAllRewards",
      "outputs": [
        {
          "internalType": "uint256",
          "name": "",
          "type": "uint256"
        }
      ],
      "stateMutability": "pure",
      "type": "function"
    },
    {
      "inputs": [],
      "name": "asset",
      "outputs": [
        {
          "internalType": "contract IERC20Upgradeable",
          "name": "",
          "type": "address"
        }
      ],
      "stateMutability": "view",
      "type": "function"
    },
    {
      "inputs": [],
      "name": "claimWait",
      "outputs": [
        {
          "internalType": "uint256",
          "name": "",
          "type": "uint256"
        }
      ],
      "stateMutability": "view",
      "type": "function"
    },
    {
      "inputs": [],
      "name": "controller",
      "outputs": [
        {
          "internalType": "address",
          "name": "",
          "type": "address"
        }
      ],
      "stateMutability": "view",
      "type": "function"
    },
    {
      "inputs": [],
      "name": "currentTime",
      "outputs": [
        {
          "internalType": "uint32",
          "name": "",
          "type": "uint32"
        }
      ],
      "stateMutability": "view",
      "type": "function"
    },
    {
      "inputs": [
        {
          "internalType": "address",
          "name": "nodeOwner",
          "type": "address"
        },
        {
          "internalType": "uint256",
          "name": "ticketId",
          "type": "uint256"
        }
      ],
      "name": "disbandNode",
      "outputs": [],
      "stateMutability": "nonpayable",
      "type": "function"
    },
    {
      "inputs": [
        {
          "internalType": "uint256",
          "name": "amount",
          "type": "uint256"
        }
      ],
      "name": "distributeDividends",
      "outputs": [],
      "stateMutability": "nonpayable",
      "type": "function"
    },
    {
      "inputs": [],
      "name": "dividendSetter",
      "outputs": [
        {
          "internalType": "address",
          "name": "",
          "type": "address"
        }
      ],
      "stateMutability": "view",
      "type": "function"
    },
    {
      "inputs": [],
      "name": "drip",
      "outputs": [
        {
          "internalType": "uint256",
          "name": "",
          "type": "uint256"
        }
      ],
      "stateMutability": "nonpayable",
      "type": "function"
    },
    {
      "inputs": [],
      "name": "dripRatePerSecond",
      "outputs": [
        {
          "internalType": "uint256",
          "name": "",
          "type": "uint256"
        }
      ],
      "stateMutability": "view",
      "type": "function"
    },
    {
      "inputs": [
        {
          "internalType": "address",
          "name": "_account",
          "type": "address"
        }
      ],
      "name": "getAccount",
      "outputs": [
        {
          "internalType": "address",
          "name": "account",
          "type": "address"
        },
        {
          "internalType": "int256",
          "name": "index",
          "type": "int256"
        },
        {
          "internalType": "int256",
          "name": "iterationsUntilProcessed",
          "type": "int256"
        },
        {
          "internalType": "uint256",
          "name": "withdrawableDividends",
          "type": "uint256"
        },
        {
          "internalType": "uint256",
          "name": "totalDividends",
          "type": "uint256"
        },
        {
          "internalType": "uint256",
          "name": "lastClaimTime",
          "type": "uint256"
        },
        {
          "internalType": "uint256",
          "name": "nextClaimTime",
          "type": "uint256"
        },
        {
          "internalType": "uint256",
          "name": "secondsUntilAutoClaimAvailable",
          "type": "uint256"
        }
      ],
      "stateMutability": "view",
      "type": "function"
    },
    {
      "inputs": [
        {
          "internalType": "uint256",
          "name": "index",
          "type": "uint256"
        }
      ],
      "name": "getAccountAtIndex",
      "outputs": [
        {
          "internalType": "address",
          "name": "",
          "type": "address"
        },
        {
          "internalType": "int256",
          "name": "",
          "type": "int256"
        },
        {
          "internalType": "int256",
          "name": "",
          "type": "int256"
        },
        {
          "internalType": "uint256",
          "name": "",
          "type": "uint256"
        },
        {
          "internalType": "uint256",
          "name": "",
          "type": "uint256"
        },
        {
          "internalType": "uint256",
          "name": "",
          "type": "uint256"
        },
        {
          "internalType": "uint256",
          "name": "",
          "type": "uint256"
        },
        {
          "internalType": "uint256",
          "name": "",
          "type": "uint256"
        }
      ],
      "stateMutability": "view",
      "type": "function"
    },
    {
      "inputs": [],
      "name": "getLastProcessedIndex",
      "outputs": [
        {
          "internalType": "uint256",
          "name": "",
          "type": "uint256"
        }
      ],
      "stateMutability": "view",
      "type": "function"
    },
    {
      "inputs": [
        {
          "internalType": "uint256",
          "name": "_ticketId",
          "type": "uint256"
        }
      ],
      "name": "getNodeApr",
      "outputs": [
        {
          "internalType": "uint256",
          "name": "",
          "type": "uint256"
        }
      ],
      "stateMutability": "view",
      "type": "function"
    },
    {
      "inputs": [
        {
          "internalType": "address",
          "name": "user",
          "type": "address"
        }
      ],
      "name": "getNodeUnClaim",
      "outputs": [
        {
          "internalType": "uint256",
          "name": "",
          "type": "uint256"
        }
      ],
      "stateMutability": "view",
      "type": "function"
    },
    {
      "inputs": [
        {
          "internalType": "address[]",
          "name": "users",
          "type": "address[]"
        }
      ],
      "name": "getNodesAllRewards",
      "outputs": [
        {
          "internalType": "uint256[]",
          "name": "rewards",
          "type": "uint256[]"
        }
      ],
      "stateMutability": "view",
      "type": "function"
    },
    {
      "inputs": [
        {
          "internalType": "address[]",
          "name": "users",
          "type": "address[]"
        }
      ],
      "name": "getNodesUnClaim",
      "outputs": [
        {
          "internalType": "uint256[]",
          "name": "unClaims",
          "type": "uint256[]"
        }
      ],
      "stateMutability": "view",
      "type": "function"
    },
    {
      "inputs": [],
      "name": "getNumberOfTokenHolders",
      "outputs": [
        {
          "internalType": "uint256",
          "name": "",
          "type": "uint256"
        }
      ],
      "stateMutability": "view",
      "type": "function"
    },
    {
      "inputs": [
        {
          "internalType": "address",
          "name": "_user",
          "type": "address"
        }
      ],
      "name": "getUserApr",
      "outputs": [
        {
          "internalType": "uint256",
          "name": "",
          "type": "uint256"
        }
      ],
      "stateMutability": "view",
      "type": "function"
    },
    {
      "inputs": [
        {
          "internalType": "address",
          "name": "user",
          "type": "address"
        }
      ],
      "name": "getUserUnClaim",
      "outputs": [
        {
          "internalType": "uint256",
          "name": "newTokens",
          "type": "uint256"
        }
      ],
      "stateMutability": "view",
      "type": "function"
    },
    {
      "inputs": [
        {
          "internalType": "address",
          "name": "user",
          "type": "address"
        }
      ],
      "name": "getUserUnClaimWithNode",
      "outputs": [
        {
          "internalType": "uint256[]",
          "name": "_nodeList",
          "type": "uint256[]"
        },
        {
          "internalType": "uint256[]",
          "name": "_rewardsList",
          "type": "uint256[]"
        }
      ],
      "stateMutability": "view",
      "type": "function"
    },
    {
      "inputs": [
        {
          "internalType": "address[]",
          "name": "users",
          "type": "address[]"
        }
      ],
      "name": "getUsersAllRewards",
      "outputs": [
        {
          "internalType": "uint256[]",
          "name": "rewards",
          "type": "uint256[]"
        }
      ],
      "stateMutability": "view",
      "type": "function"
    },
    {
      "inputs": [
        {
          "internalType": "address[]",
          "name": "users",
          "type": "address[]"
        }
      ],
      "name": "getUsersUnClaim",
      "outputs": [
        {
          "internalType": "uint256[]",
          "name": "unClaims",
          "type": "uint256[]"
        }
      ],
      "stateMutability": "view",
      "type": "function"
    },
    {
      "inputs": [
        {
          "internalType": "uint256",
          "name": "amount",
          "type": "uint256"
        }
      ],
      "name": "handleReceive",
      "outputs": [],
      "stateMutability": "nonpayable",
      "type": "function"
    },
    {
      "inputs": [
        {
          "internalType": "contract IERC20Upgradeable",
          "name": "_asset",
          "type": "address"
        },
        {
          "internalType": "uint256",
          "name": "_dripRatePerSecond",
          "type": "uint256"
        }
      ],
      "name": "initialize",
      "outputs": [],
      "stateMutability": "nonpayable",
      "type": "function"
    },
    {
      "inputs": [
        {
          "internalType": "address",
          "name": "",
          "type": "address"
        }
      ],
      "name": "lastClaimTimes",
      "outputs": [
        {
          "internalType": "uint256",
          "name": "",
          "type": "uint256"
        }
      ],
      "stateMutability": "view",
      "type": "function"
    },
    {
      "inputs": [],
      "name": "lastDripTimestamp",
      "outputs": [
        {
          "internalType": "uint32",
          "name": "",
          "type": "uint32"
        }
      ],
      "stateMutability": "view",
      "type": "function"
    },
    {
      "inputs": [],
      "name": "lastProcessedIndex",
      "outputs": [
        {
          "internalType": "uint256",
          "name": "",
          "type": "uint256"
        }
      ],
      "stateMutability": "view",
      "type": "function"
    },
    {
      "inputs": [],
      "name": "minimumTokenBalanceForDividends",
      "outputs": [
        {
          "internalType": "uint256",
          "name": "",
          "type": "uint256"
        }
      ],
      "stateMutability": "view",
      "type": "function"
    },
    {
      "inputs": [
        {
          "internalType": "address",
          "name": "user",
          "type": "address"
        }
      ],
      "name": "nodeClaim",
      "outputs": [
        {
          "internalType": "uint256",
          "name": "",
          "type": "uint256"
        }
      ],
      "stateMutability": "nonpayable",
      "type": "function"
    },
    {
      "inputs": [],
      "name": "nodeDividendPerShare",
      "outputs": [
        {
          "internalType": "uint256",
          "name": "",
          "type": "uint256"
        }
      ],
      "stateMutability": "view",
      "type": "function"
    },
    {
      "inputs": [],
      "name": "nodeExchangeRateMantissa",
      "outputs": [
        {
          "internalType": "uint256",
          "name": "",
          "type": "uint256"
        }
      ],
      "stateMutability": "view",
      "type": "function"
    },
    {
      "inputs": [],
      "name": "nodeRate",
      "outputs": [
        {
          "internalType": "uint256",
          "name": "",
          "type": "uint256"
        }
      ],
      "stateMutability": "view",
      "type": "function"
    },
    {
      "inputs": [
        {
          "internalType": "address",
          "name": "",
          "type": "address"
        }
      ],
      "name": "nodeStates",
      "outputs": [
        {
          "internalType": "uint256",
          "name": "lastExchangeRateMantissa",
          "type": "uint256"
        },
        {
          "internalType": "uint256",
          "name": "balance",
          "type": "uint256"
        },
        {
          "internalType": "uint256",
          "name": "totalClaim",
          "type": "uint256"
        },
        {
          "internalType": "uint256",
          "name": "unClaim",
          "type": "uint256"
        },
        {
          "internalType": "uint256",
          "name": "lastDividendPerShare",
          "type": "uint256"
        }
      ],
      "stateMutability": "view",
      "type": "function"
    },
    {
      "inputs": [],
      "name": "nodeTotalStake",
      "outputs": [
        {
          "internalType": "uint256",
          "name": "",
          "type": "uint256"
        }
      ],
      "stateMutability": "view",
      "type": "function"
    },
    {
      "inputs": [
        {
          "internalType": "uint256",
          "name": "",
          "type": "uint256"
        }
      ],
      "name": "nodeWeight",
      "outputs": [
        {
          "internalType": "uint256",
          "name": "",
          "type": "uint256"
        }
      ],
      "stateMutability": "view",
      "type": "function"
    },
    {
      "inputs": [],
      "name": "owner",
      "outputs": [
        {
          "internalType": "address",
          "name": "",
          "type": "address"
        }
      ],
      "stateMutability": "view",
      "type": "function"
    },
    {
      "inputs": [
        {
          "internalType": "uint256",
          "name": "gas",
          "type": "uint256"
        }
      ],
      "name": "process",
      "outputs": [
        {
          "internalType": "uint256",
          "name": "",
          "type": "uint256"
        },
        {
          "internalType": "uint256",
          "name": "",
          "type": "uint256"
        },
        {
          "internalType": "uint256",
          "name": "",
          "type": "uint256"
        }
      ],
      "stateMutability": "nonpayable",
      "type": "function"
    },
    {
      "inputs": [
        {
          "internalType": "address",
          "name": "account",
          "type": "address"
        },
        {
          "internalType": "bool",
          "name": "automatic",
          "type": "bool"
        }
      ],
      "name": "processAccount",
      "outputs": [
        {
          "internalType": "bool",
          "name": "",
          "type": "bool"
        }
      ],
      "stateMutability": "nonpayable",
      "type": "function"
    },
    {
      "inputs": [],
      "name": "renounceOwnership",
      "outputs": [],
      "stateMutability": "nonpayable",
      "type": "function"
    },
    {
      "inputs": [
        {
          "internalType": "address",
          "name": "_asset",
          "type": "address"
        }
      ],
      "name": "setAsset",
      "outputs": [],
      "stateMutability": "nonpayable",
      "type": "function"
    },
    {
      "inputs": [
        {
          "internalType": "address",
          "name": "_cntr",
          "type": "address"
        }
      ],
      "name": "setController",
      "outputs": [],
      "stateMutability": "nonpayable",
      "type": "function"
    },
    {
      "inputs": [
        {
          "internalType": "uint32",
          "name": "_currentTime",
          "type": "uint32"
        }
      ],
      "name": "setCurrentTime",
      "outputs": [],
      "stateMutability": "nonpayable",
      "type": "function"
    },
    {
      "inputs": [
        {
          "internalType": "address",
          "name": "_setter",
          "type": "address"
        }
      ],
      "name": "setDividendSetter",
      "outputs": [],
      "stateMutability": "nonpayable",
      "type": "function"
    },
    {
      "inputs": [
        {
          "internalType": "uint256",
          "name": "_dripRatePerSecond",
          "type": "uint256"
        }
      ],
      "name": "setDripRatePerSecond",
      "outputs": [],
      "stateMutability": "nonpayable",
      "type": "function"
    },
    {
      "inputs": [
        {
          "internalType": "address",
          "name": "nodeOwner",
          "type": "address"
        },
        {
          "internalType": "uint256",
          "name": "amount",
          "type": "uint256"
        },
        {
          "internalType": "uint256",
          "name": "ticketId",
          "type": "uint256"
        },
        {
          "internalType": "uint256",
          "name": "weight",
          "type": "uint256"
        }
      ],
      "name": "setNodeBalance",
      "outputs": [],
      "stateMutability": "nonpayable",
      "type": "function"
    },
    {
      "inputs": [
        {
          "internalType": "uint256",
          "name": "_nodeRate",
          "type": "uint256"
        }
      ],
      "name": "setNodeRate",
      "outputs": [],
      "stateMutability": "nonpayable",
      "type": "function"
    },
    {
      "inputs": [
        {
          "internalType": "address",
          "name": "user",
          "type": "address"
        },
        {
          "internalType": "uint256",
          "name": "ticketId",
          "type": "uint256"
        },
        {
          "internalType": "uint256",
          "name": "amount",
          "type": "uint256"
        }
      ],
      "name": "setUserBalance",
      "outputs": [],
      "stateMutability": "nonpayable",
      "type": "function"
    },
    {
      "inputs": [],
      "name": "totalDividendsDistributed",
      "outputs": [
        {
          "internalType": "uint256",
          "name": "",
          "type": "uint256"
        }
      ],
      "stateMutability": "view",
      "type": "function"
    },
    {
      "inputs": [],
      "name": "totalDrip",
      "outputs": [
        {
          "internalType": "uint256",
          "name": "",
          "type": "uint256"
        }
      ],
      "stateMutability": "view",
      "type": "function"
    },
    {
      "inputs": [
        {
          "internalType": "address",
          "name": "olduser",
          "type": "address"
        },
        {
          "internalType": "address",
          "name": "newUser",
          "type": "address"
        }
      ],
      "name": "transferNode",
      "outputs": [],
      "stateMutability": "nonpayable",
      "type": "function"
    },
    {
      "inputs": [
        {
          "internalType": "address",
          "name": "newOwner",
          "type": "address"
        }
      ],
      "name": "transferOwnership",
      "outputs": [],
      "stateMutability": "nonpayable",
      "type": "function"
    },
    {
      "inputs": [
        {
          "internalType": "uint256",
          "name": "newClaimWait",
          "type": "uint256"
        }
      ],
      "name": "updateClaimWait",
      "outputs": [],
      "stateMutability": "nonpayable",
      "type": "function"
    },
    {
      "inputs": [
        {
          "internalType": "address",
          "name": "user",
          "type": "address"
        }
      ],
      "name": "userClaim",
      "outputs": [
        {
          "internalType": "uint256",
          "name": "",
          "type": "uint256"
        }
      ],
      "stateMutability": "nonpayable",
      "type": "function"
    },
    {
      "inputs": [],
      "name": "userDividendPerShare",
      "outputs": [
        {
          "internalType": "uint256",
          "name": "",
          "type": "uint256"
        }
      ],
      "stateMutability": "view",
      "type": "function"
    },
    {
      "inputs": [],
      "name": "userExchangeRateMantissa",
      "outputs": [
        {
          "internalType": "uint256",
          "name": "",
          "type": "uint256"
        }
      ],
      "stateMutability": "view",
      "type": "function"
    },
    {
      "inputs": [
        {
          "internalType": "uint256",
          "name": "",
          "type": "uint256"
        }
      ],
      "name": "userNodeDividendPerShare",
      "outputs": [
        {
          "internalType": "uint256",
          "name": "",
          "type": "uint256"
        }
      ],
      "stateMutability": "view",
      "type": "function"
    },
    {
      "inputs": [
        {
          "internalType": "uint256",
          "name": "",
          "type": "uint256"
        }
      ],
      "name": "userNodeRateMantissa",
      "outputs": [
        {
          "internalType": "uint256",
          "name": "",
          "type": "uint256"
        }
      ],
      "stateMutability": "view",
      "type": "function"
    },
    {
      "inputs": [
        {
          "internalType": "uint256",
          "name": "",
          "type": "uint256"
        }
      ],
      "name": "userNodeStates",
      "outputs": [
        {
          "internalType": "uint256",
          "name": "lastExchangeRateMantissa",
          "type": "uint256"
        },
        {
          "internalType": "uint256",
          "name": "balance",
          "type": "uint256"
        },
        {
          "internalType": "uint256",
          "name": "totalClaim",
          "type": "uint256"
        },
        {
          "internalType": "uint256",
          "name": "unClaim",
          "type": "uint256"
        },
        {
          "internalType": "uint256",
          "name": "lastDividendPerShare",
          "type": "uint256"
        }
      ],
      "stateMutability": "view",
      "type": "function"
    },
    {
      "inputs": [],
      "name": "userNodeTotalStake",
      "outputs": [
        {
          "internalType": "uint256",
          "name": "",
          "type": "uint256"
        }
      ],
      "stateMutability": "view",
      "type": "function"
    },
    {
      "inputs": [
        {
          "internalType": "address",
          "name": "",
          "type": "address"
        }
      ],
      "name": "userStakeStates",
      "outputs": [
        {
          "internalType": "uint256",
          "name": "unClaim",
          "type": "uint256"
        },
        {
          "internalType": "uint256",
          "name": "totalClaim",
          "type": "uint256"
        }
      ],
      "stateMutability": "view",
      "type": "function"
    },
    {
      "inputs": [
        {
          "internalType": "address",
          "name": "to",
          "type": "address"
        },
        {
          "internalType": "uint256",
          "name": "amount",
          "type": "uint256"
        }
      ],
      "name": "withdrawTo",
      "outputs": [],
      "stateMutability": "nonpayable",
      "type": "function"
    }
  ],
  "bytecode": "0x608060405234801561001057600080fd5b506135bc806100206000396000f3fe608060405234801561001057600080fd5b50600436106103ba5760003560e01c806392eefe9b116101f4578063d18e81b31161011a578063e964058c116100ad578063f77c47911161007c578063f77c479114610906578063fbcbc0f114610919578063fd3806211461092c578063ffb2c4791461093557600080fd5b8063e964058c146108c4578063e98030c7146108cd578063f2fde38b146108e0578063f39a19bf146108f357600080fd5b8063ddaf4848116100e9578063ddaf484814610875578063dfb2147714610888578063e4b1eacc1461089b578063e7841ec0146108bc57600080fd5b8063d18e81b31461080d578063d2677c0514610832578063d33a981114610845578063d9772a251461086557600080fd5b8063b6f0731611610192578063c7f6d4cc11610161578063c7f6d4cc146107c1578063ca5baafc146107d4578063cd6dc687146107e7578063d0d552dd146107fa57600080fd5b8063b6f0731614610779578063bc4c4b3714610782578063be10b614146107a5578063c7ad5eff146107ae57600080fd5b8063a57e6437116101ce578063a57e64371461072a578063a60d5a1a14610733578063ab69b8ce14610746578063b3c1999e1461076657600080fd5b806392eefe9b146107065780639f678cca146107195780639fd4e1cf1461072157600080fd5b806338d52e0f116102e4578063644a9e7111610277578063715018a611610246578063715018a6146106c457806380b49cdd146106cc57806385a6b3ae146106ec5780638da5cb5b146106f557600080fd5b8063644a9e711461066b57806368fd2e9f146106955780636d629dbe146106a85780636f2789ec146106bb57600080fd5b80634195c410116102b35780634195c410146105e45780635183d6fd146105f75780635f13bb8d1461064f57806360a22e501461066257600080fd5b806338d52e0f1461052a5780633bdfe437146105555780633df93072146105925780633f7b2ed9146105a557600080fd5b8063187f33341161035c57806325f3cbeb1161032b57806325f3cbeb146104965780633009a609146104fb5780633243c791146105045780633749ea101461051757600080fd5b8063187f333414610447578063205c287814610450578063226cfa3d1461046357806325c5ecbb1461048357600080fd5b80630a6b433f116103985780630a6b433f146103f85780630d0246841461040b5780630fc1f0821461042b578063163f7df51461043457600080fd5b806304a8d8b5146103bf57806305102062146103d457806309bbedde146103f0575b600080fd5b6103d26103cd366004613031565b610963565b005b6103dd606a5481565b6040519081526020015b60405180910390f35b6077546103dd565b6103dd610406366004613066565b610c70565b61041e610419366004613083565b610f17565b6040516103e79190613133565b6103dd606e5481565b6103dd610442366004613146565b61101b565b6103dd60685481565b6103d261045e36600461315f565b6110bb565b6103dd610471366004613066565b607c6020526000908152604090205481565b6103d261049136600461318b565b61124b565b6104d36104a4366004613066565b607460205260009081526040902080546001820154600283015460038401546004909401549293919290919085565b604080519586526020860194909452928401919091526060830152608082015260a0016103e7565b6103dd607b5481565b6103d2610512366004613146565b6112ee565b6103dd610525366004613066565b6113c1565b60655461053d906001600160a01b031681565b6040516001600160a01b0390911681526020016103e7565b6104d3610563366004613146565b607360205260009081526040902080546001820154600283015460038401546004909401549293919290919085565b6103dd6105a0366004613066565b61142d565b6105cf6105b3366004613066565b6076602052600090815260409020600281015460039091015482565b604080519283526020830191909152016103e7565b6103d26105f2366004613066565b6114ab565b61060a610605366004613146565b611519565b604080516001600160a01b0390991689526020890197909752958701949094526060860192909252608085015260a084015260c083015260e0820152610100016103e7565b60675461053d906001600160a01b031681565b6103dd606d5481565b6103d26106793660046131c4565b6081805463ffffffff191663ffffffff92909216919091179055565b61041e6106a3366004613083565b61166d565b6103d26106b636600461315f565b611781565b6103dd607d5481565b6103d2611833565b6103dd6106da366004613146565b60756020526000908152604090205481565b6103dd60705481565b6033546001600160a01b031661053d565b6103d2610714366004613066565b611847565b6103dd6118b5565b6103dd606f5481565b6103dd60725481565b6103dd610741366004613200565b6119c0565b6103dd610754366004613146565b607f6020526000908152604090205481565b61041e610774366004613083565b6119eb565b6103dd60715481565b6107956107903660046132a8565b611b07565b60405190151581526020016103e7565b6103dd607e5481565b6103d26107bc366004613146565b611b49565b6103dd6107cf366004613066565b611be6565b6103d26107e2366004613146565b611d38565b6103d26107f536600461315f565b611dce565b6103d2610808366004613066565b611f0c565b60815461081d9063ffffffff1681565b60405163ffffffff90911681526020016103e7565b61041e610840366004613083565b611f36565b6103dd610853366004613146565b60806020526000908152604090205481565b606c5461081d9063ffffffff1681565b6103d2610883366004613146565b611fcc565b6103d26108963660046132d6565b612026565b6108ae6108a9366004613066565b612172565b6040516103e7929190613311565b607b546103dd565b6103dd606b5481565b6103d26108db366004613146565b6123d7565b6103d26108ee366004613066565b612525565b6103dd610901366004613066565b61259b565b60665461053d906001600160a01b031681565b61060a610927366004613066565b612706565b6103dd60695481565b610948610943366004613146565b6128c7565b604080519384526020840192909252908201526060016103e7565b6066546001600160a01b031633146109965760405162461bcd60e51b815260040161098d90613336565b60405180910390fd5b61099e6118b5565b5060008281526073602090815260408083206001600160a01b03871684526076909252909120806109ce856129e2565b50600085815260018084016020908152604080842092830154607f83528185205460809093529320549192610a0592849290612b16565b50610a2b85610a2583600101548760010154612bb690919063ffffffff16565b90612bc2565b600180860191909155810154158015610a445750600085115b15610a5f578154600181018355600083815260209020018690555b6001810185905560038101546002840154610a7991612bc2565b60028401556000600382015584610b6d57600086815260018085016020526040822082815590810182905560028101829055600381018290556004015581545b8015610b6b5780610ac981613375565b91505086838281548110610adf57610adf61338c565b90600052602060002001541415610b665782548390610b00906001906133a2565b81548110610b1057610b1061338c565b9060005260206000200154838281548110610b2d57610b2d61338c565b906000526020600020018190555082805480610b4b57610b4b6133b9565b60019003818190600052602060002001600090559055610b6b565b610ab9565b505b607e548510610bf457604051632f0ad01760e21b8152607760048201526001600160a01b03881660248201526044810186905273__$4b09164eaf8a84d7a8044fedc88418fa6b$__9063bc2b405c9060640160006040518083038186803b158015610bd757600080fd5b505af4158015610beb573d6000803e3d6000fd5b50505050610c67565b60405163131836e760e21b8152607760048201526001600160a01b038816602482015273__$4b09164eaf8a84d7a8044fedc88418fa6b$__90634c60db9c9060440160006040518083038186803b158015610c4e57600080fd5b505af4158015610c62573d6000803e3d6000fd5b505050505b50505050505050565b6000610c7a6118b5565b506001600160a01b038216600090815260766020526040812060028101805492905580549091905b8015610e1657610cb36001826133a2565b90506000838281548110610cc957610cc961338c565b90600052602060002001549050610cdf816129e2565b506001600160a01b03861660009081526076602090815260408083208484526001908101835281842090810154607f84528285205460809094529190932054610d2a92849291612b16565b506003810154610d3a9085612bc2565b60006003830181905583815260736020526040902060010154909450610e0f576001600160a01b03871660009081526076602090815260408083208584526001908101909252822082815580820183905560028101839055600381018390556004019190915585548691610dad916133a2565b81548110610dbd57610dbd61338c565b9060005260206000200154858481548110610dda57610dda61338c565b906000526020600020018190555084805480610df857610df86133b9565b600190038181906000526020600020016000905590555b5050610ca2565b6001600160a01b038516600090815260766020526040902060030154610e3c9083612bc2565b6001600160a01b038681166000818152607660205260409081902060030193909355606554925163a9059cbb60e01b815260048101919091526024810185905291169063a9059cbb906044016020604051808303816000875af1158015610ea7573d6000803e3d6000fd5b505050506040513d601f19601f82011682018060405250810190610ecb91906133cf565b50846001600160a01b03167f5329b89678b0f095cae2abe10b88ad57329871ee9296ae8f358a46b9fa0ff32883604051610f0791815260200190565b60405180910390a2509392505050565b60608167ffffffffffffffff811115610f3257610f326131ea565b604051908082528060200260200182016040528015610f5b578160200160208202803683370190505b50905060005b8281101561101457610fe560766000868685818110610f8257610f8261338c565b9050602002016020810190610f979190613066565b6001600160a01b03166001600160a01b0316815260200190815260200160002060030154610a25868685818110610fd057610fd061338c565b90506020020160208101906105a09190613066565b828281518110610ff757610ff761338c565b60209081029190910101528061100c816133ec565b915050610f61565b5092915050565b60006072546000141561103057506000919050565b600082815260736020526040902060018101546110505750600092915050565b6000611060826001015485612bce565b9050600061107c62015180606854612beb90919063ffffffff16565b90506110b283600101546110ac6072546110ac6237b1d06110a68789612beb90919063ffffffff16565b90612beb565b90612bf7565b95945050505050565b6110c3612c03565b6110cb6118b5565b506065546040516370a0823160e01b81523060048201526000916001600160a01b0316906370a0823190602401602060405180830381865afa158015611115573d6000803e3d6000fd5b505050506040513d601f19601f820116820180604052508101906111399190613407565b90508082111561118b5760405162461bcd60e51b815260206004820152601b60248201527f4469766964656e642f696e73756666696369656e742d66756e64730000000000604482015260640161098d565b60655460405163a9059cbb60e01b81526001600160a01b038581166004830152602482018590529091169063a9059cbb906044016020604051808303816000875af11580156111de573d6000803e3d6000fd5b505050506040513d601f19601f8201168201806040525081019061120291906133cf565b50826001600160a01b03167f7084f5476618d8e60b11ef0d7d3f06914655adb8793e28ff7f018d4c76d505d58360405161123e91815260200190565b60405180910390a2505050565b6066546001600160a01b031633146112755760405162461bcd60e51b815260040161098d90613336565b61127e8261259b565b506001600160a01b039081166000908152607460205260408082209390921681529081208054835560018082018054918501919091556002808301805491860191909155600380840180549187019190915560048085018054919097015592849055908390558290558190559055565b6067546001600160a01b0316331461133f5760405162461bcd60e51b815260206004820152601460248201527327a7262cafa234bb34b232b7321029b2b2ba32b960611b604482015260640161098d565b80158061134c5750607254155b156113545750565b6070546113619082612bc2565b60705560695460009061137c906064906110ac908590612beb565b607254909150156113bc57611399606f54610a2583607254612c5d565b606f55606e546113b890610a256113b08585612bb6565b607254612c5d565b606e555b505b50565b6001600160a01b0381166000908152607460209081526040808320815160a08101835281548152600182015493810193909352600281015491830191909152600381015460608301526004015460808201526114279061141f612c7e565b606f54612cfb565b92915050565b6001600160a01b038116600090815260766020526040902060020154606061145483612172565b9150600090505b81518110156114a4576114908282815181106114795761147961338c565b602002602001015184612bc290919063ffffffff16565b92508061149c816133ec565b91505061145b565b5050919050565b6114b3612c03565b6001600160a01b0381166114f75760405162461bcd60e51b815260206004820152600b60248201526a24a72b2624a22fa0a2222960a91b604482015260640161098d565b606780546001600160a01b0319166001600160a01b0392909216919091179055565b600080600080600080600080607773__$4b09164eaf8a84d7a8044fedc88418fa6b$__63deb3d89690916040518263ffffffff1660e01b815260040161156191815260200190565b602060405180830381865af415801561157e573d6000803e3d6000fd5b505050506040513d601f19601f820116820180604052508101906115a29190613407565b89106115c7575060009650600019955085945086935083925082915081905080611662565b6040516368d54f3f60e11b815260776004820152602481018a905260009073__$4b09164eaf8a84d7a8044fedc88418fa6b$__9063d1aa9e7e90604401602060405180830381865af4158015611621573d6000803e3d6000fd5b505050506040513d601f19601f820116820180604052508101906116459190613420565b905061165081612706565b98509850985098509850985098509850505b919395975091939597565b60608167ffffffffffffffff811115611688576116886131ea565b6040519080825280602002602001820160405280156116b1578160200160208202803683370190505b50905060005b8281101561101457611752607460008686858181106116d8576116d861338c565b90506020020160208101906116ed9190613066565b6001600160a01b03166001600160a01b031681526020019081526020016000206040518060a00160405290816000820154815260200160018201548152602001600282015481526020016003820154815260200160048201548152505061141f612c7e565b8282815181106117645761176461338c565b602090810291909101015280611779816133ec565b9150506116b7565b6066546001600160a01b031633146117ab5760405162461bcd60e51b815260040161098d90613336565b6117b48261259b565b506001600160a01b0382166000908152607460205260409020600101546072546117dd91612bb6565b6072556001600160a01b03821660009081526074602052604081208181556001810182905560028101829055600381018290556004015561181d816129e2565b5060009081526073602052604081206001015550565b61183b612c03565b6118456000612d8a565b565b61184f612c03565b6001600160a01b0381166118935760405162461bcd60e51b815260206004820152600b60248201526a24a72b2624a22fa0a2222960a91b604482015260640161098d565b606680546001600160a01b0319166001600160a01b0392909216919091179055565b6000806118c760815463ffffffff1690565b606c5463ffffffff9182169250168114156118e457600091505090565b606c546000906118ff90839063ffffffff90811690612bb616565b9050600061191860685483612beb90919063ffffffff16565b9050600061193660646110ac60695485612beb90919063ffffffff16565b6072549091501561198757600061194f82607254612c5d565b606b5490915061195f9082612bc2565b606b5560006119716113b08585612bb6565b606a549091506119819082612bc2565b606a5550505b61199084612ddc565b606c805463ffffffff191663ffffffff928316179055606d546119b5918490612bc216565b606d55509392505050565b6000806119ce858585612cfb565b60408601519091506119e09082612bc2565b9150505b9392505050565b60608167ffffffffffffffff811115611a0657611a066131ea565b604051908082528060200260200182016040528015611a2f578160200160208202803683370190505b50905060005b8281101561101457611ad860746000868685818110611a5657611a5661338c565b9050602002016020810190611a6b9190613066565b6001600160a01b03166001600160a01b031681526020019081526020016000206040518060a001604052908160008201548152602001600182015481526020016002820154815260200160038201548152602001600482015481525050611ad0612c7e565b606f546119c0565b828281518110611aea57611aea61338c565b602090810291909101015280611aff816133ec565b915050611a35565b600080611b1384610c70565b90508015611b3f5750506001600160a01b0382166000908152607c602052604090204290556001611427565b5060009392505050565b611b51612c03565b60008111611ba15760405162461bcd60e51b815260206004820152601c60248201527f546f6b656e4661756365742f6e6f6465526174652d67742d7a65726f00000000604482015260640161098d565b611ba96118b5565b5060698190556040518181527ffab63a863d2b8bf77782de36d1f7ee259e4663ac848a09ffc79a72286bd7c3de906020015b60405180910390a150565b600060725460001415611bfb57506000919050565b6001600160a01b03821660009081526076602052604081208190815b8154811015611cd3576000828281548110611c3457611c3461338c565b90600052602060002001549050607360008281526020019081526020016000206001015460001415611c665750611cc1565b6001600160a01b0387166000908152607660209081526040808320848452600190810190925290912090810154611ca3908790610a259085612bce565b9550611cbc816001015486612bc290919063ffffffff16565b945050505b80611ccb816133ec565b915050611c17565b5081611ce457506000949350505050565b6000611d08600a6110ac60086110a662015180606854612beb90919063ffffffff16565b9050611d2e836110ac6072546110ac6237b1d06110a6878b612beb90919063ffffffff16565b9695505050505050565b611d40612c03565b60008111611d905760405162461bcd60e51b815260206004820152601c60248201527f546f6b656e4661756365742f64726970526174652d67742d7a65726f00000000604482015260640161098d565b611d986118b5565b5060688190556040518181527f3d38e7cd2e029035006f9977a727c8724cd41dffb6d2a40d9f66bd4c26836a3290602001611bdb565b600054600190610100900460ff16158015611df0575060005460ff8083169116105b611e535760405162461bcd60e51b815260206004820152602e60248201527f496e697469616c697a61626c653a20636f6e747261637420697320616c72656160448201526d191e481a5b9a5d1a585b1a5e995960921b606482015260840161098d565b6000805461ffff191660ff831617610100179055611e6f612e45565b608154606c805463ffffffff191663ffffffff909216919091179055606580546001600160a01b0385166001600160a01b0319909116179055611eb182611d38565b6014606955655af3107a4000607e55610e10607d556000805461ff001916905560405160ff821681527f7f26b83ff96e1f2b6a682f133852f6798a09c465da95921460cefb38474024989060200160405180910390a1505050565b611f14612c03565b606580546001600160a01b0319166001600160a01b0392909216919091179055565b60608167ffffffffffffffff811115611f5157611f516131ea565b604051908082528060200260200182016040528015611f7a578160200160208202803683370190505b50905060005b8281101561101457611f9d848483818110610fd057610fd061338c565b828281518110611faf57611faf61338c565b602090810291909101015280611fc4816133ec565b915050611f80565b6067546001600160a01b0316331461201d5760405162461bcd60e51b815260206004820152601460248201527327a7262cafa234bb34b232b7321029b2b2ba32b960611b604482015260640161098d565b6113be816112ee565b6066546001600160a01b031633146120505760405162461bcd60e51b815260040161098d90613336565b6120586118b5565b506001600160a01b03841660009081526074602052604090206001810154606b54606f5461208893929190612b16565b506001600160a01b0384166000908152607460205260409020600101546072546120b7918591610a2591612bb6565b6072556001600160a01b03841660009081526074602052604090206001018390556120e1826129e2565b506000828152607560205260409081902082905551632f0ad01760e21b8152607760048201526001600160a01b03851660248201526044810184905273__$4b09164eaf8a84d7a8044fedc88418fa6b$__9063bc2b405c9060640160006040518083038186803b15801561215457600080fd5b505af4158015612168573d6000803e3d6000fd5b5050505050505050565b606080600061217f612e74565b6001600160a01b038516600090815260766020526040902080549192509067ffffffffffffffff8111156121b5576121b56131ea565b6040519080825280602002602001820160405280156121de578160200160208202803683370190505b50815490945067ffffffffffffffff8111156121fc576121fc6131ea565b604051908082528060200260200182016040528015612225578160200160208202803683370190505b50925060005b81548110156123cf5760008282815481106122485761224861338c565b60009182526020808320909101546001600160a01b038a168352607682526040808420828552600190810190935283209182015490935090919061228c9084612bce565b60008481526073602052604081206001015491925090819015612300576000858152607360205260409020546122c3908990612bb6565b91506122cf8286612bce565b600086815260736020526040902060040154606e549193506122f19190612bb6565b90506122fd8186612bce565b90505b83546000868152607f60205260409020546123279190612321908590612bc2565b90612bb6565b91506000612339856001015484612ef4565b600486015460008881526080602052604090205491925061235f91612321908590612bc2565b9150600061236d8584612ef4565b9050868c89815181106123825761238261338c565b60209081029190910101526123978282612bc2565b8b89815181106123a9576123a961338c565b6020026020010181815250505050505050505080806123c7906133ec565b91505061222b565b505050915091565b6123df612c03565b610e1081101580156123f45750620151808111155b61247a5760405162461bcd60e51b815260206004820152604b60248201527f546f6b656e5f4469766964656e645f547261636b65723a20636c61696d57616960448201527f74206d757374206265207570646174656420746f206265747765656e2031206160648201526a6e6420323420686f75727360a81b608482015260a40161098d565b607d548114156124f25760405162461bcd60e51b815260206004820152603d60248201527f546f6b656e5f4469766964656e645f547261636b65723a2043616e6e6f74207560448201527f706461746520636c61696d5761697420746f2073616d652076616c7565000000606482015260840161098d565b607d5460405182907f474ea64804364a1e29a4487ddb63c3342a2dd826ccd8acf48825e680a0e6f20f90600090a3607d55565b61252d612c03565b6001600160a01b0381166125925760405162461bcd60e51b815260206004820152602660248201527f4f776e61626c653a206e6577206f776e657220697320746865207a65726f206160448201526564647265737360d01b606482015260840161098d565b6113be81612d8a565b60006125a56118b5565b506001600160a01b03821660009081526074602052604090206001810154606b54606f546125d593929190612b16565b506001600160a01b0382166000908152607460205260409020600301546125fe57506000919050565b6001600160a01b03821660009081526074602052604081206003810180549290556002015461262d9082612bc2565b6001600160a01b038481166000818152607460205260409081902060020193909355606554925163a9059cbb60e01b815260048101919091526024810184905291169063a9059cbb906044016020604051808303816000875af1158015612698573d6000803e3d6000fd5b505050506040513d601f19601f820116820180604052508101906126bc91906133cf565b50826001600160a01b03167f638b31b360307f664fe65f94e19b3fb3b6569d947245b7195cff88cf1c0e1c14826040516126f891815260200190565b60405180910390a292915050565b6040516317e142d160e01b8152607760048201526001600160a01b0382166024820152819060009081908190819081908190819073__$4b09164eaf8a84d7a8044fedc88418fa6b$__906317e142d190604401602060405180830381865af4158015612776573d6000803e3d6000fd5b505050506040513d601f19601f8201168201806040525081019061279a9190613407565b96506000199550600087126127fc57607b548711156127c857607b546127c1908890612f15565b95506127fc565b607b54607754600091106127dd5760006127ec565b607b546077546127ec91612bb6565b90506127f88882612f61565b9650505b6001600160a01b03881660009081526074602090815260408083206003015460769092529091206002015461283091612bc2565b6001600160a01b0389166000908152607460209081526040808320600201546076909252909120600301549196506128689190612bc2565b6001600160a01b0389166000908152607c60205260409020549094509250826128925760006128a0565b607d546128a0908490612bc2565b91504282116128b05760006128ba565b6128ba8242612bb6565b9050919395975091939597565b60775460009081908190806128e7575050607b54600092508291506129db565b607b546000805a90506000805b898410801561290257508582105b156129ca5784612911816133ec565b6077549096508610905061292457600094505b60006077600001868154811061293c5761293c61338c565b60009182526020808320909101546001600160a01b0316808352607c90915260409091205490915061296d90612f9f565b156129905761297d816001611b07565b15612990578161298c816133ec565b9250505b8261299a816133ec565b93505060005a9050808511156129c1576129be6129b78683612bb6565b8790612bc2565b95505b93506128f49050565b607b85905590975095509193505050505b9193909250565b600081815260736020526040812060018101548290612a019085612bce565b8254606a549192501415612a19575060009392505050565b8154606a54600091612a2b9190612bb6565b90506000612a398383612ef4565b606a5485556003850154909150612a509082612bc2565b60038501556004840154606e54600091612a6a9190612bb6565b90506000612a788583612ef4565b606e5460048801556003870154909150612a929082612bc2565b60038701558415612b0057612abf612aaa858a612bce565b60008a8152607f602052604090205490612bc2565b6000898152607f6020526040902055612af0612adb838a612bce565b60008a81526080602052604090205490612bc2565b6000898152608060205260409020555b612b0a8382612bc2565b98975050505050505050565b8354600090831415612b2a57506000612bae565b8454600090612b3a908590612bb6565b90506000612b488683612ef4565b8588556003880154909150612b5d9082612bc2565b60038801556004870154600090612b80908890612b7b908890612bb6565b612ef4565b600489018690556003890154909150612b999082612bc2565b6003890155612ba88282612bc2565b93505050505b949350505050565b60006119e482846133a2565b60006119e4828461343d565b6000818152607560205260408120546119e4906064906110ac9086905b60006119e48284613455565b60006119e48284613474565b6033546001600160a01b031633146118455760405162461bcd60e51b815260206004820181905260248201527f4f776e61626c653a2063616c6c6572206973206e6f7420746865206f776e6572604482015260640161098d565b600080612c7284670de0b6b3a7640000612beb565b9050612bae8184612bf7565b606c54600090819063ffffffff16612c9b60815463ffffffff1690565b612ca59190613496565b63ffffffff1690506000612cc460685483612beb90919063ffffffff16565b90506000612ce260646110ac60695485612beb90919063ffffffff16565b9050612cf3606b5460725483612fc6565b935050505090565b600080612d15856080015184612bb690919063ffffffff16565b90506000612d27866020015183612ef4565b8651909150851415612d4b576060860151612d429082612bc2565b925050506119e4565b8551600090612d5b908790612bb6565b90506000612d6d886020015183612ef4565b9050612b0a83610a25838b60600151612bc290919063ffffffff16565b603380546001600160a01b038381166001600160a01b0319831681179093556040519116919082907f8be0079c531659141344cd1fd0a4f28419497f9722a3daafe3b4186f6b6457e090600090a35050565b600063ffffffff821115612e415760405162461bcd60e51b815260206004820152602660248201527f53616665436173743a2076616c756520646f65736e27742066697420696e203360448201526532206269747360d01b606482015260840161098d565b5090565b600054610100900460ff16612e6c5760405162461bcd60e51b815260040161098d906134bb565b611845612fec565b606c54600090819063ffffffff16612e9160815463ffffffff1690565b612e9b9190613496565b63ffffffff1690506000612eba60685483612beb90919063ffffffff16565b90506000612ed860646110ac60695485612beb90919063ffffffff16565b606a54607254919250612cf391612eef8585612bb6565b612fc6565b600080612f018385612beb565b9050612bae81670de0b6b3a7640000612bf7565b6000808212158015612f30575082612f2d8382613506565b13155b80612f4e5750600082128015612f4e575082612f4c8382613506565b135b612f5757600080fd5b6119e48284613506565b600080612f6e8385613545565b905060008312158015612f815750838112155b80612f965750600083128015612f9657508381125b6119e457600080fd5b600042821115612fb157506000919050565b607d54612fbe4284612bb6565b101592915050565b600082612fd45750826119e4565b6000612fe08385612c5d565b90506119e08186612bc2565b600054610100900460ff166130135760405162461bcd60e51b815260040161098d906134bb565b61184533612d8a565b6001600160a01b03811681146113be57600080fd5b60008060006060848603121561304657600080fd5b83356130518161301c565b95602085013595506040909401359392505050565b60006020828403121561307857600080fd5b81356119e48161301c565b6000806020838503121561309657600080fd5b823567ffffffffffffffff808211156130ae57600080fd5b818501915085601f8301126130c257600080fd5b8135818111156130d157600080fd5b8660208260051b85010111156130e657600080fd5b60209290920196919550909350505050565b600081518084526020808501945080840160005b838110156131285781518752958201959082019060010161310c565b509495945050505050565b6020815260006119e460208301846130f8565b60006020828403121561315857600080fd5b5035919050565b6000806040838503121561317257600080fd5b823561317d8161301c565b946020939093013593505050565b6000806040838503121561319e57600080fd5b82356131a98161301c565b915060208301356131b98161301c565b809150509250929050565b6000602082840312156131d657600080fd5b813563ffffffff811681146119e457600080fd5b634e487b7160e01b600052604160045260246000fd5b600080600083850360e081121561321657600080fd5b60a081121561322457600080fd5b5060405160a0810181811067ffffffffffffffff8211171561325657634e487b7160e01b600052604160045260246000fd5b60409081528535825260208087013590830152858101359082015260608086013590820152608080860135908201529560a0850135955060c0909401359392505050565b80151581146113be57600080fd5b600080604083850312156132bb57600080fd5b82356132c68161301c565b915060208301356131b98161329a565b600080600080608085870312156132ec57600080fd5b84356132f78161301c565b966020860135965060408601359560600135945092505050565b60408152600061332460408301856130f8565b82810360208401526119e081856130f8565b6020808252600f908201526e27a7262cafa1a7a72a2927a62622a960891b604082015260600190565b634e487b7160e01b600052601160045260246000fd5b6000816133845761338461335f565b506000190190565b634e487b7160e01b600052603260045260246000fd5b6000828210156133b4576133b461335f565b500390565b634e487b7160e01b600052603160045260246000fd5b6000602082840312156133e157600080fd5b81516119e48161329a565b60006000198214156134005761340061335f565b5060010190565b60006020828403121561341957600080fd5b5051919050565b60006020828403121561343257600080fd5b81516119e48161301c565b600082198211156134505761345061335f565b500190565b600081600019048311821515161561346f5761346f61335f565b500290565b60008261349157634e487b7160e01b600052601260045260246000fd5b500490565b600063ffffffff838116908316818110156134b3576134b361335f565b039392505050565b6020808252602b908201527f496e697469616c697a61626c653a20636f6e7472616374206973206e6f74206960408201526a6e697469616c697a696e6760a81b606082015260800190565b60008083128015600160ff1b8501841216156135245761352461335f565b6001600160ff1b038401831381161561353f5761353f61335f565b50500390565b600080821280156001600160ff1b03849003851316156135675761356761335f565b600160ff1b83900384128116156135805761358061335f565b5050019056fea26469706673582212206230d06e1ae4cd0789164994c00e3643f9c848fcec2eba67323d96fd3d3e7b7764736f6c634300080b0033",
  "linkReferences": {
    "contracts/lib/IterableMapping.sol": {
      "IterableMapping": [
        {
          "length": 20,
          "start": 3010
        },
        {
          "length": 20,
          "start": 3129
        },
        {
          "length": 20,
          "start": 5449
        },
        {
          "length": 20,
          "start": 5639
        },
        {
          "length": 20,
          "start": 8511
        },
        {
          "length": 20,
          "start": 10076
        }
      ]
    }
  },
  "deployedLinkReferences": {
    "contracts/lib/IterableMapping.sol": {
      "IterableMapping": [
        {
          "length": 20,
          "start": 2978
        },
        {
          "length": 20,
          "start": 3097
        },
        {
          "length": 20,
          "start": 5417
        },
        {
          "length": 20,
          "start": 5607
        },
        {
          "length": 20,
          "start": 8479
        },
        {
          "length": 20,
          "start": 10044
        }
      ]
    }
  }
}