{
  "_format": "hh-sol-artifact-1",
  "contractName": "BIBDividendHarness",
  "sourceName": "contracts/test/BIBDividendHarness.sol",
  "abi": [
    {
      "anonymous": false,
      "inputs": [
        {
          "indexed": true,
          "internalType": "uint256",
          "name": "newValue",
          "type": "uint256"
        },
        {
          "indexed": true,
          "internalType": "uint256",
          "name": "oldValue",
          "type": "uint256"
        }
      ],
      "name": "ClaimWaitUpdated",
      "type": "event"
    },
    {
      "anonymous": false,
      "inputs": [
        {
          "indexed": false,
          "internalType": "uint256",
          "name": "dripRatePerSecond",
          "type": "uint256"
        }
      ],
      "name": "DripRateChanged",
      "type": "event"
    },
    {
      "anonymous": false,
      "inputs": [
        {
          "indexed": false,
          "internalType": "uint8",
          "name": "version",
          "type": "uint8"
        }
      ],
      "name": "Initialized",
      "type": "event"
    },
    {
      "anonymous": false,
      "inputs": [
        {
          "indexed": true,
          "internalType": "address",
          "name": "user",
          "type": "address"
        },
        {
          "indexed": false,
          "internalType": "uint256",
          "name": "newTokens",
          "type": "uint256"
        }
      ],
      "name": "NodeClaimed",
      "type": "event"
    },
    {
      "anonymous": false,
      "inputs": [
        {
          "indexed": false,
          "internalType": "uint256",
          "name": "nodeRate",
          "type": "uint256"
        }
      ],
      "name": "NodeRateChange",
      "type": "event"
    },
    {
      "anonymous": false,
      "inputs": [
        {
          "indexed": true,
          "internalType": "address",
          "name": "previousOwner",
          "type": "address"
        },
        {
          "indexed": true,
          "internalType": "address",
          "name": "newOwner",
          "type": "address"
        }
      ],
      "name": "OwnershipTransferred",
      "type": "event"
    },
    {
      "anonymous": false,
      "inputs": [
        {
          "indexed": true,
          "internalType": "address",
          "name": "user",
          "type": "address"
        },
        {
          "indexed": false,
          "internalType": "uint256",
          "name": "newTokens",
          "type": "uint256"
        }
      ],
      "name": "UserClaimed",
      "type": "event"
    },
    {
      "anonymous": false,
      "inputs": [
        {
          "indexed": true,
          "internalType": "address",
          "name": "to",
          "type": "address"
        },
        {
          "indexed": false,
          "internalType": "uint256",
          "name": "amount",
          "type": "uint256"
        }
      ],
      "name": "Withdrawn",
      "type": "event"
    },
    {
      "inputs": [
        {
          "components": [
            {
              "internalType": "uint256",
              "name": "lastExchangeRateMantissa",
              "type": "uint256"
            },
            {
              "internalType": "uint256",
              "name": "balance",
              "type": "uint256"
            },
            {
              "internalType": "uint256",
              "name": "totalClaim",
              "type": "uint256"
            },
            {
              "internalType": "uint256",
              "name": "unClaim",
              "type": "uint256"
            },
            {
              "internalType": "uint256",
              "name": "lastDividendPerShare",
              "type": "uint256"
            }
          ],
          "internalType": "struct BIBDividend.ExState",
          "name": "userState",
          "type": "tuple"
        },
        {
          "internalType": "uint256",
          "name": "_exchangeRateMantissa",
          "type": "uint256"
        },
        {
          "internalType": "uint256",
          "name": "_dividendPerShare",
          "type": "uint256"
        }
      ],
      "name": "_getUserAllRewards",
      "outputs": [
        {
          "internalType": "uint256",
          "name": "",
          "type": "uint256"
        }
      ],
      "stateMutability": "pure",
      "type": "function"
    },
    {
      "inputs": [],
      "name": "asset",
      "outputs": [
        {
          "internalType": "contract IERC20Upgradeable",
          "name": "",
          "type": "address"
        }
      ],
      "stateMutability": "view",
      "type": "function"
    },
    {
      "inputs": [],
      "name": "claimWait",
      "outputs": [
        {
          "internalType": "uint256",
          "name": "",
          "type": "uint256"
        }
      ],
      "stateMutability": "view",
      "type": "function"
    },
    {
      "inputs": [],
      "name": "controller",
      "outputs": [
        {
          "internalType": "address",
          "name": "",
          "type": "address"
        }
      ],
      "stateMutability": "view",
      "type": "function"
    },
    {
      "inputs": [],
      "name": "currentTime",
      "outputs": [
        {
          "internalType": "uint32",
          "name": "",
          "type": "uint32"
        }
      ],
      "stateMutability": "view",
      "type": "function"
    },
    {
      "inputs": [
        {
          "internalType": "address",
          "name": "nodeOwner",
          "type": "address"
        },
        {
          "internalType": "uint256",
          "name": "ticketId",
          "type": "uint256"
        }
      ],
      "name": "disbandNode",
      "outputs": [],
      "stateMutability": "nonpayable",
      "type": "function"
    },
    {
      "inputs": [
        {
          "internalType": "uint256",
          "name": "amount",
          "type": "uint256"
        }
      ],
      "name": "distributeDividends",
      "outputs": [],
      "stateMutability": "nonpayable",
      "type": "function"
    },
    {
      "inputs": [],
      "name": "dividendSetter",
      "outputs": [
        {
          "internalType": "address",
          "name": "",
          "type": "address"
        }
      ],
      "stateMutability": "view",
      "type": "function"
    },
    {
      "inputs": [],
      "name": "drip",
      "outputs": [
        {
          "internalType": "uint256",
          "name": "",
          "type": "uint256"
        }
      ],
      "stateMutability": "nonpayable",
      "type": "function"
    },
    {
      "inputs": [],
      "name": "dripRatePerSecond",
      "outputs": [
        {
          "internalType": "uint256",
          "name": "",
          "type": "uint256"
        }
      ],
      "stateMutability": "view",
      "type": "function"
    },
    {
      "inputs": [
        {
          "internalType": "address",
          "name": "_account",
          "type": "address"
        }
      ],
      "name": "getAccount",
      "outputs": [
        {
          "internalType": "address",
          "name": "account",
          "type": "address"
        },
        {
          "internalType": "int256",
          "name": "index",
          "type": "int256"
        },
        {
          "internalType": "int256",
          "name": "iterationsUntilProcessed",
          "type": "int256"
        },
        {
          "internalType": "uint256",
          "name": "withdrawableDividends",
          "type": "uint256"
        },
        {
          "internalType": "uint256",
          "name": "totalDividends",
          "type": "uint256"
        },
        {
          "internalType": "uint256",
          "name": "lastClaimTime",
          "type": "uint256"
        },
        {
          "internalType": "uint256",
          "name": "nextClaimTime",
          "type": "uint256"
        },
        {
          "internalType": "uint256",
          "name": "secondsUntilAutoClaimAvailable",
          "type": "uint256"
        }
      ],
      "stateMutability": "view",
      "type": "function"
    },
    {
      "inputs": [
        {
          "internalType": "uint256",
          "name": "index",
          "type": "uint256"
        }
      ],
      "name": "getAccountAtIndex",
      "outputs": [
        {
          "internalType": "address",
          "name": "",
          "type": "address"
        },
        {
          "internalType": "int256",
          "name": "",
          "type": "int256"
        },
        {
          "internalType": "int256",
          "name": "",
          "type": "int256"
        },
        {
          "internalType": "uint256",
          "name": "",
          "type": "uint256"
        },
        {
          "internalType": "uint256",
          "name": "",
          "type": "uint256"
        },
        {
          "internalType": "uint256",
          "name": "",
          "type": "uint256"
        },
        {
          "internalType": "uint256",
          "name": "",
          "type": "uint256"
        },
        {
          "internalType": "uint256",
          "name": "",
          "type": "uint256"
        }
      ],
      "stateMutability": "view",
      "type": "function"
    },
    {
      "inputs": [],
      "name": "getLastProcessedIndex",
      "outputs": [
        {
          "internalType": "uint256",
          "name": "",
          "type": "uint256"
        }
      ],
      "stateMutability": "view",
      "type": "function"
    },
    {
      "inputs": [
        {
          "internalType": "address",
          "name": "user",
          "type": "address"
        }
      ],
      "name": "getNodeUnClaim",
      "outputs": [
        {
          "internalType": "uint256",
          "name": "",
          "type": "uint256"
        }
      ],
      "stateMutability": "view",
      "type": "function"
    },
    {
      "inputs": [
        {
          "internalType": "address[]",
          "name": "users",
          "type": "address[]"
        }
      ],
      "name": "getNodesAllRewards",
      "outputs": [
        {
          "internalType": "uint256[]",
          "name": "rewards",
          "type": "uint256[]"
        }
      ],
      "stateMutability": "view",
      "type": "function"
    },
    {
      "inputs": [
        {
          "internalType": "address[]",
          "name": "users",
          "type": "address[]"
        }
      ],
      "name": "getNodesUnClaim",
      "outputs": [
        {
          "internalType": "uint256[]",
          "name": "unClaims",
          "type": "uint256[]"
        }
      ],
      "stateMutability": "view",
      "type": "function"
    },
    {
      "inputs": [],
      "name": "getNumberOfTokenHolders",
      "outputs": [
        {
          "internalType": "uint256",
          "name": "",
          "type": "uint256"
        }
      ],
      "stateMutability": "view",
      "type": "function"
    },
    {
      "inputs": [
        {
          "internalType": "address",
          "name": "_user",
          "type": "address"
        }
      ],
      "name": "getUserApr",
      "outputs": [
        {
          "internalType": "uint256",
          "name": "",
          "type": "uint256"
        }
      ],
      "stateMutability": "view",
      "type": "function"
    },
    {
      "inputs": [
        {
          "internalType": "address",
          "name": "user",
          "type": "address"
        }
      ],
      "name": "getUserUnClaim",
      "outputs": [
        {
          "internalType": "uint256",
          "name": "",
          "type": "uint256"
        }
      ],
      "stateMutability": "view",
      "type": "function"
    },
    {
      "inputs": [
        {
          "internalType": "address",
          "name": "user",
          "type": "address"
        }
      ],
      "name": "getUserUnClaimWithNode",
      "outputs": [
        {
          "internalType": "uint256[]",
          "name": "_nodeList",
          "type": "uint256[]"
        },
        {
          "internalType": "uint256[]",
          "name": "_rewardsList",
          "type": "uint256[]"
        }
      ],
      "stateMutability": "view",
      "type": "function"
    },
    {
      "inputs": [
        {
          "internalType": "address[]",
          "name": "users",
          "type": "address[]"
        }
      ],
      "name": "getUsersAllRewards",
      "outputs": [
        {
          "internalType": "uint256[]",
          "name": "rewards",
          "type": "uint256[]"
        }
      ],
      "stateMutability": "view",
      "type": "function"
    },
    {
      "inputs": [
        {
          "internalType": "address[]",
          "name": "users",
          "type": "address[]"
        }
      ],
      "name": "getUsersUnClaim",
      "outputs": [
        {
          "internalType": "uint256[]",
          "name": "unClaims",
          "type": "uint256[]"
        }
      ],
      "stateMutability": "view",
      "type": "function"
    },
    {
      "inputs": [
        {
          "internalType": "uint256",
          "name": "amount",
          "type": "uint256"
        }
      ],
      "name": "handleReceive",
      "outputs": [],
      "stateMutability": "nonpayable",
      "type": "function"
    },
    {
      "inputs": [
        {
          "internalType": "contract IERC20Upgradeable",
          "name": "_asset",
          "type": "address"
        },
        {
          "internalType": "uint256",
          "name": "_dripRatePerSecond",
          "type": "uint256"
        }
      ],
      "name": "initialize",
      "outputs": [],
      "stateMutability": "nonpayable",
      "type": "function"
    },
    {
      "inputs": [
        {
          "internalType": "address",
          "name": "",
          "type": "address"
        }
      ],
      "name": "lastClaimTimes",
      "outputs": [
        {
          "internalType": "uint256",
          "name": "",
          "type": "uint256"
        }
      ],
      "stateMutability": "view",
      "type": "function"
    },
    {
      "inputs": [],
      "name": "lastDripTimestamp",
      "outputs": [
        {
          "internalType": "uint32",
          "name": "",
          "type": "uint32"
        }
      ],
      "stateMutability": "view",
      "type": "function"
    },
    {
      "inputs": [],
      "name": "lastProcessedIndex",
      "outputs": [
        {
          "internalType": "uint256",
          "name": "",
          "type": "uint256"
        }
      ],
      "stateMutability": "view",
      "type": "function"
    },
    {
      "inputs": [],
      "name": "minimumTokenBalanceForDividends",
      "outputs": [
        {
          "internalType": "uint256",
          "name": "",
          "type": "uint256"
        }
      ],
      "stateMutability": "view",
      "type": "function"
    },
    {
      "inputs": [
        {
          "internalType": "address",
          "name": "user",
          "type": "address"
        }
      ],
      "name": "nodeClaim",
      "outputs": [
        {
          "internalType": "uint256",
          "name": "",
          "type": "uint256"
        }
      ],
      "stateMutability": "nonpayable",
      "type": "function"
    },
    {
      "inputs": [],
      "name": "nodeDividendPerShare",
      "outputs": [
        {
          "internalType": "uint256",
          "name": "",
          "type": "uint256"
        }
      ],
      "stateMutability": "view",
      "type": "function"
    },
    {
      "inputs": [],
      "name": "nodeExchangeRateMantissa",
      "outputs": [
        {
          "internalType": "uint256",
          "name": "",
          "type": "uint256"
        }
      ],
      "stateMutability": "view",
      "type": "function"
    },
    {
      "inputs": [],
      "name": "nodeRate",
      "outputs": [
        {
          "internalType": "uint256",
          "name": "",
          "type": "uint256"
        }
      ],
      "stateMutability": "view",
      "type": "function"
    },
    {
      "inputs": [
        {
          "internalType": "address",
          "name": "",
          "type": "address"
        }
      ],
      "name": "nodeStates",
      "outputs": [
        {
          "internalType": "uint256",
          "name": "lastExchangeRateMantissa",
          "type": "uint256"
        },
        {
          "internalType": "uint256",
          "name": "balance",
          "type": "uint256"
        },
        {
          "internalType": "uint256",
          "name": "totalClaim",
          "type": "uint256"
        },
        {
          "internalType": "uint256",
          "name": "unClaim",
          "type": "uint256"
        },
        {
          "internalType": "uint256",
          "name": "lastDividendPerShare",
          "type": "uint256"
        }
      ],
      "stateMutability": "view",
      "type": "function"
    },
    {
      "inputs": [],
      "name": "nodeTotalStake",
      "outputs": [
        {
          "internalType": "uint256",
          "name": "",
          "type": "uint256"
        }
      ],
      "stateMutability": "view",
      "type": "function"
    },
    {
      "inputs": [
        {
          "internalType": "uint256",
          "name": "",
          "type": "uint256"
        }
      ],
      "name": "nodeWeight",
      "outputs": [
        {
          "internalType": "uint256",
          "name": "",
          "type": "uint256"
        }
      ],
      "stateMutability": "view",
      "type": "function"
    },
    {
      "inputs": [],
      "name": "owner",
      "outputs": [
        {
          "internalType": "address",
          "name": "",
          "type": "address"
        }
      ],
      "stateMutability": "view",
      "type": "function"
    },
    {
      "inputs": [
        {
          "internalType": "uint256",
          "name": "gas",
          "type": "uint256"
        }
      ],
      "name": "process",
      "outputs": [
        {
          "internalType": "uint256",
          "name": "",
          "type": "uint256"
        },
        {
          "internalType": "uint256",
          "name": "",
          "type": "uint256"
        },
        {
          "internalType": "uint256",
          "name": "",
          "type": "uint256"
        }
      ],
      "stateMutability": "nonpayable",
      "type": "function"
    },
    {
      "inputs": [
        {
          "internalType": "address",
          "name": "account",
          "type": "address"
        },
        {
          "internalType": "bool",
          "name": "automatic",
          "type": "bool"
        }
      ],
      "name": "processAccount",
      "outputs": [
        {
          "internalType": "bool",
          "name": "",
          "type": "bool"
        }
      ],
      "stateMutability": "nonpayable",
      "type": "function"
    },
    {
      "inputs": [],
      "name": "renounceOwnership",
      "outputs": [],
      "stateMutability": "nonpayable",
      "type": "function"
    },
    {
      "inputs": [
        {
          "internalType": "address",
          "name": "_cntr",
          "type": "address"
        }
      ],
      "name": "setController",
      "outputs": [],
      "stateMutability": "nonpayable",
      "type": "function"
    },
    {
      "inputs": [
        {
          "internalType": "uint32",
          "name": "_currentTime",
          "type": "uint32"
        }
      ],
      "name": "setCurrentTime",
      "outputs": [],
      "stateMutability": "nonpayable",
      "type": "function"
    },
    {
      "inputs": [
        {
          "internalType": "address",
          "name": "_setter",
          "type": "address"
        }
      ],
      "name": "setDividendSetter",
      "outputs": [],
      "stateMutability": "nonpayable",
      "type": "function"
    },
    {
      "inputs": [
        {
          "internalType": "uint256",
          "name": "_dripRatePerSecond",
          "type": "uint256"
        }
      ],
      "name": "setDripRatePerSecond",
      "outputs": [],
      "stateMutability": "nonpayable",
      "type": "function"
    },
    {
      "inputs": [
        {
          "internalType": "address",
          "name": "nodeOwner",
          "type": "address"
        },
        {
          "internalType": "uint256",
          "name": "amount",
          "type": "uint256"
        },
        {
          "internalType": "uint256",
          "name": "ticketId",
          "type": "uint256"
        },
        {
          "internalType": "uint256",
          "name": "weight",
          "type": "uint256"
        }
      ],
      "name": "setNodeBalance",
      "outputs": [],
      "stateMutability": "nonpayable",
      "type": "function"
    },
    {
      "inputs": [
        {
          "internalType": "uint256",
          "name": "_nodeRate",
          "type": "uint256"
        }
      ],
      "name": "setNodeRate",
      "outputs": [],
      "stateMutability": "nonpayable",
      "type": "function"
    },
    {
      "inputs": [
        {
          "internalType": "address",
          "name": "user",
          "type": "address"
        },
        {
          "internalType": "uint256",
          "name": "ticketId",
          "type": "uint256"
        },
        {
          "internalType": "uint256",
          "name": "amount",
          "type": "uint256"
        }
      ],
      "name": "setUserBalance",
      "outputs": [],
      "stateMutability": "nonpayable",
      "type": "function"
    },
    {
      "inputs": [],
      "name": "totalDividendsDistributed",
      "outputs": [
        {
          "internalType": "uint256",
          "name": "",
          "type": "uint256"
        }
      ],
      "stateMutability": "view",
      "type": "function"
    },
    {
      "inputs": [],
      "name": "totalDrip",
      "outputs": [
        {
          "internalType": "uint256",
          "name": "",
          "type": "uint256"
        }
      ],
      "stateMutability": "view",
      "type": "function"
    },
    {
      "inputs": [
        {
          "internalType": "address",
          "name": "newOwner",
          "type": "address"
        }
      ],
      "name": "transferOwnership",
      "outputs": [],
      "stateMutability": "nonpayable",
      "type": "function"
    },
    {
      "inputs": [
        {
          "internalType": "uint256",
          "name": "newClaimWait",
          "type": "uint256"
        }
      ],
      "name": "updateClaimWait",
      "outputs": [],
      "stateMutability": "nonpayable",
      "type": "function"
    },
    {
      "inputs": [
        {
          "internalType": "address",
          "name": "user",
          "type": "address"
        }
      ],
      "name": "userClaim",
      "outputs": [
        {
          "internalType": "uint256",
          "name": "",
          "type": "uint256"
        }
      ],
      "stateMutability": "nonpayable",
      "type": "function"
    },
    {
      "inputs": [],
      "name": "userDividendPerShare",
      "outputs": [
        {
          "internalType": "uint256",
          "name": "",
          "type": "uint256"
        }
      ],
      "stateMutability": "view",
      "type": "function"
    },
    {
      "inputs": [],
      "name": "userExchangeRateMantissa",
      "outputs": [
        {
          "internalType": "uint256",
          "name": "",
          "type": "uint256"
        }
      ],
      "stateMutability": "view",
      "type": "function"
    },
    {
      "inputs": [
        {
          "internalType": "uint256",
          "name": "",
          "type": "uint256"
        }
      ],
      "name": "userNodeStates",
      "outputs": [
        {
          "internalType": "uint256",
          "name": "lastExchangeRateMantissa",
          "type": "uint256"
        },
        {
          "internalType": "uint256",
          "name": "balance",
          "type": "uint256"
        },
        {
          "internalType": "uint256",
          "name": "totalClaim",
          "type": "uint256"
        },
        {
          "internalType": "uint256",
          "name": "unClaim",
          "type": "uint256"
        },
        {
          "internalType": "uint256",
          "name": "lastDividendPerShare",
          "type": "uint256"
        }
      ],
      "stateMutability": "view",
      "type": "function"
    },
    {
      "inputs": [],
      "name": "userNodeTotalStake",
      "outputs": [
        {
          "internalType": "uint256",
          "name": "",
          "type": "uint256"
        }
      ],
      "stateMutability": "view",
      "type": "function"
    },
    {
      "inputs": [
        {
          "internalType": "address",
          "name": "",
          "type": "address"
        }
      ],
      "name": "userStakeStates",
      "outputs": [
        {
          "internalType": "uint256",
          "name": "unClaim",
          "type": "uint256"
        },
        {
          "internalType": "uint256",
          "name": "totalClaim",
          "type": "uint256"
        }
      ],
      "stateMutability": "view",
      "type": "function"
    },
    {
      "inputs": [
        {
          "internalType": "address",
          "name": "to",
          "type": "address"
        },
        {
          "internalType": "uint256",
          "name": "amount",
          "type": "uint256"
        }
      ],
      "name": "withdrawTo",
      "outputs": [],
      "stateMutability": "nonpayable",
      "type": "function"
    }
  ],
  "bytecode": "0x608060405234801561001057600080fd5b5061363e806100206000396000f3fe608060405234801561001057600080fd5b50600436106103835760003560e01c80638da5cb5b116101de578063d18e81b31161010f578063e964058c116100ad578063f77c47911161007c578063f77c479114610856578063fbcbc0f114610869578063fd3806211461087c578063ffb2c4791461088557600080fd5b8063e964058c14610814578063e98030c71461081d578063f2fde38b14610830578063f39a19bf1461084357600080fd5b8063ddaf4848116100e9578063ddaf4848146107c5578063dfb21477146107d8578063e4b1eacc146107eb578063e7841ec01461080c57600080fd5b8063d18e81b31461077d578063d2677c05146107a2578063d9772a25146107b557600080fd5b8063b6f073161161017c578063c7ad5eff11610156578063c7ad5eff14610731578063c7f6d4cc14610744578063ca5baafc14610757578063cd6dc6871461076a57600080fd5b8063b6f07316146106fc578063bc4c4b3714610705578063be10b6141461072857600080fd5b80639fd4e1cf116101b85780639fd4e1cf146106c4578063a57e6437146106cd578063a60d5a1a146106d6578063b3c1999e146106e957600080fd5b80638da5cb5b1461069857806392eefe9b146106a95780639f678cca146106bc57600080fd5b80633bdfe437116102b8578063644a9e71116102565780636f2789ec116102305780636f2789ec1461065e578063715018a61461066757806380b49cdd1461066f57806385a6b3ae1461068f57600080fd5b8063644a9e711461060e57806368fd2e9f146106385780636d629dbe1461064b57600080fd5b80634195c410116102925780634195c410146105875780635183d6fd1461059a5780635f13bb8d146105f257806360a22e501461060557600080fd5b80633bdfe437146104f85780633df93072146105355780633f7b2ed91461054857600080fd5b8063205c2878116103255780633009a609116102ff5780633009a6091461049e5780633243c791146104a75780633749ea10146104ba57806338d52e0f146104cd57600080fd5b8063205c287814610406578063226cfa3d1461041957806325f3cbeb1461043957600080fd5b80630a6b433f116103615780630a6b433f146103c15780630d024684146103d45780630fc1f082146103f4578063187f3334146103fd57600080fd5b806304a8d8b514610388578063051020621461039d57806309bbedde146103b9575b600080fd5b61039b6103963660046130e1565b6108b3565b005b6103a6606a5481565b6040519081526020015b60405180910390f35b6077546103a6565b6103a66103cf366004613116565b610c83565b6103e76103e2366004613133565b611092565b6040516103b091906131e3565b6103a6606e5481565b6103a660685481565b61039b6104143660046131f6565b611196565b6103a6610427366004613116565b607c6020526000908152604090205481565b610476610447366004613116565b607460205260009081526040902080546001820154600283015460038401546004909401549293919290919085565b604080519586526020860194909452928401919091526060830152608082015260a0016103b0565b6103a6607b5481565b61039b6104b5366004613222565b611326565b6103a66104c8366004613116565b611437565b6065546104e0906001600160a01b031681565b6040516001600160a01b0390911681526020016103b0565b610476610506366004613222565b607360205260009081526040902080546001820154600283015460038401546004909401549293919290919085565b6103a6610543366004613116565b6114a3565b610572610556366004613116565b6076602052600090815260409020600281015460039091015482565b604080519283526020830191909152016103b0565b61039b610595366004613116565b6115fb565b6105ad6105a8366004613222565b611669565b604080516001600160a01b0390991689526020890197909752958701949094526060860192909252608085015260a084015260c083015260e0820152610100016103b0565b6067546104e0906001600160a01b031681565b6103a6606d5481565b61039b61061c36600461323b565b607f805463ffffffff191663ffffffff92909216919091179055565b6103e7610646366004613133565b6117bd565b61039b6106593660046131f6565b6118d1565b6103a6607d5481565b61039b6119a3565b6103a661067d366004613222565b60756020526000908152604090205481565b6103a660705481565b6033546001600160a01b03166104e0565b61039b6106b7366004613116565b6119b7565b6103a6611a25565b6103a6606f5481565b6103a660725481565b6103a66106e4366004613277565b611b41565b6103e76106f7366004613133565b611b6c565b6103a660715481565b61071861071336600461331f565b611c88565b60405190151581526020016103b0565b6103a6607e5481565b61039b61073f366004613222565b611cca565b6103a6610752366004613116565b611d67565b61039b610765366004613222565b611f40565b61039b6107783660046131f6565b611fd6565b607f5461078d9063ffffffff1681565b60405163ffffffff90911681526020016103b0565b6103e76107b0366004613133565b612114565b606c5461078d9063ffffffff1681565b61039b6107d3366004613222565b6121aa565b61039b6107e6366004613358565b612204565b6107fe6107f9366004613116565b6123c8565b6040516103b0929190613393565b607b546103a6565b6103a6606b5481565b61039b61082b366004613222565b6125cf565b61039b61083e366004613116565b61271d565b6103a6610851366004613116565b612793565b6066546104e0906001600160a01b031681565b6105ad610877366004613116565b6128fe565b6103a660695481565b610898610893366004613222565b612abf565b604080519384526020840192909252908201526060016103b0565b6066546001600160a01b031633146108e65760405162461bcd60e51b81526004016108dd906133b8565b60405180910390fd5b6108ee611a25565b5060008281526073602052604090206001810154606a54606e5461091493929190612bda565b506001600160a01b0383166000908152607660209081526040808320858452600190810183528184206075909352922054918101549091610983918391610968916064916109629190612c83565b90612c8f565b60008681526073602052604090208054600490910154612bda565b506001808201546000858152607360205260409020909101546109b19184916109ab91612c9b565b90612ca7565b600084815260736020908152604080832060019081019490945560759091528120549183015490916109ea916064916109629190612c83565b60008581526075602052604081205491925090610a0f90606490610962908790612c83565b9050610a2a816109ab84607154612c9b90919063ffffffff16565b6071556001830154158015610a3f5750600084115b15610a70576001600160a01b0386166000908152607660209081526040822080546001810182559083529120018590555b6001830184905583610b81576001600160a01b03861660008181526076602081815260408084208a8552600180820184529185208581559182018590556002820185905560038201859055600490910184905593909252905280545b8015610b7e5780610adc816133f7565b91505086828281548110610af257610af261340e565b90600052602060002001541415610b795781548290610b1390600190613424565b81548110610b2357610b2361340e565b9060005260206000200154828281548110610b4057610b4061340e565b906000526020600020018190555081805480610b5e57610b5e61343b565b60019003818190600052602060002001600090559055610b7e565b610acc565b50505b607e548410610c0857604051632f0ad01760e21b8152607760048201526001600160a01b03871660248201526044810185905273__$4b09164eaf8a84d7a8044fedc88418fa6b$__9063bc2b405c9060640160006040518083038186803b158015610beb57600080fd5b505af4158015610bff573d6000803e3d6000fd5b50505050610c7b565b60405163131836e760e21b8152607760048201526001600160a01b038716602482015273__$4b09164eaf8a84d7a8044fedc88418fa6b$__90634c60db9c9060440160006040518083038186803b158015610c6257600080fd5b505af4158015610c76573d6000803e3d6000fd5b505050505b505050505050565b6000610c8d611a25565b506001600160a01b038216600090815260766020526040812060028101805492905580549091905b8015610f9157610cc6600182613424565b9050610d3860736000858481548110610ce157610ce161340e565b9060005260206000200154815260200190815260200160002060736000868581548110610d1057610d1061340e565b9060005260206000200154815260200190815260200160002060010154606a54606e54612bda565b50600060766000876001600160a01b03166001600160a01b031681526020019081526020016000206001016000858481548110610d7757610d7761340e565b906000526020600020015481526020019081526020016000209050610e4c81610de16064610962607560008a8981548110610db457610db461340e565b90600052602060002001548152602001908152602001600020548660010154612c8390919063ffffffff16565b60736000888781548110610df757610df761340e565b906000526020600020015481526020019081526020016000206000015460736000898881548110610e2a57610e2a61340e565b9060005260206000200154815260200190815260200160002060040154612bda565b506003810154610e5c9084612ca7565b92506000816003018190555060736000858481548110610e7e57610e7e61340e565b906000526020600020015481526020019081526020016000206001015460001415610f8b5760766000876001600160a01b03166001600160a01b031681526020019081526020016000206001016000858481548110610edf57610edf61340e565b6000918252602080832090910154835282019290925260400181208181556001808201839055600282018390556003820183905560049091019190915584548591610f2991613424565b81548110610f3957610f3961340e565b9060005260206000200154848381548110610f5657610f5661340e565b906000526020600020018190555083805480610f7457610f7461343b565b600190038181906000526020600020016000905590555b50610cb5565b6001600160a01b038516600090815260766020526040902060030154610fb79083612ca7565b6001600160a01b038681166000818152607660205260409081902060030193909355606554925163a9059cbb60e01b815260048101919091526024810185905291169063a9059cbb906044016020604051808303816000875af1158015611022573d6000803e3d6000fd5b505050506040513d601f19601f820116820180604052508101906110469190613451565b50846001600160a01b03167f5329b89678b0f095cae2abe10b88ad57329871ee9296ae8f358a46b9fa0ff3288360405161108291815260200190565b60405180910390a2509392505050565b60608167ffffffffffffffff8111156110ad576110ad613261565b6040519080825280602002602001820160405280156110d6578160200160208202803683370190505b50905060005b8281101561118f57611160607660008686858181106110fd576110fd61340e565b90506020020160208101906111129190613116565b6001600160a01b03166001600160a01b03168152602001908152602001600020600301546109ab86868581811061114b5761114b61340e565b90506020020160208101906105439190613116565b8282815181106111725761117261340e565b6020908102919091010152806111878161346e565b9150506110dc565b5092915050565b61119e612cb3565b6111a6611a25565b506065546040516370a0823160e01b81523060048201526000916001600160a01b0316906370a0823190602401602060405180830381865afa1580156111f0573d6000803e3d6000fd5b505050506040513d601f19601f820116820180604052508101906112149190613489565b9050808211156112665760405162461bcd60e51b815260206004820152601b60248201527f4469766964656e642f696e73756666696369656e742d66756e6473000000000060448201526064016108dd565b60655460405163a9059cbb60e01b81526001600160a01b038581166004830152602482018590529091169063a9059cbb906044016020604051808303816000875af11580156112b9573d6000803e3d6000fd5b505050506040513d601f19601f820116820180604052508101906112dd9190613451565b50826001600160a01b03167f7084f5476618d8e60b11ef0d7d3f06914655adb8793e28ff7f018d4c76d505d58360405161131991815260200190565b60405180910390a2505050565b6067546001600160a01b031633146113775760405162461bcd60e51b815260206004820152601460248201527327a7262cafa234bb34b232b7321029b2b2ba32b960611b60448201526064016108dd565b801580611390575060715460725461138e91612ca7565b155b156113985750565b60006113b4606461096260695485612c8390919063ffffffff16565b607254909150156113ee576113da606f546109ab60725484612c8f90919063ffffffff16565b606f556070546113ea9082612ca7565b6070555b6071541561143257611415606e546109ab6071546109628587612c9b90919063ffffffff16565b606e5561142e6114258383612c9b565b60705490612ca7565b6070555b505b50565b6001600160a01b0381166000908152607460209081526040808320815160a081018352815481526001820154938101939093526002810154918301919091526003810154606083015260040154608082015261149d90611495612d0d565b606f54612d8a565b92915050565b6000806114ae612e19565b6001600160a01b0384166000908152607660205260408120600281015492935091905b82548110156115f257600060766000886001600160a01b03166001600160a01b0316815260200190815260200160002060010160008584815481106115185761151861340e565b90600052602060002001548152602001908152602001600020905060006115806064610962607560008988815481106115535761155361340e565b90600052602060002001548152602001908152602001600020548560010154612c8390919063ffffffff16565b8254909150600090611593908890612c9b565b905060006115a18383612e99565b905060006115c86115c18660040154606e54612c9b90919063ffffffff16565b8590612c83565b90506115d8816109ab8985612ca7565b9650505050505080806115ea9061346e565b9150506114d1565b50949350505050565b611603612cb3565b6001600160a01b0381166116475760405162461bcd60e51b815260206004820152600b60248201526a24a72b2624a22fa0a2222960a91b60448201526064016108dd565b606780546001600160a01b0319166001600160a01b0392909216919091179055565b600080600080600080600080607773__$4b09164eaf8a84d7a8044fedc88418fa6b$__63deb3d89690916040518263ffffffff1660e01b81526004016116b191815260200190565b602060405180830381865af41580156116ce573d6000803e3d6000fd5b505050506040513d601f19601f820116820180604052508101906116f29190613489565b89106117175750600096506000199550859450869350839250829150819050806117b2565b6040516368d54f3f60e11b815260776004820152602481018a905260009073__$4b09164eaf8a84d7a8044fedc88418fa6b$__9063d1aa9e7e90604401602060405180830381865af4158015611771573d6000803e3d6000fd5b505050506040513d601f19601f8201168201806040525081019061179591906134a2565b90506117a0816128fe565b98509850985098509850985098509850505b919395975091939597565b60608167ffffffffffffffff8111156117d8576117d8613261565b604051908082528060200260200182016040528015611801578160200160208202803683370190505b50905060005b8281101561118f576118a2607460008686858181106118285761182861340e565b905060200201602081019061183d9190613116565b6001600160a01b03166001600160a01b031681526020019081526020016000206040518060a001604052908160008201548152602001600182015481526020016002820154815260200160038201548152602001600482015481525050611495612d0d565b8282815181106118b4576118b461340e565b6020908102919091010152806118c98161346e565b915050611807565b6066546001600160a01b031633146118fb5760405162461bcd60e51b81526004016108dd906133b8565b61190482612793565b506001600160a01b03821660009081526074602052604090206001015460725461192d91612c9b565b6072556001600160a01b0382166000908152607460209081526040808320838155600180820185905560028201859055600382018590556004909101849055848452607390925290912090810154606a54606e5461198d93929190612bda565b5060009081526073602052604081206001015550565b6119ab612cb3565b6119b56000612eba565b565b6119bf612cb3565b6001600160a01b038116611a035760405162461bcd60e51b815260206004820152600b60248201526a24a72b2624a22fa0a2222960a91b60448201526064016108dd565b606680546001600160a01b0319166001600160a01b0392909216919091179055565b600080611a37607f5463ffffffff1690565b606c5463ffffffff918216925016811415611a5457600091505090565b606c54600090611a6f90839063ffffffff90811690612c9b16565b90506000611a8860685483612c8390919063ffffffff16565b90506000611aa6606461096260695485612c8390919063ffffffff16565b60725490915015611ad4576000611abf82607254612f0c565b606b54909150611acf9082612ca7565b606b55505b60715415611b08576000611af3611aeb8484612c9b565b607154612f0c565b606a54909150611b039082612ca7565b606a55505b611b1184612f2d565b606c805463ffffffff191663ffffffff928316179055606d54611b36918490612ca716565b606d55509392505050565b600080611b4f858585612d8a565b6040860151909150611b619082612ca7565b9150505b9392505050565b60608167ffffffffffffffff811115611b8757611b87613261565b604051908082528060200260200182016040528015611bb0578160200160208202803683370190505b50905060005b8281101561118f57611c5960746000868685818110611bd757611bd761340e565b9050602002016020810190611bec9190613116565b6001600160a01b03166001600160a01b031681526020019081526020016000206040518060a001604052908160008201548152602001600182015481526020016002820154815260200160038201548152602001600482015481525050611c51612d0d565b606f54611b41565b828281518110611c6b57611c6b61340e565b602090810291909101015280611c808161346e565b915050611bb6565b600080611c9484610c83565b90508015611cc05750506001600160a01b0382166000908152607c60205260409020429055600161149d565b5060009392505050565b611cd2612cb3565b60008111611d225760405162461bcd60e51b815260206004820152601c60248201527f546f6b656e4661756365742f6e6f6465526174652d67742d7a65726f0000000060448201526064016108dd565b611d2a611a25565b5060698190556040518181527ffab63a863d2b8bf77782de36d1f7ee259e4663ac848a09ffc79a72286bd7c3de906020015b60405180910390a150565b600060715460001415611d7c57506000919050565b6001600160a01b03821660009081526076602052604081208190815b8154811015611ee65760736000838381548110611db757611db761340e565b906000526020600020015481526020019081526020016000206001015460001415611de157611ed4565b600060766000886001600160a01b03166001600160a01b031681526020019081526020016000206001016000848481548110611e1f57611e1f61340e565b906000526020600020015481526020019081526020016000209050611eb7856109ab606461096260756000898981548110611e5c57611e5c61340e565b9060005260206000200154815260200190815260200160002054607360008a8a81548110611e8c57611e8c61340e565b9060005260206000200154815260200190815260200160002060010154612c8390919063ffffffff16565b9450611ed0816001015485612ca790919063ffffffff16565b9350505b80611ede8161346e565b915050611d98565b5081611ef757506000949350505050565b606854600090611f0a9062015180612c83565b9050611f36836109626071546109626237b1d0611f30878b612c8390919063ffffffff16565b90612c83565b9695505050505050565b611f48612cb3565b60008111611f985760405162461bcd60e51b815260206004820152601c60248201527f546f6b656e4661756365742f64726970526174652d67742d7a65726f0000000060448201526064016108dd565b611fa0611a25565b5060688190556040518181527f3d38e7cd2e029035006f9977a727c8724cd41dffb6d2a40d9f66bd4c26836a3290602001611d5c565b600054600190610100900460ff16158015611ff8575060005460ff8083169116105b61205b5760405162461bcd60e51b815260206004820152602e60248201527f496e697469616c697a61626c653a20636f6e747261637420697320616c72656160448201526d191e481a5b9a5d1a585b1a5e995960921b60648201526084016108dd565b6000805461ffff191660ff831617610100179055612077612f96565b607f54606c805463ffffffff191663ffffffff909216919091179055606580546001600160a01b0385166001600160a01b03199091161790556120b982611f40565b6014606955655af3107a4000607e55610e10607d556000805461ff001916905560405160ff821681527f7f26b83ff96e1f2b6a682f133852f6798a09c465da95921460cefb38474024989060200160405180910390a1505050565b60608167ffffffffffffffff81111561212f5761212f613261565b604051908082528060200260200182016040528015612158578160200160208202803683370190505b50905060005b8281101561118f5761217b84848381811061114b5761114b61340e565b82828151811061218d5761218d61340e565b6020908102919091010152806121a28161346e565b91505061215e565b6067546001600160a01b031633146121fb5760405162461bcd60e51b815260206004820152601460248201527327a7262cafa234bb34b232b7321029b2b2ba32b960611b60448201526064016108dd565b61143481611326565b6066546001600160a01b0316331461222e5760405162461bcd60e51b81526004016108dd906133b8565b612236611a25565b506001600160a01b03841660009081526074602052604090206001810154606b54606f5461226693929190612bda565b506001600160a01b0384166000908152607460205260409020600101546072546122959185916109ab91612c9b565b6072556001600160a01b0384166000908152607460209081526040808320600101869055848352607590915290205481146123495760008281526075602090815260408083205460739092528220600101546122f79160649161096291612c83565b600084815260736020526040812060010154919250906123179084612c83565b9050612332816109ab84607154612c9b90919063ffffffff16565b607155505060008281526075602052604090208190555b604051632f0ad01760e21b8152607760048201526001600160a01b03851660248201526044810184905273__$4b09164eaf8a84d7a8044fedc88418fa6b$__9063bc2b405c9060640160006040518083038186803b1580156123aa57600080fd5b505af41580156123be573d6000803e3d6000fd5b5050505050505050565b60608060006123d5612e19565b6001600160a01b038516600090815260766020526040902060028101548154929350909167ffffffffffffffff81111561241157612411613261565b60405190808252806020026020018201604052801561243a578160200160208202803683370190505b50825490955067ffffffffffffffff81111561245857612458613261565b604051908082528060200260200182016040528015612481578160200160208202803683370190505b50935060005b82548110156125c657600060766000896001600160a01b03166001600160a01b0316815260200190815260200160002060010160008584815481106124ce576124ce61340e565b90600052602060002001548152602001908152602001600020905060006125096064610962607560008988815481106115535761155361340e565b825490915060009061251c908890612c9b565b9050600061252a8383612e99565b9050600061254a6115c18660040154606e54612c9b90919063ffffffff16565b905087868154811061255e5761255e61340e565b90600052602060002001548b878151811061257b5761257b61340e565b60209081029190910101526125908282612ca7565b8a87815181106125a2576125a261340e565b602002602001018181525050505050505080806125be9061346e565b915050612487565b50505050915091565b6125d7612cb3565b610e1081101580156125ec5750620151808111155b6126725760405162461bcd60e51b815260206004820152604b60248201527f546f6b656e5f4469766964656e645f547261636b65723a20636c61696d57616960448201527f74206d757374206265207570646174656420746f206265747765656e2031206160648201526a6e6420323420686f75727360a81b608482015260a4016108dd565b607d548114156126ea5760405162461bcd60e51b815260206004820152603d60248201527f546f6b656e5f4469766964656e645f547261636b65723a2043616e6e6f74207560448201527f706461746520636c61696d5761697420746f2073616d652076616c756500000060648201526084016108dd565b607d5460405182907f474ea64804364a1e29a4487ddb63c3342a2dd826ccd8acf48825e680a0e6f20f90600090a3607d55565b612725612cb3565b6001600160a01b03811661278a5760405162461bcd60e51b815260206004820152602660248201527f4f776e61626c653a206e6577206f776e657220697320746865207a65726f206160448201526564647265737360d01b60648201526084016108dd565b61143481612eba565b600061279d611a25565b506001600160a01b03821660009081526074602052604090206001810154606b54606f546127cd93929190612bda565b506001600160a01b0382166000908152607460205260409020600301546127f657506000919050565b6001600160a01b0382166000908152607460205260408120600381018054929055600201546128259082612ca7565b6001600160a01b038481166000818152607460205260409081902060020193909355606554925163a9059cbb60e01b815260048101919091526024810184905291169063a9059cbb906044016020604051808303816000875af1158015612890573d6000803e3d6000fd5b505050506040513d601f19601f820116820180604052508101906128b49190613451565b50826001600160a01b03167f638b31b360307f664fe65f94e19b3fb3b6569d947245b7195cff88cf1c0e1c14826040516128f091815260200190565b60405180910390a292915050565b6040516317e142d160e01b8152607760048201526001600160a01b0382166024820152819060009081908190819081908190819073__$4b09164eaf8a84d7a8044fedc88418fa6b$__906317e142d190604401602060405180830381865af415801561296e573d6000803e3d6000fd5b505050506040513d601f19601f820116820180604052508101906129929190613489565b96506000199550600087126129f457607b548711156129c057607b546129b9908890612fc5565b95506129f4565b607b54607754600091106129d55760006129e4565b607b546077546129e491612c9b565b90506129f08882613011565b9650505b6001600160a01b038816600090815260746020908152604080832060030154607690925290912060020154612a2891612ca7565b6001600160a01b038916600090815260746020908152604080832060020154607690925290912060030154919650612a609190612ca7565b6001600160a01b0389166000908152607c6020526040902054909450925082612a8a576000612a98565b607d54612a98908490612ca7565b9150428211612aa8576000612ab2565b612ab28242612c9b565b9050919395975091939597565b6077546000908190819080612adf575050607b5460009250829150612bd3565b607b546000805a90506000805b8984108015612afa57508582105b15612bc25784612b098161346e565b60775490965086109050612b1c57600094505b600060776000018681548110612b3457612b3461340e565b60009182526020808320909101546001600160a01b0316808352607c909152604090912054909150612b659061304f565b15612b8857612b75816001611c88565b15612b885781612b848161346e565b9250505b82612b928161346e565b93505060005a905080851115612bb957612bb6612baf8683612c9b565b8790612ca7565b95505b9350612aec9050565b607b85905590975095509193505050505b9193909250565b8354600090831480612bea575083155b15612bf757506000612c7b565b8454600090612c07908590612c9b565b90506000612c158683612e99565b8588556003880154909150612c2a9082612ca7565b60038801556004870154600090612c4d90612c46908790612c9b565b8890612c83565b600489018690556003890154909150612c669082612ca7565b6003890155612c758282612ca7565b93505050505b949350505050565b6000611b6582846134bf565b6000611b6582846134de565b6000611b658284613424565b6000611b658284613500565b6033546001600160a01b031633146119b55760405162461bcd60e51b815260206004820181905260248201527f4f776e61626c653a2063616c6c6572206973206e6f7420746865206f776e657260448201526064016108dd565b606c54600090819063ffffffff16612d2a607f5463ffffffff1690565b612d349190613518565b63ffffffff1690506000612d5360685483612c8390919063ffffffff16565b90506000612d71606461096260695485612c8390919063ffffffff16565b9050612d82606b5460725483613076565b935050505090565b600080612dac8560200151611f30876080015186612c9b90919063ffffffff16565b8551909150841415612dcf576060850151612dc79082612ca7565b915050611b65565b8451600090612ddf908690612c9b565b90506000612df1876020015183612e99565b9050612e0e836109ab838a60600151612ca790919063ffffffff16565b979650505050505050565b606c54600090819063ffffffff16612e36607f5463ffffffff1690565b612e409190613518565b63ffffffff1690506000612e5f60685483612c8390919063ffffffff16565b90506000612e7d606461096260695485612c8390919063ffffffff16565b606a54607154919250612d8291612e948585612c9b565b613076565b600080612ea68385612c83565b9050612c7b81670de0b6b3a7640000612c8f565b603380546001600160a01b038381166001600160a01b0319831681179093556040519116919082907f8be0079c531659141344cd1fd0a4f28419497f9722a3daafe3b4186f6b6457e090600090a35050565b600080612f2184670de0b6b3a7640000612c83565b9050612c7b8184612c8f565b600063ffffffff821115612f925760405162461bcd60e51b815260206004820152602660248201527f53616665436173743a2076616c756520646f65736e27742066697420696e203360448201526532206269747360d01b60648201526084016108dd565b5090565b600054610100900460ff16612fbd5760405162461bcd60e51b81526004016108dd9061353d565b6119b561309c565b6000808212158015612fe0575082612fdd8382613588565b13155b80612ffe5750600082128015612ffe575082612ffc8382613588565b135b61300757600080fd5b611b658284613588565b60008061301e83856135c7565b9050600083121580156130315750838112155b80613046575060008312801561304657508381125b611b6557600080fd5b60004282111561306157506000919050565b607d5461306e4284612c9b565b101592915050565b600082613084575082611b65565b60006130908385612f0c565b9050611b618186612ca7565b600054610100900460ff166130c35760405162461bcd60e51b81526004016108dd9061353d565b6119b533612eba565b6001600160a01b038116811461143457600080fd5b6000806000606084860312156130f657600080fd5b8335613101816130cc565b95602085013595506040909401359392505050565b60006020828403121561312857600080fd5b8135611b65816130cc565b6000806020838503121561314657600080fd5b823567ffffffffffffffff8082111561315e57600080fd5b818501915085601f83011261317257600080fd5b81358181111561318157600080fd5b8660208260051b850101111561319657600080fd5b60209290920196919550909350505050565b600081518084526020808501945080840160005b838110156131d8578151875295820195908201906001016131bc565b509495945050505050565b602081526000611b6560208301846131a8565b6000806040838503121561320957600080fd5b8235613214816130cc565b946020939093013593505050565b60006020828403121561323457600080fd5b5035919050565b60006020828403121561324d57600080fd5b813563ffffffff81168114611b6557600080fd5b634e487b7160e01b600052604160045260246000fd5b600080600083850360e081121561328d57600080fd5b60a081121561329b57600080fd5b5060405160a0810181811067ffffffffffffffff821117156132cd57634e487b7160e01b600052604160045260246000fd5b60409081528535825260208087013590830152858101359082015260608086013590820152608080860135908201529560a0850135955060c0909401359392505050565b801515811461143457600080fd5b6000806040838503121561333257600080fd5b823561333d816130cc565b9150602083013561334d81613311565b809150509250929050565b6000806000806080858703121561336e57600080fd5b8435613379816130cc565b966020860135965060408601359560600135945092505050565b6040815260006133a660408301856131a8565b8281036020840152611b6181856131a8565b6020808252600f908201526e27a7262cafa1a7a72a2927a62622a960891b604082015260600190565b634e487b7160e01b600052601160045260246000fd5b600081613406576134066133e1565b506000190190565b634e487b7160e01b600052603260045260246000fd5b600082821015613436576134366133e1565b500390565b634e487b7160e01b600052603160045260246000fd5b60006020828403121561346357600080fd5b8151611b6581613311565b6000600019821415613482576134826133e1565b5060010190565b60006020828403121561349b57600080fd5b5051919050565b6000602082840312156134b457600080fd5b8151611b65816130cc565b60008160001904831182151516156134d9576134d96133e1565b500290565b6000826134fb57634e487b7160e01b600052601260045260246000fd5b500490565b60008219821115613513576135136133e1565b500190565b600063ffffffff83811690831681811015613535576135356133e1565b039392505050565b6020808252602b908201527f496e697469616c697a61626c653a20636f6e7472616374206973206e6f74206960408201526a6e697469616c697a696e6760a81b606082015260800190565b60008083128015600160ff1b8501841216156135a6576135a66133e1565b6001600160ff1b03840183138116156135c1576135c16133e1565b50500390565b600080821280156001600160ff1b03849003851316156135e9576135e96133e1565b600160ff1b8390038412811615613602576136026133e1565b5050019056fea2646970667358221220755815901606b7ba2064af58c2e54e529c1b0e77d9856ee73463bd6be80cb99764736f6c634300080b0033",
  "linkReferences": {
    "contracts/lib/IterableMapping.sol": {
      "IterableMapping": [
        {
          "length": 20,
          "start": 3030
        },
        {
          "length": 20,
          "start": 3149
        },
        {
          "length": 20,
          "start": 5785
        },
        {
          "length": 20,
          "start": 5975
        },
        {
          "length": 20,
          "start": 9109
        },
        {
          "length": 20,
          "start": 10580
        }
      ]
    }
  },
  "deployedLinkReferences": {
    "contracts/lib/IterableMapping.sol": {
      "IterableMapping": [
        {
          "length": 20,
          "start": 2998
        },
        {
          "length": 20,
          "start": 3117
        },
        {
          "length": 20,
          "start": 5753
        },
        {
          "length": 20,
          "start": 5943
        },
        {
          "length": 20,
          "start": 9077
        },
        {
          "length": 20,
          "start": 10548
        }
      ]
    }
  }
}