{
  "_format": "hh-sol-artifact-1",
  "contractName": "SoccerStarNft",
  "sourceName": "contracts/nft/SoccerStarNft.sol",
  "abi": [
    {
      "inputs": [],
      "stateMutability": "nonpayable",
      "type": "constructor"
    },
    {
      "inputs": [],
      "name": "ApprovalCallerNotOwnerNorApproved",
      "type": "error"
    },
    {
      "inputs": [],
      "name": "ApprovalQueryForNonexistentToken",
      "type": "error"
    },
    {
      "inputs": [],
      "name": "ApprovalToCurrentOwner",
      "type": "error"
    },
    {
      "inputs": [],
      "name": "ApproveToCaller",
      "type": "error"
    },
    {
      "inputs": [],
      "name": "BalanceQueryForZeroAddress",
      "type": "error"
    },
    {
      "inputs": [],
      "name": "MintToZeroAddress",
      "type": "error"
    },
    {
      "inputs": [],
      "name": "MintZeroQuantity",
      "type": "error"
    },
    {
      "inputs": [],
      "name": "OwnerQueryForNonexistentToken",
      "type": "error"
    },
    {
      "inputs": [],
      "name": "TransferCallerNotOwnerNorApproved",
      "type": "error"
    },
    {
      "inputs": [],
      "name": "TransferFromIncorrectOwner",
      "type": "error"
    },
    {
      "inputs": [],
      "name": "TransferToNonERC721ReceiverImplementer",
      "type": "error"
    },
    {
      "inputs": [],
      "name": "TransferToZeroAddress",
      "type": "error"
    },
    {
      "anonymous": false,
      "inputs": [
        {
          "indexed": true,
          "internalType": "address",
          "name": "owner",
          "type": "address"
        },
        {
          "indexed": true,
          "internalType": "address",
          "name": "approved",
          "type": "address"
        },
        {
          "indexed": true,
          "internalType": "uint256",
          "name": "tokenId",
          "type": "uint256"
        }
      ],
      "name": "Approval",
      "type": "event"
    },
    {
      "anonymous": false,
      "inputs": [
        {
          "indexed": true,
          "internalType": "address",
          "name": "owner",
          "type": "address"
        },
        {
          "indexed": true,
          "internalType": "address",
          "name": "operator",
          "type": "address"
        },
        {
          "indexed": false,
          "internalType": "bool",
          "name": "approved",
          "type": "bool"
        }
      ],
      "name": "ApprovalForAll",
      "type": "event"
    },
    {
      "anonymous": false,
      "inputs": [
        {
          "indexed": false,
          "internalType": "address",
          "name": "sender",
          "type": "address"
        },
        {
          "indexed": false,
          "internalType": "address",
          "name": "oldValue",
          "type": "address"
        },
        {
          "indexed": false,
          "internalType": "address",
          "name": "newValue",
          "type": "address"
        }
      ],
      "name": "BIBContractChanged",
      "type": "event"
    },
    {
      "anonymous": false,
      "inputs": [
        {
          "indexed": false,
          "internalType": "address",
          "name": "sender",
          "type": "address"
        },
        {
          "indexed": false,
          "internalType": "address",
          "name": "oldValue",
          "type": "address"
        },
        {
          "indexed": false,
          "internalType": "address",
          "name": "newValue",
          "type": "address"
        }
      ],
      "name": "BUSDContractChanged",
      "type": "event"
    },
    {
      "anonymous": false,
      "inputs": [
        {
          "indexed": false,
          "internalType": "address",
          "name": "sender",
          "type": "address"
        },
        {
          "indexed": false,
          "internalType": "uint256",
          "name": "oldValue",
          "type": "uint256"
        },
        {
          "indexed": false,
          "internalType": "uint256",
          "name": "newValue",
          "type": "uint256"
        }
      ],
      "name": "Changed",
      "type": "event"
    },
    {
      "anonymous": false,
      "inputs": [
        {
          "indexed": false,
          "internalType": "address",
          "name": "sender",
          "type": "address"
        },
        {
          "indexed": false,
          "internalType": "address",
          "name": "oldValue",
          "type": "address"
        },
        {
          "indexed": false,
          "internalType": "address",
          "name": "newValue",
          "type": "address"
        }
      ],
      "name": "ComposerChanged",
      "type": "event"
    },
    {
      "anonymous": false,
      "inputs": [
        {
          "indexed": false,
          "internalType": "uint8",
          "name": "version",
          "type": "uint8"
        }
      ],
      "name": "Initialized",
      "type": "event"
    },
    {
      "anonymous": false,
      "inputs": [
        {
          "indexed": false,
          "internalType": "address",
          "name": "newAddress",
          "type": "address"
        },
        {
          "indexed": false,
          "internalType": "uint256",
          "name": "rount",
          "type": "uint256"
        },
        {
          "indexed": false,
          "internalType": "enum ISoccerStarNft.BlindBoxesType",
          "name": "blindBoxes",
          "type": "uint8"
        },
        {
          "indexed": false,
          "internalType": "uint256",
          "name": "tokenIdSt",
          "type": "uint256"
        },
        {
          "indexed": false,
          "internalType": "uint256",
          "name": "quantity",
          "type": "uint256"
        },
        {
          "indexed": false,
          "internalType": "enum ISoccerStarNft.PayMethod",
          "name": "payMethod",
          "type": "uint8"
        },
        {
          "indexed": false,
          "internalType": "uint256",
          "name": "sales",
          "type": "uint256"
        }
      ],
      "name": "Mint",
      "type": "event"
    },
    {
      "anonymous": false,
      "inputs": [
        {
          "indexed": true,
          "internalType": "address",
          "name": "previousOwner",
          "type": "address"
        },
        {
          "indexed": true,
          "internalType": "address",
          "name": "newOwner",
          "type": "address"
        }
      ],
      "name": "OwnershipTransferred",
      "type": "event"
    },
    {
      "anonymous": false,
      "inputs": [
        {
          "indexed": false,
          "internalType": "address",
          "name": "account",
          "type": "address"
        }
      ],
      "name": "Paused",
      "type": "event"
    },
    {
      "anonymous": false,
      "inputs": [
        {
          "indexed": false,
          "internalType": "address",
          "name": "sender",
          "type": "address"
        },
        {
          "indexed": false,
          "internalType": "uint256",
          "name": "oldValue",
          "type": "uint256"
        },
        {
          "indexed": false,
          "internalType": "uint256",
          "name": "newValue",
          "type": "uint256"
        }
      ],
      "name": "SellTimeChanged",
      "type": "event"
    },
    {
      "anonymous": false,
      "inputs": [
        {
          "indexed": false,
          "internalType": "address",
          "name": "sender",
          "type": "address"
        },
        {
          "indexed": false,
          "internalType": "address",
          "name": "oldValue",
          "type": "address"
        },
        {
          "indexed": false,
          "internalType": "address",
          "name": "newValue",
          "type": "address"
        }
      ],
      "name": "SwapRouterChanged",
      "type": "event"
    },
    {
      "anonymous": false,
      "inputs": [
        {
          "indexed": true,
          "internalType": "address",
          "name": "from",
          "type": "address"
        },
        {
          "indexed": true,
          "internalType": "address",
          "name": "to",
          "type": "address"
        },
        {
          "indexed": true,
          "internalType": "uint256",
          "name": "tokenId",
          "type": "uint256"
        }
      ],
      "name": "Transfer",
      "type": "event"
    },
    {
      "anonymous": false,
      "inputs": [
        {
          "indexed": false,
          "internalType": "address",
          "name": "sender",
          "type": "address"
        },
        {
          "indexed": false,
          "internalType": "address",
          "name": "oldValue",
          "type": "address"
        },
        {
          "indexed": false,
          "internalType": "address",
          "name": "newValue",
          "type": "address"
        }
      ],
      "name": "TreasuryChanged",
      "type": "event"
    },
    {
      "anonymous": false,
      "inputs": [
        {
          "indexed": false,
          "internalType": "address",
          "name": "account",
          "type": "address"
        }
      ],
      "name": "Unpaused",
      "type": "event"
    },
    {
      "anonymous": false,
      "inputs": [
        {
          "indexed": false,
          "internalType": "address",
          "name": "sender",
          "type": "address"
        },
        {
          "indexed": false,
          "internalType": "uint256",
          "name": "oldValue",
          "type": "uint256"
        },
        {
          "indexed": false,
          "internalType": "uint256",
          "name": "newValue",
          "type": "uint256"
        }
      ],
      "name": "UpdateStarLevel",
      "type": "event"
    },
    {
      "inputs": [],
      "name": "BASE_EXTENSION",
      "outputs": [
        {
          "internalType": "string",
          "name": "",
          "type": "string"
        }
      ],
      "stateMutability": "view",
      "type": "function"
    },
    {
      "inputs": [],
      "name": "BLACK_HOLE",
      "outputs": [
        {
          "internalType": "address",
          "name": "",
          "type": "address"
        }
      ],
      "stateMutability": "view",
      "type": "function"
    },
    {
      "inputs": [],
      "name": "MAX_PROPERTY_VALUE",
      "outputs": [
        {
          "internalType": "uint256",
          "name": "",
          "type": "uint256"
        }
      ],
      "stateMutability": "view",
      "type": "function"
    },
    {
      "inputs": [],
      "name": "MAX_ROUND",
      "outputs": [
        {
          "internalType": "uint256",
          "name": "",
          "type": "uint256"
        }
      ],
      "stateMutability": "view",
      "type": "function"
    },
    {
      "inputs": [],
      "name": "ORACLE_PRECISION",
      "outputs": [
        {
          "internalType": "uint256",
          "name": "",
          "type": "uint256"
        }
      ],
      "stateMutability": "view",
      "type": "function"
    },
    {
      "inputs": [],
      "name": "PRE_SELL_ROUND",
      "outputs": [
        {
          "internalType": "uint256",
          "name": "",
          "type": "uint256"
        }
      ],
      "stateMutability": "view",
      "type": "function"
    },
    {
      "inputs": [],
      "name": "PUB_SELL_ROUND1",
      "outputs": [
        {
          "internalType": "uint256",
          "name": "",
          "type": "uint256"
        }
      ],
      "stateMutability": "view",
      "type": "function"
    },
    {
      "inputs": [],
      "name": "PUB_SELL_ROUND2",
      "outputs": [
        {
          "internalType": "uint256",
          "name": "",
          "type": "uint256"
        }
      ],
      "stateMutability": "view",
      "type": "function"
    },
    {
      "inputs": [],
      "name": "PUB_SELL_ROUND3",
      "outputs": [
        {
          "internalType": "uint256",
          "name": "",
          "type": "uint256"
        }
      ],
      "stateMutability": "view",
      "type": "function"
    },
    {
      "inputs": [],
      "name": "PUB_SELL_ROUND4",
      "outputs": [
        {
          "internalType": "uint256",
          "name": "",
          "type": "uint256"
        }
      ],
      "stateMutability": "view",
      "type": "function"
    },
    {
      "inputs": [],
      "name": "PUB_SELL_ROUND5",
      "outputs": [
        {
          "internalType": "uint256",
          "name": "",
          "type": "uint256"
        }
      ],
      "stateMutability": "view",
      "type": "function"
    },
    {
      "inputs": [
        {
          "internalType": "address[]",
          "name": "users",
          "type": "address[]"
        },
        {
          "internalType": "uint256[]",
          "name": "quotas",
          "type": "uint256[]"
        }
      ],
      "name": "addUserQuotaPreRoundBatch",
      "outputs": [],
      "stateMutability": "nonpayable",
      "type": "function"
    },
    {
      "inputs": [
        {
          "internalType": "address",
          "name": "",
          "type": "address"
        }
      ],
      "name": "allowProtocolToCallTb",
      "outputs": [
        {
          "internalType": "bool",
          "name": "",
          "type": "bool"
        }
      ],
      "stateMutability": "view",
      "type": "function"
    },
    {
      "inputs": [
        {
          "internalType": "address",
          "name": "",
          "type": "address"
        }
      ],
      "name": "allowToCallTb",
      "outputs": [
        {
          "internalType": "bool",
          "name": "",
          "type": "bool"
        }
      ],
      "stateMutability": "view",
      "type": "function"
    },
    {
      "inputs": [
        {
          "internalType": "address",
          "name": "to",
          "type": "address"
        },
        {
          "internalType": "uint256",
          "name": "tokenId",
          "type": "uint256"
        }
      ],
      "name": "approve",
      "outputs": [],
      "stateMutability": "nonpayable",
      "type": "function"
    },
    {
      "inputs": [
        {
          "internalType": "address",
          "name": "owner",
          "type": "address"
        }
      ],
      "name": "balanceOf",
      "outputs": [
        {
          "internalType": "uint256",
          "name": "",
          "type": "uint256"
        }
      ],
      "stateMutability": "view",
      "type": "function"
    },
    {
      "inputs": [],
      "name": "baseURI",
      "outputs": [
        {
          "internalType": "string",
          "name": "",
          "type": "string"
        }
      ],
      "stateMutability": "view",
      "type": "function"
    },
    {
      "inputs": [],
      "name": "bibContract",
      "outputs": [
        {
          "internalType": "contract IERC20",
          "name": "",
          "type": "address"
        }
      ],
      "stateMutability": "view",
      "type": "function"
    },
    {
      "inputs": [],
      "name": "busdContract",
      "outputs": [
        {
          "internalType": "contract IERC20",
          "name": "",
          "type": "address"
        }
      ],
      "stateMutability": "view",
      "type": "function"
    },
    {
      "inputs": [
        {
          "internalType": "uint256",
          "name": "",
          "type": "uint256"
        }
      ],
      "name": "busdQuotaPerPubRoundTb",
      "outputs": [
        {
          "internalType": "uint256",
          "name": "quota",
          "type": "uint256"
        },
        {
          "internalType": "uint256",
          "name": "used",
          "type": "uint256"
        }
      ],
      "stateMutability": "view",
      "type": "function"
    },
    {
      "inputs": [
        {
          "internalType": "uint256",
          "name": "bibAmount",
          "type": "uint256"
        }
      ],
      "name": "caculateBUSDAmount",
      "outputs": [
        {
          "internalType": "uint256",
          "name": "",
          "type": "uint256"
        }
      ],
      "stateMutability": "view",
      "type": "function"
    },
    {
      "inputs": [
        {
          "internalType": "uint256",
          "name": "",
          "type": "uint256"
        }
      ],
      "name": "cardProperty",
      "outputs": [
        {
          "internalType": "string",
          "name": "name",
          "type": "string"
        },
        {
          "internalType": "string",
          "name": "country",
          "type": "string"
        },
        {
          "internalType": "string",
          "name": "position",
          "type": "string"
        },
        {
          "internalType": "uint256",
          "name": "starLevel",
          "type": "uint256"
        },
        {
          "internalType": "uint256",
          "name": "gradient",
          "type": "uint256"
        }
      ],
      "stateMutability": "view",
      "type": "function"
    },
    {
      "inputs": [],
      "name": "currentTime",
      "outputs": [
        {
          "internalType": "uint256",
          "name": "",
          "type": "uint256"
        }
      ],
      "stateMutability": "view",
      "type": "function"
    },
    {
      "inputs": [
        {
          "internalType": "uint256",
          "name": "tokenId",
          "type": "uint256"
        }
      ],
      "name": "getApproved",
      "outputs": [
        {
          "internalType": "address",
          "name": "",
          "type": "address"
        }
      ],
      "stateMutability": "view",
      "type": "function"
    },
    {
      "inputs": [
        {
          "internalType": "uint256",
          "name": "round",
          "type": "uint256"
        }
      ],
      "name": "getBUSDQuotaPerPubRound",
      "outputs": [
        {
          "internalType": "uint256",
          "name": "",
          "type": "uint256"
        }
      ],
      "stateMutability": "view",
      "type": "function"
    },
    {
      "inputs": [
        {
          "internalType": "uint256",
          "name": "round",
          "type": "uint256"
        }
      ],
      "name": "getBUSDRemainningQuotaPerPubRound",
      "outputs": [
        {
          "internalType": "uint256",
          "name": "",
          "type": "uint256"
        }
      ],
      "stateMutability": "view",
      "type": "function"
    },
    {
      "inputs": [
        {
          "internalType": "uint256",
          "name": "round",
          "type": "uint256"
        }
      ],
      "name": "getBUSDUsedQuotaPerPubRound",
      "outputs": [
        {
          "internalType": "uint256",
          "name": "",
          "type": "uint256"
        }
      ],
      "stateMutability": "view",
      "type": "function"
    },
    {
      "inputs": [
        {
          "internalType": "uint256",
          "name": "tokenId",
          "type": "uint256"
        }
      ],
      "name": "getCardProperty",
      "outputs": [
        {
          "components": [
            {
              "internalType": "string",
              "name": "name",
              "type": "string"
            },
            {
              "internalType": "string",
              "name": "country",
              "type": "string"
            },
            {
              "internalType": "string",
              "name": "position",
              "type": "string"
            },
            {
              "internalType": "uint256",
              "name": "starLevel",
              "type": "uint256"
            },
            {
              "internalType": "uint256",
              "name": "gradient",
              "type": "uint256"
            }
          ],
          "internalType": "struct ISoccerStarNft.SoccerStar",
          "name": "",
          "type": "tuple"
        }
      ],
      "stateMutability": "view",
      "type": "function"
    },
    {
      "inputs": [],
      "name": "getMaxAmountPerAddress",
      "outputs": [
        {
          "internalType": "uint256",
          "name": "",
          "type": "uint256"
        }
      ],
      "stateMutability": "view",
      "type": "function"
    },
    {
      "inputs": [
        {
          "internalType": "uint256",
          "name": "round",
          "type": "uint256"
        },
        {
          "internalType": "enum ISoccerStarNft.BlindBoxesType",
          "name": "boxType",
          "type": "uint8"
        }
      ],
      "name": "getMaxMintAmount",
      "outputs": [
        {
          "internalType": "uint256",
          "name": "",
          "type": "uint256"
        }
      ],
      "stateMutability": "view",
      "type": "function"
    },
    {
      "inputs": [],
      "name": "getMaxMintSupply",
      "outputs": [
        {
          "internalType": "uint256",
          "name": "",
          "type": "uint256"
        }
      ],
      "stateMutability": "view",
      "type": "function"
    },
    {
      "inputs": [
        {
          "internalType": "uint256",
          "name": "round",
          "type": "uint256"
        },
        {
          "internalType": "enum ISoccerStarNft.BlindBoxesType",
          "name": "boxType",
          "type": "uint8"
        }
      ],
      "name": "getMintPrice",
      "outputs": [
        {
          "internalType": "uint256",
          "name": "",
          "type": "uint256"
        }
      ],
      "stateMutability": "view",
      "type": "function"
    },
    {
      "inputs": [
        {
          "internalType": "address",
          "name": "user",
          "type": "address"
        },
        {
          "internalType": "uint256",
          "name": "round",
          "type": "uint256"
        }
      ],
      "name": "getPubicRoundMintAmountByUser",
      "outputs": [
        {
          "internalType": "uint256",
          "name": "",
          "type": "uint256"
        }
      ],
      "stateMutability": "view",
      "type": "function"
    },
    {
      "inputs": [
        {
          "internalType": "uint256",
          "name": "round",
          "type": "uint256"
        },
        {
          "internalType": "enum ISoccerStarNft.BlindBoxesType",
          "name": "boxType",
          "type": "uint8"
        }
      ],
      "name": "getRemainingAmount",
      "outputs": [
        {
          "internalType": "uint256",
          "name": "",
          "type": "uint256"
        }
      ],
      "stateMutability": "view",
      "type": "function"
    },
    {
      "inputs": [
        {
          "internalType": "uint256",
          "name": "round",
          "type": "uint256"
        }
      ],
      "name": "getSellTime",
      "outputs": [
        {
          "internalType": "uint256",
          "name": "",
          "type": "uint256"
        }
      ],
      "stateMutability": "view",
      "type": "function"
    },
    {
      "inputs": [
        {
          "internalType": "address",
          "name": "user",
          "type": "address"
        }
      ],
      "name": "getUserQuotaPreRound",
      "outputs": [
        {
          "internalType": "uint256",
          "name": "",
          "type": "uint256"
        }
      ],
      "stateMutability": "view",
      "type": "function"
    },
    {
      "inputs": [
        {
          "internalType": "address",
          "name": "user",
          "type": "address"
        }
      ],
      "name": "getUserRemainningQuotaPreRound",
      "outputs": [
        {
          "internalType": "uint256",
          "name": "",
          "type": "uint256"
        }
      ],
      "stateMutability": "view",
      "type": "function"
    },
    {
      "inputs": [
        {
          "internalType": "uint256",
          "name": "_maxMintSupply",
          "type": "uint256"
        },
        {
          "internalType": "address",
          "name": "_bibContract",
          "type": "address"
        },
        {
          "internalType": "address",
          "name": "_busdContract",
          "type": "address"
        },
        {
          "internalType": "address",
          "name": "_treasury",
          "type": "address"
        },
        {
          "internalType": "address",
          "name": "_router",
          "type": "address"
        }
      ],
      "name": "initialize",
      "outputs": [],
      "stateMutability": "nonpayable",
      "type": "function"
    },
    {
      "inputs": [
        {
          "internalType": "address",
          "name": "owner",
          "type": "address"
        },
        {
          "internalType": "address",
          "name": "operator",
          "type": "address"
        }
      ],
      "name": "isApprovedForAll",
      "outputs": [
        {
          "internalType": "bool",
          "name": "",
          "type": "bool"
        }
      ],
      "stateMutability": "view",
      "type": "function"
    },
    {
      "inputs": [
        {
          "internalType": "uint256",
          "name": "",
          "type": "uint256"
        }
      ],
      "name": "isOwnerMint",
      "outputs": [
        {
          "internalType": "bool",
          "name": "",
          "type": "bool"
        }
      ],
      "stateMutability": "view",
      "type": "function"
    },
    {
      "inputs": [
        {
          "internalType": "uint256",
          "name": "round",
          "type": "uint256"
        }
      ],
      "name": "isPublicRound",
      "outputs": [
        {
          "internalType": "bool",
          "name": "",
          "type": "bool"
        }
      ],
      "stateMutability": "pure",
      "type": "function"
    },
    {
      "inputs": [
        {
          "internalType": "uint256",
          "name": "round",
          "type": "uint256"
        }
      ],
      "name": "isRoundOpen",
      "outputs": [
        {
          "internalType": "bool",
          "name": "",
          "type": "bool"
        }
      ],
      "stateMutability": "view",
      "type": "function"
    },
    {
      "inputs": [
        {
          "internalType": "uint256",
          "name": "",
          "type": "uint256"
        },
        {
          "internalType": "enum ISoccerStarNft.BlindBoxesType",
          "name": "",
          "type": "uint8"
        }
      ],
      "name": "maxAmountTb",
      "outputs": [
        {
          "internalType": "uint256",
          "name": "",
          "type": "uint256"
        }
      ],
      "stateMutability": "view",
      "type": "function"
    },
    {
      "inputs": [],
      "name": "maxMintSupply",
      "outputs": [
        {
          "internalType": "uint256",
          "name": "",
          "type": "uint256"
        }
      ],
      "stateMutability": "view",
      "type": "function"
    },
    {
      "inputs": [],
      "name": "maxPubicsaleUserMintAmount",
      "outputs": [
        {
          "internalType": "uint256",
          "name": "",
          "type": "uint256"
        }
      ],
      "stateMutability": "view",
      "type": "function"
    },
    {
      "inputs": [
        {
          "internalType": "address",
          "name": "",
          "type": "address"
        },
        {
          "internalType": "uint256",
          "name": "",
          "type": "uint256"
        }
      ],
      "name": "mintAmountPerAddrTb",
      "outputs": [
        {
          "internalType": "uint256",
          "name": "",
          "type": "uint256"
        }
      ],
      "stateMutability": "view",
      "type": "function"
    },
    {
      "inputs": [
        {
          "internalType": "uint256",
          "name": "",
          "type": "uint256"
        },
        {
          "internalType": "enum ISoccerStarNft.BlindBoxesType",
          "name": "",
          "type": "uint8"
        }
      ],
      "name": "mintAmountTb",
      "outputs": [
        {
          "internalType": "uint256",
          "name": "",
          "type": "uint256"
        }
      ],
      "stateMutability": "view",
      "type": "function"
    },
    {
      "inputs": [
        {
          "internalType": "uint256",
          "name": "",
          "type": "uint256"
        },
        {
          "internalType": "enum ISoccerStarNft.BlindBoxesType",
          "name": "",
          "type": "uint8"
        }
      ],
      "name": "mintPriceTb",
      "outputs": [
        {
          "internalType": "uint256",
          "name": "",
          "type": "uint256"
        }
      ],
      "stateMutability": "view",
      "type": "function"
    },
    {
      "inputs": [],
      "name": "name",
      "outputs": [
        {
          "internalType": "string",
          "name": "",
          "type": "string"
        }
      ],
      "stateMutability": "view",
      "type": "function"
    },
    {
      "inputs": [],
      "name": "notRevealedURI",
      "outputs": [
        {
          "internalType": "string",
          "name": "",
          "type": "string"
        }
      ],
      "stateMutability": "view",
      "type": "function"
    },
    {
      "inputs": [],
      "name": "owner",
      "outputs": [
        {
          "internalType": "address",
          "name": "",
          "type": "address"
        }
      ],
      "stateMutability": "view",
      "type": "function"
    },
    {
      "inputs": [
        {
          "internalType": "uint256",
          "name": "quantity",
          "type": "uint256"
        }
      ],
      "name": "ownerMint",
      "outputs": [],
      "stateMutability": "nonpayable",
      "type": "function"
    },
    {
      "inputs": [
        {
          "internalType": "uint256",
          "name": "tokenId",
          "type": "uint256"
        }
      ],
      "name": "ownerOf",
      "outputs": [
        {
          "internalType": "address",
          "name": "",
          "type": "address"
        }
      ],
      "stateMutability": "view",
      "type": "function"
    },
    {
      "inputs": [],
      "name": "paused",
      "outputs": [
        {
          "internalType": "bool",
          "name": "",
          "type": "bool"
        }
      ],
      "stateMutability": "view",
      "type": "function"
    },
    {
      "inputs": [
        {
          "internalType": "uint256",
          "name": "quantity",
          "type": "uint256"
        }
      ],
      "name": "preSellMint",
      "outputs": [],
      "stateMutability": "payable",
      "type": "function"
    },
    {
      "inputs": [
        {
          "internalType": "uint256",
          "name": "tokenId",
          "type": "uint256"
        },
        {
          "components": [
            {
              "internalType": "string",
              "name": "name",
              "type": "string"
            },
            {
              "internalType": "string",
              "name": "country",
              "type": "string"
            },
            {
              "internalType": "string",
              "name": "position",
              "type": "string"
            },
            {
              "internalType": "uint256",
              "name": "starLevel",
              "type": "uint256"
            },
            {
              "internalType": "uint256",
              "name": "gradient",
              "type": "uint256"
            }
          ],
          "internalType": "struct ISoccerStarNft.SoccerStar",
          "name": "soccerStar",
          "type": "tuple"
        }
      ],
      "name": "protocolBind",
      "outputs": [],
      "stateMutability": "nonpayable",
      "type": "function"
    },
    {
      "inputs": [
        {
          "internalType": "uint256",
          "name": "tokenId",
          "type": "uint256"
        }
      ],
      "name": "protocolBurn",
      "outputs": [],
      "stateMutability": "nonpayable",
      "type": "function"
    },
    {
      "inputs": [],
      "name": "protocolMint",
      "outputs": [
        {
          "internalType": "uint256",
          "name": "tokenId",
          "type": "uint256"
        }
      ],
      "stateMutability": "nonpayable",
      "type": "function"
    },
    {
      "inputs": [
        {
          "internalType": "uint256",
          "name": "round",
          "type": "uint256"
        },
        {
          "internalType": "enum ISoccerStarNft.BlindBoxesType",
          "name": "boxType",
          "type": "uint8"
        },
        {
          "internalType": "uint256",
          "name": "quantity",
          "type": "uint256"
        },
        {
          "internalType": "enum ISoccerStarNft.PayMethod",
          "name": "payMethod",
          "type": "uint8"
        }
      ],
      "name": "publicSellMint",
      "outputs": [],
      "stateMutability": "nonpayable",
      "type": "function"
    },
    {
      "inputs": [],
      "name": "renounceOwnership",
      "outputs": [],
      "stateMutability": "nonpayable",
      "type": "function"
    },
    {
      "inputs": [
        {
          "internalType": "bool",
          "name": "_revealed",
          "type": "bool"
        }
      ],
      "name": "reveal",
      "outputs": [],
      "stateMutability": "nonpayable",
      "type": "function"
    },
    {
      "inputs": [],
      "name": "revealed",
      "outputs": [
        {
          "internalType": "bool",
          "name": "",
          "type": "bool"
        }
      ],
      "stateMutability": "view",
      "type": "function"
    },
    {
      "inputs": [],
      "name": "router",
      "outputs": [
        {
          "internalType": "contract IUniswapV2Router02",
          "name": "",
          "type": "address"
        }
      ],
      "stateMutability": "view",
      "type": "function"
    },
    {
      "inputs": [
        {
          "internalType": "address",
          "name": "from",
          "type": "address"
        },
        {
          "internalType": "address",
          "name": "to",
          "type": "address"
        },
        {
          "internalType": "uint256",
          "name": "tokenId",
          "type": "uint256"
        }
      ],
      "name": "safeTransferFrom",
      "outputs": [],
      "stateMutability": "nonpayable",
      "type": "function"
    },
    {
      "inputs": [
        {
          "internalType": "address",
          "name": "from",
          "type": "address"
        },
        {
          "internalType": "address",
          "name": "to",
          "type": "address"
        },
        {
          "internalType": "uint256",
          "name": "tokenId",
          "type": "uint256"
        },
        {
          "internalType": "bytes",
          "name": "_data",
          "type": "bytes"
        }
      ],
      "name": "safeTransferFrom",
      "outputs": [],
      "stateMutability": "nonpayable",
      "type": "function"
    },
    {
      "inputs": [
        {
          "internalType": "address",
          "name": "_protAddr",
          "type": "address"
        },
        {
          "internalType": "bool",
          "name": "value",
          "type": "bool"
        }
      ],
      "name": "setAllowProtocolToCall",
      "outputs": [],
      "stateMutability": "nonpayable",
      "type": "function"
    },
    {
      "inputs": [
        {
          "internalType": "address",
          "name": "_caller",
          "type": "address"
        },
        {
          "internalType": "bool",
          "name": "value",
          "type": "bool"
        }
      ],
      "name": "setAllowToCall",
      "outputs": [],
      "stateMutability": "nonpayable",
      "type": "function"
    },
    {
      "inputs": [
        {
          "internalType": "address",
          "name": "operator",
          "type": "address"
        },
        {
          "internalType": "bool",
          "name": "approved",
          "type": "bool"
        }
      ],
      "name": "setApprovalForAll",
      "outputs": [],
      "stateMutability": "nonpayable",
      "type": "function"
    },
    {
      "inputs": [
        {
          "internalType": "address",
          "name": "_bibContract",
          "type": "address"
        }
      ],
      "name": "setBIBContract",
      "outputs": [],
      "stateMutability": "nonpayable",
      "type": "function"
    },
    {
      "inputs": [
        {
          "internalType": "address",
          "name": "_busdContract",
          "type": "address"
        }
      ],
      "name": "setBUSDContract",
      "outputs": [],
      "stateMutability": "nonpayable",
      "type": "function"
    },
    {
      "inputs": [
        {
          "internalType": "uint256",
          "name": "round",
          "type": "uint256"
        },
        {
          "internalType": "uint256",
          "name": "quota",
          "type": "uint256"
        }
      ],
      "name": "setBUSDQuotaPerPubRound",
      "outputs": [],
      "stateMutability": "nonpayable",
      "type": "function"
    },
    {
      "inputs": [
        {
          "internalType": "string",
          "name": "uri",
          "type": "string"
        }
      ],
      "name": "setBaseURI",
      "outputs": [],
      "stateMutability": "nonpayable",
      "type": "function"
    },
    {
      "inputs": [
        {
          "internalType": "uint256",
          "name": "_amount",
          "type": "uint256"
        }
      ],
      "name": "setMaxAmountPerAddress",
      "outputs": [],
      "stateMutability": "nonpayable",
      "type": "function"
    },
    {
      "inputs": [
        {
          "internalType": "uint256",
          "name": "round",
          "type": "uint256"
        },
        {
          "internalType": "enum ISoccerStarNft.BlindBoxesType",
          "name": "boxType",
          "type": "uint8"
        },
        {
          "internalType": "uint256",
          "name": "amount",
          "type": "uint256"
        }
      ],
      "name": "setMaxMintAmount",
      "outputs": [],
      "stateMutability": "nonpayable",
      "type": "function"
    },
    {
      "inputs": [
        {
          "internalType": "uint256",
          "name": "_maxMintSupply",
          "type": "uint256"
        }
      ],
      "name": "setMaxMintSupply",
      "outputs": [],
      "stateMutability": "nonpayable",
      "type": "function"
    },
    {
      "inputs": [
        {
          "internalType": "uint256",
          "name": "round",
          "type": "uint256"
        },
        {
          "internalType": "uint256",
          "name": "_mintPrice",
          "type": "uint256"
        },
        {
          "internalType": "enum ISoccerStarNft.BlindBoxesType",
          "name": "boxType",
          "type": "uint8"
        }
      ],
      "name": "setMintPrice",
      "outputs": [],
      "stateMutability": "nonpayable",
      "type": "function"
    },
    {
      "inputs": [
        {
          "internalType": "string",
          "name": "_notRevealedURI",
          "type": "string"
        }
      ],
      "name": "setNotRevealURI",
      "outputs": [],
      "stateMutability": "nonpayable",
      "type": "function"
    },
    {
      "inputs": [
        {
          "internalType": "uint256",
          "name": "round",
          "type": "uint256"
        },
        {
          "internalType": "uint256",
          "name": "_startTime",
          "type": "uint256"
        },
        {
          "internalType": "uint256",
          "name": "_endTime",
          "type": "uint256"
        },
        {
          "internalType": "uint256",
          "name": "_revealTime",
          "type": "uint256"
        }
      ],
      "name": "setSellTime",
      "outputs": [],
      "stateMutability": "nonpayable",
      "type": "function"
    },
    {
      "inputs": [
        {
          "internalType": "address",
          "name": "_router",
          "type": "address"
        }
      ],
      "name": "setSwapRouter",
      "outputs": [],
      "stateMutability": "nonpayable",
      "type": "function"
    },
    {
      "inputs": [
        {
          "internalType": "address",
          "name": "_treasury",
          "type": "address"
        }
      ],
      "name": "setTreasury",
      "outputs": [],
      "stateMutability": "nonpayable",
      "type": "function"
    },
    {
      "inputs": [
        {
          "internalType": "address",
          "name": "user",
          "type": "address"
        },
        {
          "internalType": "uint256",
          "name": "quota",
          "type": "uint256"
        }
      ],
      "name": "setUserQuotaPreRound",
      "outputs": [],
      "stateMutability": "nonpayable",
      "type": "function"
    },
    {
      "inputs": [
        {
          "internalType": "bytes4",
          "name": "interfaceId",
          "type": "bytes4"
        }
      ],
      "name": "supportsInterface",
      "outputs": [
        {
          "internalType": "bool",
          "name": "",
          "type": "bool"
        }
      ],
      "stateMutability": "view",
      "type": "function"
    },
    {
      "inputs": [],
      "name": "symbol",
      "outputs": [
        {
          "internalType": "string",
          "name": "",
          "type": "string"
        }
      ],
      "stateMutability": "view",
      "type": "function"
    },
    {
      "inputs": [
        {
          "internalType": "uint256",
          "name": "",
          "type": "uint256"
        }
      ],
      "name": "timeInfoTb",
      "outputs": [
        {
          "internalType": "uint256",
          "name": "startTime",
          "type": "uint256"
        },
        {
          "internalType": "uint256",
          "name": "endTime",
          "type": "uint256"
        },
        {
          "internalType": "uint256",
          "name": "revealTime",
          "type": "uint256"
        }
      ],
      "stateMutability": "view",
      "type": "function"
    },
    {
      "inputs": [
        {
          "internalType": "uint256",
          "name": "_nftId",
          "type": "uint256"
        }
      ],
      "name": "tokenURI",
      "outputs": [
        {
          "internalType": "string",
          "name": "",
          "type": "string"
        }
      ],
      "stateMutability": "view",
      "type": "function"
    },
    {
      "inputs": [],
      "name": "totalSupply",
      "outputs": [
        {
          "internalType": "uint256",
          "name": "",
          "type": "uint256"
        }
      ],
      "stateMutability": "view",
      "type": "function"
    },
    {
      "inputs": [
        {
          "internalType": "address",
          "name": "from",
          "type": "address"
        },
        {
          "internalType": "address",
          "name": "to",
          "type": "address"
        },
        {
          "internalType": "uint256",
          "name": "tokenId",
          "type": "uint256"
        }
      ],
      "name": "transferFrom",
      "outputs": [],
      "stateMutability": "nonpayable",
      "type": "function"
    },
    {
      "inputs": [
        {
          "internalType": "address",
          "name": "newOwner",
          "type": "address"
        }
      ],
      "name": "transferOwnership",
      "outputs": [],
      "stateMutability": "nonpayable",
      "type": "function"
    },
    {
      "inputs": [],
      "name": "treasury",
      "outputs": [
        {
          "internalType": "address",
          "name": "",
          "type": "address"
        }
      ],
      "stateMutability": "view",
      "type": "function"
    },
    {
      "inputs": [
        {
          "internalType": "uint256[]",
          "name": "tokenIds",
          "type": "uint256[]"
        },
        {
          "components": [
            {
              "internalType": "string",
              "name": "name",
              "type": "string"
            },
            {
              "internalType": "string",
              "name": "country",
              "type": "string"
            },
            {
              "internalType": "string",
              "name": "position",
              "type": "string"
            },
            {
              "internalType": "uint256",
              "name": "starLevel",
              "type": "uint256"
            },
            {
              "internalType": "uint256",
              "name": "gradient",
              "type": "uint256"
            }
          ],
          "internalType": "struct ISoccerStarNft.SoccerStar[]",
          "name": "_soccerStars",
          "type": "tuple[]"
        }
      ],
      "name": "updateProperty",
      "outputs": [],
      "stateMutability": "nonpayable",
      "type": "function"
    },
    {
      "inputs": [
        {
          "internalType": "uint256",
          "name": "tokenId",
          "type": "uint256"
        },
        {
          "internalType": "uint256",
          "name": "starLevel",
          "type": "uint256"
        }
      ],
      "name": "updateStarlevel",
      "outputs": [],
      "stateMutability": "nonpayable",
      "type": "function"
    },
    {
      "inputs": [
        {
          "internalType": "address",
          "name": "",
          "type": "address"
        }
      ],
      "name": "userQutaPreRoundTb",
      "outputs": [
        {
          "internalType": "uint256",
          "name": "quota",
          "type": "uint256"
        },
        {
          "internalType": "uint256",
          "name": "used",
          "type": "uint256"
        }
      ],
      "stateMutability": "view",
      "type": "function"
    }
  ],
  "bytecode": "0x608060405260a4805460ff191690553480156200001b57600080fd5b50604080518082018252600d81526c14dbd8d8d95c94dd185c93999d609a1b60208083019182528351808501909452600684526529a1a9aa20a960d11b9084015281519192916200006f9160359162000093565b5080516200008590603690602084019062000093565b505060016033555062000176565b828054620000a19062000139565b90600052602060002090601f016020900481019282620000c5576000855562000110565b82601f10620000e057805160ff191683800117855562000110565b8280016001018555821562000110579182015b8281111562000110578251825591602001919060010190620000f3565b506200011e92915062000122565b5090565b5b808211156200011e576000815560010162000123565b600181811c908216806200014e57607f821691505b602082108114156200017057634e487b7160e01b600052602260045260246000fd5b50919050565b61520a80620001866000396000f3fe6080604052600436106104f75760003560e01c80636c0360eb1161028c578063b0e05fb01161015a578063de0a4456116100cc578063f19e75d411610085578063f19e75d414611059578063f2fde38b14611079578063f733f75714611099578063f7a30313146110ca578063f887ea40146110fa578063f8c587bb1461111a57600080fd5b8063de0a445614610f47578063df3fdf0014610f67578063e217f67414610f98578063e985e9c514610fb8578063ea54d1a014611001578063f0f442601461103957600080fd5b8063c87b56dd1161011e578063c87b56dd14610eb4578063cc18e09114610ed4578063cecaa8c814610e69578063cf9d101c14610ef4578063d11fafb514610f14578063d18e81b314610f3457600080fd5b8063b0e05fb014610e49578063b1bea4ec14610e34578063b4ac62c514610e69578063b88d4fde14610e7e578063c285e10714610e9e57600080fd5b80638a10705c116101fe578063975efa6d116101b7578063975efa6d14610da35780639c0d313f14610dc3578063a068ed9f14610ddf578063a0c3e9bf14610df4578063a22cb46514610e14578063adc6764814610e3457600080fd5b80638a10705c14610ced5780638da5cb5b14610d1a578063909c40f314610d38578063940cd05b14610d4e57806395d89b4114610d6e578063970f07a514610d8357600080fd5b80637389fbb7116102505780637389fbb714610c0757806379bc229f14610c275780637ae6d74114610c5d5780638019566514610c7d5780638052f5eb14610cad578063859f1e9814610ccd57600080fd5b80636c0360eb14610b885780637092ebd014610b9d57806370a0823114610bbd578063715018a614610bdd5780637225038014610bf257600080fd5b80633641e083116103c957806355eda4e81161033b5780635cbaf10e116102f45780635cbaf10e14610abb57806361d027b314610af357806362d45f7e14610b135780636352211e14610b33578063648cd83614610b535780636a37441714610b7357600080fd5b806355eda4e8146109eb57806355f804b314610a00578063575022e214610a205780635accac9914610a635780635c018cef14610a835780635c975abb14610aa357600080fd5b8063412736571161038d578063412736571461093c57806342842e0e1461095c57806344aa46e51461097c578063518302271461099c57806352419147146109b657806352fe811e146109d657600080fd5b80633641e0831461085157806336a9b90f14610871578063371a4494146108a55780633de5ed73146108c5578063409814a71461091c57600080fd5b806318160ddd1161046d57806325cad7a31161042657806325cad7a314610777578063264005031461079757806326452881146107cf5780632903187e146108075780632dd585af1461081c578063355165601461083157600080fd5b806318160ddd1461068f5780631dbe18ca146106ac5780631ff8f730146106c157806321f1ed0e146106ee57806323b872dd146107375780632529b9e91461075757600080fd5b80630afdd4e9116104bf5780630afdd4e9146105c05780630d4870ba146105f057806310cc6bb91461061057806311b65bcc14610630578063140fa8b21461064f578063153bf53a1461066f57600080fd5b806301ffc9a7146104fc578063027c8f9c1461053157806306fdde0314610546578063081812fc14610568578063095ea7b3146105a0575b600080fd5b34801561050857600080fd5b5061051c6105173660046144a8565b61113a565b60405190151581526020015b60405180910390f35b61054461053f3660046144c5565b61118c565b005b34801561055257600080fd5b5061055b611439565b6040516105289190614536565b34801561057457600080fd5b506105886105833660046144c5565b6114cb565b6040516001600160a01b039091168152602001610528565b3480156105ac57600080fd5b506105446105bb366004614565565b61150f565b3480156105cc57600080fd5b5061051c6105db36600461458f565b60af6020526000908152604090205460ff1681565b3480156105fc57600080fd5b5061054461060b3660046145b8565b61159d565b34801561061c57600080fd5b50609f54610588906001600160a01b031681565b34801561063c57600080fd5b5060a7545b604051908152602001610528565b34801561065b57600080fd5b5061051c61066a3660046144c5565b6115d0565b34801561067b57600080fd5b5061054461068a3660046144c5565b6115fa565b34801561069b57600080fd5b506034546033540360001901610641565b3480156106b857600080fd5b50610641600181565b3480156106cd57600080fd5b506106e16106dc3660046144c5565b6116ff565b60405161052891906145ef565b3480156106fa57600080fd5b5061072261070936600461458f565b60b2602052600090815260409020805460019091015482565b60408051928352602083019190915201610528565b34801561074357600080fd5b50610544610752366004614668565b61191a565b34801561076357600080fd5b506106416107723660046144c5565b611925565b34801561078357600080fd5b506106416107923660046146b3565b61195f565b3480156107a357600080fd5b506106416107b23660046146b3565b60aa60209081526000928352604080842090915290825290205481565b3480156107db57600080fd5b506106416107ea3660046146b3565b60ac60209081526000928352604080842090915290825290205481565b34801561081357600080fd5b50610641600081565b34801561082857600080fd5b506106416119f9565b34801561083d57600080fd5b5061054461084c3660046148f9565b611a9a565b34801561085d57600080fd5b5061054461086c3660046149cd565b611c5e565b34801561087d57600080fd5b5061072261088c3660046144c5565b60b1602052600090815260409020805460019091015482565b3480156108b157600080fd5b506105446108c0366004614565565b611e16565b3480156108d157600080fd5b506109016108e03660046144c5565b60ae6020526000908152604090208054600182015460029092015490919083565b60408051938452602084019290925290820152606001610528565b34801561092857600080fd5b506105446109373660046144c5565b611e76565b34801561094857600080fd5b5061054461095736600461458f565b611ebf565b34801561096857600080fd5b50610544610977366004614668565b611f56565b34801561098857600080fd5b506105446109973660046145b8565b611f71565b3480156109a857600080fd5b5060a45461051c9060ff1681565b3480156109c257600080fd5b506105446109d136600461458f565b611fa4565b3480156109e257600080fd5b5060a554610641565b3480156109f757600080fd5b50610588600181565b348015610a0c57600080fd5b50610544610a1b366004614a2b565b61203b565b348015610a2c57600080fd5b50610641610a3b366004614565565b6001600160a01b0391909116600090815260ad60209081526040808320938352929052205490565b348015610a6f57600080fd5b50610544610a7e366004614a2b565b612096565b348015610a8f57600080fd5b50610641610a9e3660046146b3565b6120b1565b348015610aaf57600080fd5b50606d5460ff1661051c565b348015610ac757600080fd5b50610641610ad6366004614565565b60ad60209081526000928352604080842090915290825290205481565b348015610aff57600080fd5b5060a654610588906001600160a01b031681565b348015610b1f57600080fd5b50610544610b2e366004614a5f565b6120fa565b348015610b3f57600080fd5b50610588610b4e3660046144c5565b612257565b348015610b5f57600080fd5b50610544610b6e366004614aa5565b612269565b348015610b7f57600080fd5b50610641600381565b348015610b9457600080fd5b5061055b612368565b348015610ba957600080fd5b50610641610bb83660046144c5565b6123f6565b348015610bc957600080fd5b50610641610bd836600461458f565b612512565b348015610be957600080fd5b50610544612560565b348015610bfe57600080fd5b5061055b612574565b348015610c1357600080fd5b50610544610c223660046144c5565b612581565b348015610c3357600080fd5b50610641610c4236600461458f565b6001600160a01b0316600090815260b2602052604090205490565b348015610c6957600080fd5b50610544610c78366004614b5a565b6125ca565b348015610c8957600080fd5b5061051c610c9836600461458f565b60b06020526000908152604090205460ff1681565b348015610cb957600080fd5b50610544610cc8366004614b7c565b6126fb565b348015610cd957600080fd5b50610544610ce8366004614bb1565b6127c8565b348015610cf957600080fd5b50610641610d083660046144c5565b600090815260ae602052604090205490565b348015610d2657600080fd5b50603b546001600160a01b0316610588565b348015610d4457600080fd5b5061064160a75481565b348015610d5a57600080fd5b50610544610d69366004614bd6565b61282e565b348015610d7a57600080fd5b5061055b612885565b348015610d8f57600080fd5b50610641610d9e36600461458f565b612894565b348015610daf57600080fd5b50610641610dbe3660046146b3565b6128bc565b348015610dcf57600080fd5b50610641670de0b6b3a764000081565b348015610deb57600080fd5b50610641600281565b348015610e0057600080fd5b5061051c610e0f3660046144c5565b6128dd565b348015610e2057600080fd5b50610544610e2f3660046145b8565b6128f3565b348015610e4057600080fd5b50610641600481565b348015610e5557600080fd5b50610544610e64366004614bf3565b612989565b348015610e7557600080fd5b50610641600581565b348015610e8a57600080fd5b50610544610e99366004614c25565b612b10565b348015610eaa57600080fd5b5061064160a55481565b348015610ec057600080fd5b5061055b610ecf3660046144c5565b612b61565b348015610ee057600080fd5b50610641610eef3660046144c5565b612cce565b348015610f0057600080fd5b5060a054610588906001600160a01b031681565b348015610f2057600080fd5b50610544610f2f366004614b5a565b612d0b565b348015610f4057600080fd5b5042610641565b348015610f5357600080fd5b50610641610f623660046144c5565b612d86565b348015610f7357600080fd5b5061055b60405180604001604052806005815260200164173539b7b760d91b81525081565b348015610fa457600080fd5b50610544610fb336600461458f565b612dcb565b348015610fc457600080fd5b5061051c610fd3366004614ca0565b6001600160a01b039182166000908152603a6020908152604080832093909416825291909152205460ff1690565b34801561100d57600080fd5b5061064161101c3660046146b3565b60ab60209081526000928352604080842090915290825290205481565b34801561104557600080fd5b5061054461105436600461458f565b612e62565b34801561106557600080fd5b506105446110743660046144c5565b612ef9565b34801561108557600080fd5b5061054461109436600461458f565b613016565b3480156110a557600080fd5b506110b96110b43660046144c5565b61308c565b604051610528959493929190614cca565b3480156110d657600080fd5b5061051c6110e53660046144c5565b60a86020526000908152604090205460ff1681565b34801561110657600080fd5b5060a154610588906001600160a01b031681565b34801561112657600080fd5b50610544611135366004614d18565b613252565b60006001600160e01b031982166380ac58cd60e01b148061116b57506001600160e01b03198216635b5e139f60e01b145b8061118657506301ffc9a760e01b6001600160e01b03198316145b92915050565b6111946136e4565b61119e60006115d0565b6111ef5760405162461bcd60e51b815260206004820152601960248201527f5052455f53454c4c5f524f554e445f4e4f545f4f50454e45440000000000000060448201526064015b60405180910390fd5b806111f933612894565b101561123b5760405162461bcd60e51b8152602060048201526011602482015270555345525f4841535f4e4f5f51554f544160781b60448201526064016111e6565b8061124760008061195f565b101561128e5760405162461bcd60e51b8152602060048201526016602482015275115610d1515117d3505617d352539517d05353d5539560521b60448201526064016111e6565b60006112a561129e6000806128bc565b839061372a565b609f546040516323b872dd60e01b815233600482015260016024820152604481018390529192506001600160a01b0316906323b872dd906064016020604051808303816000875af11580156112fe573d6000803e3d6000fd5b505050506040513d601f19601f820116820180604052508101906113229190614d64565b5061132d33836137a9565b600080805260ac60205261138f9083907fcb32a14641dfad80670595f3e53f5dc52441fb5380c11f8eebcd755e5b33a3d990805b600381111561137257611372614d81565b8152602001908152602001600020546137c390919063ffffffff16565b7f09229797d18e46ef371f534769daa7516611a2d3b4fa6e78d367241116f4c6175533600090815260b260205260409020600101546113ce90836137c3565b33600081815260b260205260408120600101929092556033547fc3fb2a814f4ed737299948f9983d52e3c4509065f63356f43472d5033d3b85ca929081906114169087613822565b8660008760405161142d9796959493929190614dbb565b60405180910390a15050565b60606035805461144890614e0a565b80601f016020809104026020016040519081016040528092919081815260200182805461147490614e0a565b80156114c15780601f10611496576101008083540402835291602001916114c1565b820191906000526020600020905b8154815290600101906020018083116114a457829003601f168201915b5050505050905090565b60006114d682613864565b6114f3576040516333d1c03960e21b815260040160405180910390fd5b506000908152603960205260409020546001600160a01b031690565b600061151a82612257565b9050806001600160a01b0316836001600160a01b0316141561154f5760405163250fdee360e21b815260040160405180910390fd5b336001600160a01b0382161480159061156f575061156d8133610fd3565b155b1561158d576040516367d9dca160e11b815260040160405180910390fd5b61159883838361389d565b505050565b6115a56138f9565b6001600160a01b0391909116600090815260b060205260409020805460ff1916911515919091179055565b600081815260ae60205260408120805442101580156115f3575060018101544211155b9392505050565b33600090815260af602052604090205460ff166116295760405162461bcd60e51b81526004016111e690614e45565b61163281612257565b6001600160a01b0316336001600160a01b0316146116925760405162461bcd60e51b815260206004820152601b60248201527f544f4b454e5f4e4f545f42454c4c4f4e475f544f5f43414c4c4552000000000060448201526064016111e6565b61169b81613953565b6116a481612257565b6001600160a01b0316336001600160a01b031614156116fc5760405162461bcd60e51b8152602060048201526014602482015273141493d513d0d3d317d094955397d1905253115160621b60448201526064016111e6565b50565b6117316040518060a0016040528060608152602001606081526020016060815260200160008152602001600081525090565b600082815260a9602052604090819020815160a0810190925280548290829061175990614e0a565b80601f016020809104026020016040519081016040528092919081815260200182805461178590614e0a565b80156117d25780601f106117a7576101008083540402835291602001916117d2565b820191906000526020600020905b8154815290600101906020018083116117b557829003601f168201915b505050505081526020016001820180546117eb90614e0a565b80601f016020809104026020016040519081016040528092919081815260200182805461181790614e0a565b80156118645780601f1061183957610100808354040283529160200191611864565b820191906000526020600020905b81548152906001019060200180831161184757829003601f168201915b5050505050815260200160028201805461187d90614e0a565b80601f01602080910402602001604051908101604052809291908181526020018280546118a990614e0a565b80156118f65780601f106118cb576101008083540402835291602001916118f6565b820191906000526020600020905b8154815290600101906020018083116118d957829003601f168201915b50505050508152602001600382015481526020016004820154815250509050919050565b61159883838361395e565b6000611930826128dd565b61194c5760405162461bcd60e51b81526004016111e690614e71565b50600090815260b1602052604090205490565b600082815260ac602052604081206115f3908284600381111561198457611984614d81565b600381111561199557611995614d81565b81526020019081526020016000205460ab600086815260200190815260200160002060008560038111156119cb576119cb614d81565b60038111156119dc576119dc614d81565b81526020019081526020016000205461382290919063ffffffff16565b33600090815260af602052604081205460ff16611a285760405162461bcd60e51b81526004016111e690614e45565b50603354611a37336001613b39565b611a4081612257565b6001600160a01b0316336001600160a01b031614611a975760405162461bcd60e51b8152602060048201526014602482015273141493d513d0d3d317d352539517d1905253115160621b60448201526064016111e6565b90565b33600090815260b0602052604090205460ff1680611ac25750603b546001600160a01b031633145b611ade5760405162461bcd60e51b81526004016111e690614e9b565b8051825114611b225760405162461bcd60e51b815260206004820152601060248201526f09c8a8a88bea6829a8abe988a9c8ea8960831b60448201526064016111e6565b60005b81518110156115985760a96000848381518110611b4457611b44614ec7565b6020026020010151815260200190815260200160002060030154600014611b9e5760405162461bcd60e51b815260206004820152600e60248201526d1513d2d15397d49155915053115160921b60448201526064016111e6565b818181518110611bb057611bb0614ec7565b602002602001015160a96000858481518110611bce57611bce614ec7565b602002602001015181526020019081526020016000206000820151816000019080519060200190611c009291906143f9565b506020828101518051611c1992600185019201906143f9565b5060408201518051611c359160028401916020909101906143f9565b506060820151600382015560809091015160049091015580611c5681614ef3565b915050611b25565b600054600190610100900460ff16158015611c80575060005460ff8083169116105b611ce35760405162461bcd60e51b815260206004820152602e60248201527f496e697469616c697a61626c653a20636f6e747261637420697320616c72656160448201526d191e481a5b9a5d1a585b1a5e995960921b60648201526084016111e6565b6000805461ffff191660ff83161761010017905560a5869055609f80546001600160a01b038088166001600160a01b03199283161790925560a0805487841690831617905560a6805486841690831617905560a1805492851692909116919091179055611d4e613c49565b611d56613c78565b60408051808201909152600d8082526c14dbd8d8d95c94dd185c93999d609a1b6020909201918252611d8a916035916143f9565b506040805180820190915260068082526529a1a9aa20a960d11b6020909201918252611db8916036916143f9565b50600a60a75560a4805460ff1916905560016033556000805461ff001916905560405160ff821681527f7f26b83ff96e1f2b6a682f133852f6798a09c465da95921460cefb38474024989060200160405180910390a1505050505050565b33600090815260b0602052604090205460ff1680611e3e5750603b546001600160a01b031633145b611e5a5760405162461bcd60e51b81526004016111e690614e9b565b6001600160a01b03909116600090815260b26020526040902055565b33600090815260b0602052604090205460ff1680611e9e5750603b546001600160a01b031633145b611eba5760405162461bcd60e51b81526004016111e690614e9b565b60a755565b611ec76138f9565b6001600160a01b038116611eed5760405162461bcd60e51b81526004016111e690614f0e565b60a1546040517f183f98025cbbac2e9f8c6153c73ddf04d9fa1536073f40a880193842cd6e88fd91611f2c9133916001600160a01b0316908590614f36565b60405180910390a160a180546001600160a01b0319166001600160a01b0392909216919091179055565b61159883838360405180602001604052806000815250612b10565b611f796138f9565b6001600160a01b0391909116600090815260af60205260409020805460ff1916911515919091179055565b611fac6138f9565b6001600160a01b038116611fd25760405162461bcd60e51b81526004016111e690614f0e565b60a0546040517f6aca743edeb4e0ea2946d2ebfd5a2328eca6b0f0250566cf6003c1724aef3377916120119133916001600160a01b0316908590614f36565b60405180910390a160a080546001600160a01b0319166001600160a01b0392909216919091179055565b33600090815260b0602052604090205460ff16806120635750603b546001600160a01b031633145b61207f5760405162461bcd60e51b81526004016111e690614e9b565b80516120929060a29060208401906143f9565b5050565b61209e6138f9565b80516120929060a39060208401906143f9565b600082815260ab60205260408120818360038111156120d2576120d2614d81565b60038111156120e3576120e3614d81565b815260200190815260200160002054905092915050565b33600090815260af602052604090205460ff166121295760405162461bcd60e51b81526004016111e690614e45565b61213282612257565b6001600160a01b0316336001600160a01b0316146121925760405162461bcd60e51b815260206004820152601b60248201527f544f4b454e5f4e4f545f42454c4c4f4e475f544f5f43414c4c4552000000000060448201526064016111e6565b600082815260a96020526040902060030154156121e25760405162461bcd60e51b815260206004820152600e60248201526d1513d2d15397d49155915053115160921b60448201526064016111e6565b600082815260a9602090815260409091208251805184936122079284929101906143f9565b50602082810151805161222092600185019201906143f9565b506040820151805161223c9160028401916020909101906143f9565b50606082015160038201556080909101516004909101555050565b600061226282613ca7565b5192915050565b33600090815260b0602052604090205460ff16806122915750603b546001600160a01b031633145b6122ad5760405162461bcd60e51b81526004016111e690614e9b565b80518251146122f65760405162461bcd60e51b81526020600482015260156024820152740a6909eaa9888be848abea6829a8abe988a9c8ea89605b1b60448201526064016111e6565b60005b82518110156115985781818151811061231457612314614ec7565b602002602001015160b2600085848151811061233257612332614ec7565b6020908102919091018101516001600160a01b03168252810191909152604001600020558061236081614ef3565b9150506122f9565b60a2805461237590614e0a565b80601f01602080910402602001604051908101604052809291908181526020018280546123a190614e0a565b80156123ee5780601f106123c3576101008083540402835291602001916123ee565b820191906000526020600020905b8154815290600101906020018083116123d157829003601f168201915b505050505081565b604080516002808252606082018352600092839291906020830190803683375050609f5482519293506001600160a01b03169183915060009061243b5761243b614ec7565b6001600160a01b03928316602091820292909201015260a05482519116908290600190811061246c5761246c614ec7565b6001600160a01b03928316602091820292909201015260a15460405163d06ca61f60e01b815291169063d06ca61f906124ab9086908590600401614f59565b600060405180830381865afa1580156124c8573d6000803e3d6000fd5b505050506040513d6000823e601f3d908101601f191682016040526124f09190810190614fb0565b60018151811061250257612502614ec7565b6020026020010151915050919050565b60006001600160a01b03821661253b576040516323d3ad8160e21b815260040160405180910390fd5b506001600160a01b03166000908152603860205260409020546001600160401b031690565b6125686138f9565b6125726000613dce565b565b60a3805461237590614e0a565b33600090815260b0602052604090205460ff16806125a95750603b546001600160a01b031633145b6125c55760405162461bcd60e51b81526004016111e690614e9b565b60a555565b33600090815260af602052604090205460ff166125f95760405162461bcd60e51b81526004016111e690614e45565b61260282612257565b6001600160a01b03166126475760405162461bcd60e51b815260206004820152600d60248201526c24a72b20a624a22faa27a5a2a760991b60448201526064016111e6565b600081118015612658575060048111155b6126945760405162461bcd60e51b815260206004820152600d60248201526c24a72b20a624a22faa27a5a2a760991b60448201526064016111e6565b600082815260a96020908152604091829020600301548251338152918201529081018290527f503da1e45c649fd5b20f6bb9683e8329e14d245e636a9a83dbcfa8a15f4d387d9060600160405180910390a1600091825260a9602052604090912060030155565b33600090815260b0602052604090205460ff16806127235750603b546001600160a01b031633145b61273f5760405162461bcd60e51b81526004016111e690614e9b565b600583111561277f5760405162461bcd60e51b815260206004820152600c60248201526b12539593125117d493d5539160a21b60448201526064016111e6565b600083815260aa6020526040812083918360038111156127a1576127a1614d81565b60038111156127b2576127b2614d81565b8152602081019190915260400160002055505050565b33600090815260b0602052604090205460ff16806127f05750603b546001600160a01b031633145b61280c5760405162461bcd60e51b81526004016111e690614e9b565b600083815260ab6020526040812082918460038111156127a1576127a1614d81565b33600090815260b0602052604090205460ff16806128565750603b546001600160a01b031633145b6128725760405162461bcd60e51b81526004016111e690614e9b565b60a4805460ff1916911515919091179055565b60606036805461144890614e0a565b6001600160a01b038116600090815260b2602052604081206001810154905461118691613822565b600082815260aa60205260408120818360038111156120d2576120d2614d81565b6000600182101580156111865750506005101590565b6001600160a01b03821633141561291d5760405163b06307db60e01b815260040160405180910390fd5b336000818152603a602090815260408083206001600160a01b03871680855290835292819020805460ff191686151590811790915590519081529192917f17307eab39ab6107e8899845ad3d59bd9653f200f220920489ca2b5937696c31910160405180910390a35050565b33600090815260b0602052604090205460ff16806129b15750603b546001600160a01b031633145b6129cd5760405162461bcd60e51b81526004016111e690614e9b565b6005841115612a0d5760405162461bcd60e51b815260206004820152600c60248201526b12539593125117d493d5539160a21b60448201526064016111e6565b42831015612a515760405162461bcd60e51b8152602060048201526011602482015270494e564c49445f53544152545f54494d4560781b60448201526064016111e6565b82821015612a935760405162461bcd60e51b815260206004820152600f60248201526e494e564c49445f454e445f54494d4560881b60448201526064016111e6565b81811015612ad55760405162461bcd60e51b815260206004820152600f60248201526e494e564c49445f454e445f54494d4560881b60448201526064016111e6565b604080516060810182529384526020808501938452848201928352600095865260ae9052909320915182555160018201559051600290910155565b612b1b84848461395e565b6001600160a01b0383163b15158015612b3d5750612b3b84848484613e20565b155b15612b5b576040516368d2bf6b60e11b815260040160405180910390fd5b50505050565b6060612b6c82613864565b612bb85760405162461bcd60e51b815260206004820152601760248201527f54686973204e465420646f65736e27742065786973742e00000000000000000060448201526064016111e6565b60a45460ff16612c545760a38054612bcf90614e0a565b80601f0160208091040260200160405190810160405280929190818152602001828054612bfb90614e0a565b8015612c485780601f10612c1d57610100808354040283529160200191612c48565b820191906000526020600020905b815481529060010190602001808311612c2b57829003601f168201915b50505050509050919050565b6000612c5e613f09565b90506000815111612c7e57604051806020016040528060008152506115f3565b80612c8884613f18565b60405180604001604052806005815260200164173539b7b760d91b815250604051602001612cb893929190615040565b6040516020818303038152906040529392505050565b6000612cd9826128dd565b612cf55760405162461bcd60e51b81526004016111e690614e71565b50600090815260b1602052604090206001015490565b33600090815260b0602052604090205460ff1680612d335750603b546001600160a01b031633145b612d4f5760405162461bcd60e51b81526004016111e690614e9b565b612d58826128dd565b612d745760405162461bcd60e51b81526004016111e690614e71565b600091825260b1602052604090912055565b6000612d91826128dd565b612dad5760405162461bcd60e51b81526004016111e690614e71565b600082815260b1602052604090206001810154905461118691613822565b612dd36138f9565b6001600160a01b038116612df95760405162461bcd60e51b81526004016111e690614f0e565b609f546040517f55263a2c34e1ca945ec24e98ab7634dfbdea3867d19adaac6da2ad9381018d3991612e389133916001600160a01b0316908590614f36565b60405180910390a1609f80546001600160a01b0319166001600160a01b0392909216919091179055565b612e6a6138f9565b6001600160a01b038116612e905760405162461bcd60e51b81526004016111e690614f0e565b60a6546040517f749a8050935feb73a55ab4641c867c4dacc84430990fcaada1d12ba9072ad02e91612ecf9133916001600160a01b0316908590614f36565b60405180910390a160a680546001600160a01b0319166001600160a01b0392909216919091179055565b612f016138f9565b612f096136e4565b60a55481612f1a6033546000190190565b612f249190615083565b1115612f675760405162461bcd60e51b815260206004820152601260248201527113505617d4d55414131657d4915050d2115160721b60448201526064016111e6565b612f7133826137a9565b600081603354612f81919061509b565b90505b603354811015612fb957600081815260a860205260409020805460ff1916600117905580612fb181614ef3565b915050612f84565b507fc3fb2a814f4ed737299948f9983d52e3c4509065f63356f43472d5033d3b85ca33600080612ff48560335461382290919063ffffffff16565b8560008060405161300b9796959493929190614dbb565b60405180910390a150565b61301e6138f9565b6001600160a01b0381166130835760405162461bcd60e51b815260206004820152602660248201527f4f776e61626c653a206e6577206f776e657220697320746865207a65726f206160448201526564647265737360d01b60648201526084016111e6565b6116fc81613dce565b60a9602052600090815260409020805481906130a790614e0a565b80601f01602080910402602001604051908101604052809291908181526020018280546130d390614e0a565b80156131205780601f106130f557610100808354040283529160200191613120565b820191906000526020600020905b81548152906001019060200180831161310357829003601f168201915b50505050509080600101805461313590614e0a565b80601f016020809104026020016040519081016040528092919081815260200182805461316190614e0a565b80156131ae5780601f10613183576101008083540402835291602001916131ae565b820191906000526020600020905b81548152906001019060200180831161319157829003601f168201915b5050505050908060020180546131c390614e0a565b80601f01602080910402602001604051908101604052809291908181526020018280546131ef90614e0a565b801561323c5780601f106132115761010080835404028352916020019161323c565b820191906000526020600020905b81548152906001019060200180831161321f57829003601f168201915b5050505050908060030154908060040154905085565b61325a6136e4565b613263846128dd565b6132a65760405162461bcd60e51b81526020600482015260146024820152734e4f545f5055424c49435f524f554e445f4e554d60601b60448201526064016111e6565b6132af846115d0565b6132ec5760405162461bcd60e51b815260206004820152600e60248201526d2927aaa7222fa727aa2fa7a822a760911b60448201526064016111e6565b600083600381111561330057613300614d81565b141561334e5760405162461bcd60e51b815260206004820152601760248201527f50524553414c455f424f585f4e4f545f414c4c4f57454400000000000000000060448201526064016111e6565b60a75433600090815260ad6020908152604080832088845290915290205461337690846137c3565b11156133c45760405162461bcd60e51b815260206004820152601e60248201527f4558434545445f414444524553535f4d41585f4d494e545f414d4f554e54000060448201526064016111e6565b816133cf858561195f565b10156134165760405162461bcd60e51b8152602060048201526016602482015275115610d1515117d3505617d352539517d05353d5539560521b60448201526064016111e6565b600061342c61342586866128bc565b849061372a565b9050600082600181111561344257613442614d81565b14156134ca57609f546040516323b872dd60e01b815233600482015260016024820152604481018390526001600160a01b03909116906323b872dd906064016020604051808303816000875af11580156134a0573d6000803e3d6000fd5b505050506040513d601f19601f820116820180604052508101906134c49190614d64565b506135d4565b826134d486612d86565b101561351a5760405162461bcd60e51b81526020600482015260156024820152744558434545445f4d41585f425553445f51554f544160581b60448201526064016111e6565b613523816123f6565b60a05460a6546040516323b872dd60e01b81523360048201526001600160a01b0391821660248201526044810184905292935016906323b872dd906064016020604051808303816000875af1158015613580573d6000803e3d6000fd5b505050506040513d601f19601f820116820180604052508101906135a49190614d64565b50600085815260b160205260409020600101546135c190846137c3565b600086815260b160205260409020600101555b6135de33846137a9565b600085815260ac602052604081206136059185919087600381111561136157611361614d81565b600086815260ac602052604081209086600381111561362657613626614d81565b600381111561363757613637614d81565b8152602080820192909252604090810160009081209390935533835260ad825280832088845290915290205461366d90846137c3565b33600081815260ad602090815260408083208a84529091529020919091556033547fc3fb2a814f4ed737299948f9983d52e3c4509065f63356f43472d5033d3b85ca9190879087906136bf9088613822565b8787876040516136d59796959493929190614dbb565b60405180910390a15050505050565b606d5460ff16156125725760405162461bcd60e51b815260206004820152601060248201526f14185d5cd8589b194e881c185d5cd95960821b60448201526064016111e6565b60008261373957506000611186565b600061374583856150b2565b90508261375285836150e7565b146115f35760405162461bcd60e51b815260206004820152602160248201527f536166654d6174683a206d756c7469706c69636174696f6e206f766572666c6f6044820152607760f81b60648201526084016111e6565b612092828260405180602001604052806000815250614015565b6000806137d08385615083565b9050838110156115f35760405162461bcd60e51b815260206004820152601b60248201527f536166654d6174683a206164646974696f6e206f766572666c6f77000000000060448201526064016111e6565b60006115f383836040518060400160405280601e81526020017f536166654d6174683a207375627472616374696f6e206f766572666c6f7700008152506141a8565b600081600111158015613878575060335482105b8015611186575050600090815260376020526040902054600160e01b900460ff161590565b60008281526039602052604080822080546001600160a01b0319166001600160a01b0387811691821790925591518593918516917f8c5be1e5ebec7d5bd14f71427d1e84f3dd0314c0f7b2291e5b200ac8c7c3b92591a4505050565b603b546001600160a01b031633146125725760405162461bcd60e51b815260206004820181905260248201527f4f776e61626c653a2063616c6c6572206973206e6f7420746865206f776e657260448201526064016111e6565b6116fc8160006141e2565b600061396982613ca7565b9050836001600160a01b031681600001516001600160a01b0316146139a05760405162a1148160e81b815260040160405180910390fd5b6000336001600160a01b03861614806139be57506139be8533610fd3565b806139d95750336139ce846114cb565b6001600160a01b0316145b9050806139f957604051632ce44b5f60e11b815260040160405180910390fd5b6001600160a01b038416613a2057604051633a954ecd60e21b815260040160405180910390fd5b613a2c6000848761389d565b6001600160a01b038581166000908152603860209081526040808320805467ffffffffffffffff198082166001600160401b0392831660001901831617909255898616808652838620805493841693831660019081018416949094179055898652603790945282852080546001600160e01b031916909417600160a01b42909216919091021783558701808452922080549193909116613b00576033548214613b0057805460208601516001600160401b0316600160a01b026001600160e01b03199091166001600160a01b038a16171781555b50505082846001600160a01b0316866001600160a01b03166000805160206151b583398151915260405160405180910390a45050505050565b6033546001600160a01b038316613b6257604051622e076360e81b815260040160405180910390fd5b81613b805760405163b562e8dd60e01b815260040160405180910390fd5b6001600160a01b038316600081815260386020908152604080832080546001600160801b031981166001600160401b038083168a018116918217600160401b67ffffffffffffffff1990941690921783900481168a01811690920217909155858452603790925290912080546001600160e01b031916909217600160a01b4290921691909102179055808083015b6040516001830192906001600160a01b038716906000906000805160206151b5833981519152908290a480821415613c0e5750603355505050565b600054610100900460ff16613c705760405162461bcd60e51b81526004016111e6906150fb565b612572614396565b600054610100900460ff16613c9f5760405162461bcd60e51b81526004016111e6906150fb565b6125726143c9565b60408051606081018252600080825260208201819052918101919091528180600111158015613cd7575060335481105b15613db557600081815260376020908152604091829020825160608101845290546001600160a01b0381168252600160a01b81046001600160401b031692820192909252600160e01b90910460ff16151591810182905290613db35780516001600160a01b031615613d4a579392505050565b5060001901600081815260376020908152604091829020825160608101845290546001600160a01b038116808352600160a01b82046001600160401b031693830193909352600160e01b900460ff1615159281019290925215613dae579392505050565b613d4a565b505b604051636f96cda160e11b815260040160405180910390fd5b603b80546001600160a01b038381166001600160a01b0319831681179093556040519116919082907f8be0079c531659141344cd1fd0a4f28419497f9722a3daafe3b4186f6b6457e090600090a35050565b604051630a85bd0160e11b81526000906001600160a01b0385169063150b7a0290613e55903390899088908890600401615146565b6020604051808303816000875af1925050508015613e90575060408051601f3d908101601f19168201909252613e8d91810190615183565b60015b613eeb573d808015613ebe576040519150601f19603f3d011682016040523d82523d6000602084013e613ec3565b606091505b508051613ee3576040516368d2bf6b60e11b815260040160405180910390fd5b805181602001fd5b6001600160e01b031916630a85bd0160e11b1490505b949350505050565b606060a2805461144890614e0a565b606081613f3c5750506040805180820190915260018152600360fc1b602082015290565b8160005b8115613f665780613f5081614ef3565b9150613f5f9050600a836150e7565b9150613f40565b6000816001600160401b03811115613f8057613f806146df565b6040519080825280601f01601f191660200182016040528015613faa576020820181803683370190505b5090505b8415613f0157613fbf60018361509b565b9150613fcc600a866151a0565b613fd7906030615083565b60f81b818381518110613fec57613fec614ec7565b60200101906001600160f81b031916908160001a90535061400e600a866150e7565b9450613fae565b6033546001600160a01b03841661403e57604051622e076360e81b815260040160405180910390fd5b8261405c5760405163b562e8dd60e01b815260040160405180910390fd5b6001600160a01b038416600081815260386020908152604080832080546001600160801b031981166001600160401b038083168b018116918217600160401b67ffffffffffffffff1990941690921783900481168b01811690920217909155858452603790925290912080546001600160e01b0319168317600160a01b42909316929092029190911790558190818501903b15614165575b60405182906001600160a01b038816906000906000805160206151b5833981519152908290a461412d6000878480600101955087613e20565b61414a576040516368d2bf6b60e11b815260040160405180910390fd5b808214156140f457826033541461416057600080fd5b614199565b5b6040516001830192906001600160a01b038816906000906000805160206151b5833981519152908290a480821415614166575b50603355612b5b600085838684565b600081848411156141cc5760405162461bcd60e51b81526004016111e69190614536565b5060006141d9848661509b565b95945050505050565b60006141ed83613ca7565b80519091508215614253576000336001600160a01b038316148061421657506142168233610fd3565b80614231575033614226866114cb565b6001600160a01b0316145b90508061425157604051632ce44b5f60e11b815260040160405180910390fd5b505b61425f6000858361389d565b6001600160a01b0380821660008181526038602090815260408083208054600160801b6000196001600160401b0380841691909101811667ffffffffffffffff198416811783900482166001908101831690930277ffffffffffffffff0000000000000000ffffffffffffffff19909416179290921783558b86526037909452828520805460ff60e01b1942909316600160a01b026001600160e01b03199091169097179690961716600160e01b17855591890180845292208054919490911661435d57603354821461435d57805460208701516001600160401b0316600160a01b026001600160e01b03199091166001600160a01b038716171781555b5050604051869250600091506001600160a01b038416906000805160206151b5833981519152908390a450506034805460010190555050565b600054610100900460ff166143bd5760405162461bcd60e51b81526004016111e6906150fb565b606d805460ff19169055565b600054610100900460ff166143f05760405162461bcd60e51b81526004016111e6906150fb565b61257233613dce565b82805461440590614e0a565b90600052602060002090601f016020900481019282614427576000855561446d565b82601f1061444057805160ff191683800117855561446d565b8280016001018555821561446d579182015b8281111561446d578251825591602001919060010190614452565b5061447992915061447d565b5090565b5b80821115614479576000815560010161447e565b6001600160e01b0319811681146116fc57600080fd5b6000602082840312156144ba57600080fd5b81356115f381614492565b6000602082840312156144d757600080fd5b5035919050565b60005b838110156144f95781810151838201526020016144e1565b83811115612b5b5750506000910152565b600081518084526145228160208601602086016144de565b601f01601f19169290920160200192915050565b6020815260006115f3602083018461450a565b80356001600160a01b038116811461456057600080fd5b919050565b6000806040838503121561457857600080fd5b61458183614549565b946020939093013593505050565b6000602082840312156145a157600080fd5b6115f382614549565b80151581146116fc57600080fd5b600080604083850312156145cb57600080fd5b6145d483614549565b915060208301356145e4816145aa565b809150509250929050565b602081526000825160a0602084015261460b60c084018261450a565b90506020840151601f1980858403016040860152614629838361450a565b9250604086015191508085840301606086015250614647828261450a565b91505060608401516080840152608084015160a08401528091505092915050565b60008060006060848603121561467d57600080fd5b61468684614549565b925061469460208501614549565b9150604084013590509250925092565b80356004811061456057600080fd5b600080604083850312156146c657600080fd5b823591506146d6602084016146a4565b90509250929050565b634e487b7160e01b600052604160045260246000fd5b60405160a081016001600160401b0381118282101715614717576147176146df565b60405290565b604051601f8201601f191681016001600160401b0381118282101715614745576147456146df565b604052919050565b60006001600160401b03821115614766576147666146df565b5060051b60200190565b600082601f83011261478157600080fd5b813560206147966147918361474d565b61471d565b82815260059290921b840181019181810190868411156147b557600080fd5b8286015b848110156147d057803583529183019183016147b9565b509695505050505050565b60006001600160401b038311156147f4576147f46146df565b614807601f8401601f191660200161471d565b905082815283838301111561481b57600080fd5b828260208301376000602084830101529392505050565b600082601f83011261484357600080fd5b6115f3838335602085016147db565b600060a0828403121561486457600080fd5b61486c6146f5565b905081356001600160401b038082111561488557600080fd5b61489185838601614832565b835260208401359150808211156148a757600080fd5b6148b385838601614832565b602084015260408401359150808211156148cc57600080fd5b506148d984828501614832565b604083015250606082013560608201526080820135608082015292915050565b6000806040838503121561490c57600080fd5b82356001600160401b038082111561492357600080fd5b61492f86838701614770565b935060209150818501358181111561494657600080fd5b8501601f8101871361495757600080fd5b80356149656147918261474d565b81815260059190911b8201840190848101908983111561498457600080fd5b8584015b838110156149bc578035868111156149a05760008081fd5b6149ae8c8983890101614852565b845250918601918601614988565b508096505050505050509250929050565b600080600080600060a086880312156149e557600080fd5b853594506149f560208701614549565b9350614a0360408701614549565b9250614a1160608701614549565b9150614a1f60808701614549565b90509295509295909350565b600060208284031215614a3d57600080fd5b81356001600160401b03811115614a5357600080fd5b613f0184828501614832565b60008060408385031215614a7257600080fd5b8235915060208301356001600160401b03811115614a8f57600080fd5b614a9b85828601614852565b9150509250929050565b60008060408385031215614ab857600080fd5b82356001600160401b0380821115614acf57600080fd5b818501915085601f830112614ae357600080fd5b81356020614af36147918361474d565b82815260059290921b84018101918181019089841115614b1257600080fd5b948201945b83861015614b3757614b2886614549565b82529482019490820190614b17565b96505086013592505080821115614b4d57600080fd5b50614a9b85828601614770565b60008060408385031215614b6d57600080fd5b50508035926020909101359150565b600080600060608486031215614b9157600080fd5b8335925060208401359150614ba8604085016146a4565b90509250925092565b600080600060608486031215614bc657600080fd5b83359250614694602085016146a4565b600060208284031215614be857600080fd5b81356115f3816145aa565b60008060008060808587031215614c0957600080fd5b5050823594602084013594506040840135936060013592509050565b60008060008060808587031215614c3b57600080fd5b614c4485614549565b9350614c5260208601614549565b92506040850135915060608501356001600160401b03811115614c7457600080fd5b8501601f81018713614c8557600080fd5b614c94878235602084016147db565b91505092959194509250565b60008060408385031215614cb357600080fd5b614cbc83614549565b91506146d660208401614549565b60a081526000614cdd60a083018861450a565b8281036020840152614cef818861450a565b90508281036040840152614d03818761450a565b60608401959095525050608001529392505050565b60008060008060808587031215614d2e57600080fd5b84359350614d3e602086016146a4565b925060408501359150606085013560028110614d5957600080fd5b939692955090935050565b600060208284031215614d7657600080fd5b81516115f3816145aa565b634e487b7160e01b600052602160045260246000fd5b60048110614da757614da7614d81565b9052565b60028110614da757614da7614d81565b6001600160a01b03881681526020810187905260e08101614ddf6040830188614d97565b856060830152846080830152614df860a0830185614dab565b8260c083015298975050505050505050565b600181811c90821680614e1e57607f821691505b60208210811415614e3f57634e487b7160e01b600052602260045260246000fd5b50919050565b60208082526012908201527113d3931657d41493d513d0d3d317d0d0531360721b604082015260600190565b60208082526010908201526f1393d517d41550931250d7d493d5539160821b604082015260600190565b60208082526012908201527127a7262cafa822a926a4aa2fa1a0a62622a960711b604082015260600190565b634e487b7160e01b600052603260045260246000fd5b634e487b7160e01b600052601160045260246000fd5b6000600019821415614f0757614f07614edd565b5060010190565b6020808252600e908201526d494e564c49445f4144445245535360901b604082015260600190565b6001600160a01b0393841681529183166020830152909116604082015260600190565b6000604082018483526020604081850152818551808452606086019150828701935060005b81811015614fa35784516001600160a01b031683529383019391830191600101614f7e565b5090979650505050505050565b60006020808385031215614fc357600080fd5b82516001600160401b03811115614fd957600080fd5b8301601f81018513614fea57600080fd5b8051614ff86147918261474d565b81815260059190911b8201830190838101908783111561501757600080fd5b928401925b828410156150355783518252928401929084019061501c565b979650505050505050565b600084516150528184602089016144de565b8451908301906150668183602089016144de565b84519101906150798183602088016144de565b0195945050505050565b6000821982111561509657615096614edd565b500190565b6000828210156150ad576150ad614edd565b500390565b60008160001904831182151516156150cc576150cc614edd565b500290565b634e487b7160e01b600052601260045260246000fd5b6000826150f6576150f66150d1565b500490565b6020808252602b908201527f496e697469616c697a61626c653a20636f6e7472616374206973206e6f74206960408201526a6e697469616c697a696e6760a81b606082015260800190565b6001600160a01b03858116825284166020820152604081018390526080606082018190526000906151799083018461450a565b9695505050505050565b60006020828403121561519557600080fd5b81516115f381614492565b6000826151af576151af6150d1565b50069056feddf252ad1be2c89b69c2b068fc378daa952ba7f163c4a11628f55a4df523b3efa26469706673582212204a499cd819e2689886af7e14e628b27c97a55dc61e272ab0fe88924c7f66626564736f6c634300080b0033",
  "linkReferences": {},
  "deployedLinkReferences": {}
}