{
  "_format": "hh-sol-artifact-1",
  "contractName": "SoccerStarNft",
  "sourceName": "contracts/nft/SoccerStarNft.sol",
  "abi": [
    {
      "inputs": [],
      "stateMutability": "nonpayable",
      "type": "constructor"
    },
    {
      "inputs": [],
      "name": "ApprovalCallerNotOwnerNorApproved",
      "type": "error"
    },
    {
      "inputs": [],
      "name": "ApprovalQueryForNonexistentToken",
      "type": "error"
    },
    {
      "inputs": [],
      "name": "ApprovalToCurrentOwner",
      "type": "error"
    },
    {
      "inputs": [],
      "name": "ApproveToCaller",
      "type": "error"
    },
    {
      "inputs": [],
      "name": "BalanceQueryForZeroAddress",
      "type": "error"
    },
    {
      "inputs": [],
      "name": "MintToZeroAddress",
      "type": "error"
    },
    {
      "inputs": [],
      "name": "MintZeroQuantity",
      "type": "error"
    },
    {
      "inputs": [],
      "name": "OwnerQueryForNonexistentToken",
      "type": "error"
    },
    {
      "inputs": [],
      "name": "TransferCallerNotOwnerNorApproved",
      "type": "error"
    },
    {
      "inputs": [],
      "name": "TransferFromIncorrectOwner",
      "type": "error"
    },
    {
      "inputs": [],
      "name": "TransferToNonERC721ReceiverImplementer",
      "type": "error"
    },
    {
      "inputs": [],
      "name": "TransferToZeroAddress",
      "type": "error"
    },
    {
      "anonymous": false,
      "inputs": [
        {
          "indexed": true,
          "internalType": "address",
          "name": "owner",
          "type": "address"
        },
        {
          "indexed": true,
          "internalType": "address",
          "name": "approved",
          "type": "address"
        },
        {
          "indexed": true,
          "internalType": "uint256",
          "name": "tokenId",
          "type": "uint256"
        }
      ],
      "name": "Approval",
      "type": "event"
    },
    {
      "anonymous": false,
      "inputs": [
        {
          "indexed": true,
          "internalType": "address",
          "name": "owner",
          "type": "address"
        },
        {
          "indexed": true,
          "internalType": "address",
          "name": "operator",
          "type": "address"
        },
        {
          "indexed": false,
          "internalType": "bool",
          "name": "approved",
          "type": "bool"
        }
      ],
      "name": "ApprovalForAll",
      "type": "event"
    },
    {
      "anonymous": false,
      "inputs": [
        {
          "indexed": false,
          "internalType": "address",
          "name": "sender",
          "type": "address"
        },
        {
          "indexed": false,
          "internalType": "address",
          "name": "oldValue",
          "type": "address"
        },
        {
          "indexed": false,
          "internalType": "address",
          "name": "newValue",
          "type": "address"
        }
      ],
      "name": "BIBContractChanged",
      "type": "event"
    },
    {
      "anonymous": false,
      "inputs": [
        {
          "indexed": false,
          "internalType": "address",
          "name": "sender",
          "type": "address"
        },
        {
          "indexed": false,
          "internalType": "address",
          "name": "oldValue",
          "type": "address"
        },
        {
          "indexed": false,
          "internalType": "address",
          "name": "newValue",
          "type": "address"
        }
      ],
      "name": "BUSDContractChanged",
      "type": "event"
    },
    {
      "anonymous": false,
      "inputs": [
        {
          "indexed": false,
          "internalType": "address",
          "name": "sender",
          "type": "address"
        },
        {
          "indexed": false,
          "internalType": "uint256",
          "name": "oldValue",
          "type": "uint256"
        },
        {
          "indexed": false,
          "internalType": "uint256",
          "name": "newValue",
          "type": "uint256"
        }
      ],
      "name": "Changed",
      "type": "event"
    },
    {
      "anonymous": false,
      "inputs": [
        {
          "indexed": false,
          "internalType": "address",
          "name": "sender",
          "type": "address"
        },
        {
          "indexed": false,
          "internalType": "address",
          "name": "oldValue",
          "type": "address"
        },
        {
          "indexed": false,
          "internalType": "address",
          "name": "newValue",
          "type": "address"
        }
      ],
      "name": "ComposerChanged",
      "type": "event"
    },
    {
      "anonymous": false,
      "inputs": [
        {
          "indexed": false,
          "internalType": "uint8",
          "name": "version",
          "type": "uint8"
        }
      ],
      "name": "Initialized",
      "type": "event"
    },
    {
      "anonymous": false,
      "inputs": [
        {
          "indexed": false,
          "internalType": "address",
          "name": "newAddress",
          "type": "address"
        },
        {
          "indexed": false,
          "internalType": "uint256",
          "name": "rount",
          "type": "uint256"
        },
        {
          "indexed": false,
          "internalType": "enum ISoccerStarNft.BlindBoxesType",
          "name": "blindBoxes",
          "type": "uint8"
        },
        {
          "indexed": false,
          "internalType": "uint256",
          "name": "tokenIdSt",
          "type": "uint256"
        },
        {
          "indexed": false,
          "internalType": "uint256",
          "name": "quantity",
          "type": "uint256"
        },
        {
          "indexed": false,
          "internalType": "enum ISoccerStarNft.PayMethod",
          "name": "payMethod",
          "type": "uint8"
        },
        {
          "indexed": false,
          "internalType": "uint256",
          "name": "sales",
          "type": "uint256"
        }
      ],
      "name": "Mint",
      "type": "event"
    },
    {
      "anonymous": false,
      "inputs": [
        {
          "indexed": true,
          "internalType": "address",
          "name": "previousOwner",
          "type": "address"
        },
        {
          "indexed": true,
          "internalType": "address",
          "name": "newOwner",
          "type": "address"
        }
      ],
      "name": "OwnershipTransferred",
      "type": "event"
    },
    {
      "anonymous": false,
      "inputs": [
        {
          "indexed": false,
          "internalType": "address",
          "name": "account",
          "type": "address"
        }
      ],
      "name": "Paused",
      "type": "event"
    },
    {
      "anonymous": false,
      "inputs": [
        {
          "indexed": false,
          "internalType": "address",
          "name": "sender",
          "type": "address"
        },
        {
          "indexed": false,
          "internalType": "uint256",
          "name": "oldValue",
          "type": "uint256"
        },
        {
          "indexed": false,
          "internalType": "uint256",
          "name": "newValue",
          "type": "uint256"
        }
      ],
      "name": "SellTimeChanged",
      "type": "event"
    },
    {
      "anonymous": false,
      "inputs": [
        {
          "indexed": false,
          "internalType": "address",
          "name": "sender",
          "type": "address"
        },
        {
          "indexed": false,
          "internalType": "address",
          "name": "oldValue",
          "type": "address"
        },
        {
          "indexed": false,
          "internalType": "address",
          "name": "newValue",
          "type": "address"
        }
      ],
      "name": "SwapRouterChanged",
      "type": "event"
    },
    {
      "anonymous": false,
      "inputs": [
        {
          "indexed": true,
          "internalType": "address",
          "name": "from",
          "type": "address"
        },
        {
          "indexed": true,
          "internalType": "address",
          "name": "to",
          "type": "address"
        },
        {
          "indexed": true,
          "internalType": "uint256",
          "name": "tokenId",
          "type": "uint256"
        }
      ],
      "name": "Transfer",
      "type": "event"
    },
    {
      "anonymous": false,
      "inputs": [
        {
          "indexed": false,
          "internalType": "address",
          "name": "sender",
          "type": "address"
        },
        {
          "indexed": false,
          "internalType": "address",
          "name": "oldValue",
          "type": "address"
        },
        {
          "indexed": false,
          "internalType": "address",
          "name": "newValue",
          "type": "address"
        }
      ],
      "name": "TreasuryChanged",
      "type": "event"
    },
    {
      "anonymous": false,
      "inputs": [
        {
          "indexed": false,
          "internalType": "address",
          "name": "account",
          "type": "address"
        }
      ],
      "name": "Unpaused",
      "type": "event"
    },
    {
      "anonymous": false,
      "inputs": [
        {
          "indexed": false,
          "internalType": "address",
          "name": "sender",
          "type": "address"
        },
        {
          "indexed": false,
          "internalType": "uint256",
          "name": "oldValue",
          "type": "uint256"
        },
        {
          "indexed": false,
          "internalType": "uint256",
          "name": "newValue",
          "type": "uint256"
        }
      ],
      "name": "UpdateStarLevel",
      "type": "event"
    },
    {
      "inputs": [],
      "name": "BASE_EXTENSION",
      "outputs": [
        {
          "internalType": "string",
          "name": "",
          "type": "string"
        }
      ],
      "stateMutability": "view",
      "type": "function"
    },
    {
      "inputs": [],
      "name": "BLACK_HOLE",
      "outputs": [
        {
          "internalType": "address",
          "name": "",
          "type": "address"
        }
      ],
      "stateMutability": "view",
      "type": "function"
    },
    {
      "inputs": [],
      "name": "MAX_PROPERTY_VALUE",
      "outputs": [
        {
          "internalType": "uint256",
          "name": "",
          "type": "uint256"
        }
      ],
      "stateMutability": "view",
      "type": "function"
    },
    {
      "inputs": [],
      "name": "MAX_ROUND",
      "outputs": [
        {
          "internalType": "uint256",
          "name": "",
          "type": "uint256"
        }
      ],
      "stateMutability": "view",
      "type": "function"
    },
    {
      "inputs": [],
      "name": "ORACLE_PRECISION",
      "outputs": [
        {
          "internalType": "uint256",
          "name": "",
          "type": "uint256"
        }
      ],
      "stateMutability": "view",
      "type": "function"
    },
    {
      "inputs": [],
      "name": "PRE_SELL_ROUND",
      "outputs": [
        {
          "internalType": "uint256",
          "name": "",
          "type": "uint256"
        }
      ],
      "stateMutability": "view",
      "type": "function"
    },
    {
      "inputs": [],
      "name": "PUB_SELL_ROUND1",
      "outputs": [
        {
          "internalType": "uint256",
          "name": "",
          "type": "uint256"
        }
      ],
      "stateMutability": "view",
      "type": "function"
    },
    {
      "inputs": [],
      "name": "PUB_SELL_ROUND2",
      "outputs": [
        {
          "internalType": "uint256",
          "name": "",
          "type": "uint256"
        }
      ],
      "stateMutability": "view",
      "type": "function"
    },
    {
      "inputs": [],
      "name": "PUB_SELL_ROUND3",
      "outputs": [
        {
          "internalType": "uint256",
          "name": "",
          "type": "uint256"
        }
      ],
      "stateMutability": "view",
      "type": "function"
    },
    {
      "inputs": [],
      "name": "PUB_SELL_ROUND4",
      "outputs": [
        {
          "internalType": "uint256",
          "name": "",
          "type": "uint256"
        }
      ],
      "stateMutability": "view",
      "type": "function"
    },
    {
      "inputs": [],
      "name": "PUB_SELL_ROUND5",
      "outputs": [
        {
          "internalType": "uint256",
          "name": "",
          "type": "uint256"
        }
      ],
      "stateMutability": "view",
      "type": "function"
    },
    {
      "inputs": [
        {
          "internalType": "address[]",
          "name": "users",
          "type": "address[]"
        },
        {
          "internalType": "uint256[]",
          "name": "quotas",
          "type": "uint256[]"
        }
      ],
      "name": "addUserQuotaPreRoundBatch",
      "outputs": [],
      "stateMutability": "nonpayable",
      "type": "function"
    },
    {
      "inputs": [
        {
          "internalType": "address",
          "name": "",
          "type": "address"
        }
      ],
      "name": "allowProtocolToCallTb",
      "outputs": [
        {
          "internalType": "bool",
          "name": "",
          "type": "bool"
        }
      ],
      "stateMutability": "view",
      "type": "function"
    },
    {
      "inputs": [
        {
          "internalType": "address",
          "name": "",
          "type": "address"
        }
      ],
      "name": "allowToCallTb",
      "outputs": [
        {
          "internalType": "bool",
          "name": "",
          "type": "bool"
        }
      ],
      "stateMutability": "view",
      "type": "function"
    },
    {
      "inputs": [
        {
          "internalType": "address",
          "name": "to",
          "type": "address"
        },
        {
          "internalType": "uint256",
          "name": "tokenId",
          "type": "uint256"
        }
      ],
      "name": "approve",
      "outputs": [],
      "stateMutability": "nonpayable",
      "type": "function"
    },
    {
      "inputs": [
        {
          "internalType": "address",
          "name": "owner",
          "type": "address"
        }
      ],
      "name": "balanceOf",
      "outputs": [
        {
          "internalType": "uint256",
          "name": "",
          "type": "uint256"
        }
      ],
      "stateMutability": "view",
      "type": "function"
    },
    {
      "inputs": [],
      "name": "baseURI",
      "outputs": [
        {
          "internalType": "string",
          "name": "",
          "type": "string"
        }
      ],
      "stateMutability": "view",
      "type": "function"
    },
    {
      "inputs": [],
      "name": "bibContract",
      "outputs": [
        {
          "internalType": "contract IERC20",
          "name": "",
          "type": "address"
        }
      ],
      "stateMutability": "view",
      "type": "function"
    },
    {
      "inputs": [],
      "name": "busdContract",
      "outputs": [
        {
          "internalType": "contract IERC20",
          "name": "",
          "type": "address"
        }
      ],
      "stateMutability": "view",
      "type": "function"
    },
    {
      "inputs": [
        {
          "internalType": "uint256",
          "name": "",
          "type": "uint256"
        }
      ],
      "name": "busdQuotaPerPubRoundTb",
      "outputs": [
        {
          "internalType": "uint256",
          "name": "quota",
          "type": "uint256"
        },
        {
          "internalType": "uint256",
          "name": "used",
          "type": "uint256"
        }
      ],
      "stateMutability": "view",
      "type": "function"
    },
    {
      "inputs": [
        {
          "internalType": "uint256",
          "name": "amount",
          "type": "uint256"
        }
      ],
      "name": "caculateBNBBUSDDirect",
      "outputs": [
        {
          "internalType": "uint256",
          "name": "",
          "type": "uint256"
        }
      ],
      "stateMutability": "view",
      "type": "function"
    },
    {
      "inputs": [
        {
          "internalType": "uint256",
          "name": "amount",
          "type": "uint256"
        }
      ],
      "name": "caculateBNBBUSDViaBIB",
      "outputs": [
        {
          "internalType": "uint256",
          "name": "",
          "type": "uint256"
        }
      ],
      "stateMutability": "view",
      "type": "function"
    },
    {
      "inputs": [
        {
          "internalType": "uint256",
          "name": "bibAmount",
          "type": "uint256"
        }
      ],
      "name": "caculateBUSDAmount",
      "outputs": [
        {
          "internalType": "uint256",
          "name": "",
          "type": "uint256"
        }
      ],
      "stateMutability": "view",
      "type": "function"
    },
    {
      "inputs": [
        {
          "internalType": "uint256",
          "name": "",
          "type": "uint256"
        }
      ],
      "name": "cardProperty",
      "outputs": [
        {
          "internalType": "string",
          "name": "name",
          "type": "string"
        },
        {
          "internalType": "string",
          "name": "country",
          "type": "string"
        },
        {
          "internalType": "string",
          "name": "position",
          "type": "string"
        },
        {
          "internalType": "uint256",
          "name": "starLevel",
          "type": "uint256"
        },
        {
          "internalType": "uint256",
          "name": "gradient",
          "type": "uint256"
        }
      ],
      "stateMutability": "view",
      "type": "function"
    },
    {
      "inputs": [],
      "name": "currentTime",
      "outputs": [
        {
          "internalType": "uint256",
          "name": "",
          "type": "uint256"
        }
      ],
      "stateMutability": "view",
      "type": "function"
    },
    {
      "inputs": [
        {
          "internalType": "uint256",
          "name": "tokenId",
          "type": "uint256"
        }
      ],
      "name": "getApproved",
      "outputs": [
        {
          "internalType": "address",
          "name": "",
          "type": "address"
        }
      ],
      "stateMutability": "view",
      "type": "function"
    },
    {
      "inputs": [
        {
          "internalType": "uint256",
          "name": "round",
          "type": "uint256"
        }
      ],
      "name": "getBUSDQuotaPerPubRound",
      "outputs": [
        {
          "internalType": "uint256",
          "name": "",
          "type": "uint256"
        }
      ],
      "stateMutability": "view",
      "type": "function"
    },
    {
      "inputs": [
        {
          "internalType": "uint256",
          "name": "round",
          "type": "uint256"
        }
      ],
      "name": "getBUSDRemainningQuotaPerPubRound",
      "outputs": [
        {
          "internalType": "uint256",
          "name": "",
          "type": "uint256"
        }
      ],
      "stateMutability": "view",
      "type": "function"
    },
    {
      "inputs": [
        {
          "internalType": "uint256",
          "name": "round",
          "type": "uint256"
        }
      ],
      "name": "getBUSDUsedQuotaPerPubRound",
      "outputs": [
        {
          "internalType": "uint256",
          "name": "",
          "type": "uint256"
        }
      ],
      "stateMutability": "view",
      "type": "function"
    },
    {
      "inputs": [
        {
          "internalType": "uint256",
          "name": "tokenId",
          "type": "uint256"
        }
      ],
      "name": "getCardProperty",
      "outputs": [
        {
          "components": [
            {
              "internalType": "string",
              "name": "name",
              "type": "string"
            },
            {
              "internalType": "string",
              "name": "country",
              "type": "string"
            },
            {
              "internalType": "string",
              "name": "position",
              "type": "string"
            },
            {
              "internalType": "uint256",
              "name": "starLevel",
              "type": "uint256"
            },
            {
              "internalType": "uint256",
              "name": "gradient",
              "type": "uint256"
            }
          ],
          "internalType": "struct ISoccerStarNft.SoccerStar",
          "name": "",
          "type": "tuple"
        }
      ],
      "stateMutability": "view",
      "type": "function"
    },
    {
      "inputs": [],
      "name": "getMaxAmountPerAddress",
      "outputs": [
        {
          "internalType": "uint256",
          "name": "",
          "type": "uint256"
        }
      ],
      "stateMutability": "view",
      "type": "function"
    },
    {
      "inputs": [
        {
          "internalType": "uint256",
          "name": "round",
          "type": "uint256"
        },
        {
          "internalType": "enum ISoccerStarNft.BlindBoxesType",
          "name": "boxType",
          "type": "uint8"
        }
      ],
      "name": "getMaxMintAmount",
      "outputs": [
        {
          "internalType": "uint256",
          "name": "",
          "type": "uint256"
        }
      ],
      "stateMutability": "view",
      "type": "function"
    },
    {
      "inputs": [],
      "name": "getMaxMintSupply",
      "outputs": [
        {
          "internalType": "uint256",
          "name": "",
          "type": "uint256"
        }
      ],
      "stateMutability": "view",
      "type": "function"
    },
    {
      "inputs": [
        {
          "internalType": "uint256",
          "name": "round",
          "type": "uint256"
        },
        {
          "internalType": "enum ISoccerStarNft.BlindBoxesType",
          "name": "boxType",
          "type": "uint8"
        }
      ],
      "name": "getMintPrice",
      "outputs": [
        {
          "internalType": "uint256",
          "name": "",
          "type": "uint256"
        }
      ],
      "stateMutability": "view",
      "type": "function"
    },
    {
      "inputs": [
        {
          "internalType": "address",
          "name": "user",
          "type": "address"
        },
        {
          "internalType": "uint256",
          "name": "round",
          "type": "uint256"
        }
      ],
      "name": "getPubicRoundMintAmountByUser",
      "outputs": [
        {
          "internalType": "uint256",
          "name": "",
          "type": "uint256"
        }
      ],
      "stateMutability": "view",
      "type": "function"
    },
    {
      "inputs": [
        {
          "internalType": "uint256",
          "name": "round",
          "type": "uint256"
        },
        {
          "internalType": "enum ISoccerStarNft.BlindBoxesType",
          "name": "boxType",
          "type": "uint8"
        }
      ],
      "name": "getRemainingAmount",
      "outputs": [
        {
          "internalType": "uint256",
          "name": "",
          "type": "uint256"
        }
      ],
      "stateMutability": "view",
      "type": "function"
    },
    {
      "inputs": [
        {
          "internalType": "uint256",
          "name": "round",
          "type": "uint256"
        }
      ],
      "name": "getSellTime",
      "outputs": [
        {
          "internalType": "uint256",
          "name": "",
          "type": "uint256"
        }
      ],
      "stateMutability": "view",
      "type": "function"
    },
    {
      "inputs": [
        {
          "internalType": "address",
          "name": "user",
          "type": "address"
        }
      ],
      "name": "getUserQuotaPreRound",
      "outputs": [
        {
          "internalType": "uint256",
          "name": "",
          "type": "uint256"
        }
      ],
      "stateMutability": "view",
      "type": "function"
    },
    {
      "inputs": [
        {
          "internalType": "address",
          "name": "user",
          "type": "address"
        }
      ],
      "name": "getUserRemainningQuotaPreRound",
      "outputs": [
        {
          "internalType": "uint256",
          "name": "",
          "type": "uint256"
        }
      ],
      "stateMutability": "view",
      "type": "function"
    },
    {
      "inputs": [
        {
          "internalType": "uint256",
          "name": "_maxMintSupply",
          "type": "uint256"
        },
        {
          "internalType": "address",
          "name": "_bibContract",
          "type": "address"
        },
        {
          "internalType": "address",
          "name": "_busdContract",
          "type": "address"
        },
        {
          "internalType": "address",
          "name": "_treasury",
          "type": "address"
        },
        {
          "internalType": "address",
          "name": "_router",
          "type": "address"
        }
      ],
      "name": "initialize",
      "outputs": [],
      "stateMutability": "nonpayable",
      "type": "function"
    },
    {
      "inputs": [
        {
          "internalType": "address",
          "name": "owner",
          "type": "address"
        },
        {
          "internalType": "address",
          "name": "operator",
          "type": "address"
        }
      ],
      "name": "isApprovedForAll",
      "outputs": [
        {
          "internalType": "bool",
          "name": "",
          "type": "bool"
        }
      ],
      "stateMutability": "view",
      "type": "function"
    },
    {
      "inputs": [
        {
          "internalType": "uint256",
          "name": "",
          "type": "uint256"
        }
      ],
      "name": "isOwnerMint",
      "outputs": [
        {
          "internalType": "bool",
          "name": "",
          "type": "bool"
        }
      ],
      "stateMutability": "view",
      "type": "function"
    },
    {
      "inputs": [
        {
          "internalType": "uint256",
          "name": "round",
          "type": "uint256"
        }
      ],
      "name": "isPublicRound",
      "outputs": [
        {
          "internalType": "bool",
          "name": "",
          "type": "bool"
        }
      ],
      "stateMutability": "pure",
      "type": "function"
    },
    {
      "inputs": [
        {
          "internalType": "uint256",
          "name": "round",
          "type": "uint256"
        }
      ],
      "name": "isRoundOpen",
      "outputs": [
        {
          "internalType": "bool",
          "name": "",
          "type": "bool"
        }
      ],
      "stateMutability": "view",
      "type": "function"
    },
    {
      "inputs": [
        {
          "internalType": "uint256",
          "name": "",
          "type": "uint256"
        },
        {
          "internalType": "enum ISoccerStarNft.BlindBoxesType",
          "name": "",
          "type": "uint8"
        }
      ],
      "name": "maxAmountTb",
      "outputs": [
        {
          "internalType": "uint256",
          "name": "",
          "type": "uint256"
        }
      ],
      "stateMutability": "view",
      "type": "function"
    },
    {
      "inputs": [],
      "name": "maxMintSupply",
      "outputs": [
        {
          "internalType": "uint256",
          "name": "",
          "type": "uint256"
        }
      ],
      "stateMutability": "view",
      "type": "function"
    },
    {
      "inputs": [],
      "name": "maxPubicsaleUserMintAmount",
      "outputs": [
        {
          "internalType": "uint256",
          "name": "",
          "type": "uint256"
        }
      ],
      "stateMutability": "view",
      "type": "function"
    },
    {
      "inputs": [
        {
          "internalType": "address",
          "name": "",
          "type": "address"
        },
        {
          "internalType": "uint256",
          "name": "",
          "type": "uint256"
        }
      ],
      "name": "mintAmountPerAddrTb",
      "outputs": [
        {
          "internalType": "uint256",
          "name": "",
          "type": "uint256"
        }
      ],
      "stateMutability": "view",
      "type": "function"
    },
    {
      "inputs": [
        {
          "internalType": "uint256",
          "name": "",
          "type": "uint256"
        },
        {
          "internalType": "enum ISoccerStarNft.BlindBoxesType",
          "name": "",
          "type": "uint8"
        }
      ],
      "name": "mintAmountTb",
      "outputs": [
        {
          "internalType": "uint256",
          "name": "",
          "type": "uint256"
        }
      ],
      "stateMutability": "view",
      "type": "function"
    },
    {
      "inputs": [
        {
          "internalType": "uint256",
          "name": "",
          "type": "uint256"
        },
        {
          "internalType": "enum ISoccerStarNft.BlindBoxesType",
          "name": "",
          "type": "uint8"
        }
      ],
      "name": "mintPriceTb",
      "outputs": [
        {
          "internalType": "uint256",
          "name": "",
          "type": "uint256"
        }
      ],
      "stateMutability": "view",
      "type": "function"
    },
    {
      "inputs": [],
      "name": "name",
      "outputs": [
        {
          "internalType": "string",
          "name": "",
          "type": "string"
        }
      ],
      "stateMutability": "view",
      "type": "function"
    },
    {
      "inputs": [],
      "name": "notRevealedURI",
      "outputs": [
        {
          "internalType": "string",
          "name": "",
          "type": "string"
        }
      ],
      "stateMutability": "view",
      "type": "function"
    },
    {
      "inputs": [],
      "name": "owner",
      "outputs": [
        {
          "internalType": "address",
          "name": "",
          "type": "address"
        }
      ],
      "stateMutability": "view",
      "type": "function"
    },
    {
      "inputs": [
        {
          "internalType": "uint256",
          "name": "quantity",
          "type": "uint256"
        }
      ],
      "name": "ownerMint",
      "outputs": [],
      "stateMutability": "nonpayable",
      "type": "function"
    },
    {
      "inputs": [
        {
          "internalType": "uint256",
          "name": "tokenId",
          "type": "uint256"
        }
      ],
      "name": "ownerOf",
      "outputs": [
        {
          "internalType": "address",
          "name": "",
          "type": "address"
        }
      ],
      "stateMutability": "view",
      "type": "function"
    },
    {
      "inputs": [],
      "name": "paused",
      "outputs": [
        {
          "internalType": "bool",
          "name": "",
          "type": "bool"
        }
      ],
      "stateMutability": "view",
      "type": "function"
    },
    {
      "inputs": [
        {
          "internalType": "uint256",
          "name": "quantity",
          "type": "uint256"
        }
      ],
      "name": "preSellMint",
      "outputs": [],
      "stateMutability": "payable",
      "type": "function"
    },
    {
      "inputs": [
        {
          "internalType": "uint256",
          "name": "tokenId",
          "type": "uint256"
        },
        {
          "components": [
            {
              "internalType": "string",
              "name": "name",
              "type": "string"
            },
            {
              "internalType": "string",
              "name": "country",
              "type": "string"
            },
            {
              "internalType": "string",
              "name": "position",
              "type": "string"
            },
            {
              "internalType": "uint256",
              "name": "starLevel",
              "type": "uint256"
            },
            {
              "internalType": "uint256",
              "name": "gradient",
              "type": "uint256"
            }
          ],
          "internalType": "struct ISoccerStarNft.SoccerStar",
          "name": "soccerStar",
          "type": "tuple"
        }
      ],
      "name": "protocolBind",
      "outputs": [],
      "stateMutability": "nonpayable",
      "type": "function"
    },
    {
      "inputs": [
        {
          "internalType": "uint256",
          "name": "tokenId",
          "type": "uint256"
        }
      ],
      "name": "protocolBurn",
      "outputs": [],
      "stateMutability": "nonpayable",
      "type": "function"
    },
    {
      "inputs": [],
      "name": "protocolMint",
      "outputs": [
        {
          "internalType": "uint256",
          "name": "tokenId",
          "type": "uint256"
        }
      ],
      "stateMutability": "nonpayable",
      "type": "function"
    },
    {
      "inputs": [
        {
          "internalType": "uint256",
          "name": "round",
          "type": "uint256"
        },
        {
          "internalType": "enum ISoccerStarNft.BlindBoxesType",
          "name": "boxType",
          "type": "uint8"
        },
        {
          "internalType": "uint256",
          "name": "quantity",
          "type": "uint256"
        },
        {
          "internalType": "enum ISoccerStarNft.PayMethod",
          "name": "payMethod",
          "type": "uint8"
        }
      ],
      "name": "publicSellMint",
      "outputs": [],
      "stateMutability": "nonpayable",
      "type": "function"
    },
    {
      "inputs": [],
      "name": "renounceOwnership",
      "outputs": [],
      "stateMutability": "nonpayable",
      "type": "function"
    },
    {
      "inputs": [
        {
          "internalType": "bool",
          "name": "_revealed",
          "type": "bool"
        }
      ],
      "name": "reveal",
      "outputs": [],
      "stateMutability": "nonpayable",
      "type": "function"
    },
    {
      "inputs": [],
      "name": "revealed",
      "outputs": [
        {
          "internalType": "bool",
          "name": "",
          "type": "bool"
        }
      ],
      "stateMutability": "view",
      "type": "function"
    },
    {
      "inputs": [],
      "name": "router",
      "outputs": [
        {
          "internalType": "contract IUniswapV2Router02",
          "name": "",
          "type": "address"
        }
      ],
      "stateMutability": "view",
      "type": "function"
    },
    {
      "inputs": [
        {
          "internalType": "address",
          "name": "from",
          "type": "address"
        },
        {
          "internalType": "address",
          "name": "to",
          "type": "address"
        },
        {
          "internalType": "uint256",
          "name": "tokenId",
          "type": "uint256"
        }
      ],
      "name": "safeTransferFrom",
      "outputs": [],
      "stateMutability": "nonpayable",
      "type": "function"
    },
    {
      "inputs": [
        {
          "internalType": "address",
          "name": "from",
          "type": "address"
        },
        {
          "internalType": "address",
          "name": "to",
          "type": "address"
        },
        {
          "internalType": "uint256",
          "name": "tokenId",
          "type": "uint256"
        },
        {
          "internalType": "bytes",
          "name": "_data",
          "type": "bytes"
        }
      ],
      "name": "safeTransferFrom",
      "outputs": [],
      "stateMutability": "nonpayable",
      "type": "function"
    },
    {
      "inputs": [
        {
          "internalType": "address",
          "name": "_protAddr",
          "type": "address"
        },
        {
          "internalType": "bool",
          "name": "value",
          "type": "bool"
        }
      ],
      "name": "setAllowProtocolToCall",
      "outputs": [],
      "stateMutability": "nonpayable",
      "type": "function"
    },
    {
      "inputs": [
        {
          "internalType": "address",
          "name": "_caller",
          "type": "address"
        },
        {
          "internalType": "bool",
          "name": "value",
          "type": "bool"
        }
      ],
      "name": "setAllowToCall",
      "outputs": [],
      "stateMutability": "nonpayable",
      "type": "function"
    },
    {
      "inputs": [
        {
          "internalType": "address",
          "name": "operator",
          "type": "address"
        },
        {
          "internalType": "bool",
          "name": "approved",
          "type": "bool"
        }
      ],
      "name": "setApprovalForAll",
      "outputs": [],
      "stateMutability": "nonpayable",
      "type": "function"
    },
    {
      "inputs": [
        {
          "internalType": "address",
          "name": "_bibContract",
          "type": "address"
        }
      ],
      "name": "setBIBContract",
      "outputs": [],
      "stateMutability": "nonpayable",
      "type": "function"
    },
    {
      "inputs": [
        {
          "internalType": "address",
          "name": "_busdContract",
          "type": "address"
        }
      ],
      "name": "setBUSDContract",
      "outputs": [],
      "stateMutability": "nonpayable",
      "type": "function"
    },
    {
      "inputs": [
        {
          "internalType": "uint256",
          "name": "round",
          "type": "uint256"
        },
        {
          "internalType": "uint256",
          "name": "quota",
          "type": "uint256"
        }
      ],
      "name": "setBUSDQuotaPerPubRound",
      "outputs": [],
      "stateMutability": "nonpayable",
      "type": "function"
    },
    {
      "inputs": [
        {
          "internalType": "string",
          "name": "uri",
          "type": "string"
        }
      ],
      "name": "setBaseURI",
      "outputs": [],
      "stateMutability": "nonpayable",
      "type": "function"
    },
    {
      "inputs": [
        {
          "internalType": "uint256",
          "name": "_amount",
          "type": "uint256"
        }
      ],
      "name": "setMaxAmountPerAddress",
      "outputs": [],
      "stateMutability": "nonpayable",
      "type": "function"
    },
    {
      "inputs": [
        {
          "internalType": "uint256",
          "name": "round",
          "type": "uint256"
        },
        {
          "internalType": "enum ISoccerStarNft.BlindBoxesType",
          "name": "boxType",
          "type": "uint8"
        },
        {
          "internalType": "uint256",
          "name": "amount",
          "type": "uint256"
        }
      ],
      "name": "setMaxMintAmount",
      "outputs": [],
      "stateMutability": "nonpayable",
      "type": "function"
    },
    {
      "inputs": [
        {
          "internalType": "uint256",
          "name": "_maxMintSupply",
          "type": "uint256"
        }
      ],
      "name": "setMaxMintSupply",
      "outputs": [],
      "stateMutability": "nonpayable",
      "type": "function"
    },
    {
      "inputs": [
        {
          "internalType": "uint256",
          "name": "round",
          "type": "uint256"
        },
        {
          "internalType": "uint256",
          "name": "_mintPrice",
          "type": "uint256"
        },
        {
          "internalType": "enum ISoccerStarNft.BlindBoxesType",
          "name": "boxType",
          "type": "uint8"
        }
      ],
      "name": "setMintPrice",
      "outputs": [],
      "stateMutability": "nonpayable",
      "type": "function"
    },
    {
      "inputs": [
        {
          "internalType": "string",
          "name": "_notRevealedURI",
          "type": "string"
        }
      ],
      "name": "setNotRevealURI",
      "outputs": [],
      "stateMutability": "nonpayable",
      "type": "function"
    },
    {
      "inputs": [
        {
          "internalType": "uint256",
          "name": "round",
          "type": "uint256"
        },
        {
          "internalType": "uint256",
          "name": "_startTime",
          "type": "uint256"
        },
        {
          "internalType": "uint256",
          "name": "_endTime",
          "type": "uint256"
        },
        {
          "internalType": "uint256",
          "name": "_revealTime",
          "type": "uint256"
        }
      ],
      "name": "setSellTime",
      "outputs": [],
      "stateMutability": "nonpayable",
      "type": "function"
    },
    {
      "inputs": [
        {
          "internalType": "address",
          "name": "_router",
          "type": "address"
        }
      ],
      "name": "setSwapRouter",
      "outputs": [],
      "stateMutability": "nonpayable",
      "type": "function"
    },
    {
      "inputs": [
        {
          "internalType": "address",
          "name": "_treasury",
          "type": "address"
        }
      ],
      "name": "setTreasury",
      "outputs": [],
      "stateMutability": "nonpayable",
      "type": "function"
    },
    {
      "inputs": [
        {
          "internalType": "address",
          "name": "user",
          "type": "address"
        },
        {
          "internalType": "uint256",
          "name": "quota",
          "type": "uint256"
        }
      ],
      "name": "setUserQuotaPreRound",
      "outputs": [],
      "stateMutability": "nonpayable",
      "type": "function"
    },
    {
      "inputs": [
        {
          "internalType": "bytes4",
          "name": "interfaceId",
          "type": "bytes4"
        }
      ],
      "name": "supportsInterface",
      "outputs": [
        {
          "internalType": "bool",
          "name": "",
          "type": "bool"
        }
      ],
      "stateMutability": "view",
      "type": "function"
    },
    {
      "inputs": [],
      "name": "symbol",
      "outputs": [
        {
          "internalType": "string",
          "name": "",
          "type": "string"
        }
      ],
      "stateMutability": "view",
      "type": "function"
    },
    {
      "inputs": [
        {
          "internalType": "uint256",
          "name": "",
          "type": "uint256"
        }
      ],
      "name": "timeInfoTb",
      "outputs": [
        {
          "internalType": "uint256",
          "name": "startTime",
          "type": "uint256"
        },
        {
          "internalType": "uint256",
          "name": "endTime",
          "type": "uint256"
        },
        {
          "internalType": "uint256",
          "name": "revealTime",
          "type": "uint256"
        }
      ],
      "stateMutability": "view",
      "type": "function"
    },
    {
      "inputs": [
        {
          "internalType": "uint256",
          "name": "_nftId",
          "type": "uint256"
        }
      ],
      "name": "tokenURI",
      "outputs": [
        {
          "internalType": "string",
          "name": "",
          "type": "string"
        }
      ],
      "stateMutability": "view",
      "type": "function"
    },
    {
      "inputs": [],
      "name": "totalSupply",
      "outputs": [
        {
          "internalType": "uint256",
          "name": "",
          "type": "uint256"
        }
      ],
      "stateMutability": "view",
      "type": "function"
    },
    {
      "inputs": [
        {
          "internalType": "address",
          "name": "from",
          "type": "address"
        },
        {
          "internalType": "address",
          "name": "to",
          "type": "address"
        },
        {
          "internalType": "uint256",
          "name": "tokenId",
          "type": "uint256"
        }
      ],
      "name": "transferFrom",
      "outputs": [],
      "stateMutability": "nonpayable",
      "type": "function"
    },
    {
      "inputs": [
        {
          "internalType": "address",
          "name": "newOwner",
          "type": "address"
        }
      ],
      "name": "transferOwnership",
      "outputs": [],
      "stateMutability": "nonpayable",
      "type": "function"
    },
    {
      "inputs": [],
      "name": "treasury",
      "outputs": [
        {
          "internalType": "address",
          "name": "",
          "type": "address"
        }
      ],
      "stateMutability": "view",
      "type": "function"
    },
    {
      "inputs": [
        {
          "internalType": "uint256[]",
          "name": "tokenIds",
          "type": "uint256[]"
        },
        {
          "components": [
            {
              "internalType": "string",
              "name": "name",
              "type": "string"
            },
            {
              "internalType": "string",
              "name": "country",
              "type": "string"
            },
            {
              "internalType": "string",
              "name": "position",
              "type": "string"
            },
            {
              "internalType": "uint256",
              "name": "starLevel",
              "type": "uint256"
            },
            {
              "internalType": "uint256",
              "name": "gradient",
              "type": "uint256"
            }
          ],
          "internalType": "struct ISoccerStarNft.SoccerStar[]",
          "name": "_soccerStars",
          "type": "tuple[]"
        }
      ],
      "name": "updateProperty",
      "outputs": [],
      "stateMutability": "nonpayable",
      "type": "function"
    },
    {
      "inputs": [
        {
          "internalType": "uint256",
          "name": "tokenId",
          "type": "uint256"
        },
        {
          "internalType": "uint256",
          "name": "starLevel",
          "type": "uint256"
        }
      ],
      "name": "updateStarlevel",
      "outputs": [],
      "stateMutability": "nonpayable",
      "type": "function"
    },
    {
      "inputs": [
        {
          "internalType": "address",
          "name": "",
          "type": "address"
        }
      ],
      "name": "userQutaPreRoundTb",
      "outputs": [
        {
          "internalType": "uint256",
          "name": "quota",
          "type": "uint256"
        },
        {
          "internalType": "uint256",
          "name": "used",
          "type": "uint256"
        }
      ],
      "stateMutability": "view",
      "type": "function"
    }
  ],
  "bytecode": "0x608060405260a4805460ff191690553480156200001b57600080fd5b50604080518082018252600d81526c14dbd8d8d95c94dd185c93999d609a1b60208083019182528351808501909452600684526529a1a9aa20a960d11b9084015281519192916200006f9160359162000093565b5080516200008590603690602084019062000093565b505060016033555062000176565b828054620000a19062000139565b90600052602060002090601f016020900481019282620000c5576000855562000110565b82601f10620000e057805160ff191683800117855562000110565b8280016001018555821562000110579182015b8281111562000110578251825591602001919060010190620000f3565b506200011e92915062000122565b5090565b5b808211156200011e576000815560010162000123565b600181811c908216806200014e57607f821691505b602082108114156200017057634e487b7160e01b600052602260045260246000fd5b50919050565b61552080620001866000396000f3fe60806040526004361061050d5760003560e01c80637092ebd011610297578063b0e05fb011610165578063df3fdf00116100cc578063f2fde38b11610085578063f2fde38b146110af578063f733f757146110cf578063f7a3031314611100578063f887ea4014611130578063f8c587bb14611150578063fbc8745c1461117057600080fd5b8063df3fdf0014610f9d578063e217f67414610fce578063e985e9c514610fee578063ea54d1a014611037578063f0f442601461106f578063f19e75d41461108f57600080fd5b8063cc18e0911161011e578063cc18e09114610f0a578063cecaa8c814610e9f578063cf9d101c14610f2a578063d11fafb514610f4a578063d18e81b314610f6a578063de0a445614610f7d57600080fd5b8063b0e05fb014610e7f578063b1bea4ec14610e6a578063b4ac62c514610e9f578063b88d4fde14610eb4578063c285e10714610ed4578063c87b56dd14610eea57600080fd5b80638da5cb5b116102095780639c0d313f116101c25780639c0d313f14610dd9578063a068ed9f14610df5578063a0c3e9bf14610e0a578063a22cb46514610e2a578063a2ed14d514610e4a578063adc6764814610e6a57600080fd5b80638da5cb5b14610d30578063909c40f314610d4e578063940cd05b14610d6457806395d89b4114610d84578063970f07a514610d99578063975efa6d14610db957600080fd5b806379bc229f1161025b57806379bc229f14610c3d5780637ae6d74114610c735780638019566514610c935780638052f5eb14610cc3578063859f1e9814610ce35780638a10705c14610d0357600080fd5b80637092ebd014610bb357806370a0823114610bd3578063715018a614610bf35780637225038014610c085780637389fbb714610c1d57600080fd5b80633641e083116103df57806355f804b31161034657806361d027b3116102ff57806361d027b314610b0957806362d45f7e14610b295780636352211e14610b49578063648cd83614610b695780636a37441714610b895780636c0360eb14610b9e57600080fd5b806355f804b314610a16578063575022e214610a365780635accac9914610a795780635c018cef14610a995780635c975abb14610ab95780635cbaf10e14610ad157600080fd5b806342842e0e1161039857806342842e0e1461097257806344aa46e51461099257806351830227146109b257806352419147146109cc57806352fe811e146109ec57806355eda4e814610a0157600080fd5b80633641e0831461086757806336a9b90f14610887578063371a4494146108bb5780633de5ed73146108db578063409814a714610932578063412736571461095257600080fd5b806318160ddd1161048357806325cad7a31161043c57806325cad7a31461078d57806326400503146107ad57806326452881146107e55780632903187e1461081d5780632dd585af14610832578063355165601461084757600080fd5b806318160ddd146106a55780631dbe18ca146106c25780631ff8f730146106d757806321f1ed0e1461070457806323b872dd1461074d5780632529b9e91461076d57600080fd5b80630afdd4e9116104d55780630afdd4e9146105d65780630d4870ba1461060657806310cc6bb91461062657806311b65bcc14610646578063140fa8b214610665578063153bf53a1461068557600080fd5b806301ffc9a714610512578063027c8f9c1461054757806306fdde031461055c578063081812fc1461057e578063095ea7b3146105b6575b600080fd5b34801561051e57600080fd5b5061053261052d366004614774565b611190565b60405190151581526020015b60405180910390f35b61055a610555366004614791565b6111e2565b005b34801561056857600080fd5b5061057161148f565b60405161053e9190614802565b34801561058a57600080fd5b5061059e610599366004614791565b611521565b6040516001600160a01b03909116815260200161053e565b3480156105c257600080fd5b5061055a6105d136600461482a565b611565565b3480156105e257600080fd5b506105326105f1366004614856565b60af6020526000908152604090205460ff1681565b34801561061257600080fd5b5061055a610621366004614881565b6115f3565b34801561063257600080fd5b50609f5461059e906001600160a01b031681565b34801561065257600080fd5b5060a7545b60405190815260200161053e565b34801561067157600080fd5b50610532610680366004614791565b611626565b34801561069157600080fd5b5061055a6106a0366004614791565b611650565b3480156106b157600080fd5b506034546033540360001901610657565b3480156106ce57600080fd5b50610657600181565b3480156106e357600080fd5b506106f76106f2366004614791565b611755565b60405161053e91906148ba565b34801561071057600080fd5b5061073861071f366004614856565b60b2602052600090815260409020805460019091015482565b6040805192835260208301919091520161053e565b34801561075957600080fd5b5061055a610768366004614933565b611970565b34801561077957600080fd5b50610657610788366004614791565b61197b565b34801561079957600080fd5b506106576107a8366004614988565b6119b5565b3480156107b957600080fd5b506106576107c8366004614988565b60aa60209081526000928352604080842090915290825290205481565b3480156107f157600080fd5b50610657610800366004614988565b60ac60209081526000928352604080842090915290825290205481565b34801561082957600080fd5b50610657600081565b34801561083e57600080fd5b50610657611a4f565b34801561085357600080fd5b5061055a610862366004614bce565b611af0565b34801561087357600080fd5b5061055a610882366004614ca2565b611cb8565b34801561089357600080fd5b506107386108a2366004614791565b60b1602052600090815260409020805460019091015482565b3480156108c757600080fd5b5061055a6108d636600461482a565b611e70565b3480156108e757600080fd5b506109176108f6366004614791565b60ae6020526000908152604090208054600182015460029092015490919083565b6040805193845260208401929092529082015260600161053e565b34801561093e57600080fd5b5061055a61094d366004614791565b611ed0565b34801561095e57600080fd5b5061055a61096d366004614856565b611f19565b34801561097e57600080fd5b5061055a61098d366004614933565b611fb0565b34801561099e57600080fd5b5061055a6109ad366004614881565b611fcb565b3480156109be57600080fd5b5060a4546105329060ff1681565b3480156109d857600080fd5b5061055a6109e7366004614856565b611ffe565b3480156109f857600080fd5b5060a554610657565b348015610a0d57600080fd5b5061059e600181565b348015610a2257600080fd5b5061055a610a31366004614d0a565b612095565b348015610a4257600080fd5b50610657610a5136600461482a565b6001600160a01b0391909116600090815260ad60209081526040808320938352929052205490565b348015610a8557600080fd5b5061055a610a94366004614d0a565b6120f0565b348015610aa557600080fd5b50610657610ab4366004614988565b61210b565b348015610ac557600080fd5b50606d5460ff16610532565b348015610add57600080fd5b50610657610aec36600461482a565b60ad60209081526000928352604080842090915290825290205481565b348015610b1557600080fd5b5060a65461059e906001600160a01b031681565b348015610b3557600080fd5b5061055a610b44366004614d3e565b612154565b348015610b5557600080fd5b5061059e610b64366004614791565b6122b1565b348015610b7557600080fd5b5061055a610b84366004614d84565b6122c3565b348015610b9557600080fd5b50610657600381565b348015610baa57600080fd5b506105716123c2565b348015610bbf57600080fd5b50610657610bce366004614791565b612450565b348015610bdf57600080fd5b50610657610bee366004614856565b61256c565b348015610bff57600080fd5b5061055a6125ba565b348015610c1457600080fd5b506105716125ce565b348015610c2957600080fd5b5061055a610c38366004614791565b6125db565b348015610c4957600080fd5b50610657610c58366004614856565b6001600160a01b0316600090815260b2602052604090205490565b348015610c7f57600080fd5b5061055a610c8e366004614e3b565b612624565b348015610c9f57600080fd5b50610532610cae366004614856565b60b06020526000908152604090205460ff1681565b348015610ccf57600080fd5b5061055a610cde366004614e5d565b612755565b348015610cef57600080fd5b5061055a610cfe366004614e92565b612822565b348015610d0f57600080fd5b50610657610d1e366004614791565b600090815260ae602052604090205490565b348015610d3c57600080fd5b50603b546001600160a01b031661059e565b348015610d5a57600080fd5b5061065760a75481565b348015610d7057600080fd5b5061055a610d7f366004614ec7565b612888565b348015610d9057600080fd5b506105716128df565b348015610da557600080fd5b50610657610db4366004614856565b6128ee565b348015610dc557600080fd5b50610657610dd4366004614988565b612916565b348015610de557600080fd5b50610657670de0b6b3a764000081565b348015610e0157600080fd5b50610657600281565b348015610e1657600080fd5b50610532610e25366004614791565b612937565b348015610e3657600080fd5b5061055a610e45366004614881565b61294d565b348015610e5657600080fd5b50610657610e65366004614791565b6129e3565b348015610e7657600080fd5b50610657600481565b348015610e8b57600080fd5b5061055a610e9a366004614ee4565b612ab8565b348015610eab57600080fd5b50610657600581565b348015610ec057600080fd5b5061055a610ecf366004614f16565b612c3f565b348015610ee057600080fd5b5061065760a55481565b348015610ef657600080fd5b50610571610f05366004614791565b612c90565b348015610f1657600080fd5b50610657610f25366004614791565b612dfd565b348015610f3657600080fd5b5060a05461059e906001600160a01b031681565b348015610f5657600080fd5b5061055a610f65366004614e3b565b612e3a565b348015610f7657600080fd5b5042610657565b348015610f8957600080fd5b50610657610f98366004614791565b612eb5565b348015610fa957600080fd5b5061057160405180604001604052806005815260200164173539b7b760d91b81525081565b348015610fda57600080fd5b5061055a610fe9366004614856565b612efa565b348015610ffa57600080fd5b50610532611009366004614f95565b6001600160a01b039182166000908152603a6020908152604080832093909416825291909152205460ff1690565b34801561104357600080fd5b50610657611052366004614988565b60ab60209081526000928352604080842090915290825290205481565b34801561107b57600080fd5b5061055a61108a366004614856565b612f91565b34801561109b57600080fd5b5061055a6110aa366004614791565b613028565b3480156110bb57600080fd5b5061055a6110ca366004614856565b613145565b3480156110db57600080fd5b506110ef6110ea366004614791565b6131bb565b60405161053e959493929190614fc3565b34801561110c57600080fd5b5061053261111b366004614791565b60a86020526000908152604090205460ff1681565b34801561113c57600080fd5b5060a15461059e906001600160a01b031681565b34801561115c57600080fd5b5061055a61116b366004615011565b613381565b34801561117c57600080fd5b5061065761118b366004614791565b613813565b60006001600160e01b031982166380ac58cd60e01b14806111c157506001600160e01b03198216635b5e139f60e01b145b806111dc57506301ffc9a760e01b6001600160e01b03198316145b92915050565b6111ea6139b0565b6111f46000611626565b6112455760405162461bcd60e51b815260206004820152601960248201527f5052455f53454c4c5f524f554e445f4e4f545f4f50454e45440000000000000060448201526064015b60405180910390fd5b8061124f336128ee565b10156112915760405162461bcd60e51b8152602060048201526011602482015270555345525f4841535f4e4f5f51554f544160781b604482015260640161123c565b8061129d6000806119b5565b10156112e45760405162461bcd60e51b8152602060048201526016602482015275115610d1515117d3505617d352539517d05353d5539560521b604482015260640161123c565b60006112fb6112f4600080612916565b83906139f6565b609f546040516323b872dd60e01b815233600482015260016024820152604481018390529192506001600160a01b0316906323b872dd906064016020604051808303816000875af1158015611354573d6000803e3d6000fd5b505050506040513d601f19601f82011682018060405250810190611378919061505d565b506113833383613a75565b600080805260ac6020526113e59083907fcb32a14641dfad80670595f3e53f5dc52441fb5380c11f8eebcd755e5b33a3d990805b60038111156113c8576113c861507a565b815260200190815260200160002054613a8f90919063ffffffff16565b7f09229797d18e46ef371f534769daa7516611a2d3b4fa6e78d367241116f4c6175533600090815260b260205260409020600101546114249083613a8f565b33600081815260b260205260408120600101929092556033547fc3fb2a814f4ed737299948f9983d52e3c4509065f63356f43472d5033d3b85ca9290819061146c9087613aee565b8660008760405161148397969594939291906150b4565b60405180910390a15050565b60606035805461149e90615103565b80601f01602080910402602001604051908101604052809291908181526020018280546114ca90615103565b80156115175780601f106114ec57610100808354040283529160200191611517565b820191906000526020600020905b8154815290600101906020018083116114fa57829003601f168201915b5050505050905090565b600061152c82613b30565b611549576040516333d1c03960e21b815260040160405180910390fd5b506000908152603960205260409020546001600160a01b031690565b6000611570826122b1565b9050806001600160a01b0316836001600160a01b031614156115a55760405163250fdee360e21b815260040160405180910390fd5b336001600160a01b038216148015906115c557506115c38133611009565b155b156115e3576040516367d9dca160e11b815260040160405180910390fd5b6115ee838383613b69565b505050565b6115fb613bc5565b6001600160a01b0391909116600090815260b060205260409020805460ff1916911515919091179055565b600081815260ae6020526040812080544210158015611649575060018101544211155b9392505050565b33600090815260af602052604090205460ff1661167f5760405162461bcd60e51b815260040161123c9061513e565b611688816122b1565b6001600160a01b0316336001600160a01b0316146116e85760405162461bcd60e51b815260206004820152601b60248201527f544f4b454e5f4e4f545f42454c4c4f4e475f544f5f43414c4c45520000000000604482015260640161123c565b6116f181613c1f565b6116fa816122b1565b6001600160a01b0316336001600160a01b031614156117525760405162461bcd60e51b8152602060048201526014602482015273141493d513d0d3d317d094955397d1905253115160621b604482015260640161123c565b50565b6117876040518060a0016040528060608152602001606081526020016060815260200160008152602001600081525090565b600082815260a9602052604090819020815160a081019092528054829082906117af90615103565b80601f01602080910402602001604051908101604052809291908181526020018280546117db90615103565b80156118285780601f106117fd57610100808354040283529160200191611828565b820191906000526020600020905b81548152906001019060200180831161180b57829003601f168201915b5050505050815260200160018201805461184190615103565b80601f016020809104026020016040519081016040528092919081815260200182805461186d90615103565b80156118ba5780601f1061188f576101008083540402835291602001916118ba565b820191906000526020600020905b81548152906001019060200180831161189d57829003601f168201915b505050505081526020016002820180546118d390615103565b80601f01602080910402602001604051908101604052809291908181526020018280546118ff90615103565b801561194c5780601f106119215761010080835404028352916020019161194c565b820191906000526020600020905b81548152906001019060200180831161192f57829003601f168201915b50505050508152602001600382015481526020016004820154815250509050919050565b6115ee838383613c2a565b600061198682612937565b6119a25760405162461bcd60e51b815260040161123c9061516a565b50600090815260b1602052604090205490565b600082815260ac6020526040812061164990828460038111156119da576119da61507a565b60038111156119eb576119eb61507a565b81526020019081526020016000205460ab60008681526020019081526020016000206000856003811115611a2157611a2161507a565b6003811115611a3257611a3261507a565b815260200190815260200160002054613aee90919063ffffffff16565b33600090815260af602052604081205460ff16611a7e5760405162461bcd60e51b815260040161123c9061513e565b50603354611a8d336001613e05565b611a96816122b1565b6001600160a01b0316336001600160a01b031614611aed5760405162461bcd60e51b8152602060048201526014602482015273141493d513d0d3d317d352539517d1905253115160621b604482015260640161123c565b90565b33600090815260b0602052604090205460ff1680611b185750603b546001600160a01b031633145b611b345760405162461bcd60e51b815260040161123c90615194565b8051825114611b785760405162461bcd60e51b815260206004820152601060248201526f09c8a8a88bea6829a8abe988a9c8ea8960831b604482015260640161123c565b60005b81518110156115ee57818181518110611b9657611b966151c0565b602002602001015160a96000858481518110611bb457611bb46151c0565b602002602001015181526020019081526020016000206000820151816000019080519060200190611be69291906146c5565b506020828101518051611bff92600185019201906146c5565b5060408201518051611c1b9160028401916020909101906146c5565b50606082015181600301556080820151816004015590505060a96000848381518110611c4957611c496151c0565b602002602001015181526020019081526020016000206003015460001415611ca65760405162461bcd60e51b815260206004820152601060248201526f494e56414c49445f50524f504552545960801b604482015260640161123c565b80611cb0816151ec565b915050611b7b565b600054600190610100900460ff16158015611cda575060005460ff8083169116105b611d3d5760405162461bcd60e51b815260206004820152602e60248201527f496e697469616c697a61626c653a20636f6e747261637420697320616c72656160448201526d191e481a5b9a5d1a585b1a5e995960921b606482015260840161123c565b6000805461ffff191660ff83161761010017905560a5869055609f80546001600160a01b038088166001600160a01b03199283161790925560a0805487841690831617905560a6805486841690831617905560a1805492851692909116919091179055611da8613f15565b611db0613f44565b60408051808201909152600d8082526c14dbd8d8d95c94dd185c93999d609a1b6020909201918252611de4916035916146c5565b506040805180820190915260068082526529a1a9aa20a960d11b6020909201918252611e12916036916146c5565b50600a60a75560a4805460ff1916905560016033556000805461ff001916905560405160ff821681527f7f26b83ff96e1f2b6a682f133852f6798a09c465da95921460cefb38474024989060200160405180910390a1505050505050565b33600090815260b0602052604090205460ff1680611e985750603b546001600160a01b031633145b611eb45760405162461bcd60e51b815260040161123c90615194565b6001600160a01b03909116600090815260b26020526040902055565b33600090815260b0602052604090205460ff1680611ef85750603b546001600160a01b031633145b611f145760405162461bcd60e51b815260040161123c90615194565b60a755565b611f21613bc5565b6001600160a01b038116611f475760405162461bcd60e51b815260040161123c90615207565b60a1546040517f183f98025cbbac2e9f8c6153c73ddf04d9fa1536073f40a880193842cd6e88fd91611f869133916001600160a01b031690859061522f565b60405180910390a160a180546001600160a01b0319166001600160a01b0392909216919091179055565b6115ee83838360405180602001604052806000815250612c3f565b611fd3613bc5565b6001600160a01b0391909116600090815260af60205260409020805460ff1916911515919091179055565b612006613bc5565b6001600160a01b03811661202c5760405162461bcd60e51b815260040161123c90615207565b60a0546040517f6aca743edeb4e0ea2946d2ebfd5a2328eca6b0f0250566cf6003c1724aef33779161206b9133916001600160a01b031690859061522f565b60405180910390a160a080546001600160a01b0319166001600160a01b0392909216919091179055565b33600090815260b0602052604090205460ff16806120bd5750603b546001600160a01b031633145b6120d95760405162461bcd60e51b815260040161123c90615194565b80516120ec9060a29060208401906146c5565b5050565b6120f8613bc5565b80516120ec9060a39060208401906146c5565b600082815260ab602052604081208183600381111561212c5761212c61507a565b600381111561213d5761213d61507a565b815260200190815260200160002054905092915050565b33600090815260af602052604090205460ff166121835760405162461bcd60e51b815260040161123c9061513e565b61218c826122b1565b6001600160a01b0316336001600160a01b0316146121ec5760405162461bcd60e51b815260206004820152601b60248201527f544f4b454e5f4e4f545f42454c4c4f4e475f544f5f43414c4c45520000000000604482015260640161123c565b600082815260a960205260409020600301541561223c5760405162461bcd60e51b815260206004820152600e60248201526d1513d2d15397d49155915053115160921b604482015260640161123c565b600082815260a9602090815260409091208251805184936122619284929101906146c5565b50602082810151805161227a92600185019201906146c5565b50604082015180516122969160028401916020909101906146c5565b50606082015160038201556080909101516004909101555050565b60006122bc82613f73565b5192915050565b33600090815260b0602052604090205460ff16806122eb5750603b546001600160a01b031633145b6123075760405162461bcd60e51b815260040161123c90615194565b80518251146123505760405162461bcd60e51b81526020600482015260156024820152740a6909eaa9888be848abea6829a8abe988a9c8ea89605b1b604482015260640161123c565b60005b82518110156115ee5781818151811061236e5761236e6151c0565b602002602001015160b2600085848151811061238c5761238c6151c0565b6020908102919091018101516001600160a01b0316825281019190915260400160002055806123ba816151ec565b915050612353565b60a280546123cf90615103565b80601f01602080910402602001604051908101604052809291908181526020018280546123fb90615103565b80156124485780601f1061241d57610100808354040283529160200191612448565b820191906000526020600020905b81548152906001019060200180831161242b57829003601f168201915b505050505081565b604080516002808252606082018352600092839291906020830190803683375050609f5482519293506001600160a01b031691839150600090612495576124956151c0565b6001600160a01b03928316602091820292909201015260a0548251911690829060019081106124c6576124c66151c0565b6001600160a01b03928316602091820292909201015260a15460405163d06ca61f60e01b815291169063d06ca61f906125059086908590600401615252565b600060405180830381865afa158015612522573d6000803e3d6000fd5b505050506040513d6000823e601f3d908101601f1916820160405261254a91908101906152a9565b60018151811061255c5761255c6151c0565b6020026020010151915050919050565b60006001600160a01b038216612595576040516323d3ad8160e21b815260040160405180910390fd5b506001600160a01b03166000908152603860205260409020546001600160401b031690565b6125c2613bc5565b6125cc600061409a565b565b60a380546123cf90615103565b33600090815260b0602052604090205460ff16806126035750603b546001600160a01b031633145b61261f5760405162461bcd60e51b815260040161123c90615194565b60a555565b33600090815260af602052604090205460ff166126535760405162461bcd60e51b815260040161123c9061513e565b61265c826122b1565b6001600160a01b03166126a15760405162461bcd60e51b815260206004820152600d60248201526c24a72b20a624a22faa27a5a2a760991b604482015260640161123c565b6000811180156126b2575060048111155b6126ee5760405162461bcd60e51b815260206004820152600d60248201526c24a72b20a624a22faa27a5a2a760991b604482015260640161123c565b600082815260a96020908152604091829020600301548251338152918201529081018290527f503da1e45c649fd5b20f6bb9683e8329e14d245e636a9a83dbcfa8a15f4d387d9060600160405180910390a1600091825260a9602052604090912060030155565b33600090815260b0602052604090205460ff168061277d5750603b546001600160a01b031633145b6127995760405162461bcd60e51b815260040161123c90615194565b60058311156127d95760405162461bcd60e51b815260206004820152600c60248201526b12539593125117d493d5539160a21b604482015260640161123c565b600083815260aa6020526040812083918360038111156127fb576127fb61507a565b600381111561280c5761280c61507a565b8152602081019190915260400160002055505050565b33600090815260b0602052604090205460ff168061284a5750603b546001600160a01b031633145b6128665760405162461bcd60e51b815260040161123c90615194565b600083815260ab6020526040812082918460038111156127fb576127fb61507a565b33600090815260b0602052604090205460ff16806128b05750603b546001600160a01b031633145b6128cc5760405162461bcd60e51b815260040161123c90615194565b60a4805460ff1916911515919091179055565b60606036805461149e90615103565b6001600160a01b038116600090815260b260205260408120600181015490546111dc91613aee565b600082815260aa602052604081208183600381111561212c5761212c61507a565b6000600182101580156111dc5750506005101590565b6001600160a01b0382163314156129775760405163b06307db60e01b815260040160405180910390fd5b336000818152603a602090815260408083206001600160a01b03871680855290835292819020805460ff191686151590811790915590519081529192917f17307eab39ab6107e8899845ad3d59bd9653f200f220920489ca2b5937696c31910160405180910390a35050565b60408051600280825260608201835260009283929190602083019080368337505060a05482519293506001600160a01b031691839150600090612a2857612a286151c0565b6001600160a01b0392831660209182029290920181019190915260a154604080516315ab88c960e31b81529051919093169263ad5c46489260048083019391928290030181865afa158015612a81573d6000803e3d6000fd5b505050506040513d601f19601f82011682018060405250810190612aa59190615339565b816001815181106124c6576124c66151c0565b33600090815260b0602052604090205460ff1680612ae05750603b546001600160a01b031633145b612afc5760405162461bcd60e51b815260040161123c90615194565b6005841115612b3c5760405162461bcd60e51b815260206004820152600c60248201526b12539593125117d493d5539160a21b604482015260640161123c565b42831015612b805760405162461bcd60e51b8152602060048201526011602482015270494e564c49445f53544152545f54494d4560781b604482015260640161123c565b82821015612bc25760405162461bcd60e51b815260206004820152600f60248201526e494e564c49445f454e445f54494d4560881b604482015260640161123c565b81811015612c045760405162461bcd60e51b815260206004820152600f60248201526e494e564c49445f454e445f54494d4560881b604482015260640161123c565b604080516060810182529384526020808501938452848201928352600095865260ae9052909320915182555160018201559051600290910155565b612c4a848484613c2a565b6001600160a01b0383163b15158015612c6c5750612c6a848484846140ec565b155b15612c8a576040516368d2bf6b60e11b815260040160405180910390fd5b50505050565b6060612c9b82613b30565b612ce75760405162461bcd60e51b815260206004820152601760248201527f54686973204e465420646f65736e27742065786973742e000000000000000000604482015260640161123c565b60a45460ff16612d835760a38054612cfe90615103565b80601f0160208091040260200160405190810160405280929190818152602001828054612d2a90615103565b8015612d775780601f10612d4c57610100808354040283529160200191612d77565b820191906000526020600020905b815481529060010190602001808311612d5a57829003601f168201915b50505050509050919050565b6000612d8d6141d5565b90506000815111612dad5760405180602001604052806000815250611649565b80612db7846141e4565b60405180604001604052806005815260200164173539b7b760d91b815250604051602001612de793929190615356565b6040516020818303038152906040529392505050565b6000612e0882612937565b612e245760405162461bcd60e51b815260040161123c9061516a565b50600090815260b1602052604090206001015490565b33600090815260b0602052604090205460ff1680612e625750603b546001600160a01b031633145b612e7e5760405162461bcd60e51b815260040161123c90615194565b612e8782612937565b612ea35760405162461bcd60e51b815260040161123c9061516a565b600091825260b1602052604090912055565b6000612ec082612937565b612edc5760405162461bcd60e51b815260040161123c9061516a565b600082815260b160205260409020600181015490546111dc91613aee565b612f02613bc5565b6001600160a01b038116612f285760405162461bcd60e51b815260040161123c90615207565b609f546040517f55263a2c34e1ca945ec24e98ab7634dfbdea3867d19adaac6da2ad9381018d3991612f679133916001600160a01b031690859061522f565b60405180910390a1609f80546001600160a01b0319166001600160a01b0392909216919091179055565b612f99613bc5565b6001600160a01b038116612fbf5760405162461bcd60e51b815260040161123c90615207565b60a6546040517f749a8050935feb73a55ab4641c867c4dacc84430990fcaada1d12ba9072ad02e91612ffe9133916001600160a01b031690859061522f565b60405180910390a160a680546001600160a01b0319166001600160a01b0392909216919091179055565b613030613bc5565b6130386139b0565b60a554816130496033546000190190565b6130539190615399565b11156130965760405162461bcd60e51b815260206004820152601260248201527113505617d4d55414131657d4915050d2115160721b604482015260640161123c565b6130a03382613a75565b6000816033546130b091906153b1565b90505b6033548110156130e857600081815260a860205260409020805460ff19166001179055806130e0816151ec565b9150506130b3565b507fc3fb2a814f4ed737299948f9983d52e3c4509065f63356f43472d5033d3b85ca3360008061312385603354613aee90919063ffffffff16565b8560008060405161313a97969594939291906150b4565b60405180910390a150565b61314d613bc5565b6001600160a01b0381166131b25760405162461bcd60e51b815260206004820152602660248201527f4f776e61626c653a206e6577206f776e657220697320746865207a65726f206160448201526564647265737360d01b606482015260840161123c565b6117528161409a565b60a9602052600090815260409020805481906131d690615103565b80601f016020809104026020016040519081016040528092919081815260200182805461320290615103565b801561324f5780601f106132245761010080835404028352916020019161324f565b820191906000526020600020905b81548152906001019060200180831161323257829003601f168201915b50505050509080600101805461326490615103565b80601f016020809104026020016040519081016040528092919081815260200182805461329090615103565b80156132dd5780601f106132b2576101008083540402835291602001916132dd565b820191906000526020600020905b8154815290600101906020018083116132c057829003601f168201915b5050505050908060020180546132f290615103565b80601f016020809104026020016040519081016040528092919081815260200182805461331e90615103565b801561336b5780601f106133405761010080835404028352916020019161336b565b820191906000526020600020905b81548152906001019060200180831161334e57829003601f168201915b5050505050908060030154908060040154905085565b6133896139b0565b61339284612937565b6133d55760405162461bcd60e51b81526020600482015260146024820152734e4f545f5055424c49435f524f554e445f4e554d60601b604482015260640161123c565b6133de84611626565b61341b5760405162461bcd60e51b815260206004820152600e60248201526d2927aaa7222fa727aa2fa7a822a760911b604482015260640161123c565b600083600381111561342f5761342f61507a565b141561347d5760405162461bcd60e51b815260206004820152601760248201527f50524553414c455f424f585f4e4f545f414c4c4f574544000000000000000000604482015260640161123c565b60a75433600090815260ad602090815260408083208884529091529020546134a59084613a8f565b11156134f35760405162461bcd60e51b815260206004820152601e60248201527f4558434545445f414444524553535f4d41585f4d494e545f414d4f554e540000604482015260640161123c565b816134fe85856119b5565b10156135455760405162461bcd60e51b8152602060048201526016602482015275115610d1515117d3505617d352539517d05353d5539560521b604482015260640161123c565b600061355b6135548686612916565b84906139f6565b905060008260018111156135715761357161507a565b14156135f957609f546040516323b872dd60e01b815233600482015260016024820152604481018390526001600160a01b03909116906323b872dd906064016020604051808303816000875af11580156135cf573d6000803e3d6000fd5b505050506040513d601f19601f820116820180604052508101906135f3919061505d565b50613703565b8261360386612eb5565b10156136495760405162461bcd60e51b81526020600482015260156024820152744558434545445f4d41585f425553445f51554f544160581b604482015260640161123c565b61365281612450565b60a05460a6546040516323b872dd60e01b81523360048201526001600160a01b0391821660248201526044810184905292935016906323b872dd906064016020604051808303816000875af11580156136af573d6000803e3d6000fd5b505050506040513d601f19601f820116820180604052508101906136d3919061505d565b50600085815260b160205260409020600101546136f09084613a8f565b600086815260b160205260409020600101555b61370d3384613a75565b600085815260ac60205260408120613734918591908760038111156113b7576113b761507a565b600086815260ac60205260408120908660038111156137555761375561507a565b60038111156137665761376661507a565b8152602080820192909252604090810160009081209390935533835260ad825280832088845290915290205461379c9084613a8f565b33600081815260ad602090815260408083208a84529091529020919091556033547fc3fb2a814f4ed737299948f9983d52e3c4509065f63356f43472d5033d3b85ca9190879087906137ee9088613aee565b87878760405161380497969594939291906150b4565b60405180910390a15050505050565b6040805160038082526080820190925260009182919060208201606080368337505060a05482519293506001600160a01b031691839150600090613859576138596151c0565b6001600160a01b039283166020918202929092010152609f5482519116908290600190811061388a5761388a6151c0565b6001600160a01b0392831660209182029290920181019190915260a154604080516315ab88c960e31b81529051919093169263ad5c46489260048083019391928290030181865afa1580156138e3573d6000803e3d6000fd5b505050506040513d601f19601f820116820180604052508101906139079190615339565b8160028151811061391a5761391a6151c0565b6001600160a01b03928316602091820292909201015260a15460405163d06ca61f60e01b815291169063d06ca61f906139599086908590600401615252565b600060405180830381865afa158015613976573d6000803e3d6000fd5b505050506040513d6000823e601f3d908101601f1916820160405261399e91908101906152a9565b60028151811061255c5761255c6151c0565b606d5460ff16156125cc5760405162461bcd60e51b815260206004820152601060248201526f14185d5cd8589b194e881c185d5cd95960821b604482015260640161123c565b600082613a05575060006111dc565b6000613a1183856153c8565b905082613a1e85836153fd565b146116495760405162461bcd60e51b815260206004820152602160248201527f536166654d6174683a206d756c7469706c69636174696f6e206f766572666c6f6044820152607760f81b606482015260840161123c565b6120ec8282604051806020016040528060008152506142e1565b600080613a9c8385615399565b9050838110156116495760405162461bcd60e51b815260206004820152601b60248201527f536166654d6174683a206164646974696f6e206f766572666c6f770000000000604482015260640161123c565b600061164983836040518060400160405280601e81526020017f536166654d6174683a207375627472616374696f6e206f766572666c6f770000815250614474565b600081600111158015613b44575060335482105b80156111dc575050600090815260376020526040902054600160e01b900460ff161590565b60008281526039602052604080822080546001600160a01b0319166001600160a01b0387811691821790925591518593918516917f8c5be1e5ebec7d5bd14f71427d1e84f3dd0314c0f7b2291e5b200ac8c7c3b92591a4505050565b603b546001600160a01b031633146125cc5760405162461bcd60e51b815260206004820181905260248201527f4f776e61626c653a2063616c6c6572206973206e6f7420746865206f776e6572604482015260640161123c565b6117528160006144ae565b6000613c3582613f73565b9050836001600160a01b031681600001516001600160a01b031614613c6c5760405162a1148160e81b815260040160405180910390fd5b6000336001600160a01b0386161480613c8a5750613c8a8533611009565b80613ca5575033613c9a84611521565b6001600160a01b0316145b905080613cc557604051632ce44b5f60e11b815260040160405180910390fd5b6001600160a01b038416613cec57604051633a954ecd60e21b815260040160405180910390fd5b613cf860008487613b69565b6001600160a01b038581166000908152603860209081526040808320805467ffffffffffffffff198082166001600160401b0392831660001901831617909255898616808652838620805493841693831660019081018416949094179055898652603790945282852080546001600160e01b031916909417600160a01b42909216919091021783558701808452922080549193909116613dcc576033548214613dcc57805460208601516001600160401b0316600160a01b026001600160e01b03199091166001600160a01b038a16171781555b50505082846001600160a01b0316866001600160a01b03166000805160206154cb83398151915260405160405180910390a45050505050565b6033546001600160a01b038316613e2e57604051622e076360e81b815260040160405180910390fd5b81613e4c5760405163b562e8dd60e01b815260040160405180910390fd5b6001600160a01b038316600081815260386020908152604080832080546001600160801b031981166001600160401b038083168a018116918217600160401b67ffffffffffffffff1990941690921783900481168a01811690920217909155858452603790925290912080546001600160e01b031916909217600160a01b4290921691909102179055808083015b6040516001830192906001600160a01b038716906000906000805160206154cb833981519152908290a480821415613eda5750603355505050565b600054610100900460ff16613f3c5760405162461bcd60e51b815260040161123c90615411565b6125cc614662565b600054610100900460ff16613f6b5760405162461bcd60e51b815260040161123c90615411565b6125cc614695565b60408051606081018252600080825260208201819052918101919091528180600111158015613fa3575060335481105b1561408157600081815260376020908152604091829020825160608101845290546001600160a01b0381168252600160a01b81046001600160401b031692820192909252600160e01b90910460ff1615159181018290529061407f5780516001600160a01b031615614016579392505050565b5060001901600081815260376020908152604091829020825160608101845290546001600160a01b038116808352600160a01b82046001600160401b031693830193909352600160e01b900460ff161515928101929092521561407a579392505050565b614016565b505b604051636f96cda160e11b815260040160405180910390fd5b603b80546001600160a01b038381166001600160a01b0319831681179093556040519116919082907f8be0079c531659141344cd1fd0a4f28419497f9722a3daafe3b4186f6b6457e090600090a35050565b604051630a85bd0160e11b81526000906001600160a01b0385169063150b7a029061412190339089908890889060040161545c565b6020604051808303816000875af192505050801561415c575060408051601f3d908101601f1916820190925261415991810190615499565b60015b6141b7573d80801561418a576040519150601f19603f3d011682016040523d82523d6000602084013e61418f565b606091505b5080516141af576040516368d2bf6b60e11b815260040160405180910390fd5b805181602001fd5b6001600160e01b031916630a85bd0160e11b1490505b949350505050565b606060a2805461149e90615103565b6060816142085750506040805180820190915260018152600360fc1b602082015290565b8160005b8115614232578061421c816151ec565b915061422b9050600a836153fd565b915061420c565b6000816001600160401b0381111561424c5761424c6149b4565b6040519080825280601f01601f191660200182016040528015614276576020820181803683370190505b5090505b84156141cd5761428b6001836153b1565b9150614298600a866154b6565b6142a3906030615399565b60f81b8183815181106142b8576142b86151c0565b60200101906001600160f81b031916908160001a9053506142da600a866153fd565b945061427a565b6033546001600160a01b03841661430a57604051622e076360e81b815260040160405180910390fd5b826143285760405163b562e8dd60e01b815260040160405180910390fd5b6001600160a01b038416600081815260386020908152604080832080546001600160801b031981166001600160401b038083168b018116918217600160401b67ffffffffffffffff1990941690921783900481168b01811690920217909155858452603790925290912080546001600160e01b0319168317600160a01b42909316929092029190911790558190818501903b15614431575b60405182906001600160a01b038816906000906000805160206154cb833981519152908290a46143f960008784806001019550876140ec565b614416576040516368d2bf6b60e11b815260040160405180910390fd5b808214156143c057826033541461442c57600080fd5b614465565b5b6040516001830192906001600160a01b038816906000906000805160206154cb833981519152908290a480821415614432575b50603355612c8a600085838684565b600081848411156144985760405162461bcd60e51b815260040161123c9190614802565b5060006144a584866153b1565b95945050505050565b60006144b983613f73565b8051909150821561451f576000336001600160a01b03831614806144e257506144e28233611009565b806144fd5750336144f286611521565b6001600160a01b0316145b90508061451d57604051632ce44b5f60e11b815260040160405180910390fd5b505b61452b60008583613b69565b6001600160a01b0380821660008181526038602090815260408083208054600160801b6000196001600160401b0380841691909101811667ffffffffffffffff198416811783900482166001908101831690930277ffffffffffffffff0000000000000000ffffffffffffffff19909416179290921783558b86526037909452828520805460ff60e01b1942909316600160a01b026001600160e01b03199091169097179690961716600160e01b17855591890180845292208054919490911661462957603354821461462957805460208701516001600160401b0316600160a01b026001600160e01b03199091166001600160a01b038716171781555b5050604051869250600091506001600160a01b038416906000805160206154cb833981519152908390a450506034805460010190555050565b600054610100900460ff166146895760405162461bcd60e51b815260040161123c90615411565b606d805460ff19169055565b600054610100900460ff166146bc5760405162461bcd60e51b815260040161123c90615411565b6125cc3361409a565b8280546146d190615103565b90600052602060002090601f0160209004810192826146f35760008555614739565b82601f1061470c57805160ff1916838001178555614739565b82800160010185558215614739579182015b8281111561473957825182559160200191906001019061471e565b50614745929150614749565b5090565b5b80821115614745576000815560010161474a565b6001600160e01b03198116811461175257600080fd5b60006020828403121561478657600080fd5b81356116498161475e565b6000602082840312156147a357600080fd5b5035919050565b60005b838110156147c55781810151838201526020016147ad565b83811115612c8a5750506000910152565b600081518084526147ee8160208601602086016147aa565b601f01601f19169290920160200192915050565b60208152600061164960208301846147d6565b6001600160a01b038116811461175257600080fd5b6000806040838503121561483d57600080fd5b823561484881614815565b946020939093013593505050565b60006020828403121561486857600080fd5b813561164981614815565b801515811461175257600080fd5b6000806040838503121561489457600080fd5b823561489f81614815565b915060208301356148af81614873565b809150509250929050565b602081526000825160a060208401526148d660c08401826147d6565b90506020840151601f19808584030160408601526148f483836147d6565b925060408601519150808584030160608601525061491282826147d6565b91505060608401516080840152608084015160a08401528091505092915050565b60008060006060848603121561494857600080fd5b833561495381614815565b9250602084013561496381614815565b929592945050506040919091013590565b80356004811061498357600080fd5b919050565b6000806040838503121561499b57600080fd5b823591506149ab60208401614974565b90509250929050565b634e487b7160e01b600052604160045260246000fd5b60405160a081016001600160401b03811182821017156149ec576149ec6149b4565b60405290565b604051601f8201601f191681016001600160401b0381118282101715614a1a57614a1a6149b4565b604052919050565b60006001600160401b03821115614a3b57614a3b6149b4565b5060051b60200190565b600082601f830112614a5657600080fd5b81356020614a6b614a6683614a22565b6149f2565b82815260059290921b84018101918181019086841115614a8a57600080fd5b8286015b84811015614aa55780358352918301918301614a8e565b509695505050505050565b60006001600160401b03831115614ac957614ac96149b4565b614adc601f8401601f19166020016149f2565b9050828152838383011115614af057600080fd5b828260208301376000602084830101529392505050565b600082601f830112614b1857600080fd5b61164983833560208501614ab0565b600060a08284031215614b3957600080fd5b614b416149ca565b905081356001600160401b0380821115614b5a57600080fd5b614b6685838601614b07565b83526020840135915080821115614b7c57600080fd5b614b8885838601614b07565b60208401526040840135915080821115614ba157600080fd5b50614bae84828501614b07565b604083015250606082013560608201526080820135608082015292915050565b60008060408385031215614be157600080fd5b82356001600160401b0380821115614bf857600080fd5b614c0486838701614a45565b9350602091508185013581811115614c1b57600080fd5b8501601f81018713614c2c57600080fd5b8035614c3a614a6682614a22565b81815260059190911b82018401908481019089831115614c5957600080fd5b8584015b83811015614c9157803586811115614c755760008081fd5b614c838c8983890101614b27565b845250918601918601614c5d565b508096505050505050509250929050565b600080600080600060a08688031215614cba57600080fd5b853594506020860135614ccc81614815565b93506040860135614cdc81614815565b92506060860135614cec81614815565b91506080860135614cfc81614815565b809150509295509295909350565b600060208284031215614d1c57600080fd5b81356001600160401b03811115614d3257600080fd5b6141cd84828501614b07565b60008060408385031215614d5157600080fd5b8235915060208301356001600160401b03811115614d6e57600080fd5b614d7a85828601614b27565b9150509250929050565b60008060408385031215614d9757600080fd5b82356001600160401b0380821115614dae57600080fd5b818501915085601f830112614dc257600080fd5b81356020614dd2614a6683614a22565b82815260059290921b84018101918181019089841115614df157600080fd5b948201945b83861015614e18578535614e0981614815565b82529482019490820190614df6565b96505086013592505080821115614e2e57600080fd5b50614d7a85828601614a45565b60008060408385031215614e4e57600080fd5b50508035926020909101359150565b600080600060608486031215614e7257600080fd5b8335925060208401359150614e8960408501614974565b90509250925092565b600080600060608486031215614ea757600080fd5b83359250614eb760208501614974565b9150604084013590509250925092565b600060208284031215614ed957600080fd5b813561164981614873565b60008060008060808587031215614efa57600080fd5b5050823594602084013594506040840135936060013592509050565b60008060008060808587031215614f2c57600080fd5b8435614f3781614815565b93506020850135614f4781614815565b92506040850135915060608501356001600160401b03811115614f6957600080fd5b8501601f81018713614f7a57600080fd5b614f8987823560208401614ab0565b91505092959194509250565b60008060408385031215614fa857600080fd5b8235614fb381614815565b915060208301356148af81614815565b60a081526000614fd660a08301886147d6565b8281036020840152614fe881886147d6565b90508281036040840152614ffc81876147d6565b60608401959095525050608001529392505050565b6000806000806080858703121561502757600080fd5b8435935061503760208601614974565b92506040850135915060608501356002811061505257600080fd5b939692955090935050565b60006020828403121561506f57600080fd5b815161164981614873565b634e487b7160e01b600052602160045260246000fd5b600481106150a0576150a061507a565b9052565b600281106150a0576150a061507a565b6001600160a01b03881681526020810187905260e081016150d86040830188615090565b8560608301528460808301526150f160a08301856150a4565b8260c083015298975050505050505050565b600181811c9082168061511757607f821691505b6020821081141561513857634e487b7160e01b600052602260045260246000fd5b50919050565b60208082526012908201527113d3931657d41493d513d0d3d317d0d0531360721b604082015260600190565b60208082526010908201526f1393d517d41550931250d7d493d5539160821b604082015260600190565b60208082526012908201527127a7262cafa822a926a4aa2fa1a0a62622a960711b604082015260600190565b634e487b7160e01b600052603260045260246000fd5b634e487b7160e01b600052601160045260246000fd5b6000600019821415615200576152006151d6565b5060010190565b6020808252600e908201526d494e564c49445f4144445245535360901b604082015260600190565b6001600160a01b0393841681529183166020830152909116604082015260600190565b6000604082018483526020604081850152818551808452606086019150828701935060005b8181101561529c5784516001600160a01b031683529383019391830191600101615277565b5090979650505050505050565b600060208083850312156152bc57600080fd5b82516001600160401b038111156152d257600080fd5b8301601f810185136152e357600080fd5b80516152f1614a6682614a22565b81815260059190911b8201830190838101908783111561531057600080fd5b928401925b8284101561532e57835182529284019290840190615315565b979650505050505050565b60006020828403121561534b57600080fd5b815161164981614815565b600084516153688184602089016147aa565b84519083019061537c8183602089016147aa565b845191019061538f8183602088016147aa565b0195945050505050565b600082198211156153ac576153ac6151d6565b500190565b6000828210156153c3576153c36151d6565b500390565b60008160001904831182151516156153e2576153e26151d6565b500290565b634e487b7160e01b600052601260045260246000fd5b60008261540c5761540c6153e7565b500490565b6020808252602b908201527f496e697469616c697a61626c653a20636f6e7472616374206973206e6f74206960408201526a6e697469616c697a696e6760a81b606082015260800190565b6001600160a01b038581168252841660208201526040810183905260806060820181905260009061548f908301846147d6565b9695505050505050565b6000602082840312156154ab57600080fd5b81516116498161475e565b6000826154c5576154c56153e7565b50069056feddf252ad1be2c89b69c2b068fc378daa952ba7f163c4a11628f55a4df523b3efa26469706673582212205c028f6c52b770e965c63b33d663443352ee19b64fcb8c46f2c25736e98032eb64736f6c634300080b0033",
  "linkReferences": {},
  "deployedLinkReferences": {}
}