{
  "_format": "hh-sol-artifact-1",
  "contractName": "SoccerStarNft",
  "sourceName": "contracts/nft/SoccerStarNft.sol",
  "abi": [
    {
      "inputs": [],
      "stateMutability": "nonpayable",
      "type": "constructor"
    },
    {
      "inputs": [],
      "name": "ApprovalCallerNotOwnerNorApproved",
      "type": "error"
    },
    {
      "inputs": [],
      "name": "ApprovalQueryForNonexistentToken",
      "type": "error"
    },
    {
      "inputs": [],
      "name": "ApprovalToCurrentOwner",
      "type": "error"
    },
    {
      "inputs": [],
      "name": "ApproveToCaller",
      "type": "error"
    },
    {
      "inputs": [],
      "name": "BalanceQueryForZeroAddress",
      "type": "error"
    },
    {
      "inputs": [],
      "name": "MintToZeroAddress",
      "type": "error"
    },
    {
      "inputs": [],
      "name": "MintZeroQuantity",
      "type": "error"
    },
    {
      "inputs": [],
      "name": "OwnerQueryForNonexistentToken",
      "type": "error"
    },
    {
      "inputs": [],
      "name": "TransferCallerNotOwnerNorApproved",
      "type": "error"
    },
    {
      "inputs": [],
      "name": "TransferFromIncorrectOwner",
      "type": "error"
    },
    {
      "inputs": [],
      "name": "TransferToNonERC721ReceiverImplementer",
      "type": "error"
    },
    {
      "inputs": [],
      "name": "TransferToZeroAddress",
      "type": "error"
    },
    {
      "anonymous": false,
      "inputs": [
        {
          "indexed": true,
          "internalType": "address",
          "name": "owner",
          "type": "address"
        },
        {
          "indexed": true,
          "internalType": "address",
          "name": "approved",
          "type": "address"
        },
        {
          "indexed": true,
          "internalType": "uint256",
          "name": "tokenId",
          "type": "uint256"
        }
      ],
      "name": "Approval",
      "type": "event"
    },
    {
      "anonymous": false,
      "inputs": [
        {
          "indexed": true,
          "internalType": "address",
          "name": "owner",
          "type": "address"
        },
        {
          "indexed": true,
          "internalType": "address",
          "name": "operator",
          "type": "address"
        },
        {
          "indexed": false,
          "internalType": "bool",
          "name": "approved",
          "type": "bool"
        }
      ],
      "name": "ApprovalForAll",
      "type": "event"
    },
    {
      "anonymous": false,
      "inputs": [
        {
          "indexed": false,
          "internalType": "address",
          "name": "sender",
          "type": "address"
        },
        {
          "indexed": false,
          "internalType": "address",
          "name": "oldValue",
          "type": "address"
        },
        {
          "indexed": false,
          "internalType": "address",
          "name": "newValue",
          "type": "address"
        }
      ],
      "name": "BIBContractChanged",
      "type": "event"
    },
    {
      "anonymous": false,
      "inputs": [
        {
          "indexed": false,
          "internalType": "address",
          "name": "sender",
          "type": "address"
        },
        {
          "indexed": false,
          "internalType": "address",
          "name": "oldValue",
          "type": "address"
        },
        {
          "indexed": false,
          "internalType": "address",
          "name": "newValue",
          "type": "address"
        }
      ],
      "name": "BUSDContractChanged",
      "type": "event"
    },
    {
      "anonymous": false,
      "inputs": [
        {
          "indexed": false,
          "internalType": "address",
          "name": "sender",
          "type": "address"
        },
        {
          "indexed": false,
          "internalType": "uint256",
          "name": "oldValue",
          "type": "uint256"
        },
        {
          "indexed": false,
          "internalType": "uint256",
          "name": "newValue",
          "type": "uint256"
        }
      ],
      "name": "Changed",
      "type": "event"
    },
    {
      "anonymous": false,
      "inputs": [
        {
          "indexed": false,
          "internalType": "address",
          "name": "sender",
          "type": "address"
        },
        {
          "indexed": false,
          "internalType": "address",
          "name": "oldValue",
          "type": "address"
        },
        {
          "indexed": false,
          "internalType": "address",
          "name": "newValue",
          "type": "address"
        }
      ],
      "name": "ComposerChanged",
      "type": "event"
    },
    {
      "anonymous": false,
      "inputs": [
        {
          "indexed": false,
          "internalType": "uint8",
          "name": "version",
          "type": "uint8"
        }
      ],
      "name": "Initialized",
      "type": "event"
    },
    {
      "anonymous": false,
      "inputs": [
        {
          "indexed": false,
          "internalType": "address",
          "name": "newAddress",
          "type": "address"
        },
        {
          "indexed": false,
          "internalType": "uint256",
          "name": "rount",
          "type": "uint256"
        },
        {
          "indexed": false,
          "internalType": "enum ISoccerStarNft.BlindBoxesType",
          "name": "blindBoxes",
          "type": "uint8"
        },
        {
          "indexed": false,
          "internalType": "uint256",
          "name": "tokenIdSt",
          "type": "uint256"
        },
        {
          "indexed": false,
          "internalType": "uint256",
          "name": "quantity",
          "type": "uint256"
        },
        {
          "indexed": false,
          "internalType": "enum ISoccerStarNft.PayMethod",
          "name": "payMethod",
          "type": "uint8"
        },
        {
          "indexed": false,
          "internalType": "uint256",
          "name": "sales",
          "type": "uint256"
        }
      ],
      "name": "Mint",
      "type": "event"
    },
    {
      "anonymous": false,
      "inputs": [
        {
          "indexed": true,
          "internalType": "address",
          "name": "previousOwner",
          "type": "address"
        },
        {
          "indexed": true,
          "internalType": "address",
          "name": "newOwner",
          "type": "address"
        }
      ],
      "name": "OwnershipTransferred",
      "type": "event"
    },
    {
      "anonymous": false,
      "inputs": [
        {
          "indexed": false,
          "internalType": "address",
          "name": "account",
          "type": "address"
        }
      ],
      "name": "Paused",
      "type": "event"
    },
    {
      "anonymous": false,
      "inputs": [
        {
          "indexed": false,
          "internalType": "address",
          "name": "sender",
          "type": "address"
        },
        {
          "indexed": false,
          "internalType": "uint256",
          "name": "oldValue",
          "type": "uint256"
        },
        {
          "indexed": false,
          "internalType": "uint256",
          "name": "newValue",
          "type": "uint256"
        }
      ],
      "name": "SellTimeChanged",
      "type": "event"
    },
    {
      "anonymous": false,
      "inputs": [
        {
          "indexed": false,
          "internalType": "address",
          "name": "sender",
          "type": "address"
        },
        {
          "indexed": false,
          "internalType": "address",
          "name": "oldValue",
          "type": "address"
        },
        {
          "indexed": false,
          "internalType": "address",
          "name": "newValue",
          "type": "address"
        }
      ],
      "name": "SwapRouterChanged",
      "type": "event"
    },
    {
      "anonymous": false,
      "inputs": [
        {
          "indexed": true,
          "internalType": "address",
          "name": "from",
          "type": "address"
        },
        {
          "indexed": true,
          "internalType": "address",
          "name": "to",
          "type": "address"
        },
        {
          "indexed": true,
          "internalType": "uint256",
          "name": "tokenId",
          "type": "uint256"
        }
      ],
      "name": "Transfer",
      "type": "event"
    },
    {
      "anonymous": false,
      "inputs": [
        {
          "indexed": false,
          "internalType": "address",
          "name": "sender",
          "type": "address"
        },
        {
          "indexed": false,
          "internalType": "address",
          "name": "oldValue",
          "type": "address"
        },
        {
          "indexed": false,
          "internalType": "address",
          "name": "newValue",
          "type": "address"
        }
      ],
      "name": "TreasuryChanged",
      "type": "event"
    },
    {
      "anonymous": false,
      "inputs": [
        {
          "indexed": false,
          "internalType": "address",
          "name": "account",
          "type": "address"
        }
      ],
      "name": "Unpaused",
      "type": "event"
    },
    {
      "anonymous": false,
      "inputs": [
        {
          "indexed": false,
          "internalType": "address",
          "name": "sender",
          "type": "address"
        },
        {
          "indexed": false,
          "internalType": "uint256",
          "name": "oldValue",
          "type": "uint256"
        },
        {
          "indexed": false,
          "internalType": "uint256",
          "name": "newValue",
          "type": "uint256"
        }
      ],
      "name": "UpdateStarLevel",
      "type": "event"
    },
    {
      "inputs": [],
      "name": "BASE_EXTENSION",
      "outputs": [
        {
          "internalType": "string",
          "name": "",
          "type": "string"
        }
      ],
      "stateMutability": "view",
      "type": "function"
    },
    {
      "inputs": [],
      "name": "BLACK_HOLE",
      "outputs": [
        {
          "internalType": "address",
          "name": "",
          "type": "address"
        }
      ],
      "stateMutability": "view",
      "type": "function"
    },
    {
      "inputs": [],
      "name": "MAX_PROPERTY_VALUE",
      "outputs": [
        {
          "internalType": "uint256",
          "name": "",
          "type": "uint256"
        }
      ],
      "stateMutability": "view",
      "type": "function"
    },
    {
      "inputs": [],
      "name": "MAX_ROUND",
      "outputs": [
        {
          "internalType": "uint256",
          "name": "",
          "type": "uint256"
        }
      ],
      "stateMutability": "view",
      "type": "function"
    },
    {
      "inputs": [],
      "name": "ORACLE_PRECISION",
      "outputs": [
        {
          "internalType": "uint256",
          "name": "",
          "type": "uint256"
        }
      ],
      "stateMutability": "view",
      "type": "function"
    },
    {
      "inputs": [],
      "name": "PRE_SELL_ROUND",
      "outputs": [
        {
          "internalType": "uint256",
          "name": "",
          "type": "uint256"
        }
      ],
      "stateMutability": "view",
      "type": "function"
    },
    {
      "inputs": [],
      "name": "PUB_SELL_ROUND1",
      "outputs": [
        {
          "internalType": "uint256",
          "name": "",
          "type": "uint256"
        }
      ],
      "stateMutability": "view",
      "type": "function"
    },
    {
      "inputs": [],
      "name": "PUB_SELL_ROUND2",
      "outputs": [
        {
          "internalType": "uint256",
          "name": "",
          "type": "uint256"
        }
      ],
      "stateMutability": "view",
      "type": "function"
    },
    {
      "inputs": [],
      "name": "PUB_SELL_ROUND3",
      "outputs": [
        {
          "internalType": "uint256",
          "name": "",
          "type": "uint256"
        }
      ],
      "stateMutability": "view",
      "type": "function"
    },
    {
      "inputs": [],
      "name": "PUB_SELL_ROUND4",
      "outputs": [
        {
          "internalType": "uint256",
          "name": "",
          "type": "uint256"
        }
      ],
      "stateMutability": "view",
      "type": "function"
    },
    {
      "inputs": [],
      "name": "PUB_SELL_ROUND5",
      "outputs": [
        {
          "internalType": "uint256",
          "name": "",
          "type": "uint256"
        }
      ],
      "stateMutability": "view",
      "type": "function"
    },
    {
      "inputs": [
        {
          "internalType": "address[]",
          "name": "users",
          "type": "address[]"
        },
        {
          "internalType": "uint256[]",
          "name": "quotas",
          "type": "uint256[]"
        }
      ],
      "name": "addUserQuotaPreRoundBatch",
      "outputs": [],
      "stateMutability": "nonpayable",
      "type": "function"
    },
    {
      "inputs": [
        {
          "internalType": "address",
          "name": "",
          "type": "address"
        }
      ],
      "name": "allowProtocolToCallTb",
      "outputs": [
        {
          "internalType": "bool",
          "name": "",
          "type": "bool"
        }
      ],
      "stateMutability": "view",
      "type": "function"
    },
    {
      "inputs": [
        {
          "internalType": "address",
          "name": "",
          "type": "address"
        }
      ],
      "name": "allowToCallTb",
      "outputs": [
        {
          "internalType": "bool",
          "name": "",
          "type": "bool"
        }
      ],
      "stateMutability": "view",
      "type": "function"
    },
    {
      "inputs": [
        {
          "internalType": "address",
          "name": "to",
          "type": "address"
        },
        {
          "internalType": "uint256",
          "name": "tokenId",
          "type": "uint256"
        }
      ],
      "name": "approve",
      "outputs": [],
      "stateMutability": "nonpayable",
      "type": "function"
    },
    {
      "inputs": [
        {
          "internalType": "address",
          "name": "owner",
          "type": "address"
        }
      ],
      "name": "balanceOf",
      "outputs": [
        {
          "internalType": "uint256",
          "name": "",
          "type": "uint256"
        }
      ],
      "stateMutability": "view",
      "type": "function"
    },
    {
      "inputs": [],
      "name": "baseURI",
      "outputs": [
        {
          "internalType": "string",
          "name": "",
          "type": "string"
        }
      ],
      "stateMutability": "view",
      "type": "function"
    },
    {
      "inputs": [],
      "name": "bibContract",
      "outputs": [
        {
          "internalType": "contract IERC20",
          "name": "",
          "type": "address"
        }
      ],
      "stateMutability": "view",
      "type": "function"
    },
    {
      "inputs": [],
      "name": "busdContract",
      "outputs": [
        {
          "internalType": "contract IERC20",
          "name": "",
          "type": "address"
        }
      ],
      "stateMutability": "view",
      "type": "function"
    },
    {
      "inputs": [
        {
          "internalType": "uint256",
          "name": "",
          "type": "uint256"
        }
      ],
      "name": "busdQuotaPerPubRoundTb",
      "outputs": [
        {
          "internalType": "uint256",
          "name": "quota",
          "type": "uint256"
        },
        {
          "internalType": "uint256",
          "name": "used",
          "type": "uint256"
        }
      ],
      "stateMutability": "view",
      "type": "function"
    },
    {
      "inputs": [
        {
          "internalType": "uint256",
          "name": "amount",
          "type": "uint256"
        }
      ],
      "name": "caculateBNBBUSDDirect",
      "outputs": [
        {
          "internalType": "uint256",
          "name": "",
          "type": "uint256"
        }
      ],
      "stateMutability": "view",
      "type": "function"
    },
    {
      "inputs": [
        {
          "internalType": "uint256",
          "name": "amount",
          "type": "uint256"
        }
      ],
      "name": "caculateBNBBUSDViaBIB",
      "outputs": [
        {
          "internalType": "uint256",
          "name": "",
          "type": "uint256"
        }
      ],
      "stateMutability": "view",
      "type": "function"
    },
    {
      "inputs": [
        {
          "internalType": "uint256",
          "name": "bibAmount",
          "type": "uint256"
        }
      ],
      "name": "caculateBUSDAmount",
      "outputs": [
        {
          "internalType": "uint256",
          "name": "",
          "type": "uint256"
        }
      ],
      "stateMutability": "view",
      "type": "function"
    },
    {
      "inputs": [
        {
          "internalType": "uint256",
          "name": "",
          "type": "uint256"
        }
      ],
      "name": "cardProperty",
      "outputs": [
        {
          "internalType": "string",
          "name": "name",
          "type": "string"
        },
        {
          "internalType": "string",
          "name": "country",
          "type": "string"
        },
        {
          "internalType": "string",
          "name": "position",
          "type": "string"
        },
        {
          "internalType": "uint256",
          "name": "starLevel",
          "type": "uint256"
        },
        {
          "internalType": "uint256",
          "name": "gradient",
          "type": "uint256"
        }
      ],
      "stateMutability": "view",
      "type": "function"
    },
    {
      "inputs": [],
      "name": "currentTime",
      "outputs": [
        {
          "internalType": "uint256",
          "name": "",
          "type": "uint256"
        }
      ],
      "stateMutability": "view",
      "type": "function"
    },
    {
      "inputs": [
        {
          "internalType": "uint256",
          "name": "tokenId",
          "type": "uint256"
        }
      ],
      "name": "getApproved",
      "outputs": [
        {
          "internalType": "address",
          "name": "",
          "type": "address"
        }
      ],
      "stateMutability": "view",
      "type": "function"
    },
    {
      "inputs": [
        {
          "internalType": "uint256",
          "name": "round",
          "type": "uint256"
        }
      ],
      "name": "getBUSDQuotaPerPubRound",
      "outputs": [
        {
          "internalType": "uint256",
          "name": "",
          "type": "uint256"
        }
      ],
      "stateMutability": "view",
      "type": "function"
    },
    {
      "inputs": [
        {
          "internalType": "uint256",
          "name": "round",
          "type": "uint256"
        }
      ],
      "name": "getBUSDRemainningQuotaPerPubRound",
      "outputs": [
        {
          "internalType": "uint256",
          "name": "",
          "type": "uint256"
        }
      ],
      "stateMutability": "view",
      "type": "function"
    },
    {
      "inputs": [
        {
          "internalType": "uint256",
          "name": "round",
          "type": "uint256"
        }
      ],
      "name": "getBUSDUsedQuotaPerPubRound",
      "outputs": [
        {
          "internalType": "uint256",
          "name": "",
          "type": "uint256"
        }
      ],
      "stateMutability": "view",
      "type": "function"
    },
    {
      "inputs": [
        {
          "internalType": "uint256",
          "name": "tokenId",
          "type": "uint256"
        }
      ],
      "name": "getCardProperty",
      "outputs": [
        {
          "components": [
            {
              "internalType": "string",
              "name": "name",
              "type": "string"
            },
            {
              "internalType": "string",
              "name": "country",
              "type": "string"
            },
            {
              "internalType": "string",
              "name": "position",
              "type": "string"
            },
            {
              "internalType": "uint256",
              "name": "starLevel",
              "type": "uint256"
            },
            {
              "internalType": "uint256",
              "name": "gradient",
              "type": "uint256"
            }
          ],
          "internalType": "struct ISoccerStarNft.SoccerStar",
          "name": "",
          "type": "tuple"
        }
      ],
      "stateMutability": "view",
      "type": "function"
    },
    {
      "inputs": [],
      "name": "getMaxAmountPerAddress",
      "outputs": [
        {
          "internalType": "uint256",
          "name": "",
          "type": "uint256"
        }
      ],
      "stateMutability": "view",
      "type": "function"
    },
    {
      "inputs": [
        {
          "internalType": "uint256",
          "name": "round",
          "type": "uint256"
        },
        {
          "internalType": "enum ISoccerStarNft.BlindBoxesType",
          "name": "boxType",
          "type": "uint8"
        }
      ],
      "name": "getMaxMintAmount",
      "outputs": [
        {
          "internalType": "uint256",
          "name": "",
          "type": "uint256"
        }
      ],
      "stateMutability": "view",
      "type": "function"
    },
    {
      "inputs": [],
      "name": "getMaxMintSupply",
      "outputs": [
        {
          "internalType": "uint256",
          "name": "",
          "type": "uint256"
        }
      ],
      "stateMutability": "view",
      "type": "function"
    },
    {
      "inputs": [
        {
          "internalType": "uint256",
          "name": "round",
          "type": "uint256"
        },
        {
          "internalType": "enum ISoccerStarNft.BlindBoxesType",
          "name": "boxType",
          "type": "uint8"
        }
      ],
      "name": "getMintPrice",
      "outputs": [
        {
          "internalType": "uint256",
          "name": "",
          "type": "uint256"
        }
      ],
      "stateMutability": "view",
      "type": "function"
    },
    {
      "inputs": [
        {
          "internalType": "address",
          "name": "user",
          "type": "address"
        },
        {
          "internalType": "uint256",
          "name": "round",
          "type": "uint256"
        }
      ],
      "name": "getPubicRoundMintAmountByUser",
      "outputs": [
        {
          "internalType": "uint256",
          "name": "",
          "type": "uint256"
        }
      ],
      "stateMutability": "view",
      "type": "function"
    },
    {
      "inputs": [
        {
          "internalType": "uint256",
          "name": "round",
          "type": "uint256"
        },
        {
          "internalType": "enum ISoccerStarNft.BlindBoxesType",
          "name": "boxType",
          "type": "uint8"
        }
      ],
      "name": "getRemainingAmount",
      "outputs": [
        {
          "internalType": "uint256",
          "name": "",
          "type": "uint256"
        }
      ],
      "stateMutability": "view",
      "type": "function"
    },
    {
      "inputs": [
        {
          "internalType": "uint256",
          "name": "round",
          "type": "uint256"
        }
      ],
      "name": "getSellTime",
      "outputs": [
        {
          "internalType": "uint256",
          "name": "",
          "type": "uint256"
        }
      ],
      "stateMutability": "view",
      "type": "function"
    },
    {
      "inputs": [
        {
          "internalType": "address",
          "name": "user",
          "type": "address"
        }
      ],
      "name": "getUserQuotaPreRound",
      "outputs": [
        {
          "internalType": "uint256",
          "name": "",
          "type": "uint256"
        }
      ],
      "stateMutability": "view",
      "type": "function"
    },
    {
      "inputs": [
        {
          "internalType": "address",
          "name": "user",
          "type": "address"
        }
      ],
      "name": "getUserRemainningQuotaPreRound",
      "outputs": [
        {
          "internalType": "uint256",
          "name": "",
          "type": "uint256"
        }
      ],
      "stateMutability": "view",
      "type": "function"
    },
    {
      "inputs": [
        {
          "internalType": "uint256",
          "name": "_maxMintSupply",
          "type": "uint256"
        },
        {
          "internalType": "address",
          "name": "_bibContract",
          "type": "address"
        },
        {
          "internalType": "address",
          "name": "_busdContract",
          "type": "address"
        },
        {
          "internalType": "address",
          "name": "_treasury",
          "type": "address"
        },
        {
          "internalType": "address",
          "name": "_router",
          "type": "address"
        }
      ],
      "name": "initialize",
      "outputs": [],
      "stateMutability": "nonpayable",
      "type": "function"
    },
    {
      "inputs": [
        {
          "internalType": "address",
          "name": "owner",
          "type": "address"
        },
        {
          "internalType": "address",
          "name": "operator",
          "type": "address"
        }
      ],
      "name": "isApprovedForAll",
      "outputs": [
        {
          "internalType": "bool",
          "name": "",
          "type": "bool"
        }
      ],
      "stateMutability": "view",
      "type": "function"
    },
    {
      "inputs": [
        {
          "internalType": "uint256",
          "name": "",
          "type": "uint256"
        }
      ],
      "name": "isOwnerMint",
      "outputs": [
        {
          "internalType": "bool",
          "name": "",
          "type": "bool"
        }
      ],
      "stateMutability": "view",
      "type": "function"
    },
    {
      "inputs": [
        {
          "internalType": "uint256",
          "name": "round",
          "type": "uint256"
        }
      ],
      "name": "isPublicRound",
      "outputs": [
        {
          "internalType": "bool",
          "name": "",
          "type": "bool"
        }
      ],
      "stateMutability": "pure",
      "type": "function"
    },
    {
      "inputs": [
        {
          "internalType": "uint256",
          "name": "round",
          "type": "uint256"
        }
      ],
      "name": "isRoundOpen",
      "outputs": [
        {
          "internalType": "bool",
          "name": "",
          "type": "bool"
        }
      ],
      "stateMutability": "view",
      "type": "function"
    },
    {
      "inputs": [
        {
          "internalType": "uint256",
          "name": "",
          "type": "uint256"
        },
        {
          "internalType": "enum ISoccerStarNft.BlindBoxesType",
          "name": "",
          "type": "uint8"
        }
      ],
      "name": "maxAmountTb",
      "outputs": [
        {
          "internalType": "uint256",
          "name": "",
          "type": "uint256"
        }
      ],
      "stateMutability": "view",
      "type": "function"
    },
    {
      "inputs": [],
      "name": "maxMintSupply",
      "outputs": [
        {
          "internalType": "uint256",
          "name": "",
          "type": "uint256"
        }
      ],
      "stateMutability": "view",
      "type": "function"
    },
    {
      "inputs": [],
      "name": "maxPubicsaleUserMintAmount",
      "outputs": [
        {
          "internalType": "uint256",
          "name": "",
          "type": "uint256"
        }
      ],
      "stateMutability": "view",
      "type": "function"
    },
    {
      "inputs": [
        {
          "internalType": "address",
          "name": "",
          "type": "address"
        },
        {
          "internalType": "uint256",
          "name": "",
          "type": "uint256"
        }
      ],
      "name": "mintAmountPerAddrTb",
      "outputs": [
        {
          "internalType": "uint256",
          "name": "",
          "type": "uint256"
        }
      ],
      "stateMutability": "view",
      "type": "function"
    },
    {
      "inputs": [
        {
          "internalType": "uint256",
          "name": "",
          "type": "uint256"
        },
        {
          "internalType": "enum ISoccerStarNft.BlindBoxesType",
          "name": "",
          "type": "uint8"
        }
      ],
      "name": "mintAmountTb",
      "outputs": [
        {
          "internalType": "uint256",
          "name": "",
          "type": "uint256"
        }
      ],
      "stateMutability": "view",
      "type": "function"
    },
    {
      "inputs": [
        {
          "internalType": "uint256",
          "name": "",
          "type": "uint256"
        },
        {
          "internalType": "enum ISoccerStarNft.BlindBoxesType",
          "name": "",
          "type": "uint8"
        }
      ],
      "name": "mintPriceTb",
      "outputs": [
        {
          "internalType": "uint256",
          "name": "",
          "type": "uint256"
        }
      ],
      "stateMutability": "view",
      "type": "function"
    },
    {
      "inputs": [],
      "name": "name",
      "outputs": [
        {
          "internalType": "string",
          "name": "",
          "type": "string"
        }
      ],
      "stateMutability": "view",
      "type": "function"
    },
    {
      "inputs": [],
      "name": "notRevealedURI",
      "outputs": [
        {
          "internalType": "string",
          "name": "",
          "type": "string"
        }
      ],
      "stateMutability": "view",
      "type": "function"
    },
    {
      "inputs": [],
      "name": "owner",
      "outputs": [
        {
          "internalType": "address",
          "name": "",
          "type": "address"
        }
      ],
      "stateMutability": "view",
      "type": "function"
    },
    {
      "inputs": [
        {
          "internalType": "uint256",
          "name": "quantity",
          "type": "uint256"
        }
      ],
      "name": "ownerMint",
      "outputs": [],
      "stateMutability": "nonpayable",
      "type": "function"
    },
    {
      "inputs": [
        {
          "internalType": "uint256",
          "name": "tokenId",
          "type": "uint256"
        }
      ],
      "name": "ownerOf",
      "outputs": [
        {
          "internalType": "address",
          "name": "",
          "type": "address"
        }
      ],
      "stateMutability": "view",
      "type": "function"
    },
    {
      "inputs": [],
      "name": "paused",
      "outputs": [
        {
          "internalType": "bool",
          "name": "",
          "type": "bool"
        }
      ],
      "stateMutability": "view",
      "type": "function"
    },
    {
      "inputs": [
        {
          "internalType": "uint256",
          "name": "quantity",
          "type": "uint256"
        }
      ],
      "name": "preSellMint",
      "outputs": [],
      "stateMutability": "payable",
      "type": "function"
    },
    {
      "inputs": [
        {
          "internalType": "uint256",
          "name": "tokenId",
          "type": "uint256"
        },
        {
          "components": [
            {
              "internalType": "string",
              "name": "name",
              "type": "string"
            },
            {
              "internalType": "string",
              "name": "country",
              "type": "string"
            },
            {
              "internalType": "string",
              "name": "position",
              "type": "string"
            },
            {
              "internalType": "uint256",
              "name": "starLevel",
              "type": "uint256"
            },
            {
              "internalType": "uint256",
              "name": "gradient",
              "type": "uint256"
            }
          ],
          "internalType": "struct ISoccerStarNft.SoccerStar",
          "name": "soccerStar",
          "type": "tuple"
        }
      ],
      "name": "protocolBind",
      "outputs": [],
      "stateMutability": "nonpayable",
      "type": "function"
    },
    {
      "inputs": [
        {
          "internalType": "uint256",
          "name": "tokenId",
          "type": "uint256"
        }
      ],
      "name": "protocolBurn",
      "outputs": [],
      "stateMutability": "nonpayable",
      "type": "function"
    },
    {
      "inputs": [],
      "name": "protocolMint",
      "outputs": [
        {
          "internalType": "uint256",
          "name": "tokenId",
          "type": "uint256"
        }
      ],
      "stateMutability": "nonpayable",
      "type": "function"
    },
    {
      "inputs": [
        {
          "internalType": "uint256",
          "name": "round",
          "type": "uint256"
        },
        {
          "internalType": "enum ISoccerStarNft.BlindBoxesType",
          "name": "boxType",
          "type": "uint8"
        },
        {
          "internalType": "uint256",
          "name": "quantity",
          "type": "uint256"
        },
        {
          "internalType": "enum ISoccerStarNft.PayMethod",
          "name": "payMethod",
          "type": "uint8"
        }
      ],
      "name": "publicSellMint",
      "outputs": [],
      "stateMutability": "nonpayable",
      "type": "function"
    },
    {
      "inputs": [],
      "name": "renounceOwnership",
      "outputs": [],
      "stateMutability": "nonpayable",
      "type": "function"
    },
    {
      "inputs": [
        {
          "internalType": "bool",
          "name": "_revealed",
          "type": "bool"
        }
      ],
      "name": "reveal",
      "outputs": [],
      "stateMutability": "nonpayable",
      "type": "function"
    },
    {
      "inputs": [],
      "name": "revealed",
      "outputs": [
        {
          "internalType": "bool",
          "name": "",
          "type": "bool"
        }
      ],
      "stateMutability": "view",
      "type": "function"
    },
    {
      "inputs": [],
      "name": "router",
      "outputs": [
        {
          "internalType": "contract IUniswapV2Router02",
          "name": "",
          "type": "address"
        }
      ],
      "stateMutability": "view",
      "type": "function"
    },
    {
      "inputs": [
        {
          "internalType": "address",
          "name": "from",
          "type": "address"
        },
        {
          "internalType": "address",
          "name": "to",
          "type": "address"
        },
        {
          "internalType": "uint256",
          "name": "tokenId",
          "type": "uint256"
        }
      ],
      "name": "safeTransferFrom",
      "outputs": [],
      "stateMutability": "nonpayable",
      "type": "function"
    },
    {
      "inputs": [
        {
          "internalType": "address",
          "name": "from",
          "type": "address"
        },
        {
          "internalType": "address",
          "name": "to",
          "type": "address"
        },
        {
          "internalType": "uint256",
          "name": "tokenId",
          "type": "uint256"
        },
        {
          "internalType": "bytes",
          "name": "_data",
          "type": "bytes"
        }
      ],
      "name": "safeTransferFrom",
      "outputs": [],
      "stateMutability": "nonpayable",
      "type": "function"
    },
    {
      "inputs": [
        {
          "internalType": "address",
          "name": "_protAddr",
          "type": "address"
        },
        {
          "internalType": "bool",
          "name": "value",
          "type": "bool"
        }
      ],
      "name": "setAllowProtocolToCall",
      "outputs": [],
      "stateMutability": "nonpayable",
      "type": "function"
    },
    {
      "inputs": [
        {
          "internalType": "address",
          "name": "_caller",
          "type": "address"
        },
        {
          "internalType": "bool",
          "name": "value",
          "type": "bool"
        }
      ],
      "name": "setAllowToCall",
      "outputs": [],
      "stateMutability": "nonpayable",
      "type": "function"
    },
    {
      "inputs": [
        {
          "internalType": "address",
          "name": "operator",
          "type": "address"
        },
        {
          "internalType": "bool",
          "name": "approved",
          "type": "bool"
        }
      ],
      "name": "setApprovalForAll",
      "outputs": [],
      "stateMutability": "nonpayable",
      "type": "function"
    },
    {
      "inputs": [
        {
          "internalType": "address",
          "name": "_bibContract",
          "type": "address"
        }
      ],
      "name": "setBIBContract",
      "outputs": [],
      "stateMutability": "nonpayable",
      "type": "function"
    },
    {
      "inputs": [
        {
          "internalType": "address",
          "name": "_busdContract",
          "type": "address"
        }
      ],
      "name": "setBUSDContract",
      "outputs": [],
      "stateMutability": "nonpayable",
      "type": "function"
    },
    {
      "inputs": [
        {
          "internalType": "uint256",
          "name": "round",
          "type": "uint256"
        },
        {
          "internalType": "uint256",
          "name": "quota",
          "type": "uint256"
        }
      ],
      "name": "setBUSDQuotaPerPubRound",
      "outputs": [],
      "stateMutability": "nonpayable",
      "type": "function"
    },
    {
      "inputs": [
        {
          "internalType": "string",
          "name": "uri",
          "type": "string"
        }
      ],
      "name": "setBaseURI",
      "outputs": [],
      "stateMutability": "nonpayable",
      "type": "function"
    },
    {
      "inputs": [
        {
          "internalType": "uint256",
          "name": "_amount",
          "type": "uint256"
        }
      ],
      "name": "setMaxAmountPerAddress",
      "outputs": [],
      "stateMutability": "nonpayable",
      "type": "function"
    },
    {
      "inputs": [
        {
          "internalType": "uint256",
          "name": "round",
          "type": "uint256"
        },
        {
          "internalType": "enum ISoccerStarNft.BlindBoxesType",
          "name": "boxType",
          "type": "uint8"
        },
        {
          "internalType": "uint256",
          "name": "amount",
          "type": "uint256"
        }
      ],
      "name": "setMaxMintAmount",
      "outputs": [],
      "stateMutability": "nonpayable",
      "type": "function"
    },
    {
      "inputs": [
        {
          "internalType": "uint256",
          "name": "_maxMintSupply",
          "type": "uint256"
        }
      ],
      "name": "setMaxMintSupply",
      "outputs": [],
      "stateMutability": "nonpayable",
      "type": "function"
    },
    {
      "inputs": [
        {
          "internalType": "uint256",
          "name": "round",
          "type": "uint256"
        },
        {
          "internalType": "uint256",
          "name": "_mintPrice",
          "type": "uint256"
        },
        {
          "internalType": "enum ISoccerStarNft.BlindBoxesType",
          "name": "boxType",
          "type": "uint8"
        }
      ],
      "name": "setMintPrice",
      "outputs": [],
      "stateMutability": "nonpayable",
      "type": "function"
    },
    {
      "inputs": [
        {
          "internalType": "string",
          "name": "_notRevealedURI",
          "type": "string"
        }
      ],
      "name": "setNotRevealURI",
      "outputs": [],
      "stateMutability": "nonpayable",
      "type": "function"
    },
    {
      "inputs": [
        {
          "internalType": "uint256",
          "name": "round",
          "type": "uint256"
        },
        {
          "internalType": "uint256",
          "name": "_startTime",
          "type": "uint256"
        },
        {
          "internalType": "uint256",
          "name": "_endTime",
          "type": "uint256"
        },
        {
          "internalType": "uint256",
          "name": "_revealTime",
          "type": "uint256"
        }
      ],
      "name": "setSellTime",
      "outputs": [],
      "stateMutability": "nonpayable",
      "type": "function"
    },
    {
      "inputs": [
        {
          "internalType": "address",
          "name": "_router",
          "type": "address"
        }
      ],
      "name": "setSwapRouter",
      "outputs": [],
      "stateMutability": "nonpayable",
      "type": "function"
    },
    {
      "inputs": [
        {
          "internalType": "address",
          "name": "_treasury",
          "type": "address"
        }
      ],
      "name": "setTreasury",
      "outputs": [],
      "stateMutability": "nonpayable",
      "type": "function"
    },
    {
      "inputs": [
        {
          "internalType": "address",
          "name": "user",
          "type": "address"
        },
        {
          "internalType": "uint256",
          "name": "quota",
          "type": "uint256"
        }
      ],
      "name": "setUserQuotaPreRound",
      "outputs": [],
      "stateMutability": "nonpayable",
      "type": "function"
    },
    {
      "inputs": [
        {
          "internalType": "bytes4",
          "name": "interfaceId",
          "type": "bytes4"
        }
      ],
      "name": "supportsInterface",
      "outputs": [
        {
          "internalType": "bool",
          "name": "",
          "type": "bool"
        }
      ],
      "stateMutability": "view",
      "type": "function"
    },
    {
      "inputs": [],
      "name": "symbol",
      "outputs": [
        {
          "internalType": "string",
          "name": "",
          "type": "string"
        }
      ],
      "stateMutability": "view",
      "type": "function"
    },
    {
      "inputs": [
        {
          "internalType": "uint256",
          "name": "",
          "type": "uint256"
        }
      ],
      "name": "timeInfoTb",
      "outputs": [
        {
          "internalType": "uint256",
          "name": "startTime",
          "type": "uint256"
        },
        {
          "internalType": "uint256",
          "name": "endTime",
          "type": "uint256"
        },
        {
          "internalType": "uint256",
          "name": "revealTime",
          "type": "uint256"
        }
      ],
      "stateMutability": "view",
      "type": "function"
    },
    {
      "inputs": [
        {
          "internalType": "uint256",
          "name": "_nftId",
          "type": "uint256"
        }
      ],
      "name": "tokenURI",
      "outputs": [
        {
          "internalType": "string",
          "name": "",
          "type": "string"
        }
      ],
      "stateMutability": "view",
      "type": "function"
    },
    {
      "inputs": [],
      "name": "totalSupply",
      "outputs": [
        {
          "internalType": "uint256",
          "name": "",
          "type": "uint256"
        }
      ],
      "stateMutability": "view",
      "type": "function"
    },
    {
      "inputs": [
        {
          "internalType": "address",
          "name": "from",
          "type": "address"
        },
        {
          "internalType": "address",
          "name": "to",
          "type": "address"
        },
        {
          "internalType": "uint256",
          "name": "tokenId",
          "type": "uint256"
        }
      ],
      "name": "transferFrom",
      "outputs": [],
      "stateMutability": "nonpayable",
      "type": "function"
    },
    {
      "inputs": [
        {
          "internalType": "address",
          "name": "newOwner",
          "type": "address"
        }
      ],
      "name": "transferOwnership",
      "outputs": [],
      "stateMutability": "nonpayable",
      "type": "function"
    },
    {
      "inputs": [],
      "name": "treasury",
      "outputs": [
        {
          "internalType": "address",
          "name": "",
          "type": "address"
        }
      ],
      "stateMutability": "view",
      "type": "function"
    },
    {
      "inputs": [
        {
          "internalType": "uint256[]",
          "name": "tokenIds",
          "type": "uint256[]"
        },
        {
          "components": [
            {
              "internalType": "string",
              "name": "name",
              "type": "string"
            },
            {
              "internalType": "string",
              "name": "country",
              "type": "string"
            },
            {
              "internalType": "string",
              "name": "position",
              "type": "string"
            },
            {
              "internalType": "uint256",
              "name": "starLevel",
              "type": "uint256"
            },
            {
              "internalType": "uint256",
              "name": "gradient",
              "type": "uint256"
            }
          ],
          "internalType": "struct ISoccerStarNft.SoccerStar[]",
          "name": "_soccerStars",
          "type": "tuple[]"
        }
      ],
      "name": "updateProperty",
      "outputs": [],
      "stateMutability": "nonpayable",
      "type": "function"
    },
    {
      "inputs": [
        {
          "internalType": "uint256",
          "name": "tokenId",
          "type": "uint256"
        },
        {
          "internalType": "uint256",
          "name": "starLevel",
          "type": "uint256"
        }
      ],
      "name": "updateStarlevel",
      "outputs": [],
      "stateMutability": "nonpayable",
      "type": "function"
    },
    {
      "inputs": [
        {
          "internalType": "address",
          "name": "",
          "type": "address"
        }
      ],
      "name": "userQutaPreRoundTb",
      "outputs": [
        {
          "internalType": "uint256",
          "name": "quota",
          "type": "uint256"
        },
        {
          "internalType": "uint256",
          "name": "used",
          "type": "uint256"
        }
      ],
      "stateMutability": "view",
      "type": "function"
    }
  ],
  "bytecode": "0x608060405260a4805460ff191690553480156200001b57600080fd5b50604080518082018252601081526f2124a126b2ba30a9bab832b939ba30b960811b6020808301918252835180850190945260068452652126a9aa20a960d11b908401528151919291620000729160359162000096565b5080516200008890603690602084019062000096565b505060016033555062000179565b828054620000a4906200013c565b90600052602060002090601f016020900481019282620000c8576000855562000113565b82601f10620000e357805160ff191683800117855562000113565b8280016001018555821562000113579182015b8281111562000113578251825591602001919060010190620000f6565b506200012192915062000125565b5090565b5b8082111562000121576000815560010162000126565b600181811c908216806200015157607f821691505b602082108114156200017357634e487b7160e01b600052602260045260246000fd5b50919050565b61552380620001896000396000f3fe60806040526004361061050d5760003560e01c80637092ebd011610297578063b0e05fb011610165578063df3fdf00116100cc578063f2fde38b11610085578063f2fde38b146110af578063f733f757146110cf578063f7a3031314611100578063f887ea4014611130578063f8c587bb14611150578063fbc8745c1461117057600080fd5b8063df3fdf0014610f9d578063e217f67414610fce578063e985e9c514610fee578063ea54d1a014611037578063f0f442601461106f578063f19e75d41461108f57600080fd5b8063cc18e0911161011e578063cc18e09114610f0a578063cecaa8c814610e9f578063cf9d101c14610f2a578063d11fafb514610f4a578063d18e81b314610f6a578063de0a445614610f7d57600080fd5b8063b0e05fb014610e7f578063b1bea4ec14610e6a578063b4ac62c514610e9f578063b88d4fde14610eb4578063c285e10714610ed4578063c87b56dd14610eea57600080fd5b80638da5cb5b116102095780639c0d313f116101c25780639c0d313f14610dd9578063a068ed9f14610df5578063a0c3e9bf14610e0a578063a22cb46514610e2a578063a2ed14d514610e4a578063adc6764814610e6a57600080fd5b80638da5cb5b14610d30578063909c40f314610d4e578063940cd05b14610d6457806395d89b4114610d84578063970f07a514610d99578063975efa6d14610db957600080fd5b806379bc229f1161025b57806379bc229f14610c3d5780637ae6d74114610c735780638019566514610c935780638052f5eb14610cc3578063859f1e9814610ce35780638a10705c14610d0357600080fd5b80637092ebd014610bb357806370a0823114610bd3578063715018a614610bf35780637225038014610c085780637389fbb714610c1d57600080fd5b80633641e083116103df57806355f804b31161034657806361d027b3116102ff57806361d027b314610b0957806362d45f7e14610b295780636352211e14610b49578063648cd83614610b695780636a37441714610b895780636c0360eb14610b9e57600080fd5b806355f804b314610a16578063575022e214610a365780635accac9914610a795780635c018cef14610a995780635c975abb14610ab95780635cbaf10e14610ad157600080fd5b806342842e0e1161039857806342842e0e1461097257806344aa46e51461099257806351830227146109b257806352419147146109cc57806352fe811e146109ec57806355eda4e814610a0157600080fd5b80633641e0831461086757806336a9b90f14610887578063371a4494146108bb5780633de5ed73146108db578063409814a714610932578063412736571461095257600080fd5b806318160ddd1161048357806325cad7a31161043c57806325cad7a31461078d57806326400503146107ad57806326452881146107e55780632903187e1461081d5780632dd585af14610832578063355165601461084757600080fd5b806318160ddd146106a55780631dbe18ca146106c25780631ff8f730146106d757806321f1ed0e1461070457806323b872dd1461074d5780632529b9e91461076d57600080fd5b80630afdd4e9116104d55780630afdd4e9146105d65780630d4870ba1461060657806310cc6bb91461062657806311b65bcc14610646578063140fa8b214610665578063153bf53a1461068557600080fd5b806301ffc9a714610512578063027c8f9c1461054757806306fdde031461055c578063081812fc1461057e578063095ea7b3146105b6575b600080fd5b34801561051e57600080fd5b5061053261052d366004614777565b611190565b60405190151581526020015b60405180910390f35b61055a610555366004614794565b6111e2565b005b34801561056857600080fd5b5061057161148f565b60405161053e9190614805565b34801561058a57600080fd5b5061059e610599366004614794565b611521565b6040516001600160a01b03909116815260200161053e565b3480156105c257600080fd5b5061055a6105d136600461482d565b611565565b3480156105e257600080fd5b506105326105f1366004614859565b60af6020526000908152604090205460ff1681565b34801561061257600080fd5b5061055a610621366004614884565b6115f3565b34801561063257600080fd5b50609f5461059e906001600160a01b031681565b34801561065257600080fd5b5060a7545b60405190815260200161053e565b34801561067157600080fd5b50610532610680366004614794565b611626565b34801561069157600080fd5b5061055a6106a0366004614794565b611650565b3480156106b157600080fd5b506034546033540360001901610657565b3480156106ce57600080fd5b50610657600181565b3480156106e357600080fd5b506106f76106f2366004614794565b611755565b60405161053e91906148bd565b34801561071057600080fd5b5061073861071f366004614859565b60b2602052600090815260409020805460019091015482565b6040805192835260208301919091520161053e565b34801561075957600080fd5b5061055a610768366004614936565b611970565b34801561077957600080fd5b50610657610788366004614794565b61197b565b34801561079957600080fd5b506106576107a836600461498b565b6119b5565b3480156107b957600080fd5b506106576107c836600461498b565b60aa60209081526000928352604080842090915290825290205481565b3480156107f157600080fd5b5061065761080036600461498b565b60ac60209081526000928352604080842090915290825290205481565b34801561082957600080fd5b50610657600081565b34801561083e57600080fd5b50610657611a4f565b34801561085357600080fd5b5061055a610862366004614bd1565b611af0565b34801561087357600080fd5b5061055a610882366004614ca5565b611cb8565b34801561089357600080fd5b506107386108a2366004614794565b60b1602052600090815260409020805460019091015482565b3480156108c757600080fd5b5061055a6108d636600461482d565b611e73565b3480156108e757600080fd5b506109176108f6366004614794565b60ae6020526000908152604090208054600182015460029092015490919083565b6040805193845260208401929092529082015260600161053e565b34801561093e57600080fd5b5061055a61094d366004614794565b611ed3565b34801561095e57600080fd5b5061055a61096d366004614859565b611f1c565b34801561097e57600080fd5b5061055a61098d366004614936565b611fb3565b34801561099e57600080fd5b5061055a6109ad366004614884565b611fce565b3480156109be57600080fd5b5060a4546105329060ff1681565b3480156109d857600080fd5b5061055a6109e7366004614859565b612001565b3480156109f857600080fd5b5060a554610657565b348015610a0d57600080fd5b5061059e600181565b348015610a2257600080fd5b5061055a610a31366004614d0d565b612098565b348015610a4257600080fd5b50610657610a5136600461482d565b6001600160a01b0391909116600090815260ad60209081526040808320938352929052205490565b348015610a8557600080fd5b5061055a610a94366004614d0d565b6120f3565b348015610aa557600080fd5b50610657610ab436600461498b565b61210e565b348015610ac557600080fd5b50606d5460ff16610532565b348015610add57600080fd5b50610657610aec36600461482d565b60ad60209081526000928352604080842090915290825290205481565b348015610b1557600080fd5b5060a65461059e906001600160a01b031681565b348015610b3557600080fd5b5061055a610b44366004614d41565b612157565b348015610b5557600080fd5b5061059e610b64366004614794565b6122b4565b348015610b7557600080fd5b5061055a610b84366004614d87565b6122c6565b348015610b9557600080fd5b50610657600381565b348015610baa57600080fd5b506105716123c5565b348015610bbf57600080fd5b50610657610bce366004614794565b612453565b348015610bdf57600080fd5b50610657610bee366004614859565b61256f565b348015610bff57600080fd5b5061055a6125bd565b348015610c1457600080fd5b506105716125d1565b348015610c2957600080fd5b5061055a610c38366004614794565b6125de565b348015610c4957600080fd5b50610657610c58366004614859565b6001600160a01b0316600090815260b2602052604090205490565b348015610c7f57600080fd5b5061055a610c8e366004614e3e565b612627565b348015610c9f57600080fd5b50610532610cae366004614859565b60b06020526000908152604090205460ff1681565b348015610ccf57600080fd5b5061055a610cde366004614e60565b612758565b348015610cef57600080fd5b5061055a610cfe366004614e95565b612825565b348015610d0f57600080fd5b50610657610d1e366004614794565b600090815260ae602052604090205490565b348015610d3c57600080fd5b50603b546001600160a01b031661059e565b348015610d5a57600080fd5b5061065760a75481565b348015610d7057600080fd5b5061055a610d7f366004614eca565b61288b565b348015610d9057600080fd5b506105716128e2565b348015610da557600080fd5b50610657610db4366004614859565b6128f1565b348015610dc557600080fd5b50610657610dd436600461498b565b612919565b348015610de557600080fd5b50610657670de0b6b3a764000081565b348015610e0157600080fd5b50610657600281565b348015610e1657600080fd5b50610532610e25366004614794565b61293a565b348015610e3657600080fd5b5061055a610e45366004614884565b612950565b348015610e5657600080fd5b50610657610e65366004614794565b6129e6565b348015610e7657600080fd5b50610657600481565b348015610e8b57600080fd5b5061055a610e9a366004614ee7565b612abb565b348015610eab57600080fd5b50610657600581565b348015610ec057600080fd5b5061055a610ecf366004614f19565b612c42565b348015610ee057600080fd5b5061065760a55481565b348015610ef657600080fd5b50610571610f05366004614794565b612c93565b348015610f1657600080fd5b50610657610f25366004614794565b612e00565b348015610f3657600080fd5b5060a05461059e906001600160a01b031681565b348015610f5657600080fd5b5061055a610f65366004614e3e565b612e3d565b348015610f7657600080fd5b5042610657565b348015610f8957600080fd5b50610657610f98366004614794565b612eb8565b348015610fa957600080fd5b5061057160405180604001604052806005815260200164173539b7b760d91b81525081565b348015610fda57600080fd5b5061055a610fe9366004614859565b612efd565b348015610ffa57600080fd5b50610532611009366004614f98565b6001600160a01b039182166000908152603a6020908152604080832093909416825291909152205460ff1690565b34801561104357600080fd5b5061065761105236600461498b565b60ab60209081526000928352604080842090915290825290205481565b34801561107b57600080fd5b5061055a61108a366004614859565b612f94565b34801561109b57600080fd5b5061055a6110aa366004614794565b61302b565b3480156110bb57600080fd5b5061055a6110ca366004614859565b613148565b3480156110db57600080fd5b506110ef6110ea366004614794565b6131be565b60405161053e959493929190614fc6565b34801561110c57600080fd5b5061053261111b366004614794565b60a86020526000908152604090205460ff1681565b34801561113c57600080fd5b5060a15461059e906001600160a01b031681565b34801561115c57600080fd5b5061055a61116b366004615014565b613384565b34801561117c57600080fd5b5061065761118b366004614794565b613816565b60006001600160e01b031982166380ac58cd60e01b14806111c157506001600160e01b03198216635b5e139f60e01b145b806111dc57506301ffc9a760e01b6001600160e01b03198316145b92915050565b6111ea6139b3565b6111f46000611626565b6112455760405162461bcd60e51b815260206004820152601960248201527f5052455f53454c4c5f524f554e445f4e4f545f4f50454e45440000000000000060448201526064015b60405180910390fd5b8061124f336128f1565b10156112915760405162461bcd60e51b8152602060048201526011602482015270555345525f4841535f4e4f5f51554f544160781b604482015260640161123c565b8061129d6000806119b5565b10156112e45760405162461bcd60e51b8152602060048201526016602482015275115610d1515117d3505617d352539517d05353d5539560521b604482015260640161123c565b60006112fb6112f4600080612919565b83906139f9565b609f546040516323b872dd60e01b815233600482015260016024820152604481018390529192506001600160a01b0316906323b872dd906064016020604051808303816000875af1158015611354573d6000803e3d6000fd5b505050506040513d601f19601f820116820180604052508101906113789190615060565b506113833383613a78565b600080805260ac6020526113e59083907fcb32a14641dfad80670595f3e53f5dc52441fb5380c11f8eebcd755e5b33a3d990805b60038111156113c8576113c861507d565b815260200190815260200160002054613a9290919063ffffffff16565b7f09229797d18e46ef371f534769daa7516611a2d3b4fa6e78d367241116f4c6175533600090815260b260205260409020600101546114249083613a92565b33600081815260b260205260408120600101929092556033547fc3fb2a814f4ed737299948f9983d52e3c4509065f63356f43472d5033d3b85ca9290819061146c9087613af1565b8660008760405161148397969594939291906150b7565b60405180910390a15050565b60606035805461149e90615106565b80601f01602080910402602001604051908101604052809291908181526020018280546114ca90615106565b80156115175780601f106114ec57610100808354040283529160200191611517565b820191906000526020600020905b8154815290600101906020018083116114fa57829003601f168201915b5050505050905090565b600061152c82613b33565b611549576040516333d1c03960e21b815260040160405180910390fd5b506000908152603960205260409020546001600160a01b031690565b6000611570826122b4565b9050806001600160a01b0316836001600160a01b031614156115a55760405163250fdee360e21b815260040160405180910390fd5b336001600160a01b038216148015906115c557506115c38133611009565b155b156115e3576040516367d9dca160e11b815260040160405180910390fd5b6115ee838383613b6c565b505050565b6115fb613bc8565b6001600160a01b0391909116600090815260b060205260409020805460ff1916911515919091179055565b600081815260ae6020526040812080544210158015611649575060018101544211155b9392505050565b33600090815260af602052604090205460ff1661167f5760405162461bcd60e51b815260040161123c90615141565b611688816122b4565b6001600160a01b0316336001600160a01b0316146116e85760405162461bcd60e51b815260206004820152601b60248201527f544f4b454e5f4e4f545f42454c4c4f4e475f544f5f43414c4c45520000000000604482015260640161123c565b6116f181613c22565b6116fa816122b4565b6001600160a01b0316336001600160a01b031614156117525760405162461bcd60e51b8152602060048201526014602482015273141493d513d0d3d317d094955397d1905253115160621b604482015260640161123c565b50565b6117876040518060a0016040528060608152602001606081526020016060815260200160008152602001600081525090565b600082815260a9602052604090819020815160a081019092528054829082906117af90615106565b80601f01602080910402602001604051908101604052809291908181526020018280546117db90615106565b80156118285780601f106117fd57610100808354040283529160200191611828565b820191906000526020600020905b81548152906001019060200180831161180b57829003601f168201915b5050505050815260200160018201805461184190615106565b80601f016020809104026020016040519081016040528092919081815260200182805461186d90615106565b80156118ba5780601f1061188f576101008083540402835291602001916118ba565b820191906000526020600020905b81548152906001019060200180831161189d57829003601f168201915b505050505081526020016002820180546118d390615106565b80601f01602080910402602001604051908101604052809291908181526020018280546118ff90615106565b801561194c5780601f106119215761010080835404028352916020019161194c565b820191906000526020600020905b81548152906001019060200180831161192f57829003601f168201915b50505050508152602001600382015481526020016004820154815250509050919050565b6115ee838383613c2d565b60006119868261293a565b6119a25760405162461bcd60e51b815260040161123c9061516d565b50600090815260b1602052604090205490565b600082815260ac6020526040812061164990828460038111156119da576119da61507d565b60038111156119eb576119eb61507d565b81526020019081526020016000205460ab60008681526020019081526020016000206000856003811115611a2157611a2161507d565b6003811115611a3257611a3261507d565b815260200190815260200160002054613af190919063ffffffff16565b33600090815260af602052604081205460ff16611a7e5760405162461bcd60e51b815260040161123c90615141565b50603354611a8d336001613e08565b611a96816122b4565b6001600160a01b0316336001600160a01b031614611aed5760405162461bcd60e51b8152602060048201526014602482015273141493d513d0d3d317d352539517d1905253115160621b604482015260640161123c565b90565b33600090815260b0602052604090205460ff1680611b185750603b546001600160a01b031633145b611b345760405162461bcd60e51b815260040161123c90615197565b8051825114611b785760405162461bcd60e51b815260206004820152601060248201526f09c8a8a88bea6829a8abe988a9c8ea8960831b604482015260640161123c565b60005b81518110156115ee57818181518110611b9657611b966151c3565b602002602001015160a96000858481518110611bb457611bb46151c3565b602002602001015181526020019081526020016000206000820151816000019080519060200190611be69291906146c8565b506020828101518051611bff92600185019201906146c8565b5060408201518051611c1b9160028401916020909101906146c8565b50606082015181600301556080820151816004015590505060a96000848381518110611c4957611c496151c3565b602002602001015181526020019081526020016000206003015460001415611ca65760405162461bcd60e51b815260206004820152601060248201526f494e56414c49445f50524f504552545960801b604482015260640161123c565b80611cb0816151ef565b915050611b7b565b600054600190610100900460ff16158015611cda575060005460ff8083169116105b611d3d5760405162461bcd60e51b815260206004820152602e60248201527f496e697469616c697a61626c653a20636f6e747261637420697320616c72656160448201526d191e481a5b9a5d1a585b1a5e995960921b606482015260840161123c565b6000805461ffff191660ff83161761010017905560a5869055609f80546001600160a01b038088166001600160a01b03199283161790925560a0805487841690831617905560a6805486841690831617905560a1805492851692909116919091179055611da8613f18565b611db0613f47565b6040805180820190915260108082526f2124a126b2ba30a9bab832b939ba30b960811b6020909201918252611de7916035916146c8565b50604080518082019091526006808252652126a9aa20a960d11b6020909201918252611e15916036916146c8565b50600a60a75560a4805460ff1916905560016033556000805461ff001916905560405160ff821681527f7f26b83ff96e1f2b6a682f133852f6798a09c465da95921460cefb38474024989060200160405180910390a1505050505050565b33600090815260b0602052604090205460ff1680611e9b5750603b546001600160a01b031633145b611eb75760405162461bcd60e51b815260040161123c90615197565b6001600160a01b03909116600090815260b26020526040902055565b33600090815260b0602052604090205460ff1680611efb5750603b546001600160a01b031633145b611f175760405162461bcd60e51b815260040161123c90615197565b60a755565b611f24613bc8565b6001600160a01b038116611f4a5760405162461bcd60e51b815260040161123c9061520a565b60a1546040517f183f98025cbbac2e9f8c6153c73ddf04d9fa1536073f40a880193842cd6e88fd91611f899133916001600160a01b0316908590615232565b60405180910390a160a180546001600160a01b0319166001600160a01b0392909216919091179055565b6115ee83838360405180602001604052806000815250612c42565b611fd6613bc8565b6001600160a01b0391909116600090815260af60205260409020805460ff1916911515919091179055565b612009613bc8565b6001600160a01b03811661202f5760405162461bcd60e51b815260040161123c9061520a565b60a0546040517f6aca743edeb4e0ea2946d2ebfd5a2328eca6b0f0250566cf6003c1724aef33779161206e9133916001600160a01b0316908590615232565b60405180910390a160a080546001600160a01b0319166001600160a01b0392909216919091179055565b33600090815260b0602052604090205460ff16806120c05750603b546001600160a01b031633145b6120dc5760405162461bcd60e51b815260040161123c90615197565b80516120ef9060a29060208401906146c8565b5050565b6120fb613bc8565b80516120ef9060a39060208401906146c8565b600082815260ab602052604081208183600381111561212f5761212f61507d565b60038111156121405761214061507d565b815260200190815260200160002054905092915050565b33600090815260af602052604090205460ff166121865760405162461bcd60e51b815260040161123c90615141565b61218f826122b4565b6001600160a01b0316336001600160a01b0316146121ef5760405162461bcd60e51b815260206004820152601b60248201527f544f4b454e5f4e4f545f42454c4c4f4e475f544f5f43414c4c45520000000000604482015260640161123c565b600082815260a960205260409020600301541561223f5760405162461bcd60e51b815260206004820152600e60248201526d1513d2d15397d49155915053115160921b604482015260640161123c565b600082815260a9602090815260409091208251805184936122649284929101906146c8565b50602082810151805161227d92600185019201906146c8565b50604082015180516122999160028401916020909101906146c8565b50606082015160038201556080909101516004909101555050565b60006122bf82613f76565b5192915050565b33600090815260b0602052604090205460ff16806122ee5750603b546001600160a01b031633145b61230a5760405162461bcd60e51b815260040161123c90615197565b80518251146123535760405162461bcd60e51b81526020600482015260156024820152740a6909eaa9888be848abea6829a8abe988a9c8ea89605b1b604482015260640161123c565b60005b82518110156115ee57818181518110612371576123716151c3565b602002602001015160b2600085848151811061238f5761238f6151c3565b6020908102919091018101516001600160a01b0316825281019190915260400160002055806123bd816151ef565b915050612356565b60a280546123d290615106565b80601f01602080910402602001604051908101604052809291908181526020018280546123fe90615106565b801561244b5780601f106124205761010080835404028352916020019161244b565b820191906000526020600020905b81548152906001019060200180831161242e57829003601f168201915b505050505081565b604080516002808252606082018352600092839291906020830190803683375050609f5482519293506001600160a01b031691839150600090612498576124986151c3565b6001600160a01b03928316602091820292909201015260a0548251911690829060019081106124c9576124c96151c3565b6001600160a01b03928316602091820292909201015260a15460405163d06ca61f60e01b815291169063d06ca61f906125089086908590600401615255565b600060405180830381865afa158015612525573d6000803e3d6000fd5b505050506040513d6000823e601f3d908101601f1916820160405261254d91908101906152ac565b60018151811061255f5761255f6151c3565b6020026020010151915050919050565b60006001600160a01b038216612598576040516323d3ad8160e21b815260040160405180910390fd5b506001600160a01b03166000908152603860205260409020546001600160401b031690565b6125c5613bc8565b6125cf600061409d565b565b60a380546123d290615106565b33600090815260b0602052604090205460ff16806126065750603b546001600160a01b031633145b6126225760405162461bcd60e51b815260040161123c90615197565b60a555565b33600090815260af602052604090205460ff166126565760405162461bcd60e51b815260040161123c90615141565b61265f826122b4565b6001600160a01b03166126a45760405162461bcd60e51b815260206004820152600d60248201526c24a72b20a624a22faa27a5a2a760991b604482015260640161123c565b6000811180156126b5575060048111155b6126f15760405162461bcd60e51b815260206004820152600d60248201526c24a72b20a624a22faa27a5a2a760991b604482015260640161123c565b600082815260a96020908152604091829020600301548251338152918201529081018290527f503da1e45c649fd5b20f6bb9683e8329e14d245e636a9a83dbcfa8a15f4d387d9060600160405180910390a1600091825260a9602052604090912060030155565b33600090815260b0602052604090205460ff16806127805750603b546001600160a01b031633145b61279c5760405162461bcd60e51b815260040161123c90615197565b60058311156127dc5760405162461bcd60e51b815260206004820152600c60248201526b12539593125117d493d5539160a21b604482015260640161123c565b600083815260aa6020526040812083918360038111156127fe576127fe61507d565b600381111561280f5761280f61507d565b8152602081019190915260400160002055505050565b33600090815260b0602052604090205460ff168061284d5750603b546001600160a01b031633145b6128695760405162461bcd60e51b815260040161123c90615197565b600083815260ab6020526040812082918460038111156127fe576127fe61507d565b33600090815260b0602052604090205460ff16806128b35750603b546001600160a01b031633145b6128cf5760405162461bcd60e51b815260040161123c90615197565b60a4805460ff1916911515919091179055565b60606036805461149e90615106565b6001600160a01b038116600090815260b260205260408120600181015490546111dc91613af1565b600082815260aa602052604081208183600381111561212f5761212f61507d565b6000600182101580156111dc5750506005101590565b6001600160a01b03821633141561297a5760405163b06307db60e01b815260040160405180910390fd5b336000818152603a602090815260408083206001600160a01b03871680855290835292819020805460ff191686151590811790915590519081529192917f17307eab39ab6107e8899845ad3d59bd9653f200f220920489ca2b5937696c31910160405180910390a35050565b60408051600280825260608201835260009283929190602083019080368337505060a05482519293506001600160a01b031691839150600090612a2b57612a2b6151c3565b6001600160a01b0392831660209182029290920181019190915260a154604080516315ab88c960e31b81529051919093169263ad5c46489260048083019391928290030181865afa158015612a84573d6000803e3d6000fd5b505050506040513d601f19601f82011682018060405250810190612aa8919061533c565b816001815181106124c9576124c96151c3565b33600090815260b0602052604090205460ff1680612ae35750603b546001600160a01b031633145b612aff5760405162461bcd60e51b815260040161123c90615197565b6005841115612b3f5760405162461bcd60e51b815260206004820152600c60248201526b12539593125117d493d5539160a21b604482015260640161123c565b42831015612b835760405162461bcd60e51b8152602060048201526011602482015270494e564c49445f53544152545f54494d4560781b604482015260640161123c565b82821015612bc55760405162461bcd60e51b815260206004820152600f60248201526e494e564c49445f454e445f54494d4560881b604482015260640161123c565b81811015612c075760405162461bcd60e51b815260206004820152600f60248201526e494e564c49445f454e445f54494d4560881b604482015260640161123c565b604080516060810182529384526020808501938452848201928352600095865260ae9052909320915182555160018201559051600290910155565b612c4d848484613c2d565b6001600160a01b0383163b15158015612c6f5750612c6d848484846140ef565b155b15612c8d576040516368d2bf6b60e11b815260040160405180910390fd5b50505050565b6060612c9e82613b33565b612cea5760405162461bcd60e51b815260206004820152601760248201527f54686973204e465420646f65736e27742065786973742e000000000000000000604482015260640161123c565b60a45460ff16612d865760a38054612d0190615106565b80601f0160208091040260200160405190810160405280929190818152602001828054612d2d90615106565b8015612d7a5780601f10612d4f57610100808354040283529160200191612d7a565b820191906000526020600020905b815481529060010190602001808311612d5d57829003601f168201915b50505050509050919050565b6000612d906141d8565b90506000815111612db05760405180602001604052806000815250611649565b80612dba846141e7565b60405180604001604052806005815260200164173539b7b760d91b815250604051602001612dea93929190615359565b6040516020818303038152906040529392505050565b6000612e0b8261293a565b612e275760405162461bcd60e51b815260040161123c9061516d565b50600090815260b1602052604090206001015490565b33600090815260b0602052604090205460ff1680612e655750603b546001600160a01b031633145b612e815760405162461bcd60e51b815260040161123c90615197565b612e8a8261293a565b612ea65760405162461bcd60e51b815260040161123c9061516d565b600091825260b1602052604090912055565b6000612ec38261293a565b612edf5760405162461bcd60e51b815260040161123c9061516d565b600082815260b160205260409020600181015490546111dc91613af1565b612f05613bc8565b6001600160a01b038116612f2b5760405162461bcd60e51b815260040161123c9061520a565b609f546040517f55263a2c34e1ca945ec24e98ab7634dfbdea3867d19adaac6da2ad9381018d3991612f6a9133916001600160a01b0316908590615232565b60405180910390a1609f80546001600160a01b0319166001600160a01b0392909216919091179055565b612f9c613bc8565b6001600160a01b038116612fc25760405162461bcd60e51b815260040161123c9061520a565b60a6546040517f749a8050935feb73a55ab4641c867c4dacc84430990fcaada1d12ba9072ad02e916130019133916001600160a01b0316908590615232565b60405180910390a160a680546001600160a01b0319166001600160a01b0392909216919091179055565b613033613bc8565b61303b6139b3565b60a5548161304c6033546000190190565b613056919061539c565b11156130995760405162461bcd60e51b815260206004820152601260248201527113505617d4d55414131657d4915050d2115160721b604482015260640161123c565b6130a33382613a78565b6000816033546130b391906153b4565b90505b6033548110156130eb57600081815260a860205260409020805460ff19166001179055806130e3816151ef565b9150506130b6565b507fc3fb2a814f4ed737299948f9983d52e3c4509065f63356f43472d5033d3b85ca3360008061312685603354613af190919063ffffffff16565b8560008060405161313d97969594939291906150b7565b60405180910390a150565b613150613bc8565b6001600160a01b0381166131b55760405162461bcd60e51b815260206004820152602660248201527f4f776e61626c653a206e6577206f776e657220697320746865207a65726f206160448201526564647265737360d01b606482015260840161123c565b6117528161409d565b60a9602052600090815260409020805481906131d990615106565b80601f016020809104026020016040519081016040528092919081815260200182805461320590615106565b80156132525780601f1061322757610100808354040283529160200191613252565b820191906000526020600020905b81548152906001019060200180831161323557829003601f168201915b50505050509080600101805461326790615106565b80601f016020809104026020016040519081016040528092919081815260200182805461329390615106565b80156132e05780601f106132b5576101008083540402835291602001916132e0565b820191906000526020600020905b8154815290600101906020018083116132c357829003601f168201915b5050505050908060020180546132f590615106565b80601f016020809104026020016040519081016040528092919081815260200182805461332190615106565b801561336e5780601f106133435761010080835404028352916020019161336e565b820191906000526020600020905b81548152906001019060200180831161335157829003601f168201915b5050505050908060030154908060040154905085565b61338c6139b3565b6133958461293a565b6133d85760405162461bcd60e51b81526020600482015260146024820152734e4f545f5055424c49435f524f554e445f4e554d60601b604482015260640161123c565b6133e184611626565b61341e5760405162461bcd60e51b815260206004820152600e60248201526d2927aaa7222fa727aa2fa7a822a760911b604482015260640161123c565b60008360038111156134325761343261507d565b14156134805760405162461bcd60e51b815260206004820152601760248201527f50524553414c455f424f585f4e4f545f414c4c4f574544000000000000000000604482015260640161123c565b60a75433600090815260ad602090815260408083208884529091529020546134a89084613a92565b11156134f65760405162461bcd60e51b815260206004820152601e60248201527f4558434545445f414444524553535f4d41585f4d494e545f414d4f554e540000604482015260640161123c565b8161350185856119b5565b10156135485760405162461bcd60e51b8152602060048201526016602482015275115610d1515117d3505617d352539517d05353d5539560521b604482015260640161123c565b600061355e6135578686612919565b84906139f9565b905060008260018111156135745761357461507d565b14156135fc57609f546040516323b872dd60e01b815233600482015260016024820152604481018390526001600160a01b03909116906323b872dd906064016020604051808303816000875af11580156135d2573d6000803e3d6000fd5b505050506040513d601f19601f820116820180604052508101906135f69190615060565b50613706565b8261360686612eb8565b101561364c5760405162461bcd60e51b81526020600482015260156024820152744558434545445f4d41585f425553445f51554f544160581b604482015260640161123c565b61365581612453565b60a05460a6546040516323b872dd60e01b81523360048201526001600160a01b0391821660248201526044810184905292935016906323b872dd906064016020604051808303816000875af11580156136b2573d6000803e3d6000fd5b505050506040513d601f19601f820116820180604052508101906136d69190615060565b50600085815260b160205260409020600101546136f39084613a92565b600086815260b160205260409020600101555b6137103384613a78565b600085815260ac60205260408120613737918591908760038111156113b7576113b761507d565b600086815260ac60205260408120908660038111156137585761375861507d565b60038111156137695761376961507d565b8152602080820192909252604090810160009081209390935533835260ad825280832088845290915290205461379f9084613a92565b33600081815260ad602090815260408083208a84529091529020919091556033547fc3fb2a814f4ed737299948f9983d52e3c4509065f63356f43472d5033d3b85ca9190879087906137f19088613af1565b87878760405161380797969594939291906150b7565b60405180910390a15050505050565b6040805160038082526080820190925260009182919060208201606080368337505060a05482519293506001600160a01b03169183915060009061385c5761385c6151c3565b6001600160a01b039283166020918202929092010152609f5482519116908290600190811061388d5761388d6151c3565b6001600160a01b0392831660209182029290920181019190915260a154604080516315ab88c960e31b81529051919093169263ad5c46489260048083019391928290030181865afa1580156138e6573d6000803e3d6000fd5b505050506040513d601f19601f8201168201806040525081019061390a919061533c565b8160028151811061391d5761391d6151c3565b6001600160a01b03928316602091820292909201015260a15460405163d06ca61f60e01b815291169063d06ca61f9061395c9086908590600401615255565b600060405180830381865afa158015613979573d6000803e3d6000fd5b505050506040513d6000823e601f3d908101601f191682016040526139a191908101906152ac565b60028151811061255f5761255f6151c3565b606d5460ff16156125cf5760405162461bcd60e51b815260206004820152601060248201526f14185d5cd8589b194e881c185d5cd95960821b604482015260640161123c565b600082613a08575060006111dc565b6000613a1483856153cb565b905082613a218583615400565b146116495760405162461bcd60e51b815260206004820152602160248201527f536166654d6174683a206d756c7469706c69636174696f6e206f766572666c6f6044820152607760f81b606482015260840161123c565b6120ef8282604051806020016040528060008152506142e4565b600080613a9f838561539c565b9050838110156116495760405162461bcd60e51b815260206004820152601b60248201527f536166654d6174683a206164646974696f6e206f766572666c6f770000000000604482015260640161123c565b600061164983836040518060400160405280601e81526020017f536166654d6174683a207375627472616374696f6e206f766572666c6f770000815250614477565b600081600111158015613b47575060335482105b80156111dc575050600090815260376020526040902054600160e01b900460ff161590565b60008281526039602052604080822080546001600160a01b0319166001600160a01b0387811691821790925591518593918516917f8c5be1e5ebec7d5bd14f71427d1e84f3dd0314c0f7b2291e5b200ac8c7c3b92591a4505050565b603b546001600160a01b031633146125cf5760405162461bcd60e51b815260206004820181905260248201527f4f776e61626c653a2063616c6c6572206973206e6f7420746865206f776e6572604482015260640161123c565b6117528160006144b1565b6000613c3882613f76565b9050836001600160a01b031681600001516001600160a01b031614613c6f5760405162a1148160e81b815260040160405180910390fd5b6000336001600160a01b0386161480613c8d5750613c8d8533611009565b80613ca8575033613c9d84611521565b6001600160a01b0316145b905080613cc857604051632ce44b5f60e11b815260040160405180910390fd5b6001600160a01b038416613cef57604051633a954ecd60e21b815260040160405180910390fd5b613cfb60008487613b6c565b6001600160a01b038581166000908152603860209081526040808320805467ffffffffffffffff198082166001600160401b0392831660001901831617909255898616808652838620805493841693831660019081018416949094179055898652603790945282852080546001600160e01b031916909417600160a01b42909216919091021783558701808452922080549193909116613dcf576033548214613dcf57805460208601516001600160401b0316600160a01b026001600160e01b03199091166001600160a01b038a16171781555b50505082846001600160a01b0316866001600160a01b03166000805160206154ce83398151915260405160405180910390a45050505050565b6033546001600160a01b038316613e3157604051622e076360e81b815260040160405180910390fd5b81613e4f5760405163b562e8dd60e01b815260040160405180910390fd5b6001600160a01b038316600081815260386020908152604080832080546001600160801b031981166001600160401b038083168a018116918217600160401b67ffffffffffffffff1990941690921783900481168a01811690920217909155858452603790925290912080546001600160e01b031916909217600160a01b4290921691909102179055808083015b6040516001830192906001600160a01b038716906000906000805160206154ce833981519152908290a480821415613edd5750603355505050565b600054610100900460ff16613f3f5760405162461bcd60e51b815260040161123c90615414565b6125cf614665565b600054610100900460ff16613f6e5760405162461bcd60e51b815260040161123c90615414565b6125cf614698565b60408051606081018252600080825260208201819052918101919091528180600111158015613fa6575060335481105b1561408457600081815260376020908152604091829020825160608101845290546001600160a01b0381168252600160a01b81046001600160401b031692820192909252600160e01b90910460ff161515918101829052906140825780516001600160a01b031615614019579392505050565b5060001901600081815260376020908152604091829020825160608101845290546001600160a01b038116808352600160a01b82046001600160401b031693830193909352600160e01b900460ff161515928101929092521561407d579392505050565b614019565b505b604051636f96cda160e11b815260040160405180910390fd5b603b80546001600160a01b038381166001600160a01b0319831681179093556040519116919082907f8be0079c531659141344cd1fd0a4f28419497f9722a3daafe3b4186f6b6457e090600090a35050565b604051630a85bd0160e11b81526000906001600160a01b0385169063150b7a029061412490339089908890889060040161545f565b6020604051808303816000875af192505050801561415f575060408051601f3d908101601f1916820190925261415c9181019061549c565b60015b6141ba573d80801561418d576040519150601f19603f3d011682016040523d82523d6000602084013e614192565b606091505b5080516141b2576040516368d2bf6b60e11b815260040160405180910390fd5b805181602001fd5b6001600160e01b031916630a85bd0160e11b1490505b949350505050565b606060a2805461149e90615106565b60608161420b5750506040805180820190915260018152600360fc1b602082015290565b8160005b8115614235578061421f816151ef565b915061422e9050600a83615400565b915061420f565b6000816001600160401b0381111561424f5761424f6149b7565b6040519080825280601f01601f191660200182016040528015614279576020820181803683370190505b5090505b84156141d05761428e6001836153b4565b915061429b600a866154b9565b6142a690603061539c565b60f81b8183815181106142bb576142bb6151c3565b60200101906001600160f81b031916908160001a9053506142dd600a86615400565b945061427d565b6033546001600160a01b03841661430d57604051622e076360e81b815260040160405180910390fd5b8261432b5760405163b562e8dd60e01b815260040160405180910390fd5b6001600160a01b038416600081815260386020908152604080832080546001600160801b031981166001600160401b038083168b018116918217600160401b67ffffffffffffffff1990941690921783900481168b01811690920217909155858452603790925290912080546001600160e01b0319168317600160a01b42909316929092029190911790558190818501903b15614434575b60405182906001600160a01b038816906000906000805160206154ce833981519152908290a46143fc60008784806001019550876140ef565b614419576040516368d2bf6b60e11b815260040160405180910390fd5b808214156143c357826033541461442f57600080fd5b614468565b5b6040516001830192906001600160a01b038816906000906000805160206154ce833981519152908290a480821415614435575b50603355612c8d600085838684565b6000818484111561449b5760405162461bcd60e51b815260040161123c9190614805565b5060006144a884866153b4565b95945050505050565b60006144bc83613f76565b80519091508215614522576000336001600160a01b03831614806144e557506144e58233611009565b806145005750336144f586611521565b6001600160a01b0316145b90508061452057604051632ce44b5f60e11b815260040160405180910390fd5b505b61452e60008583613b6c565b6001600160a01b0380821660008181526038602090815260408083208054600160801b6000196001600160401b0380841691909101811667ffffffffffffffff198416811783900482166001908101831690930277ffffffffffffffff0000000000000000ffffffffffffffff19909416179290921783558b86526037909452828520805460ff60e01b1942909316600160a01b026001600160e01b03199091169097179690961716600160e01b17855591890180845292208054919490911661462c57603354821461462c57805460208701516001600160401b0316600160a01b026001600160e01b03199091166001600160a01b038716171781555b5050604051869250600091506001600160a01b038416906000805160206154ce833981519152908390a450506034805460010190555050565b600054610100900460ff1661468c5760405162461bcd60e51b815260040161123c90615414565b606d805460ff19169055565b600054610100900460ff166146bf5760405162461bcd60e51b815260040161123c90615414565b6125cf3361409d565b8280546146d490615106565b90600052602060002090601f0160209004810192826146f6576000855561473c565b82601f1061470f57805160ff191683800117855561473c565b8280016001018555821561473c579182015b8281111561473c578251825591602001919060010190614721565b5061474892915061474c565b5090565b5b80821115614748576000815560010161474d565b6001600160e01b03198116811461175257600080fd5b60006020828403121561478957600080fd5b813561164981614761565b6000602082840312156147a657600080fd5b5035919050565b60005b838110156147c85781810151838201526020016147b0565b83811115612c8d5750506000910152565b600081518084526147f18160208601602086016147ad565b601f01601f19169290920160200192915050565b60208152600061164960208301846147d9565b6001600160a01b038116811461175257600080fd5b6000806040838503121561484057600080fd5b823561484b81614818565b946020939093013593505050565b60006020828403121561486b57600080fd5b813561164981614818565b801515811461175257600080fd5b6000806040838503121561489757600080fd5b82356148a281614818565b915060208301356148b281614876565b809150509250929050565b602081526000825160a060208401526148d960c08401826147d9565b90506020840151601f19808584030160408601526148f783836147d9565b925060408601519150808584030160608601525061491582826147d9565b91505060608401516080840152608084015160a08401528091505092915050565b60008060006060848603121561494b57600080fd5b833561495681614818565b9250602084013561496681614818565b929592945050506040919091013590565b80356004811061498657600080fd5b919050565b6000806040838503121561499e57600080fd5b823591506149ae60208401614977565b90509250929050565b634e487b7160e01b600052604160045260246000fd5b60405160a081016001600160401b03811182821017156149ef576149ef6149b7565b60405290565b604051601f8201601f191681016001600160401b0381118282101715614a1d57614a1d6149b7565b604052919050565b60006001600160401b03821115614a3e57614a3e6149b7565b5060051b60200190565b600082601f830112614a5957600080fd5b81356020614a6e614a6983614a25565b6149f5565b82815260059290921b84018101918181019086841115614a8d57600080fd5b8286015b84811015614aa85780358352918301918301614a91565b509695505050505050565b60006001600160401b03831115614acc57614acc6149b7565b614adf601f8401601f19166020016149f5565b9050828152838383011115614af357600080fd5b828260208301376000602084830101529392505050565b600082601f830112614b1b57600080fd5b61164983833560208501614ab3565b600060a08284031215614b3c57600080fd5b614b446149cd565b905081356001600160401b0380821115614b5d57600080fd5b614b6985838601614b0a565b83526020840135915080821115614b7f57600080fd5b614b8b85838601614b0a565b60208401526040840135915080821115614ba457600080fd5b50614bb184828501614b0a565b604083015250606082013560608201526080820135608082015292915050565b60008060408385031215614be457600080fd5b82356001600160401b0380821115614bfb57600080fd5b614c0786838701614a48565b9350602091508185013581811115614c1e57600080fd5b8501601f81018713614c2f57600080fd5b8035614c3d614a6982614a25565b81815260059190911b82018401908481019089831115614c5c57600080fd5b8584015b83811015614c9457803586811115614c785760008081fd5b614c868c8983890101614b2a565b845250918601918601614c60565b508096505050505050509250929050565b600080600080600060a08688031215614cbd57600080fd5b853594506020860135614ccf81614818565b93506040860135614cdf81614818565b92506060860135614cef81614818565b91506080860135614cff81614818565b809150509295509295909350565b600060208284031215614d1f57600080fd5b81356001600160401b03811115614d3557600080fd5b6141d084828501614b0a565b60008060408385031215614d5457600080fd5b8235915060208301356001600160401b03811115614d7157600080fd5b614d7d85828601614b2a565b9150509250929050565b60008060408385031215614d9a57600080fd5b82356001600160401b0380821115614db157600080fd5b818501915085601f830112614dc557600080fd5b81356020614dd5614a6983614a25565b82815260059290921b84018101918181019089841115614df457600080fd5b948201945b83861015614e1b578535614e0c81614818565b82529482019490820190614df9565b96505086013592505080821115614e3157600080fd5b50614d7d85828601614a48565b60008060408385031215614e5157600080fd5b50508035926020909101359150565b600080600060608486031215614e7557600080fd5b8335925060208401359150614e8c60408501614977565b90509250925092565b600080600060608486031215614eaa57600080fd5b83359250614eba60208501614977565b9150604084013590509250925092565b600060208284031215614edc57600080fd5b813561164981614876565b60008060008060808587031215614efd57600080fd5b5050823594602084013594506040840135936060013592509050565b60008060008060808587031215614f2f57600080fd5b8435614f3a81614818565b93506020850135614f4a81614818565b92506040850135915060608501356001600160401b03811115614f6c57600080fd5b8501601f81018713614f7d57600080fd5b614f8c87823560208401614ab3565b91505092959194509250565b60008060408385031215614fab57600080fd5b8235614fb681614818565b915060208301356148b281614818565b60a081526000614fd960a08301886147d9565b8281036020840152614feb81886147d9565b90508281036040840152614fff81876147d9565b60608401959095525050608001529392505050565b6000806000806080858703121561502a57600080fd5b8435935061503a60208601614977565b92506040850135915060608501356002811061505557600080fd5b939692955090935050565b60006020828403121561507257600080fd5b815161164981614876565b634e487b7160e01b600052602160045260246000fd5b600481106150a3576150a361507d565b9052565b600281106150a3576150a361507d565b6001600160a01b03881681526020810187905260e081016150db6040830188615093565b8560608301528460808301526150f460a08301856150a7565b8260c083015298975050505050505050565b600181811c9082168061511a57607f821691505b6020821081141561513b57634e487b7160e01b600052602260045260246000fd5b50919050565b60208082526012908201527113d3931657d41493d513d0d3d317d0d0531360721b604082015260600190565b60208082526010908201526f1393d517d41550931250d7d493d5539160821b604082015260600190565b60208082526012908201527127a7262cafa822a926a4aa2fa1a0a62622a960711b604082015260600190565b634e487b7160e01b600052603260045260246000fd5b634e487b7160e01b600052601160045260246000fd5b6000600019821415615203576152036151d9565b5060010190565b6020808252600e908201526d494e564c49445f4144445245535360901b604082015260600190565b6001600160a01b0393841681529183166020830152909116604082015260600190565b6000604082018483526020604081850152818551808452606086019150828701935060005b8181101561529f5784516001600160a01b03168352938301939183019160010161527a565b5090979650505050505050565b600060208083850312156152bf57600080fd5b82516001600160401b038111156152d557600080fd5b8301601f810185136152e657600080fd5b80516152f4614a6982614a25565b81815260059190911b8201830190838101908783111561531357600080fd5b928401925b8284101561533157835182529284019290840190615318565b979650505050505050565b60006020828403121561534e57600080fd5b815161164981614818565b6000845161536b8184602089016147ad565b84519083019061537f8183602089016147ad565b84519101906153928183602088016147ad565b0195945050505050565b600082198211156153af576153af6151d9565b500190565b6000828210156153c6576153c66151d9565b500390565b60008160001904831182151516156153e5576153e56151d9565b500290565b634e487b7160e01b600052601260045260246000fd5b60008261540f5761540f6153ea565b500490565b6020808252602b908201527f496e697469616c697a61626c653a20636f6e7472616374206973206e6f74206960408201526a6e697469616c697a696e6760a81b606082015260800190565b6001600160a01b0385811682528416602082015260408101839052608060608201819052600090615492908301846147d9565b9695505050505050565b6000602082840312156154ae57600080fd5b815161164981614761565b6000826154c8576154c86153ea565b50069056feddf252ad1be2c89b69c2b068fc378daa952ba7f163c4a11628f55a4df523b3efa26469706673582212200c2bc076c7883616d151a744bca1c65e2609c50918a8f7bd8706165fa016b26e64736f6c634300080b0033",
  "linkReferences": {},
  "deployedLinkReferences": {}
}