{
  "_format": "hh-sol-artifact-1",
  "contractName": "NFTCardStakeMock",
  "sourceName": "contracts/test/NFTCardStakeMock.sol",
  "abi": [
    {
      "inputs": [
        {
          "internalType": "uint256",
          "name": "tokenId",
          "type": "uint256"
        }
      ],
      "name": "isStaked",
      "outputs": [
        {
          "internalType": "bool",
          "name": "",
          "type": "bool"
        }
      ],
      "stateMutability": "view",
      "type": "function"
    }
  ],
  "bytecode": "0x608060405234801561001057600080fd5b5060b88061001f6000396000f3fe6080604052348015600f57600080fd5b506004361060285760003560e01c8063baa51f8614602d575b600080fd5b603c6038366004606a565b6050565b604051901515815260200160405180910390f35b6000600a821115606257506000919050565b506001919050565b600060208284031215607b57600080fd5b503591905056fea26469706673582212207cb56ad583dc62111674b86b2903e73149b5b4a43dfe0ba27d351bacce0be29c64736f6c634300080b0033",
  "linkReferences": {},
  "deployedLinkReferences": {}
}