{
  "_format": "hh-sol-artifact-1",
  "contractName": "StakedSoccerStarNftV2",
  "sourceName": "contracts/stake/StakedSoccerStarNftV2.sol",
  "abi": [
    {
      "anonymous": false,
      "inputs": [
        {
          "indexed": true,
          "internalType": "address",
          "name": "asset",
          "type": "address"
        },
        {
          "indexed": false,
          "internalType": "uint256",
          "name": "emission",
          "type": "uint256"
        }
      ],
      "name": "AssetConfigUpdated",
      "type": "event"
    },
    {
      "anonymous": false,
      "inputs": [
        {
          "indexed": true,
          "internalType": "address",
          "name": "asset",
          "type": "address"
        },
        {
          "indexed": false,
          "internalType": "uint256",
          "name": "index",
          "type": "uint256"
        }
      ],
      "name": "AssetIndexUpdated",
      "type": "event"
    },
    {
      "anonymous": false,
      "inputs": [
        {
          "indexed": false,
          "internalType": "address",
          "name": "sender",
          "type": "address"
        },
        {
          "indexed": false,
          "internalType": "address",
          "name": "oldValue",
          "type": "address"
        },
        {
          "indexed": false,
          "internalType": "address",
          "name": "newValue",
          "type": "address"
        }
      ],
      "name": "BalanceHookChanged",
      "type": "event"
    },
    {
      "anonymous": false,
      "inputs": [
        {
          "indexed": false,
          "internalType": "address",
          "name": "sender",
          "type": "address"
        },
        {
          "indexed": false,
          "internalType": "uint256",
          "name": "tokenId",
          "type": "uint256"
        },
        {
          "indexed": false,
          "internalType": "uint256",
          "name": "amount",
          "type": "uint256"
        }
      ],
      "name": "ClaimReward",
      "type": "event"
    },
    {
      "anonymous": false,
      "inputs": [
        {
          "indexed": false,
          "internalType": "address",
          "name": "sender",
          "type": "address"
        },
        {
          "indexed": false,
          "internalType": "uint256",
          "name": "oldValue",
          "type": "uint256"
        },
        {
          "indexed": false,
          "internalType": "uint256",
          "name": "newValue",
          "type": "uint256"
        }
      ],
      "name": "CoolDownDurationChanged",
      "type": "event"
    },
    {
      "anonymous": false,
      "inputs": [
        {
          "indexed": false,
          "internalType": "uint8",
          "name": "version",
          "type": "uint8"
        }
      ],
      "name": "Initialized",
      "type": "event"
    },
    {
      "anonymous": false,
      "inputs": [
        {
          "indexed": true,
          "internalType": "address",
          "name": "previousOwner",
          "type": "address"
        },
        {
          "indexed": true,
          "internalType": "address",
          "name": "newOwner",
          "type": "address"
        }
      ],
      "name": "OwnershipTransferred",
      "type": "event"
    },
    {
      "anonymous": false,
      "inputs": [
        {
          "indexed": false,
          "internalType": "address",
          "name": "account",
          "type": "address"
        }
      ],
      "name": "Paused",
      "type": "event"
    },
    {
      "anonymous": false,
      "inputs": [
        {
          "indexed": false,
          "internalType": "address",
          "name": "sender",
          "type": "address"
        },
        {
          "indexed": false,
          "internalType": "uint256",
          "name": "tokenId",
          "type": "uint256"
        }
      ],
      "name": "Redeem",
      "type": "event"
    },
    {
      "anonymous": false,
      "inputs": [
        {
          "indexed": false,
          "internalType": "address",
          "name": "sender",
          "type": "address"
        },
        {
          "indexed": false,
          "internalType": "address",
          "name": "oldValue",
          "type": "address"
        },
        {
          "indexed": false,
          "internalType": "address",
          "name": "newValue",
          "type": "address"
        }
      ],
      "name": "RewardTokenChanged",
      "type": "event"
    },
    {
      "anonymous": false,
      "inputs": [
        {
          "indexed": false,
          "internalType": "address",
          "name": "sender",
          "type": "address"
        },
        {
          "indexed": false,
          "internalType": "address",
          "name": "oldValue",
          "type": "address"
        },
        {
          "indexed": false,
          "internalType": "address",
          "name": "newValue",
          "type": "address"
        }
      ],
      "name": "RewardVaultChanged",
      "type": "event"
    },
    {
      "anonymous": false,
      "inputs": [
        {
          "indexed": false,
          "internalType": "address",
          "name": "sender",
          "type": "address"
        },
        {
          "indexed": false,
          "internalType": "uint256",
          "name": "tokenId",
          "type": "uint256"
        }
      ],
      "name": "Stake",
      "type": "event"
    },
    {
      "anonymous": false,
      "inputs": [
        {
          "indexed": false,
          "internalType": "address",
          "name": "sender",
          "type": "address"
        },
        {
          "indexed": false,
          "internalType": "address",
          "name": "oldValue",
          "type": "address"
        },
        {
          "indexed": false,
          "internalType": "address",
          "name": "newValue",
          "type": "address"
        }
      ],
      "name": "StakedTokenChanged",
      "type": "event"
    },
    {
      "anonymous": false,
      "inputs": [
        {
          "indexed": false,
          "internalType": "address",
          "name": "sender",
          "type": "address"
        },
        {
          "indexed": false,
          "internalType": "uint256",
          "name": "tokenId",
          "type": "uint256"
        },
        {
          "indexed": false,
          "internalType": "address",
          "name": "owner",
          "type": "address"
        },
        {
          "indexed": false,
          "internalType": "address",
          "name": "to",
          "type": "address"
        }
      ],
      "name": "TransferOwnershipNFT",
      "type": "event"
    },
    {
      "anonymous": false,
      "inputs": [
        {
          "indexed": false,
          "internalType": "address",
          "name": "account",
          "type": "address"
        }
      ],
      "name": "Unpaused",
      "type": "event"
    },
    {
      "anonymous": false,
      "inputs": [
        {
          "indexed": true,
          "internalType": "uint256",
          "name": "tokenId",
          "type": "uint256"
        },
        {
          "indexed": true,
          "internalType": "address",
          "name": "asset",
          "type": "address"
        },
        {
          "indexed": false,
          "internalType": "uint256",
          "name": "index",
          "type": "uint256"
        }
      ],
      "name": "UserIndexUpdated",
      "type": "event"
    },
    {
      "anonymous": false,
      "inputs": [
        {
          "indexed": false,
          "internalType": "address",
          "name": "sender",
          "type": "address"
        },
        {
          "indexed": false,
          "internalType": "uint256",
          "name": "tokenId",
          "type": "uint256"
        }
      ],
      "name": "Withdraw",
      "type": "event"
    },
    {
      "inputs": [],
      "name": "DISTRIBUTION_END",
      "outputs": [
        {
          "internalType": "uint256",
          "name": "",
          "type": "uint256"
        }
      ],
      "stateMutability": "view",
      "type": "function"
    },
    {
      "inputs": [],
      "name": "NODE",
      "outputs": [
        {
          "internalType": "contract IBIBNode",
          "name": "",
          "type": "address"
        }
      ],
      "stateMutability": "view",
      "type": "function"
    },
    {
      "inputs": [],
      "name": "PRECISION",
      "outputs": [
        {
          "internalType": "uint8",
          "name": "",
          "type": "uint8"
        }
      ],
      "stateMutability": "view",
      "type": "function"
    },
    {
      "inputs": [],
      "name": "REWARDS_VAULT",
      "outputs": [
        {
          "internalType": "address",
          "name": "",
          "type": "address"
        }
      ],
      "stateMutability": "view",
      "type": "function"
    },
    {
      "inputs": [],
      "name": "REWARD_TOKEN",
      "outputs": [
        {
          "internalType": "contract IERC20",
          "name": "",
          "type": "address"
        }
      ],
      "stateMutability": "view",
      "type": "function"
    },
    {
      "inputs": [],
      "name": "STAKED_TOKEN",
      "outputs": [
        {
          "internalType": "contract ISoccerStarNft",
          "name": "",
          "type": "address"
        }
      ],
      "stateMutability": "view",
      "type": "function"
    },
    {
      "inputs": [
        {
          "internalType": "address",
          "name": "",
          "type": "address"
        }
      ],
      "name": "allowProtocolToCallTb",
      "outputs": [
        {
          "internalType": "bool",
          "name": "",
          "type": "bool"
        }
      ],
      "stateMutability": "view",
      "type": "function"
    },
    {
      "inputs": [
        {
          "internalType": "address",
          "name": "",
          "type": "address"
        }
      ],
      "name": "assets",
      "outputs": [
        {
          "internalType": "uint128",
          "name": "emissionPerSecond",
          "type": "uint128"
        },
        {
          "internalType": "uint128",
          "name": "lastUpdateTimestamp",
          "type": "uint128"
        },
        {
          "internalType": "uint256",
          "name": "index",
          "type": "uint256"
        }
      ],
      "stateMutability": "view",
      "type": "function"
    },
    {
      "inputs": [],
      "name": "balanceHook",
      "outputs": [
        {
          "internalType": "contract IBalanceHook",
          "name": "",
          "type": "address"
        }
      ],
      "stateMutability": "view",
      "type": "function"
    },
    {
      "inputs": [
        {
          "internalType": "uint256",
          "name": "gradient",
          "type": "uint256"
        },
        {
          "internalType": "uint256",
          "name": "starLevel",
          "type": "uint256"
        }
      ],
      "name": "caculatePower",
      "outputs": [
        {
          "internalType": "uint256",
          "name": "power",
          "type": "uint256"
        }
      ],
      "stateMutability": "pure",
      "type": "function"
    },
    {
      "inputs": [],
      "name": "claimRewards",
      "outputs": [],
      "stateMutability": "nonpayable",
      "type": "function"
    },
    {
      "inputs": [
        {
          "internalType": "address",
          "name": "to",
          "type": "address"
        }
      ],
      "name": "claimRewardsOnbehalfOf",
      "outputs": [],
      "stateMutability": "nonpayable",
      "type": "function"
    },
    {
      "inputs": [
        {
          "components": [
            {
              "internalType": "uint128",
              "name": "emissionPerSecond",
              "type": "uint128"
            },
            {
              "internalType": "uint256",
              "name": "totalPower",
              "type": "uint256"
            },
            {
              "internalType": "address",
              "name": "underlyingAsset",
              "type": "address"
            }
          ],
          "internalType": "struct DistributionTypes.AssetConfigInput[]",
          "name": "assetsConfigInput",
          "type": "tuple[]"
        }
      ],
      "name": "configureAssets",
      "outputs": [],
      "stateMutability": "nonpayable",
      "type": "function"
    },
    {
      "inputs": [],
      "name": "coolDownDuration",
      "outputs": [
        {
          "internalType": "uint256",
          "name": "",
          "type": "uint256"
        }
      ],
      "stateMutability": "view",
      "type": "function"
    },
    {
      "inputs": [
        {
          "internalType": "uint256",
          "name": "tokenId",
          "type": "uint256"
        },
        {
          "internalType": "address",
          "name": "asset",
          "type": "address"
        }
      ],
      "name": "getTokenAssetData",
      "outputs": [
        {
          "internalType": "uint256",
          "name": "",
          "type": "uint256"
        }
      ],
      "stateMutability": "view",
      "type": "function"
    },
    {
      "inputs": [
        {
          "internalType": "uint256",
          "name": "tokenId",
          "type": "uint256"
        }
      ],
      "name": "getTokenOwner",
      "outputs": [
        {
          "internalType": "address",
          "name": "",
          "type": "address"
        }
      ],
      "stateMutability": "view",
      "type": "function"
    },
    {
      "inputs": [
        {
          "internalType": "uint256",
          "name": "tokenId",
          "type": "uint256"
        }
      ],
      "name": "getTokenPower",
      "outputs": [
        {
          "internalType": "uint256",
          "name": "power",
          "type": "uint256"
        }
      ],
      "stateMutability": "view",
      "type": "function"
    },
    {
      "inputs": [
        {
          "internalType": "address",
          "name": "staker",
          "type": "address"
        }
      ],
      "name": "getUnClaimedRewards",
      "outputs": [
        {
          "internalType": "uint256",
          "name": "",
          "type": "uint256"
        }
      ],
      "stateMutability": "view",
      "type": "function"
    },
    {
      "inputs": [
        {
          "internalType": "uint256",
          "name": "tokenId",
          "type": "uint256"
        }
      ],
      "name": "getUnClaimedRewardsByToken",
      "outputs": [
        {
          "internalType": "uint256",
          "name": "",
          "type": "uint256"
        }
      ],
      "stateMutability": "view",
      "type": "function"
    },
    {
      "inputs": [
        {
          "internalType": "uint256[]",
          "name": "tokenIds",
          "type": "uint256[]"
        }
      ],
      "name": "getUnClaimedRewardsByTokens",
      "outputs": [
        {
          "internalType": "uint256[]",
          "name": "amount",
          "type": "uint256[]"
        }
      ],
      "stateMutability": "view",
      "type": "function"
    },
    {
      "inputs": [
        {
          "internalType": "address",
          "name": "user",
          "type": "address"
        },
        {
          "internalType": "uint256",
          "name": "pageSt",
          "type": "uint256"
        },
        {
          "internalType": "uint256",
          "name": "pageSz",
          "type": "uint256"
        }
      ],
      "name": "getUserStakedInfoByPage",
      "outputs": [
        {
          "components": [
            {
              "internalType": "address",
              "name": "owner",
              "type": "address"
            },
            {
              "internalType": "uint256",
              "name": "tokenId",
              "type": "uint256"
            },
            {
              "internalType": "uint256",
              "name": "unclaimed",
              "type": "uint256"
            },
            {
              "internalType": "uint256",
              "name": "cooldown",
              "type": "uint256"
            }
          ],
          "internalType": "struct IStakedSoccerStarNftV2.TokenStakedInfo[]",
          "name": "userStaked",
          "type": "tuple[]"
        }
      ],
      "stateMutability": "view",
      "type": "function"
    },
    {
      "inputs": [
        {
          "internalType": "contract IBIBNode",
          "name": "_node",
          "type": "address"
        },
        {
          "internalType": "contract ISoccerStarNft",
          "name": "stakedToken",
          "type": "address"
        },
        {
          "internalType": "contract IERC20",
          "name": "rewardToken",
          "type": "address"
        },
        {
          "internalType": "address",
          "name": "rewardsVault",
          "type": "address"
        },
        {
          "internalType": "uint128",
          "name": "distributionDuration",
          "type": "uint128"
        }
      ],
      "name": "initialize",
      "outputs": [],
      "stateMutability": "nonpayable",
      "type": "function"
    },
    {
      "inputs": [
        {
          "internalType": "uint256",
          "name": "tokenId",
          "type": "uint256"
        }
      ],
      "name": "isStaked",
      "outputs": [
        {
          "internalType": "bool",
          "name": "",
          "type": "bool"
        }
      ],
      "stateMutability": "view",
      "type": "function"
    },
    {
      "inputs": [
        {
          "internalType": "uint256",
          "name": "tokenId",
          "type": "uint256"
        }
      ],
      "name": "isUnfreezing",
      "outputs": [
        {
          "internalType": "bool",
          "name": "",
          "type": "bool"
        }
      ],
      "stateMutability": "view",
      "type": "function"
    },
    {
      "inputs": [
        {
          "internalType": "uint256",
          "name": "tokenId",
          "type": "uint256"
        }
      ],
      "name": "isWithdrawAble",
      "outputs": [
        {
          "internalType": "bool",
          "name": "",
          "type": "bool"
        }
      ],
      "stateMutability": "view",
      "type": "function"
    },
    {
      "inputs": [],
      "name": "owner",
      "outputs": [
        {
          "internalType": "address",
          "name": "",
          "type": "address"
        }
      ],
      "stateMutability": "view",
      "type": "function"
    },
    {
      "inputs": [],
      "name": "paused",
      "outputs": [
        {
          "internalType": "bool",
          "name": "",
          "type": "bool"
        }
      ],
      "stateMutability": "view",
      "type": "function"
    },
    {
      "inputs": [
        {
          "internalType": "uint256",
          "name": "tokenId",
          "type": "uint256"
        }
      ],
      "name": "redeem",
      "outputs": [],
      "stateMutability": "nonpayable",
      "type": "function"
    },
    {
      "inputs": [],
      "name": "renounceOwnership",
      "outputs": [],
      "stateMutability": "nonpayable",
      "type": "function"
    },
    {
      "inputs": [
        {
          "internalType": "address",
          "name": "_protAddr",
          "type": "address"
        },
        {
          "internalType": "bool",
          "name": "value",
          "type": "bool"
        }
      ],
      "name": "setAllowProtocolToCall",
      "outputs": [],
      "stateMutability": "nonpayable",
      "type": "function"
    },
    {
      "inputs": [
        {
          "internalType": "address",
          "name": "_newValue",
          "type": "address"
        }
      ],
      "name": "setBalanceHook",
      "outputs": [],
      "stateMutability": "nonpayable",
      "type": "function"
    },
    {
      "inputs": [
        {
          "internalType": "uint256",
          "name": "_coolDownDuration",
          "type": "uint256"
        }
      ],
      "name": "setCoolDownDuration",
      "outputs": [],
      "stateMutability": "nonpayable",
      "type": "function"
    },
    {
      "inputs": [
        {
          "internalType": "uint256",
          "name": "distributionDuration",
          "type": "uint256"
        }
      ],
      "name": "setDistributionDuration",
      "outputs": [],
      "stateMutability": "nonpayable",
      "type": "function"
    },
    {
      "inputs": [
        {
          "internalType": "address",
          "name": "_newValue",
          "type": "address"
        }
      ],
      "name": "setRewardToken",
      "outputs": [],
      "stateMutability": "nonpayable",
      "type": "function"
    },
    {
      "inputs": [
        {
          "internalType": "address",
          "name": "_newValue",
          "type": "address"
        }
      ],
      "name": "setRewardVault",
      "outputs": [],
      "stateMutability": "nonpayable",
      "type": "function"
    },
    {
      "inputs": [
        {
          "internalType": "address",
          "name": "_newValue",
          "type": "address"
        }
      ],
      "name": "setStakedToken",
      "outputs": [],
      "stateMutability": "nonpayable",
      "type": "function"
    },
    {
      "inputs": [
        {
          "internalType": "uint256[]",
          "name": "tokenIds",
          "type": "uint256[]"
        }
      ],
      "name": "stake",
      "outputs": [],
      "stateMutability": "nonpayable",
      "type": "function"
    },
    {
      "inputs": [
        {
          "internalType": "uint256",
          "name": "tokenId",
          "type": "uint256"
        }
      ],
      "name": "stake",
      "outputs": [],
      "stateMutability": "nonpayable",
      "type": "function"
    },
    {
      "inputs": [
        {
          "internalType": "uint256",
          "name": "",
          "type": "uint256"
        }
      ],
      "name": "tokenStakedInfoTb",
      "outputs": [
        {
          "internalType": "address",
          "name": "owner",
          "type": "address"
        },
        {
          "internalType": "uint256",
          "name": "tokenId",
          "type": "uint256"
        },
        {
          "internalType": "uint256",
          "name": "unclaimed",
          "type": "uint256"
        },
        {
          "internalType": "uint256",
          "name": "cooldown",
          "type": "uint256"
        }
      ],
      "stateMutability": "view",
      "type": "function"
    },
    {
      "inputs": [],
      "name": "totalPower",
      "outputs": [
        {
          "internalType": "uint256",
          "name": "",
          "type": "uint256"
        }
      ],
      "stateMutability": "view",
      "type": "function"
    },
    {
      "inputs": [],
      "name": "totalStaked",
      "outputs": [
        {
          "internalType": "uint256",
          "name": "",
          "type": "uint256"
        }
      ],
      "stateMutability": "view",
      "type": "function"
    },
    {
      "inputs": [
        {
          "internalType": "address",
          "name": "newOwner",
          "type": "address"
        }
      ],
      "name": "transferOwnership",
      "outputs": [],
      "stateMutability": "nonpayable",
      "type": "function"
    },
    {
      "inputs": [
        {
          "internalType": "uint256",
          "name": "tokenId",
          "type": "uint256"
        },
        {
          "internalType": "address",
          "name": "to",
          "type": "address"
        }
      ],
      "name": "transferOwnershipNFT",
      "outputs": [],
      "stateMutability": "nonpayable",
      "type": "function"
    },
    {
      "inputs": [
        {
          "internalType": "uint256",
          "name": "tokenId",
          "type": "uint256"
        },
        {
          "internalType": "uint256",
          "name": "starLevel",
          "type": "uint256"
        }
      ],
      "name": "updateStarlevel",
      "outputs": [],
      "stateMutability": "nonpayable",
      "type": "function"
    },
    {
      "inputs": [
        {
          "internalType": "address",
          "name": "",
          "type": "address"
        },
        {
          "internalType": "uint256",
          "name": "",
          "type": "uint256"
        }
      ],
      "name": "userStakedTokenTb",
      "outputs": [
        {
          "internalType": "uint256",
          "name": "",
          "type": "uint256"
        }
      ],
      "stateMutability": "view",
      "type": "function"
    },
    {
      "inputs": [
        {
          "internalType": "address",
          "name": "",
          "type": "address"
        }
      ],
      "name": "userTotalPower",
      "outputs": [
        {
          "internalType": "uint256",
          "name": "",
          "type": "uint256"
        }
      ],
      "stateMutability": "view",
      "type": "function"
    },
    {
      "inputs": [
        {
          "internalType": "uint256",
          "name": "tokenId",
          "type": "uint256"
        }
      ],
      "name": "withdraw",
      "outputs": [],
      "stateMutability": "nonpayable",
      "type": "function"
    }
  ],
  "bytecode": "0x608060405234801561001057600080fd5b50613880806100206000396000f3fe608060405234801561001057600080fd5b50600436106102955760003560e01c806387c5d83211610167578063b2a5dbfa116100ce578063db006a7511610087578063db006a7514610641578063db21544e14610654578063db3ad22c14610667578063e8a44ae014610670578063f11b818814610690578063f2fde38b146106f257600080fd5b8063b2a5dbfa146105cf578063b3bc2b02146105e2578063b41021fc146105f5578063b6696cec14610608578063baa51f861461061b578063c177a00b1461062e57600080fd5b8063a121bcba11610120578063a121bcba146104ea578063a5be4e8d146104fd578063a5cd761f14610566578063a694fc3a1461058f578063aaf5eb68146105a2578063aca11980146105bc57600080fd5b806387c5d832146104845780638aee8127146104975780638da5cb5b146104aa578063919cd40f146104bb578063946776cd146104c457806399248ea7146104d757600080fd5b806352e9c6d41161020b578063715018a6116101c4578063715018a6146104315780637ae6d741146104395780638125dd101461044c578063817b1cd21461045f57806382eab3471461046857806384b98f001461047b57600080fd5b806352e9c6d4146103ba578063547ccbb6146103cd578063556edccb146103e05780635c975abb146103f35780635d3c0cfe146103fe5780635e0024331461041157600080fd5b80632e1a7d4d1161025d5780632e1a7d4d1461033b578063312f6b831461034e578063372500ab1461037957806344aa46e51461038157806351bfcdbd1461039457806351dec623146103a757600080fd5b80630498e2a71461029a5780630afdd4e9146102c05780630fbf0a93146102f357806316d7a8b3146103085780632a22820a14610328575b600080fd5b6102ad6102a8366004612f67565b610705565b6040519081526020015b60405180910390f35b6102e36102ce366004612f97565b60a46020526000908152604090205460ff1681565b60405190151581526020016102b7565b610306610301366004613024565b610733565b005b61031b6103163660046130ca565b61077f565b6040516102b791906130ff565b6102ad61033636600461316c565b610914565b61030661034936600461318e565b6109d0565b609954610361906001600160a01b031681565b6040516001600160a01b0390911681526020016102b7565b610306610c00565b61030661038f3660046131b5565b610d19565b609c54610361906001600160a01b031681565b6102ad6103b53660046131e3565b610d4c565b6103066103c8366004612f97565b610d7d565b6102e36103db36600461318e565b610e14565b6103066103ee36600461318e565b610e4e565b60335460ff166102e3565b61030661040c36600461318e565b610e98565b6102ad61041f366004612f97565b60a36020526000908152604090205481565b610306610eb0565b61030661044736600461316c565b610ec4565b61030661045a366004612f97565b6111b8565b6102ad609f5481565b61030661047636600461322b565b61124f565b6102ad609e5481565b6102ad61049236600461318e565b6113a4565b6103066104a5366004612f97565b611470565b6065546001600160a01b0316610361565b6102ad60975481565b609d54610361906001600160a01b031681565b609a54610361906001600160a01b031681565b609b54610361906001600160a01b031681565b61053c61050b36600461318e565b60a26020526000908152604090208054600182015460028301546003909301546001600160a01b0390921692909184565b604080516001600160a01b03909516855260208501939093529183015260608201526080016102b7565b61036161057436600461318e565b600090815260a260205260409020546001600160a01b031690565b61030661059d36600461318e565b611507565b6105aa601281565b60405160ff90911681526020016102b7565b6102ad6105ca366004612f97565b61151b565b6103066105dd366004613298565b6115a7565b6103066105f0366004612f67565b611757565b610306610603366004612f97565b611bda565b6102ad61061636600461318e565b611cb7565b6102e361062936600461318e565b611d7d565b61030661063c366004612f97565b611da7565b61030661064f36600461318e565b611e3e565b6102e361066236600461318e565b612130565b6102ad60a05481565b61068361067e366004613024565b61216b565b6040516102b7919061330d565b6106cc61069e366004612f97565b609860205260009081526040902080546001909101546001600160801b0380831692600160801b9004169083565b604080516001600160801b039485168152939092166020840152908201526060016102b7565b610306610700366004612f97565b6122fc565b6001600160a01b03811660009081526098602090815260408083208584526002019091529020545b92915050565b61073b612372565b60005b815181101561077b5761076982828151811061075c5761075c613351565b60200260200101516123b8565b806107738161337d565b91505061073e565b5050565b6001600160a01b038316600090815260a160205260409020805460609182918510156109095760006107b18587613398565b825490915081116107c257806107c5565b81545b90506107d186826133b0565b67ffffffffffffffff8111156107e9576107e9612fb4565b60405190808252806020026020018201604052801561084e57816020015b61083b604051806080016040528060006001600160a01b031681526020016000815260200160008152602001600081525090565b8152602001906001900390816108075790505b50925060005b818710156109065760a2600084898154811061087257610872613351565b600091825260208083209091015483528281019390935260409182019020815160808101835281546001600160a01b0316815260018201549381019390935260028101549183019190915260030154606082015284518590839081106108da576108da613351565b602002602001018190525086806108f09061337d565b97505080806108fe9061337d565b915050610854565b50505b5090505b9392505050565b60008083118015610926575060048311155b61096a5760405162461bcd60e51b815260206004820152601060248201526f1253959053125117d1d490511251539560821b60448201526064015b60405180910390fd5b60008211801561097b575060048211155b6109bb5760405162461bcd60e51b81526020600482015260116024820152701253959053125117d4d510549311559153607a1b6044820152606401610961565b61090d6109c98360016125e7565b8490612629565b6109d8612372565b600081815260a260205260409020546001600160a01b03163314610a0e5760405162461bcd60e51b8152600401610961906133c7565b610a1781610e14565b610a565760405162461bcd60e51b815260206004820152601060248201526f4e4f545f574954484452415741424c4560801b6044820152606401610961565b609954600082815260a2602052604090819020549051632142170760e11b81526001600160a01b03928316926342842e0e92610a9c9230929091169086906004016133f0565b600060405180830381600087803b158015610ab657600080fd5b505af1158015610aca573d6000803e3d6000fd5b505050600082815260a26020908152604080832080546001600160a01b0319168155600181018490556002810184905560030183905533835260a1909152812091505b8154811015610bc25782828281548110610b2957610b29613351565b90600052602060002001541415610bb05781548290610b4a906001906133b0565b81548110610b5a57610b5a613351565b9060005260206000200154828281548110610b7757610b77613351565b906000526020600020018190555081805480610b9557610b95613414565b60019003818190600052602060002001600090559055610bc2565b80610bba8161337d565b915050610b0d565b5060408051338152602081018490527f884edad9ce6fa2440d8a54cc123490eb96d2768479d49ff9c7366125a9424364910160405180910390a15050565b610c08612372565b33600090815260a160205260408120815b8154811015610cfa57610c47828281548110610c3757610c37613351565b9060005260206000200154611d7d565b15610ce857610c96828281548110610c6157610c61613351565b9060005260206000200154610c91848481548110610c8157610c81613351565b90600052602060002001546113a4565b61266a565b610ca09084613398565b925060008051602061382b83398151915233838381548110610cc457610cc4613351565b906000526020600020015485604051610cdf9392919061342a565b60405180910390a15b80610cf28161337d565b915050610c19565b50609d54609a5461077b916001600160a01b039182169116338561267a565b610d216126d8565b6001600160a01b0391909116600090815260a460205260409020805460ff1916911515919091179055565b60a16020528160005260406000208181548110610d6857600080fd5b90600052602060002001600091509150505481565b610d856126d8565b6001600160a01b038116610dab5760405162461bcd60e51b81526004016109619061344b565b6099546040517fca507fc7d32f26f3815659b59a6d39afd1c1cc2c78b0fbdd74f0dad712f9789891610dea9133916001600160a01b0316908590613474565b60405180910390a1609980546001600160a01b0319166001600160a01b0392909216919091179055565b600081815260a26020526040812060030154801580159061090d575042610e46609e548361273290919063ffffffff16565b109392505050565b610e566126d8565b7f06ac1cebebe4e2e4624dd139ecd309ff03fd013e0754611056b39c439f8a74bd33609e5483604051610e8b9392919061342a565b60405180910390a1609e55565b610ea06126d8565b610eaa4282612732565b60975550565b610eb86126d8565b610ec26000612791565b565b33600090815260a4602052604090205460ff16610f185760405162461bcd60e51b815260206004820152601260248201527113d3931657d41493d513d0d3d317d0d0531360721b6044820152606401610961565b610f2182611d7d565b610f605760405162461bcd60e51b815260206004820152601060248201526f1513d2d15397d393d517d4d51052d15160821b6044820152606401610961565b600082815260a260205260408120546001600160a01b031690610f8284611cb7565b609d54609a54919250610fa3916001600160a01b039081169116848461267a565b60008051602061382b833981519152828583604051610fc49392919061342a565b60405180910390a1609954604051637ae6d74160e01b815260048101869052602481018590526001600160a01b0390911690637ae6d74190604401600060405180830381600087803b15801561101957600080fd5b505af115801561102d573d6000803e3d6000fd5b50506099546040516301ff8f7360e41b815260048101889052600093506001600160a01b039091169150631ff8f73090602401600060405180830381865afa15801561107d573d6000803e3d6000fd5b505050506040513d6000823e601f3d908101601f191682016040526110a59190810190613527565b905060006110b7826080015186610914565b6001600160a01b038516600090815260a36020526040902080549082905590915080821115611106576110ea81836133b0565b60a060008282546110fb9190613398565b909155506111279050565b61111081836133b0565b60a0600082825461112191906133b0565b90915550505b6111368730600060a0546127e3565b50609b546001600160a01b0316156111af57609b546040516304e3034f60e31b81526001600160a01b03909116906327181a789061117c9033908b90879060040161342a565b600060405180830381600087803b15801561119657600080fd5b505af11580156111aa573d6000803e3d6000fd5b505050505b50505050505050565b6111c06126d8565b6001600160a01b0381166111e65760405162461bcd60e51b81526004016109619061344b565b609d546040517f44aadd56134558a1767b44c12fb2ffd2c3c304a7a77ebedc03ddf7b78f793948916112259133916001600160a01b0316908590613474565b60405180910390a1609d80546001600160a01b0319166001600160a01b0392909216919091179055565b600054600190610100900460ff16158015611271575060005460ff8083169116105b6112d45760405162461bcd60e51b815260206004820152602e60248201527f496e697469616c697a61626c653a20636f6e747261637420697320616c72656160448201526d191e481a5b9a5d1a585b1a5e995960921b6064820152608401610961565b6000805461ffff191660ff831617610100179055609980546001600160a01b038088166001600160a01b031992831617909255609a8054878416908316179055609d8054868416908316179055609c80549289169290911691909117905561133a61289c565b6113426128cb565b62093a80609e5561135b6001600160801b038316610e98565b6000805461ff001916905560405160ff821681527f7f26b83ff96e1f2b6a682f133852f6798a09c465da95921460cefb38474024989060200160405180910390a1505050505050565b6099546040516301ff8f7360e41b81526004810183905260009182916001600160a01b0390911690631ff8f73090602401600060405180830381865afa1580156113f2573d6000803e3d6000fd5b505050506040513d6000823e601f3d908101601f1916820160405261141a9190810190613527565b9050600081606001511161145e5760405162461bcd60e51b815260206004820152600b60248201526a10d0549117d5539491505360aa1b6044820152606401610961565b61090d81608001518260600151610914565b6114786126d8565b6001600160a01b03811661149e5760405162461bcd60e51b81526004016109619061344b565b609a546040517f60c2ec68191b35d1fff2d50e8b3fcc9bec20cddbf9b57d9ce4d73fe74406f106916114dd9133916001600160a01b0316908590613474565b60405180910390a1609a80546001600160a01b0319166001600160a01b0392909216919091179055565b61150f612372565b611518816123b8565b50565b6001600160a01b038116600090815260a1602052604081208190815b815481101561159e57611555828281548110610c3757610c37613351565b1561158c5761157f82828154811061156f5761156f613351565b9060005260206000200154611cb7565b6115899084613398565b92505b806115968161337d565b915050611537565b50909392505050565b6115af6126d8565b60005b81811015611752576000609860008585858181106115d2576115d2613351565b90506060020160400160208101906115ea9190612f97565b6001600160a01b03166001600160a01b03168152602001908152602001600020905061165b84848481811061162157611621613351565b90506060020160400160208101906116399190612f97565b8286868681811061164c5761164c613351565b905060600201602001356128fa565b5083838381811061166e5761166e613351565b61168492602060609092020190810191506135f3565b81546fffffffffffffffffffffffffffffffff19166001600160801b03919091161781558383838181106116ba576116ba613351565b90506060020160400160208101906116d29190612f97565b6001600160a01b03167f87fa03892a0556cb6b8f97e6d533a150d4d55fcbf275fff5fa003fa636bcc7fa85858581811061170e5761170e613351565b61172492602060609092020190810191506135f3565b6040516001600160801b03909116815260200160405180910390a2508061174a8161337d565b9150506115b2565b505050565b33600090815260a4602052604090205460ff166117ab5760405162461bcd60e51b815260206004820152601260248201527113d3931657d41493d513d0d3d317d0d0531360721b6044820152606401610961565b6117b482611d7d565b6117f35760405162461bcd60e51b815260206004820152601060248201526f1513d2d15397d393d517d4d51052d15160821b6044820152606401610961565b600082815260a260205260409020546001600160a01b0390811690821681141561184c5760405162461bcd60e51b815260206004820152600a60248201526929a0a6a2afa7aba722a960b11b6044820152606401610961565b600083815260a26020908152604080832080546001600160a01b0319166001600160a01b03878116919091179091558416835260a19091528120905b815481101561193d57848282815481106118a4576118a4613351565b9060005260206000200154141561192b57815482906118c5906001906133b0565b815481106118d5576118d5613351565b90600052602060002001548282815481106118f2576118f2613351565b90600052602060002001819055508180548061191057611910613414565b6001900381819060005260206000200160009055905561193d565b806119358161337d565b915050611888565b506001600160a01b03838116600090815260a160209081526040808320805460018101825590845291832090910187905560995490516301ff8f7360e41b81526004810188905291921690631ff8f73090602401600060405180830381865afa1580156119ae573d6000803e3d6000fd5b505050506040513d6000823e601f3d908101601f191682016040526119d69190810190613527565b905060006119ec82608001518360600151610914565b6001600160a01b038516600090815260a36020526040812080549293508392909190611a199084906133b0565b90915550506001600160a01b038516600090815260a3602052604081208054839290611a46908490613398565b9091555060009050611a58878361266a565b609d54609a54919250611a79916001600160a01b039081169116878461267a565b60008051602061382b833981519152858883604051611a9a9392919061342a565b60405180910390a1609b546001600160a01b031615611b8157609b546040516304e3034f60e31b81526001600160a01b03909116906327181a7890611ae89088908b9060009060040161342a565b600060405180830381600087803b158015611b0257600080fd5b505af1158015611b16573d6000803e3d6000fd5b5050609b546040516304e3034f60e31b81526001600160a01b0390911692506327181a789150611b4e9089908b90879060040161342a565b600060405180830381600087803b158015611b6857600080fd5b505af1158015611b7c573d6000803e3d6000fd5b505050505b60408051338152602081018990526001600160a01b03878116828401528816606082015290517fe54d65876373ae0d214d87fc1ec9d5750e5fdb4057e3876f3937b747d0073d1b9181900360800190a150505050505050565b611be2612372565b6001600160a01b038116600090815260a160205260408120815b8154811015611c9857611c1a828281548110610c3757610c37613351565b15611c8657611c34828281548110610c6157610c61613351565b611c3e9084613398565b925060008051602061382b83398151915284838381548110611c6257611c62613351565b906000526020600020015485604051611c7d9392919061342a565b60405180910390a15b80611c908161337d565b915050611bfc565b50609d54609a54611752916001600160a01b039182169116858561267a565b6000611cc282611d7d565b611cce57506000919050565b604080516001808252818301909252600091816020015b611d12604051806060016040528060006001600160a01b0316815260200160008152602001600081525090565b815260200190600190039081611ce55790505090506040518060600160405280306001600160a01b03168152602001611d4a856113a4565b815260200160a05481525081600081518110611d6857611d68613351565b602002602001018190525061090d83826129b2565b600081815260a260205260408120611d958330612aae565b801561090d5750600301541592915050565b611daf6126d8565b6001600160a01b038116611dd55760405162461bcd60e51b81526004016109619061344b565b609b546040517f77733bc40883159fa5314987682f9eba84f49ef5dfdf3c51f3ee1db5a694f34c91611e149133916001600160a01b0316908590613474565b60405180910390a1609b80546001600160a01b0319166001600160a01b0392909216919091179055565b611e46612372565b611e4f81611d7d565b611e8e5760405162461bcd60e51b815260206004820152601060248201526f1513d2d15397d393d517d4d05512d15160821b6044820152606401610961565b600081815260a260205260409020546001600160a01b03163314611ec45760405162461bcd60e51b8152600401610961906133c7565b609c5460405163893c8cc160e01b8152600481018390526001600160a01b039091169063893c8cc190602401602060405180830381865afa158015611f0d573d6000803e3d6000fd5b505050506040513d601f19601f82011682018060405250810190611f31919061360e565b15611f755760405162461bcd60e51b8152602060048201526014602482015273544f4b454e5f5354414b45445f41535f4e4f444560601b6044820152606401610961565b6000611f80826113a4565b90506000611f8e838361266a565b609a54609d54600086815260a26020526040908190205490516323b872dd60e01b81529394506001600160a01b03928316936323b872dd93611fd993811692169086906004016133f0565b6020604051808303816000875af1158015611ff8573d6000803e3d6000fd5b505050506040513d601f19601f8201168201806040525081019061201c919061360e565b508160a0600082825461202f91906133b0565b9091555050609f80549060006120448361362b565b909155505033600090815260a36020526040812080548492906120689084906133b0565b9091555050600083815260a260209081526040918290204260039091015581513381529081018590527f222838db2794d11532d940e8dec38ae307ed0b63cd97c233322e221f998767a6910160405180910390a1609b546001600160a01b03161561175257609b546040516304e3034f60e31b81526001600160a01b03909116906327181a7890612102903390879060009060040161342a565b600060405180830381600087803b15801561211c57600080fd5b505af11580156111af573d6000803e3d6000fd5b600081815260a26020526040812060030154801580159061090d575042612162609e548361273290919063ffffffff16565b10159392505050565b60606000825167ffffffffffffffff81111561218957612189612fb4565b6040519080825280602002602001820160405280156121b2578160200160208202803683370190505b5060408051600180825281830190925291925060009190816020015b6121fb604051806060016040528060006001600160a01b0316815260200160008152602001600081525090565b8152602001906001900390816121ce57905050905060005b845181101561159e5761223e85828151811061223157612231613351565b6020026020010151611d7d565b156122ea576040518060600160405280306001600160a01b0316815260200161227f87848151811061227257612272613351565b60200260200101516113a4565b815260200160a0548152508260008151811061229d5761229d613351565b60200260200101819052506122cb8582815181106122bd576122bd613351565b6020026020010151836129b2565b8382815181106122dd576122dd613351565b6020026020010181815250505b806122f48161337d565b915050612213565b6123046126d8565b6001600160a01b0381166123695760405162461bcd60e51b815260206004820152602660248201527f4f776e61626c653a206e6577206f776e657220697320746865207a65726f206160448201526564647265737360d01b6064820152608401610961565b61151881612791565b60335460ff1615610ec25760405162461bcd60e51b815260206004820152601060248201526f14185d5cd8589b194e881c185d5cd95960821b6044820152606401610961565b6123c28133612aae565b6123de5760405162461bcd60e51b8152600401610961906133c7565b6099546040516323b872dd60e01b81526001600160a01b03909116906323b872dd90612412903390309086906004016133f0565b600060405180830381600087803b15801561242c57600080fd5b505af1158015612440573d6000803e3d6000fd5b505050506124538130600060a0546127e3565b50600061245f826113a4565b90508060a060008282546124739190613398565b9091555050609f80549060006124888361337d565b909155505033600090815260a36020526040812080548392906124ac908490613398565b90915550506040805160808101825233808252602080830186815260008486018181526060860182815289835260a28552878320965187546001600160a01b0319166001600160a01b03909116178755925160018088019190915590516002870155915160039095019490945582845260a182528484208054918201815584529281902090920185905582519081529081018490527febedb8b3c678666e7f36970bc8f57abf6d8fa2e828c0da91ea5b75bf68ed101a910160405180910390a1609b546001600160a01b03161561077b57609b546040516304e3034f60e31b81526001600160a01b03909116906327181a78906125b19033908690869060040161342a565b600060405180830381600087803b1580156125cb57600080fd5b505af11580156125df573d6000803e3d6000fd5b505050505050565b600061090d83836040518060400160405280601e81526020017f536166654d6174683a207375627472616374696f6e206f766572666c6f770000815250612b38565b6000600160005b838110156126575761264382600a612b72565b91508061264f8161337d565b915050612630565b506126628482612b72565b949350505050565b600061090d83308460a0546127e3565b6126d2846323b872dd60e01b85858560405160240161269b939291906133f0565b60408051601f198184030181529190526020810180516001600160e01b03166001600160e01b031990931692909217909152612bf1565b50505050565b6065546001600160a01b03163314610ec25760405162461bcd60e51b815260206004820181905260248201527f4f776e61626c653a2063616c6c6572206973206e6f7420746865206f776e65726044820152606401610961565b60008061273f8385613398565b90508381101561090d5760405162461bcd60e51b815260206004820152601b60248201527f536166654d6174683a206164646974696f6e206f766572666c6f7700000000006044820152606401610961565b606580546001600160a01b038381166001600160a01b0319831681179093556040519116919082907f8be0079c531659141344cd1fd0a4f28419497f9722a3daafe3b4186f6b6457e090600090a35050565b6001600160a01b03831660009081526098602090815260408083208784526002810190925282205482806128188885886128fa565b905080831461289057861561283557612832878285612d78565b91505b600089815260028501602052604090819020829055516001600160a01b038916908a907facd233ebcfcdfd157686f659e938be145c6d8c3ae3821a2795ae2211d1e9f588906128879085815260200190565b60405180910390a35b50979650505050505050565b600054610100900460ff166128c35760405162461bcd60e51b815260040161096190613642565b610ec2612da3565b600054610100900460ff166128f25760405162461bcd60e51b815260040161096190613642565b610ec2612dd6565b6001820154825460009190600160801b90046001600160801b0316428114156129255750905061090d565b84546000906129409084906001600160801b03168488612e06565b905082811461298f57600186018190556040518181526001600160a01b038816907f5777ca300dfe5bead41006fbce4389794dbc0ed8d6cccebfaf94630aa04184bc9060200160405180910390a25b85546001600160801b03428116600160801b029116178655925050509392505050565b600080805b8351811015612aa6576000609860008684815181106129d8576129d8613351565b602090810291909101810151516001600160a01b031682528101919091526040016000908120600181015481548851929450612a46926001600160801b0380831692600160801b900416908a9088908110612a3557612a35613351565b602002602001015160400151612e06565b9050612a8f612a88878581518110612a6057612a60613351565b602002602001015160200151838560020160008c815260200190815260200160002054612d78565b8590612732565b935050508080612a9e9061337d565b9150506129b7565b509392505050565b6099546040516331a9108f60e11b8152600481018490526000916001600160a01b031690636352211e90602401602060405180830381865afa158015612af8573d6000803e3d6000fd5b505050506040513d601f19601f82011682018060405250810190612b1c919061368d565b6001600160a01b0316826001600160a01b031614905092915050565b60008184841115612b5c5760405162461bcd60e51b815260040161096191906136aa565b506000612b6984866133b0565b95945050505050565b600082612b815750600061072d565b6000612b8d83856136dd565b905082612b9a85836136fc565b1461090d5760405162461bcd60e51b815260206004820152602160248201527f536166654d6174683a206d756c7469706c69636174696f6e206f766572666c6f6044820152607760f81b6064820152608401610961565b612c03826001600160a01b0316612eae565b612c4f5760405162461bcd60e51b815260206004820152601f60248201527f5361666545524332303a2063616c6c20746f206e6f6e2d636f6e7472616374006044820152606401610961565b600080836001600160a01b031683604051612c6a919061371e565b6000604051808303816000865af19150503d8060008114612ca7576040519150601f19603f3d011682016040523d82523d6000602084013e612cac565b606091505b509150915081612cfe5760405162461bcd60e51b815260206004820181905260248201527f5361666545524332303a206c6f772d6c6576656c2063616c6c206661696c65646044820152606401610961565b8051156126d25780806020019051810190612d19919061360e565b6126d25760405162461bcd60e51b815260206004820152602a60248201527f5361666545524332303a204552433230206f7065726174696f6e20646964206e6044820152691bdd081cdd58d8d9595960b21b6064820152608401610961565b6000612662612d896012600a61381e565b612d9d612d9686866125e7565b8790612b72565b90612ee7565b600054610100900460ff16612dca5760405162461bcd60e51b815260040161096190613642565b6033805460ff19169055565b600054610100900460ff16612dfd5760405162461bcd60e51b815260040161096190613642565b610ec233612791565b6000831580612e13575081155b80612e26575042836001600160801b0316145b80612e3c5750609754836001600160801b031610155b15612e48575083612662565b60006097544211612e595742612e5d565b6097545b90506000612e74826001600160801b0387166125e7565b9050612ea387612e9d86612d9d612e8d6012600a61381e565b612e978c88612b72565b90612b72565b90612732565b979650505050505050565b6000813f7fc5d2460186f7233c927e7db2dcc703c0e500b653ca82273b7bfad8045d85a470818114801590612662575050151592915050565b600061090d83836040518060400160405280601a81526020017f536166654d6174683a206469766973696f6e206279207a65726f00000000000081525060008183612f455760405162461bcd60e51b815260040161096191906136aa565b506000612b6984866136fc565b6001600160a01b038116811461151857600080fd5b60008060408385031215612f7a57600080fd5b823591506020830135612f8c81612f52565b809150509250929050565b600060208284031215612fa957600080fd5b813561090d81612f52565b634e487b7160e01b600052604160045260246000fd5b60405160a0810167ffffffffffffffff81118282101715612fed57612fed612fb4565b60405290565b604051601f8201601f1916810167ffffffffffffffff8111828210171561301c5761301c612fb4565b604052919050565b6000602080838503121561303757600080fd5b823567ffffffffffffffff8082111561304f57600080fd5b818501915085601f83011261306357600080fd5b81358181111561307557613075612fb4565b8060051b9150613086848301612ff3565b81815291830184019184810190888411156130a057600080fd5b938501935b838510156130be578435825293850193908501906130a5565b98975050505050505050565b6000806000606084860312156130df57600080fd5b83356130ea81612f52565b95602085013595506040909401359392505050565b602080825282518282018190526000919060409081850190868401855b8281101561315f57815180516001600160a01b0316855286810151878601528581015186860152606090810151908501526080909301929085019060010161311c565b5091979650505050505050565b6000806040838503121561317f57600080fd5b50508035926020909101359150565b6000602082840312156131a057600080fd5b5035919050565b801515811461151857600080fd5b600080604083850312156131c857600080fd5b82356131d381612f52565b91506020830135612f8c816131a7565b600080604083850312156131f657600080fd5b823561320181612f52565b946020939093013593505050565b80356001600160801b038116811461322657600080fd5b919050565b600080600080600060a0868803121561324357600080fd5b853561324e81612f52565b9450602086013561325e81612f52565b9350604086013561326e81612f52565b9250606086013561327e81612f52565b915061328c6080870161320f565b90509295509295909350565b600080602083850312156132ab57600080fd5b823567ffffffffffffffff808211156132c357600080fd5b818501915085601f8301126132d757600080fd5b8135818111156132e657600080fd5b8660206060830285010111156132fb57600080fd5b60209290920196919550909350505050565b6020808252825182820181905260009190848201906040850190845b8181101561334557835183529284019291840191600101613329565b50909695505050505050565b634e487b7160e01b600052603260045260246000fd5b634e487b7160e01b600052601160045260246000fd5b600060001982141561339157613391613367565b5060010190565b600082198211156133ab576133ab613367565b500190565b6000828210156133c2576133c2613367565b500390565b6020808252600f908201526e2727aa2faa27a5a2a72fa7aba722a960891b604082015260600190565b6001600160a01b039384168152919092166020820152604081019190915260600190565b634e487b7160e01b600052603160045260246000fd5b6001600160a01b039390931683526020830191909152604082015260600190565b6020808252600f908201526e494e56414c49445f4144445245535360881b604082015260600190565b6001600160a01b0393841681529183166020830152909116604082015260600190565b60005b838110156134b257818101518382015260200161349a565b838111156126d25750506000910152565b600082601f8301126134d457600080fd5b815167ffffffffffffffff8111156134ee576134ee612fb4565b613501601f8201601f1916602001612ff3565b81815284602083860101111561351657600080fd5b612662826020830160208701613497565b60006020828403121561353957600080fd5b815167ffffffffffffffff8082111561355157600080fd5b9083019060a0828603121561356557600080fd5b61356d612fca565b82518281111561357c57600080fd5b613588878286016134c3565b82525060208301518281111561359d57600080fd5b6135a9878286016134c3565b6020830152506040830151828111156135c157600080fd5b6135cd878286016134c3565b604083015250606083015160608201526080830151608082015280935050505092915050565b60006020828403121561360557600080fd5b61090d8261320f565b60006020828403121561362057600080fd5b815161090d816131a7565b60008161363a5761363a613367565b506000190190565b6020808252602b908201527f496e697469616c697a61626c653a20636f6e7472616374206973206e6f74206960408201526a6e697469616c697a696e6760a81b606082015260800190565b60006020828403121561369f57600080fd5b815161090d81612f52565b60208152600082518060208401526136c9816040850160208701613497565b601f01601f19169190910160400192915050565b60008160001904831182151516156136f7576136f7613367565b500290565b60008261371957634e487b7160e01b600052601260045260246000fd5b500490565b60008251613730818460208701613497565b9190910192915050565b600181815b8085111561377557816000190482111561375b5761375b613367565b8085161561376857918102915b93841c939080029061373f565b509250929050565b60008261378c5750600161072d565b816137995750600061072d565b81600181146137af57600281146137b9576137d5565b600191505061072d565b60ff8411156137ca576137ca613367565b50506001821b61072d565b5060208310610133831016604e8410600b84101617156137f8575081810a61072d565b613802838361373a565b806000190482111561381657613816613367565b029392505050565b600061090d838361377d56fee74e5c9d4ac1fc33412485f18c159a0a391efe287ab3fd271123f30e6bacf4e3a26469706673582212207433c3e69f0c845e39167b38319600b551f3ed5594313d7fe84aa6121bc7afe964736f6c634300080b0033",
  "linkReferences": {},
  "deployedLinkReferences": {}
}