{
  "_format": "hh-sol-artifact-1",
  "contractName": "StakedSoccerStarNftV2",
  "sourceName": "contracts/stake/StakedSoccerStarNftV2.sol",
  "abi": [
    {
      "anonymous": false,
      "inputs": [
        {
          "indexed": true,
          "internalType": "address",
          "name": "asset",
          "type": "address"
        },
        {
          "indexed": false,
          "internalType": "uint256",
          "name": "emission",
          "type": "uint256"
        }
      ],
      "name": "AssetConfigUpdated",
      "type": "event"
    },
    {
      "anonymous": false,
      "inputs": [
        {
          "indexed": true,
          "internalType": "address",
          "name": "asset",
          "type": "address"
        },
        {
          "indexed": false,
          "internalType": "uint256",
          "name": "index",
          "type": "uint256"
        }
      ],
      "name": "AssetIndexUpdated",
      "type": "event"
    },
    {
      "anonymous": false,
      "inputs": [
        {
          "indexed": false,
          "internalType": "address",
          "name": "sender",
          "type": "address"
        },
        {
          "indexed": false,
          "internalType": "address",
          "name": "oldValue",
          "type": "address"
        },
        {
          "indexed": false,
          "internalType": "address",
          "name": "newValue",
          "type": "address"
        }
      ],
      "name": "BalanceHookChanged",
      "type": "event"
    },
    {
      "anonymous": false,
      "inputs": [
        {
          "indexed": false,
          "internalType": "address",
          "name": "sender",
          "type": "address"
        },
        {
          "indexed": false,
          "internalType": "uint256",
          "name": "tokenId",
          "type": "uint256"
        },
        {
          "indexed": false,
          "internalType": "uint256",
          "name": "amount",
          "type": "uint256"
        }
      ],
      "name": "ClaimReward",
      "type": "event"
    },
    {
      "anonymous": false,
      "inputs": [
        {
          "indexed": false,
          "internalType": "address",
          "name": "sender",
          "type": "address"
        },
        {
          "indexed": false,
          "internalType": "uint256",
          "name": "oldValue",
          "type": "uint256"
        },
        {
          "indexed": false,
          "internalType": "uint256",
          "name": "newValue",
          "type": "uint256"
        }
      ],
      "name": "CoolDownDurationChanged",
      "type": "event"
    },
    {
      "anonymous": false,
      "inputs": [
        {
          "indexed": false,
          "internalType": "uint8",
          "name": "version",
          "type": "uint8"
        }
      ],
      "name": "Initialized",
      "type": "event"
    },
    {
      "anonymous": false,
      "inputs": [
        {
          "indexed": true,
          "internalType": "address",
          "name": "previousOwner",
          "type": "address"
        },
        {
          "indexed": true,
          "internalType": "address",
          "name": "newOwner",
          "type": "address"
        }
      ],
      "name": "OwnershipTransferred",
      "type": "event"
    },
    {
      "anonymous": false,
      "inputs": [
        {
          "indexed": false,
          "internalType": "address",
          "name": "account",
          "type": "address"
        }
      ],
      "name": "Paused",
      "type": "event"
    },
    {
      "anonymous": false,
      "inputs": [
        {
          "indexed": false,
          "internalType": "address",
          "name": "sender",
          "type": "address"
        },
        {
          "indexed": false,
          "internalType": "uint256",
          "name": "tokenId",
          "type": "uint256"
        }
      ],
      "name": "Redeem",
      "type": "event"
    },
    {
      "anonymous": false,
      "inputs": [
        {
          "indexed": false,
          "internalType": "address",
          "name": "sender",
          "type": "address"
        },
        {
          "indexed": false,
          "internalType": "address",
          "name": "oldValue",
          "type": "address"
        },
        {
          "indexed": false,
          "internalType": "address",
          "name": "newValue",
          "type": "address"
        }
      ],
      "name": "RewardTokenChanged",
      "type": "event"
    },
    {
      "anonymous": false,
      "inputs": [
        {
          "indexed": false,
          "internalType": "address",
          "name": "sender",
          "type": "address"
        },
        {
          "indexed": false,
          "internalType": "address",
          "name": "oldValue",
          "type": "address"
        },
        {
          "indexed": false,
          "internalType": "address",
          "name": "newValue",
          "type": "address"
        }
      ],
      "name": "RewardVaultChanged",
      "type": "event"
    },
    {
      "anonymous": false,
      "inputs": [
        {
          "indexed": false,
          "internalType": "address",
          "name": "sender",
          "type": "address"
        },
        {
          "indexed": false,
          "internalType": "uint256",
          "name": "tokenId",
          "type": "uint256"
        }
      ],
      "name": "Stake",
      "type": "event"
    },
    {
      "anonymous": false,
      "inputs": [
        {
          "indexed": false,
          "internalType": "address",
          "name": "sender",
          "type": "address"
        },
        {
          "indexed": false,
          "internalType": "address",
          "name": "oldValue",
          "type": "address"
        },
        {
          "indexed": false,
          "internalType": "address",
          "name": "newValue",
          "type": "address"
        }
      ],
      "name": "StakedTokenChanged",
      "type": "event"
    },
    {
      "anonymous": false,
      "inputs": [
        {
          "indexed": false,
          "internalType": "address",
          "name": "sender",
          "type": "address"
        },
        {
          "indexed": false,
          "internalType": "uint256",
          "name": "tokenId",
          "type": "uint256"
        },
        {
          "indexed": false,
          "internalType": "address",
          "name": "owner",
          "type": "address"
        },
        {
          "indexed": false,
          "internalType": "address",
          "name": "to",
          "type": "address"
        }
      ],
      "name": "TransferOwnershipNFT",
      "type": "event"
    },
    {
      "anonymous": false,
      "inputs": [
        {
          "indexed": false,
          "internalType": "address",
          "name": "account",
          "type": "address"
        }
      ],
      "name": "Unpaused",
      "type": "event"
    },
    {
      "anonymous": false,
      "inputs": [
        {
          "indexed": true,
          "internalType": "uint256",
          "name": "tokenId",
          "type": "uint256"
        },
        {
          "indexed": true,
          "internalType": "address",
          "name": "asset",
          "type": "address"
        },
        {
          "indexed": false,
          "internalType": "uint256",
          "name": "index",
          "type": "uint256"
        }
      ],
      "name": "UserIndexUpdated",
      "type": "event"
    },
    {
      "anonymous": false,
      "inputs": [
        {
          "indexed": false,
          "internalType": "address",
          "name": "sender",
          "type": "address"
        },
        {
          "indexed": false,
          "internalType": "uint256",
          "name": "tokenId",
          "type": "uint256"
        }
      ],
      "name": "Withdraw",
      "type": "event"
    },
    {
      "inputs": [],
      "name": "DISTRIBUTION_END",
      "outputs": [
        {
          "internalType": "uint256",
          "name": "",
          "type": "uint256"
        }
      ],
      "stateMutability": "view",
      "type": "function"
    },
    {
      "inputs": [],
      "name": "NODE",
      "outputs": [
        {
          "internalType": "contract IBIBNode",
          "name": "",
          "type": "address"
        }
      ],
      "stateMutability": "view",
      "type": "function"
    },
    {
      "inputs": [],
      "name": "PRECISION",
      "outputs": [
        {
          "internalType": "uint8",
          "name": "",
          "type": "uint8"
        }
      ],
      "stateMutability": "view",
      "type": "function"
    },
    {
      "inputs": [],
      "name": "REWARDS_VAULT",
      "outputs": [
        {
          "internalType": "address",
          "name": "",
          "type": "address"
        }
      ],
      "stateMutability": "view",
      "type": "function"
    },
    {
      "inputs": [],
      "name": "REWARD_TOKEN",
      "outputs": [
        {
          "internalType": "contract IERC20",
          "name": "",
          "type": "address"
        }
      ],
      "stateMutability": "view",
      "type": "function"
    },
    {
      "inputs": [],
      "name": "STAKED_TOKEN",
      "outputs": [
        {
          "internalType": "contract ISoccerStarNft",
          "name": "",
          "type": "address"
        }
      ],
      "stateMutability": "view",
      "type": "function"
    },
    {
      "inputs": [
        {
          "internalType": "address",
          "name": "",
          "type": "address"
        }
      ],
      "name": "allowProtocolToCallTb",
      "outputs": [
        {
          "internalType": "bool",
          "name": "",
          "type": "bool"
        }
      ],
      "stateMutability": "view",
      "type": "function"
    },
    {
      "inputs": [
        {
          "internalType": "address",
          "name": "",
          "type": "address"
        }
      ],
      "name": "assets",
      "outputs": [
        {
          "internalType": "uint128",
          "name": "emissionPerSecond",
          "type": "uint128"
        },
        {
          "internalType": "uint128",
          "name": "lastUpdateTimestamp",
          "type": "uint128"
        },
        {
          "internalType": "uint256",
          "name": "index",
          "type": "uint256"
        }
      ],
      "stateMutability": "view",
      "type": "function"
    },
    {
      "inputs": [],
      "name": "balanceHook",
      "outputs": [
        {
          "internalType": "contract IBalanceHook",
          "name": "",
          "type": "address"
        }
      ],
      "stateMutability": "view",
      "type": "function"
    },
    {
      "inputs": [
        {
          "internalType": "uint256",
          "name": "gradient",
          "type": "uint256"
        },
        {
          "internalType": "uint256",
          "name": "starLevel",
          "type": "uint256"
        }
      ],
      "name": "caculatePower",
      "outputs": [
        {
          "internalType": "uint256",
          "name": "power",
          "type": "uint256"
        }
      ],
      "stateMutability": "pure",
      "type": "function"
    },
    {
      "inputs": [],
      "name": "claimRewards",
      "outputs": [],
      "stateMutability": "nonpayable",
      "type": "function"
    },
    {
      "inputs": [
        {
          "internalType": "address",
          "name": "to",
          "type": "address"
        }
      ],
      "name": "claimRewardsOnbehalfOf",
      "outputs": [],
      "stateMutability": "nonpayable",
      "type": "function"
    },
    {
      "inputs": [
        {
          "components": [
            {
              "internalType": "uint128",
              "name": "emissionPerSecond",
              "type": "uint128"
            },
            {
              "internalType": "uint256",
              "name": "totalPower",
              "type": "uint256"
            },
            {
              "internalType": "address",
              "name": "underlyingAsset",
              "type": "address"
            }
          ],
          "internalType": "struct DistributionTypes.AssetConfigInput[]",
          "name": "assetsConfigInput",
          "type": "tuple[]"
        }
      ],
      "name": "configureAssets",
      "outputs": [],
      "stateMutability": "nonpayable",
      "type": "function"
    },
    {
      "inputs": [],
      "name": "coolDownDuration",
      "outputs": [
        {
          "internalType": "uint256",
          "name": "",
          "type": "uint256"
        }
      ],
      "stateMutability": "view",
      "type": "function"
    },
    {
      "inputs": [
        {
          "internalType": "uint256",
          "name": "tokenId",
          "type": "uint256"
        },
        {
          "internalType": "address",
          "name": "asset",
          "type": "address"
        }
      ],
      "name": "getTokenAssetData",
      "outputs": [
        {
          "internalType": "uint256",
          "name": "",
          "type": "uint256"
        }
      ],
      "stateMutability": "view",
      "type": "function"
    },
    {
      "inputs": [
        {
          "internalType": "uint256",
          "name": "tokenId",
          "type": "uint256"
        }
      ],
      "name": "getTokenOwner",
      "outputs": [
        {
          "internalType": "address",
          "name": "",
          "type": "address"
        }
      ],
      "stateMutability": "view",
      "type": "function"
    },
    {
      "inputs": [
        {
          "internalType": "uint256",
          "name": "tokenId",
          "type": "uint256"
        }
      ],
      "name": "getTokenPower",
      "outputs": [
        {
          "internalType": "uint256",
          "name": "power",
          "type": "uint256"
        }
      ],
      "stateMutability": "view",
      "type": "function"
    },
    {
      "inputs": [
        {
          "internalType": "address",
          "name": "staker",
          "type": "address"
        }
      ],
      "name": "getUnClaimedRewards",
      "outputs": [
        {
          "internalType": "uint256",
          "name": "",
          "type": "uint256"
        }
      ],
      "stateMutability": "view",
      "type": "function"
    },
    {
      "inputs": [
        {
          "internalType": "uint256",
          "name": "tokenId",
          "type": "uint256"
        }
      ],
      "name": "getUnClaimedRewardsByToken",
      "outputs": [
        {
          "internalType": "uint256",
          "name": "",
          "type": "uint256"
        }
      ],
      "stateMutability": "view",
      "type": "function"
    },
    {
      "inputs": [
        {
          "internalType": "uint256[]",
          "name": "tokenIds",
          "type": "uint256[]"
        }
      ],
      "name": "getUnClaimedRewardsByTokens",
      "outputs": [
        {
          "internalType": "uint256[]",
          "name": "amount",
          "type": "uint256[]"
        }
      ],
      "stateMutability": "view",
      "type": "function"
    },
    {
      "inputs": [
        {
          "internalType": "address",
          "name": "user",
          "type": "address"
        },
        {
          "internalType": "uint256",
          "name": "pageSt",
          "type": "uint256"
        },
        {
          "internalType": "uint256",
          "name": "pageSz",
          "type": "uint256"
        }
      ],
      "name": "getUserStakedInfoByPage",
      "outputs": [
        {
          "components": [
            {
              "internalType": "address",
              "name": "owner",
              "type": "address"
            },
            {
              "internalType": "uint256",
              "name": "tokenId",
              "type": "uint256"
            },
            {
              "internalType": "uint256",
              "name": "unclaimed",
              "type": "uint256"
            },
            {
              "internalType": "uint256",
              "name": "cooldown",
              "type": "uint256"
            }
          ],
          "internalType": "struct IStakedSoccerStarNftV2.TokenStakedInfo[]",
          "name": "userStaked",
          "type": "tuple[]"
        }
      ],
      "stateMutability": "view",
      "type": "function"
    },
    {
      "inputs": [
        {
          "internalType": "contract IBIBNode",
          "name": "_node",
          "type": "address"
        },
        {
          "internalType": "contract ISoccerStarNft",
          "name": "stakedToken",
          "type": "address"
        },
        {
          "internalType": "contract IERC20",
          "name": "rewardToken",
          "type": "address"
        },
        {
          "internalType": "address",
          "name": "rewardsVault",
          "type": "address"
        },
        {
          "internalType": "uint128",
          "name": "distributionDuration",
          "type": "uint128"
        }
      ],
      "name": "initialize",
      "outputs": [],
      "stateMutability": "nonpayable",
      "type": "function"
    },
    {
      "inputs": [
        {
          "internalType": "uint256",
          "name": "tokenId",
          "type": "uint256"
        }
      ],
      "name": "isStaked",
      "outputs": [
        {
          "internalType": "bool",
          "name": "",
          "type": "bool"
        }
      ],
      "stateMutability": "view",
      "type": "function"
    },
    {
      "inputs": [
        {
          "internalType": "uint256",
          "name": "tokenId",
          "type": "uint256"
        }
      ],
      "name": "isUnfreezing",
      "outputs": [
        {
          "internalType": "bool",
          "name": "",
          "type": "bool"
        }
      ],
      "stateMutability": "view",
      "type": "function"
    },
    {
      "inputs": [
        {
          "internalType": "uint256",
          "name": "tokenId",
          "type": "uint256"
        }
      ],
      "name": "isWithdrawAble",
      "outputs": [
        {
          "internalType": "bool",
          "name": "",
          "type": "bool"
        }
      ],
      "stateMutability": "view",
      "type": "function"
    },
    {
      "inputs": [],
      "name": "owner",
      "outputs": [
        {
          "internalType": "address",
          "name": "",
          "type": "address"
        }
      ],
      "stateMutability": "view",
      "type": "function"
    },
    {
      "inputs": [],
      "name": "paused",
      "outputs": [
        {
          "internalType": "bool",
          "name": "",
          "type": "bool"
        }
      ],
      "stateMutability": "view",
      "type": "function"
    },
    {
      "inputs": [
        {
          "internalType": "uint256",
          "name": "tokenId",
          "type": "uint256"
        }
      ],
      "name": "redeem",
      "outputs": [],
      "stateMutability": "nonpayable",
      "type": "function"
    },
    {
      "inputs": [],
      "name": "renounceOwnership",
      "outputs": [],
      "stateMutability": "nonpayable",
      "type": "function"
    },
    {
      "inputs": [
        {
          "internalType": "address",
          "name": "_protAddr",
          "type": "address"
        },
        {
          "internalType": "bool",
          "name": "value",
          "type": "bool"
        }
      ],
      "name": "setAllowProtocolToCall",
      "outputs": [],
      "stateMutability": "nonpayable",
      "type": "function"
    },
    {
      "inputs": [
        {
          "internalType": "address",
          "name": "_newValue",
          "type": "address"
        }
      ],
      "name": "setBalanceHook",
      "outputs": [],
      "stateMutability": "nonpayable",
      "type": "function"
    },
    {
      "inputs": [
        {
          "internalType": "uint256",
          "name": "_coolDownDuration",
          "type": "uint256"
        }
      ],
      "name": "setCoolDownDuration",
      "outputs": [],
      "stateMutability": "nonpayable",
      "type": "function"
    },
    {
      "inputs": [
        {
          "internalType": "uint256",
          "name": "distributionDuration",
          "type": "uint256"
        }
      ],
      "name": "setDistributionDuration",
      "outputs": [],
      "stateMutability": "nonpayable",
      "type": "function"
    },
    {
      "inputs": [
        {
          "internalType": "address",
          "name": "_newValue",
          "type": "address"
        }
      ],
      "name": "setRewardToken",
      "outputs": [],
      "stateMutability": "nonpayable",
      "type": "function"
    },
    {
      "inputs": [
        {
          "internalType": "address",
          "name": "_newValue",
          "type": "address"
        }
      ],
      "name": "setRewardVault",
      "outputs": [],
      "stateMutability": "nonpayable",
      "type": "function"
    },
    {
      "inputs": [
        {
          "internalType": "address",
          "name": "_newValue",
          "type": "address"
        }
      ],
      "name": "setStakedToken",
      "outputs": [],
      "stateMutability": "nonpayable",
      "type": "function"
    },
    {
      "inputs": [
        {
          "internalType": "uint256[]",
          "name": "tokenIds",
          "type": "uint256[]"
        }
      ],
      "name": "stake",
      "outputs": [],
      "stateMutability": "nonpayable",
      "type": "function"
    },
    {
      "inputs": [
        {
          "internalType": "uint256",
          "name": "tokenId",
          "type": "uint256"
        }
      ],
      "name": "stake",
      "outputs": [],
      "stateMutability": "nonpayable",
      "type": "function"
    },
    {
      "inputs": [
        {
          "internalType": "uint256",
          "name": "",
          "type": "uint256"
        }
      ],
      "name": "tokenStakedInfoTb",
      "outputs": [
        {
          "internalType": "address",
          "name": "owner",
          "type": "address"
        },
        {
          "internalType": "uint256",
          "name": "tokenId",
          "type": "uint256"
        },
        {
          "internalType": "uint256",
          "name": "unclaimed",
          "type": "uint256"
        },
        {
          "internalType": "uint256",
          "name": "cooldown",
          "type": "uint256"
        }
      ],
      "stateMutability": "view",
      "type": "function"
    },
    {
      "inputs": [],
      "name": "totalPower",
      "outputs": [
        {
          "internalType": "uint256",
          "name": "",
          "type": "uint256"
        }
      ],
      "stateMutability": "view",
      "type": "function"
    },
    {
      "inputs": [],
      "name": "totalStaked",
      "outputs": [
        {
          "internalType": "uint256",
          "name": "",
          "type": "uint256"
        }
      ],
      "stateMutability": "view",
      "type": "function"
    },
    {
      "inputs": [
        {
          "internalType": "address",
          "name": "newOwner",
          "type": "address"
        }
      ],
      "name": "transferOwnership",
      "outputs": [],
      "stateMutability": "nonpayable",
      "type": "function"
    },
    {
      "inputs": [
        {
          "internalType": "uint256",
          "name": "tokenId",
          "type": "uint256"
        },
        {
          "internalType": "address",
          "name": "to",
          "type": "address"
        }
      ],
      "name": "transferOwnershipNFT",
      "outputs": [],
      "stateMutability": "nonpayable",
      "type": "function"
    },
    {
      "inputs": [
        {
          "internalType": "uint256",
          "name": "tokenId",
          "type": "uint256"
        },
        {
          "internalType": "uint256",
          "name": "starLevel",
          "type": "uint256"
        }
      ],
      "name": "updateStarlevel",
      "outputs": [],
      "stateMutability": "nonpayable",
      "type": "function"
    },
    {
      "inputs": [
        {
          "internalType": "address",
          "name": "",
          "type": "address"
        },
        {
          "internalType": "uint256",
          "name": "",
          "type": "uint256"
        }
      ],
      "name": "userStakedTokenTb",
      "outputs": [
        {
          "internalType": "uint256",
          "name": "",
          "type": "uint256"
        }
      ],
      "stateMutability": "view",
      "type": "function"
    },
    {
      "inputs": [
        {
          "internalType": "address",
          "name": "",
          "type": "address"
        }
      ],
      "name": "userTotalPower",
      "outputs": [
        {
          "internalType": "uint256",
          "name": "",
          "type": "uint256"
        }
      ],
      "stateMutability": "view",
      "type": "function"
    },
    {
      "inputs": [
        {
          "internalType": "uint256",
          "name": "tokenId",
          "type": "uint256"
        }
      ],
      "name": "withdraw",
      "outputs": [],
      "stateMutability": "nonpayable",
      "type": "function"
    }
  ],
  "bytecode": "0x608060405234801561001057600080fd5b506138ce806100206000396000f3fe608060405234801561001057600080fd5b50600436106102955760003560e01c806387c5d83211610167578063b2a5dbfa116100ce578063db006a7511610087578063db006a7514610641578063db21544e14610654578063db3ad22c14610667578063e8a44ae014610670578063f11b818814610690578063f2fde38b146106f257600080fd5b8063b2a5dbfa146105cf578063b3bc2b02146105e2578063b41021fc146105f5578063b6696cec14610608578063baa51f861461061b578063c177a00b1461062e57600080fd5b8063a121bcba11610120578063a121bcba146104ea578063a5be4e8d146104fd578063a5cd761f14610566578063a694fc3a1461058f578063aaf5eb68146105a2578063aca11980146105bc57600080fd5b806387c5d832146104845780638aee8127146104975780638da5cb5b146104aa578063919cd40f146104bb578063946776cd146104c457806399248ea7146104d757600080fd5b806352e9c6d41161020b578063715018a6116101c4578063715018a6146104315780637ae6d741146104395780638125dd101461044c578063817b1cd21461045f57806382eab3471461046857806384b98f001461047b57600080fd5b806352e9c6d4146103ba578063547ccbb6146103cd578063556edccb146103e05780635c975abb146103f35780635d3c0cfe146103fe5780635e0024331461041157600080fd5b80632e1a7d4d1161025d5780632e1a7d4d1461033b578063312f6b831461034e578063372500ab1461037957806344aa46e51461038157806351bfcdbd1461039457806351dec623146103a757600080fd5b80630498e2a71461029a5780630afdd4e9146102c05780630fbf0a93146102f357806316d7a8b3146103085780632a22820a14610328575b600080fd5b6102ad6102a8366004612fb5565b610705565b6040519081526020015b60405180910390f35b6102e36102ce366004612fe5565b60a46020526000908152604090205460ff1681565b60405190151581526020016102b7565b610306610301366004613072565b610733565b005b61031b610316366004613118565b61077f565b6040516102b7919061314d565b6102ad6103363660046131ba565b610914565b6103066103493660046131dc565b6109d0565b609954610361906001600160a01b031681565b6040516001600160a01b0390911681526020016102b7565b610306610c00565b61030661038f366004613203565b610d1e565b609c54610361906001600160a01b031681565b6102ad6103b5366004613231565b610d51565b6103066103c8366004612fe5565b610d82565b6102e36103db3660046131dc565b610e19565b6103066103ee3660046131dc565b610e53565b60335460ff166102e3565b61030661040c3660046131dc565b610e9d565b6102ad61041f366004612fe5565b60a36020526000908152604090205481565b610306610eb5565b6103066104473660046131ba565b610ec9565b61030661045a366004612fe5565b6111bd565b6102ad609f5481565b610306610476366004613279565b611254565b6102ad609e5481565b6102ad6104923660046131dc565b6113a9565b6103066104a5366004612fe5565b611475565b6065546001600160a01b0316610361565b6102ad60975481565b609d54610361906001600160a01b031681565b609a54610361906001600160a01b031681565b609b54610361906001600160a01b031681565b61053c61050b3660046131dc565b60a26020526000908152604090208054600182015460028301546003909301546001600160a01b0390921692909184565b604080516001600160a01b03909516855260208501939093529183015260608201526080016102b7565b6103616105743660046131dc565b600090815260a260205260409020546001600160a01b031690565b61030661059d3660046131dc565b61150c565b6105aa601281565b60405160ff90911681526020016102b7565b6102ad6105ca366004612fe5565b611520565b6103066105dd3660046132e6565b6115ac565b6103066105f0366004612fb5565b61175c565b610306610603366004612fe5565b611bdf565b6102ad6106163660046131dc565b611cc1565b6102e36106293660046131dc565b611d87565b61030661063c366004612fe5565b611db1565b61030661064f3660046131dc565b611e48565b6102e36106623660046131dc565b61217e565b6102ad60a05481565b61068361067e366004613072565b6121b9565b6040516102b7919061335b565b6106cc61069e366004612fe5565b609860205260009081526040902080546001909101546001600160801b0380831692600160801b9004169083565b604080516001600160801b039485168152939092166020840152908201526060016102b7565b610306610700366004612fe5565b61234a565b6001600160a01b03811660009081526098602090815260408083208584526002019091529020545b92915050565b61073b6123c0565b60005b815181101561077b5761076982828151811061075c5761075c61339f565b6020026020010151612406565b80610773816133cb565b91505061073e565b5050565b6001600160a01b038316600090815260a160205260409020805460609182918510156109095760006107b185876133e6565b825490915081116107c257806107c5565b81545b90506107d186826133fe565b67ffffffffffffffff8111156107e9576107e9613002565b60405190808252806020026020018201604052801561084e57816020015b61083b604051806080016040528060006001600160a01b031681526020016000815260200160008152602001600081525090565b8152602001906001900390816108075790505b50925060005b818710156109065760a260008489815481106108725761087261339f565b600091825260208083209091015483528281019390935260409182019020815160808101835281546001600160a01b0316815260018201549381019390935260028101549183019190915260030154606082015284518590839081106108da576108da61339f565b602002602001018190525086806108f0906133cb565b97505080806108fe906133cb565b915050610854565b50505b5090505b9392505050565b60008083118015610926575060048311155b61096a5760405162461bcd60e51b815260206004820152601060248201526f1253959053125117d1d490511251539560821b60448201526064015b60405180910390fd5b60008211801561097b575060048211155b6109bb5760405162461bcd60e51b81526020600482015260116024820152701253959053125117d4d510549311559153607a1b6044820152606401610961565b61090d6109c9836001612635565b8490612677565b6109d86123c0565b600081815260a260205260409020546001600160a01b03163314610a0e5760405162461bcd60e51b815260040161096190613415565b610a1781610e19565b610a565760405162461bcd60e51b815260206004820152601060248201526f4e4f545f574954484452415741424c4560801b6044820152606401610961565b609954600082815260a2602052604090819020549051632142170760e11b81526001600160a01b03928316926342842e0e92610a9c92309290911690869060040161343e565b600060405180830381600087803b158015610ab657600080fd5b505af1158015610aca573d6000803e3d6000fd5b505050600082815260a26020908152604080832080546001600160a01b0319168155600181018490556002810184905560030183905533835260a1909152812091505b8154811015610bc25782828281548110610b2957610b2961339f565b90600052602060002001541415610bb05781548290610b4a906001906133fe565b81548110610b5a57610b5a61339f565b9060005260206000200154828281548110610b7757610b7761339f565b906000526020600020018190555081805480610b9557610b95613462565b60019003818190600052602060002001600090559055610bc2565b80610bba816133cb565b915050610b0d565b5060408051338152602081018490527f884edad9ce6fa2440d8a54cc123490eb96d2768479d49ff9c7366125a9424364910160405180910390a15050565b610c086123c0565b33600090815260a160205260408120815b8154811015610cff57610c47828281548110610c3757610c3761339f565b9060005260206000200154611d87565b15610ced576000610c98838381548110610c6357610c6361339f565b9060005260206000200154610c93858581548110610c8357610c8361339f565b90600052602060002001546113a9565b6126b8565b905060008051602061387983398151915233848481548110610cbc57610cbc61339f565b906000526020600020015483604051610cd793929190613478565b60405180910390a1610ce981856133e6565b9350505b80610cf7816133cb565b915050610c19565b50609d54609a5461077b916001600160a01b03918216911633856126c8565b610d26612726565b6001600160a01b0391909116600090815260a460205260409020805460ff1916911515919091179055565b60a16020528160005260406000208181548110610d6d57600080fd5b90600052602060002001600091509150505481565b610d8a612726565b6001600160a01b038116610db05760405162461bcd60e51b815260040161096190613499565b6099546040517fca507fc7d32f26f3815659b59a6d39afd1c1cc2c78b0fbdd74f0dad712f9789891610def9133916001600160a01b03169085906134c2565b60405180910390a1609980546001600160a01b0319166001600160a01b0392909216919091179055565b600081815260a26020526040812060030154801580159061090d575042610e4b609e548361278090919063ffffffff16565b109392505050565b610e5b612726565b7f06ac1cebebe4e2e4624dd139ecd309ff03fd013e0754611056b39c439f8a74bd33609e5483604051610e9093929190613478565b60405180910390a1609e55565b610ea5612726565b610eaf4282612780565b60975550565b610ebd612726565b610ec760006127df565b565b33600090815260a4602052604090205460ff16610f1d5760405162461bcd60e51b815260206004820152601260248201527113d3931657d41493d513d0d3d317d0d0531360721b6044820152606401610961565b610f2682611d87565b610f655760405162461bcd60e51b815260206004820152601060248201526f1513d2d15397d393d517d4d51052d15160821b6044820152606401610961565b600082815260a260205260408120546001600160a01b031690610f8784611cc1565b609d54609a54919250610fa8916001600160a01b03908116911684846126c8565b600080516020613879833981519152828583604051610fc993929190613478565b60405180910390a1609954604051637ae6d74160e01b815260048101869052602481018590526001600160a01b0390911690637ae6d74190604401600060405180830381600087803b15801561101e57600080fd5b505af1158015611032573d6000803e3d6000fd5b50506099546040516301ff8f7360e41b815260048101889052600093506001600160a01b039091169150631ff8f73090602401600060405180830381865afa158015611082573d6000803e3d6000fd5b505050506040513d6000823e601f3d908101601f191682016040526110aa9190810190613575565b905060006110bc826080015186610914565b6001600160a01b038516600090815260a3602052604090208054908290559091508082111561110b576110ef81836133fe565b60a0600082825461110091906133e6565b9091555061112c9050565b61111581836133fe565b60a0600082825461112691906133fe565b90915550505b61113b8730600060a054612831565b50609b546001600160a01b0316156111b457609b546040516304e3034f60e31b81526001600160a01b03909116906327181a78906111819033908b908790600401613478565b600060405180830381600087803b15801561119b57600080fd5b505af11580156111af573d6000803e3d6000fd5b505050505b50505050505050565b6111c5612726565b6001600160a01b0381166111eb5760405162461bcd60e51b815260040161096190613499565b609d546040517f44aadd56134558a1767b44c12fb2ffd2c3c304a7a77ebedc03ddf7b78f7939489161122a9133916001600160a01b03169085906134c2565b60405180910390a1609d80546001600160a01b0319166001600160a01b0392909216919091179055565b600054600190610100900460ff16158015611276575060005460ff8083169116105b6112d95760405162461bcd60e51b815260206004820152602e60248201527f496e697469616c697a61626c653a20636f6e747261637420697320616c72656160448201526d191e481a5b9a5d1a585b1a5e995960921b6064820152608401610961565b6000805461ffff191660ff831617610100179055609980546001600160a01b038088166001600160a01b031992831617909255609a8054878416908316179055609d8054868416908316179055609c80549289169290911691909117905561133f6128ea565b611347612919565b62093a80609e556113606001600160801b038316610e9d565b6000805461ff001916905560405160ff821681527f7f26b83ff96e1f2b6a682f133852f6798a09c465da95921460cefb38474024989060200160405180910390a1505050505050565b6099546040516301ff8f7360e41b81526004810183905260009182916001600160a01b0390911690631ff8f73090602401600060405180830381865afa1580156113f7573d6000803e3d6000fd5b505050506040513d6000823e601f3d908101601f1916820160405261141f9190810190613575565b905060008160600151116114635760405162461bcd60e51b815260206004820152600b60248201526a10d0549117d5539491505360aa1b6044820152606401610961565b61090d81608001518260600151610914565b61147d612726565b6001600160a01b0381166114a35760405162461bcd60e51b815260040161096190613499565b609a546040517f60c2ec68191b35d1fff2d50e8b3fcc9bec20cddbf9b57d9ce4d73fe74406f106916114e29133916001600160a01b03169085906134c2565b60405180910390a1609a80546001600160a01b0319166001600160a01b0392909216919091179055565b6115146123c0565b61151d81612406565b50565b6001600160a01b038116600090815260a1602052604081208190815b81548110156115a35761155a828281548110610c3757610c3761339f565b15611591576115848282815481106115745761157461339f565b9060005260206000200154611cc1565b61158e90846133e6565b92505b8061159b816133cb565b91505061153c565b50909392505050565b6115b4612726565b60005b81811015611757576000609860008585858181106115d7576115d761339f565b90506060020160400160208101906115ef9190612fe5565b6001600160a01b03166001600160a01b0316815260200190815260200160002090506116608484848181106116265761162661339f565b905060600201604001602081019061163e9190612fe5565b828686868181106116515761165161339f565b90506060020160200135612948565b508383838181106116735761167361339f565b6116899260206060909202019081019150613641565b81546fffffffffffffffffffffffffffffffff19166001600160801b03919091161781558383838181106116bf576116bf61339f565b90506060020160400160208101906116d79190612fe5565b6001600160a01b03167f87fa03892a0556cb6b8f97e6d533a150d4d55fcbf275fff5fa003fa636bcc7fa8585858181106117135761171361339f565b6117299260206060909202019081019150613641565b6040516001600160801b03909116815260200160405180910390a2508061174f816133cb565b9150506115b7565b505050565b33600090815260a4602052604090205460ff166117b05760405162461bcd60e51b815260206004820152601260248201527113d3931657d41493d513d0d3d317d0d0531360721b6044820152606401610961565b6117b982611d87565b6117f85760405162461bcd60e51b815260206004820152601060248201526f1513d2d15397d393d517d4d51052d15160821b6044820152606401610961565b600082815260a260205260409020546001600160a01b039081169082168114156118515760405162461bcd60e51b815260206004820152600a60248201526929a0a6a2afa7aba722a960b11b6044820152606401610961565b600083815260a26020908152604080832080546001600160a01b0319166001600160a01b03878116919091179091558416835260a19091528120905b815481101561194257848282815481106118a9576118a961339f565b9060005260206000200154141561193057815482906118ca906001906133fe565b815481106118da576118da61339f565b90600052602060002001548282815481106118f7576118f761339f565b90600052602060002001819055508180548061191557611915613462565b60019003818190600052602060002001600090559055611942565b8061193a816133cb565b91505061188d565b506001600160a01b03838116600090815260a160209081526040808320805460018101825590845291832090910187905560995490516301ff8f7360e41b81526004810188905291921690631ff8f73090602401600060405180830381865afa1580156119b3573d6000803e3d6000fd5b505050506040513d6000823e601f3d908101601f191682016040526119db9190810190613575565b905060006119f182608001518360600151610914565b6001600160a01b038516600090815260a36020526040812080549293508392909190611a1e9084906133fe565b90915550506001600160a01b038516600090815260a3602052604081208054839290611a4b9084906133e6565b9091555060009050611a5d87836126b8565b609d54609a54919250611a7e916001600160a01b03908116911687846126c8565b600080516020613879833981519152858883604051611a9f93929190613478565b60405180910390a1609b546001600160a01b031615611b8657609b546040516304e3034f60e31b81526001600160a01b03909116906327181a7890611aed9088908b90600090600401613478565b600060405180830381600087803b158015611b0757600080fd5b505af1158015611b1b573d6000803e3d6000fd5b5050609b546040516304e3034f60e31b81526001600160a01b0390911692506327181a789150611b539089908b908790600401613478565b600060405180830381600087803b158015611b6d57600080fd5b505af1158015611b81573d6000803e3d6000fd5b505050505b60408051338152602081018990526001600160a01b03878116828401528816606082015290517fe54d65876373ae0d214d87fc1ec9d5750e5fdb4057e3876f3937b747d0073d1b9181900360800190a150505050505050565b611be76123c0565b6001600160a01b038116600090815260a160205260408120815b8154811015611ca257611c1f828281548110610c3757610c3761339f565b15611c90576000611c3b838381548110610c6357610c6361339f565b905060008051602061387983398151915285848481548110611c5f57611c5f61339f565b906000526020600020015483604051611c7a93929190613478565b60405180910390a1611c8c81856133e6565b9350505b80611c9a816133cb565b915050611c01565b50609d54609a54611757916001600160a01b03918216911685856126c8565b6000611ccc82611d87565b611cd857506000919050565b604080516001808252818301909252600091816020015b611d1c604051806060016040528060006001600160a01b0316815260200160008152602001600081525090565b815260200190600190039081611cef5790505090506040518060600160405280306001600160a01b03168152602001611d54856113a9565b815260200160a05481525081600081518110611d7257611d7261339f565b602002602001018190525061090d8382612a00565b600081815260a260205260408120611d9f8330612afc565b801561090d5750600301541592915050565b611db9612726565b6001600160a01b038116611ddf5760405162461bcd60e51b815260040161096190613499565b609b546040517f77733bc40883159fa5314987682f9eba84f49ef5dfdf3c51f3ee1db5a694f34c91611e1e9133916001600160a01b03169085906134c2565b60405180910390a1609b80546001600160a01b0319166001600160a01b0392909216919091179055565b611e506123c0565b611e5981611d87565b611e985760405162461bcd60e51b815260206004820152601060248201526f1513d2d15397d393d517d4d05512d15160821b6044820152606401610961565b600081815260a260205260409020546001600160a01b03163314611ece5760405162461bcd60e51b815260040161096190613415565b609c5460405163893c8cc160e01b8152600481018390526001600160a01b039091169063893c8cc190602401602060405180830381865afa158015611f17573d6000803e3d6000fd5b505050506040513d601f19601f82011682018060405250810190611f3b919061365c565b15611f7f5760405162461bcd60e51b8152602060048201526014602482015273544f4b454e5f5354414b45445f41535f4e4f444560601b6044820152606401610961565b6000611f8a826113a9565b90506000611f9883836126b8565b609a54609d54600086815260a26020526040908190205490516323b872dd60e01b81529394506001600160a01b03928316936323b872dd93611fe3938116921690869060040161343e565b6020604051808303816000875af1158015612002573d6000803e3d6000fd5b505050506040513d601f19601f82011682018060405250810190612026919061365c565b50600083815260a260205260409081902054905160008051602061387983398151915291612063916001600160a01b039091169086908590613478565b60405180910390a18160a0600082825461207d91906133fe565b9091555050609f805490600061209283613679565b909155505033600090815260a36020526040812080548492906120b69084906133fe565b9091555050600083815260a260209081526040918290204260039091015581513381529081018590527f222838db2794d11532d940e8dec38ae307ed0b63cd97c233322e221f998767a6910160405180910390a1609b546001600160a01b03161561175757609b546040516304e3034f60e31b81526001600160a01b03909116906327181a78906121509033908790600090600401613478565b600060405180830381600087803b15801561216a57600080fd5b505af11580156111b4573d6000803e3d6000fd5b600081815260a26020526040812060030154801580159061090d5750426121b0609e548361278090919063ffffffff16565b10159392505050565b60606000825167ffffffffffffffff8111156121d7576121d7613002565b604051908082528060200260200182016040528015612200578160200160208202803683370190505b5060408051600180825281830190925291925060009190816020015b612249604051806060016040528060006001600160a01b0316815260200160008152602001600081525090565b81526020019060019003908161221c57905050905060005b84518110156115a35761228c85828151811061227f5761227f61339f565b6020026020010151611d87565b15612338576040518060600160405280306001600160a01b031681526020016122cd8784815181106122c0576122c061339f565b60200260200101516113a9565b815260200160a054815250826000815181106122eb576122eb61339f565b602002602001018190525061231985828151811061230b5761230b61339f565b602002602001015183612a00565b83828151811061232b5761232b61339f565b6020026020010181815250505b80612342816133cb565b915050612261565b612352612726565b6001600160a01b0381166123b75760405162461bcd60e51b815260206004820152602660248201527f4f776e61626c653a206e6577206f776e657220697320746865207a65726f206160448201526564647265737360d01b6064820152608401610961565b61151d816127df565b60335460ff1615610ec75760405162461bcd60e51b815260206004820152601060248201526f14185d5cd8589b194e881c185d5cd95960821b6044820152606401610961565b6124108133612afc565b61242c5760405162461bcd60e51b815260040161096190613415565b6099546040516323b872dd60e01b81526001600160a01b03909116906323b872dd906124609033903090869060040161343e565b600060405180830381600087803b15801561247a57600080fd5b505af115801561248e573d6000803e3d6000fd5b505050506124a18130600060a054612831565b5060006124ad826113a9565b90508060a060008282546124c191906133e6565b9091555050609f80549060006124d6836133cb565b909155505033600090815260a36020526040812080548392906124fa9084906133e6565b90915550506040805160808101825233808252602080830186815260008486018181526060860182815289835260a28552878320965187546001600160a01b0319166001600160a01b03909116178755925160018088019190915590516002870155915160039095019490945582845260a182528484208054918201815584529281902090920185905582519081529081018490527febedb8b3c678666e7f36970bc8f57abf6d8fa2e828c0da91ea5b75bf68ed101a910160405180910390a1609b546001600160a01b03161561077b57609b546040516304e3034f60e31b81526001600160a01b03909116906327181a78906125ff90339086908690600401613478565b600060405180830381600087803b15801561261957600080fd5b505af115801561262d573d6000803e3d6000fd5b505050505050565b600061090d83836040518060400160405280601e81526020017f536166654d6174683a207375627472616374696f6e206f766572666c6f770000815250612b86565b6000600160005b838110156126a55761269182600a612bc0565b91508061269d816133cb565b91505061267e565b506126b08482612bc0565b949350505050565b600061090d83308460a054612831565b612720846323b872dd60e01b8585856040516024016126e99392919061343e565b60408051601f198184030181529190526020810180516001600160e01b03166001600160e01b031990931692909217909152612c3f565b50505050565b6065546001600160a01b03163314610ec75760405162461bcd60e51b815260206004820181905260248201527f4f776e61626c653a2063616c6c6572206973206e6f7420746865206f776e65726044820152606401610961565b60008061278d83856133e6565b90508381101561090d5760405162461bcd60e51b815260206004820152601b60248201527f536166654d6174683a206164646974696f6e206f766572666c6f7700000000006044820152606401610961565b606580546001600160a01b038381166001600160a01b0319831681179093556040519116919082907f8be0079c531659141344cd1fd0a4f28419497f9722a3daafe3b4186f6b6457e090600090a35050565b6001600160a01b0383166000908152609860209081526040808320878452600281019092528220548280612866888588612948565b90508083146128de57861561288357612880878285612dc6565b91505b600089815260028501602052604090819020829055516001600160a01b038916908a907facd233ebcfcdfd157686f659e938be145c6d8c3ae3821a2795ae2211d1e9f588906128d59085815260200190565b60405180910390a35b50979650505050505050565b600054610100900460ff166129115760405162461bcd60e51b815260040161096190613690565b610ec7612df1565b600054610100900460ff166129405760405162461bcd60e51b815260040161096190613690565b610ec7612e24565b6001820154825460009190600160801b90046001600160801b0316428114156129735750905061090d565b845460009061298e9084906001600160801b03168488612e54565b90508281146129dd57600186018190556040518181526001600160a01b038816907f5777ca300dfe5bead41006fbce4389794dbc0ed8d6cccebfaf94630aa04184bc9060200160405180910390a25b85546001600160801b03428116600160801b029116178655925050509392505050565b600080805b8351811015612af457600060986000868481518110612a2657612a2661339f565b602090810291909101810151516001600160a01b031682528101919091526040016000908120600181015481548851929450612a94926001600160801b0380831692600160801b900416908a9088908110612a8357612a8361339f565b602002602001015160400151612e54565b9050612add612ad6878581518110612aae57612aae61339f565b602002602001015160200151838560020160008c815260200190815260200160002054612dc6565b8590612780565b935050508080612aec906133cb565b915050612a05565b509392505050565b6099546040516331a9108f60e11b8152600481018490526000916001600160a01b031690636352211e90602401602060405180830381865afa158015612b46573d6000803e3d6000fd5b505050506040513d601f19601f82011682018060405250810190612b6a91906136db565b6001600160a01b0316826001600160a01b031614905092915050565b60008184841115612baa5760405162461bcd60e51b815260040161096191906136f8565b506000612bb784866133fe565b95945050505050565b600082612bcf5750600061072d565b6000612bdb838561372b565b905082612be8858361374a565b1461090d5760405162461bcd60e51b815260206004820152602160248201527f536166654d6174683a206d756c7469706c69636174696f6e206f766572666c6f6044820152607760f81b6064820152608401610961565b612c51826001600160a01b0316612efc565b612c9d5760405162461bcd60e51b815260206004820152601f60248201527f5361666545524332303a2063616c6c20746f206e6f6e2d636f6e7472616374006044820152606401610961565b600080836001600160a01b031683604051612cb8919061376c565b6000604051808303816000865af19150503d8060008114612cf5576040519150601f19603f3d011682016040523d82523d6000602084013e612cfa565b606091505b509150915081612d4c5760405162461bcd60e51b815260206004820181905260248201527f5361666545524332303a206c6f772d6c6576656c2063616c6c206661696c65646044820152606401610961565b8051156127205780806020019051810190612d67919061365c565b6127205760405162461bcd60e51b815260206004820152602a60248201527f5361666545524332303a204552433230206f7065726174696f6e20646964206e6044820152691bdd081cdd58d8d9595960b21b6064820152608401610961565b60006126b0612dd76012600a61386c565b612deb612de48686612635565b8790612bc0565b90612f35565b600054610100900460ff16612e185760405162461bcd60e51b815260040161096190613690565b6033805460ff19169055565b600054610100900460ff16612e4b5760405162461bcd60e51b815260040161096190613690565b610ec7336127df565b6000831580612e61575081155b80612e74575042836001600160801b0316145b80612e8a5750609754836001600160801b031610155b15612e965750836126b0565b60006097544211612ea75742612eab565b6097545b90506000612ec2826001600160801b038716612635565b9050612ef187612eeb86612deb612edb6012600a61386c565b612ee58c88612bc0565b90612bc0565b90612780565b979650505050505050565b6000813f7fc5d2460186f7233c927e7db2dcc703c0e500b653ca82273b7bfad8045d85a4708181148015906126b0575050151592915050565b600061090d83836040518060400160405280601a81526020017f536166654d6174683a206469766973696f6e206279207a65726f00000000000081525060008183612f935760405162461bcd60e51b815260040161096191906136f8565b506000612bb7848661374a565b6001600160a01b038116811461151d57600080fd5b60008060408385031215612fc857600080fd5b823591506020830135612fda81612fa0565b809150509250929050565b600060208284031215612ff757600080fd5b813561090d81612fa0565b634e487b7160e01b600052604160045260246000fd5b60405160a0810167ffffffffffffffff8111828210171561303b5761303b613002565b60405290565b604051601f8201601f1916810167ffffffffffffffff8111828210171561306a5761306a613002565b604052919050565b6000602080838503121561308557600080fd5b823567ffffffffffffffff8082111561309d57600080fd5b818501915085601f8301126130b157600080fd5b8135818111156130c3576130c3613002565b8060051b91506130d4848301613041565b81815291830184019184810190888411156130ee57600080fd5b938501935b8385101561310c578435825293850193908501906130f3565b98975050505050505050565b60008060006060848603121561312d57600080fd5b833561313881612fa0565b95602085013595506040909401359392505050565b602080825282518282018190526000919060409081850190868401855b828110156131ad57815180516001600160a01b0316855286810151878601528581015186860152606090810151908501526080909301929085019060010161316a565b5091979650505050505050565b600080604083850312156131cd57600080fd5b50508035926020909101359150565b6000602082840312156131ee57600080fd5b5035919050565b801515811461151d57600080fd5b6000806040838503121561321657600080fd5b823561322181612fa0565b91506020830135612fda816131f5565b6000806040838503121561324457600080fd5b823561324f81612fa0565b946020939093013593505050565b80356001600160801b038116811461327457600080fd5b919050565b600080600080600060a0868803121561329157600080fd5b853561329c81612fa0565b945060208601356132ac81612fa0565b935060408601356132bc81612fa0565b925060608601356132cc81612fa0565b91506132da6080870161325d565b90509295509295909350565b600080602083850312156132f957600080fd5b823567ffffffffffffffff8082111561331157600080fd5b818501915085601f83011261332557600080fd5b81358181111561333457600080fd5b86602060608302850101111561334957600080fd5b60209290920196919550909350505050565b6020808252825182820181905260009190848201906040850190845b8181101561339357835183529284019291840191600101613377565b50909695505050505050565b634e487b7160e01b600052603260045260246000fd5b634e487b7160e01b600052601160045260246000fd5b60006000198214156133df576133df6133b5565b5060010190565b600082198211156133f9576133f96133b5565b500190565b600082821015613410576134106133b5565b500390565b6020808252600f908201526e2727aa2faa27a5a2a72fa7aba722a960891b604082015260600190565b6001600160a01b039384168152919092166020820152604081019190915260600190565b634e487b7160e01b600052603160045260246000fd5b6001600160a01b039390931683526020830191909152604082015260600190565b6020808252600f908201526e494e56414c49445f4144445245535360881b604082015260600190565b6001600160a01b0393841681529183166020830152909116604082015260600190565b60005b838110156135005781810151838201526020016134e8565b838111156127205750506000910152565b600082601f83011261352257600080fd5b815167ffffffffffffffff81111561353c5761353c613002565b61354f601f8201601f1916602001613041565b81815284602083860101111561356457600080fd5b6126b08260208301602087016134e5565b60006020828403121561358757600080fd5b815167ffffffffffffffff8082111561359f57600080fd5b9083019060a082860312156135b357600080fd5b6135bb613018565b8251828111156135ca57600080fd5b6135d687828601613511565b8252506020830151828111156135eb57600080fd5b6135f787828601613511565b60208301525060408301518281111561360f57600080fd5b61361b87828601613511565b604083015250606083015160608201526080830151608082015280935050505092915050565b60006020828403121561365357600080fd5b61090d8261325d565b60006020828403121561366e57600080fd5b815161090d816131f5565b600081613688576136886133b5565b506000190190565b6020808252602b908201527f496e697469616c697a61626c653a20636f6e7472616374206973206e6f74206960408201526a6e697469616c697a696e6760a81b606082015260800190565b6000602082840312156136ed57600080fd5b815161090d81612fa0565b60208152600082518060208401526137178160408501602087016134e5565b601f01601f19169190910160400192915050565b6000816000190483118215151615613745576137456133b5565b500290565b60008261376757634e487b7160e01b600052601260045260246000fd5b500490565b6000825161377e8184602087016134e5565b9190910192915050565b600181815b808511156137c35781600019048211156137a9576137a96133b5565b808516156137b657918102915b93841c939080029061378d565b509250929050565b6000826137da5750600161072d565b816137e75750600061072d565b81600181146137fd576002811461380757613823565b600191505061072d565b60ff841115613818576138186133b5565b50506001821b61072d565b5060208310610133831016604e8410600b8410161715613846575081810a61072d565b6138508383613788565b8060001904821115613864576138646133b5565b029392505050565b600061090d83836137cb56fee74e5c9d4ac1fc33412485f18c159a0a391efe287ab3fd271123f30e6bacf4e3a264697066735822122032fe135f57aea42f178d3616e95b1e708bea8a74ae7f24fceea8a21c9830fbf564736f6c634300080b0033",
  "linkReferences": {},
  "deployedLinkReferences": {}
}