{
  "_format": "hh-sol-artifact-1",
  "contractName": "StakedSoccerStarNftV2",
  "sourceName": "contracts/stake/StakedSoccerStarNftV2.sol",
  "abi": [
    {
      "anonymous": false,
      "inputs": [
        {
          "indexed": true,
          "internalType": "address",
          "name": "asset",
          "type": "address"
        },
        {
          "indexed": false,
          "internalType": "uint256",
          "name": "emission",
          "type": "uint256"
        }
      ],
      "name": "AssetConfigUpdated",
      "type": "event"
    },
    {
      "anonymous": false,
      "inputs": [
        {
          "indexed": true,
          "internalType": "address",
          "name": "asset",
          "type": "address"
        },
        {
          "indexed": false,
          "internalType": "uint256",
          "name": "index",
          "type": "uint256"
        }
      ],
      "name": "AssetIndexUpdated",
      "type": "event"
    },
    {
      "anonymous": false,
      "inputs": [
        {
          "indexed": false,
          "internalType": "address",
          "name": "sender",
          "type": "address"
        },
        {
          "indexed": false,
          "internalType": "address",
          "name": "oldValue",
          "type": "address"
        },
        {
          "indexed": false,
          "internalType": "address",
          "name": "newValue",
          "type": "address"
        }
      ],
      "name": "BalanceHookChanged",
      "type": "event"
    },
    {
      "anonymous": false,
      "inputs": [
        {
          "indexed": false,
          "internalType": "address",
          "name": "sender",
          "type": "address"
        },
        {
          "indexed": false,
          "internalType": "uint256",
          "name": "tokenId",
          "type": "uint256"
        },
        {
          "indexed": false,
          "internalType": "uint256",
          "name": "amount",
          "type": "uint256"
        }
      ],
      "name": "ClaimReward",
      "type": "event"
    },
    {
      "anonymous": false,
      "inputs": [
        {
          "indexed": false,
          "internalType": "address",
          "name": "sender",
          "type": "address"
        },
        {
          "indexed": false,
          "internalType": "address",
          "name": "oldValue",
          "type": "address"
        },
        {
          "indexed": false,
          "internalType": "address",
          "name": "newValue",
          "type": "address"
        }
      ],
      "name": "CoolDownDurationChanged",
      "type": "event"
    },
    {
      "anonymous": false,
      "inputs": [
        {
          "indexed": false,
          "internalType": "uint8",
          "name": "version",
          "type": "uint8"
        }
      ],
      "name": "Initialized",
      "type": "event"
    },
    {
      "anonymous": false,
      "inputs": [
        {
          "indexed": true,
          "internalType": "address",
          "name": "previousOwner",
          "type": "address"
        },
        {
          "indexed": true,
          "internalType": "address",
          "name": "newOwner",
          "type": "address"
        }
      ],
      "name": "OwnershipTransferred",
      "type": "event"
    },
    {
      "anonymous": false,
      "inputs": [
        {
          "indexed": false,
          "internalType": "address",
          "name": "account",
          "type": "address"
        }
      ],
      "name": "Paused",
      "type": "event"
    },
    {
      "anonymous": false,
      "inputs": [
        {
          "indexed": false,
          "internalType": "address",
          "name": "sender",
          "type": "address"
        },
        {
          "indexed": false,
          "internalType": "uint256",
          "name": "tokenId",
          "type": "uint256"
        }
      ],
      "name": "Redeem",
      "type": "event"
    },
    {
      "anonymous": false,
      "inputs": [
        {
          "indexed": false,
          "internalType": "address",
          "name": "sender",
          "type": "address"
        },
        {
          "indexed": false,
          "internalType": "address",
          "name": "oldValue",
          "type": "address"
        },
        {
          "indexed": false,
          "internalType": "address",
          "name": "newValue",
          "type": "address"
        }
      ],
      "name": "RewardTokenChanged",
      "type": "event"
    },
    {
      "anonymous": false,
      "inputs": [
        {
          "indexed": false,
          "internalType": "address",
          "name": "sender",
          "type": "address"
        },
        {
          "indexed": false,
          "internalType": "address",
          "name": "oldValue",
          "type": "address"
        },
        {
          "indexed": false,
          "internalType": "address",
          "name": "newValue",
          "type": "address"
        }
      ],
      "name": "RewardVaultChanged",
      "type": "event"
    },
    {
      "anonymous": false,
      "inputs": [
        {
          "indexed": false,
          "internalType": "address",
          "name": "sender",
          "type": "address"
        },
        {
          "indexed": false,
          "internalType": "uint256",
          "name": "tokenId",
          "type": "uint256"
        }
      ],
      "name": "Stake",
      "type": "event"
    },
    {
      "anonymous": false,
      "inputs": [
        {
          "indexed": false,
          "internalType": "address",
          "name": "sender",
          "type": "address"
        },
        {
          "indexed": false,
          "internalType": "address",
          "name": "oldValue",
          "type": "address"
        },
        {
          "indexed": false,
          "internalType": "address",
          "name": "newValue",
          "type": "address"
        }
      ],
      "name": "StakedTokenChanged",
      "type": "event"
    },
    {
      "anonymous": false,
      "inputs": [
        {
          "indexed": false,
          "internalType": "address",
          "name": "sender",
          "type": "address"
        },
        {
          "indexed": false,
          "internalType": "uint256",
          "name": "tokenId",
          "type": "uint256"
        },
        {
          "indexed": false,
          "internalType": "address",
          "name": "owner",
          "type": "address"
        },
        {
          "indexed": false,
          "internalType": "address",
          "name": "to",
          "type": "address"
        }
      ],
      "name": "TransferOwnershipNFT",
      "type": "event"
    },
    {
      "anonymous": false,
      "inputs": [
        {
          "indexed": false,
          "internalType": "address",
          "name": "account",
          "type": "address"
        }
      ],
      "name": "Unpaused",
      "type": "event"
    },
    {
      "anonymous": false,
      "inputs": [
        {
          "indexed": true,
          "internalType": "uint256",
          "name": "tokenId",
          "type": "uint256"
        },
        {
          "indexed": true,
          "internalType": "address",
          "name": "asset",
          "type": "address"
        },
        {
          "indexed": false,
          "internalType": "uint256",
          "name": "index",
          "type": "uint256"
        }
      ],
      "name": "UserIndexUpdated",
      "type": "event"
    },
    {
      "anonymous": false,
      "inputs": [
        {
          "indexed": false,
          "internalType": "address",
          "name": "sender",
          "type": "address"
        },
        {
          "indexed": false,
          "internalType": "uint256",
          "name": "tokenId",
          "type": "uint256"
        }
      ],
      "name": "Withdraw",
      "type": "event"
    },
    {
      "inputs": [],
      "name": "DISTRIBUTION_END",
      "outputs": [
        {
          "internalType": "uint256",
          "name": "",
          "type": "uint256"
        }
      ],
      "stateMutability": "view",
      "type": "function"
    },
    {
      "inputs": [],
      "name": "NODE",
      "outputs": [
        {
          "internalType": "contract IBIBNode",
          "name": "",
          "type": "address"
        }
      ],
      "stateMutability": "view",
      "type": "function"
    },
    {
      "inputs": [],
      "name": "PRECISION",
      "outputs": [
        {
          "internalType": "uint8",
          "name": "",
          "type": "uint8"
        }
      ],
      "stateMutability": "view",
      "type": "function"
    },
    {
      "inputs": [],
      "name": "REWARDS_VAULT",
      "outputs": [
        {
          "internalType": "address",
          "name": "",
          "type": "address"
        }
      ],
      "stateMutability": "view",
      "type": "function"
    },
    {
      "inputs": [],
      "name": "REWARD_TOKEN",
      "outputs": [
        {
          "internalType": "contract IERC20",
          "name": "",
          "type": "address"
        }
      ],
      "stateMutability": "view",
      "type": "function"
    },
    {
      "inputs": [],
      "name": "STAKED_TOKEN",
      "outputs": [
        {
          "internalType": "contract ISoccerStarNft",
          "name": "",
          "type": "address"
        }
      ],
      "stateMutability": "view",
      "type": "function"
    },
    {
      "inputs": [
        {
          "internalType": "address",
          "name": "",
          "type": "address"
        }
      ],
      "name": "allowProtocolToCallTb",
      "outputs": [
        {
          "internalType": "bool",
          "name": "",
          "type": "bool"
        }
      ],
      "stateMutability": "view",
      "type": "function"
    },
    {
      "inputs": [
        {
          "internalType": "address",
          "name": "",
          "type": "address"
        }
      ],
      "name": "assets",
      "outputs": [
        {
          "internalType": "uint128",
          "name": "emissionPerSecond",
          "type": "uint128"
        },
        {
          "internalType": "uint128",
          "name": "lastUpdateTimestamp",
          "type": "uint128"
        },
        {
          "internalType": "uint256",
          "name": "index",
          "type": "uint256"
        }
      ],
      "stateMutability": "view",
      "type": "function"
    },
    {
      "inputs": [],
      "name": "balanceHook",
      "outputs": [
        {
          "internalType": "contract IBalanceHook",
          "name": "",
          "type": "address"
        }
      ],
      "stateMutability": "view",
      "type": "function"
    },
    {
      "inputs": [
        {
          "internalType": "uint256",
          "name": "gradient",
          "type": "uint256"
        },
        {
          "internalType": "uint256",
          "name": "starLevel",
          "type": "uint256"
        }
      ],
      "name": "caculatePower",
      "outputs": [
        {
          "internalType": "uint256",
          "name": "power",
          "type": "uint256"
        }
      ],
      "stateMutability": "pure",
      "type": "function"
    },
    {
      "inputs": [],
      "name": "claimRewards",
      "outputs": [],
      "stateMutability": "nonpayable",
      "type": "function"
    },
    {
      "inputs": [
        {
          "internalType": "address",
          "name": "to",
          "type": "address"
        }
      ],
      "name": "claimRewardsOnbehalfOf",
      "outputs": [],
      "stateMutability": "nonpayable",
      "type": "function"
    },
    {
      "inputs": [
        {
          "components": [
            {
              "internalType": "uint128",
              "name": "emissionPerSecond",
              "type": "uint128"
            },
            {
              "internalType": "uint256",
              "name": "totalPower",
              "type": "uint256"
            },
            {
              "internalType": "address",
              "name": "underlyingAsset",
              "type": "address"
            }
          ],
          "internalType": "struct DistributionTypes.AssetConfigInput[]",
          "name": "assetsConfigInput",
          "type": "tuple[]"
        }
      ],
      "name": "configureAssets",
      "outputs": [],
      "stateMutability": "nonpayable",
      "type": "function"
    },
    {
      "inputs": [],
      "name": "coolDownDuration",
      "outputs": [
        {
          "internalType": "uint256",
          "name": "",
          "type": "uint256"
        }
      ],
      "stateMutability": "view",
      "type": "function"
    },
    {
      "inputs": [
        {
          "internalType": "uint256",
          "name": "tokenId",
          "type": "uint256"
        },
        {
          "internalType": "address",
          "name": "asset",
          "type": "address"
        }
      ],
      "name": "getTokenAssetData",
      "outputs": [
        {
          "internalType": "uint256",
          "name": "",
          "type": "uint256"
        }
      ],
      "stateMutability": "view",
      "type": "function"
    },
    {
      "inputs": [
        {
          "internalType": "uint256",
          "name": "tokenId",
          "type": "uint256"
        }
      ],
      "name": "getTokenOwner",
      "outputs": [
        {
          "internalType": "address",
          "name": "",
          "type": "address"
        }
      ],
      "stateMutability": "view",
      "type": "function"
    },
    {
      "inputs": [
        {
          "internalType": "uint256",
          "name": "tokenId",
          "type": "uint256"
        }
      ],
      "name": "getTokenPower",
      "outputs": [
        {
          "internalType": "uint256",
          "name": "power",
          "type": "uint256"
        }
      ],
      "stateMutability": "view",
      "type": "function"
    },
    {
      "inputs": [
        {
          "internalType": "address",
          "name": "staker",
          "type": "address"
        }
      ],
      "name": "getUnClaimedRewards",
      "outputs": [
        {
          "internalType": "uint256",
          "name": "",
          "type": "uint256"
        }
      ],
      "stateMutability": "view",
      "type": "function"
    },
    {
      "inputs": [
        {
          "internalType": "uint256",
          "name": "tokenId",
          "type": "uint256"
        }
      ],
      "name": "getUnClaimedRewardsByToken",
      "outputs": [
        {
          "internalType": "uint256",
          "name": "",
          "type": "uint256"
        }
      ],
      "stateMutability": "view",
      "type": "function"
    },
    {
      "inputs": [
        {
          "internalType": "uint256[]",
          "name": "tokenIds",
          "type": "uint256[]"
        }
      ],
      "name": "getUnClaimedRewardsByTokens",
      "outputs": [
        {
          "internalType": "uint256[]",
          "name": "amount",
          "type": "uint256[]"
        }
      ],
      "stateMutability": "view",
      "type": "function"
    },
    {
      "inputs": [
        {
          "internalType": "address",
          "name": "user",
          "type": "address"
        },
        {
          "internalType": "uint256",
          "name": "pageSt",
          "type": "uint256"
        },
        {
          "internalType": "uint256",
          "name": "pageSz",
          "type": "uint256"
        }
      ],
      "name": "getUserStakedInfoByPage",
      "outputs": [
        {
          "components": [
            {
              "internalType": "address",
              "name": "owner",
              "type": "address"
            },
            {
              "internalType": "uint256",
              "name": "tokenId",
              "type": "uint256"
            },
            {
              "internalType": "uint256",
              "name": "unclaimed",
              "type": "uint256"
            },
            {
              "internalType": "uint256",
              "name": "cooldown",
              "type": "uint256"
            }
          ],
          "internalType": "struct IStakedSoccerStarNftV2.TokenStakedInfo[]",
          "name": "userStaked",
          "type": "tuple[]"
        }
      ],
      "stateMutability": "view",
      "type": "function"
    },
    {
      "inputs": [
        {
          "internalType": "contract IBIBNode",
          "name": "_node",
          "type": "address"
        },
        {
          "internalType": "contract ISoccerStarNft",
          "name": "stakedToken",
          "type": "address"
        },
        {
          "internalType": "contract IERC20",
          "name": "rewardToken",
          "type": "address"
        },
        {
          "internalType": "address",
          "name": "rewardsVault",
          "type": "address"
        },
        {
          "internalType": "uint128",
          "name": "distributionDuration",
          "type": "uint128"
        }
      ],
      "name": "initialize",
      "outputs": [],
      "stateMutability": "nonpayable",
      "type": "function"
    },
    {
      "inputs": [
        {
          "internalType": "uint256",
          "name": "tokenId",
          "type": "uint256"
        }
      ],
      "name": "isStaked",
      "outputs": [
        {
          "internalType": "bool",
          "name": "",
          "type": "bool"
        }
      ],
      "stateMutability": "view",
      "type": "function"
    },
    {
      "inputs": [
        {
          "internalType": "uint256",
          "name": "tokenId",
          "type": "uint256"
        }
      ],
      "name": "isUnfreezing",
      "outputs": [
        {
          "internalType": "bool",
          "name": "",
          "type": "bool"
        }
      ],
      "stateMutability": "view",
      "type": "function"
    },
    {
      "inputs": [
        {
          "internalType": "uint256",
          "name": "tokenId",
          "type": "uint256"
        }
      ],
      "name": "isWithdrawAble",
      "outputs": [
        {
          "internalType": "bool",
          "name": "",
          "type": "bool"
        }
      ],
      "stateMutability": "view",
      "type": "function"
    },
    {
      "inputs": [],
      "name": "owner",
      "outputs": [
        {
          "internalType": "address",
          "name": "",
          "type": "address"
        }
      ],
      "stateMutability": "view",
      "type": "function"
    },
    {
      "inputs": [],
      "name": "paused",
      "outputs": [
        {
          "internalType": "bool",
          "name": "",
          "type": "bool"
        }
      ],
      "stateMutability": "view",
      "type": "function"
    },
    {
      "inputs": [
        {
          "internalType": "uint256",
          "name": "tokenId",
          "type": "uint256"
        }
      ],
      "name": "redeem",
      "outputs": [],
      "stateMutability": "nonpayable",
      "type": "function"
    },
    {
      "inputs": [],
      "name": "renounceOwnership",
      "outputs": [],
      "stateMutability": "nonpayable",
      "type": "function"
    },
    {
      "inputs": [
        {
          "internalType": "address",
          "name": "_protAddr",
          "type": "address"
        },
        {
          "internalType": "bool",
          "name": "value",
          "type": "bool"
        }
      ],
      "name": "setAllowProtocolToCall",
      "outputs": [],
      "stateMutability": "nonpayable",
      "type": "function"
    },
    {
      "inputs": [
        {
          "internalType": "address",
          "name": "_newValue",
          "type": "address"
        }
      ],
      "name": "setBalanceHook",
      "outputs": [],
      "stateMutability": "nonpayable",
      "type": "function"
    },
    {
      "inputs": [
        {
          "internalType": "uint256",
          "name": "distributionDuration",
          "type": "uint256"
        }
      ],
      "name": "setDistributionDuration",
      "outputs": [],
      "stateMutability": "nonpayable",
      "type": "function"
    },
    {
      "inputs": [
        {
          "internalType": "address",
          "name": "_newValue",
          "type": "address"
        }
      ],
      "name": "setRewardToken",
      "outputs": [],
      "stateMutability": "nonpayable",
      "type": "function"
    },
    {
      "inputs": [
        {
          "internalType": "address",
          "name": "_newValue",
          "type": "address"
        }
      ],
      "name": "setRewardVault",
      "outputs": [],
      "stateMutability": "nonpayable",
      "type": "function"
    },
    {
      "inputs": [
        {
          "internalType": "address",
          "name": "_newValue",
          "type": "address"
        }
      ],
      "name": "setStakedToken",
      "outputs": [],
      "stateMutability": "nonpayable",
      "type": "function"
    },
    {
      "inputs": [
        {
          "internalType": "uint256",
          "name": "tokenId",
          "type": "uint256"
        }
      ],
      "name": "stake",
      "outputs": [],
      "stateMutability": "nonpayable",
      "type": "function"
    },
    {
      "inputs": [
        {
          "internalType": "uint256",
          "name": "",
          "type": "uint256"
        }
      ],
      "name": "tokenStakedInfoTb",
      "outputs": [
        {
          "internalType": "address",
          "name": "owner",
          "type": "address"
        },
        {
          "internalType": "uint256",
          "name": "tokenId",
          "type": "uint256"
        },
        {
          "internalType": "uint256",
          "name": "unclaimed",
          "type": "uint256"
        },
        {
          "internalType": "uint256",
          "name": "cooldown",
          "type": "uint256"
        }
      ],
      "stateMutability": "view",
      "type": "function"
    },
    {
      "inputs": [],
      "name": "totalPower",
      "outputs": [
        {
          "internalType": "uint256",
          "name": "",
          "type": "uint256"
        }
      ],
      "stateMutability": "view",
      "type": "function"
    },
    {
      "inputs": [],
      "name": "totalStaked",
      "outputs": [
        {
          "internalType": "uint256",
          "name": "",
          "type": "uint256"
        }
      ],
      "stateMutability": "view",
      "type": "function"
    },
    {
      "inputs": [
        {
          "internalType": "address",
          "name": "newOwner",
          "type": "address"
        }
      ],
      "name": "transferOwnership",
      "outputs": [],
      "stateMutability": "nonpayable",
      "type": "function"
    },
    {
      "inputs": [
        {
          "internalType": "uint256",
          "name": "tokenId",
          "type": "uint256"
        },
        {
          "internalType": "address",
          "name": "to",
          "type": "address"
        }
      ],
      "name": "transferOwnershipNFT",
      "outputs": [],
      "stateMutability": "nonpayable",
      "type": "function"
    },
    {
      "inputs": [
        {
          "internalType": "uint256",
          "name": "tokenId",
          "type": "uint256"
        },
        {
          "internalType": "uint256",
          "name": "starLevel",
          "type": "uint256"
        }
      ],
      "name": "updateStarlevel",
      "outputs": [],
      "stateMutability": "nonpayable",
      "type": "function"
    },
    {
      "inputs": [
        {
          "internalType": "address",
          "name": "",
          "type": "address"
        },
        {
          "internalType": "uint256",
          "name": "",
          "type": "uint256"
        }
      ],
      "name": "userStakedTokenTb",
      "outputs": [
        {
          "internalType": "uint256",
          "name": "",
          "type": "uint256"
        }
      ],
      "stateMutability": "view",
      "type": "function"
    },
    {
      "inputs": [
        {
          "internalType": "address",
          "name": "",
          "type": "address"
        }
      ],
      "name": "userTotalPower",
      "outputs": [
        {
          "internalType": "uint256",
          "name": "",
          "type": "uint256"
        }
      ],
      "stateMutability": "view",
      "type": "function"
    },
    {
      "inputs": [
        {
          "internalType": "uint256",
          "name": "tokenId",
          "type": "uint256"
        }
      ],
      "name": "withdraw",
      "outputs": [],
      "stateMutability": "nonpayable",
      "type": "function"
    }
  ],
  "bytecode": "0x608060405234801561001057600080fd5b506137a6806100206000396000f3fe608060405234801561001057600080fd5b506004361061027f5760003560e01c80638aee81271161015c578063b2a5dbfa116100ce578063db006a7511610087578063db006a7514610605578063db21544e14610618578063db3ad22c1461062b578063e8a44ae014610634578063f11b818814610654578063f2fde38b146106b657600080fd5b8063b2a5dbfa14610593578063b3bc2b02146105a6578063b41021fc146105b9578063b6696cec146105cc578063baa51f86146105df578063c177a00b146105f257600080fd5b8063a121bcba11610120578063a121bcba146104ae578063a5be4e8d146104c1578063a5cd761f1461052a578063a694fc3a14610553578063aaf5eb6814610566578063aca119801461058057600080fd5b80638aee81271461045b5780638da5cb5b1461046e578063919cd40f1461047f578063946776cd1461048857806399248ea71461049b57600080fd5b8063547ccbb6116101f55780637ae6d741116101b95780637ae6d741146103fd5780638125dd1014610410578063817b1cd21461042357806382eab3471461042c57806384b98f001461043f57806387c5d8321461044857600080fd5b8063547ccbb6146103a45780635c975abb146103b75780635d3c0cfe146103c25780635e002433146103d5578063715018a6146103f557600080fd5b8063312f6b8311610247578063312f6b8314610325578063372500ab1461035057806344aa46e51461035857806351bfcdbd1461036b57806351dec6231461037e57806352e9c6d41461039157600080fd5b80630498e2a7146102845780630afdd4e9146102aa57806316d7a8b3146102dd5780632a22820a146102fd5780632e1a7d4d14610310575b600080fd5b610297610292366004612e8d565b6106c9565b6040519081526020015b60405180910390f35b6102cd6102b8366004612ebd565b60a46020526000908152604090205460ff1681565b60405190151581526020016102a1565b6102f06102eb366004612eda565b6106f7565b6040516102a19190612f0f565b61029761030b366004612f7c565b61088c565b61032361031e366004612f9e565b610948565b005b609954610338906001600160a01b031681565b6040516001600160a01b0390911681526020016102a1565b610323610b78565b610323610366366004612fc5565b610c95565b609c54610338906001600160a01b031681565b61029761038c366004612ff3565b610cc8565b61032361039f366004612ebd565b610cf9565b6102cd6103b2366004612f9e565b610d90565b60335460ff166102cd565b6103236103d0366004612f9e565b610dca565b6102976103e3366004612ebd565b60a36020526000908152604090205481565b610323610de2565b61032361040b366004612f7c565b610df6565b61032361041e366004612ebd565b6110ea565b610297609f5481565b61032361043a36600461303b565b611181565b610297609e5481565b610297610456366004612f9e565b6112d4565b610323610469366004612ebd565b6113a0565b6065546001600160a01b0316610338565b61029760975481565b609d54610338906001600160a01b031681565b609a54610338906001600160a01b031681565b609b54610338906001600160a01b031681565b6105006104cf366004612f9e565b60a26020526000908152604090208054600182015460028301546003909301546001600160a01b0390921692909184565b604080516001600160a01b03909516855260208501939093529183015260608201526080016102a1565b610338610538366004612f9e565b600090815260a260205260409020546001600160a01b031690565b610323610561366004612f9e565b611437565b61056e601281565b60405160ff90911681526020016102a1565b61029761058e366004612ebd565b61166e565b6103236105a13660046130a8565b6116fa565b6103236105b4366004612e8d565b6118aa565b6103236105c7366004612ebd565b611d2c565b6102976105da366004612f9e565b611e09565b6102cd6105ed366004612f9e565b611ecf565b610323610600366004612ebd565b611ef9565b610323610613366004612f9e565b611f90565b6102cd610626366004612f9e565b612282565b61029760a05481565b61064761064236600461318d565b6122bd565b6040516102a19190613233565b610690610662366004612ebd565b609860205260009081526040902080546001909101546001600160801b0380831692600160801b9004169083565b604080516001600160801b039485168152939092166020840152908201526060016102a1565b6103236106c4366004612ebd565b61244e565b6001600160a01b03811660009081526098602090815260408083208584526002019091529020545b92915050565b6001600160a01b038316600090815260a16020526040902080546060918291851015610881576000610729858761328d565b8254909150811161073a578061073d565b81545b905061074986826132a5565b67ffffffffffffffff8111156107615761076161311d565b6040519080825280602002602001820160405280156107c657816020015b6107b3604051806080016040528060006001600160a01b031681526020016000815260200160008152602001600081525090565b81526020019060019003908161077f5790505b50925060005b8187101561087e5760a260008489815481106107ea576107ea6132bc565b600091825260208083209091015483528281019390935260409182019020815160808101835281546001600160a01b031681526001820154938101939093526002810154918301919091526003015460608201528451859083908110610852576108526132bc565b60200260200101819052508680610868906132d2565b9750508080610876906132d2565b9150506107cc565b50505b5090505b9392505050565b6000808311801561089e575060048311155b6108e25760405162461bcd60e51b815260206004820152601060248201526f1253959053125117d1d490511251539560821b60448201526064015b60405180910390fd5b6000821180156108f3575060048211155b6109335760405162461bcd60e51b81526020600482015260116024820152701253959053125117d4d510549311559153607a1b60448201526064016108d9565b6108856109418360016124c7565b8490612509565b61095061254a565b600081815260a260205260409020546001600160a01b031633146109865760405162461bcd60e51b81526004016108d9906132ed565b61098f81610d90565b6109ce5760405162461bcd60e51b815260206004820152601060248201526f4e4f545f574954484452415741424c4560801b60448201526064016108d9565b609954600082815260a2602052604090819020549051632142170760e11b81526001600160a01b03928316926342842e0e92610a14923092909116908690600401613316565b600060405180830381600087803b158015610a2e57600080fd5b505af1158015610a42573d6000803e3d6000fd5b505050600082815260a26020908152604080832080546001600160a01b0319168155600181018490556002810184905560030183905533835260a1909152812091505b8154811015610b3a5782828281548110610aa157610aa16132bc565b90600052602060002001541415610b285781548290610ac2906001906132a5565b81548110610ad257610ad26132bc565b9060005260206000200154828281548110610aef57610aef6132bc565b906000526020600020018190555081805480610b0d57610b0d61333a565b60019003818190600052602060002001600090559055610b3a565b80610b32816132d2565b915050610a85565b5060408051338152602081018490527f884edad9ce6fa2440d8a54cc123490eb96d2768479d49ff9c7366125a9424364910160405180910390a15050565b610b8061254a565b33600090815260a160205260408120815b8154811015610c7257610bbf828281548110610baf57610baf6132bc565b9060005260206000200154611ecf565b15610c6057610c0e828281548110610bd957610bd96132bc565b9060005260206000200154610c09848481548110610bf957610bf96132bc565b90600052602060002001546112d4565b612590565b610c18908461328d565b925060008051602061375183398151915233838381548110610c3c57610c3c6132bc565b906000526020600020015485604051610c5793929190613350565b60405180910390a15b80610c6a816132d2565b915050610b91565b50609d54609a54610c91916001600160a01b03918216911633856125a0565b5050565b610c9d6125fe565b6001600160a01b0391909116600090815260a460205260409020805460ff1916911515919091179055565b60a16020528160005260406000208181548110610ce457600080fd5b90600052602060002001600091509150505481565b610d016125fe565b6001600160a01b038116610d275760405162461bcd60e51b81526004016108d990613371565b6099546040517fca507fc7d32f26f3815659b59a6d39afd1c1cc2c78b0fbdd74f0dad712f9789891610d669133916001600160a01b031690859061339a565b60405180910390a1609980546001600160a01b0319166001600160a01b0392909216919091179055565b600081815260a260205260408120600301548015801590610885575042610dc2609e548361265890919063ffffffff16565b109392505050565b610dd26125fe565b610ddc4282612658565b60975550565b610dea6125fe565b610df460006126b7565b565b33600090815260a4602052604090205460ff16610e4a5760405162461bcd60e51b815260206004820152601260248201527113d3931657d41493d513d0d3d317d0d0531360721b60448201526064016108d9565b610e5382611ecf565b610e925760405162461bcd60e51b815260206004820152601060248201526f1513d2d15397d393d517d4d51052d15160821b60448201526064016108d9565b600082815260a260205260408120546001600160a01b031690610eb484611e09565b609d54609a54919250610ed5916001600160a01b03908116911684846125a0565b600080516020613751833981519152828583604051610ef693929190613350565b60405180910390a1609954604051637ae6d74160e01b815260048101869052602481018590526001600160a01b0390911690637ae6d74190604401600060405180830381600087803b158015610f4b57600080fd5b505af1158015610f5f573d6000803e3d6000fd5b50506099546040516301ff8f7360e41b815260048101889052600093506001600160a01b039091169150631ff8f73090602401600060405180830381865afa158015610faf573d6000803e3d6000fd5b505050506040513d6000823e601f3d908101601f19168201604052610fd7919081019061344d565b90506000610fe982608001518661088c565b6001600160a01b038516600090815260a360205260409020805490829055909150808211156110385761101c81836132a5565b60a0600082825461102d919061328d565b909155506110599050565b61104281836132a5565b60a0600082825461105391906132a5565b90915550505b6110688730600060a054612709565b50609b546001600160a01b0316156110e157609b546040516304e3034f60e31b81526001600160a01b03909116906327181a78906110ae9033908b908790600401613350565b600060405180830381600087803b1580156110c857600080fd5b505af11580156110dc573d6000803e3d6000fd5b505050505b50505050505050565b6110f26125fe565b6001600160a01b0381166111185760405162461bcd60e51b81526004016108d990613371565b609d546040517f44aadd56134558a1767b44c12fb2ffd2c3c304a7a77ebedc03ddf7b78f793948916111579133916001600160a01b031690859061339a565b60405180910390a1609d80546001600160a01b0319166001600160a01b0392909216919091179055565b600054600190610100900460ff161580156111a3575060005460ff8083169116105b6112065760405162461bcd60e51b815260206004820152602e60248201527f496e697469616c697a61626c653a20636f6e747261637420697320616c72656160448201526d191e481a5b9a5d1a585b1a5e995960921b60648201526084016108d9565b6000805461ffff191660ff831617610100179055609980546001600160a01b038088166001600160a01b031992831617909255609a8054878416908316179055609d8054868416908316179055609c80549289169290911691909117905561126c6127c2565b6112746127f1565b603c609e5561128b6001600160801b038316610dca565b6000805461ff001916905560405160ff821681527f7f26b83ff96e1f2b6a682f133852f6798a09c465da95921460cefb38474024989060200160405180910390a1505050505050565b6099546040516301ff8f7360e41b81526004810183905260009182916001600160a01b0390911690631ff8f73090602401600060405180830381865afa158015611322573d6000803e3d6000fd5b505050506040513d6000823e601f3d908101601f1916820160405261134a919081019061344d565b9050600081606001511161138e5760405162461bcd60e51b815260206004820152600b60248201526a10d0549117d5539491505360aa1b60448201526064016108d9565b6108858160800151826060015161088c565b6113a86125fe565b6001600160a01b0381166113ce5760405162461bcd60e51b81526004016108d990613371565b609a546040517f60c2ec68191b35d1fff2d50e8b3fcc9bec20cddbf9b57d9ce4d73fe74406f1069161140d9133916001600160a01b031690859061339a565b60405180910390a1609a80546001600160a01b0319166001600160a01b0392909216919091179055565b61143f61254a565b6114498133612820565b6114655760405162461bcd60e51b81526004016108d9906132ed565b6099546040516323b872dd60e01b81526001600160a01b03909116906323b872dd9061149990339030908690600401613316565b600060405180830381600087803b1580156114b357600080fd5b505af11580156114c7573d6000803e3d6000fd5b505050506114da8130600060a054612709565b5060006114e6826112d4565b90508060a060008282546114fa919061328d565b9091555050609f805490600061150f836132d2565b909155505033600090815260a360205260408120805483929061153390849061328d565b90915550506040805160808101825233808252602080830186815260008486018181526060860182815289835260a28552878320965187546001600160a01b0319166001600160a01b03909116178755925160018088019190915590516002870155915160039095019490945582845260a182528484208054918201815584529281902090920185905582519081529081018490527febedb8b3c678666e7f36970bc8f57abf6d8fa2e828c0da91ea5b75bf68ed101a910160405180910390a1609b546001600160a01b031615610c9157609b546040516304e3034f60e31b81526001600160a01b03909116906327181a789061163890339086908690600401613350565b600060405180830381600087803b15801561165257600080fd5b505af1158015611666573d6000803e3d6000fd5b505050505050565b6001600160a01b038116600090815260a1602052604081208190815b81548110156116f1576116a8828281548110610baf57610baf6132bc565b156116df576116d28282815481106116c2576116c26132bc565b9060005260206000200154611e09565b6116dc908461328d565b92505b806116e9816132d2565b91505061168a565b50909392505050565b6117026125fe565b60005b818110156118a557600060986000858585818110611725576117256132bc565b905060600201604001602081019061173d9190612ebd565b6001600160a01b03166001600160a01b0316815260200190815260200160002090506117ae848484818110611774576117746132bc565b905060600201604001602081019061178c9190612ebd565b8286868681811061179f5761179f6132bc565b905060600201602001356128aa565b508383838181106117c1576117c16132bc565b6117d79260206060909202019081019150613519565b81546fffffffffffffffffffffffffffffffff19166001600160801b039190911617815583838381811061180d5761180d6132bc565b90506060020160400160208101906118259190612ebd565b6001600160a01b03167f87fa03892a0556cb6b8f97e6d533a150d4d55fcbf275fff5fa003fa636bcc7fa858585818110611861576118616132bc565b6118779260206060909202019081019150613519565b6040516001600160801b03909116815260200160405180910390a2508061189d816132d2565b915050611705565b505050565b33600090815260a4602052604090205460ff166118fe5760405162461bcd60e51b815260206004820152601260248201527113d3931657d41493d513d0d3d317d0d0531360721b60448201526064016108d9565b61190782611ecf565b6119465760405162461bcd60e51b815260206004820152601060248201526f1513d2d15397d393d517d4d51052d15160821b60448201526064016108d9565b600082815260a260205260409020546001600160a01b0390811690821681141561199f5760405162461bcd60e51b815260206004820152600a60248201526929a0a6a2afa7aba722a960b11b60448201526064016108d9565b600083815260a26020908152604080832080546001600160a01b0319166001600160a01b03878116919091179091558416835260a19091528120905b8154811015611a9057848282815481106119f7576119f76132bc565b90600052602060002001541415611a7e5781548290611a18906001906132a5565b81548110611a2857611a286132bc565b9060005260206000200154828281548110611a4557611a456132bc565b906000526020600020018190555081805480611a6357611a6361333a565b60019003818190600052602060002001600090559055611a90565b80611a88816132d2565b9150506119db565b506001600160a01b03838116600090815260a160209081526040808320805460018101825590845291832090910187905560995490516301ff8f7360e41b81526004810188905291921690631ff8f73090602401600060405180830381865afa158015611b01573d6000803e3d6000fd5b505050506040513d6000823e601f3d908101601f19168201604052611b29919081019061344d565b90506000611b3f8260800151836060015161088c565b6001600160a01b038516600090815260a36020526040812080549293508392909190611b6c9084906132a5565b90915550506001600160a01b038516600090815260a3602052604081208054839290611b9990849061328d565b9091555060009050611baa87611e09565b609d54609a54919250611bcb916001600160a01b03908116911687846125a0565b600080516020613751833981519152858883604051611bec93929190613350565b60405180910390a1609b546001600160a01b031615611cd357609b546040516304e3034f60e31b81526001600160a01b03909116906327181a7890611c3a9088908b90600090600401613350565b600060405180830381600087803b158015611c5457600080fd5b505af1158015611c68573d6000803e3d6000fd5b5050609b546040516304e3034f60e31b81526001600160a01b0390911692506327181a789150611ca09089908b908790600401613350565b600060405180830381600087803b158015611cba57600080fd5b505af1158015611cce573d6000803e3d6000fd5b505050505b60408051338152602081018990526001600160a01b03878116828401528816606082015290517fe54d65876373ae0d214d87fc1ec9d5750e5fdb4057e3876f3937b747d0073d1b9181900360800190a150505050505050565b611d3461254a565b6001600160a01b038116600090815260a160205260408120815b8154811015611dea57611d6c828281548110610baf57610baf6132bc565b15611dd857611d86828281548110610bd957610bd96132bc565b611d90908461328d565b925060008051602061375183398151915284838381548110611db457611db46132bc565b906000526020600020015485604051611dcf93929190613350565b60405180910390a15b80611de2816132d2565b915050611d4e565b50609d54609a546118a5916001600160a01b03918216911685856125a0565b6000611e1482611ecf565b611e2057506000919050565b604080516001808252818301909252600091816020015b611e64604051806060016040528060006001600160a01b0316815260200160008152602001600081525090565b815260200190600190039081611e375790505090506040518060600160405280306001600160a01b03168152602001611e9c856112d4565b815260200160a05481525081600081518110611eba57611eba6132bc565b60200260200101819052506108858382612962565b600081815260a260205260408120611ee78330612820565b80156108855750600301541592915050565b611f016125fe565b6001600160a01b038116611f275760405162461bcd60e51b81526004016108d990613371565b609b546040517f77733bc40883159fa5314987682f9eba84f49ef5dfdf3c51f3ee1db5a694f34c91611f669133916001600160a01b031690859061339a565b60405180910390a1609b80546001600160a01b0319166001600160a01b0392909216919091179055565b611f9861254a565b611fa181611ecf565b611fe05760405162461bcd60e51b815260206004820152601060248201526f1513d2d15397d393d517d4d05512d15160821b60448201526064016108d9565b600081815260a260205260409020546001600160a01b031633146120165760405162461bcd60e51b81526004016108d9906132ed565b609c5460405163893c8cc160e01b8152600481018390526001600160a01b039091169063893c8cc190602401602060405180830381865afa15801561205f573d6000803e3d6000fd5b505050506040513d601f19601f820116820180604052508101906120839190613534565b156120c75760405162461bcd60e51b8152602060048201526014602482015273544f4b454e5f5354414b45445f41535f4e4f444560601b60448201526064016108d9565b60006120d2826112d4565b905060006120e08383612590565b609a54609d54600086815260a26020526040908190205490516323b872dd60e01b81529394506001600160a01b03928316936323b872dd9361212b9381169216908690600401613316565b6020604051808303816000875af115801561214a573d6000803e3d6000fd5b505050506040513d601f19601f8201168201806040525081019061216e9190613534565b508160a0600082825461218191906132a5565b9091555050609f805490600061219683613551565b909155505033600090815260a36020526040812080548492906121ba9084906132a5565b9091555050600083815260a260209081526040918290204260039091015581513381529081018590527f222838db2794d11532d940e8dec38ae307ed0b63cd97c233322e221f998767a6910160405180910390a1609b546001600160a01b0316156118a557609b546040516304e3034f60e31b81526001600160a01b03909116906327181a78906122549033908790600090600401613350565b600060405180830381600087803b15801561226e57600080fd5b505af11580156110e1573d6000803e3d6000fd5b600081815260a2602052604081206003015480158015906108855750426122b4609e548361265890919063ffffffff16565b10159392505050565b60606000825167ffffffffffffffff8111156122db576122db61311d565b604051908082528060200260200182016040528015612304578160200160208202803683370190505b5060408051600180825281830190925291925060009190816020015b61234d604051806060016040528060006001600160a01b0316815260200160008152602001600081525090565b81526020019060019003908161232057905050905060005b84518110156116f157612390858281518110612383576123836132bc565b6020026020010151611ecf565b1561243c576040518060600160405280306001600160a01b031681526020016123d18784815181106123c4576123c46132bc565b60200260200101516112d4565b815260200160a054815250826000815181106123ef576123ef6132bc565b602002602001018190525061241d85828151811061240f5761240f6132bc565b602002602001015183612962565b83828151811061242f5761242f6132bc565b6020026020010181815250505b80612446816132d2565b915050612365565b6124566125fe565b6001600160a01b0381166124bb5760405162461bcd60e51b815260206004820152602660248201527f4f776e61626c653a206e6577206f776e657220697320746865207a65726f206160448201526564647265737360d01b60648201526084016108d9565b6124c4816126b7565b50565b600061088583836040518060400160405280601e81526020017f536166654d6174683a207375627472616374696f6e206f766572666c6f770000815250612a5e565b6000600160005b838110156125375761252382600a612a98565b91508061252f816132d2565b915050612510565b506125428482612a98565b949350505050565b60335460ff1615610df45760405162461bcd60e51b815260206004820152601060248201526f14185d5cd8589b194e881c185d5cd95960821b60448201526064016108d9565b600061088583308460a054612709565b6125f8846323b872dd60e01b8585856040516024016125c193929190613316565b60408051601f198184030181529190526020810180516001600160e01b03166001600160e01b031990931692909217909152612b17565b50505050565b6065546001600160a01b03163314610df45760405162461bcd60e51b815260206004820181905260248201527f4f776e61626c653a2063616c6c6572206973206e6f7420746865206f776e657260448201526064016108d9565b600080612665838561328d565b9050838110156108855760405162461bcd60e51b815260206004820152601b60248201527f536166654d6174683a206164646974696f6e206f766572666c6f77000000000060448201526064016108d9565b606580546001600160a01b038381166001600160a01b0319831681179093556040519116919082907f8be0079c531659141344cd1fd0a4f28419497f9722a3daafe3b4186f6b6457e090600090a35050565b6001600160a01b038316600090815260986020908152604080832087845260028101909252822054828061273e8885886128aa565b90508083146127b657861561275b57612758878285612c9e565b91505b600089815260028501602052604090819020829055516001600160a01b038916908a907facd233ebcfcdfd157686f659e938be145c6d8c3ae3821a2795ae2211d1e9f588906127ad9085815260200190565b60405180910390a35b50979650505050505050565b600054610100900460ff166127e95760405162461bcd60e51b81526004016108d990613568565b610df4612cc9565b600054610100900460ff166128185760405162461bcd60e51b81526004016108d990613568565b610df4612cfc565b6099546040516331a9108f60e11b8152600481018490526000916001600160a01b031690636352211e90602401602060405180830381865afa15801561286a573d6000803e3d6000fd5b505050506040513d601f19601f8201168201806040525081019061288e91906135b3565b6001600160a01b0316826001600160a01b031614905092915050565b6001820154825460009190600160801b90046001600160801b0316428114156128d557509050610885565b84546000906128f09084906001600160801b03168488612d2c565b905082811461293f57600186018190556040518181526001600160a01b038816907f5777ca300dfe5bead41006fbce4389794dbc0ed8d6cccebfaf94630aa04184bc9060200160405180910390a25b85546001600160801b03428116600160801b029116178655925050509392505050565b600080805b8351811015612a5657600060986000868481518110612988576129886132bc565b602090810291909101810151516001600160a01b0316825281019190915260400160009081206001810154815488519294506129f6926001600160801b0380831692600160801b900416908a90889081106129e5576129e56132bc565b602002602001015160400151612d2c565b9050612a3f612a38878581518110612a1057612a106132bc565b602002602001015160200151838560020160008c815260200190815260200160002054612c9e565b8590612658565b935050508080612a4e906132d2565b915050612967565b509392505050565b60008184841115612a825760405162461bcd60e51b81526004016108d991906135d0565b506000612a8f84866132a5565b95945050505050565b600082612aa7575060006106f1565b6000612ab38385613603565b905082612ac08583613622565b146108855760405162461bcd60e51b815260206004820152602160248201527f536166654d6174683a206d756c7469706c69636174696f6e206f766572666c6f6044820152607760f81b60648201526084016108d9565b612b29826001600160a01b0316612dd4565b612b755760405162461bcd60e51b815260206004820152601f60248201527f5361666545524332303a2063616c6c20746f206e6f6e2d636f6e74726163740060448201526064016108d9565b600080836001600160a01b031683604051612b909190613644565b6000604051808303816000865af19150503d8060008114612bcd576040519150601f19603f3d011682016040523d82523d6000602084013e612bd2565b606091505b509150915081612c245760405162461bcd60e51b815260206004820181905260248201527f5361666545524332303a206c6f772d6c6576656c2063616c6c206661696c656460448201526064016108d9565b8051156125f85780806020019051810190612c3f9190613534565b6125f85760405162461bcd60e51b815260206004820152602a60248201527f5361666545524332303a204552433230206f7065726174696f6e20646964206e6044820152691bdd081cdd58d8d9595960b21b60648201526084016108d9565b6000612542612caf6012600a613744565b612cc3612cbc86866124c7565b8790612a98565b90612e0d565b600054610100900460ff16612cf05760405162461bcd60e51b81526004016108d990613568565b6033805460ff19169055565b600054610100900460ff16612d235760405162461bcd60e51b81526004016108d990613568565b610df4336126b7565b6000831580612d39575081155b80612d4c575042836001600160801b0316145b80612d625750609754836001600160801b031610155b15612d6e575083612542565b60006097544211612d7f5742612d83565b6097545b90506000612d9a826001600160801b0387166124c7565b9050612dc987612dc386612cc3612db36012600a613744565b612dbd8c88612a98565b90612a98565b90612658565b979650505050505050565b6000813f7fc5d2460186f7233c927e7db2dcc703c0e500b653ca82273b7bfad8045d85a470818114801590612542575050151592915050565b600061088583836040518060400160405280601a81526020017f536166654d6174683a206469766973696f6e206279207a65726f00000000000081525060008183612e6b5760405162461bcd60e51b81526004016108d991906135d0565b506000612a8f8486613622565b6001600160a01b03811681146124c457600080fd5b60008060408385031215612ea057600080fd5b823591506020830135612eb281612e78565b809150509250929050565b600060208284031215612ecf57600080fd5b813561088581612e78565b600080600060608486031215612eef57600080fd5b8335612efa81612e78565b95602085013595506040909401359392505050565b602080825282518282018190526000919060409081850190868401855b82811015612f6f57815180516001600160a01b03168552868101518786015285810151868601526060908101519085015260809093019290850190600101612f2c565b5091979650505050505050565b60008060408385031215612f8f57600080fd5b50508035926020909101359150565b600060208284031215612fb057600080fd5b5035919050565b80151581146124c457600080fd5b60008060408385031215612fd857600080fd5b8235612fe381612e78565b91506020830135612eb281612fb7565b6000806040838503121561300657600080fd5b823561301181612e78565b946020939093013593505050565b80356001600160801b038116811461303657600080fd5b919050565b600080600080600060a0868803121561305357600080fd5b853561305e81612e78565b9450602086013561306e81612e78565b9350604086013561307e81612e78565b9250606086013561308e81612e78565b915061309c6080870161301f565b90509295509295909350565b600080602083850312156130bb57600080fd5b823567ffffffffffffffff808211156130d357600080fd5b818501915085601f8301126130e757600080fd5b8135818111156130f657600080fd5b86602060608302850101111561310b57600080fd5b60209290920196919550909350505050565b634e487b7160e01b600052604160045260246000fd5b60405160a0810167ffffffffffffffff811182821017156131565761315661311d565b60405290565b604051601f8201601f1916810167ffffffffffffffff811182821017156131855761318561311d565b604052919050565b600060208083850312156131a057600080fd5b823567ffffffffffffffff808211156131b857600080fd5b818501915085601f8301126131cc57600080fd5b8135818111156131de576131de61311d565b8060051b91506131ef84830161315c565b818152918301840191848101908884111561320957600080fd5b938501935b838510156132275784358252938501939085019061320e565b98975050505050505050565b6020808252825182820181905260009190848201906040850190845b8181101561326b5783518352928401929184019160010161324f565b50909695505050505050565b634e487b7160e01b600052601160045260246000fd5b600082198211156132a0576132a0613277565b500190565b6000828210156132b7576132b7613277565b500390565b634e487b7160e01b600052603260045260246000fd5b60006000198214156132e6576132e6613277565b5060010190565b6020808252600f908201526e2727aa2faa27a5a2a72fa7aba722a960891b604082015260600190565b6001600160a01b039384168152919092166020820152604081019190915260600190565b634e487b7160e01b600052603160045260246000fd5b6001600160a01b039390931683526020830191909152604082015260600190565b6020808252600f908201526e494e56414c49445f4144445245535360881b604082015260600190565b6001600160a01b0393841681529183166020830152909116604082015260600190565b60005b838110156133d85781810151838201526020016133c0565b838111156125f85750506000910152565b600082601f8301126133fa57600080fd5b815167ffffffffffffffff8111156134145761341461311d565b613427601f8201601f191660200161315c565b81815284602083860101111561343c57600080fd5b6125428260208301602087016133bd565b60006020828403121561345f57600080fd5b815167ffffffffffffffff8082111561347757600080fd5b9083019060a0828603121561348b57600080fd5b613493613133565b8251828111156134a257600080fd5b6134ae878286016133e9565b8252506020830151828111156134c357600080fd5b6134cf878286016133e9565b6020830152506040830151828111156134e757600080fd5b6134f3878286016133e9565b604083015250606083015160608201526080830151608082015280935050505092915050565b60006020828403121561352b57600080fd5b6108858261301f565b60006020828403121561354657600080fd5b815161088581612fb7565b60008161356057613560613277565b506000190190565b6020808252602b908201527f496e697469616c697a61626c653a20636f6e7472616374206973206e6f74206960408201526a6e697469616c697a696e6760a81b606082015260800190565b6000602082840312156135c557600080fd5b815161088581612e78565b60208152600082518060208401526135ef8160408501602087016133bd565b601f01601f19169190910160400192915050565b600081600019048311821515161561361d5761361d613277565b500290565b60008261363f57634e487b7160e01b600052601260045260246000fd5b500490565b600082516136568184602087016133bd565b9190910192915050565b600181815b8085111561369b57816000190482111561368157613681613277565b8085161561368e57918102915b93841c9390800290613665565b509250929050565b6000826136b2575060016106f1565b816136bf575060006106f1565b81600181146136d557600281146136df576136fb565b60019150506106f1565b60ff8411156136f0576136f0613277565b50506001821b6106f1565b5060208310610133831016604e8410600b841016171561371e575081810a6106f1565b6137288383613660565b806000190482111561373c5761373c613277565b029392505050565b600061088583836136a356fee74e5c9d4ac1fc33412485f18c159a0a391efe287ab3fd271123f30e6bacf4e3a2646970667358221220feccafd91bd2aedac44c916d58fe2082ee3b8a0373615ed11d7b1bc9c5c5271f64736f6c634300080b0033",
  "linkReferences": {},
  "deployedLinkReferences": {}
}