{
  "_format": "hh-sol-artifact-1",
  "contractName": "StakedSoccerStarNftV2",
  "sourceName": "contracts/stake/StakedSoccerStarNftV2.sol",
  "abi": [
    {
      "anonymous": false,
      "inputs": [
        {
          "indexed": true,
          "internalType": "address",
          "name": "asset",
          "type": "address"
        },
        {
          "indexed": false,
          "internalType": "uint256",
          "name": "emission",
          "type": "uint256"
        }
      ],
      "name": "AssetConfigUpdated",
      "type": "event"
    },
    {
      "anonymous": false,
      "inputs": [
        {
          "indexed": true,
          "internalType": "address",
          "name": "asset",
          "type": "address"
        },
        {
          "indexed": false,
          "internalType": "uint256",
          "name": "index",
          "type": "uint256"
        }
      ],
      "name": "AssetIndexUpdated",
      "type": "event"
    },
    {
      "anonymous": false,
      "inputs": [
        {
          "indexed": false,
          "internalType": "address",
          "name": "sender",
          "type": "address"
        },
        {
          "indexed": false,
          "internalType": "address",
          "name": "oldValue",
          "type": "address"
        },
        {
          "indexed": false,
          "internalType": "address",
          "name": "newValue",
          "type": "address"
        }
      ],
      "name": "BalanceHookChanged",
      "type": "event"
    },
    {
      "anonymous": false,
      "inputs": [
        {
          "indexed": false,
          "internalType": "address",
          "name": "sender",
          "type": "address"
        },
        {
          "indexed": false,
          "internalType": "uint256",
          "name": "tokenId",
          "type": "uint256"
        },
        {
          "indexed": false,
          "internalType": "uint256",
          "name": "amount",
          "type": "uint256"
        }
      ],
      "name": "ClaimReward",
      "type": "event"
    },
    {
      "anonymous": false,
      "inputs": [
        {
          "indexed": false,
          "internalType": "address",
          "name": "sender",
          "type": "address"
        },
        {
          "indexed": false,
          "internalType": "address",
          "name": "oldValue",
          "type": "address"
        },
        {
          "indexed": false,
          "internalType": "address",
          "name": "newValue",
          "type": "address"
        }
      ],
      "name": "CoolDownDurationChanged",
      "type": "event"
    },
    {
      "anonymous": false,
      "inputs": [
        {
          "indexed": false,
          "internalType": "uint8",
          "name": "version",
          "type": "uint8"
        }
      ],
      "name": "Initialized",
      "type": "event"
    },
    {
      "anonymous": false,
      "inputs": [
        {
          "indexed": true,
          "internalType": "address",
          "name": "previousOwner",
          "type": "address"
        },
        {
          "indexed": true,
          "internalType": "address",
          "name": "newOwner",
          "type": "address"
        }
      ],
      "name": "OwnershipTransferred",
      "type": "event"
    },
    {
      "anonymous": false,
      "inputs": [
        {
          "indexed": false,
          "internalType": "address",
          "name": "account",
          "type": "address"
        }
      ],
      "name": "Paused",
      "type": "event"
    },
    {
      "anonymous": false,
      "inputs": [
        {
          "indexed": false,
          "internalType": "address",
          "name": "sender",
          "type": "address"
        },
        {
          "indexed": false,
          "internalType": "uint256",
          "name": "tokenId",
          "type": "uint256"
        }
      ],
      "name": "Redeem",
      "type": "event"
    },
    {
      "anonymous": false,
      "inputs": [
        {
          "indexed": false,
          "internalType": "address",
          "name": "sender",
          "type": "address"
        },
        {
          "indexed": false,
          "internalType": "address",
          "name": "oldValue",
          "type": "address"
        },
        {
          "indexed": false,
          "internalType": "address",
          "name": "newValue",
          "type": "address"
        }
      ],
      "name": "RewardTokenChanged",
      "type": "event"
    },
    {
      "anonymous": false,
      "inputs": [
        {
          "indexed": false,
          "internalType": "address",
          "name": "sender",
          "type": "address"
        },
        {
          "indexed": false,
          "internalType": "address",
          "name": "oldValue",
          "type": "address"
        },
        {
          "indexed": false,
          "internalType": "address",
          "name": "newValue",
          "type": "address"
        }
      ],
      "name": "RewardVaultChanged",
      "type": "event"
    },
    {
      "anonymous": false,
      "inputs": [
        {
          "indexed": false,
          "internalType": "address",
          "name": "sender",
          "type": "address"
        },
        {
          "indexed": false,
          "internalType": "uint256",
          "name": "tokenId",
          "type": "uint256"
        }
      ],
      "name": "Stake",
      "type": "event"
    },
    {
      "anonymous": false,
      "inputs": [
        {
          "indexed": false,
          "internalType": "address",
          "name": "sender",
          "type": "address"
        },
        {
          "indexed": false,
          "internalType": "address",
          "name": "oldValue",
          "type": "address"
        },
        {
          "indexed": false,
          "internalType": "address",
          "name": "newValue",
          "type": "address"
        }
      ],
      "name": "StakedTokenChanged",
      "type": "event"
    },
    {
      "anonymous": false,
      "inputs": [
        {
          "indexed": false,
          "internalType": "address",
          "name": "sender",
          "type": "address"
        },
        {
          "indexed": false,
          "internalType": "uint256",
          "name": "tokenId",
          "type": "uint256"
        },
        {
          "indexed": false,
          "internalType": "address",
          "name": "owner",
          "type": "address"
        },
        {
          "indexed": false,
          "internalType": "address",
          "name": "to",
          "type": "address"
        }
      ],
      "name": "TransferOwnershipNFT",
      "type": "event"
    },
    {
      "anonymous": false,
      "inputs": [
        {
          "indexed": false,
          "internalType": "address",
          "name": "account",
          "type": "address"
        }
      ],
      "name": "Unpaused",
      "type": "event"
    },
    {
      "anonymous": false,
      "inputs": [
        {
          "indexed": true,
          "internalType": "uint256",
          "name": "tokenId",
          "type": "uint256"
        },
        {
          "indexed": true,
          "internalType": "address",
          "name": "asset",
          "type": "address"
        },
        {
          "indexed": false,
          "internalType": "uint256",
          "name": "index",
          "type": "uint256"
        }
      ],
      "name": "UserIndexUpdated",
      "type": "event"
    },
    {
      "anonymous": false,
      "inputs": [
        {
          "indexed": false,
          "internalType": "address",
          "name": "sender",
          "type": "address"
        },
        {
          "indexed": false,
          "internalType": "uint256",
          "name": "tokenId",
          "type": "uint256"
        }
      ],
      "name": "Withdraw",
      "type": "event"
    },
    {
      "inputs": [],
      "name": "DISTRIBUTION_END",
      "outputs": [
        {
          "internalType": "uint256",
          "name": "",
          "type": "uint256"
        }
      ],
      "stateMutability": "view",
      "type": "function"
    },
    {
      "inputs": [],
      "name": "NODE",
      "outputs": [
        {
          "internalType": "contract IBIBNode",
          "name": "",
          "type": "address"
        }
      ],
      "stateMutability": "view",
      "type": "function"
    },
    {
      "inputs": [],
      "name": "PRECISION",
      "outputs": [
        {
          "internalType": "uint8",
          "name": "",
          "type": "uint8"
        }
      ],
      "stateMutability": "view",
      "type": "function"
    },
    {
      "inputs": [],
      "name": "REWARDS_VAULT",
      "outputs": [
        {
          "internalType": "address",
          "name": "",
          "type": "address"
        }
      ],
      "stateMutability": "view",
      "type": "function"
    },
    {
      "inputs": [],
      "name": "REWARD_TOKEN",
      "outputs": [
        {
          "internalType": "contract IERC20",
          "name": "",
          "type": "address"
        }
      ],
      "stateMutability": "view",
      "type": "function"
    },
    {
      "inputs": [],
      "name": "STAKED_TOKEN",
      "outputs": [
        {
          "internalType": "contract ISoccerStarNft",
          "name": "",
          "type": "address"
        }
      ],
      "stateMutability": "view",
      "type": "function"
    },
    {
      "inputs": [
        {
          "internalType": "address",
          "name": "",
          "type": "address"
        }
      ],
      "name": "allowProtocolToCallTb",
      "outputs": [
        {
          "internalType": "bool",
          "name": "",
          "type": "bool"
        }
      ],
      "stateMutability": "view",
      "type": "function"
    },
    {
      "inputs": [
        {
          "internalType": "address",
          "name": "",
          "type": "address"
        }
      ],
      "name": "assets",
      "outputs": [
        {
          "internalType": "uint128",
          "name": "emissionPerSecond",
          "type": "uint128"
        },
        {
          "internalType": "uint128",
          "name": "lastUpdateTimestamp",
          "type": "uint128"
        },
        {
          "internalType": "uint256",
          "name": "index",
          "type": "uint256"
        }
      ],
      "stateMutability": "view",
      "type": "function"
    },
    {
      "inputs": [],
      "name": "balanceHook",
      "outputs": [
        {
          "internalType": "contract IBalanceHook",
          "name": "",
          "type": "address"
        }
      ],
      "stateMutability": "view",
      "type": "function"
    },
    {
      "inputs": [
        {
          "internalType": "uint256",
          "name": "gradient",
          "type": "uint256"
        },
        {
          "internalType": "uint256",
          "name": "starLevel",
          "type": "uint256"
        }
      ],
      "name": "caculatePower",
      "outputs": [
        {
          "internalType": "uint256",
          "name": "power",
          "type": "uint256"
        }
      ],
      "stateMutability": "pure",
      "type": "function"
    },
    {
      "inputs": [],
      "name": "claimRewards",
      "outputs": [],
      "stateMutability": "nonpayable",
      "type": "function"
    },
    {
      "inputs": [
        {
          "components": [
            {
              "internalType": "uint128",
              "name": "emissionPerSecond",
              "type": "uint128"
            },
            {
              "internalType": "uint256",
              "name": "totalPower",
              "type": "uint256"
            },
            {
              "internalType": "address",
              "name": "underlyingAsset",
              "type": "address"
            }
          ],
          "internalType": "struct DistributionTypes.AssetConfigInput[]",
          "name": "assetsConfigInput",
          "type": "tuple[]"
        }
      ],
      "name": "configureAssets",
      "outputs": [],
      "stateMutability": "nonpayable",
      "type": "function"
    },
    {
      "inputs": [],
      "name": "coolDownDuration",
      "outputs": [
        {
          "internalType": "uint256",
          "name": "",
          "type": "uint256"
        }
      ],
      "stateMutability": "view",
      "type": "function"
    },
    {
      "inputs": [
        {
          "internalType": "uint256",
          "name": "tokenId",
          "type": "uint256"
        },
        {
          "internalType": "address",
          "name": "asset",
          "type": "address"
        }
      ],
      "name": "getTokenAssetData",
      "outputs": [
        {
          "internalType": "uint256",
          "name": "",
          "type": "uint256"
        }
      ],
      "stateMutability": "view",
      "type": "function"
    },
    {
      "inputs": [
        {
          "internalType": "uint256",
          "name": "tokenId",
          "type": "uint256"
        }
      ],
      "name": "getTokenOwner",
      "outputs": [
        {
          "internalType": "address",
          "name": "",
          "type": "address"
        }
      ],
      "stateMutability": "view",
      "type": "function"
    },
    {
      "inputs": [
        {
          "internalType": "uint256",
          "name": "tokenId",
          "type": "uint256"
        }
      ],
      "name": "getTokenPower",
      "outputs": [
        {
          "internalType": "uint256",
          "name": "power",
          "type": "uint256"
        }
      ],
      "stateMutability": "view",
      "type": "function"
    },
    {
      "inputs": [
        {
          "internalType": "address",
          "name": "staker",
          "type": "address"
        }
      ],
      "name": "getUnClaimedRewards",
      "outputs": [
        {
          "internalType": "uint256",
          "name": "",
          "type": "uint256"
        }
      ],
      "stateMutability": "view",
      "type": "function"
    },
    {
      "inputs": [
        {
          "internalType": "uint256",
          "name": "tokenId",
          "type": "uint256"
        }
      ],
      "name": "getUnClaimedRewardsByToken",
      "outputs": [
        {
          "internalType": "uint256",
          "name": "",
          "type": "uint256"
        }
      ],
      "stateMutability": "view",
      "type": "function"
    },
    {
      "inputs": [
        {
          "internalType": "uint256[]",
          "name": "tokenIds",
          "type": "uint256[]"
        }
      ],
      "name": "getUnClaimedRewardsByTokens",
      "outputs": [
        {
          "internalType": "uint256[]",
          "name": "amount",
          "type": "uint256[]"
        }
      ],
      "stateMutability": "view",
      "type": "function"
    },
    {
      "inputs": [
        {
          "internalType": "address",
          "name": "user",
          "type": "address"
        },
        {
          "internalType": "uint256",
          "name": "pageSt",
          "type": "uint256"
        },
        {
          "internalType": "uint256",
          "name": "pageSz",
          "type": "uint256"
        }
      ],
      "name": "getUserStakedInfoByPage",
      "outputs": [
        {
          "components": [
            {
              "internalType": "address",
              "name": "owner",
              "type": "address"
            },
            {
              "internalType": "uint256",
              "name": "tokenId",
              "type": "uint256"
            },
            {
              "internalType": "uint256",
              "name": "unclaimed",
              "type": "uint256"
            },
            {
              "internalType": "uint256",
              "name": "cooldown",
              "type": "uint256"
            }
          ],
          "internalType": "struct IStakedSoccerStarNftV2.TokenStakedInfo[]",
          "name": "userStaked",
          "type": "tuple[]"
        }
      ],
      "stateMutability": "view",
      "type": "function"
    },
    {
      "inputs": [
        {
          "internalType": "contract IBIBNode",
          "name": "_node",
          "type": "address"
        },
        {
          "internalType": "contract ISoccerStarNft",
          "name": "stakedToken",
          "type": "address"
        },
        {
          "internalType": "contract IERC20",
          "name": "rewardToken",
          "type": "address"
        },
        {
          "internalType": "address",
          "name": "rewardsVault",
          "type": "address"
        },
        {
          "internalType": "uint128",
          "name": "distributionDuration",
          "type": "uint128"
        }
      ],
      "name": "initialize",
      "outputs": [],
      "stateMutability": "nonpayable",
      "type": "function"
    },
    {
      "inputs": [
        {
          "internalType": "uint256",
          "name": "tokenId",
          "type": "uint256"
        }
      ],
      "name": "isStaked",
      "outputs": [
        {
          "internalType": "bool",
          "name": "",
          "type": "bool"
        }
      ],
      "stateMutability": "view",
      "type": "function"
    },
    {
      "inputs": [
        {
          "internalType": "uint256",
          "name": "tokenId",
          "type": "uint256"
        }
      ],
      "name": "isUnfreezing",
      "outputs": [
        {
          "internalType": "bool",
          "name": "",
          "type": "bool"
        }
      ],
      "stateMutability": "view",
      "type": "function"
    },
    {
      "inputs": [
        {
          "internalType": "uint256",
          "name": "tokenId",
          "type": "uint256"
        }
      ],
      "name": "isWithdrawAble",
      "outputs": [
        {
          "internalType": "bool",
          "name": "",
          "type": "bool"
        }
      ],
      "stateMutability": "view",
      "type": "function"
    },
    {
      "inputs": [],
      "name": "owner",
      "outputs": [
        {
          "internalType": "address",
          "name": "",
          "type": "address"
        }
      ],
      "stateMutability": "view",
      "type": "function"
    },
    {
      "inputs": [],
      "name": "paused",
      "outputs": [
        {
          "internalType": "bool",
          "name": "",
          "type": "bool"
        }
      ],
      "stateMutability": "view",
      "type": "function"
    },
    {
      "inputs": [
        {
          "internalType": "uint256",
          "name": "tokenId",
          "type": "uint256"
        }
      ],
      "name": "redeem",
      "outputs": [],
      "stateMutability": "nonpayable",
      "type": "function"
    },
    {
      "inputs": [],
      "name": "renounceOwnership",
      "outputs": [],
      "stateMutability": "nonpayable",
      "type": "function"
    },
    {
      "inputs": [
        {
          "internalType": "address",
          "name": "_protAddr",
          "type": "address"
        },
        {
          "internalType": "bool",
          "name": "value",
          "type": "bool"
        }
      ],
      "name": "setAllowProtocolToCall",
      "outputs": [],
      "stateMutability": "nonpayable",
      "type": "function"
    },
    {
      "inputs": [
        {
          "internalType": "address",
          "name": "_newValue",
          "type": "address"
        }
      ],
      "name": "setBalanceHook",
      "outputs": [],
      "stateMutability": "nonpayable",
      "type": "function"
    },
    {
      "inputs": [
        {
          "internalType": "uint256",
          "name": "distributionDuration",
          "type": "uint256"
        }
      ],
      "name": "setDistributionDuration",
      "outputs": [],
      "stateMutability": "nonpayable",
      "type": "function"
    },
    {
      "inputs": [
        {
          "internalType": "address",
          "name": "_newValue",
          "type": "address"
        }
      ],
      "name": "setRewardToken",
      "outputs": [],
      "stateMutability": "nonpayable",
      "type": "function"
    },
    {
      "inputs": [
        {
          "internalType": "address",
          "name": "_newValue",
          "type": "address"
        }
      ],
      "name": "setRewardVault",
      "outputs": [],
      "stateMutability": "nonpayable",
      "type": "function"
    },
    {
      "inputs": [
        {
          "internalType": "address",
          "name": "_newValue",
          "type": "address"
        }
      ],
      "name": "setStakedToken",
      "outputs": [],
      "stateMutability": "nonpayable",
      "type": "function"
    },
    {
      "inputs": [
        {
          "internalType": "uint256",
          "name": "tokenId",
          "type": "uint256"
        }
      ],
      "name": "stake",
      "outputs": [],
      "stateMutability": "nonpayable",
      "type": "function"
    },
    {
      "inputs": [
        {
          "internalType": "uint256",
          "name": "",
          "type": "uint256"
        }
      ],
      "name": "tokenStakedInfoTb",
      "outputs": [
        {
          "internalType": "address",
          "name": "owner",
          "type": "address"
        },
        {
          "internalType": "uint256",
          "name": "tokenId",
          "type": "uint256"
        },
        {
          "internalType": "uint256",
          "name": "unclaimed",
          "type": "uint256"
        },
        {
          "internalType": "uint256",
          "name": "cooldown",
          "type": "uint256"
        }
      ],
      "stateMutability": "view",
      "type": "function"
    },
    {
      "inputs": [],
      "name": "totalPower",
      "outputs": [
        {
          "internalType": "uint256",
          "name": "",
          "type": "uint256"
        }
      ],
      "stateMutability": "view",
      "type": "function"
    },
    {
      "inputs": [],
      "name": "totalStaked",
      "outputs": [
        {
          "internalType": "uint256",
          "name": "",
          "type": "uint256"
        }
      ],
      "stateMutability": "view",
      "type": "function"
    },
    {
      "inputs": [
        {
          "internalType": "address",
          "name": "newOwner",
          "type": "address"
        }
      ],
      "name": "transferOwnership",
      "outputs": [],
      "stateMutability": "nonpayable",
      "type": "function"
    },
    {
      "inputs": [
        {
          "internalType": "uint256",
          "name": "tokenId",
          "type": "uint256"
        },
        {
          "internalType": "address",
          "name": "to",
          "type": "address"
        }
      ],
      "name": "transferOwnershipNFT",
      "outputs": [],
      "stateMutability": "nonpayable",
      "type": "function"
    },
    {
      "inputs": [
        {
          "internalType": "uint256",
          "name": "tokenId",
          "type": "uint256"
        },
        {
          "internalType": "uint256",
          "name": "starLevel",
          "type": "uint256"
        }
      ],
      "name": "updateStarlevel",
      "outputs": [],
      "stateMutability": "nonpayable",
      "type": "function"
    },
    {
      "inputs": [
        {
          "internalType": "address",
          "name": "",
          "type": "address"
        },
        {
          "internalType": "uint256",
          "name": "",
          "type": "uint256"
        }
      ],
      "name": "userStakedTokenTb",
      "outputs": [
        {
          "internalType": "uint256",
          "name": "",
          "type": "uint256"
        }
      ],
      "stateMutability": "view",
      "type": "function"
    },
    {
      "inputs": [
        {
          "internalType": "address",
          "name": "",
          "type": "address"
        }
      ],
      "name": "userTotalPower",
      "outputs": [
        {
          "internalType": "uint256",
          "name": "",
          "type": "uint256"
        }
      ],
      "stateMutability": "view",
      "type": "function"
    },
    {
      "inputs": [
        {
          "internalType": "uint256",
          "name": "tokenId",
          "type": "uint256"
        }
      ],
      "name": "withdraw",
      "outputs": [],
      "stateMutability": "nonpayable",
      "type": "function"
    }
  ],
  "bytecode": "0x608060405234801561001057600080fd5b50613640806100206000396000f3fe608060405234801561001057600080fd5b50600436106102745760003560e01c80638aee812711610151578063b2a5dbfa116100c3578063db006a7511610087578063db006a75146105e7578063db21544e146105fa578063db3ad22c1461060d578063e8a44ae014610616578063f11b818814610636578063f2fde38b1461069857600080fd5b8063b2a5dbfa14610588578063b3bc2b021461059b578063b6696cec146105ae578063baa51f86146105c1578063c177a00b146105d457600080fd5b8063a121bcba11610115578063a121bcba146104a3578063a5be4e8d146104b6578063a5cd761f1461051f578063a694fc3a14610548578063aaf5eb681461055b578063aca119801461057557600080fd5b80638aee8127146104505780638da5cb5b14610463578063919cd40f14610474578063946776cd1461047d57806399248ea71461049057600080fd5b8063547ccbb6116101ea5780637ae6d741116101ae5780637ae6d741146103f25780638125dd1014610405578063817b1cd21461041857806382eab3471461042157806384b98f001461043457806387c5d8321461043d57600080fd5b8063547ccbb6146103995780635c975abb146103ac5780635d3c0cfe146103b75780635e002433146103ca578063715018a6146103ea57600080fd5b8063312f6b831161023c578063312f6b831461031a578063372500ab1461034557806344aa46e51461034d57806351bfcdbd1461036057806351dec6231461037357806352e9c6d41461038657600080fd5b80630498e2a7146102795780630afdd4e91461029f57806316d7a8b3146102d25780632a22820a146102f25780632e1a7d4d14610305575b600080fd5b61028c610287366004612d47565b6106ab565b6040519081526020015b60405180910390f35b6102c26102ad366004612d77565b60a46020526000908152604090205460ff1681565b6040519015158152602001610296565b6102e56102e0366004612d94565b6106d9565b6040516102969190612dc9565b61028c610300366004612e36565b61086e565b610318610313366004612e58565b61092a565b005b60995461032d906001600160a01b031681565b6040516001600160a01b039091168152602001610296565b610318610bee565b61031861035b366004612e7f565b610ce8565b609c5461032d906001600160a01b031681565b61028c610381366004612ead565b610d1b565b610318610394366004612d77565b610d4c565b6102c26103a7366004612e58565b610de3565b60335460ff166102c2565b6103186103c5366004612e58565b610e1d565b61028c6103d8366004612d77565b60a36020526000908152604090205481565b610318610e35565b610318610400366004612e36565b610e49565b610318610413366004612d77565b61114f565b61028c609f5481565b61031861042f366004612ef5565b6111e6565b61028c609e5481565b61028c61044b366004612e58565b611339565b61031861045e366004612d77565b611405565b6065546001600160a01b031661032d565b61028c60975481565b609d5461032d906001600160a01b031681565b609a5461032d906001600160a01b031681565b609b5461032d906001600160a01b031681565b6104f56104c4366004612e58565b60a26020526000908152604090208054600182015460028301546003909301546001600160a01b0390921692909184565b604080516001600160a01b0390951685526020850193909352918301526060820152608001610296565b61032d61052d366004612e58565b600090815260a260205260409020546001600160a01b031690565b610318610556366004612e58565b61149c565b610563601281565b60405160ff9091168152602001610296565b61028c610583366004612d77565b6116d3565b610318610596366004612f62565b611744565b6103186105a9366004612d47565b6118f4565b61028c6105bc366004612e58565b611d88565b6102c26105cf366004612e58565b611e3a565b6103186105e2366004612d77565b611e64565b6103186105f5366004612e58565b611efb565b6102c2610608366004612e58565b612165565b61028c60a05481565b610629610624366004613047565b6121a0565b60405161029691906130ed565b610672610644366004612d77565b609860205260009081526040902080546001909101546001600160801b0380831692600160801b9004169083565b604080516001600160801b03948516815293909216602084015290820152606001610296565b6103186106a6366004612d77565b612308565b6001600160a01b03811660009081526098602090815260408083208584526002019091529020545b92915050565b6001600160a01b038316600090815260a1602052604090208054606091829185101561086357600061070b8587613147565b8254909150811161071c578061071f565b81545b905061072b868261315f565b67ffffffffffffffff81111561074357610743612fd7565b6040519080825280602002602001820160405280156107a857816020015b610795604051806080016040528060006001600160a01b031681526020016000815260200160008152602001600081525090565b8152602001906001900390816107615790505b50925060005b818710156108605760a260008489815481106107cc576107cc613176565b600091825260208083209091015483528281019390935260409182019020815160808101835281546001600160a01b03168152600182015493810193909352600281015491830191909152600301546060820152845185908390811061083457610834613176565b6020026020010181905250868061084a9061318c565b97505080806108589061318c565b9150506107ae565b50505b5090505b9392505050565b60008083118015610880575060048311155b6108c45760405162461bcd60e51b815260206004820152601060248201526f1253959053125117d1d490511251539560821b60448201526064015b60405180910390fd5b6000821180156108d5575060048211155b6109155760405162461bcd60e51b81526020600482015260116024820152701253959053125117d4d510549311559153607a1b60448201526064016108bb565b610867610923836001612381565b84906123c3565b610932612404565b600081815260a260205260409020546001600160a01b031633146109685760405162461bcd60e51b81526004016108bb906131a7565b61097181610de3565b6109b05760405162461bcd60e51b815260206004820152601060248201526f4e4f545f574954484452415741424c4560801b60448201526064016108bb565b609a54609d54600083815260a2602052604090819020805460029091015491516323b872dd60e01b81526001600160a01b03948516946323b872dd94610a009490821693909116916004016131d0565b6020604051808303816000875af1158015610a1f573d6000803e3d6000fd5b505050506040513d601f19601f82011682018060405250810190610a4391906131f4565b50609954600082815260a2602052604090819020549051632142170760e11b81526001600160a01b03928316926342842e0e92610a8a9230929091169086906004016131d0565b600060405180830381600087803b158015610aa457600080fd5b505af1158015610ab8573d6000803e3d6000fd5b505050600082815260a26020908152604080832080546001600160a01b0319168155600181018490556002810184905560030183905533835260a1909152812091505b8154811015610bb05782828281548110610b1757610b17613176565b90600052602060002001541415610b9e5781548290610b389060019061315f565b81548110610b4857610b48613176565b9060005260206000200154828281548110610b6557610b65613176565b906000526020600020018190555081805480610b8357610b83613211565b60019003818190600052602060002001600090559055610bb0565b80610ba88161318c565b915050610afb565b5060408051338152602081018490527f884edad9ce6fa2440d8a54cc123490eb96d2768479d49ff9c7366125a9424364910160405180910390a15050565b610bf6612404565b33600090815260a160205260408120815b8154811015610cc557610c5a828281548110610c2557610c25613176565b9060005260206000200154610c55848481548110610c4557610c45613176565b9060005260206000200154611339565b61244a565b92507fe74e5c9d4ac1fc33412485f18c159a0a391efe287ab3fd271123f30e6bacf4e333838381548110610c9057610c90613176565b906000526020600020015485604051610cab93929190613227565b60405180910390a180610cbd8161318c565b915050610c07565b50609d54609a54610ce4916001600160a01b039182169116338561245a565b5050565b610cf06124b8565b6001600160a01b0391909116600090815260a460205260409020805460ff1916911515919091179055565b60a16020528160005260406000208181548110610d3757600080fd5b90600052602060002001600091509150505481565b610d546124b8565b6001600160a01b038116610d7a5760405162461bcd60e51b81526004016108bb90613248565b6099546040517fca507fc7d32f26f3815659b59a6d39afd1c1cc2c78b0fbdd74f0dad712f9789891610db99133916001600160a01b0316908590613271565b60405180910390a1609980546001600160a01b0319166001600160a01b0392909216919091179055565b600081815260a260205260408120600301548015801590610867575042610e15609e548361251290919063ffffffff16565b109392505050565b610e256124b8565b610e2f4282612512565b60975550565b610e3d6124b8565b610e476000612571565b565b33600090815260a4602052604090205460ff16610e9d5760405162461bcd60e51b815260206004820152601260248201527113d3931657d41493d513d0d3d317d0d0531360721b60448201526064016108bb565b610ea682611e3a565b610ee55760405162461bcd60e51b815260206004820152601060248201526f1513d2d15397d393d517d4d51052d15160821b60448201526064016108bb565b600082815260a260205260408120546001600160a01b031690610f0784611d88565b609d54609a54919250610f28916001600160a01b039081169116848461245a565b7fe74e5c9d4ac1fc33412485f18c159a0a391efe287ab3fd271123f30e6bacf4e3828583604051610f5b93929190613227565b60405180910390a1609954604051637ae6d74160e01b815260048101869052602481018590526001600160a01b0390911690637ae6d74190604401600060405180830381600087803b158015610fb057600080fd5b505af1158015610fc4573d6000803e3d6000fd5b50506099546040516301ff8f7360e41b815260048101889052600093506001600160a01b039091169150631ff8f73090602401600060405180830381865afa158015611014573d6000803e3d6000fd5b505050506040513d6000823e601f3d908101601f1916820160405261103c9190810190613324565b9050600061104e82608001518661086e565b6001600160a01b038516600090815260a3602052604090208054908290559091508082111561109d57611081818361315f565b60a060008282546110929190613147565b909155506110be9050565b6110a7818361315f565b60a060008282546110b8919061315f565b90915550505b6110cd8730600060a0546125c3565b50609b546001600160a01b03161561114657609b546040516304e3034f60e31b81526001600160a01b03909116906327181a78906111139033908b908790600401613227565b600060405180830381600087803b15801561112d57600080fd5b505af1158015611141573d6000803e3d6000fd5b505050505b50505050505050565b6111576124b8565b6001600160a01b03811661117d5760405162461bcd60e51b81526004016108bb90613248565b609d546040517f44aadd56134558a1767b44c12fb2ffd2c3c304a7a77ebedc03ddf7b78f793948916111bc9133916001600160a01b0316908590613271565b60405180910390a1609d80546001600160a01b0319166001600160a01b0392909216919091179055565b600054600190610100900460ff16158015611208575060005460ff8083169116105b61126b5760405162461bcd60e51b815260206004820152602e60248201527f496e697469616c697a61626c653a20636f6e747261637420697320616c72656160448201526d191e481a5b9a5d1a585b1a5e995960921b60648201526084016108bb565b6000805461ffff191660ff831617610100179055609980546001600160a01b038088166001600160a01b031992831617909255609a8054878416908316179055609d8054868416908316179055609c8054928916929091169190911790556112d161267c565b6112d96126ab565b603c609e556112f06001600160801b038316610e1d565b6000805461ff001916905560405160ff821681527f7f26b83ff96e1f2b6a682f133852f6798a09c465da95921460cefb38474024989060200160405180910390a1505050505050565b6099546040516301ff8f7360e41b81526004810183905260009182916001600160a01b0390911690631ff8f73090602401600060405180830381865afa158015611387573d6000803e3d6000fd5b505050506040513d6000823e601f3d908101601f191682016040526113af9190810190613324565b905060008160600151116113f35760405162461bcd60e51b815260206004820152600b60248201526a10d0549117d5539491505360aa1b60448201526064016108bb565b6108678160800151826060015161086e565b61140d6124b8565b6001600160a01b0381166114335760405162461bcd60e51b81526004016108bb90613248565b609a546040517f60c2ec68191b35d1fff2d50e8b3fcc9bec20cddbf9b57d9ce4d73fe74406f106916114729133916001600160a01b0316908590613271565b60405180910390a1609a80546001600160a01b0319166001600160a01b0392909216919091179055565b6114a4612404565b6114ae81336126da565b6114ca5760405162461bcd60e51b81526004016108bb906131a7565b6099546040516323b872dd60e01b81526001600160a01b03909116906323b872dd906114fe903390309086906004016131d0565b600060405180830381600087803b15801561151857600080fd5b505af115801561152c573d6000803e3d6000fd5b5050505061153f8130600060a0546125c3565b50600061154b82611339565b90508060a0600082825461155f9190613147565b9091555050609f80549060006115748361318c565b909155505033600090815260a3602052604081208054839290611598908490613147565b90915550506040805160808101825233808252602080830186815260008486018181526060860182815289835260a28552878320965187546001600160a01b0319166001600160a01b03909116178755925160018088019190915590516002870155915160039095019490945582845260a182528484208054918201815584529281902090920185905582519081529081018490527febedb8b3c678666e7f36970bc8f57abf6d8fa2e828c0da91ea5b75bf68ed101a910160405180910390a1609b546001600160a01b031615610ce457609b546040516304e3034f60e31b81526001600160a01b03909116906327181a789061169d90339086908690600401613227565b600060405180830381600087803b1580156116b757600080fd5b505af11580156116cb573d6000803e3d6000fd5b505050505050565b6001600160a01b038116600090815260a1602052604081208190815b815481101561173b5761171d82828154811061170d5761170d613176565b9060005260206000200154611d88565b6117279084613147565b9250806117338161318c565b9150506116ef565b50909392505050565b61174c6124b8565b60005b818110156118ef5760006098600085858581811061176f5761176f613176565b90506060020160400160208101906117879190612d77565b6001600160a01b03166001600160a01b0316815260200190815260200160002090506117f88484848181106117be576117be613176565b90506060020160400160208101906117d69190612d77565b828686868181106117e9576117e9613176565b90506060020160200135612764565b5083838381811061180b5761180b613176565b61182192602060609092020190810191506133f0565b81546fffffffffffffffffffffffffffffffff19166001600160801b039190911617815583838381811061185757611857613176565b905060600201604001602081019061186f9190612d77565b6001600160a01b03167f87fa03892a0556cb6b8f97e6d533a150d4d55fcbf275fff5fa003fa636bcc7fa8585858181106118ab576118ab613176565b6118c192602060609092020190810191506133f0565b6040516001600160801b03909116815260200160405180910390a250806118e78161318c565b91505061174f565b505050565b33600090815260a4602052604090205460ff166119485760405162461bcd60e51b815260206004820152601260248201527113d3931657d41493d513d0d3d317d0d0531360721b60448201526064016108bb565b61195182611e3a565b6119905760405162461bcd60e51b815260206004820152601060248201526f1513d2d15397d393d517d4d51052d15160821b60448201526064016108bb565b600082815260a260205260409020546001600160a01b039081169082168114156119e95760405162461bcd60e51b815260206004820152600a60248201526929a0a6a2afa7aba722a960b11b60448201526064016108bb565b600083815260a26020908152604080832080546001600160a01b0319166001600160a01b03878116919091179091558416835260a19091528120905b8154811015611ada5784828281548110611a4157611a41613176565b90600052602060002001541415611ac85781548290611a629060019061315f565b81548110611a7257611a72613176565b9060005260206000200154828281548110611a8f57611a8f613176565b906000526020600020018190555081805480611aad57611aad613211565b60019003818190600052602060002001600090559055611ada565b80611ad28161318c565b915050611a25565b506001600160a01b03838116600090815260a160209081526040808320805460018101825590845291832090910187905560995490516301ff8f7360e41b81526004810188905291921690631ff8f73090602401600060405180830381865afa158015611b4b573d6000803e3d6000fd5b505050506040513d6000823e601f3d908101601f19168201604052611b739190810190613324565b90506000611b898260800151836060015161086e565b6001600160a01b038516600090815260a36020526040812080549293508392909190611bb690849061315f565b90915550506001600160a01b038516600090815260a3602052604081208054839290611be3908490613147565b9091555060009050611bf487611d88565b609d54609a54919250611c15916001600160a01b039081169116878461245a565b7fe74e5c9d4ac1fc33412485f18c159a0a391efe287ab3fd271123f30e6bacf4e3858883604051611c4893929190613227565b60405180910390a1609b546001600160a01b031615611d2f57609b546040516304e3034f60e31b81526001600160a01b03909116906327181a7890611c969088908b90600090600401613227565b600060405180830381600087803b158015611cb057600080fd5b505af1158015611cc4573d6000803e3d6000fd5b5050609b546040516304e3034f60e31b81526001600160a01b0390911692506327181a789150611cfc9089908b908790600401613227565b600060405180830381600087803b158015611d1657600080fd5b505af1158015611d2a573d6000803e3d6000fd5b505050505b60408051338152602081018990526001600160a01b03878116828401528816606082015290517fe54d65876373ae0d214d87fc1ec9d5750e5fdb4057e3876f3937b747d0073d1b9181900360800190a150505050505050565b604080516001808252818301909252600091829190816020015b611dcf604051806060016040528060006001600160a01b0316815260200160008152602001600081525090565b815260200190600190039081611da25790505090506040518060600160405280306001600160a01b03168152602001611e0785611339565b815260200160a05481525081600081518110611e2557611e25613176565b6020026020010181905250610867838261281c565b600081815260a260205260408120611e5283306126da565b80156108675750600301541592915050565b611e6c6124b8565b6001600160a01b038116611e925760405162461bcd60e51b81526004016108bb90613248565b609b546040517f77733bc40883159fa5314987682f9eba84f49ef5dfdf3c51f3ee1db5a694f34c91611ed19133916001600160a01b0316908590613271565b60405180910390a1609b80546001600160a01b0319166001600160a01b0392909216919091179055565b611f03612404565b611f0c81611e3a565b611f4b5760405162461bcd60e51b815260206004820152601060248201526f1513d2d15397d393d517d4d05512d15160821b60448201526064016108bb565b600081815260a260205260409020546001600160a01b03163314611f815760405162461bcd60e51b81526004016108bb906131a7565b609c5460405163893c8cc160e01b8152600481018390526001600160a01b039091169063893c8cc190602401602060405180830381865afa158015611fca573d6000803e3d6000fd5b505050506040513d601f19601f82011682018060405250810190611fee91906131f4565b156120325760405162461bcd60e51b8152602060048201526014602482015273544f4b454e5f5354414b45445f41535f4e4f444560601b60448201526064016108bb565b600061203d82611339565b9050600061204b838361244a565b90508160a0600082825461205f919061315f565b9091555050609f80549060006120748361340b565b909155505033600090815260a360205260408120805484929061209890849061315f565b9091555050600083815260a2602090815260409182902042600382015560020183905581513381529081018590527f222838db2794d11532d940e8dec38ae307ed0b63cd97c233322e221f998767a6910160405180910390a1609b546001600160a01b0316156118ef57609b546040516304e3034f60e31b81526001600160a01b03909116906327181a78906121379033908790600090600401613227565b600060405180830381600087803b15801561215157600080fd5b505af1158015611146573d6000803e3d6000fd5b600081815260a260205260408120600301548015801590610867575042612197609e548361251290919063ffffffff16565b10159392505050565b60606000825167ffffffffffffffff8111156121be576121be612fd7565b6040519080825280602002602001820160405280156121e7578160200160208202803683370190505b5060408051600180825281830190925291925060009190816020015b612230604051806060016040528060006001600160a01b0316815260200160008152602001600081525090565b81526020019060019003908161220357905050905060005b845181101561173b576040518060600160405280306001600160a01b0316815260200161228d87848151811061228057612280613176565b6020026020010151611339565b815260200160a054815250826000815181106122ab576122ab613176565b60200260200101819052506122d98582815181106122cb576122cb613176565b60200260200101518361281c565b8382815181106122eb576122eb613176565b6020908102919091010152806123008161318c565b915050612248565b6123106124b8565b6001600160a01b0381166123755760405162461bcd60e51b815260206004820152602660248201527f4f776e61626c653a206e6577206f776e657220697320746865207a65726f206160448201526564647265737360d01b60648201526084016108bb565b61237e81612571565b50565b600061086783836040518060400160405280601e81526020017f536166654d6174683a207375627472616374696f6e206f766572666c6f770000815250612918565b6000600160005b838110156123f1576123dd82600a612952565b9150806123e98161318c565b9150506123ca565b506123fc8482612952565b949350505050565b60335460ff1615610e475760405162461bcd60e51b815260206004820152601060248201526f14185d5cd8589b194e881c185d5cd95960821b60448201526064016108bb565b600061086783308460a0546125c3565b6124b2846323b872dd60e01b85858560405160240161247b939291906131d0565b60408051601f198184030181529190526020810180516001600160e01b03166001600160e01b0319909316929092179091526129d1565b50505050565b6065546001600160a01b03163314610e475760405162461bcd60e51b815260206004820181905260248201527f4f776e61626c653a2063616c6c6572206973206e6f7420746865206f776e657260448201526064016108bb565b60008061251f8385613147565b9050838110156108675760405162461bcd60e51b815260206004820152601b60248201527f536166654d6174683a206164646974696f6e206f766572666c6f77000000000060448201526064016108bb565b606580546001600160a01b038381166001600160a01b0319831681179093556040519116919082907f8be0079c531659141344cd1fd0a4f28419497f9722a3daafe3b4186f6b6457e090600090a35050565b6001600160a01b03831660009081526098602090815260408083208784526002810190925282205482806125f8888588612764565b905080831461267057861561261557612612878285612b58565b91505b600089815260028501602052604090819020829055516001600160a01b038916908a907facd233ebcfcdfd157686f659e938be145c6d8c3ae3821a2795ae2211d1e9f588906126679085815260200190565b60405180910390a35b50979650505050505050565b600054610100900460ff166126a35760405162461bcd60e51b81526004016108bb90613422565b610e47612b83565b600054610100900460ff166126d25760405162461bcd60e51b81526004016108bb90613422565b610e47612bb6565b6099546040516331a9108f60e11b8152600481018490526000916001600160a01b031690636352211e90602401602060405180830381865afa158015612724573d6000803e3d6000fd5b505050506040513d601f19601f82011682018060405250810190612748919061346d565b6001600160a01b0316826001600160a01b031614905092915050565b6001820154825460009190600160801b90046001600160801b03164281141561278f57509050610867565b84546000906127aa9084906001600160801b03168488612be6565b90508281146127f957600186018190556040518181526001600160a01b038816907f5777ca300dfe5bead41006fbce4389794dbc0ed8d6cccebfaf94630aa04184bc9060200160405180910390a25b85546001600160801b03428116600160801b029116178655925050509392505050565b600080805b83518110156129105760006098600086848151811061284257612842613176565b602090810291909101810151516001600160a01b0316825281019190915260400160009081206001810154815488519294506128b0926001600160801b0380831692600160801b900416908a908890811061289f5761289f613176565b602002602001015160200151612be6565b90506128f96128f28785815181106128ca576128ca613176565b602002602001015160200151838560020160008c815260200190815260200160002054612b58565b8590612512565b9350505080806129089061318c565b915050612821565b509392505050565b6000818484111561293c5760405162461bcd60e51b81526004016108bb919061348a565b506000612949848661315f565b95945050505050565b600082612961575060006106d3565b600061296d83856134bd565b90508261297a85836134dc565b146108675760405162461bcd60e51b815260206004820152602160248201527f536166654d6174683a206d756c7469706c69636174696f6e206f766572666c6f6044820152607760f81b60648201526084016108bb565b6129e3826001600160a01b0316612c8e565b612a2f5760405162461bcd60e51b815260206004820152601f60248201527f5361666545524332303a2063616c6c20746f206e6f6e2d636f6e74726163740060448201526064016108bb565b600080836001600160a01b031683604051612a4a91906134fe565b6000604051808303816000865af19150503d8060008114612a87576040519150601f19603f3d011682016040523d82523d6000602084013e612a8c565b606091505b509150915081612ade5760405162461bcd60e51b815260206004820181905260248201527f5361666545524332303a206c6f772d6c6576656c2063616c6c206661696c656460448201526064016108bb565b8051156124b25780806020019051810190612af991906131f4565b6124b25760405162461bcd60e51b815260206004820152602a60248201527f5361666545524332303a204552433230206f7065726174696f6e20646964206e6044820152691bdd081cdd58d8d9595960b21b60648201526084016108bb565b60006123fc612b696012600a6135fe565b612b7d612b768686612381565b8790612952565b90612cc7565b600054610100900460ff16612baa5760405162461bcd60e51b81526004016108bb90613422565b6033805460ff19169055565b600054610100900460ff16612bdd5760405162461bcd60e51b81526004016108bb90613422565b610e4733612571565b6000831580612bf3575081155b80612c06575042836001600160801b0316145b80612c1c5750609754836001600160801b031610155b15612c285750836123fc565b60006097544211612c395742612c3d565b6097545b90506000612c54826001600160801b038716612381565b9050612c8387612c7d86612b7d612c6d6012600a6135fe565b612c778c88612952565b90612952565b90612512565b979650505050505050565b6000813f7fc5d2460186f7233c927e7db2dcc703c0e500b653ca82273b7bfad8045d85a4708181148015906123fc575050151592915050565b600061086783836040518060400160405280601a81526020017f536166654d6174683a206469766973696f6e206279207a65726f00000000000081525060008183612d255760405162461bcd60e51b81526004016108bb919061348a565b50600061294984866134dc565b6001600160a01b038116811461237e57600080fd5b60008060408385031215612d5a57600080fd5b823591506020830135612d6c81612d32565b809150509250929050565b600060208284031215612d8957600080fd5b813561086781612d32565b600080600060608486031215612da957600080fd5b8335612db481612d32565b95602085013595506040909401359392505050565b602080825282518282018190526000919060409081850190868401855b82811015612e2957815180516001600160a01b03168552868101518786015285810151868601526060908101519085015260809093019290850190600101612de6565b5091979650505050505050565b60008060408385031215612e4957600080fd5b50508035926020909101359150565b600060208284031215612e6a57600080fd5b5035919050565b801515811461237e57600080fd5b60008060408385031215612e9257600080fd5b8235612e9d81612d32565b91506020830135612d6c81612e71565b60008060408385031215612ec057600080fd5b8235612ecb81612d32565b946020939093013593505050565b80356001600160801b0381168114612ef057600080fd5b919050565b600080600080600060a08688031215612f0d57600080fd5b8535612f1881612d32565b94506020860135612f2881612d32565b93506040860135612f3881612d32565b92506060860135612f4881612d32565b9150612f5660808701612ed9565b90509295509295909350565b60008060208385031215612f7557600080fd5b823567ffffffffffffffff80821115612f8d57600080fd5b818501915085601f830112612fa157600080fd5b813581811115612fb057600080fd5b866020606083028501011115612fc557600080fd5b60209290920196919550909350505050565b634e487b7160e01b600052604160045260246000fd5b60405160a0810167ffffffffffffffff8111828210171561301057613010612fd7565b60405290565b604051601f8201601f1916810167ffffffffffffffff8111828210171561303f5761303f612fd7565b604052919050565b6000602080838503121561305a57600080fd5b823567ffffffffffffffff8082111561307257600080fd5b818501915085601f83011261308657600080fd5b81358181111561309857613098612fd7565b8060051b91506130a9848301613016565b81815291830184019184810190888411156130c357600080fd5b938501935b838510156130e1578435825293850193908501906130c8565b98975050505050505050565b6020808252825182820181905260009190848201906040850190845b8181101561312557835183529284019291840191600101613109565b50909695505050505050565b634e487b7160e01b600052601160045260246000fd5b6000821982111561315a5761315a613131565b500190565b60008282101561317157613171613131565b500390565b634e487b7160e01b600052603260045260246000fd5b60006000198214156131a0576131a0613131565b5060010190565b6020808252600f908201526e2727aa2faa27a5a2a72fa7aba722a960891b604082015260600190565b6001600160a01b039384168152919092166020820152604081019190915260600190565b60006020828403121561320657600080fd5b815161086781612e71565b634e487b7160e01b600052603160045260246000fd5b6001600160a01b039390931683526020830191909152604082015260600190565b6020808252600f908201526e494e56414c49445f4144445245535360881b604082015260600190565b6001600160a01b0393841681529183166020830152909116604082015260600190565b60005b838110156132af578181015183820152602001613297565b838111156124b25750506000910152565b600082601f8301126132d157600080fd5b815167ffffffffffffffff8111156132eb576132eb612fd7565b6132fe601f8201601f1916602001613016565b81815284602083860101111561331357600080fd5b6123fc826020830160208701613294565b60006020828403121561333657600080fd5b815167ffffffffffffffff8082111561334e57600080fd5b9083019060a0828603121561336257600080fd5b61336a612fed565b82518281111561337957600080fd5b613385878286016132c0565b82525060208301518281111561339a57600080fd5b6133a6878286016132c0565b6020830152506040830151828111156133be57600080fd5b6133ca878286016132c0565b604083015250606083015160608201526080830151608082015280935050505092915050565b60006020828403121561340257600080fd5b61086782612ed9565b60008161341a5761341a613131565b506000190190565b6020808252602b908201527f496e697469616c697a61626c653a20636f6e7472616374206973206e6f74206960408201526a6e697469616c697a696e6760a81b606082015260800190565b60006020828403121561347f57600080fd5b815161086781612d32565b60208152600082518060208401526134a9816040850160208701613294565b601f01601f19169190910160400192915050565b60008160001904831182151516156134d7576134d7613131565b500290565b6000826134f957634e487b7160e01b600052601260045260246000fd5b500490565b60008251613510818460208701613294565b9190910192915050565b600181815b8085111561355557816000190482111561353b5761353b613131565b8085161561354857918102915b93841c939080029061351f565b509250929050565b60008261356c575060016106d3565b81613579575060006106d3565b816001811461358f5760028114613599576135b5565b60019150506106d3565b60ff8411156135aa576135aa613131565b50506001821b6106d3565b5060208310610133831016604e8410600b84101617156135d8575081810a6106d3565b6135e2838361351a565b80600019048211156135f6576135f6613131565b029392505050565b6000610867838361355d56fea2646970667358221220b3ca31b1af9e9e572139fe2c3fef3bb2c90c6503c6823de54be98ff7e19827dd64736f6c634300080b0033",
  "linkReferences": {},
  "deployedLinkReferences": {}
}