{
  "_format": "hh-sol-artifact-1",
  "contractName": "StakedSoccerStarNftV2",
  "sourceName": "contracts/stake/StakedSoccerStarNftV2.sol",
  "abi": [
    {
      "anonymous": false,
      "inputs": [
        {
          "indexed": true,
          "internalType": "address",
          "name": "asset",
          "type": "address"
        },
        {
          "indexed": false,
          "internalType": "uint256",
          "name": "emission",
          "type": "uint256"
        }
      ],
      "name": "AssetConfigUpdated",
      "type": "event"
    },
    {
      "anonymous": false,
      "inputs": [
        {
          "indexed": true,
          "internalType": "address",
          "name": "asset",
          "type": "address"
        },
        {
          "indexed": false,
          "internalType": "uint256",
          "name": "index",
          "type": "uint256"
        }
      ],
      "name": "AssetIndexUpdated",
      "type": "event"
    },
    {
      "anonymous": false,
      "inputs": [
        {
          "indexed": false,
          "internalType": "address",
          "name": "sender",
          "type": "address"
        },
        {
          "indexed": false,
          "internalType": "address",
          "name": "oldValue",
          "type": "address"
        },
        {
          "indexed": false,
          "internalType": "address",
          "name": "newValue",
          "type": "address"
        }
      ],
      "name": "BalanceHookChanged",
      "type": "event"
    },
    {
      "anonymous": false,
      "inputs": [
        {
          "indexed": false,
          "internalType": "address",
          "name": "sender",
          "type": "address"
        },
        {
          "indexed": false,
          "internalType": "uint256",
          "name": "tokenId",
          "type": "uint256"
        },
        {
          "indexed": false,
          "internalType": "uint256",
          "name": "amount",
          "type": "uint256"
        }
      ],
      "name": "ClaimReward",
      "type": "event"
    },
    {
      "anonymous": false,
      "inputs": [
        {
          "indexed": false,
          "internalType": "address",
          "name": "sender",
          "type": "address"
        },
        {
          "indexed": false,
          "internalType": "address",
          "name": "oldValue",
          "type": "address"
        },
        {
          "indexed": false,
          "internalType": "address",
          "name": "newValue",
          "type": "address"
        }
      ],
      "name": "CoolDownDurationChanged",
      "type": "event"
    },
    {
      "anonymous": false,
      "inputs": [
        {
          "indexed": false,
          "internalType": "uint8",
          "name": "version",
          "type": "uint8"
        }
      ],
      "name": "Initialized",
      "type": "event"
    },
    {
      "anonymous": false,
      "inputs": [
        {
          "indexed": true,
          "internalType": "address",
          "name": "previousOwner",
          "type": "address"
        },
        {
          "indexed": true,
          "internalType": "address",
          "name": "newOwner",
          "type": "address"
        }
      ],
      "name": "OwnershipTransferred",
      "type": "event"
    },
    {
      "anonymous": false,
      "inputs": [
        {
          "indexed": false,
          "internalType": "address",
          "name": "account",
          "type": "address"
        }
      ],
      "name": "Paused",
      "type": "event"
    },
    {
      "anonymous": false,
      "inputs": [
        {
          "indexed": false,
          "internalType": "address",
          "name": "sender",
          "type": "address"
        },
        {
          "indexed": false,
          "internalType": "uint256",
          "name": "tokenId",
          "type": "uint256"
        }
      ],
      "name": "Redeem",
      "type": "event"
    },
    {
      "anonymous": false,
      "inputs": [
        {
          "indexed": false,
          "internalType": "address",
          "name": "sender",
          "type": "address"
        },
        {
          "indexed": false,
          "internalType": "address",
          "name": "oldValue",
          "type": "address"
        },
        {
          "indexed": false,
          "internalType": "address",
          "name": "newValue",
          "type": "address"
        }
      ],
      "name": "RewardTokenChanged",
      "type": "event"
    },
    {
      "anonymous": false,
      "inputs": [
        {
          "indexed": false,
          "internalType": "address",
          "name": "sender",
          "type": "address"
        },
        {
          "indexed": false,
          "internalType": "address",
          "name": "oldValue",
          "type": "address"
        },
        {
          "indexed": false,
          "internalType": "address",
          "name": "newValue",
          "type": "address"
        }
      ],
      "name": "RewardVaultChanged",
      "type": "event"
    },
    {
      "anonymous": false,
      "inputs": [
        {
          "indexed": false,
          "internalType": "address",
          "name": "sender",
          "type": "address"
        },
        {
          "indexed": false,
          "internalType": "uint256",
          "name": "tokenId",
          "type": "uint256"
        }
      ],
      "name": "Stake",
      "type": "event"
    },
    {
      "anonymous": false,
      "inputs": [
        {
          "indexed": false,
          "internalType": "address",
          "name": "sender",
          "type": "address"
        },
        {
          "indexed": false,
          "internalType": "address",
          "name": "oldValue",
          "type": "address"
        },
        {
          "indexed": false,
          "internalType": "address",
          "name": "newValue",
          "type": "address"
        }
      ],
      "name": "StakedTokenChanged",
      "type": "event"
    },
    {
      "anonymous": false,
      "inputs": [
        {
          "indexed": false,
          "internalType": "address",
          "name": "sender",
          "type": "address"
        },
        {
          "indexed": false,
          "internalType": "uint256",
          "name": "tokenId",
          "type": "uint256"
        },
        {
          "indexed": false,
          "internalType": "address",
          "name": "owner",
          "type": "address"
        },
        {
          "indexed": false,
          "internalType": "address",
          "name": "to",
          "type": "address"
        }
      ],
      "name": "TransferOwnershipNFT",
      "type": "event"
    },
    {
      "anonymous": false,
      "inputs": [
        {
          "indexed": false,
          "internalType": "address",
          "name": "account",
          "type": "address"
        }
      ],
      "name": "Unpaused",
      "type": "event"
    },
    {
      "anonymous": false,
      "inputs": [
        {
          "indexed": true,
          "internalType": "uint256",
          "name": "tokenId",
          "type": "uint256"
        },
        {
          "indexed": true,
          "internalType": "address",
          "name": "asset",
          "type": "address"
        },
        {
          "indexed": false,
          "internalType": "uint256",
          "name": "index",
          "type": "uint256"
        }
      ],
      "name": "UserIndexUpdated",
      "type": "event"
    },
    {
      "anonymous": false,
      "inputs": [
        {
          "indexed": false,
          "internalType": "address",
          "name": "sender",
          "type": "address"
        },
        {
          "indexed": false,
          "internalType": "uint256",
          "name": "tokenId",
          "type": "uint256"
        }
      ],
      "name": "Withdraw",
      "type": "event"
    },
    {
      "inputs": [],
      "name": "DISTRIBUTION_END",
      "outputs": [
        {
          "internalType": "uint256",
          "name": "",
          "type": "uint256"
        }
      ],
      "stateMutability": "view",
      "type": "function"
    },
    {
      "inputs": [],
      "name": "NODE",
      "outputs": [
        {
          "internalType": "contract IBIBNode",
          "name": "",
          "type": "address"
        }
      ],
      "stateMutability": "view",
      "type": "function"
    },
    {
      "inputs": [],
      "name": "PRECISION",
      "outputs": [
        {
          "internalType": "uint8",
          "name": "",
          "type": "uint8"
        }
      ],
      "stateMutability": "view",
      "type": "function"
    },
    {
      "inputs": [],
      "name": "REWARDS_VAULT",
      "outputs": [
        {
          "internalType": "address",
          "name": "",
          "type": "address"
        }
      ],
      "stateMutability": "view",
      "type": "function"
    },
    {
      "inputs": [],
      "name": "REWARD_TOKEN",
      "outputs": [
        {
          "internalType": "contract IERC20",
          "name": "",
          "type": "address"
        }
      ],
      "stateMutability": "view",
      "type": "function"
    },
    {
      "inputs": [],
      "name": "STAKED_TOKEN",
      "outputs": [
        {
          "internalType": "contract ISoccerStarNft",
          "name": "",
          "type": "address"
        }
      ],
      "stateMutability": "view",
      "type": "function"
    },
    {
      "inputs": [
        {
          "internalType": "address",
          "name": "",
          "type": "address"
        }
      ],
      "name": "allowProtocolToCallTb",
      "outputs": [
        {
          "internalType": "bool",
          "name": "",
          "type": "bool"
        }
      ],
      "stateMutability": "view",
      "type": "function"
    },
    {
      "inputs": [
        {
          "internalType": "address",
          "name": "",
          "type": "address"
        }
      ],
      "name": "assets",
      "outputs": [
        {
          "internalType": "uint128",
          "name": "emissionPerSecond",
          "type": "uint128"
        },
        {
          "internalType": "uint128",
          "name": "lastUpdateTimestamp",
          "type": "uint128"
        },
        {
          "internalType": "uint256",
          "name": "index",
          "type": "uint256"
        }
      ],
      "stateMutability": "view",
      "type": "function"
    },
    {
      "inputs": [],
      "name": "balanceHook",
      "outputs": [
        {
          "internalType": "contract IBalanceHook",
          "name": "",
          "type": "address"
        }
      ],
      "stateMutability": "view",
      "type": "function"
    },
    {
      "inputs": [
        {
          "internalType": "uint256",
          "name": "gradient",
          "type": "uint256"
        },
        {
          "internalType": "uint256",
          "name": "starLevel",
          "type": "uint256"
        }
      ],
      "name": "caculatePower",
      "outputs": [
        {
          "internalType": "uint256",
          "name": "power",
          "type": "uint256"
        }
      ],
      "stateMutability": "pure",
      "type": "function"
    },
    {
      "inputs": [],
      "name": "claimRewards",
      "outputs": [],
      "stateMutability": "nonpayable",
      "type": "function"
    },
    {
      "inputs": [
        {
          "internalType": "address",
          "name": "to",
          "type": "address"
        }
      ],
      "name": "claimRewardsOnbehalfOf",
      "outputs": [],
      "stateMutability": "nonpayable",
      "type": "function"
    },
    {
      "inputs": [
        {
          "components": [
            {
              "internalType": "uint128",
              "name": "emissionPerSecond",
              "type": "uint128"
            },
            {
              "internalType": "uint256",
              "name": "totalPower",
              "type": "uint256"
            },
            {
              "internalType": "address",
              "name": "underlyingAsset",
              "type": "address"
            }
          ],
          "internalType": "struct DistributionTypes.AssetConfigInput[]",
          "name": "assetsConfigInput",
          "type": "tuple[]"
        }
      ],
      "name": "configureAssets",
      "outputs": [],
      "stateMutability": "nonpayable",
      "type": "function"
    },
    {
      "inputs": [],
      "name": "coolDownDuration",
      "outputs": [
        {
          "internalType": "uint256",
          "name": "",
          "type": "uint256"
        }
      ],
      "stateMutability": "view",
      "type": "function"
    },
    {
      "inputs": [
        {
          "internalType": "uint256",
          "name": "tokenId",
          "type": "uint256"
        },
        {
          "internalType": "address",
          "name": "asset",
          "type": "address"
        }
      ],
      "name": "getTokenAssetData",
      "outputs": [
        {
          "internalType": "uint256",
          "name": "",
          "type": "uint256"
        }
      ],
      "stateMutability": "view",
      "type": "function"
    },
    {
      "inputs": [
        {
          "internalType": "uint256",
          "name": "tokenId",
          "type": "uint256"
        }
      ],
      "name": "getTokenOwner",
      "outputs": [
        {
          "internalType": "address",
          "name": "",
          "type": "address"
        }
      ],
      "stateMutability": "view",
      "type": "function"
    },
    {
      "inputs": [
        {
          "internalType": "uint256",
          "name": "tokenId",
          "type": "uint256"
        }
      ],
      "name": "getTokenPower",
      "outputs": [
        {
          "internalType": "uint256",
          "name": "power",
          "type": "uint256"
        }
      ],
      "stateMutability": "view",
      "type": "function"
    },
    {
      "inputs": [
        {
          "internalType": "address",
          "name": "staker",
          "type": "address"
        }
      ],
      "name": "getUnClaimedRewards",
      "outputs": [
        {
          "internalType": "uint256",
          "name": "",
          "type": "uint256"
        }
      ],
      "stateMutability": "view",
      "type": "function"
    },
    {
      "inputs": [
        {
          "internalType": "uint256",
          "name": "tokenId",
          "type": "uint256"
        }
      ],
      "name": "getUnClaimedRewardsByToken",
      "outputs": [
        {
          "internalType": "uint256",
          "name": "",
          "type": "uint256"
        }
      ],
      "stateMutability": "view",
      "type": "function"
    },
    {
      "inputs": [
        {
          "internalType": "uint256[]",
          "name": "tokenIds",
          "type": "uint256[]"
        }
      ],
      "name": "getUnClaimedRewardsByTokens",
      "outputs": [
        {
          "internalType": "uint256[]",
          "name": "amount",
          "type": "uint256[]"
        }
      ],
      "stateMutability": "view",
      "type": "function"
    },
    {
      "inputs": [
        {
          "internalType": "address",
          "name": "user",
          "type": "address"
        },
        {
          "internalType": "uint256",
          "name": "pageSt",
          "type": "uint256"
        },
        {
          "internalType": "uint256",
          "name": "pageSz",
          "type": "uint256"
        }
      ],
      "name": "getUserStakedInfoByPage",
      "outputs": [
        {
          "components": [
            {
              "internalType": "address",
              "name": "owner",
              "type": "address"
            },
            {
              "internalType": "uint256",
              "name": "tokenId",
              "type": "uint256"
            },
            {
              "internalType": "uint256",
              "name": "unclaimed",
              "type": "uint256"
            },
            {
              "internalType": "uint256",
              "name": "cooldown",
              "type": "uint256"
            }
          ],
          "internalType": "struct IStakedSoccerStarNftV2.TokenStakedInfo[]",
          "name": "userStaked",
          "type": "tuple[]"
        }
      ],
      "stateMutability": "view",
      "type": "function"
    },
    {
      "inputs": [
        {
          "internalType": "contract IBIBNode",
          "name": "_node",
          "type": "address"
        },
        {
          "internalType": "contract ISoccerStarNft",
          "name": "stakedToken",
          "type": "address"
        },
        {
          "internalType": "contract IERC20",
          "name": "rewardToken",
          "type": "address"
        },
        {
          "internalType": "address",
          "name": "rewardsVault",
          "type": "address"
        },
        {
          "internalType": "uint128",
          "name": "distributionDuration",
          "type": "uint128"
        }
      ],
      "name": "initialize",
      "outputs": [],
      "stateMutability": "nonpayable",
      "type": "function"
    },
    {
      "inputs": [
        {
          "internalType": "uint256",
          "name": "tokenId",
          "type": "uint256"
        }
      ],
      "name": "isStaked",
      "outputs": [
        {
          "internalType": "bool",
          "name": "",
          "type": "bool"
        }
      ],
      "stateMutability": "view",
      "type": "function"
    },
    {
      "inputs": [
        {
          "internalType": "uint256",
          "name": "tokenId",
          "type": "uint256"
        }
      ],
      "name": "isUnfreezing",
      "outputs": [
        {
          "internalType": "bool",
          "name": "",
          "type": "bool"
        }
      ],
      "stateMutability": "view",
      "type": "function"
    },
    {
      "inputs": [
        {
          "internalType": "uint256",
          "name": "tokenId",
          "type": "uint256"
        }
      ],
      "name": "isWithdrawAble",
      "outputs": [
        {
          "internalType": "bool",
          "name": "",
          "type": "bool"
        }
      ],
      "stateMutability": "view",
      "type": "function"
    },
    {
      "inputs": [],
      "name": "owner",
      "outputs": [
        {
          "internalType": "address",
          "name": "",
          "type": "address"
        }
      ],
      "stateMutability": "view",
      "type": "function"
    },
    {
      "inputs": [],
      "name": "paused",
      "outputs": [
        {
          "internalType": "bool",
          "name": "",
          "type": "bool"
        }
      ],
      "stateMutability": "view",
      "type": "function"
    },
    {
      "inputs": [
        {
          "internalType": "uint256",
          "name": "tokenId",
          "type": "uint256"
        }
      ],
      "name": "redeem",
      "outputs": [],
      "stateMutability": "nonpayable",
      "type": "function"
    },
    {
      "inputs": [],
      "name": "renounceOwnership",
      "outputs": [],
      "stateMutability": "nonpayable",
      "type": "function"
    },
    {
      "inputs": [
        {
          "internalType": "address",
          "name": "_protAddr",
          "type": "address"
        },
        {
          "internalType": "bool",
          "name": "value",
          "type": "bool"
        }
      ],
      "name": "setAllowProtocolToCall",
      "outputs": [],
      "stateMutability": "nonpayable",
      "type": "function"
    },
    {
      "inputs": [
        {
          "internalType": "address",
          "name": "_newValue",
          "type": "address"
        }
      ],
      "name": "setBalanceHook",
      "outputs": [],
      "stateMutability": "nonpayable",
      "type": "function"
    },
    {
      "inputs": [
        {
          "internalType": "uint256",
          "name": "distributionDuration",
          "type": "uint256"
        }
      ],
      "name": "setDistributionDuration",
      "outputs": [],
      "stateMutability": "nonpayable",
      "type": "function"
    },
    {
      "inputs": [
        {
          "internalType": "address",
          "name": "_newValue",
          "type": "address"
        }
      ],
      "name": "setRewardToken",
      "outputs": [],
      "stateMutability": "nonpayable",
      "type": "function"
    },
    {
      "inputs": [
        {
          "internalType": "address",
          "name": "_newValue",
          "type": "address"
        }
      ],
      "name": "setRewardVault",
      "outputs": [],
      "stateMutability": "nonpayable",
      "type": "function"
    },
    {
      "inputs": [
        {
          "internalType": "address",
          "name": "_newValue",
          "type": "address"
        }
      ],
      "name": "setStakedToken",
      "outputs": [],
      "stateMutability": "nonpayable",
      "type": "function"
    },
    {
      "inputs": [
        {
          "internalType": "uint256[]",
          "name": "tokenIds",
          "type": "uint256[]"
        }
      ],
      "name": "stake",
      "outputs": [],
      "stateMutability": "nonpayable",
      "type": "function"
    },
    {
      "inputs": [
        {
          "internalType": "uint256",
          "name": "tokenId",
          "type": "uint256"
        }
      ],
      "name": "stake",
      "outputs": [],
      "stateMutability": "nonpayable",
      "type": "function"
    },
    {
      "inputs": [
        {
          "internalType": "uint256",
          "name": "",
          "type": "uint256"
        }
      ],
      "name": "tokenStakedInfoTb",
      "outputs": [
        {
          "internalType": "address",
          "name": "owner",
          "type": "address"
        },
        {
          "internalType": "uint256",
          "name": "tokenId",
          "type": "uint256"
        },
        {
          "internalType": "uint256",
          "name": "unclaimed",
          "type": "uint256"
        },
        {
          "internalType": "uint256",
          "name": "cooldown",
          "type": "uint256"
        }
      ],
      "stateMutability": "view",
      "type": "function"
    },
    {
      "inputs": [],
      "name": "totalPower",
      "outputs": [
        {
          "internalType": "uint256",
          "name": "",
          "type": "uint256"
        }
      ],
      "stateMutability": "view",
      "type": "function"
    },
    {
      "inputs": [],
      "name": "totalStaked",
      "outputs": [
        {
          "internalType": "uint256",
          "name": "",
          "type": "uint256"
        }
      ],
      "stateMutability": "view",
      "type": "function"
    },
    {
      "inputs": [
        {
          "internalType": "address",
          "name": "newOwner",
          "type": "address"
        }
      ],
      "name": "transferOwnership",
      "outputs": [],
      "stateMutability": "nonpayable",
      "type": "function"
    },
    {
      "inputs": [
        {
          "internalType": "uint256",
          "name": "tokenId",
          "type": "uint256"
        },
        {
          "internalType": "address",
          "name": "to",
          "type": "address"
        }
      ],
      "name": "transferOwnershipNFT",
      "outputs": [],
      "stateMutability": "nonpayable",
      "type": "function"
    },
    {
      "inputs": [
        {
          "internalType": "uint256",
          "name": "tokenId",
          "type": "uint256"
        },
        {
          "internalType": "uint256",
          "name": "starLevel",
          "type": "uint256"
        }
      ],
      "name": "updateStarlevel",
      "outputs": [],
      "stateMutability": "nonpayable",
      "type": "function"
    },
    {
      "inputs": [
        {
          "internalType": "address",
          "name": "",
          "type": "address"
        },
        {
          "internalType": "uint256",
          "name": "",
          "type": "uint256"
        }
      ],
      "name": "userStakedTokenTb",
      "outputs": [
        {
          "internalType": "uint256",
          "name": "",
          "type": "uint256"
        }
      ],
      "stateMutability": "view",
      "type": "function"
    },
    {
      "inputs": [
        {
          "internalType": "address",
          "name": "",
          "type": "address"
        }
      ],
      "name": "userTotalPower",
      "outputs": [
        {
          "internalType": "uint256",
          "name": "",
          "type": "uint256"
        }
      ],
      "stateMutability": "view",
      "type": "function"
    },
    {
      "inputs": [
        {
          "internalType": "uint256",
          "name": "tokenId",
          "type": "uint256"
        }
      ],
      "name": "withdraw",
      "outputs": [],
      "stateMutability": "nonpayable",
      "type": "function"
    }
  ],
  "bytecode": "0x608060405234801561001057600080fd5b50613818806100206000396000f3fe608060405234801561001057600080fd5b506004361061028a5760003560e01c80638aee81271161015c578063b2a5dbfa116100ce578063db006a7511610087578063db006a7514610623578063db21544e14610636578063db3ad22c14610649578063e8a44ae014610652578063f11b818814610672578063f2fde38b146106d457600080fd5b8063b2a5dbfa146105b1578063b3bc2b02146105c4578063b41021fc146105d7578063b6696cec146105ea578063baa51f86146105fd578063c177a00b1461061057600080fd5b8063a121bcba11610120578063a121bcba146104cc578063a5be4e8d146104df578063a5cd761f14610548578063a694fc3a14610571578063aaf5eb6814610584578063aca119801461059e57600080fd5b80638aee8127146104795780638da5cb5b1461048c578063919cd40f1461049d578063946776cd146104a657806399248ea7146104b957600080fd5b806352e9c6d4116102005780637ae6d741116101b95780637ae6d7411461041b5780638125dd101461042e578063817b1cd21461044157806382eab3471461044a57806384b98f001461045d57806387c5d8321461046657600080fd5b806352e9c6d4146103af578063547ccbb6146103c25780635c975abb146103d55780635d3c0cfe146103e05780635e002433146103f3578063715018a61461041357600080fd5b80632e1a7d4d116102525780632e1a7d4d14610330578063312f6b8314610343578063372500ab1461036e57806344aa46e51461037657806351bfcdbd1461038957806351dec6231461039c57600080fd5b80630498e2a71461028f5780630afdd4e9146102b55780630fbf0a93146102e857806316d7a8b3146102fd5780632a22820a1461031d575b600080fd5b6102a261029d366004612eff565b6106e7565b6040519081526020015b60405180910390f35b6102d86102c3366004612f2f565b60a46020526000908152604090205460ff1681565b60405190151581526020016102ac565b6102fb6102f6366004612fbc565b610715565b005b61031061030b366004613062565b610761565b6040516102ac9190613097565b6102a261032b366004613104565b6108f6565b6102fb61033e366004613126565b6109b2565b609954610356906001600160a01b031681565b6040516001600160a01b0390911681526020016102ac565b6102fb610be2565b6102fb61038436600461314d565b610cfb565b609c54610356906001600160a01b031681565b6102a26103aa36600461317b565b610d2e565b6102fb6103bd366004612f2f565b610d5f565b6102d86103d0366004613126565b610df6565b60335460ff166102d8565b6102fb6103ee366004613126565b610e30565b6102a2610401366004612f2f565b60a36020526000908152604090205481565b6102fb610e48565b6102fb610429366004613104565b610e5c565b6102fb61043c366004612f2f565b611150565b6102a2609f5481565b6102fb6104583660046131c3565b6111e7565b6102a2609e5481565b6102a2610474366004613126565b61133c565b6102fb610487366004612f2f565b611408565b6065546001600160a01b0316610356565b6102a260975481565b609d54610356906001600160a01b031681565b609a54610356906001600160a01b031681565b609b54610356906001600160a01b031681565b61051e6104ed366004613126565b60a26020526000908152604090208054600182015460028301546003909301546001600160a01b0390921692909184565b604080516001600160a01b03909516855260208501939093529183015260608201526080016102ac565b610356610556366004613126565b600090815260a260205260409020546001600160a01b031690565b6102fb61057f366004613126565b61149f565b61058c601281565b60405160ff90911681526020016102ac565b6102a26105ac366004612f2f565b6114b3565b6102fb6105bf366004613230565b61153f565b6102fb6105d2366004612eff565b6116ef565b6102fb6105e5366004612f2f565b611b72565b6102a26105f8366004613126565b611c4f565b6102d861060b366004613126565b611d15565b6102fb61061e366004612f2f565b611d3f565b6102fb610631366004613126565b611dd6565b6102d8610644366004613126565b6120c8565b6102a260a05481565b610665610660366004612fbc565b612103565b6040516102ac91906132a5565b6106ae610680366004612f2f565b609860205260009081526040902080546001909101546001600160801b0380831692600160801b9004169083565b604080516001600160801b039485168152939092166020840152908201526060016102ac565b6102fb6106e2366004612f2f565b612294565b6001600160a01b03811660009081526098602090815260408083208584526002019091529020545b92915050565b61071d61230a565b60005b815181101561075d5761074b82828151811061073e5761073e6132e9565b6020026020010151612350565b8061075581613315565b915050610720565b5050565b6001600160a01b038316600090815260a160205260409020805460609182918510156108eb5760006107938587613330565b825490915081116107a457806107a7565b81545b90506107b38682613348565b67ffffffffffffffff8111156107cb576107cb612f4c565b60405190808252806020026020018201604052801561083057816020015b61081d604051806080016040528060006001600160a01b031681526020016000815260200160008152602001600081525090565b8152602001906001900390816107e95790505b50925060005b818710156108e85760a26000848981548110610854576108546132e9565b600091825260208083209091015483528281019390935260409182019020815160808101835281546001600160a01b0316815260018201549381019390935260028101549183019190915260030154606082015284518590839081106108bc576108bc6132e9565b602002602001018190525086806108d290613315565b97505080806108e090613315565b915050610836565b50505b5090505b9392505050565b60008083118015610908575060048311155b61094c5760405162461bcd60e51b815260206004820152601060248201526f1253959053125117d1d490511251539560821b60448201526064015b60405180910390fd5b60008211801561095d575060048211155b61099d5760405162461bcd60e51b81526020600482015260116024820152701253959053125117d4d510549311559153607a1b6044820152606401610943565b6108ef6109ab83600161257f565b84906125c1565b6109ba61230a565b600081815260a260205260409020546001600160a01b031633146109f05760405162461bcd60e51b81526004016109439061335f565b6109f981610df6565b610a385760405162461bcd60e51b815260206004820152601060248201526f4e4f545f574954484452415741424c4560801b6044820152606401610943565b609954600082815260a2602052604090819020549051632142170760e11b81526001600160a01b03928316926342842e0e92610a7e923092909116908690600401613388565b600060405180830381600087803b158015610a9857600080fd5b505af1158015610aac573d6000803e3d6000fd5b505050600082815260a26020908152604080832080546001600160a01b0319168155600181018490556002810184905560030183905533835260a1909152812091505b8154811015610ba45782828281548110610b0b57610b0b6132e9565b90600052602060002001541415610b925781548290610b2c90600190613348565b81548110610b3c57610b3c6132e9565b9060005260206000200154828281548110610b5957610b596132e9565b906000526020600020018190555081805480610b7757610b776133ac565b60019003818190600052602060002001600090559055610ba4565b80610b9c81613315565b915050610aef565b5060408051338152602081018490527f884edad9ce6fa2440d8a54cc123490eb96d2768479d49ff9c7366125a9424364910160405180910390a15050565b610bea61230a565b33600090815260a160205260408120815b8154811015610cdc57610c29828281548110610c1957610c196132e9565b9060005260206000200154611d15565b15610cca57610c78828281548110610c4357610c436132e9565b9060005260206000200154610c73848481548110610c6357610c636132e9565b906000526020600020015461133c565b612602565b610c829084613330565b92506000805160206137c383398151915233838381548110610ca657610ca66132e9565b906000526020600020015485604051610cc1939291906133c2565b60405180910390a15b80610cd481613315565b915050610bfb565b50609d54609a5461075d916001600160a01b0391821691163385612612565b610d03612670565b6001600160a01b0391909116600090815260a460205260409020805460ff1916911515919091179055565b60a16020528160005260406000208181548110610d4a57600080fd5b90600052602060002001600091509150505481565b610d67612670565b6001600160a01b038116610d8d5760405162461bcd60e51b8152600401610943906133e3565b6099546040517fca507fc7d32f26f3815659b59a6d39afd1c1cc2c78b0fbdd74f0dad712f9789891610dcc9133916001600160a01b031690859061340c565b60405180910390a1609980546001600160a01b0319166001600160a01b0392909216919091179055565b600081815260a2602052604081206003015480158015906108ef575042610e28609e54836126ca90919063ffffffff16565b109392505050565b610e38612670565b610e4242826126ca565b60975550565b610e50612670565b610e5a6000612729565b565b33600090815260a4602052604090205460ff16610eb05760405162461bcd60e51b815260206004820152601260248201527113d3931657d41493d513d0d3d317d0d0531360721b6044820152606401610943565b610eb982611d15565b610ef85760405162461bcd60e51b815260206004820152601060248201526f1513d2d15397d393d517d4d51052d15160821b6044820152606401610943565b600082815260a260205260408120546001600160a01b031690610f1a84611c4f565b609d54609a54919250610f3b916001600160a01b0390811691168484612612565b6000805160206137c3833981519152828583604051610f5c939291906133c2565b60405180910390a1609954604051637ae6d74160e01b815260048101869052602481018590526001600160a01b0390911690637ae6d74190604401600060405180830381600087803b158015610fb157600080fd5b505af1158015610fc5573d6000803e3d6000fd5b50506099546040516301ff8f7360e41b815260048101889052600093506001600160a01b039091169150631ff8f73090602401600060405180830381865afa158015611015573d6000803e3d6000fd5b505050506040513d6000823e601f3d908101601f1916820160405261103d91908101906134bf565b9050600061104f8260800151866108f6565b6001600160a01b038516600090815260a3602052604090208054908290559091508082111561109e576110828183613348565b60a060008282546110939190613330565b909155506110bf9050565b6110a88183613348565b60a060008282546110b99190613348565b90915550505b6110ce8730600060a05461277b565b50609b546001600160a01b03161561114757609b546040516304e3034f60e31b81526001600160a01b03909116906327181a78906111149033908b9087906004016133c2565b600060405180830381600087803b15801561112e57600080fd5b505af1158015611142573d6000803e3d6000fd5b505050505b50505050505050565b611158612670565b6001600160a01b03811661117e5760405162461bcd60e51b8152600401610943906133e3565b609d546040517f44aadd56134558a1767b44c12fb2ffd2c3c304a7a77ebedc03ddf7b78f793948916111bd9133916001600160a01b031690859061340c565b60405180910390a1609d80546001600160a01b0319166001600160a01b0392909216919091179055565b600054600190610100900460ff16158015611209575060005460ff8083169116105b61126c5760405162461bcd60e51b815260206004820152602e60248201527f496e697469616c697a61626c653a20636f6e747261637420697320616c72656160448201526d191e481a5b9a5d1a585b1a5e995960921b6064820152608401610943565b6000805461ffff191660ff831617610100179055609980546001600160a01b038088166001600160a01b031992831617909255609a8054878416908316179055609d8054868416908316179055609c8054928916929091169190911790556112d2612834565b6112da612863565b62093a80609e556112f36001600160801b038316610e30565b6000805461ff001916905560405160ff821681527f7f26b83ff96e1f2b6a682f133852f6798a09c465da95921460cefb38474024989060200160405180910390a1505050505050565b6099546040516301ff8f7360e41b81526004810183905260009182916001600160a01b0390911690631ff8f73090602401600060405180830381865afa15801561138a573d6000803e3d6000fd5b505050506040513d6000823e601f3d908101601f191682016040526113b291908101906134bf565b905060008160600151116113f65760405162461bcd60e51b815260206004820152600b60248201526a10d0549117d5539491505360aa1b6044820152606401610943565b6108ef816080015182606001516108f6565b611410612670565b6001600160a01b0381166114365760405162461bcd60e51b8152600401610943906133e3565b609a546040517f60c2ec68191b35d1fff2d50e8b3fcc9bec20cddbf9b57d9ce4d73fe74406f106916114759133916001600160a01b031690859061340c565b60405180910390a1609a80546001600160a01b0319166001600160a01b0392909216919091179055565b6114a761230a565b6114b081612350565b50565b6001600160a01b038116600090815260a1602052604081208190815b8154811015611536576114ed828281548110610c1957610c196132e9565b1561152457611517828281548110611507576115076132e9565b9060005260206000200154611c4f565b6115219084613330565b92505b8061152e81613315565b9150506114cf565b50909392505050565b611547612670565b60005b818110156116ea5760006098600085858581811061156a5761156a6132e9565b90506060020160400160208101906115829190612f2f565b6001600160a01b03166001600160a01b0316815260200190815260200160002090506115f38484848181106115b9576115b96132e9565b90506060020160400160208101906115d19190612f2f565b828686868181106115e4576115e46132e9565b90506060020160200135612892565b50838383818110611606576116066132e9565b61161c926020606090920201908101915061358b565b81546fffffffffffffffffffffffffffffffff19166001600160801b0391909116178155838383818110611652576116526132e9565b905060600201604001602081019061166a9190612f2f565b6001600160a01b03167f87fa03892a0556cb6b8f97e6d533a150d4d55fcbf275fff5fa003fa636bcc7fa8585858181106116a6576116a66132e9565b6116bc926020606090920201908101915061358b565b6040516001600160801b03909116815260200160405180910390a250806116e281613315565b91505061154a565b505050565b33600090815260a4602052604090205460ff166117435760405162461bcd60e51b815260206004820152601260248201527113d3931657d41493d513d0d3d317d0d0531360721b6044820152606401610943565b61174c82611d15565b61178b5760405162461bcd60e51b815260206004820152601060248201526f1513d2d15397d393d517d4d51052d15160821b6044820152606401610943565b600082815260a260205260409020546001600160a01b039081169082168114156117e45760405162461bcd60e51b815260206004820152600a60248201526929a0a6a2afa7aba722a960b11b6044820152606401610943565b600083815260a26020908152604080832080546001600160a01b0319166001600160a01b03878116919091179091558416835260a19091528120905b81548110156118d5578482828154811061183c5761183c6132e9565b906000526020600020015414156118c3578154829061185d90600190613348565b8154811061186d5761186d6132e9565b906000526020600020015482828154811061188a5761188a6132e9565b9060005260206000200181905550818054806118a8576118a86133ac565b600190038181906000526020600020016000905590556118d5565b806118cd81613315565b915050611820565b506001600160a01b03838116600090815260a160209081526040808320805460018101825590845291832090910187905560995490516301ff8f7360e41b81526004810188905291921690631ff8f73090602401600060405180830381865afa158015611946573d6000803e3d6000fd5b505050506040513d6000823e601f3d908101601f1916820160405261196e91908101906134bf565b90506000611984826080015183606001516108f6565b6001600160a01b038516600090815260a360205260408120805492935083929091906119b1908490613348565b90915550506001600160a01b038516600090815260a36020526040812080548392906119de908490613330565b90915550600090506119f08783612602565b609d54609a54919250611a11916001600160a01b0390811691168784612612565b6000805160206137c3833981519152858883604051611a32939291906133c2565b60405180910390a1609b546001600160a01b031615611b1957609b546040516304e3034f60e31b81526001600160a01b03909116906327181a7890611a809088908b906000906004016133c2565b600060405180830381600087803b158015611a9a57600080fd5b505af1158015611aae573d6000803e3d6000fd5b5050609b546040516304e3034f60e31b81526001600160a01b0390911692506327181a789150611ae69089908b9087906004016133c2565b600060405180830381600087803b158015611b0057600080fd5b505af1158015611b14573d6000803e3d6000fd5b505050505b60408051338152602081018990526001600160a01b03878116828401528816606082015290517fe54d65876373ae0d214d87fc1ec9d5750e5fdb4057e3876f3937b747d0073d1b9181900360800190a150505050505050565b611b7a61230a565b6001600160a01b038116600090815260a160205260408120815b8154811015611c3057611bb2828281548110610c1957610c196132e9565b15611c1e57611bcc828281548110610c4357610c436132e9565b611bd69084613330565b92506000805160206137c383398151915284838381548110611bfa57611bfa6132e9565b906000526020600020015485604051611c15939291906133c2565b60405180910390a15b80611c2881613315565b915050611b94565b50609d54609a546116ea916001600160a01b0391821691168585612612565b6000611c5a82611d15565b611c6657506000919050565b604080516001808252818301909252600091816020015b611caa604051806060016040528060006001600160a01b0316815260200160008152602001600081525090565b815260200190600190039081611c7d5790505090506040518060600160405280306001600160a01b03168152602001611ce28561133c565b815260200160a05481525081600081518110611d0057611d006132e9565b60200260200101819052506108ef838261294a565b600081815260a260205260408120611d2d8330612a46565b80156108ef5750600301541592915050565b611d47612670565b6001600160a01b038116611d6d5760405162461bcd60e51b8152600401610943906133e3565b609b546040517f77733bc40883159fa5314987682f9eba84f49ef5dfdf3c51f3ee1db5a694f34c91611dac9133916001600160a01b031690859061340c565b60405180910390a1609b80546001600160a01b0319166001600160a01b0392909216919091179055565b611dde61230a565b611de781611d15565b611e265760405162461bcd60e51b815260206004820152601060248201526f1513d2d15397d393d517d4d05512d15160821b6044820152606401610943565b600081815260a260205260409020546001600160a01b03163314611e5c5760405162461bcd60e51b81526004016109439061335f565b609c5460405163893c8cc160e01b8152600481018390526001600160a01b039091169063893c8cc190602401602060405180830381865afa158015611ea5573d6000803e3d6000fd5b505050506040513d601f19601f82011682018060405250810190611ec991906135a6565b15611f0d5760405162461bcd60e51b8152602060048201526014602482015273544f4b454e5f5354414b45445f41535f4e4f444560601b6044820152606401610943565b6000611f188261133c565b90506000611f268383612602565b609a54609d54600086815260a26020526040908190205490516323b872dd60e01b81529394506001600160a01b03928316936323b872dd93611f719381169216908690600401613388565b6020604051808303816000875af1158015611f90573d6000803e3d6000fd5b505050506040513d601f19601f82011682018060405250810190611fb491906135a6565b508160a06000828254611fc79190613348565b9091555050609f8054906000611fdc836135c3565b909155505033600090815260a3602052604081208054849290612000908490613348565b9091555050600083815260a260209081526040918290204260039091015581513381529081018590527f222838db2794d11532d940e8dec38ae307ed0b63cd97c233322e221f998767a6910160405180910390a1609b546001600160a01b0316156116ea57609b546040516304e3034f60e31b81526001600160a01b03909116906327181a789061209a90339087906000906004016133c2565b600060405180830381600087803b1580156120b457600080fd5b505af1158015611147573d6000803e3d6000fd5b600081815260a2602052604081206003015480158015906108ef5750426120fa609e54836126ca90919063ffffffff16565b10159392505050565b60606000825167ffffffffffffffff81111561212157612121612f4c565b60405190808252806020026020018201604052801561214a578160200160208202803683370190505b5060408051600180825281830190925291925060009190816020015b612193604051806060016040528060006001600160a01b0316815260200160008152602001600081525090565b81526020019060019003908161216657905050905060005b8451811015611536576121d68582815181106121c9576121c96132e9565b6020026020010151611d15565b15612282576040518060600160405280306001600160a01b0316815260200161221787848151811061220a5761220a6132e9565b602002602001015161133c565b815260200160a05481525082600081518110612235576122356132e9565b6020026020010181905250612263858281518110612255576122556132e9565b60200260200101518361294a565b838281518110612275576122756132e9565b6020026020010181815250505b8061228c81613315565b9150506121ab565b61229c612670565b6001600160a01b0381166123015760405162461bcd60e51b815260206004820152602660248201527f4f776e61626c653a206e6577206f776e657220697320746865207a65726f206160448201526564647265737360d01b6064820152608401610943565b6114b081612729565b60335460ff1615610e5a5760405162461bcd60e51b815260206004820152601060248201526f14185d5cd8589b194e881c185d5cd95960821b6044820152606401610943565b61235a8133612a46565b6123765760405162461bcd60e51b81526004016109439061335f565b6099546040516323b872dd60e01b81526001600160a01b03909116906323b872dd906123aa90339030908690600401613388565b600060405180830381600087803b1580156123c457600080fd5b505af11580156123d8573d6000803e3d6000fd5b505050506123eb8130600060a05461277b565b5060006123f78261133c565b90508060a0600082825461240b9190613330565b9091555050609f805490600061242083613315565b909155505033600090815260a3602052604081208054839290612444908490613330565b90915550506040805160808101825233808252602080830186815260008486018181526060860182815289835260a28552878320965187546001600160a01b0319166001600160a01b03909116178755925160018088019190915590516002870155915160039095019490945582845260a182528484208054918201815584529281902090920185905582519081529081018490527febedb8b3c678666e7f36970bc8f57abf6d8fa2e828c0da91ea5b75bf68ed101a910160405180910390a1609b546001600160a01b03161561075d57609b546040516304e3034f60e31b81526001600160a01b03909116906327181a7890612549903390869086906004016133c2565b600060405180830381600087803b15801561256357600080fd5b505af1158015612577573d6000803e3d6000fd5b505050505050565b60006108ef83836040518060400160405280601e81526020017f536166654d6174683a207375627472616374696f6e206f766572666c6f770000815250612ad0565b6000600160005b838110156125ef576125db82600a612b0a565b9150806125e781613315565b9150506125c8565b506125fa8482612b0a565b949350505050565b60006108ef83308460a05461277b565b61266a846323b872dd60e01b85858560405160240161263393929190613388565b60408051601f198184030181529190526020810180516001600160e01b03166001600160e01b031990931692909217909152612b89565b50505050565b6065546001600160a01b03163314610e5a5760405162461bcd60e51b815260206004820181905260248201527f4f776e61626c653a2063616c6c6572206973206e6f7420746865206f776e65726044820152606401610943565b6000806126d78385613330565b9050838110156108ef5760405162461bcd60e51b815260206004820152601b60248201527f536166654d6174683a206164646974696f6e206f766572666c6f7700000000006044820152606401610943565b606580546001600160a01b038381166001600160a01b0319831681179093556040519116919082907f8be0079c531659141344cd1fd0a4f28419497f9722a3daafe3b4186f6b6457e090600090a35050565b6001600160a01b03831660009081526098602090815260408083208784526002810190925282205482806127b0888588612892565b90508083146128285786156127cd576127ca878285612d10565b91505b600089815260028501602052604090819020829055516001600160a01b038916908a907facd233ebcfcdfd157686f659e938be145c6d8c3ae3821a2795ae2211d1e9f5889061281f9085815260200190565b60405180910390a35b50979650505050505050565b600054610100900460ff1661285b5760405162461bcd60e51b8152600401610943906135da565b610e5a612d3b565b600054610100900460ff1661288a5760405162461bcd60e51b8152600401610943906135da565b610e5a612d6e565b6001820154825460009190600160801b90046001600160801b0316428114156128bd575090506108ef565b84546000906128d89084906001600160801b03168488612d9e565b905082811461292757600186018190556040518181526001600160a01b038816907f5777ca300dfe5bead41006fbce4389794dbc0ed8d6cccebfaf94630aa04184bc9060200160405180910390a25b85546001600160801b03428116600160801b029116178655925050509392505050565b600080805b8351811015612a3e57600060986000868481518110612970576129706132e9565b602090810291909101810151516001600160a01b0316825281019190915260400160009081206001810154815488519294506129de926001600160801b0380831692600160801b900416908a90889081106129cd576129cd6132e9565b602002602001015160400151612d9e565b9050612a27612a208785815181106129f8576129f86132e9565b602002602001015160200151838560020160008c815260200190815260200160002054612d10565b85906126ca565b935050508080612a3690613315565b91505061294f565b509392505050565b6099546040516331a9108f60e11b8152600481018490526000916001600160a01b031690636352211e90602401602060405180830381865afa158015612a90573d6000803e3d6000fd5b505050506040513d601f19601f82011682018060405250810190612ab49190613625565b6001600160a01b0316826001600160a01b031614905092915050565b60008184841115612af45760405162461bcd60e51b81526004016109439190613642565b506000612b018486613348565b95945050505050565b600082612b195750600061070f565b6000612b258385613675565b905082612b328583613694565b146108ef5760405162461bcd60e51b815260206004820152602160248201527f536166654d6174683a206d756c7469706c69636174696f6e206f766572666c6f6044820152607760f81b6064820152608401610943565b612b9b826001600160a01b0316612e46565b612be75760405162461bcd60e51b815260206004820152601f60248201527f5361666545524332303a2063616c6c20746f206e6f6e2d636f6e7472616374006044820152606401610943565b600080836001600160a01b031683604051612c0291906136b6565b6000604051808303816000865af19150503d8060008114612c3f576040519150601f19603f3d011682016040523d82523d6000602084013e612c44565b606091505b509150915081612c965760405162461bcd60e51b815260206004820181905260248201527f5361666545524332303a206c6f772d6c6576656c2063616c6c206661696c65646044820152606401610943565b80511561266a5780806020019051810190612cb191906135a6565b61266a5760405162461bcd60e51b815260206004820152602a60248201527f5361666545524332303a204552433230206f7065726174696f6e20646964206e6044820152691bdd081cdd58d8d9595960b21b6064820152608401610943565b60006125fa612d216012600a6137b6565b612d35612d2e868661257f565b8790612b0a565b90612e7f565b600054610100900460ff16612d625760405162461bcd60e51b8152600401610943906135da565b6033805460ff19169055565b600054610100900460ff16612d955760405162461bcd60e51b8152600401610943906135da565b610e5a33612729565b6000831580612dab575081155b80612dbe575042836001600160801b0316145b80612dd45750609754836001600160801b031610155b15612de05750836125fa565b60006097544211612df15742612df5565b6097545b90506000612e0c826001600160801b03871661257f565b9050612e3b87612e3586612d35612e256012600a6137b6565b612e2f8c88612b0a565b90612b0a565b906126ca565b979650505050505050565b6000813f7fc5d2460186f7233c927e7db2dcc703c0e500b653ca82273b7bfad8045d85a4708181148015906125fa575050151592915050565b60006108ef83836040518060400160405280601a81526020017f536166654d6174683a206469766973696f6e206279207a65726f00000000000081525060008183612edd5760405162461bcd60e51b81526004016109439190613642565b506000612b018486613694565b6001600160a01b03811681146114b057600080fd5b60008060408385031215612f1257600080fd5b823591506020830135612f2481612eea565b809150509250929050565b600060208284031215612f4157600080fd5b81356108ef81612eea565b634e487b7160e01b600052604160045260246000fd5b60405160a0810167ffffffffffffffff81118282101715612f8557612f85612f4c565b60405290565b604051601f8201601f1916810167ffffffffffffffff81118282101715612fb457612fb4612f4c565b604052919050565b60006020808385031215612fcf57600080fd5b823567ffffffffffffffff80821115612fe757600080fd5b818501915085601f830112612ffb57600080fd5b81358181111561300d5761300d612f4c565b8060051b915061301e848301612f8b565b818152918301840191848101908884111561303857600080fd5b938501935b838510156130565784358252938501939085019061303d565b98975050505050505050565b60008060006060848603121561307757600080fd5b833561308281612eea565b95602085013595506040909401359392505050565b602080825282518282018190526000919060409081850190868401855b828110156130f757815180516001600160a01b031685528681015187860152858101518686015260609081015190850152608090930192908501906001016130b4565b5091979650505050505050565b6000806040838503121561311757600080fd5b50508035926020909101359150565b60006020828403121561313857600080fd5b5035919050565b80151581146114b057600080fd5b6000806040838503121561316057600080fd5b823561316b81612eea565b91506020830135612f248161313f565b6000806040838503121561318e57600080fd5b823561319981612eea565b946020939093013593505050565b80356001600160801b03811681146131be57600080fd5b919050565b600080600080600060a086880312156131db57600080fd5b85356131e681612eea565b945060208601356131f681612eea565b9350604086013561320681612eea565b9250606086013561321681612eea565b9150613224608087016131a7565b90509295509295909350565b6000806020838503121561324357600080fd5b823567ffffffffffffffff8082111561325b57600080fd5b818501915085601f83011261326f57600080fd5b81358181111561327e57600080fd5b86602060608302850101111561329357600080fd5b60209290920196919550909350505050565b6020808252825182820181905260009190848201906040850190845b818110156132dd578351835292840192918401916001016132c1565b50909695505050505050565b634e487b7160e01b600052603260045260246000fd5b634e487b7160e01b600052601160045260246000fd5b6000600019821415613329576133296132ff565b5060010190565b60008219821115613343576133436132ff565b500190565b60008282101561335a5761335a6132ff565b500390565b6020808252600f908201526e2727aa2faa27a5a2a72fa7aba722a960891b604082015260600190565b6001600160a01b039384168152919092166020820152604081019190915260600190565b634e487b7160e01b600052603160045260246000fd5b6001600160a01b039390931683526020830191909152604082015260600190565b6020808252600f908201526e494e56414c49445f4144445245535360881b604082015260600190565b6001600160a01b0393841681529183166020830152909116604082015260600190565b60005b8381101561344a578181015183820152602001613432565b8381111561266a5750506000910152565b600082601f83011261346c57600080fd5b815167ffffffffffffffff81111561348657613486612f4c565b613499601f8201601f1916602001612f8b565b8181528460208386010111156134ae57600080fd5b6125fa82602083016020870161342f565b6000602082840312156134d157600080fd5b815167ffffffffffffffff808211156134e957600080fd5b9083019060a082860312156134fd57600080fd5b613505612f62565b82518281111561351457600080fd5b6135208782860161345b565b82525060208301518281111561353557600080fd5b6135418782860161345b565b60208301525060408301518281111561355957600080fd5b6135658782860161345b565b604083015250606083015160608201526080830151608082015280935050505092915050565b60006020828403121561359d57600080fd5b6108ef826131a7565b6000602082840312156135b857600080fd5b81516108ef8161313f565b6000816135d2576135d26132ff565b506000190190565b6020808252602b908201527f496e697469616c697a61626c653a20636f6e7472616374206973206e6f74206960408201526a6e697469616c697a696e6760a81b606082015260800190565b60006020828403121561363757600080fd5b81516108ef81612eea565b602081526000825180602084015261366181604085016020870161342f565b601f01601f19169190910160400192915050565b600081600019048311821515161561368f5761368f6132ff565b500290565b6000826136b157634e487b7160e01b600052601260045260246000fd5b500490565b600082516136c881846020870161342f565b9190910192915050565b600181815b8085111561370d5781600019048211156136f3576136f36132ff565b8085161561370057918102915b93841c93908002906136d7565b509250929050565b6000826137245750600161070f565b816137315750600061070f565b816001811461374757600281146137515761376d565b600191505061070f565b60ff841115613762576137626132ff565b50506001821b61070f565b5060208310610133831016604e8410600b8410161715613790575081810a61070f565b61379a83836136d2565b80600019048211156137ae576137ae6132ff565b029392505050565b60006108ef838361371556fee74e5c9d4ac1fc33412485f18c159a0a391efe287ab3fd271123f30e6bacf4e3a2646970667358221220345c9b6eb5b507ff22098dd3f609c58e4f42caf2cdc61679ef62a611fadcc6d164736f6c634300080b0033",
  "linkReferences": {},
  "deployedLinkReferences": {}
}