{
  "_format": "hh-sol-artifact-1",
  "contractName": "StakedDividendTracker",
  "sourceName": "contracts/stake/StakedDividendTracker.sol",
  "abi": [
    {
      "anonymous": false,
      "inputs": [
        {
          "indexed": false,
          "internalType": "address",
          "name": "user",
          "type": "address"
        },
        {
          "indexed": false,
          "internalType": "uint256",
          "name": "tokenId",
          "type": "uint256"
        },
        {
          "indexed": false,
          "internalType": "uint256",
          "name": "amount",
          "type": "uint256"
        }
      ],
      "name": "DividendWithdrawn",
      "type": "event"
    },
    {
      "anonymous": false,
      "inputs": [
        {
          "indexed": false,
          "internalType": "address",
          "name": "sender",
          "type": "address"
        },
        {
          "indexed": false,
          "internalType": "uint256",
          "name": "amount",
          "type": "uint256"
        }
      ],
      "name": "DividendsDistributed",
      "type": "event"
    },
    {
      "anonymous": false,
      "inputs": [
        {
          "indexed": false,
          "internalType": "uint8",
          "name": "version",
          "type": "uint8"
        }
      ],
      "name": "Initialized",
      "type": "event"
    },
    {
      "anonymous": false,
      "inputs": [
        {
          "indexed": true,
          "internalType": "address",
          "name": "previousOwner",
          "type": "address"
        },
        {
          "indexed": true,
          "internalType": "address",
          "name": "newOwner",
          "type": "address"
        }
      ],
      "name": "OwnershipTransferred",
      "type": "event"
    },
    {
      "anonymous": false,
      "inputs": [
        {
          "indexed": false,
          "internalType": "address",
          "name": "account",
          "type": "address"
        }
      ],
      "name": "Paused",
      "type": "event"
    },
    {
      "anonymous": false,
      "inputs": [
        {
          "indexed": false,
          "internalType": "address",
          "name": "sender",
          "type": "address"
        },
        {
          "indexed": false,
          "internalType": "uint256",
          "name": "amount",
          "type": "uint256"
        }
      ],
      "name": "ReceivedFee",
      "type": "event"
    },
    {
      "anonymous": false,
      "inputs": [
        {
          "indexed": false,
          "internalType": "address",
          "name": "sender",
          "type": "address"
        },
        {
          "indexed": false,
          "internalType": "address",
          "name": "newValue",
          "type": "address"
        },
        {
          "indexed": false,
          "internalType": "address",
          "name": "oldValue",
          "type": "address"
        }
      ],
      "name": "RewardTokenChanged",
      "type": "event"
    },
    {
      "anonymous": false,
      "inputs": [
        {
          "indexed": false,
          "internalType": "address",
          "name": "account",
          "type": "address"
        }
      ],
      "name": "Unpaused",
      "type": "event"
    },
    {
      "inputs": [
        {
          "internalType": "uint256",
          "name": "tokenId",
          "type": "uint256"
        }
      ],
      "name": "accumulativeDividendOf",
      "outputs": [
        {
          "internalType": "uint256",
          "name": "",
          "type": "uint256"
        }
      ],
      "stateMutability": "view",
      "type": "function"
    },
    {
      "inputs": [
        {
          "internalType": "address",
          "name": "",
          "type": "address"
        }
      ],
      "name": "allowCallTb",
      "outputs": [
        {
          "internalType": "bool",
          "name": "",
          "type": "bool"
        }
      ],
      "stateMutability": "view",
      "type": "function"
    },
    {
      "inputs": [
        {
          "internalType": "uint256",
          "name": "",
          "type": "uint256"
        }
      ],
      "name": "balanceTb",
      "outputs": [
        {
          "internalType": "uint256",
          "name": "",
          "type": "uint256"
        }
      ],
      "stateMutability": "view",
      "type": "function"
    },
    {
      "inputs": [
        {
          "internalType": "address",
          "name": "user",
          "type": "address"
        }
      ],
      "name": "dividendOf",
      "outputs": [
        {
          "internalType": "uint256",
          "name": "",
          "type": "uint256"
        }
      ],
      "stateMutability": "view",
      "type": "function"
    },
    {
      "inputs": [
        {
          "internalType": "uint256",
          "name": "tokenId",
          "type": "uint256"
        }
      ],
      "name": "dividendOfToken",
      "outputs": [
        {
          "internalType": "uint256",
          "name": "",
          "type": "uint256"
        }
      ],
      "stateMutability": "view",
      "type": "function"
    },
    {
      "inputs": [
        {
          "internalType": "uint256",
          "name": "amount",
          "type": "uint256"
        }
      ],
      "name": "handleReceive",
      "outputs": [],
      "stateMutability": "nonpayable",
      "type": "function"
    },
    {
      "inputs": [
        {
          "internalType": "address",
          "name": "user",
          "type": "address"
        },
        {
          "internalType": "uint256",
          "name": "tokenId",
          "type": "uint256"
        },
        {
          "internalType": "uint256",
          "name": "newBalance",
          "type": "uint256"
        }
      ],
      "name": "hookBalanceChange",
      "outputs": [],
      "stateMutability": "nonpayable",
      "type": "function"
    },
    {
      "inputs": [
        {
          "internalType": "address",
          "name": "_rewardToken",
          "type": "address"
        }
      ],
      "name": "initialize",
      "outputs": [],
      "stateMutability": "nonpayable",
      "type": "function"
    },
    {
      "inputs": [
        {
          "internalType": "address",
          "name": "caller",
          "type": "address"
        }
      ],
      "name": "isAllowToCall",
      "outputs": [
        {
          "internalType": "bool",
          "name": "",
          "type": "bool"
        }
      ],
      "stateMutability": "view",
      "type": "function"
    },
    {
      "inputs": [],
      "name": "owner",
      "outputs": [
        {
          "internalType": "address",
          "name": "",
          "type": "address"
        }
      ],
      "stateMutability": "view",
      "type": "function"
    },
    {
      "inputs": [],
      "name": "paused",
      "outputs": [
        {
          "internalType": "bool",
          "name": "",
          "type": "bool"
        }
      ],
      "stateMutability": "view",
      "type": "function"
    },
    {
      "inputs": [],
      "name": "renounceOwnership",
      "outputs": [],
      "stateMutability": "nonpayable",
      "type": "function"
    },
    {
      "inputs": [],
      "name": "rewardToken",
      "outputs": [
        {
          "internalType": "contract IERC20",
          "name": "",
          "type": "address"
        }
      ],
      "stateMutability": "view",
      "type": "function"
    },
    {
      "inputs": [
        {
          "internalType": "address",
          "name": "caller",
          "type": "address"
        },
        {
          "internalType": "bool",
          "name": "allow",
          "type": "bool"
        }
      ],
      "name": "setAllowToCall",
      "outputs": [],
      "stateMutability": "nonpayable",
      "type": "function"
    },
    {
      "inputs": [
        {
          "internalType": "address",
          "name": "_rewardToken",
          "type": "address"
        }
      ],
      "name": "setRewardToken",
      "outputs": [],
      "stateMutability": "nonpayable",
      "type": "function"
    },
    {
      "inputs": [],
      "name": "totalBalance",
      "outputs": [
        {
          "internalType": "uint256",
          "name": "",
          "type": "uint256"
        }
      ],
      "stateMutability": "view",
      "type": "function"
    },
    {
      "inputs": [],
      "name": "totalDividendsDistributed",
      "outputs": [
        {
          "internalType": "uint256",
          "name": "",
          "type": "uint256"
        }
      ],
      "stateMutability": "view",
      "type": "function"
    },
    {
      "inputs": [
        {
          "internalType": "address",
          "name": "newOwner",
          "type": "address"
        }
      ],
      "name": "transferOwnership",
      "outputs": [],
      "stateMutability": "nonpayable",
      "type": "function"
    },
    {
      "inputs": [
        {
          "internalType": "address",
          "name": "",
          "type": "address"
        },
        {
          "internalType": "uint256",
          "name": "",
          "type": "uint256"
        }
      ],
      "name": "userTokenTb",
      "outputs": [
        {
          "internalType": "uint256",
          "name": "",
          "type": "uint256"
        }
      ],
      "stateMutability": "view",
      "type": "function"
    },
    {
      "inputs": [],
      "name": "withdrawDividend",
      "outputs": [],
      "stateMutability": "nonpayable",
      "type": "function"
    },
    {
      "inputs": [
        {
          "internalType": "address",
          "name": "to",
          "type": "address"
        }
      ],
      "name": "withdrawDividendOnbehalfOf",
      "outputs": [],
      "stateMutability": "nonpayable",
      "type": "function"
    },
    {
      "inputs": [
        {
          "internalType": "uint256",
          "name": "tokenId",
          "type": "uint256"
        }
      ],
      "name": "withdrawableDividendOf",
      "outputs": [
        {
          "internalType": "uint256",
          "name": "",
          "type": "uint256"
        }
      ],
      "stateMutability": "view",
      "type": "function"
    },
    {
      "inputs": [
        {
          "internalType": "uint256",
          "name": "tokenId",
          "type": "uint256"
        }
      ],
      "name": "withdrawnDividendOf",
      "outputs": [
        {
          "internalType": "uint256",
          "name": "",
          "type": "uint256"
        }
      ],
      "stateMutability": "view",
      "type": "function"
    }
  ],
  "bytecode": "0x608060405234801561001057600080fd5b50611383806100206000396000f3fe608060405234801561001057600080fd5b506004361061014d5760003560e01c80638da5cb5b116100c3578063ddaf48481161007c578063ddaf4848146102cd578063ef063fce146102e0578063f2fde38b146102f3578063f7c618c114610306578063faa3ee3214610319578063fd88848f1461033c57600080fd5b80638da5cb5b1461024657806391b89fba1461026b578063ad7a672f1461027e578063be9ed0af14610287578063c4d66de8146102a7578063c9027155146102ba57600080fd5b80635c975abb116101155780635c975abb146101fc57806361926a85146102075780636a4740021461021a578063715018a61461022257806385a6b3ae1461022a5780638aee81271461023357600080fd5b80630d4870ba146101525780631c8ab9391461016757806327181a781461018d5780634a5bc829146101a0578063533e0510146101c0575b600080fd5b6101656101603660046110d0565b61034f565b005b61017a610175366004611107565b610382565b6040519081526020015b60405180910390f35b61016561019b366004611120565b6103da565b61017a6101ae366004611107565b60009081526004602052604090205490565b6101ec6101ce366004611153565b6001600160a01b03166000908152609d602052604090205460ff1690565b6040519015158152602001610184565b606b5460ff166101ec565b61017a61021536600461116e565b61065f565b610165610690565b6101656106a3565b61017a60055481565b610165610241366004611153565b6106b5565b6039546001600160a01b03165b6040516001600160a01b039091168152602001610184565b61017a610279366004611153565b610773565b61017a60025481565b61017a610295366004611107565b60016020526000908152604090205481565b6101656102b5366004611153565b6107e4565b6101656102c8366004611153565b610935565b6101656102db366004611107565b610949565b61017a6102ee366004611107565b6109d8565b610165610301366004611153565b6109fa565b609f54610253906001600160a01b031681565b6101ec610327366004611153565b609d6020526000908152604090205460ff1681565b61017a61034a366004611107565b610a70565b610357610a7b565b6001600160a01b03919091166000908152609d60205260409020805460ff1916911515919091179055565b60008181526003602090815260408083205460019092528220548254600160801b926103ca926103c5926103bf916103ba9190610ad5565b610ae8565b90610af8565b610b36565b6103d491906111ae565b92915050565b336000908152609d602052604090205460ff1661042c5760405162461bcd60e51b815260206004820152600b60248201526a27a7262cafa1a0a62622a960a91b60448201526064015b60405180910390fd5b8015610462576001600160a01b0383166000908152609e6020908152604082208054600181018255908352912001829055610650565b600061046d83610b49565b609f5460405163a9059cbb60e01b81526001600160a01b038781166004830152602482018490529293506000929091169063a9059cbb906044016020604051808303816000875af11580156104c6573d6000803e3d6000fd5b505050506040513d601f19601f820116820180604052508101906104ea91906111d0565b9050806105325760405162461bcd60e51b8152602060048201526016602482015275115490cc8c0e881d1c985b9cd9995c8819985a5b195960521b6044820152606401610423565b604080516001600160a01b0387168152602081018690529081018390527fefd65b72f86341261b48f35743edbc6cd52296a0d295e1f192afe234e8f34c459060600160405180910390a16001600160a01b0385166000908152609e60205260408120905b815481101561064b57858282815481106105b2576105b26111ed565b9060005260206000200154141561063957815482906105d390600190611203565b815481106105e3576105e36111ed565b9060005260206000200154828281548110610600576106006111ed565b90600052602060002001819055508180548061061e5761061e61121a565b6001900381819060005260206000200160009055905561064b565b8061064381611230565b915050610596565b505050505b61065a8282610b96565b505050565b609e602052816000526040600020818154811061067b57600080fd5b90600052602060002001600091509150505481565b610698610beb565b6106a133610c31565b565b6106ab610a7b565b6106a16000610dc5565b6106bd610a7b565b6001600160a01b0381166107055760405162461bcd60e51b815260206004820152600f60248201526e494e56414c49445f4144445245535360881b6044820152606401610423565b609f54604080513381526001600160a01b03848116602083015290921682820152517f60c2ec68191b35d1fff2d50e8b3fcc9bec20cddbf9b57d9ce4d73fe74406f1069181900360600190a1609f80546001600160a01b0319166001600160a01b0392909216919091179055565b6001600160a01b0381166000908152609e602052604081208190815b81548110156107db576107bd8282815481106107ad576107ad6111ed565b9060005260206000200154610a70565b6107c7908461124b565b9250806107d381611230565b91505061078f565b50909392505050565b600654600190610100900460ff16158015610806575060065460ff8083169116105b6108695760405162461bcd60e51b815260206004820152602e60248201527f496e697469616c697a61626c653a20636f6e747261637420697320616c72656160448201526d191e481a5b9a5d1a585b1a5e995960921b6064820152608401610423565b6006805461ffff191660ff8316176101001790556001600160a01b0382166108c55760405162461bcd60e51b815260206004820152600f60248201526e494e56414c49445f4144445245535360881b6044820152606401610423565b609f80546001600160a01b0319166001600160a01b0384161790556108e8610e17565b6108f0610e46565b6006805461ff001916905560405160ff821681527f7f26b83ff96e1f2b6a682f133852f6798a09c465da95921460cefb38474024989060200160405180910390a15050565b61093d610beb565b61094681610c31565b50565b336000908152609d602052604090205460ff166109965760405162461bcd60e51b815260206004820152600b60248201526a27a7262cafa1a0a62622a960a91b6044820152606401610423565b60408051338152602081018390527f86e293e1baa7071cb4ab3f657a446c92a1391aad0eb4202969b585d009a59b28910160405180910390a161094681610e75565b6000818152600460205260408120546103d4906109f484610382565b90610f01565b610a02610a7b565b6001600160a01b038116610a675760405162461bcd60e51b815260206004820152602660248201527f4f776e61626c653a206e6577206f776e657220697320746865207a65726f206160448201526564647265737360d01b6064820152608401610423565b61094681610dc5565b60006103d4826109d8565b6039546001600160a01b031633146106a15760405162461bcd60e51b815260206004820181905260248201527f4f776e61626c653a2063616c6c6572206973206e6f7420746865206f776e65726044820152606401610423565b6000610ae18284611263565b9392505050565b600081818112156103d457600080fd5b600080610b058385611282565b905060008312158015610b185750838112155b80610b2d5750600083128015610b2d57508381125b610ae157600080fd5b600080821215610b4557600080fd5b5090565b600080610b55836109d8565b90508015610b8d57600083815260046020526040902054610b769082610f0d565b600093845260046020526040909320929092555090565b50600092915050565b60008281526001602052604090205480821115610bcb576000610bb98383610f01565b9050610bc58482610f19565b50505050565b8082101561065a576000610bdf8284610f01565b9050610bc58482610f93565b606b5460ff16156106a15760405162461bcd60e51b815260206004820152601060248201526f14185d5cd8589b194e881c185d5cd95960821b6044820152606401610423565b6001600160a01b0381166000908152609e6020526040812090805b8254811015610d04576000610c7c848381548110610c6c57610c6c6111ed565b9060005260206000200154610b49565b90507fefd65b72f86341261b48f35743edbc6cd52296a0d295e1f192afe234e8f34c4585858481548110610cb257610cb26111ed565b60009182526020918290200154604080516001600160a01b03909416845291830152810183905260600160405180910390a1610cee818461124b565b9250508080610cfc90611230565b915050610c4c565b50609f5460405163a9059cbb60e01b81526001600160a01b03858116600483015260248201849052600092169063a9059cbb906044016020604051808303816000875af1158015610d59573d6000803e3d6000fd5b505050506040513d601f19601f82011682018060405250810190610d7d91906111d0565b905080610bc55760405162461bcd60e51b8152602060048201526016602482015275115490cc8c0e881d1c985b9cd9995c8819985a5b195960521b6044820152606401610423565b603980546001600160a01b038381166001600160a01b0319831681179093556040519116919082907f8be0079c531659141344cd1fd0a4f28419497f9722a3daafe3b4186f6b6457e090600090a35050565b600654610100900460ff16610e3e5760405162461bcd60e51b8152600401610423906112c3565b6106a1610ff7565b600654610100900460ff16610e6d5760405162461bcd60e51b8152600401610423906112c3565b6106a161102a565b600060025411610e8457600080fd5b801561094657600254610eb290610e9f83600160801b610ad5565b610ea991906111ae565b60005490610f0d565b60005560408051338152602081018390527fa493a9229478c3fcd73f66d2cdeb7f94fd0f341da924d1054236d78454116511910160405180910390a1600554610efb9082610f0d565b60055550565b6000610ae18284611203565b6000610ae1828461124b565b8060026000828254610f2b919061124b565b909155505060008281526001602052604081208054839290610f4e90849061124b565b9091555050600054610f7d90610f68906103ba9084610ad5565b6000848152600360205260409020549061105a565b6000928352600360205260409092209190915550565b8060026000828254610fa59190611203565b909155505060008281526001602052604081208054839290610fc8908490611203565b9091555050600054610f7d90610fe2906103ba9084610ad5565b60008481526003602052604090205490610af8565b600654610100900460ff1661101e5760405162461bcd60e51b8152600401610423906112c3565b606b805460ff19169055565b600654610100900460ff166110515760405162461bcd60e51b8152600401610423906112c3565b6106a133610dc5565b6000808212158015611075575082611072838261130e565b13155b806110935750600082128015611093575082611091838261130e565b135b61109c57600080fd5b610ae1828461130e565b80356001600160a01b03811681146110bd57600080fd5b919050565b801515811461094657600080fd5b600080604083850312156110e357600080fd5b6110ec836110a6565b915060208301356110fc816110c2565b809150509250929050565b60006020828403121561111957600080fd5b5035919050565b60008060006060848603121561113557600080fd5b61113e846110a6565b95602085013595506040909401359392505050565b60006020828403121561116557600080fd5b610ae1826110a6565b6000806040838503121561118157600080fd5b61118a836110a6565b946020939093013593505050565b634e487b7160e01b600052601160045260246000fd5b6000826111cb57634e487b7160e01b600052601260045260246000fd5b500490565b6000602082840312156111e257600080fd5b8151610ae1816110c2565b634e487b7160e01b600052603260045260246000fd5b60008282101561121557611215611198565b500390565b634e487b7160e01b600052603160045260246000fd5b600060001982141561124457611244611198565b5060010190565b6000821982111561125e5761125e611198565b500190565b600081600019048311821515161561127d5761127d611198565b500290565b600080821280156001600160ff1b03849003851316156112a4576112a4611198565b600160ff1b83900384128116156112bd576112bd611198565b50500190565b6020808252602b908201527f496e697469616c697a61626c653a20636f6e7472616374206973206e6f74206960408201526a6e697469616c697a696e6760a81b606082015260800190565b60008083128015600160ff1b85018412161561132c5761132c611198565b6001600160ff1b038401831381161561134757611347611198565b5050039056fea26469706673582212205e3e8f133e2f13d234f8e1d59bb659bfa377a30ab9033136d8136213b687ef7b64736f6c634300080b0033",
  "linkReferences": {},
  "deployedLinkReferences": {}
}