{
  "_format": "hh-sol-artifact-1",
  "contractName": "StakedDividendTracker",
  "sourceName": "contracts/stake/StakedDividendTracker.sol",
  "abi": [
    {
      "anonymous": false,
      "inputs": [
        {
          "indexed": false,
          "internalType": "address",
          "name": "user",
          "type": "address"
        },
        {
          "indexed": false,
          "internalType": "uint256",
          "name": "tokenId",
          "type": "uint256"
        },
        {
          "indexed": false,
          "internalType": "uint256",
          "name": "amount",
          "type": "uint256"
        }
      ],
      "name": "DividendWithdrawn",
      "type": "event"
    },
    {
      "anonymous": false,
      "inputs": [
        {
          "indexed": false,
          "internalType": "address",
          "name": "sender",
          "type": "address"
        },
        {
          "indexed": false,
          "internalType": "uint256",
          "name": "amount",
          "type": "uint256"
        }
      ],
      "name": "DividendsDistributed",
      "type": "event"
    },
    {
      "anonymous": false,
      "inputs": [
        {
          "indexed": false,
          "internalType": "uint8",
          "name": "version",
          "type": "uint8"
        }
      ],
      "name": "Initialized",
      "type": "event"
    },
    {
      "anonymous": false,
      "inputs": [
        {
          "indexed": true,
          "internalType": "address",
          "name": "previousOwner",
          "type": "address"
        },
        {
          "indexed": true,
          "internalType": "address",
          "name": "newOwner",
          "type": "address"
        }
      ],
      "name": "OwnershipTransferred",
      "type": "event"
    },
    {
      "anonymous": false,
      "inputs": [
        {
          "indexed": false,
          "internalType": "address",
          "name": "account",
          "type": "address"
        }
      ],
      "name": "Paused",
      "type": "event"
    },
    {
      "anonymous": false,
      "inputs": [
        {
          "indexed": false,
          "internalType": "address",
          "name": "sender",
          "type": "address"
        },
        {
          "indexed": false,
          "internalType": "uint256",
          "name": "amount",
          "type": "uint256"
        }
      ],
      "name": "ReceivedFee",
      "type": "event"
    },
    {
      "anonymous": false,
      "inputs": [
        {
          "indexed": false,
          "internalType": "address",
          "name": "sender",
          "type": "address"
        },
        {
          "indexed": false,
          "internalType": "address",
          "name": "newValue",
          "type": "address"
        },
        {
          "indexed": false,
          "internalType": "address",
          "name": "oldValue",
          "type": "address"
        }
      ],
      "name": "RewardTokenChanged",
      "type": "event"
    },
    {
      "anonymous": false,
      "inputs": [
        {
          "indexed": false,
          "internalType": "address",
          "name": "account",
          "type": "address"
        }
      ],
      "name": "Unpaused",
      "type": "event"
    },
    {
      "inputs": [
        {
          "internalType": "uint256",
          "name": "tokenId",
          "type": "uint256"
        }
      ],
      "name": "accumulativeDividendOf",
      "outputs": [
        {
          "internalType": "uint256",
          "name": "",
          "type": "uint256"
        }
      ],
      "stateMutability": "view",
      "type": "function"
    },
    {
      "inputs": [
        {
          "internalType": "address",
          "name": "",
          "type": "address"
        }
      ],
      "name": "allowCallTb",
      "outputs": [
        {
          "internalType": "bool",
          "name": "",
          "type": "bool"
        }
      ],
      "stateMutability": "view",
      "type": "function"
    },
    {
      "inputs": [
        {
          "internalType": "uint256",
          "name": "",
          "type": "uint256"
        }
      ],
      "name": "balanceTb",
      "outputs": [
        {
          "internalType": "uint256",
          "name": "",
          "type": "uint256"
        }
      ],
      "stateMutability": "view",
      "type": "function"
    },
    {
      "inputs": [
        {
          "internalType": "address",
          "name": "user",
          "type": "address"
        }
      ],
      "name": "dividendOf",
      "outputs": [
        {
          "internalType": "uint256",
          "name": "",
          "type": "uint256"
        }
      ],
      "stateMutability": "view",
      "type": "function"
    },
    {
      "inputs": [
        {
          "internalType": "uint256",
          "name": "tokenId",
          "type": "uint256"
        }
      ],
      "name": "dividendOfToken",
      "outputs": [
        {
          "internalType": "uint256",
          "name": "",
          "type": "uint256"
        }
      ],
      "stateMutability": "view",
      "type": "function"
    },
    {
      "inputs": [
        {
          "internalType": "uint256",
          "name": "amount",
          "type": "uint256"
        }
      ],
      "name": "handleReceive",
      "outputs": [],
      "stateMutability": "nonpayable",
      "type": "function"
    },
    {
      "inputs": [
        {
          "internalType": "address",
          "name": "user",
          "type": "address"
        },
        {
          "internalType": "uint256",
          "name": "tokenId",
          "type": "uint256"
        },
        {
          "internalType": "uint256",
          "name": "newBalance",
          "type": "uint256"
        }
      ],
      "name": "hookBalanceChange",
      "outputs": [],
      "stateMutability": "nonpayable",
      "type": "function"
    },
    {
      "inputs": [
        {
          "internalType": "address",
          "name": "_rewardToken",
          "type": "address"
        }
      ],
      "name": "initialize",
      "outputs": [],
      "stateMutability": "nonpayable",
      "type": "function"
    },
    {
      "inputs": [
        {
          "internalType": "address",
          "name": "caller",
          "type": "address"
        }
      ],
      "name": "isAllowToCall",
      "outputs": [
        {
          "internalType": "bool",
          "name": "",
          "type": "bool"
        }
      ],
      "stateMutability": "view",
      "type": "function"
    },
    {
      "inputs": [],
      "name": "owner",
      "outputs": [
        {
          "internalType": "address",
          "name": "",
          "type": "address"
        }
      ],
      "stateMutability": "view",
      "type": "function"
    },
    {
      "inputs": [],
      "name": "paused",
      "outputs": [
        {
          "internalType": "bool",
          "name": "",
          "type": "bool"
        }
      ],
      "stateMutability": "view",
      "type": "function"
    },
    {
      "inputs": [],
      "name": "renounceOwnership",
      "outputs": [],
      "stateMutability": "nonpayable",
      "type": "function"
    },
    {
      "inputs": [],
      "name": "rewardToken",
      "outputs": [
        {
          "internalType": "contract IERC20",
          "name": "",
          "type": "address"
        }
      ],
      "stateMutability": "view",
      "type": "function"
    },
    {
      "inputs": [
        {
          "internalType": "address",
          "name": "caller",
          "type": "address"
        },
        {
          "internalType": "bool",
          "name": "allow",
          "type": "bool"
        }
      ],
      "name": "setAllowToCall",
      "outputs": [],
      "stateMutability": "nonpayable",
      "type": "function"
    },
    {
      "inputs": [
        {
          "internalType": "address",
          "name": "_rewardToken",
          "type": "address"
        }
      ],
      "name": "setRewardToken",
      "outputs": [],
      "stateMutability": "nonpayable",
      "type": "function"
    },
    {
      "inputs": [],
      "name": "totalBalance",
      "outputs": [
        {
          "internalType": "uint256",
          "name": "",
          "type": "uint256"
        }
      ],
      "stateMutability": "view",
      "type": "function"
    },
    {
      "inputs": [],
      "name": "totalDividendsDistributed",
      "outputs": [
        {
          "internalType": "uint256",
          "name": "",
          "type": "uint256"
        }
      ],
      "stateMutability": "view",
      "type": "function"
    },
    {
      "inputs": [
        {
          "internalType": "address",
          "name": "newOwner",
          "type": "address"
        }
      ],
      "name": "transferOwnership",
      "outputs": [],
      "stateMutability": "nonpayable",
      "type": "function"
    },
    {
      "inputs": [
        {
          "internalType": "address",
          "name": "",
          "type": "address"
        },
        {
          "internalType": "uint256",
          "name": "",
          "type": "uint256"
        }
      ],
      "name": "userTokenTb",
      "outputs": [
        {
          "internalType": "uint256",
          "name": "",
          "type": "uint256"
        }
      ],
      "stateMutability": "view",
      "type": "function"
    },
    {
      "inputs": [],
      "name": "withdrawDividend",
      "outputs": [],
      "stateMutability": "nonpayable",
      "type": "function"
    },
    {
      "inputs": [
        {
          "internalType": "uint256",
          "name": "tokenId",
          "type": "uint256"
        }
      ],
      "name": "withdrawDividendOfToken",
      "outputs": [],
      "stateMutability": "nonpayable",
      "type": "function"
    },
    {
      "inputs": [
        {
          "internalType": "uint256",
          "name": "tokenId",
          "type": "uint256"
        }
      ],
      "name": "withdrawableDividendOf",
      "outputs": [
        {
          "internalType": "uint256",
          "name": "",
          "type": "uint256"
        }
      ],
      "stateMutability": "view",
      "type": "function"
    },
    {
      "inputs": [
        {
          "internalType": "uint256",
          "name": "tokenId",
          "type": "uint256"
        }
      ],
      "name": "withdrawnDividendOf",
      "outputs": [
        {
          "internalType": "uint256",
          "name": "",
          "type": "uint256"
        }
      ],
      "stateMutability": "view",
      "type": "function"
    }
  ],
  "bytecode": "0x608060405234801561001057600080fd5b506112d0806100206000396000f3fe608060405234801561001057600080fd5b506004361061014d5760003560e01c80638aee8127116100c3578063ddaf48481161007c578063ddaf4848146102cd578063ef063fce146102e0578063f2fde38b146102f3578063f7c618c114610306578063faa3ee3214610319578063fd88848f1461033c57600080fd5b80638aee8127146102465780638da5cb5b1461025957806391b89fba1461027e578063ad7a672f14610291578063be9ed0af1461029a578063c4d66de8146102ba57600080fd5b8063533e051011610115578063533e0510146101d35780635c975abb1461020f57806361926a851461021a5780636a4740021461022d578063715018a61461023557806385a6b3ae1461023d57600080fd5b80630d4870ba146101525780631c8ab939146101675780632314ae091461018d57806327181a78146101a05780634a5bc829146101b3575b600080fd5b61016561016036600461101d565b61034f565b005b61017a610175366004611054565b610382565b6040519081526020015b60405180910390f35b61016561019b366004611054565b6103da565b6101656101ae36600461106d565b6104a3565b61017a6101c1366004611054565b60009081526004602052604090205490565b6101ff6101e13660046110a0565b6001600160a01b03166000908152609d602052604090205460ff1690565b6040519015158152602001610184565b606b5460ff166101ff565b61017a6102283660046110bb565b610607565b610165610638565b610165610697565b61017a60055481565b6101656102543660046110a0565b6106ab565b6039546001600160a01b03165b6040516001600160a01b039091168152602001610184565b61017a61028c3660046110a0565b610769565b61017a60025481565b61017a6102a8366004611054565b60016020526000908152604090205481565b6101656102c83660046110a0565b6107da565b6101656102db366004611054565b61092b565b61017a6102ee366004611054565b6109bd565b6101656103013660046110a0565b6109df565b609f54610266906001600160a01b031681565b6101ff6103273660046110a0565b609d6020526000908152604090205460ff1681565b61017a61034a366004611054565b610a55565b610357610a60565b6001600160a01b03919091166000908152609d60205260409020805460ff1916911515919091179055565b60008181526003602090815260408083205460019092528220548254600160801b926103ca926103c5926103bf916103ba9190610aba565b610acd565b90610add565b610b1b565b6103d491906110fb565b92915050565b6103e2610b2e565b336000908152609e60205260408120805490915b825481101561043d578281815481106104115761041161111d565b906000526020600020015484141561042b5780915061043d565b8061043581611133565b9150506103f6565b50815481106104935760405162461bcd60e51b815260206004820152601860248201527f544f4b454e5f4e4f545f42454c4f4e475f544f5f55534552000000000000000060448201526064015b60405180910390fd5b61049d3384610b74565b50505050565b336000908152609d602052604090205460ff166104f05760405162461bcd60e51b815260206004820152600b60248201526a27a7262cafa1a0a62622a960a91b604482015260640161048a565b8015610526576001600160a01b0383166000908152609e60209081526040822080546001810182559083529120018290556105f8565b6001600160a01b0383166000908152609e60205260408120905b81548110156105f5578382828154811061055c5761055c61111d565b906000526020600020015414156105e3578154829061057d9060019061114e565b8154811061058d5761058d61111d565b90600052602060002001548282815481106105aa576105aa61111d565b9060005260206000200181905550818054806105c8576105c8611165565b600190038181906000526020600020016000905590556105f5565b806105ed81611133565b915050610540565b50505b6106028282610cc3565b505050565b609e602052816000526040600020818154811061062357600080fd5b90600052602060002001600091509150505481565b610640610b2e565b336000908152609e60205260408120905b815481101561069357610680338383815481106106705761067061111d565b9060005260206000200154610b74565b508061068b81611133565b915050610651565b5050565b61069f610a60565b6106a96000610d12565b565b6106b3610a60565b6001600160a01b0381166106fb5760405162461bcd60e51b815260206004820152600f60248201526e494e56414c49445f4144445245535360881b604482015260640161048a565b609f54604080513381526001600160a01b03848116602083015290921682820152517f60c2ec68191b35d1fff2d50e8b3fcc9bec20cddbf9b57d9ce4d73fe74406f1069181900360600190a1609f80546001600160a01b0319166001600160a01b0392909216919091179055565b6001600160a01b0381166000908152609e602052604081208190815b81548110156107d1576107b38282815481106107a3576107a361111d565b9060005260206000200154610a55565b6107bd908461117b565b9250806107c981611133565b915050610785565b50909392505050565b600654600190610100900460ff161580156107fc575060065460ff8083169116105b61085f5760405162461bcd60e51b815260206004820152602e60248201527f496e697469616c697a61626c653a20636f6e747261637420697320616c72656160448201526d191e481a5b9a5d1a585b1a5e995960921b606482015260840161048a565b6006805461ffff191660ff8316176101001790556001600160a01b0382166108bb5760405162461bcd60e51b815260206004820152600f60248201526e494e56414c49445f4144445245535360881b604482015260640161048a565b609f80546001600160a01b0319166001600160a01b0384161790556108de610d64565b6108e6610d93565b6006805461ff001916905560405160ff821681527f7f26b83ff96e1f2b6a682f133852f6798a09c465da95921460cefb38474024989060200160405180910390a15050565b336000908152609d602052604090205460ff166109785760405162461bcd60e51b815260206004820152600b60248201526a27a7262cafa1a0a62622a960a91b604482015260640161048a565b60408051338152602081018390527f86e293e1baa7071cb4ab3f657a446c92a1391aad0eb4202969b585d009a59b28910160405180910390a16109ba81610dc2565b50565b6000818152600460205260408120546103d4906109d984610382565b90610e4e565b6109e7610a60565b6001600160a01b038116610a4c5760405162461bcd60e51b815260206004820152602660248201527f4f776e61626c653a206e6577206f776e657220697320746865207a65726f206160448201526564647265737360d01b606482015260840161048a565b6109ba81610d12565b60006103d4826109bd565b6039546001600160a01b031633146106a95760405162461bcd60e51b815260206004820181905260248201527f4f776e61626c653a2063616c6c6572206973206e6f7420746865206f776e6572604482015260640161048a565b6000610ac68284611193565b9392505050565b600081818112156103d457600080fd5b600080610aea83856111b2565b905060008312158015610afd5750838112155b80610b125750600083128015610b1257508381125b610ac657600080fd5b600080821215610b2a57600080fd5b5090565b606b5460ff16156106a95760405162461bcd60e51b815260206004820152601060248201526f14185d5cd8589b194e881c185d5cd95960821b604482015260640161048a565b600080610b80836109bd565b90508015610cb957600083815260046020526040902054610ba19082610e5a565b6000848152600460209081526040918290209290925580516001600160a01b038716815291820185905281018290527fefd65b72f86341261b48f35743edbc6cd52296a0d295e1f192afe234e8f34c459060600160405180910390a1609f5460405163a9059cbb60e01b81526001600160a01b03868116600483015260248201849052600092169063a9059cbb906044016020604051808303816000875af1158015610c51573d6000803e3d6000fd5b505050506040513d601f19601f82011682018060405250810190610c7591906111f3565b905080610cb157600084815260046020526040902054610c959083610e4e565b60008581526004602052604081209190915592506103d4915050565b5090506103d4565b5060009392505050565b60008281526001602052604090205480821115610cf2576000610ce68383610e4e565b905061049d8482610e66565b80821015610602576000610d068284610e4e565b905061049d8482610ee0565b603980546001600160a01b038381166001600160a01b0319831681179093556040519116919082907f8be0079c531659141344cd1fd0a4f28419497f9722a3daafe3b4186f6b6457e090600090a35050565b600654610100900460ff16610d8b5760405162461bcd60e51b815260040161048a90611210565b6106a9610f44565b600654610100900460ff16610dba5760405162461bcd60e51b815260040161048a90611210565b6106a9610f77565b600060025411610dd157600080fd5b80156109ba57600254610dff90610dec83600160801b610aba565b610df691906110fb565b60005490610e5a565b60005560408051338152602081018390527fa493a9229478c3fcd73f66d2cdeb7f94fd0f341da924d1054236d78454116511910160405180910390a1600554610e489082610e5a565b60055550565b6000610ac6828461114e565b6000610ac6828461117b565b8060026000828254610e78919061117b565b909155505060008281526001602052604081208054839290610e9b90849061117b565b9091555050600054610eca90610eb5906103ba9084610aba565b60008481526003602052604090205490610fa7565b6000928352600360205260409092209190915550565b8060026000828254610ef2919061114e565b909155505060008281526001602052604081208054839290610f1590849061114e565b9091555050600054610eca90610f2f906103ba9084610aba565b60008481526003602052604090205490610add565b600654610100900460ff16610f6b5760405162461bcd60e51b815260040161048a90611210565b606b805460ff19169055565b600654610100900460ff16610f9e5760405162461bcd60e51b815260040161048a90611210565b6106a933610d12565b6000808212158015610fc2575082610fbf838261125b565b13155b80610fe05750600082128015610fe0575082610fde838261125b565b135b610fe957600080fd5b610ac6828461125b565b80356001600160a01b038116811461100a57600080fd5b919050565b80151581146109ba57600080fd5b6000806040838503121561103057600080fd5b61103983610ff3565b915060208301356110498161100f565b809150509250929050565b60006020828403121561106657600080fd5b5035919050565b60008060006060848603121561108257600080fd5b61108b84610ff3565b95602085013595506040909401359392505050565b6000602082840312156110b257600080fd5b610ac682610ff3565b600080604083850312156110ce57600080fd5b6110d783610ff3565b946020939093013593505050565b634e487b7160e01b600052601160045260246000fd5b60008261111857634e487b7160e01b600052601260045260246000fd5b500490565b634e487b7160e01b600052603260045260246000fd5b6000600019821415611147576111476110e5565b5060010190565b600082821015611160576111606110e5565b500390565b634e487b7160e01b600052603160045260246000fd5b6000821982111561118e5761118e6110e5565b500190565b60008160001904831182151516156111ad576111ad6110e5565b500290565b600080821280156001600160ff1b03849003851316156111d4576111d46110e5565b600160ff1b83900384128116156111ed576111ed6110e5565b50500190565b60006020828403121561120557600080fd5b8151610ac68161100f565b6020808252602b908201527f496e697469616c697a61626c653a20636f6e7472616374206973206e6f74206960408201526a6e697469616c697a696e6760a81b606082015260800190565b60008083128015600160ff1b850184121615611279576112796110e5565b6001600160ff1b0384018313811615611294576112946110e5565b5050039056fea2646970667358221220498ae36fdccedee5b1a0418a2b2a94bfe1028c4bc4f78aece21948dc5bf6628964736f6c634300080b0033",
  "linkReferences": {},
  "deployedLinkReferences": {}
}