{
  "_format": "hh-sol-artifact-1",
  "contractName": "StakedDividendTracker",
  "sourceName": "contracts/stake/StakedDividendTracker.sol",
  "abi": [
    {
      "anonymous": false,
      "inputs": [
        {
          "indexed": false,
          "internalType": "address",
          "name": "user",
          "type": "address"
        },
        {
          "indexed": false,
          "internalType": "uint256",
          "name": "tokenId",
          "type": "uint256"
        },
        {
          "indexed": false,
          "internalType": "uint256",
          "name": "amount",
          "type": "uint256"
        }
      ],
      "name": "DividendWithdrawn",
      "type": "event"
    },
    {
      "anonymous": false,
      "inputs": [
        {
          "indexed": false,
          "internalType": "address",
          "name": "sender",
          "type": "address"
        },
        {
          "indexed": false,
          "internalType": "uint256",
          "name": "amount",
          "type": "uint256"
        }
      ],
      "name": "DividendsDistributed",
      "type": "event"
    },
    {
      "anonymous": false,
      "inputs": [
        {
          "indexed": false,
          "internalType": "uint8",
          "name": "version",
          "type": "uint8"
        }
      ],
      "name": "Initialized",
      "type": "event"
    },
    {
      "anonymous": false,
      "inputs": [
        {
          "indexed": true,
          "internalType": "address",
          "name": "previousOwner",
          "type": "address"
        },
        {
          "indexed": true,
          "internalType": "address",
          "name": "newOwner",
          "type": "address"
        }
      ],
      "name": "OwnershipTransferred",
      "type": "event"
    },
    {
      "anonymous": false,
      "inputs": [
        {
          "indexed": false,
          "internalType": "address",
          "name": "account",
          "type": "address"
        }
      ],
      "name": "Paused",
      "type": "event"
    },
    {
      "anonymous": false,
      "inputs": [
        {
          "indexed": false,
          "internalType": "address",
          "name": "sender",
          "type": "address"
        },
        {
          "indexed": false,
          "internalType": "uint256",
          "name": "amount",
          "type": "uint256"
        }
      ],
      "name": "ReceivedFee",
      "type": "event"
    },
    {
      "anonymous": false,
      "inputs": [
        {
          "indexed": false,
          "internalType": "address",
          "name": "sender",
          "type": "address"
        },
        {
          "indexed": false,
          "internalType": "address",
          "name": "newValue",
          "type": "address"
        },
        {
          "indexed": false,
          "internalType": "address",
          "name": "oldValue",
          "type": "address"
        }
      ],
      "name": "RewardTokenChanged",
      "type": "event"
    },
    {
      "anonymous": false,
      "inputs": [
        {
          "indexed": false,
          "internalType": "address",
          "name": "account",
          "type": "address"
        }
      ],
      "name": "Unpaused",
      "type": "event"
    },
    {
      "inputs": [
        {
          "internalType": "uint256",
          "name": "tokenId",
          "type": "uint256"
        }
      ],
      "name": "accumulativeDividendOf",
      "outputs": [
        {
          "internalType": "uint256",
          "name": "",
          "type": "uint256"
        }
      ],
      "stateMutability": "view",
      "type": "function"
    },
    {
      "inputs": [
        {
          "internalType": "address",
          "name": "",
          "type": "address"
        }
      ],
      "name": "allowCallTb",
      "outputs": [
        {
          "internalType": "bool",
          "name": "",
          "type": "bool"
        }
      ],
      "stateMutability": "view",
      "type": "function"
    },
    {
      "inputs": [
        {
          "internalType": "uint256",
          "name": "",
          "type": "uint256"
        }
      ],
      "name": "balanceTb",
      "outputs": [
        {
          "internalType": "uint256",
          "name": "",
          "type": "uint256"
        }
      ],
      "stateMutability": "view",
      "type": "function"
    },
    {
      "inputs": [
        {
          "internalType": "address",
          "name": "user",
          "type": "address"
        }
      ],
      "name": "dividendOf",
      "outputs": [
        {
          "internalType": "uint256",
          "name": "",
          "type": "uint256"
        }
      ],
      "stateMutability": "view",
      "type": "function"
    },
    {
      "inputs": [
        {
          "internalType": "uint256",
          "name": "tokenId",
          "type": "uint256"
        }
      ],
      "name": "dividendOfToken",
      "outputs": [
        {
          "internalType": "uint256",
          "name": "",
          "type": "uint256"
        }
      ],
      "stateMutability": "view",
      "type": "function"
    },
    {
      "inputs": [
        {
          "internalType": "uint256",
          "name": "amount",
          "type": "uint256"
        }
      ],
      "name": "handleReceive",
      "outputs": [],
      "stateMutability": "nonpayable",
      "type": "function"
    },
    {
      "inputs": [
        {
          "internalType": "address",
          "name": "user",
          "type": "address"
        },
        {
          "internalType": "uint256",
          "name": "tokenId",
          "type": "uint256"
        },
        {
          "internalType": "uint256",
          "name": "newBalance",
          "type": "uint256"
        }
      ],
      "name": "hookBalanceChange",
      "outputs": [],
      "stateMutability": "nonpayable",
      "type": "function"
    },
    {
      "inputs": [
        {
          "internalType": "address",
          "name": "_rewardToken",
          "type": "address"
        }
      ],
      "name": "initialize",
      "outputs": [],
      "stateMutability": "nonpayable",
      "type": "function"
    },
    {
      "inputs": [
        {
          "internalType": "address",
          "name": "caller",
          "type": "address"
        }
      ],
      "name": "isAllowToCall",
      "outputs": [
        {
          "internalType": "bool",
          "name": "",
          "type": "bool"
        }
      ],
      "stateMutability": "view",
      "type": "function"
    },
    {
      "inputs": [],
      "name": "owner",
      "outputs": [
        {
          "internalType": "address",
          "name": "",
          "type": "address"
        }
      ],
      "stateMutability": "view",
      "type": "function"
    },
    {
      "inputs": [],
      "name": "paused",
      "outputs": [
        {
          "internalType": "bool",
          "name": "",
          "type": "bool"
        }
      ],
      "stateMutability": "view",
      "type": "function"
    },
    {
      "inputs": [],
      "name": "renounceOwnership",
      "outputs": [],
      "stateMutability": "nonpayable",
      "type": "function"
    },
    {
      "inputs": [],
      "name": "rewardToken",
      "outputs": [
        {
          "internalType": "contract IERC20",
          "name": "",
          "type": "address"
        }
      ],
      "stateMutability": "view",
      "type": "function"
    },
    {
      "inputs": [
        {
          "internalType": "address",
          "name": "caller",
          "type": "address"
        },
        {
          "internalType": "bool",
          "name": "allow",
          "type": "bool"
        }
      ],
      "name": "setAllowToCall",
      "outputs": [],
      "stateMutability": "nonpayable",
      "type": "function"
    },
    {
      "inputs": [
        {
          "internalType": "address",
          "name": "_rewardToken",
          "type": "address"
        }
      ],
      "name": "setRewardToken",
      "outputs": [],
      "stateMutability": "nonpayable",
      "type": "function"
    },
    {
      "inputs": [],
      "name": "totalBalance",
      "outputs": [
        {
          "internalType": "uint256",
          "name": "",
          "type": "uint256"
        }
      ],
      "stateMutability": "view",
      "type": "function"
    },
    {
      "inputs": [],
      "name": "totalDividendsDistributed",
      "outputs": [
        {
          "internalType": "uint256",
          "name": "",
          "type": "uint256"
        }
      ],
      "stateMutability": "view",
      "type": "function"
    },
    {
      "inputs": [
        {
          "internalType": "address",
          "name": "newOwner",
          "type": "address"
        }
      ],
      "name": "transferOwnership",
      "outputs": [],
      "stateMutability": "nonpayable",
      "type": "function"
    },
    {
      "inputs": [
        {
          "internalType": "address",
          "name": "",
          "type": "address"
        },
        {
          "internalType": "uint256",
          "name": "",
          "type": "uint256"
        }
      ],
      "name": "userTokenTb",
      "outputs": [
        {
          "internalType": "uint256",
          "name": "",
          "type": "uint256"
        }
      ],
      "stateMutability": "view",
      "type": "function"
    },
    {
      "inputs": [],
      "name": "withdrawDividend",
      "outputs": [],
      "stateMutability": "nonpayable",
      "type": "function"
    },
    {
      "inputs": [
        {
          "internalType": "address",
          "name": "to",
          "type": "address"
        }
      ],
      "name": "withdrawDividendOnbehalfOf",
      "outputs": [],
      "stateMutability": "nonpayable",
      "type": "function"
    },
    {
      "inputs": [
        {
          "internalType": "uint256",
          "name": "tokenId",
          "type": "uint256"
        }
      ],
      "name": "withdrawableDividendOf",
      "outputs": [
        {
          "internalType": "uint256",
          "name": "",
          "type": "uint256"
        }
      ],
      "stateMutability": "view",
      "type": "function"
    },
    {
      "inputs": [
        {
          "internalType": "uint256",
          "name": "tokenId",
          "type": "uint256"
        }
      ],
      "name": "withdrawnDividendOf",
      "outputs": [
        {
          "internalType": "uint256",
          "name": "",
          "type": "uint256"
        }
      ],
      "stateMutability": "view",
      "type": "function"
    }
  ],
  "bytecode": "0x608060405234801561001057600080fd5b50611267806100206000396000f3fe608060405234801561001057600080fd5b506004361061014d5760003560e01c80638da5cb5b116100c3578063ddaf48481161007c578063ddaf4848146102cd578063ef063fce146102e0578063f2fde38b146102f3578063f7c618c114610306578063faa3ee3214610319578063fd88848f1461033c57600080fd5b80638da5cb5b1461024657806391b89fba1461026b578063ad7a672f1461027e578063be9ed0af14610287578063c4d66de8146102a7578063c9027155146102ba57600080fd5b80635c975abb116101155780635c975abb146101fc57806361926a85146102075780636a4740021461021a578063715018a61461022257806385a6b3ae1461022a5780638aee81271461023357600080fd5b80630d4870ba146101525780631c8ab9391461016757806327181a781461018d5780634a5bc829146101a0578063533e0510146101c0575b600080fd5b610165610160366004610fb4565b61034f565b005b61017a610175366004610feb565b610382565b6040519081526020015b60405180910390f35b61016561019b366004611004565b6103da565b61017a6101ae366004610feb565b60009081526004602052604090205490565b6101ec6101ce366004611037565b6001600160a01b03166000908152609d602052604090205460ff1690565b6040519015158152602001610184565b606b5460ff166101ec565b61017a610215366004611052565b610543565b610165610574565b610165610587565b61017a60055481565b610165610241366004611037565b610599565b6039546001600160a01b03165b6040516001600160a01b039091168152602001610184565b61017a610279366004611037565b610657565b61017a60025481565b61017a610295366004610feb565b60016020526000908152604090205481565b6101656102b5366004611037565b6106c8565b6101656102c8366004611037565b610819565b6101656102db366004610feb565b61082d565b61017a6102ee366004610feb565b6108bc565b610165610301366004611037565b6108de565b609f54610253906001600160a01b031681565b6101ec610327366004611037565b609d6020526000908152604090205460ff1681565b61017a61034a366004610feb565b610954565b61035761095f565b6001600160a01b03919091166000908152609d60205260409020805460ff1916911515919091179055565b60008181526003602090815260408083205460019092528220548254600160801b926103ca926103c5926103bf916103ba91906109b9565b6109cc565b906109dc565b610a1a565b6103d49190611092565b92915050565b336000908152609d602052604090205460ff1661042c5760405162461bcd60e51b815260206004820152600b60248201526a27a7262cafa1a0a62622a960a91b60448201526064015b60405180910390fd5b8015610462576001600160a01b0383166000908152609e6020908152604082208054600181018255908352912001829055610534565b6001600160a01b0383166000908152609e60205260408120905b81548110156105315783828281548110610498576104986110b4565b9060005260206000200154141561051f57815482906104b9906001906110ca565b815481106104c9576104c96110b4565b90600052602060002001548282815481106104e6576104e66110b4565b906000526020600020018190555081805480610504576105046110e1565b60019003818190600052602060002001600090559055610531565b80610529816110f7565b91505061047c565b50505b61053e8282610a2d565b505050565b609e602052816000526040600020818154811061055f57600080fd5b90600052602060002001600091509150505481565b61057c610a82565b61058533610ac8565b565b61058f61095f565b6105856000610c5c565b6105a161095f565b6001600160a01b0381166105e95760405162461bcd60e51b815260206004820152600f60248201526e494e56414c49445f4144445245535360881b6044820152606401610423565b609f54604080513381526001600160a01b03848116602083015290921682820152517f60c2ec68191b35d1fff2d50e8b3fcc9bec20cddbf9b57d9ce4d73fe74406f1069181900360600190a1609f80546001600160a01b0319166001600160a01b0392909216919091179055565b6001600160a01b0381166000908152609e602052604081208190815b81548110156106bf576106a1828281548110610691576106916110b4565b9060005260206000200154610954565b6106ab9084611112565b9250806106b7816110f7565b915050610673565b50909392505050565b600654600190610100900460ff161580156106ea575060065460ff8083169116105b61074d5760405162461bcd60e51b815260206004820152602e60248201527f496e697469616c697a61626c653a20636f6e747261637420697320616c72656160448201526d191e481a5b9a5d1a585b1a5e995960921b6064820152608401610423565b6006805461ffff191660ff8316176101001790556001600160a01b0382166107a95760405162461bcd60e51b815260206004820152600f60248201526e494e56414c49445f4144445245535360881b6044820152606401610423565b609f80546001600160a01b0319166001600160a01b0384161790556107cc610cae565b6107d4610cdd565b6006805461ff001916905560405160ff821681527f7f26b83ff96e1f2b6a682f133852f6798a09c465da95921460cefb38474024989060200160405180910390a15050565b610821610a82565b61082a81610ac8565b50565b336000908152609d602052604090205460ff1661087a5760405162461bcd60e51b815260206004820152600b60248201526a27a7262cafa1a0a62622a960a91b6044820152606401610423565b60408051338152602081018390527f86e293e1baa7071cb4ab3f657a446c92a1391aad0eb4202969b585d009a59b28910160405180910390a161082a81610d0c565b6000818152600460205260408120546103d4906108d884610382565b90610d98565b6108e661095f565b6001600160a01b03811661094b5760405162461bcd60e51b815260206004820152602660248201527f4f776e61626c653a206e6577206f776e657220697320746865207a65726f206160448201526564647265737360d01b6064820152608401610423565b61082a81610c5c565b60006103d4826108bc565b6039546001600160a01b031633146105855760405162461bcd60e51b815260206004820181905260248201527f4f776e61626c653a2063616c6c6572206973206e6f7420746865206f776e65726044820152606401610423565b60006109c5828461112a565b9392505050565b600081818112156103d457600080fd5b6000806109e98385611149565b9050600083121580156109fc5750838112155b80610a115750600083128015610a1157508381125b6109c557600080fd5b600080821215610a2957600080fd5b5090565b60008281526001602052604090205480821115610a62576000610a508383610d98565b9050610a5c8482610da4565b50505050565b8082101561053e576000610a768284610d98565b9050610a5c8482610e1e565b606b5460ff16156105855760405162461bcd60e51b815260206004820152601060248201526f14185d5cd8589b194e881c185d5cd95960821b6044820152606401610423565b6001600160a01b0381166000908152609e6020526040812090805b8254811015610b9b576000610b13848381548110610b0357610b036110b4565b9060005260206000200154610e82565b90507fefd65b72f86341261b48f35743edbc6cd52296a0d295e1f192afe234e8f34c4585858481548110610b4957610b496110b4565b60009182526020918290200154604080516001600160a01b03909416845291830152810183905260600160405180910390a1610b858184611112565b9250508080610b93906110f7565b915050610ae3565b50609f5460405163a9059cbb60e01b81526001600160a01b03858116600483015260248201849052600092169063a9059cbb906044016020604051808303816000875af1158015610bf0573d6000803e3d6000fd5b505050506040513d601f19601f82011682018060405250810190610c14919061118a565b905080610a5c5760405162461bcd60e51b8152602060048201526016602482015275115490cc8c0e881d1c985b9cd9995c8819985a5b195960521b6044820152606401610423565b603980546001600160a01b038381166001600160a01b0319831681179093556040519116919082907f8be0079c531659141344cd1fd0a4f28419497f9722a3daafe3b4186f6b6457e090600090a35050565b600654610100900460ff16610cd55760405162461bcd60e51b8152600401610423906111a7565b610585610ecf565b600654610100900460ff16610d045760405162461bcd60e51b8152600401610423906111a7565b610585610f02565b600060025411610d1b57600080fd5b801561082a57600254610d4990610d3683600160801b6109b9565b610d409190611092565b60005490610f32565b60005560408051338152602081018390527fa493a9229478c3fcd73f66d2cdeb7f94fd0f341da924d1054236d78454116511910160405180910390a1600554610d929082610f32565b60055550565b60006109c582846110ca565b8060026000828254610db69190611112565b909155505060008281526001602052604081208054839290610dd9908490611112565b9091555050600054610e0890610df3906103ba90846109b9565b60008481526003602052604090205490610f3e565b6000928352600360205260409092209190915550565b8060026000828254610e3091906110ca565b909155505060008281526001602052604081208054839290610e539084906110ca565b9091555050600054610e0890610e6d906103ba90846109b9565b600084815260036020526040902054906109dc565b600080610e8e836108bc565b90508015610ec657600083815260046020526040902054610eaf9082610f32565b600093845260046020526040909320929092555090565b50600092915050565b600654610100900460ff16610ef65760405162461bcd60e51b8152600401610423906111a7565b606b805460ff19169055565b600654610100900460ff16610f295760405162461bcd60e51b8152600401610423906111a7565b61058533610c5c565b60006109c58284611112565b6000808212158015610f59575082610f5683826111f2565b13155b80610f775750600082128015610f77575082610f7583826111f2565b135b610f8057600080fd5b6109c582846111f2565b80356001600160a01b0381168114610fa157600080fd5b919050565b801515811461082a57600080fd5b60008060408385031215610fc757600080fd5b610fd083610f8a565b91506020830135610fe081610fa6565b809150509250929050565b600060208284031215610ffd57600080fd5b5035919050565b60008060006060848603121561101957600080fd5b61102284610f8a565b95602085013595506040909401359392505050565b60006020828403121561104957600080fd5b6109c582610f8a565b6000806040838503121561106557600080fd5b61106e83610f8a565b946020939093013593505050565b634e487b7160e01b600052601160045260246000fd5b6000826110af57634e487b7160e01b600052601260045260246000fd5b500490565b634e487b7160e01b600052603260045260246000fd5b6000828210156110dc576110dc61107c565b500390565b634e487b7160e01b600052603160045260246000fd5b600060001982141561110b5761110b61107c565b5060010190565b600082198211156111255761112561107c565b500190565b60008160001904831182151516156111445761114461107c565b500290565b600080821280156001600160ff1b038490038513161561116b5761116b61107c565b600160ff1b83900384128116156111845761118461107c565b50500190565b60006020828403121561119c57600080fd5b81516109c581610fa6565b6020808252602b908201527f496e697469616c697a61626c653a20636f6e7472616374206973206e6f74206960408201526a6e697469616c697a696e6760a81b606082015260800190565b60008083128015600160ff1b8501841216156112105761121061107c565b6001600160ff1b038401831381161561122b5761122b61107c565b5050039056fea264697066735822122001711002506009d036cbe27e790110579bbc7abdd81ca268558a5abcc08d955164736f6c634300080b0033",
  "linkReferences": {},
  "deployedLinkReferences": {}
}