{
  "_format": "hh-sol-artifact-1",
  "contractName": "StakedRewardUiDataProvider",
  "sourceName": "contracts/stake/StakedRewardUiDataProvider.sol",
  "abi": [
    {
      "inputs": [
        {
          "internalType": "address",
          "name": "_staked",
          "type": "address"
        },
        {
          "internalType": "address",
          "name": "_dividend",
          "type": "address"
        }
      ],
      "stateMutability": "nonpayable",
      "type": "constructor"
    },
    {
      "inputs": [],
      "name": "claimRewards",
      "outputs": [],
      "stateMutability": "nonpayable",
      "type": "function"
    },
    {
      "inputs": [
        {
          "internalType": "uint256",
          "name": "tokenId",
          "type": "uint256"
        }
      ],
      "name": "getUnClaimedRewardOfToken",
      "outputs": [
        {
          "internalType": "uint256",
          "name": "amount",
          "type": "uint256"
        }
      ],
      "stateMutability": "view",
      "type": "function"
    },
    {
      "inputs": [
        {
          "internalType": "address",
          "name": "user",
          "type": "address"
        }
      ],
      "name": "getUnClaimedRewards",
      "outputs": [
        {
          "internalType": "uint256",
          "name": "amount",
          "type": "uint256"
        }
      ],
      "stateMutability": "view",
      "type": "function"
    }
  ],
  "bytecode": "0x608060405234801561001057600080fd5b5060405161051938038061051983398101604081905261002f916100de565b6001600160a01b0382161580159061004f57506001600160a01b03811615155b6100915760405162461bcd60e51b815260206004820152600f60248201526e494e56414c49445f4144445245535360881b604482015260640160405180910390fd5b600080546001600160a01b039384166001600160a01b03199182161790915560018054929093169116179055610111565b80516001600160a01b03811681146100d957600080fd5b919050565b600080604083850312156100f157600080fd5b6100fa836100c2565b9150610108602084016100c2565b90509250929050565b6103f9806101206000396000f3fe608060405234801561001057600080fd5b50600436106100415760003560e01c8063372500ab14610046578063aca1198014610050578063b0272aa614610075575b600080fd5b61004e610088565b005b61006361005e366004610342565b610144565b60405190815260200160405180910390f35b61006361008336600461036b565b610233565b600054604051632d04087f60e21b81523360048201526001600160a01b039091169063b41021fc90602401600060405180830381600087803b1580156100cd57600080fd5b505af11580156100e1573d6000803e3d6000fd5b505060015460405163c902715560e01b81523360048201526001600160a01b03909116925063c90271559150602401600060405180830381600087803b15801561012a57600080fd5b505af115801561013e573d6000803e3d6000fd5b50505050565b6001546040516348dc4fdd60e11b81526001600160a01b03838116600483015260009261022d929116906391b89fba90602401602060405180830381865afa158015610194573d6000803e3d6000fd5b505050506040513d601f19601f820116820180604052508101906101b89190610384565b600054604051630159423360e71b81526001600160a01b0386811660048301529091169063aca11980906024015b602060405180830381865afa158015610203573d6000803e3d6000fd5b505050506040513d601f19601f820116820180604052508101906102279190610384565b906102d8565b92915050565b60015460405163fd88848f60e01b81526004810183905260009161022d916001600160a01b039091169063fd88848f90602401602060405180830381865afa158015610283573d6000803e3d6000fd5b505050506040513d601f19601f820116820180604052508101906102a79190610384565b600054604051632d9a5b3b60e21b8152600481018690526001600160a01b039091169063b6696cec906024016101e6565b6000806102e5838561039d565b90508381101561033b5760405162461bcd60e51b815260206004820152601b60248201527f536166654d6174683a206164646974696f6e206f766572666c6f770000000000604482015260640160405180910390fd5b9392505050565b60006020828403121561035457600080fd5b81356001600160a01b038116811461033b57600080fd5b60006020828403121561037d57600080fd5b5035919050565b60006020828403121561039657600080fd5b5051919050565b600082198211156103be57634e487b7160e01b600052601160045260246000fd5b50019056fea26469706673582212202bc89739ea5fe4c1af8fb820575199548707d05163efcb0cf8147bb87a400ad664736f6c634300080b0033",
  "linkReferences": {},
  "deployedLinkReferences": {}
}