{
  "_format": "hh-sol-artifact-1",
  "contractName": "StakedRewardUiDataProvider",
  "sourceName": "contracts/stake/StakedRewardUiDataProvider.sol",
  "abi": [
    {
      "inputs": [
        {
          "internalType": "address",
          "name": "_staked",
          "type": "address"
        },
        {
          "internalType": "address",
          "name": "_dividend",
          "type": "address"
        }
      ],
      "stateMutability": "nonpayable",
      "type": "constructor"
    },
    {
      "inputs": [],
      "name": "claimRewards",
      "outputs": [],
      "stateMutability": "nonpayable",
      "type": "function"
    },
    {
      "inputs": [
        {
          "internalType": "uint256",
          "name": "tokenId",
          "type": "uint256"
        }
      ],
      "name": "getUnClaimedRewardOfToken",
      "outputs": [
        {
          "internalType": "uint256",
          "name": "amount",
          "type": "uint256"
        }
      ],
      "stateMutability": "view",
      "type": "function"
    },
    {
      "inputs": [
        {
          "internalType": "address",
          "name": "user",
          "type": "address"
        }
      ],
      "name": "getUnClaimedRewards",
      "outputs": [
        {
          "internalType": "uint256",
          "name": "amount",
          "type": "uint256"
        }
      ],
      "stateMutability": "view",
      "type": "function"
    }
  ],
  "bytecode": "0x608060405234801561001057600080fd5b5060405161052038038061052083398101604081905261002f916100de565b6001600160a01b0382161580159061004f57506001600160a01b03811615155b6100915760405162461bcd60e51b815260206004820152600f60248201526e494e56414c49445f4144445245535360881b604482015260640160405180910390fd5b600080546001600160a01b039384166001600160a01b03199182161790915560018054929093169116179055610111565b80516001600160a01b03811681146100d957600080fd5b919050565b600080604083850312156100f157600080fd5b6100fa836100c2565b9150610108602084016100c2565b90509250929050565b610400806101206000396000f3fe608060405234801561001057600080fd5b50600436106100415760003560e01c8063372500ab14610046578063aca1198014610050578063b0272aa614610075575b600080fd5b61004e610088565b005b61006361005e366004610349565b61014b565b60405190815260200160405180910390f35b610063610083366004610372565b61023a565b600080546040805163372500ab60e01b815290516001600160a01b039092169263372500ab9260048084019382900301818387803b1580156100c957600080fd5b505af11580156100dd573d6000803e3d6000fd5b50505050600160009054906101000a90046001600160a01b03166001600160a01b0316636a4740026040518163ffffffff1660e01b8152600401600060405180830381600087803b15801561013157600080fd5b505af1158015610145573d6000803e3d6000fd5b50505050565b6001546040516348dc4fdd60e11b81526001600160a01b038381166004830152600092610234929116906391b89fba90602401602060405180830381865afa15801561019b573d6000803e3d6000fd5b505050506040513d601f19601f820116820180604052508101906101bf919061038b565b600054604051630159423360e71b81526001600160a01b0386811660048301529091169063aca11980906024015b602060405180830381865afa15801561020a573d6000803e3d6000fd5b505050506040513d601f19601f8201168201806040525081019061022e919061038b565b906102df565b92915050565b60015460405163fd88848f60e01b815260048101839052600091610234916001600160a01b039091169063fd88848f90602401602060405180830381865afa15801561028a573d6000803e3d6000fd5b505050506040513d601f19601f820116820180604052508101906102ae919061038b565b600054604051632d9a5b3b60e21b8152600481018690526001600160a01b039091169063b6696cec906024016101ed565b6000806102ec83856103a4565b9050838110156103425760405162461bcd60e51b815260206004820152601b60248201527f536166654d6174683a206164646974696f6e206f766572666c6f770000000000604482015260640160405180910390fd5b9392505050565b60006020828403121561035b57600080fd5b81356001600160a01b038116811461034257600080fd5b60006020828403121561038457600080fd5b5035919050565b60006020828403121561039d57600080fd5b5051919050565b600082198211156103c557634e487b7160e01b600052601160045260246000fd5b50019056fea2646970667358221220cdf755718c3b4100fc3470fd62f1d636e7d0f2e4fc17036939fce0ca252bb50164736f6c634300080b0033",
  "linkReferences": {},
  "deployedLinkReferences": {}
}