{
  "_format": "hh-sol-artifact-1",
  "contractName": "SoccerStarNftMarket",
  "sourceName": "contracts/market/SoccerStarNftMarket.sol",
  "abi": [
    {
      "anonymous": false,
      "inputs": [
        {
          "indexed": false,
          "internalType": "address",
          "name": "sender",
          "type": "address"
        },
        {
          "indexed": false,
          "internalType": "address",
          "name": "oldValue",
          "type": "address"
        },
        {
          "indexed": false,
          "internalType": "address",
          "name": "newValue",
          "type": "address"
        }
      ],
      "name": "BIBContractChanged",
      "type": "event"
    },
    {
      "anonymous": false,
      "inputs": [
        {
          "indexed": false,
          "internalType": "address",
          "name": "sender",
          "type": "address"
        },
        {
          "indexed": false,
          "internalType": "address",
          "name": "oldValue",
          "type": "address"
        },
        {
          "indexed": false,
          "internalType": "address",
          "name": "newValue",
          "type": "address"
        }
      ],
      "name": "BUSDContractChanged",
      "type": "event"
    },
    {
      "anonymous": false,
      "inputs": [
        {
          "indexed": false,
          "internalType": "address",
          "name": "sender",
          "type": "address"
        },
        {
          "indexed": false,
          "internalType": "uint256",
          "name": "offerId",
          "type": "uint256"
        }
      ],
      "name": "CancelOffer",
      "type": "event"
    },
    {
      "anonymous": false,
      "inputs": [
        {
          "indexed": false,
          "internalType": "address",
          "name": "sender",
          "type": "address"
        },
        {
          "indexed": false,
          "internalType": "uint256",
          "name": "orderId",
          "type": "uint256"
        }
      ],
      "name": "CloseOrder",
      "type": "event"
    },
    {
      "anonymous": false,
      "inputs": [
        {
          "indexed": false,
          "internalType": "address",
          "name": "sender",
          "type": "address"
        },
        {
          "indexed": false,
          "internalType": "address",
          "name": "oldValue",
          "type": "address"
        },
        {
          "indexed": false,
          "internalType": "address",
          "name": "newValue",
          "type": "address"
        }
      ],
      "name": "FeeCollectorChanged",
      "type": "event"
    },
    {
      "anonymous": false,
      "inputs": [
        {
          "indexed": false,
          "internalType": "address",
          "name": "sender",
          "type": "address"
        },
        {
          "indexed": false,
          "internalType": "uint256",
          "name": "oldValue",
          "type": "uint256"
        },
        {
          "indexed": false,
          "internalType": "uint256",
          "name": "newValue",
          "type": "uint256"
        }
      ],
      "name": "FeeRatioChanged",
      "type": "event"
    },
    {
      "anonymous": false,
      "inputs": [
        {
          "indexed": false,
          "internalType": "uint8",
          "name": "version",
          "type": "uint8"
        }
      ],
      "name": "Initialized",
      "type": "event"
    },
    {
      "anonymous": false,
      "inputs": [
        {
          "indexed": false,
          "internalType": "address",
          "name": "sender",
          "type": "address"
        },
        {
          "indexed": false,
          "internalType": "address",
          "name": "owner",
          "type": "address"
        },
        {
          "indexed": false,
          "internalType": "address",
          "name": "buyer",
          "type": "address"
        },
        {
          "indexed": false,
          "internalType": "address",
          "name": "issuer",
          "type": "address"
        },
        {
          "indexed": false,
          "internalType": "uint256",
          "name": "tokenId",
          "type": "uint256"
        },
        {
          "indexed": false,
          "internalType": "enum ISoccerStarNftMarket.PayMethod",
          "name": "payMethod",
          "type": "uint8"
        },
        {
          "indexed": false,
          "internalType": "uint256",
          "name": "price",
          "type": "uint256"
        },
        {
          "indexed": false,
          "internalType": "uint256",
          "name": "fee",
          "type": "uint256"
        }
      ],
      "name": "MakeDeal",
      "type": "event"
    },
    {
      "anonymous": false,
      "inputs": [
        {
          "indexed": false,
          "internalType": "address",
          "name": "sender",
          "type": "address"
        },
        {
          "indexed": false,
          "internalType": "address",
          "name": "issuer",
          "type": "address"
        },
        {
          "indexed": false,
          "internalType": "uint256",
          "name": "tokenId",
          "type": "uint256"
        },
        {
          "indexed": false,
          "internalType": "uint256",
          "name": "offerId",
          "type": "uint256"
        },
        {
          "indexed": false,
          "internalType": "enum ISoccerStarNftMarket.PayMethod",
          "name": "payMethod",
          "type": "uint8"
        },
        {
          "indexed": false,
          "internalType": "uint256",
          "name": "price",
          "type": "uint256"
        },
        {
          "indexed": false,
          "internalType": "uint256",
          "name": "mt",
          "type": "uint256"
        },
        {
          "indexed": false,
          "internalType": "uint256",
          "name": "expiration",
          "type": "uint256"
        }
      ],
      "name": "MakeOffer",
      "type": "event"
    },
    {
      "anonymous": false,
      "inputs": [
        {
          "indexed": false,
          "internalType": "address",
          "name": "sender",
          "type": "address"
        },
        {
          "indexed": false,
          "internalType": "address",
          "name": "issuer",
          "type": "address"
        },
        {
          "indexed": false,
          "internalType": "uint256",
          "name": "orderId",
          "type": "uint256"
        },
        {
          "indexed": false,
          "internalType": "uint256",
          "name": "tokenId",
          "type": "uint256"
        },
        {
          "indexed": false,
          "internalType": "enum ISoccerStarNftMarket.PayMethod",
          "name": "payMethod",
          "type": "uint8"
        },
        {
          "indexed": false,
          "internalType": "uint256",
          "name": "price",
          "type": "uint256"
        },
        {
          "indexed": false,
          "internalType": "uint256",
          "name": "mt",
          "type": "uint256"
        },
        {
          "indexed": false,
          "internalType": "uint256",
          "name": "expiration",
          "type": "uint256"
        }
      ],
      "name": "OpenOrder",
      "type": "event"
    },
    {
      "anonymous": false,
      "inputs": [
        {
          "indexed": true,
          "internalType": "address",
          "name": "previousOwner",
          "type": "address"
        },
        {
          "indexed": true,
          "internalType": "address",
          "name": "newOwner",
          "type": "address"
        }
      ],
      "name": "OwnershipTransferred",
      "type": "event"
    },
    {
      "anonymous": false,
      "inputs": [
        {
          "indexed": false,
          "internalType": "address",
          "name": "account",
          "type": "address"
        }
      ],
      "name": "Paused",
      "type": "event"
    },
    {
      "anonymous": false,
      "inputs": [
        {
          "indexed": false,
          "internalType": "address",
          "name": "sender",
          "type": "address"
        },
        {
          "indexed": false,
          "internalType": "uint256",
          "name": "oldValue",
          "type": "uint256"
        },
        {
          "indexed": false,
          "internalType": "uint256",
          "name": "newValue",
          "type": "uint256"
        }
      ],
      "name": "RoyaltyRatioChanged",
      "type": "event"
    },
    {
      "anonymous": false,
      "inputs": [
        {
          "indexed": false,
          "internalType": "address",
          "name": "sender",
          "type": "address"
        },
        {
          "indexed": false,
          "internalType": "address",
          "name": "oldValue",
          "type": "address"
        },
        {
          "indexed": false,
          "internalType": "address",
          "name": "newValue",
          "type": "address"
        }
      ],
      "name": "TokenContractChanged",
      "type": "event"
    },
    {
      "anonymous": false,
      "inputs": [
        {
          "indexed": false,
          "internalType": "address",
          "name": "account",
          "type": "address"
        }
      ],
      "name": "Unpaused",
      "type": "event"
    },
    {
      "anonymous": false,
      "inputs": [
        {
          "indexed": false,
          "internalType": "address",
          "name": "sender",
          "type": "address"
        },
        {
          "indexed": false,
          "internalType": "address",
          "name": "issuer",
          "type": "address"
        },
        {
          "indexed": false,
          "internalType": "uint256",
          "name": "tokenId",
          "type": "uint256"
        },
        {
          "indexed": false,
          "internalType": "uint256",
          "name": "offerId",
          "type": "uint256"
        },
        {
          "indexed": false,
          "internalType": "enum ISoccerStarNftMarket.PayMethod",
          "name": "payMethod",
          "type": "uint8"
        },
        {
          "indexed": false,
          "internalType": "uint256",
          "name": "price",
          "type": "uint256"
        },
        {
          "indexed": false,
          "internalType": "uint256",
          "name": "mt",
          "type": "uint256"
        },
        {
          "indexed": false,
          "internalType": "uint256",
          "name": "expiration",
          "type": "uint256"
        }
      ],
      "name": "UpdateOffer",
      "type": "event"
    },
    {
      "anonymous": false,
      "inputs": [
        {
          "indexed": false,
          "internalType": "address",
          "name": "sender",
          "type": "address"
        },
        {
          "indexed": false,
          "internalType": "uint256",
          "name": "offerId",
          "type": "uint256"
        },
        {
          "indexed": false,
          "internalType": "uint256",
          "name": "oldPrice",
          "type": "uint256"
        },
        {
          "indexed": false,
          "internalType": "uint256",
          "name": "newPrice",
          "type": "uint256"
        }
      ],
      "name": "UpdateOfferPrice",
      "type": "event"
    },
    {
      "anonymous": false,
      "inputs": [
        {
          "indexed": false,
          "internalType": "address",
          "name": "sender",
          "type": "address"
        },
        {
          "indexed": false,
          "internalType": "address",
          "name": "issuer",
          "type": "address"
        },
        {
          "indexed": false,
          "internalType": "uint256",
          "name": "orderId",
          "type": "uint256"
        },
        {
          "indexed": false,
          "internalType": "uint256",
          "name": "tokenId",
          "type": "uint256"
        },
        {
          "indexed": false,
          "internalType": "enum ISoccerStarNftMarket.PayMethod",
          "name": "payMethod",
          "type": "uint8"
        },
        {
          "indexed": false,
          "internalType": "uint256",
          "name": "price",
          "type": "uint256"
        },
        {
          "indexed": false,
          "internalType": "uint256",
          "name": "mt",
          "type": "uint256"
        },
        {
          "indexed": false,
          "internalType": "uint256",
          "name": "expiration",
          "type": "uint256"
        }
      ],
      "name": "UpdateOrder",
      "type": "event"
    },
    {
      "anonymous": false,
      "inputs": [
        {
          "indexed": false,
          "internalType": "address",
          "name": "sender",
          "type": "address"
        },
        {
          "indexed": false,
          "internalType": "uint256",
          "name": "orderId",
          "type": "uint256"
        },
        {
          "indexed": false,
          "internalType": "uint256",
          "name": "oldPrice",
          "type": "uint256"
        },
        {
          "indexed": false,
          "internalType": "uint256",
          "name": "newPrice",
          "type": "uint256"
        }
      ],
      "name": "UpdateOrderPrice",
      "type": "event"
    },
    {
      "inputs": [],
      "name": "FEE_RATIO_DIV",
      "outputs": [
        {
          "internalType": "uint256",
          "name": "",
          "type": "uint256"
        }
      ],
      "stateMutability": "view",
      "type": "function"
    },
    {
      "inputs": [
        {
          "internalType": "uint256",
          "name": "offerId",
          "type": "uint256"
        }
      ],
      "name": "acceptOffer",
      "outputs": [],
      "stateMutability": "payable",
      "type": "function"
    },
    {
      "inputs": [
        {
          "internalType": "uint256",
          "name": "orderId",
          "type": "uint256"
        }
      ],
      "name": "acceptOrder",
      "outputs": [],
      "stateMutability": "payable",
      "type": "function"
    },
    {
      "inputs": [],
      "name": "bibContract",
      "outputs": [
        {
          "internalType": "contract IERC20",
          "name": "",
          "type": "address"
        }
      ],
      "stateMutability": "view",
      "type": "function"
    },
    {
      "inputs": [],
      "name": "busdContract",
      "outputs": [
        {
          "internalType": "contract IERC20",
          "name": "",
          "type": "address"
        }
      ],
      "stateMutability": "view",
      "type": "function"
    },
    {
      "inputs": [
        {
          "internalType": "uint256",
          "name": "amount",
          "type": "uint256"
        }
      ],
      "name": "caculateFees",
      "outputs": [
        {
          "internalType": "uint256",
          "name": "",
          "type": "uint256"
        },
        {
          "internalType": "uint256",
          "name": "",
          "type": "uint256"
        }
      ],
      "stateMutability": "view",
      "type": "function"
    },
    {
      "inputs": [
        {
          "internalType": "address",
          "name": "issuer",
          "type": "address"
        }
      ],
      "name": "cancelAllOffersByIssuer",
      "outputs": [],
      "stateMutability": "nonpayable",
      "type": "function"
    },
    {
      "inputs": [
        {
          "internalType": "uint256",
          "name": "offerId",
          "type": "uint256"
        }
      ],
      "name": "cancelOffer",
      "outputs": [],
      "stateMutability": "nonpayable",
      "type": "function"
    },
    {
      "inputs": [
        {
          "internalType": "uint256",
          "name": "orderId",
          "type": "uint256"
        }
      ],
      "name": "closeOrder",
      "outputs": [],
      "stateMutability": "nonpayable",
      "type": "function"
    },
    {
      "inputs": [],
      "name": "feeCollector",
      "outputs": [
        {
          "internalType": "contract IFeeCollector",
          "name": "",
          "type": "address"
        }
      ],
      "stateMutability": "view",
      "type": "function"
    },
    {
      "inputs": [],
      "name": "feeRatio",
      "outputs": [
        {
          "internalType": "uint256",
          "name": "",
          "type": "uint256"
        }
      ],
      "stateMutability": "view",
      "type": "function"
    },
    {
      "inputs": [],
      "name": "getBlockTime",
      "outputs": [
        {
          "internalType": "uint256",
          "name": "",
          "type": "uint256"
        }
      ],
      "stateMutability": "view",
      "type": "function"
    },
    {
      "inputs": [
        {
          "internalType": "address",
          "name": "issuer",
          "type": "address"
        },
        {
          "internalType": "uint256",
          "name": "tokenId",
          "type": "uint256"
        },
        {
          "internalType": "address",
          "name": "user",
          "type": "address"
        }
      ],
      "name": "getOffer",
      "outputs": [
        {
          "internalType": "bool",
          "name": "",
          "type": "bool"
        },
        {
          "components": [
            {
              "internalType": "uint256",
              "name": "offerId",
              "type": "uint256"
            },
            {
              "internalType": "address",
              "name": "issuer",
              "type": "address"
            },
            {
              "internalType": "uint256",
              "name": "tokenId",
              "type": "uint256"
            },
            {
              "internalType": "address",
              "name": "buyer",
              "type": "address"
            },
            {
              "internalType": "enum ISoccerStarNftMarket.PayMethod",
              "name": "payMethod",
              "type": "uint8"
            },
            {
              "internalType": "uint256",
              "name": "bid",
              "type": "uint256"
            },
            {
              "internalType": "uint256",
              "name": "mt",
              "type": "uint256"
            },
            {
              "internalType": "uint256",
              "name": "expiration",
              "type": "uint256"
            }
          ],
          "internalType": "struct ISoccerStarNftMarket.Offer",
          "name": "",
          "type": "tuple"
        }
      ],
      "stateMutability": "view",
      "type": "function"
    },
    {
      "inputs": [
        {
          "internalType": "address",
          "name": "issuer",
          "type": "address"
        },
        {
          "internalType": "uint256",
          "name": "tokenId",
          "type": "uint256"
        }
      ],
      "name": "getOrder",
      "outputs": [
        {
          "components": [
            {
              "internalType": "uint256",
              "name": "orderId",
              "type": "uint256"
            },
            {
              "internalType": "address",
              "name": "issuer",
              "type": "address"
            },
            {
              "internalType": "uint256",
              "name": "tokenId",
              "type": "uint256"
            },
            {
              "internalType": "address",
              "name": "owner",
              "type": "address"
            },
            {
              "internalType": "enum ISoccerStarNftMarket.PayMethod",
              "name": "payMethod",
              "type": "uint8"
            },
            {
              "internalType": "uint256",
              "name": "mt",
              "type": "uint256"
            },
            {
              "internalType": "uint256",
              "name": "price",
              "type": "uint256"
            },
            {
              "internalType": "uint256",
              "name": "expiration",
              "type": "uint256"
            }
          ],
          "internalType": "struct ISoccerStarNftMarket.Order",
          "name": "",
          "type": "tuple"
        }
      ],
      "stateMutability": "view",
      "type": "function"
    },
    {
      "inputs": [
        {
          "internalType": "address",
          "name": "user",
          "type": "address"
        },
        {
          "internalType": "uint256",
          "name": "pageSt",
          "type": "uint256"
        },
        {
          "internalType": "uint256",
          "name": "pageSz",
          "type": "uint256"
        }
      ],
      "name": "getUserOrdersByPage",
      "outputs": [
        {
          "components": [
            {
              "internalType": "uint256",
              "name": "orderId",
              "type": "uint256"
            },
            {
              "internalType": "address",
              "name": "issuer",
              "type": "address"
            },
            {
              "internalType": "uint256",
              "name": "tokenId",
              "type": "uint256"
            },
            {
              "internalType": "address",
              "name": "owner",
              "type": "address"
            },
            {
              "internalType": "enum ISoccerStarNftMarket.PayMethod",
              "name": "payMethod",
              "type": "uint8"
            },
            {
              "internalType": "uint256",
              "name": "mt",
              "type": "uint256"
            },
            {
              "internalType": "uint256",
              "name": "price",
              "type": "uint256"
            },
            {
              "internalType": "uint256",
              "name": "expiration",
              "type": "uint256"
            }
          ],
          "internalType": "struct ISoccerStarNftMarket.Order[]",
          "name": "",
          "type": "tuple[]"
        }
      ],
      "stateMutability": "view",
      "type": "function"
    },
    {
      "inputs": [
        {
          "internalType": "address",
          "name": "issuer",
          "type": "address"
        },
        {
          "internalType": "uint256",
          "name": "tokenId",
          "type": "uint256"
        },
        {
          "internalType": "address",
          "name": "user",
          "type": "address"
        }
      ],
      "name": "hasOffer",
      "outputs": [
        {
          "internalType": "bool",
          "name": "",
          "type": "bool"
        }
      ],
      "stateMutability": "view",
      "type": "function"
    },
    {
      "inputs": [
        {
          "internalType": "address",
          "name": "issuer",
          "type": "address"
        },
        {
          "internalType": "uint256",
          "name": "tokenId",
          "type": "uint256"
        }
      ],
      "name": "hasOrder",
      "outputs": [
        {
          "internalType": "bool",
          "name": "",
          "type": "bool"
        }
      ],
      "stateMutability": "view",
      "type": "function"
    },
    {
      "inputs": [
        {
          "internalType": "address",
          "name": "_tokenContract",
          "type": "address"
        },
        {
          "internalType": "address",
          "name": "_bibContract",
          "type": "address"
        },
        {
          "internalType": "address",
          "name": "_busdContract",
          "type": "address"
        },
        {
          "internalType": "address",
          "name": "_treasury",
          "type": "address"
        }
      ],
      "name": "initialize",
      "outputs": [],
      "stateMutability": "nonpayable",
      "type": "function"
    },
    {
      "inputs": [
        {
          "internalType": "address",
          "name": "issuer",
          "type": "address"
        },
        {
          "internalType": "uint256",
          "name": "tokenId",
          "type": "uint256"
        },
        {
          "internalType": "address",
          "name": "owner",
          "type": "address"
        }
      ],
      "name": "isOriginOwner",
      "outputs": [
        {
          "internalType": "bool",
          "name": "",
          "type": "bool"
        }
      ],
      "stateMutability": "view",
      "type": "function"
    },
    {
      "inputs": [
        {
          "internalType": "address",
          "name": "issuer",
          "type": "address"
        },
        {
          "internalType": "uint256",
          "name": "tokenId",
          "type": "uint256"
        },
        {
          "internalType": "enum ISoccerStarNftMarket.PayMethod",
          "name": "payMethod",
          "type": "uint8"
        },
        {
          "internalType": "uint256",
          "name": "price",
          "type": "uint256"
        },
        {
          "internalType": "uint256",
          "name": "expiration",
          "type": "uint256"
        }
      ],
      "name": "makeOffer",
      "outputs": [],
      "stateMutability": "payable",
      "type": "function"
    },
    {
      "inputs": [],
      "name": "nextOfferIndex",
      "outputs": [
        {
          "internalType": "uint256",
          "name": "",
          "type": "uint256"
        }
      ],
      "stateMutability": "view",
      "type": "function"
    },
    {
      "inputs": [],
      "name": "nextOrderIndex",
      "outputs": [
        {
          "internalType": "uint256",
          "name": "",
          "type": "uint256"
        }
      ],
      "stateMutability": "view",
      "type": "function"
    },
    {
      "inputs": [
        {
          "internalType": "uint256",
          "name": "",
          "type": "uint256"
        }
      ],
      "name": "offerTb",
      "outputs": [
        {
          "internalType": "uint256",
          "name": "offerId",
          "type": "uint256"
        },
        {
          "internalType": "address",
          "name": "issuer",
          "type": "address"
        },
        {
          "internalType": "uint256",
          "name": "tokenId",
          "type": "uint256"
        },
        {
          "internalType": "address",
          "name": "buyer",
          "type": "address"
        },
        {
          "internalType": "enum ISoccerStarNftMarket.PayMethod",
          "name": "payMethod",
          "type": "uint8"
        },
        {
          "internalType": "uint256",
          "name": "bid",
          "type": "uint256"
        },
        {
          "internalType": "uint256",
          "name": "mt",
          "type": "uint256"
        },
        {
          "internalType": "uint256",
          "name": "expiration",
          "type": "uint256"
        }
      ],
      "stateMutability": "view",
      "type": "function"
    },
    {
      "inputs": [
        {
          "internalType": "address",
          "name": "issuer",
          "type": "address"
        },
        {
          "internalType": "uint256",
          "name": "tokenId",
          "type": "uint256"
        },
        {
          "internalType": "enum ISoccerStarNftMarket.PayMethod",
          "name": "payMethod",
          "type": "uint8"
        },
        {
          "internalType": "uint256",
          "name": "price",
          "type": "uint256"
        },
        {
          "internalType": "uint256",
          "name": "expiration",
          "type": "uint256"
        }
      ],
      "name": "openOrder",
      "outputs": [],
      "stateMutability": "payable",
      "type": "function"
    },
    {
      "inputs": [
        {
          "internalType": "uint256",
          "name": "",
          "type": "uint256"
        }
      ],
      "name": "orderTb",
      "outputs": [
        {
          "internalType": "uint256",
          "name": "orderId",
          "type": "uint256"
        },
        {
          "internalType": "address",
          "name": "issuer",
          "type": "address"
        },
        {
          "internalType": "uint256",
          "name": "tokenId",
          "type": "uint256"
        },
        {
          "internalType": "address",
          "name": "owner",
          "type": "address"
        },
        {
          "internalType": "enum ISoccerStarNftMarket.PayMethod",
          "name": "payMethod",
          "type": "uint8"
        },
        {
          "internalType": "uint256",
          "name": "mt",
          "type": "uint256"
        },
        {
          "internalType": "uint256",
          "name": "price",
          "type": "uint256"
        },
        {
          "internalType": "uint256",
          "name": "expiration",
          "type": "uint256"
        }
      ],
      "stateMutability": "view",
      "type": "function"
    },
    {
      "inputs": [],
      "name": "owner",
      "outputs": [
        {
          "internalType": "address",
          "name": "",
          "type": "address"
        }
      ],
      "stateMutability": "view",
      "type": "function"
    },
    {
      "inputs": [],
      "name": "paused",
      "outputs": [
        {
          "internalType": "bool",
          "name": "",
          "type": "bool"
        }
      ],
      "stateMutability": "view",
      "type": "function"
    },
    {
      "inputs": [],
      "name": "renounceOwnership",
      "outputs": [],
      "stateMutability": "nonpayable",
      "type": "function"
    },
    {
      "inputs": [],
      "name": "royaltyRatio",
      "outputs": [
        {
          "internalType": "uint256",
          "name": "",
          "type": "uint256"
        }
      ],
      "stateMutability": "view",
      "type": "function"
    },
    {
      "inputs": [
        {
          "internalType": "address",
          "name": "_bibContract",
          "type": "address"
        }
      ],
      "name": "setBIBContract",
      "outputs": [],
      "stateMutability": "nonpayable",
      "type": "function"
    },
    {
      "inputs": [
        {
          "internalType": "address",
          "name": "_busdContract",
          "type": "address"
        }
      ],
      "name": "setBUSDContract",
      "outputs": [],
      "stateMutability": "nonpayable",
      "type": "function"
    },
    {
      "inputs": [
        {
          "internalType": "address",
          "name": "_feeCollector",
          "type": "address"
        }
      ],
      "name": "setFeeCollector",
      "outputs": [],
      "stateMutability": "nonpayable",
      "type": "function"
    },
    {
      "inputs": [
        {
          "internalType": "uint256",
          "name": "_feeRatio",
          "type": "uint256"
        }
      ],
      "name": "setFeeRatio",
      "outputs": [],
      "stateMutability": "nonpayable",
      "type": "function"
    },
    {
      "inputs": [
        {
          "internalType": "uint256",
          "name": "_royaltyRatio",
          "type": "uint256"
        }
      ],
      "name": "setRoyaltyRatio",
      "outputs": [],
      "stateMutability": "nonpayable",
      "type": "function"
    },
    {
      "inputs": [
        {
          "internalType": "address",
          "name": "_tokenContract",
          "type": "address"
        }
      ],
      "name": "setTokenContract",
      "outputs": [],
      "stateMutability": "nonpayable",
      "type": "function"
    },
    {
      "inputs": [],
      "name": "tokenContract",
      "outputs": [
        {
          "internalType": "contract ISoccerStarNft",
          "name": "",
          "type": "address"
        }
      ],
      "stateMutability": "view",
      "type": "function"
    },
    {
      "inputs": [
        {
          "internalType": "address",
          "name": "",
          "type": "address"
        },
        {
          "internalType": "uint256",
          "name": "",
          "type": "uint256"
        },
        {
          "internalType": "uint256",
          "name": "",
          "type": "uint256"
        }
      ],
      "name": "tokenOffersTb",
      "outputs": [
        {
          "internalType": "uint256",
          "name": "",
          "type": "uint256"
        }
      ],
      "stateMutability": "view",
      "type": "function"
    },
    {
      "inputs": [
        {
          "internalType": "address",
          "name": "",
          "type": "address"
        },
        {
          "internalType": "uint256",
          "name": "",
          "type": "uint256"
        }
      ],
      "name": "tokenOrderTb",
      "outputs": [
        {
          "internalType": "uint256",
          "name": "",
          "type": "uint256"
        }
      ],
      "stateMutability": "view",
      "type": "function"
    },
    {
      "inputs": [
        {
          "internalType": "address",
          "name": "newOwner",
          "type": "address"
        }
      ],
      "name": "transferOwnership",
      "outputs": [],
      "stateMutability": "nonpayable",
      "type": "function"
    },
    {
      "inputs": [],
      "name": "treasury",
      "outputs": [
        {
          "internalType": "address",
          "name": "",
          "type": "address"
        }
      ],
      "stateMutability": "view",
      "type": "function"
    },
    {
      "inputs": [
        {
          "internalType": "uint256",
          "name": "offerId",
          "type": "uint256"
        },
        {
          "internalType": "enum ISoccerStarNftMarket.PayMethod",
          "name": "payMethod",
          "type": "uint8"
        },
        {
          "internalType": "uint256",
          "name": "price",
          "type": "uint256"
        },
        {
          "internalType": "uint256",
          "name": "expiration",
          "type": "uint256"
        }
      ],
      "name": "updateOffer",
      "outputs": [],
      "stateMutability": "payable",
      "type": "function"
    },
    {
      "inputs": [
        {
          "internalType": "uint256",
          "name": "offerId",
          "type": "uint256"
        },
        {
          "internalType": "uint256",
          "name": "price",
          "type": "uint256"
        }
      ],
      "name": "updateOfferPrice",
      "outputs": [],
      "stateMutability": "payable",
      "type": "function"
    },
    {
      "inputs": [
        {
          "internalType": "uint256",
          "name": "orderId",
          "type": "uint256"
        },
        {
          "internalType": "enum ISoccerStarNftMarket.PayMethod",
          "name": "payMethod",
          "type": "uint8"
        },
        {
          "internalType": "uint256",
          "name": "price",
          "type": "uint256"
        },
        {
          "internalType": "uint256",
          "name": "expiration",
          "type": "uint256"
        }
      ],
      "name": "updateOrder",
      "outputs": [],
      "stateMutability": "payable",
      "type": "function"
    },
    {
      "inputs": [
        {
          "internalType": "uint256",
          "name": "orderId",
          "type": "uint256"
        },
        {
          "internalType": "uint256",
          "name": "price",
          "type": "uint256"
        }
      ],
      "name": "updateOrderPrice",
      "outputs": [],
      "stateMutability": "payable",
      "type": "function"
    },
    {
      "inputs": [
        {
          "internalType": "address",
          "name": "",
          "type": "address"
        },
        {
          "internalType": "uint256",
          "name": "",
          "type": "uint256"
        }
      ],
      "name": "userOffersTb",
      "outputs": [
        {
          "internalType": "uint256",
          "name": "",
          "type": "uint256"
        }
      ],
      "stateMutability": "view",
      "type": "function"
    },
    {
      "inputs": [
        {
          "internalType": "address",
          "name": "",
          "type": "address"
        },
        {
          "internalType": "uint256",
          "name": "",
          "type": "uint256"
        }
      ],
      "name": "userOrdersTb",
      "outputs": [
        {
          "internalType": "uint256",
          "name": "",
          "type": "uint256"
        }
      ],
      "stateMutability": "view",
      "type": "function"
    }
  ],
  "bytecode": "0x608060405234801561001057600080fd5b506149be806100206000396000f3fe60806040526004361061027d5760003560e01c80638ffef6641161014f578063c3b3595d116100c1578063e217f6741161007a578063e217f67414610804578063edb2584114610824578063ef18e9ed14610851578063ef706adf14610864578063f2fde38b14610884578063f8c8765e146108a457600080fd5b8063c3b3595d1461075e578063c415b95c14610771578063c815729d14610791578063cf9d101c146107a4578063d7895715146107c4578063df4858b9146107e457600080fd5b8063a8b016ff11610113578063a8b016ff146105e4578063ac54ed9a14610664578063b661c3751461069c578063b855902f146106bc578063bb8951b614610728578063bbcd5bbe1461073e57600080fd5b80638ffef66414610541578063978f8bf8146105615780639b81743e14610577578063a42dce80146105a4578063a76de94c146105c457600080fd5b806355a373d6116101f357806369eca585116101ac57806369eca585146104a85780636f6c7134146104c8578063715018a6146104e8578063868727fd146104fd57806387ceff09146105105780638da5cb5b1461052357600080fd5b806355a373d6146103dc5780635c975abb146103fc5780635e9e78d01461042057806360bbcfbc1461043357806361d027b314610453578063690b23f31461047357600080fd5b80632b4382d1116102455780632b4382d1146103575780632d286ca41461036a57806341744dd41461037d578063423ee7091461039357806344596445146103a657806352419147146103bc57600080fd5b80630168033a14610282578063069d6d1c146102b957806310cc6bb9146102db57806319f4ff2f146103135780631f9082d114610333575b600080fd5b34801561028e57600080fd5b506102a261029d36600461427f565b6108c4565b6040516102b092919061435e565b60405180910390f35b3480156102c557600080fd5b506102d96102d4366004614375565b610a52565b005b3480156102e757600080fd5b506098546102fb906001600160a01b031681565b6040516001600160a01b0390911681526020016102b0565b34801561031f57600080fd5b506102d961032e366004614375565b610b47565b34801561033f57600080fd5b506103496103e881565b6040519081526020016102b0565b6102d961036536600461438e565b610bda565b6102d96103783660046143c4565b610d7b565b34801561038957600080fd5b50610349609e5481565b6102d96103a1366004614414565b6110f4565b3480156103b257600080fd5b50610349609f5481565b3480156103c857600080fd5b506102d96103d736600461444f565b611348565b3480156103e857600080fd5b50609a546102fb906001600160a01b031681565b34801561040857600080fd5b5060655460ff165b60405190151581526020016102b0565b6102d961042e36600461438e565b6113df565b34801561043f57600080fd5b5061041061044e36600461427f565b61152d565b34801561045f57600080fd5b506097546102fb906001600160a01b031681565b34801561047f57600080fd5b5061049361048e366004614375565b611595565b604080519283526020830191909152016102b0565b3480156104b457600080fd5b506103496104c336600461446c565b6115dd565b3480156104d457600080fd5b506103496104e33660046144a1565b61161b565b3480156104f457600080fd5b506102d961164c565b6102d961050b366004614414565b611660565b34801561051c57600080fd5b5042610349565b34801561052f57600080fd5b506033546001600160a01b03166102fb565b34801561054d57600080fd5b5061041061055c3660046144a1565b6117bb565b34801561056d57600080fd5b50610349609c5481565b34801561058357600080fd5b5061059761059236600461446c565b6117e8565b6040516102b091906144cd565b3480156105b057600080fd5b506102d96105bf36600461444f565b6119ac565b3480156105d057600080fd5b506104106105df36600461427f565b611a43565b3480156105f057600080fd5b506106506105ff366004614375565b60a360205260009081526040902080546001820154600283015460038401546004850154600586015460069096015494956001600160a01b03948516959394831693600160a01b90930460ff169288565b6040516102b098979695949392919061451c565b34801561067057600080fd5b5061034961067f3660046144a1565b60a160209081526000928352604080842090915290825290205481565b3480156106a857600080fd5b506102d96106b7366004614375565b611ae8565b3480156106c857600080fd5b506106506106d7366004614375565b60a060205260009081526040902080546001820154600283015460038401546004850154600586015460069096015494956001600160a01b03948516959394831693600160a01b90930460ff169288565b34801561073457600080fd5b50610349609d5481565b34801561074a57600080fd5b506102d961075936600461444f565b611b83565b6102d961076c3660046143c4565b611c1a565b34801561077d57600080fd5b50609b546102fb906001600160a01b031681565b6102d961079f366004614375565b611f2f565b3480156107b057600080fd5b506099546102fb906001600160a01b031681565b3480156107d057600080fd5b506102d96107df36600461444f565b6124de565b3480156107f057600080fd5b506103496107ff3660046144a1565b6127a7565b34801561081057600080fd5b506102d961081f36600461444f565b6127c3565b34801561083057600080fd5b5061084461083f3660046144a1565b61285a565b6040516102b0919061456e565b6102d961085f366004614375565b612923565b34801561087057600080fd5b506102d961087f366004614375565b612e00565b34801561089057600080fd5b506102d961089f36600461444f565b612fdf565b3480156108b057600080fd5b506102d96108bf36600461457d565b613058565b60006108ce614225565b6108d6614225565b6001600160a01b038616600090815260a4602090815260408083208884529091528120905b8154811015610a4057856001600160a01b031660a36000848481548110610924576109246145d9565b600091825260208083209091015483528201929092526040019020600301546001600160a01b03161415610a2e57600160a3600084848154811061096a5761096a6145d9565b600091825260208083209190910154835282810193909352604091820190208151610100810183528154815260018201546001600160a01b039081169482019490945260028083015493820193909352600382015493841660608201529092909183916080840191600160a01b90910460ff16908111156109ed576109ed6142c1565b60028111156109fe576109fe6142c1565b81526020016004820154815260200160058201548152602001600682015481525050905094509450505050610a4a565b80610a3881614605565b9150506108fb565b5060009350909150505b935093915050565b610a5a61319d565b600081815260a06020526040902060018101546001600160a01b0316610a9b5760405162461bcd60e51b8152600401610a9290614620565b60405180910390fd5b60038101546001600160a01b03163314610ac75760405162461bcd60e51b8152600401610a9290614647565b6001810154600382015460028301546040516323b872dd60e01b81526001600160a01b03938416936323b872dd93610b089330939290911691600401614676565b600060405180830381600087803b158015610b2257600080fd5b505af1158015610b36573d6000803e3d6000fd5b50505050610b43826131e3565b5050565b610b4f6133be565b6103e8811115610b915760405162461bcd60e51b815260206004820152600d60248201526c494e56414c49445f524154494f60981b6044820152606401610a92565b609e5460408051338152602081019290925281018290527f93028a0c57bb808eee7eb9f7e15084346cae24916f69252ea4c36cfdcb9f5de19060600160405180910390a1609e55565b610be261319d565b600082815260a36020526040902060038101546001600160a01b03163314610c1c5760405162461bcd60e51b8152600401610a929061469a565b42816006015411610c5f5760405162461bcd60e51b815260206004820152600d60248201526c13d191915497d1561412549151609a1b6044820152606401610a92565b60008211610c7f5760405162461bcd60e51b8152600401610a92906146c9565b60408051610100810182528254815260018301546001600160a01b0390811660208301526002808501549383019390935260038401549081166060830152610d1c9284916080840191600160a01b90910460ff1690811115610ce357610ce36142c1565b6002811115610cf457610cf46142c1565b8152602001600482015481526020016005820154815260200160068201548152505083613418565b80546004820154604080513381526020810193909352820152606081018390527f56cfae79da87be8793aa103e2b0510863a7ff19a8b4a29af2ef589580b87e8f39060800160405180910390a160048101919091554260059091015550565b610d8361319d565b6001600160a01b038516610dca5760405162461bcd60e51b815260206004820152600e60248201526d494e56414c49445f49535355524560901b6044820152606401610a92565b428111610e105760405162461bcd60e51b8152602060048201526014602482015273115614125490551253d397d513d3d7d4d350531360621b6044820152606401610a92565b60008211610e305760405162461bcd60e51b8152600401610a92906146c9565b610e3b858533613661565b610e875760405162461bcd60e51b815260206004820152601b60248201527f544f4b454e5f4e4f545f42454c4c4f4e475f544f5f53454e44455200000000006044820152606401610a92565b6040516323b872dd60e01b81526001600160a01b038616906323b872dd90610eb790339030908990600401614676565b600060405180830381600087803b158015610ed157600080fd5b505af1158015610ee5573d6000803e3d6000fd5b50505050610ef4858530613661565b610f385760405162461bcd60e51b815260206004820152601560248201527422a9219b9918afa320a622a22faa2920a729a322a960591b6044820152606401610a92565b6000604051806101000160405280609c6000815480929190610f5990614605565b9091555081526001600160a01b038816602082015260408101879052336060820152608001856002811115610f9057610f906142c1565b815242602080830191909152604080830187905260609283018690528351600090815260a0835281902084518155918401516001830180546001600160a01b03199081166001600160a01b0393841617909155918501516002808501919091559385015160038401805493841691909216908117825560808601519596508695939491926001600160a81b0319161790600160a01b908490811115611037576110376142c1565b021790555060a082810151600483015560c0830151600583015560e09092015160069091015581516001600160a01b038816600090815260a1602090815260408083208a84528252808320939093553380835260a2825283832086518154600181018355918552929093209092015583519284015191517f65bb2aa85cdce53aad2c957d49a05b316b3fd7f2df8a168b528be35035f6e9c2936110e4938b928b918b918b91908b906146f5565b60405180910390a1505050505050565b600084815260a36020526040902060038101546001600160a01b0316331461112e5760405162461bcd60e51b8152600401610a929061469a565b4282116111745760405162461bcd60e51b815260206004820152601460248201527345585049524154494f4e5f544f4f5f4541524c5960601b6044820152606401610a92565b600083116111945760405162461bcd60e51b8152600401610a92906146c9565b6003810154600160a01b900460ff1660028111156111b4576111b46142c1565b8460028111156111c6576111c66142c1565b141561126e5760408051610100810182528254815260018301546001600160a01b03908116602083015260028085015493830193909352600384015490811660608301526112699284916080840191600160a01b90910460ff1690811115611230576112306142c1565b6002811115611241576112416142c1565b8152602001600482015481526020016005820154815260200160068201548152505084613418565b611296565b6003810154600482015461128c91600160a01b900460ff16906136ea565b61129684846137f6565b60038101805485919060ff60a01b1916600160a01b8360028111156112bd576112bd6142c1565b02179055506004810183905560068101829055426005820181905560018201546002830154835460038501546040517f949b34d71d6020a1857ffaa4a826b1a44408c3ed81d3e2280e5ea93a66e11558956113399533956001600160a01b039091169490939092600160a01b90910460ff16918b918b906146f5565b60405180910390a15050505050565b6113506133be565b6001600160a01b0381166113765760405162461bcd60e51b8152600401610a9290614729565b6099546040517f6aca743edeb4e0ea2946d2ebfd5a2328eca6b0f0250566cf6003c1724aef3377916113b59133916001600160a01b0316908590614752565b60405180910390a1609980546001600160a01b0319166001600160a01b0392909216919091179055565b6113e761319d565b600082815260a06020526040902060018101546001600160a01b031661141f5760405162461bcd60e51b8152600401610a9290614620565b60038101546001600160a01b0316331461144b5760405162461bcd60e51b8152600401610a9290614647565b4281600601541161148e5760405162461bcd60e51b815260206004820152600d60248201526c13d491115497d1561412549151609a1b6044820152606401610a92565b600082116114cf5760405162461bcd60e51b815260206004820152600e60248201526d50524943455f4c54455f5a45524f60901b6044820152606401610a92565b600581015460408051338152602081018690528082019290925260608201849052517f80bfb1c2c88c39acd1902f520205cd407abd405310c1a96e5b7fa2dbec270b4e9181900360800190a160058101919091554260049091015550565b600061153a848484613661565b61158a57600061154a858561285a565b60608101519091506001600160a01b031661156957600091505061158e565b826001600160a01b031681606001516001600160a01b03161491505061158e565b5060015b9392505050565b6000806115b96103e86115b3609e54866138f090919063ffffffff16565b9061396f565b6115d46103e86115b3609f54876138f090919063ffffffff16565b91509150915091565b60a4602052826000526040600020602052816000526040600020818154811061160557600080fd5b9060005260206000200160009250925050505481565b60a2602052816000526040600020818154811061163757600080fd5b90600052602060002001600091509150505481565b6116546133be565b61165e60006139b1565b565b61166861319d565b600084815260a060205260409020826116b45760405162461bcd60e51b815260206004820152600e60248201526d50524943455f4c54455f5a45524f60901b6044820152606401610a92565b60038101546001600160a01b031633146116e05760405162461bcd60e51b8152600401610a9290614647565b4282116117265760405162461bcd60e51b815260206004820152601460248201527345585049524154494f4e5f544f4f5f4541524c5960601b6044820152606401610a92565b60038101805485919060ff60a01b1916600160a01b83600281111561174d5761174d6142c1565b0217905550600581018390556006810182905542600482018190556001820154825460028401546040517f07658f64da4605ddec85f37a3e778b7e462e06f2b19171c79ebcaa73a2ff6b93946113399433946001600160a01b0390911693909290918b918b91908b906146f5565b6001600160a01b038216600090815260a16020908152604080832084845290915290205415155b92915050565b6001600160a01b038316600090815260a26020526040902080546060919082908510156119a357600061181b8587614775565b8354909150811161182c578061182f565b82545b905061183b868261478d565b67ffffffffffffffff811115611853576118536147a4565b60405190808252806020026020018201604052801561188c57816020015b611879614225565b8152602001906001900390816118715790505b50915060005b818710156119a05760a060008589815481106118b0576118b06145d9565b6000918252602080832090910154835282810193909352604091820190208151610100810183528154815260018201546001600160a01b03908116948201949094526002808301549382019390935260038201549384166060820152929091608084019160ff600160a01b909104169081111561192f5761192f6142c1565b6002811115611940576119406142c1565b81526020016004820154815260200160058201548152602001600682015481525050838281518110611974576119746145d9565b6020026020010181905250868061198a90614605565b975050808061199890614605565b915050611892565b50505b95945050505050565b6119b46133be565b6001600160a01b0381166119da5760405162461bcd60e51b8152600401610a9290614729565b609b546040517fc6bc29e495f43077b898bfa29b8be68f4c836ccf780f9f7782f916dfd3874f1591611a199133916001600160a01b0316908590614752565b60405180910390a1609b80546001600160a01b0319166001600160a01b0392909216919091179055565b6001600160a01b038316600090815260a4602090815260408083208584529091528120815b8154811015611adc57836001600160a01b031660a36000848481548110611a9157611a916145d9565b600091825260208083209091015483528201929092526040019020600301546001600160a01b03161415611aca5760019250505061158e565b80611ad481614605565b915050611a68565b50600095945050505050565b611af06133be565b6103e8811115611b3a5760405162461bcd60e51b8152602060048201526015602482015274494e56414c49445f524f59414c54595f524154494f60581b6044820152606401610a92565b609f5460408051338152602081019290925281018290527fb9244459ced173945367be3d64fa5a4a1d91721bc816e5797c9d450280e0331a9060600160405180910390a1609f55565b611b8b6133be565b6001600160a01b038116611bb15760405162461bcd60e51b8152600401610a9290614729565b609a546040517f5debc9a579ebcaf3dcc7526051ee83a5686ec09736fd9aa41e7833ec368e5bb491611bf09133916001600160a01b0316908590614752565b60405180910390a1609a80546001600160a01b0319166001600160a01b0392909216919091179055565b611c2261319d565b6001600160a01b038516611c485760405162461bcd60e51b8152600401610a9290614729565b611c53858533613661565b15611ca05760405162461bcd60e51b815260206004820152601960248201527f43414e545f4d414b455f4f464645525f574954485f53454c46000000000000006044820152606401610a92565b611cab858533611a43565b15611ce95760405162461bcd60e51b815260206004820152600e60248201526d2420a9afa6a0a222afa7a32322a960911b6044820152606401610a92565b428111611d305760405162461bcd60e51b8152602060048201526015602482015274115614125490551253d397d513d3d317d4d3505313605a1b6044820152606401610a92565b60008211611d505760405162461bcd60e51b8152600401610a92906146c9565b611d5a83836137f6565b6000604051806101000160405280609d6000815480929190611d7b90614605565b9091555081526001600160a01b038816602082015260408101879052336060820152608001856002811115611db257611db26142c1565b815260208082018690524260408084019190915260609283018690528351600090815260a3835281902084518155918401516001830180546001600160a01b03199081166001600160a01b0393841617909155918501516002808501919091559385015160038401805493841691909216908117825560808601519596508695939491926001600160a81b0319161790600160a01b908490811115611e5957611e596142c1565b021790555060a082810151600483015560c080840151600584015560e0938401516006909301929092556001600160a01b038916600090815260a4602090815260408083208b84528252808320875181546001818101845592865284862001553380855260a58452828520895181549384018255908652948490209091019390935590860151868201518751608089015195890151968901519789015193517f17e9690f1079f600c096a2dd7629be8e3c0588d103b8021355f041984b7285bd986110e4989697949693959294939290916146f5565b611f3761319d565b600081815260a36020526040902060018101546001600160a01b0316611f8f5760405162461bcd60e51b815260206004820152600d60248201526c24a72b20a624a22fa7a32322a960991b6044820152606401610a92565b60038101546001600160a01b0316331415611fec5760405162461bcd60e51b815260206004820152601860248201527f43414e545f4d414b455f4445414c5f574954485f53454c4600000000000000006044820152606401610a92565b4281600601541161202f5760405162461bcd60e51b815260206004820152600d60248201526c13d191915497d1561412549151609a1b6044820152606401610a92565b60018101546002820154600091612051916001600160a01b039091169061285a565b60608101519091506001600160a01b03166120c15760018201546002830154612084916001600160a01b03169033613661565b6120bc5760405162461bcd60e51b81526020600482015260096024820152682727aa2fa7aba722a960b91b6044820152606401610a92565b612109565b60608101516001600160a01b031633146121095760405162461bcd60e51b81526020600482015260096024820152682727aa2fa7aba722a960b91b6044820152606401610a92565b6000806121198460040154611595565b9092509050600061212a8383613a03565b90506000612145828760040154613a6290919063ffffffff16565b905060006003870154600160a01b900460ff166002811115612169576121696142c1565b14156121ad57604051339082156108fc029083906000818181858888f1935050505015801561219c573d6000803e3d6000fd5b506121a8600083613aa4565b6122d7565b60016003870154600160a01b900460ff1660028111156121cf576121cf6142c1565b14156122565760995460405163a9059cbb60e01b81526001600160a01b039091169063a9059cbb9061220790339085906004016147ba565b6020604051808303816000875af1158015612226573d6000803e3d6000fd5b505050506040513d601f19601f8201168201806040525081019061224a91906147d3565b506121a8600183613aa4565b60985460405163a9059cbb60e01b81526001600160a01b039091169063a9059cbb9061228890339085906004016147ba565b6020604051808303816000875af11580156122a7573d6000803e3d6000fd5b505050506040513d601f19601f820116820180604052508101906122cb91906147d3565b506122d7600283613aa4565b60608501516001600160a01b0316612361576001860154600387015460028801546040516323b872dd60e01b81526001600160a01b03938416936323b872dd9361232a9333939290911691600401614676565b600060405180830381600087803b15801561234457600080fd5b505af1158015612358573d6000803e3d6000fd5b505050506123d5565b6001860154600387015460028801546040516323b872dd60e01b81526001600160a01b03938416936323b872dd936123a29330939290911691600401614676565b600060405180830381600087803b1580156123bc57600080fd5b505af11580156123d0573d6000803e3d6000fd5b505050505b6001860154600287015460038801546123fb926001600160a01b03908116929116613661565b61243f5760405162461bcd60e51b815260206004820152601560248201527422a9219b9918afa320a622a22faa2920a729a322a960591b6044820152606401610a92565b60038601546001870154600288015460048901546040517f51e5812fb8587a35a721431e37ba7556e9c1cdd1dbb37bb4d09018d4a684f912946124a494339485946001600160a01b03808516959316939192600160a01b90920460ff16918b906147f5565b60405180910390a160608501516001600160a01b03163314156124cc5784516124cc906131e3565b6124d587613da5565b50505050505050565b6124e661319d565b33600090815260a560205260408120905b81548110156127a257600060a36000848481548110612518576125186145d9565b60009182526020808320909101548352820192909252604001902060018101549091506001600160a01b0390811690851614612561578161255881614605565b925050506124f7565b60018101546001600160a01b0316600090815260a460209081526040808320600285015484529091528120905b815481101561265f578484815481106125a9576125a96145d9565b90600052602060002001548282815481106125c6576125c66145d9565b9060005260206000200154141561264d57815482906125e79060019061478d565b815481106125f7576125f76145d9565b9060005260206000200154828281548110612614576126146145d9565b90600052602060002001819055508180548061263257612632614848565b6001900381819060005260206000200160009055905561265f565b8061265781614605565b91505061258e565b5060a36000858581548110612676576126766145d9565b6000918252602080832090910154835282019290925260400181208181556001810180546001600160a01b0319169055600281018290556003810180546001600160a81b031916905560048101829055600581018290556006015583547fdea570bb3f4c454d84d0e1dd20f9c155901284eaaf86e5d61ea837d31629fb47903390869086908110612709576127096145d9565b90600052602060002001546040516127229291906147ba565b60405180910390a18354849061273a9060019061478d565b8154811061274a5761274a6145d9565b9060005260206000200154848481548110612767576127676145d9565b90600052602060002001819055508380548061278557612785614848565b6001900381819060005260206000200160009055905550506124f7565b505050565b60a5602052816000526040600020818154811061163757600080fd5b6127cb6133be565b6001600160a01b0381166127f15760405162461bcd60e51b8152600401610a9290614729565b6098546040517f55263a2c34e1ca945ec24e98ab7634dfbdea3867d19adaac6da2ad9381018d39916128309133916001600160a01b0316908590614752565b60405180910390a1609880546001600160a01b0319166001600160a01b0392909216919091179055565b612862614225565b6001600160a01b03838116600090815260a160209081526040808320868452825280832054835260a08252918290208251610100810184528154815260018201548516928101929092526002808201549383019390935260038101549384166060830152909290916080840191600160a01b900460ff16908111156128e9576128e96142c1565b60028111156128fa576128fa6142c1565b815260048201546020820152600582015460408201526006909101546060909101529392505050565b61292b61319d565b600081815260a06020526040902060018101546001600160a01b03166129635760405162461bcd60e51b8152600401610a9290614620565b60038101546001600160a01b03163314156129c05760405162461bcd60e51b815260206004820152601960248201527f53484f554c445f4e4f545f42455f4f524445525f4f574e4552000000000000006044820152606401610a92565b42816006015411612a035760405162461bcd60e51b815260206004820152600d60248201526c13d491115497d1561412549151609a1b6044820152606401610a92565b600080612a138360050154611595565b90925090506000612a248383613a03565b90506000612a3f828660050154613a6290919063ffffffff16565b905060006003860154600160a01b900460ff166002811115612a6357612a636142c1565b1415612b26578460050154341015612a8d5760405162461bcd60e51b8152600401610a929061485e565b60038501546040516001600160a01b039091169082156108fc029083906000818181858888f19350505050158015612ac9573d6000803e3d6000fd5b50612ad560008361400a565b8460050154341115612b2157600585015433906108fc90612af7903490613a62565b6040518115909202916000818181858888f19350505050158015612b1f573d6000803e3d6000fd5b505b612cda565b60016003860154600160a01b900460ff166002811115612b4857612b486142c1565b1415612bd85760995460038601546040516323b872dd60e01b81526001600160a01b03928316926323b872dd92612b89923392909116908690600401614676565b6020604051808303816000875af1158015612ba8573d6000803e3d6000fd5b505050506040513d601f19601f82011682018060405250810190612bcc91906147d3565b50612b2160018361400a565b60985460058601546040516323b872dd60e01b81526001600160a01b03909216916323b872dd91612c0f9133913091600401614676565b6020604051808303816000875af1158015612c2e573d6000803e3d6000fd5b505050506040513d601f19601f82011682018060405250810190612c5291906147d3565b50609854600386015460405163a9059cbb60e01b81526001600160a01b039283169263a9059cbb92612c8b9291169085906004016147ba565b6020604051808303816000875af1158015612caa573d6000803e3d6000fd5b505050506040513d601f19601f82011682018060405250810190612cce91906147d3565b50612cda60028361400a565b600185015460028601546040516323b872dd60e01b81526001600160a01b03909216916323b872dd91612d139130913391600401614676565b600060405180830381600087803b158015612d2d57600080fd5b505af1158015612d41573d6000803e3d6000fd5b50505060038601546001870154600288015460058901546040517f51e5812fb8587a35a721431e37ba7556e9c1cdd1dbb37bb4d09018d4a684f9129550612dad9433946001600160a01b038083169587959290911693909260ff600160a01b9091041691908b906147f5565b60405180910390a1600185015460028601546000918291612dd8916001600160a01b031690336108c4565b915091508115612ded578051612ded90612e00565b612df6886131e3565b5050505050505050565b612e0861319d565b600081815260a36020526040902060038101546001600160a01b03163314612e425760405162461bcd60e51b8152600401610a929061469a565b60006003820154600160a01b900460ff166002811115612e6457612e646142c1565b1415612eb057600381015460048201546040516001600160a01b039092169181156108fc0291906000818181858888f19350505050158015612eaa573d6000803e3d6000fd5b50612fd6565b60016003820154600160a01b900460ff166002811115612ed257612ed26142c1565b1415612f5657609954600382015460048084015460405163a9059cbb60e01b81526001600160a01b039485169463a9059cbb94612f139491169291016147ba565b6020604051808303816000875af1158015612f32573d6000803e3d6000fd5b505050506040513d601f19601f82011682018060405250810190612eaa91906147d3565b609854600382015460048084015460405163a9059cbb60e01b81526001600160a01b039485169463a9059cbb94612f919491169291016147ba565b6020604051808303816000875af1158015612fb0573d6000803e3d6000fd5b505050506040513d601f19601f82011682018060405250810190612fd491906147d3565b505b610b4382613da5565b612fe76133be565b6001600160a01b03811661304c5760405162461bcd60e51b815260206004820152602660248201527f4f776e61626c653a206e6577206f776e657220697320746865207a65726f206160448201526564647265737360d01b6064820152608401610a92565b613055816139b1565b50565b600054600190610100900460ff1615801561307a575060005460ff8083169116105b6130dd5760405162461bcd60e51b815260206004820152602e60248201527f496e697469616c697a61626c653a20636f6e747261637420697320616c72656160448201526d191e481a5b9a5d1a585b1a5e995960921b6064820152608401610a92565b6000805461ffff191660ff831617610100179055609780546001600160a01b038085166001600160a01b031992831617909255609a80548884169083161790556098805487841690831617905560998054928616929091169190911790556001609c819055609d556019609e55604b609f55613157614105565b61315f614134565b6000805461ff001916905560405160ff821681527f7f26b83ff96e1f2b6a682f133852f6798a09c465da95921460cefb384740249890602001611339565b60655460ff161561165e5760405162461bcd60e51b815260206004820152601060248201526f14185d5cd8589b194e881c185d5cd95960821b6044820152606401610a92565b600081815260a06020526040902060018101546001600160a01b031661321b5760405162461bcd60e51b8152600401610a9290614620565b60038101546001600160a01b0316600090815260a260205260408120905b8154811015613304578360a06000848481548110613259576132596145d9565b906000526020600020015481526020019081526020016000206000015414156132f2578154829061328c9060019061478d565b8154811061329c5761329c6145d9565b90600052602060002001548282815481106132b9576132b96145d9565b9060005260206000200181905550818054806132d7576132d7614848565b60019003818190600052602060002001600090559055613304565b806132fc81614605565b915050613239565b50600083815260a060209081526040808320838155600180820180546001600160a01b031916905560028083018690556003830180546001600160a81b0319169055600483018690556005830186905560069092018590558601546001600160a01b0316845260a1835281842090860154845290915280822091909155517f7cd0e59220608af7c85ce462315f844545ceec744e00c7ab40f8c5a42c2e829f906133b190339086906147ba565b60405180910390a1505050565b6033546001600160a01b0316331461165e5760405162461bcd60e51b815260206004820181905260248201527f4f776e61626c653a2063616c6c6572206973206e6f7420746865206f776e65726044820152606401610a92565b6000818360a00151111561354d5760a08301516134359083613a62565b905060008360800151600281111561344f5761344f6142c1565b141561348857604051339082156108fc029083906000818181858888f19350505050158015613482573d6000803e3d6000fd5b50505050565b6001836080015160028111156134a0576134a06142c1565b141561351b5760995460405163a9059cbb60e01b81526001600160a01b039091169063a9059cbb906134d890339085906004016147ba565b6020604051808303816000875af11580156134f7573d6000803e3d6000fd5b505050506040513d601f19601f8201168201806040525081019061348291906147d3565b60985460405163a9059cbb60e01b81526001600160a01b039091169063a9059cbb906134d890339085906004016147ba565b60a083015161355d908390613a62565b9050600083608001516002811115613577576135776142c1565b14156135db578034101561359d5760405162461bcd60e51b8152600401610a929061485e565b803411156127a257336108fc6135b33484613a62565b6040518115909202916000818181858888f19350505050158015613482573d6000803e3d6000fd5b6001836080015160028111156135f3576135f36142c1565b141561362d576099546040516323b872dd60e01b81526001600160a01b03909116906323b872dd906134d890339030908690600401614676565b6098546040516323b872dd60e01b81526001600160a01b03909116906323b872dd906134d890339030908690600401614676565b6040516331a9108f60e11b8152600481018390526000906001600160a01b03851690636352211e90602401602060405180830381865afa1580156136a9573d6000803e3d6000fd5b505050506040513d601f19601f820116820180604052508101906136cd919061488a565b6001600160a01b0316826001600160a01b03161490509392505050565b60008260028111156136fe576136fe6142c1565b141561373157604051339082156108fc029083906000818181858888f193505050501580156127a2573d6000803e3d6000fd5b6001826002811115613745576137456142c1565b14156137c2576099546040516323b872dd60e01b81526001600160a01b03909116906323b872dd9061377f90309033908690600401614676565b6020604051808303816000875af115801561379e573d6000803e3d6000fd5b505050506040513d601f19601f820116820180604052508101906127a291906147d3565b6098546040516323b872dd60e01b81526001600160a01b03909116906323b872dd9061377f90309033908690600401614676565b600082600281111561380a5761380a6142c1565b141561386e57803410156138305760405162461bcd60e51b8152600401610a929061485e565b80341115610b4357336108fc6138463484613a62565b6040518115909202916000818181858888f193505050501580156127a2573d6000803e3d6000fd5b6001826002811115613882576138826142c1565b14156138bc576099546040516323b872dd60e01b81526001600160a01b03909116906323b872dd9061377f90339030908690600401614676565b6098546040516323b872dd60e01b81526001600160a01b03909116906323b872dd9061377f90339030908690600401614676565b6000826138ff575060006117e2565b600061390b83856148a7565b90508261391885836148c6565b1461158e5760405162461bcd60e51b815260206004820152602160248201527f536166654d6174683a206d756c7469706c69636174696f6e206f766572666c6f6044820152607760f81b6064820152608401610a92565b600061158e83836040518060400160405280601a81526020017f536166654d6174683a206469766973696f6e206279207a65726f000000000000815250614163565b603380546001600160a01b038381166001600160a01b0319831681179093556040519116919082907f8be0079c531659141344cd1fd0a4f28419497f9722a3daafe3b4186f6b6457e090600090a35050565b600080613a108385614775565b90508381101561158e5760405162461bcd60e51b815260206004820152601b60248201527f536166654d6174683a206164646974696f6e206f766572666c6f7700000000006044820152606401610a92565b600061158e83836040518060400160405280601e81526020017f536166654d6174683a207375627472616374696f6e206f766572666c6f770000815250614191565b6000826002811115613ab857613ab86142c1565b1415613b6b57609b546001600160a01b031615613b3157609b5460405163340e59a160e01b8152600481018390526001600160a01b039091169063340e59a19083906024015b6000604051808303818588803b158015613b1757600080fd5b505af193505050508015613b29575060015b610b43575050565b6097546040516001600160a01b039091169082156108fc029083906000818181858888f193505050501580156127a2573d6000803e3d6000fd5b6001826002811115613b7f57613b7f6142c1565b1415613c9e57609b546001600160a01b031615613c6857609954609b5460405163a9059cbb60e01b81526001600160a01b039283169263a9059cbb92613bcc9291169085906004016147ba565b6020604051808303816000875af1158015613beb573d6000803e3d6000fd5b505050506040513d601f19601f82011682018060405250810190613c0f91906147d3565b50609b5460405163890967dd60e01b8152600481018390526001600160a01b039091169063890967dd90602401600060405180830381600087803b158015613c5657600080fd5b505af1925050508015613b2957505050565b60995460975460405163a9059cbb60e01b81526001600160a01b039283169263a9059cbb9261377f9291169085906004016147ba565b609b546001600160a01b031615613d6f57609854609b5460405163a9059cbb60e01b81526001600160a01b039283169263a9059cbb92613ce59291169085906004016147ba565b6020604051808303816000875af1158015613d04573d6000803e3d6000fd5b505050506040513d601f19601f82011682018060405250810190613d2891906147d3565b50609b5460405163fad288df60e01b8152600481018390526001600160a01b039091169063fad288df90602401600060405180830381600087803b158015613c5657600080fd5b60985460975460405163a9059cbb60e01b81526001600160a01b039283169263a9059cbb9261377f9291169085906004016147ba565b600081815260a36020908152604080832060018101546001600160a01b0316845260a4835281842060028201548552909252822090915b8154811015613ea7578360a36000848481548110613dfc57613dfc6145d9565b90600052602060002001548152602001908152602001600020600001541415613e955781548290613e2f9060019061478d565b81548110613e3f57613e3f6145d9565b9060005260206000200154828281548110613e5c57613e5c6145d9565b906000526020600020018190555081805480613e7a57613e7a614848565b60019003818190600052602060002001600090559055613ea7565b80613e9f81614605565b915050613ddc565b50600083815260a3602090815260408083208381556001810180546001600160a01b031916905560028101849055600380820180546001600160a81b0319169055600482018590556005820185905560069091018490558501546001600160a01b0316835260a59091528120905b8154811015613fca5784828281548110613f3157613f316145d9565b90600052602060002001541415613fb85781548290613f529060019061478d565b81548110613f6257613f626145d9565b9060005260206000200154828281548110613f7f57613f7f6145d9565b906000526020600020018190555081805480613f9d57613f9d614848565b60019003818190600052602060002001600090559055613fca565b80613fc281614605565b915050613f15565b507fdea570bb3f4c454d84d0e1dd20f9c155901284eaaf86e5d61ea837d31629fb473385604051613ffc9291906147ba565b60405180910390a150505050565b600082600281111561401e5761401e6142c1565b141561406857609b546001600160a01b031615613b3157609b5460405163340e59a160e01b8152600481018390526001600160a01b039091169063340e59a1908390602401613afe565b600182600281111561407c5761407c6142c1565b1415613c9e57609b546001600160a01b0316156140cc57609954609b546040516323b872dd60e01b81526001600160a01b03928316926323b872dd92613bcc923392909116908690600401614676565b6099546097546040516323b872dd60e01b81526001600160a01b03928316926323b872dd9261377f923392909116908690600401614676565b600054610100900460ff1661412c5760405162461bcd60e51b8152600401610a92906148e8565b61165e6141c2565b600054610100900460ff1661415b5760405162461bcd60e51b8152600401610a92906148e8565b61165e6141f5565b600081836141845760405162461bcd60e51b8152600401610a929190614933565b5060006119a384866148c6565b600081848411156141b55760405162461bcd60e51b8152600401610a929190614933565b5060006119a3848661478d565b600054610100900460ff166141e95760405162461bcd60e51b8152600401610a92906148e8565b6065805460ff19169055565b600054610100900460ff1661421c5760405162461bcd60e51b8152600401610a92906148e8565b61165e336139b1565b60408051610100810182526000808252602082018190529181018290526060810182905290608082019081526020016000815260200160008152602001600081525090565b6001600160a01b038116811461305557600080fd5b60008060006060848603121561429457600080fd5b833561429f8161426a565b92506020840135915060408401356142b68161426a565b809150509250925092565b634e487b7160e01b600052602160045260246000fd5b600381106142f557634e487b7160e01b600052602160045260246000fd5b9052565b80518252602081015160018060a01b038082166020850152604083015160408501528060608401511660608501525050608081015161433b60808401826142d7565b5060a081015160a083015260c081015160c083015260e081015160e08301525050565b8215158152610120810161158e60208301846142f9565b60006020828403121561438757600080fd5b5035919050565b600080604083850312156143a157600080fd5b50508035926020909101359150565b8035600381106143bf57600080fd5b919050565b600080600080600060a086880312156143dc57600080fd5b85356143e78161426a565b9450602086013593506143fc604087016143b0565b94979396509394606081013594506080013592915050565b6000806000806080858703121561442a57600080fd5b8435935061443a602086016143b0565b93969395505050506040820135916060013590565b60006020828403121561446157600080fd5b813561158e8161426a565b60008060006060848603121561448157600080fd5b833561448c8161426a565b95602085013595506040909401359392505050565b600080604083850312156144b457600080fd5b82356144bf8161426a565b946020939093013593505050565b6020808252825182820181905260009190848201906040850190845b81811015614510576144fc8385516142f9565b9284019261010092909201916001016144e9565b50909695505050505050565b8881526001600160a01b0388811660208301526040820188905286166060820152610100810161454f60808301876142d7565b8460a08301528360c08301528260e08301529998505050505050505050565b61010081016117e282846142f9565b6000806000806080858703121561459357600080fd5b843561459e8161426a565b935060208501356145ae8161426a565b925060408501356145be8161426a565b915060608501356145ce8161426a565b939692955090935050565b634e487b7160e01b600052603260045260246000fd5b634e487b7160e01b600052601160045260246000fd5b6000600019821415614619576146196145ef565b5060010190565b6020808252600d908201526c24a72b20a624a22fa7a92222a960991b604082015260600190565b60208082526015908201527429a427aaa6222fa122afa7a92222a92fa7aba722a960591b604082015260600190565b6001600160a01b039384168152919092166020820152604081019190915260600190565b60208082526015908201527429a427aaa6222fa122afa7a32322a92fa6a0a5a2a960591b604082015260600190565b602080825260129082015271282924a1a2afa727aa2fa122afad22a927a960711b604082015260600190565b6001600160a01b038981168252881660208201526040810187905260608101869052610100810161454f60808301876142d7565b6020808252600f908201526e494e56414c49445f4144445245535360881b604082015260600190565b6001600160a01b0393841681529183166020830152909116604082015260600190565b60008219821115614788576147886145ef565b500190565b60008282101561479f5761479f6145ef565b500390565b634e487b7160e01b600052604160045260246000fd5b6001600160a01b03929092168252602082015260400190565b6000602082840312156147e557600080fd5b8151801515811461158e57600080fd5b6001600160a01b038981168252888116602083015287811660408301528616606082015260808101859052610100810161483260a08301866142d7565b60c082019390935260e001529695505050505050565b634e487b7160e01b600052603160045260246000fd5b602080825260129082015271494e53554646494349454e545f46554e445360701b604082015260600190565b60006020828403121561489c57600080fd5b815161158e8161426a565b60008160001904831182151516156148c1576148c16145ef565b500290565b6000826148e357634e487b7160e01b600052601260045260246000fd5b500490565b6020808252602b908201527f496e697469616c697a61626c653a20636f6e7472616374206973206e6f74206960408201526a6e697469616c697a696e6760a81b606082015260800190565b600060208083528351808285015260005b8181101561496057858101830151858201604001528201614944565b81811115614972576000604083870101525b50601f01601f191692909201604001939250505056fea2646970667358221220fecf6182ed852665f807e9d3a462b15217cd633d4258c8163c6ac0031cc86d8264736f6c634300080b0033",
  "linkReferences": {},
  "deployedLinkReferences": {}
}