{
  "_format": "hh-sol-artifact-1",
  "contractName": "SoccerStarNftMarket",
  "sourceName": "contracts/market/SoccerStarNftMarket.sol",
  "abi": [
    {
      "anonymous": false,
      "inputs": [
        {
          "indexed": false,
          "internalType": "address",
          "name": "sender",
          "type": "address"
        },
        {
          "indexed": false,
          "internalType": "address",
          "name": "oldValue",
          "type": "address"
        },
        {
          "indexed": false,
          "internalType": "address",
          "name": "newValue",
          "type": "address"
        }
      ],
      "name": "BIBContractChanged",
      "type": "event"
    },
    {
      "anonymous": false,
      "inputs": [
        {
          "indexed": false,
          "internalType": "address",
          "name": "sender",
          "type": "address"
        },
        {
          "indexed": false,
          "internalType": "address",
          "name": "oldValue",
          "type": "address"
        },
        {
          "indexed": false,
          "internalType": "address",
          "name": "newValue",
          "type": "address"
        }
      ],
      "name": "BUSDContractChanged",
      "type": "event"
    },
    {
      "anonymous": false,
      "inputs": [
        {
          "indexed": false,
          "internalType": "address",
          "name": "sender",
          "type": "address"
        },
        {
          "indexed": false,
          "internalType": "uint256",
          "name": "offerId",
          "type": "uint256"
        }
      ],
      "name": "CancelOffer",
      "type": "event"
    },
    {
      "anonymous": false,
      "inputs": [
        {
          "indexed": false,
          "internalType": "address",
          "name": "sender",
          "type": "address"
        },
        {
          "indexed": false,
          "internalType": "uint256",
          "name": "orderId",
          "type": "uint256"
        }
      ],
      "name": "CloseOrder",
      "type": "event"
    },
    {
      "anonymous": false,
      "inputs": [
        {
          "indexed": false,
          "internalType": "address",
          "name": "sender",
          "type": "address"
        },
        {
          "indexed": false,
          "internalType": "address",
          "name": "oldValue",
          "type": "address"
        },
        {
          "indexed": false,
          "internalType": "address",
          "name": "newValue",
          "type": "address"
        }
      ],
      "name": "FeeCollectorChanged",
      "type": "event"
    },
    {
      "anonymous": false,
      "inputs": [
        {
          "indexed": false,
          "internalType": "address",
          "name": "sender",
          "type": "address"
        },
        {
          "indexed": false,
          "internalType": "uint256",
          "name": "oldValue",
          "type": "uint256"
        },
        {
          "indexed": false,
          "internalType": "uint256",
          "name": "newValue",
          "type": "uint256"
        }
      ],
      "name": "FeeRatioChanged",
      "type": "event"
    },
    {
      "anonymous": false,
      "inputs": [
        {
          "indexed": false,
          "internalType": "uint8",
          "name": "version",
          "type": "uint8"
        }
      ],
      "name": "Initialized",
      "type": "event"
    },
    {
      "anonymous": false,
      "inputs": [
        {
          "indexed": false,
          "internalType": "address",
          "name": "sender",
          "type": "address"
        },
        {
          "indexed": false,
          "internalType": "address",
          "name": "owner",
          "type": "address"
        },
        {
          "indexed": false,
          "internalType": "address",
          "name": "buyer",
          "type": "address"
        },
        {
          "indexed": false,
          "internalType": "address",
          "name": "issuer",
          "type": "address"
        },
        {
          "indexed": false,
          "internalType": "uint256",
          "name": "tokenId",
          "type": "uint256"
        },
        {
          "indexed": false,
          "internalType": "enum ISoccerStarNftMarket.PayMethod",
          "name": "payMethod",
          "type": "uint8"
        },
        {
          "indexed": false,
          "internalType": "uint256",
          "name": "price",
          "type": "uint256"
        },
        {
          "indexed": false,
          "internalType": "uint256",
          "name": "fee",
          "type": "uint256"
        }
      ],
      "name": "MakeDeal",
      "type": "event"
    },
    {
      "anonymous": false,
      "inputs": [
        {
          "indexed": false,
          "internalType": "address",
          "name": "sender",
          "type": "address"
        },
        {
          "indexed": false,
          "internalType": "address",
          "name": "issuer",
          "type": "address"
        },
        {
          "indexed": false,
          "internalType": "uint256",
          "name": "tokenId",
          "type": "uint256"
        },
        {
          "indexed": false,
          "internalType": "uint256",
          "name": "offerId",
          "type": "uint256"
        },
        {
          "indexed": false,
          "internalType": "enum ISoccerStarNftMarket.PayMethod",
          "name": "payMethod",
          "type": "uint8"
        },
        {
          "indexed": false,
          "internalType": "uint256",
          "name": "price",
          "type": "uint256"
        },
        {
          "indexed": false,
          "internalType": "uint256",
          "name": "mt",
          "type": "uint256"
        },
        {
          "indexed": false,
          "internalType": "uint256",
          "name": "expiration",
          "type": "uint256"
        }
      ],
      "name": "MakeOffer",
      "type": "event"
    },
    {
      "anonymous": false,
      "inputs": [
        {
          "indexed": false,
          "internalType": "address",
          "name": "sender",
          "type": "address"
        },
        {
          "indexed": false,
          "internalType": "address",
          "name": "issuer",
          "type": "address"
        },
        {
          "indexed": false,
          "internalType": "uint256",
          "name": "orderId",
          "type": "uint256"
        },
        {
          "indexed": false,
          "internalType": "uint256",
          "name": "tokenId",
          "type": "uint256"
        },
        {
          "indexed": false,
          "internalType": "enum ISoccerStarNftMarket.PayMethod",
          "name": "payMethod",
          "type": "uint8"
        },
        {
          "indexed": false,
          "internalType": "uint256",
          "name": "price",
          "type": "uint256"
        },
        {
          "indexed": false,
          "internalType": "uint256",
          "name": "mt",
          "type": "uint256"
        },
        {
          "indexed": false,
          "internalType": "uint256",
          "name": "expiration",
          "type": "uint256"
        }
      ],
      "name": "OpenOrder",
      "type": "event"
    },
    {
      "anonymous": false,
      "inputs": [
        {
          "indexed": true,
          "internalType": "address",
          "name": "previousOwner",
          "type": "address"
        },
        {
          "indexed": true,
          "internalType": "address",
          "name": "newOwner",
          "type": "address"
        }
      ],
      "name": "OwnershipTransferred",
      "type": "event"
    },
    {
      "anonymous": false,
      "inputs": [
        {
          "indexed": false,
          "internalType": "address",
          "name": "account",
          "type": "address"
        }
      ],
      "name": "Paused",
      "type": "event"
    },
    {
      "anonymous": false,
      "inputs": [
        {
          "indexed": false,
          "internalType": "address",
          "name": "sender",
          "type": "address"
        },
        {
          "indexed": false,
          "internalType": "uint256",
          "name": "oldValue",
          "type": "uint256"
        },
        {
          "indexed": false,
          "internalType": "uint256",
          "name": "newValue",
          "type": "uint256"
        }
      ],
      "name": "RoyaltyRatioChanged",
      "type": "event"
    },
    {
      "anonymous": false,
      "inputs": [
        {
          "indexed": false,
          "internalType": "address",
          "name": "sender",
          "type": "address"
        },
        {
          "indexed": false,
          "internalType": "address",
          "name": "oldValue",
          "type": "address"
        },
        {
          "indexed": false,
          "internalType": "address",
          "name": "newValue",
          "type": "address"
        }
      ],
      "name": "TokenContractChanged",
      "type": "event"
    },
    {
      "anonymous": false,
      "inputs": [
        {
          "indexed": false,
          "internalType": "address",
          "name": "account",
          "type": "address"
        }
      ],
      "name": "Unpaused",
      "type": "event"
    },
    {
      "anonymous": false,
      "inputs": [
        {
          "indexed": false,
          "internalType": "address",
          "name": "sender",
          "type": "address"
        },
        {
          "indexed": false,
          "internalType": "uint256",
          "name": "offerId",
          "type": "uint256"
        },
        {
          "indexed": false,
          "internalType": "uint256",
          "name": "oldPrice",
          "type": "uint256"
        },
        {
          "indexed": false,
          "internalType": "uint256",
          "name": "newPrice",
          "type": "uint256"
        }
      ],
      "name": "UpdateOfferPrice",
      "type": "event"
    },
    {
      "anonymous": false,
      "inputs": [
        {
          "indexed": false,
          "internalType": "address",
          "name": "sender",
          "type": "address"
        },
        {
          "indexed": false,
          "internalType": "uint256",
          "name": "orderId",
          "type": "uint256"
        },
        {
          "indexed": false,
          "internalType": "uint256",
          "name": "oldPrice",
          "type": "uint256"
        },
        {
          "indexed": false,
          "internalType": "uint256",
          "name": "newPrice",
          "type": "uint256"
        }
      ],
      "name": "UpdateOrderPrice",
      "type": "event"
    },
    {
      "inputs": [],
      "name": "FEE_RATIO_DIV",
      "outputs": [
        {
          "internalType": "uint256",
          "name": "",
          "type": "uint256"
        }
      ],
      "stateMutability": "view",
      "type": "function"
    },
    {
      "inputs": [
        {
          "internalType": "uint256",
          "name": "offerId",
          "type": "uint256"
        }
      ],
      "name": "acceptOffer",
      "outputs": [],
      "stateMutability": "payable",
      "type": "function"
    },
    {
      "inputs": [
        {
          "internalType": "uint256",
          "name": "orderId",
          "type": "uint256"
        }
      ],
      "name": "acceptOrder",
      "outputs": [],
      "stateMutability": "payable",
      "type": "function"
    },
    {
      "inputs": [],
      "name": "bibContract",
      "outputs": [
        {
          "internalType": "contract IERC20",
          "name": "",
          "type": "address"
        }
      ],
      "stateMutability": "view",
      "type": "function"
    },
    {
      "inputs": [],
      "name": "busdContract",
      "outputs": [
        {
          "internalType": "contract IERC20",
          "name": "",
          "type": "address"
        }
      ],
      "stateMutability": "view",
      "type": "function"
    },
    {
      "inputs": [
        {
          "internalType": "uint256",
          "name": "amount",
          "type": "uint256"
        }
      ],
      "name": "caculateFees",
      "outputs": [
        {
          "internalType": "uint256",
          "name": "",
          "type": "uint256"
        },
        {
          "internalType": "uint256",
          "name": "",
          "type": "uint256"
        }
      ],
      "stateMutability": "view",
      "type": "function"
    },
    {
      "inputs": [
        {
          "internalType": "uint256",
          "name": "offerId",
          "type": "uint256"
        }
      ],
      "name": "cancelOffer",
      "outputs": [],
      "stateMutability": "nonpayable",
      "type": "function"
    },
    {
      "inputs": [
        {
          "internalType": "uint256",
          "name": "orderId",
          "type": "uint256"
        }
      ],
      "name": "closeOrder",
      "outputs": [],
      "stateMutability": "nonpayable",
      "type": "function"
    },
    {
      "inputs": [],
      "name": "feeCollector",
      "outputs": [
        {
          "internalType": "contract IFeeCollector",
          "name": "",
          "type": "address"
        }
      ],
      "stateMutability": "view",
      "type": "function"
    },
    {
      "inputs": [],
      "name": "feeRatio",
      "outputs": [
        {
          "internalType": "uint256",
          "name": "",
          "type": "uint256"
        }
      ],
      "stateMutability": "view",
      "type": "function"
    },
    {
      "inputs": [],
      "name": "getBlockTime",
      "outputs": [
        {
          "internalType": "uint256",
          "name": "",
          "type": "uint256"
        }
      ],
      "stateMutability": "view",
      "type": "function"
    },
    {
      "inputs": [
        {
          "internalType": "address",
          "name": "issuer",
          "type": "address"
        },
        {
          "internalType": "uint256",
          "name": "tokenId",
          "type": "uint256"
        },
        {
          "internalType": "address",
          "name": "user",
          "type": "address"
        }
      ],
      "name": "getOffer",
      "outputs": [
        {
          "internalType": "bool",
          "name": "",
          "type": "bool"
        },
        {
          "components": [
            {
              "internalType": "uint256",
              "name": "offerId",
              "type": "uint256"
            },
            {
              "internalType": "address",
              "name": "issuer",
              "type": "address"
            },
            {
              "internalType": "uint256",
              "name": "tokenId",
              "type": "uint256"
            },
            {
              "internalType": "address",
              "name": "buyer",
              "type": "address"
            },
            {
              "internalType": "enum ISoccerStarNftMarket.PayMethod",
              "name": "payMethod",
              "type": "uint8"
            },
            {
              "internalType": "uint256",
              "name": "bid",
              "type": "uint256"
            },
            {
              "internalType": "uint256",
              "name": "mt",
              "type": "uint256"
            },
            {
              "internalType": "uint256",
              "name": "expiration",
              "type": "uint256"
            }
          ],
          "internalType": "struct ISoccerStarNftMarket.Offer",
          "name": "",
          "type": "tuple"
        }
      ],
      "stateMutability": "view",
      "type": "function"
    },
    {
      "inputs": [
        {
          "internalType": "address",
          "name": "issuer",
          "type": "address"
        },
        {
          "internalType": "uint256",
          "name": "tokenId",
          "type": "uint256"
        }
      ],
      "name": "getOrder",
      "outputs": [
        {
          "components": [
            {
              "internalType": "uint256",
              "name": "orderId",
              "type": "uint256"
            },
            {
              "internalType": "address",
              "name": "issuer",
              "type": "address"
            },
            {
              "internalType": "uint256",
              "name": "tokenId",
              "type": "uint256"
            },
            {
              "internalType": "address",
              "name": "owner",
              "type": "address"
            },
            {
              "internalType": "enum ISoccerStarNftMarket.PayMethod",
              "name": "payMethod",
              "type": "uint8"
            },
            {
              "internalType": "uint256",
              "name": "mt",
              "type": "uint256"
            },
            {
              "internalType": "uint256",
              "name": "price",
              "type": "uint256"
            },
            {
              "internalType": "uint256",
              "name": "expiration",
              "type": "uint256"
            }
          ],
          "internalType": "struct ISoccerStarNftMarket.Order",
          "name": "",
          "type": "tuple"
        }
      ],
      "stateMutability": "view",
      "type": "function"
    },
    {
      "inputs": [
        {
          "internalType": "address",
          "name": "user",
          "type": "address"
        },
        {
          "internalType": "uint256",
          "name": "pageSt",
          "type": "uint256"
        },
        {
          "internalType": "uint256",
          "name": "pageSz",
          "type": "uint256"
        }
      ],
      "name": "getUserOrdersByPage",
      "outputs": [
        {
          "components": [
            {
              "internalType": "uint256",
              "name": "orderId",
              "type": "uint256"
            },
            {
              "internalType": "address",
              "name": "issuer",
              "type": "address"
            },
            {
              "internalType": "uint256",
              "name": "tokenId",
              "type": "uint256"
            },
            {
              "internalType": "address",
              "name": "owner",
              "type": "address"
            },
            {
              "internalType": "enum ISoccerStarNftMarket.PayMethod",
              "name": "payMethod",
              "type": "uint8"
            },
            {
              "internalType": "uint256",
              "name": "mt",
              "type": "uint256"
            },
            {
              "internalType": "uint256",
              "name": "price",
              "type": "uint256"
            },
            {
              "internalType": "uint256",
              "name": "expiration",
              "type": "uint256"
            }
          ],
          "internalType": "struct ISoccerStarNftMarket.Order[]",
          "name": "",
          "type": "tuple[]"
        }
      ],
      "stateMutability": "view",
      "type": "function"
    },
    {
      "inputs": [
        {
          "internalType": "address",
          "name": "issuer",
          "type": "address"
        },
        {
          "internalType": "uint256",
          "name": "tokenId",
          "type": "uint256"
        },
        {
          "internalType": "address",
          "name": "user",
          "type": "address"
        }
      ],
      "name": "hasOffer",
      "outputs": [
        {
          "internalType": "bool",
          "name": "",
          "type": "bool"
        }
      ],
      "stateMutability": "view",
      "type": "function"
    },
    {
      "inputs": [
        {
          "internalType": "address",
          "name": "issuer",
          "type": "address"
        },
        {
          "internalType": "uint256",
          "name": "tokenId",
          "type": "uint256"
        }
      ],
      "name": "hasOrder",
      "outputs": [
        {
          "internalType": "bool",
          "name": "",
          "type": "bool"
        }
      ],
      "stateMutability": "view",
      "type": "function"
    },
    {
      "inputs": [
        {
          "internalType": "address",
          "name": "_tokenContract",
          "type": "address"
        },
        {
          "internalType": "address",
          "name": "_bibContract",
          "type": "address"
        },
        {
          "internalType": "address",
          "name": "_busdContract",
          "type": "address"
        },
        {
          "internalType": "address",
          "name": "_treasury",
          "type": "address"
        }
      ],
      "name": "initialize",
      "outputs": [],
      "stateMutability": "nonpayable",
      "type": "function"
    },
    {
      "inputs": [
        {
          "internalType": "address",
          "name": "issuer",
          "type": "address"
        },
        {
          "internalType": "uint256",
          "name": "tokenId",
          "type": "uint256"
        },
        {
          "internalType": "address",
          "name": "owner",
          "type": "address"
        }
      ],
      "name": "isOriginOwner",
      "outputs": [
        {
          "internalType": "bool",
          "name": "",
          "type": "bool"
        }
      ],
      "stateMutability": "view",
      "type": "function"
    },
    {
      "inputs": [
        {
          "internalType": "address",
          "name": "issuer",
          "type": "address"
        },
        {
          "internalType": "uint256",
          "name": "tokenId",
          "type": "uint256"
        },
        {
          "internalType": "enum ISoccerStarNftMarket.PayMethod",
          "name": "payMethod",
          "type": "uint8"
        },
        {
          "internalType": "uint256",
          "name": "price",
          "type": "uint256"
        },
        {
          "internalType": "uint256",
          "name": "expiration",
          "type": "uint256"
        }
      ],
      "name": "makeOffer",
      "outputs": [],
      "stateMutability": "payable",
      "type": "function"
    },
    {
      "inputs": [],
      "name": "nextOfferIndex",
      "outputs": [
        {
          "internalType": "uint256",
          "name": "",
          "type": "uint256"
        }
      ],
      "stateMutability": "view",
      "type": "function"
    },
    {
      "inputs": [],
      "name": "nextOrderIndex",
      "outputs": [
        {
          "internalType": "uint256",
          "name": "",
          "type": "uint256"
        }
      ],
      "stateMutability": "view",
      "type": "function"
    },
    {
      "inputs": [
        {
          "internalType": "uint256",
          "name": "",
          "type": "uint256"
        }
      ],
      "name": "offerTb",
      "outputs": [
        {
          "internalType": "uint256",
          "name": "offerId",
          "type": "uint256"
        },
        {
          "internalType": "address",
          "name": "issuer",
          "type": "address"
        },
        {
          "internalType": "uint256",
          "name": "tokenId",
          "type": "uint256"
        },
        {
          "internalType": "address",
          "name": "buyer",
          "type": "address"
        },
        {
          "internalType": "enum ISoccerStarNftMarket.PayMethod",
          "name": "payMethod",
          "type": "uint8"
        },
        {
          "internalType": "uint256",
          "name": "bid",
          "type": "uint256"
        },
        {
          "internalType": "uint256",
          "name": "mt",
          "type": "uint256"
        },
        {
          "internalType": "uint256",
          "name": "expiration",
          "type": "uint256"
        }
      ],
      "stateMutability": "view",
      "type": "function"
    },
    {
      "inputs": [
        {
          "internalType": "address",
          "name": "issuer",
          "type": "address"
        },
        {
          "internalType": "uint256",
          "name": "tokenId",
          "type": "uint256"
        },
        {
          "internalType": "enum ISoccerStarNftMarket.PayMethod",
          "name": "payMethod",
          "type": "uint8"
        },
        {
          "internalType": "uint256",
          "name": "price",
          "type": "uint256"
        },
        {
          "internalType": "uint256",
          "name": "expiration",
          "type": "uint256"
        }
      ],
      "name": "openOrder",
      "outputs": [],
      "stateMutability": "payable",
      "type": "function"
    },
    {
      "inputs": [
        {
          "internalType": "uint256",
          "name": "",
          "type": "uint256"
        }
      ],
      "name": "orderTb",
      "outputs": [
        {
          "internalType": "uint256",
          "name": "orderId",
          "type": "uint256"
        },
        {
          "internalType": "address",
          "name": "issuer",
          "type": "address"
        },
        {
          "internalType": "uint256",
          "name": "tokenId",
          "type": "uint256"
        },
        {
          "internalType": "address",
          "name": "owner",
          "type": "address"
        },
        {
          "internalType": "enum ISoccerStarNftMarket.PayMethod",
          "name": "payMethod",
          "type": "uint8"
        },
        {
          "internalType": "uint256",
          "name": "mt",
          "type": "uint256"
        },
        {
          "internalType": "uint256",
          "name": "price",
          "type": "uint256"
        },
        {
          "internalType": "uint256",
          "name": "expiration",
          "type": "uint256"
        }
      ],
      "stateMutability": "view",
      "type": "function"
    },
    {
      "inputs": [],
      "name": "owner",
      "outputs": [
        {
          "internalType": "address",
          "name": "",
          "type": "address"
        }
      ],
      "stateMutability": "view",
      "type": "function"
    },
    {
      "inputs": [],
      "name": "paused",
      "outputs": [
        {
          "internalType": "bool",
          "name": "",
          "type": "bool"
        }
      ],
      "stateMutability": "view",
      "type": "function"
    },
    {
      "inputs": [],
      "name": "renounceOwnership",
      "outputs": [],
      "stateMutability": "nonpayable",
      "type": "function"
    },
    {
      "inputs": [],
      "name": "royaltyRatio",
      "outputs": [
        {
          "internalType": "uint256",
          "name": "",
          "type": "uint256"
        }
      ],
      "stateMutability": "view",
      "type": "function"
    },
    {
      "inputs": [
        {
          "internalType": "address",
          "name": "_bibContract",
          "type": "address"
        }
      ],
      "name": "setBIBContract",
      "outputs": [],
      "stateMutability": "nonpayable",
      "type": "function"
    },
    {
      "inputs": [
        {
          "internalType": "address",
          "name": "_busdContract",
          "type": "address"
        }
      ],
      "name": "setBUSDContract",
      "outputs": [],
      "stateMutability": "nonpayable",
      "type": "function"
    },
    {
      "inputs": [
        {
          "internalType": "address",
          "name": "_feeCollector",
          "type": "address"
        }
      ],
      "name": "setFeeCollector",
      "outputs": [],
      "stateMutability": "nonpayable",
      "type": "function"
    },
    {
      "inputs": [
        {
          "internalType": "uint256",
          "name": "_feeRatio",
          "type": "uint256"
        }
      ],
      "name": "setFeeRatio",
      "outputs": [],
      "stateMutability": "nonpayable",
      "type": "function"
    },
    {
      "inputs": [
        {
          "internalType": "uint256",
          "name": "_royaltyRatio",
          "type": "uint256"
        }
      ],
      "name": "setRoyaltyRatio",
      "outputs": [],
      "stateMutability": "nonpayable",
      "type": "function"
    },
    {
      "inputs": [
        {
          "internalType": "address",
          "name": "_tokenContract",
          "type": "address"
        }
      ],
      "name": "setTokenContract",
      "outputs": [],
      "stateMutability": "nonpayable",
      "type": "function"
    },
    {
      "inputs": [],
      "name": "tokenContract",
      "outputs": [
        {
          "internalType": "contract ISoccerStarNft",
          "name": "",
          "type": "address"
        }
      ],
      "stateMutability": "view",
      "type": "function"
    },
    {
      "inputs": [
        {
          "internalType": "address",
          "name": "",
          "type": "address"
        },
        {
          "internalType": "uint256",
          "name": "",
          "type": "uint256"
        },
        {
          "internalType": "uint256",
          "name": "",
          "type": "uint256"
        }
      ],
      "name": "tokenOffersTb",
      "outputs": [
        {
          "internalType": "uint256",
          "name": "",
          "type": "uint256"
        }
      ],
      "stateMutability": "view",
      "type": "function"
    },
    {
      "inputs": [
        {
          "internalType": "address",
          "name": "",
          "type": "address"
        },
        {
          "internalType": "uint256",
          "name": "",
          "type": "uint256"
        }
      ],
      "name": "tokenOrderTb",
      "outputs": [
        {
          "internalType": "uint256",
          "name": "",
          "type": "uint256"
        }
      ],
      "stateMutability": "view",
      "type": "function"
    },
    {
      "inputs": [
        {
          "internalType": "address",
          "name": "newOwner",
          "type": "address"
        }
      ],
      "name": "transferOwnership",
      "outputs": [],
      "stateMutability": "nonpayable",
      "type": "function"
    },
    {
      "inputs": [],
      "name": "treasury",
      "outputs": [
        {
          "internalType": "address",
          "name": "",
          "type": "address"
        }
      ],
      "stateMutability": "view",
      "type": "function"
    },
    {
      "inputs": [
        {
          "internalType": "uint256",
          "name": "offerId",
          "type": "uint256"
        },
        {
          "internalType": "uint256",
          "name": "price",
          "type": "uint256"
        }
      ],
      "name": "updateOfferPrice",
      "outputs": [],
      "stateMutability": "payable",
      "type": "function"
    },
    {
      "inputs": [
        {
          "internalType": "uint256",
          "name": "orderId",
          "type": "uint256"
        },
        {
          "internalType": "uint256",
          "name": "price",
          "type": "uint256"
        }
      ],
      "name": "updateOrderPrice",
      "outputs": [],
      "stateMutability": "payable",
      "type": "function"
    },
    {
      "inputs": [
        {
          "internalType": "address",
          "name": "",
          "type": "address"
        },
        {
          "internalType": "uint256",
          "name": "",
          "type": "uint256"
        }
      ],
      "name": "userOrdersTb",
      "outputs": [
        {
          "internalType": "uint256",
          "name": "",
          "type": "uint256"
        }
      ],
      "stateMutability": "view",
      "type": "function"
    }
  ],
  "bytecode": "0x608060405234801561001057600080fd5b50614090806100206000396000f3fe6080604052600436106102515760003560e01c80638ffef66411610139578063bbcd5bbe116100b6578063e217f6741161007a578063e217f67414610772578063edb2584114610792578063ef18e9ed146107bf578063ef706adf146107d2578063f2fde38b146107f2578063f8c8765e1461081257600080fd5b8063bbcd5bbe146106ec578063c3b3595d1461070c578063c415b95c1461071f578063c815729d1461073f578063cf9d101c1461075257600080fd5b8063a8b016ff116100fd578063a8b016ff14610592578063ac54ed9a14610612578063b661c3751461064a578063b855902f1461066a578063bb8951b6146106d657600080fd5b80638ffef664146104ef578063978f8bf81461050f5780639b81743e14610525578063a42dce8014610552578063a76de94c1461057257600080fd5b806355a373d6116101d2578063690b23f311610196578063690b23f31461043457806369eca585146104695780636f6c713414610489578063715018a6146104a957806387ceff09146104be5780638da5cb5b146104d157600080fd5b806355a373d61461039d5780635c975abb146103bd5780635e9e78d0146103e157806360bbcfbc146103f457806361d027b31461041457600080fd5b80632b4382d1116102195780632b4382d11461032b5780632d286ca41461033e57806341744dd4146103515780634459644514610367578063524191471461037d57600080fd5b80630168033a14610256578063069d6d1c1461028d57806310cc6bb9146102af57806319f4ff2f146102e75780631f9082d114610307575b600080fd5b34801561026257600080fd5b506102766102713660046139f8565b610832565b604051610284929190613ad7565b60405180910390f35b34801561029957600080fd5b506102ad6102a8366004613aee565b6109c0565b005b3480156102bb57600080fd5b506098546102cf906001600160a01b031681565b6040516001600160a01b039091168152602001610284565b3480156102f357600080fd5b506102ad610302366004613aee565b610add565b34801561031357600080fd5b5061031d6103e881565b604051908152602001610284565b6102ad610339366004613b07565b610b70565b6102ad61034c366004613b29565b610f58565b34801561035d57600080fd5b5061031d609e5481565b34801561037357600080fd5b5061031d609f5481565b34801561038957600080fd5b506102ad610398366004613b7f565b611282565b3480156103a957600080fd5b50609a546102cf906001600160a01b031681565b3480156103c957600080fd5b5060655460ff165b6040519015158152602001610284565b6102ad6103ef366004613b07565b611319565b34801561040057600080fd5b506103d161040f3660046139f8565b61148f565b34801561042057600080fd5b506097546102cf906001600160a01b031681565b34801561044057600080fd5b5061045461044f366004613aee565b6114f7565b60408051928352602083019190915201610284565b34801561047557600080fd5b5061031d610484366004613b9c565b611534565b34801561049557600080fd5b5061031d6104a4366004613bd1565b611572565b3480156104b557600080fd5b506102ad6115a3565b3480156104ca57600080fd5b504261031d565b3480156104dd57600080fd5b506033546001600160a01b03166102cf565b3480156104fb57600080fd5b506103d161050a366004613bd1565b6115b7565b34801561051b57600080fd5b5061031d609c5481565b34801561053157600080fd5b50610545610540366004613b9c565b6115e4565b6040516102849190613bfd565b34801561055e57600080fd5b506102ad61056d366004613b7f565b6117a8565b34801561057e57600080fd5b506103d161058d3660046139f8565b61183f565b34801561059e57600080fd5b506105fe6105ad366004613aee565b60a360205260009081526040902080546001820154600283015460038401546004850154600586015460069096015494956001600160a01b03948516959394831693600160a01b90930460ff169288565b604051610284989796959493929190613c4c565b34801561061e57600080fd5b5061031d61062d366004613bd1565b60a160209081526000928352604080842090915290825290205481565b34801561065657600080fd5b506102ad610665366004613aee565b6118e4565b34801561067657600080fd5b506105fe610685366004613aee565b60a060205260009081526040902080546001820154600283015460038401546004850154600586015460069096015494956001600160a01b03948516959394831693600160a01b90930460ff169288565b3480156106e257600080fd5b5061031d609d5481565b3480156106f857600080fd5b506102ad610707366004613b7f565b61197f565b6102ad61071a366004613b29565b611a16565b34801561072b57600080fd5b50609b546102cf906001600160a01b031681565b6102ad61074d366004613aee565b611e88565b34801561075e57600080fd5b506099546102cf906001600160a01b031681565b34801561077e57600080fd5b506102ad61078d366004613b7f565b6123cd565b34801561079e57600080fd5b506107b26107ad366004613bd1565b612464565b6040516102849190613c9e565b6102ad6107cd366004613aee565b61252d565b3480156107de57600080fd5b506102ad6107ed366004613aee565b612992565b3480156107fe57600080fd5b506102ad61080d366004613b7f565b612b99565b34801561081e57600080fd5b506102ad61082d366004613cad565b612c12565b600061083c61399e565b61084461399e565b6001600160a01b038616600090815260a4602090815260408083208884529091528120905b81548110156109ae57856001600160a01b031660a3600084848154811061089257610892613d09565b600091825260208083209091015483528201929092526040019020600301546001600160a01b0316141561099c57600160a360008484815481106108d8576108d8613d09565b600091825260208083209190910154835282810193909352604091820190208151610100810183528154815260018201546001600160a01b039081169482019490945260028083015493820193909352600382015493841660608201529092909183916080840191600160a01b90910460ff169081111561095b5761095b613a3a565b600281111561096c5761096c613a3a565b815260200160048201548152602001600582015481526020016006820154815250509050945094505050506109b8565b806109a681613d35565b915050610869565b5060009350909150505b935093915050565b6109c8612d61565b600081815260a06020526040902060018101546001600160a01b0316610a095760405162461bcd60e51b8152600401610a0090613d50565b60405180910390fd5b60038101546001600160a01b03163314610a5d5760405162461bcd60e51b815260206004820152601560248201527429a427aaa6222fa122afa7a92222a92fa7aba722a960591b6044820152606401610a00565b6001810154600382015460028301546040516323b872dd60e01b81526001600160a01b03938416936323b872dd93610a9e9330939290911691600401613d77565b600060405180830381600087803b158015610ab857600080fd5b505af1158015610acc573d6000803e3d6000fd5b50505050610ad982612da7565b5050565b610ae5612f82565b6103e8811115610b275760405162461bcd60e51b815260206004820152600d60248201526c494e56414c49445f524154494f60981b6044820152606401610a00565b609e5460408051338152602081019290925281018290527f93028a0c57bb808eee7eb9f7e15084346cae24916f69252ea4c36cfdcb9f5de19060600160405180910390a1609e55565b610b78612d61565b600082815260a36020526040902060038101546001600160a01b03163314610bda5760405162461bcd60e51b815260206004820152601560248201527429a427aaa6222fa122afa7a32322a92fa6a0a5a2a960591b6044820152606401610a00565b42816006015411610c1d5760405162461bcd60e51b815260206004820152600d60248201526c13d191915497d1561412549151609a1b6044820152606401610a00565b60008211610c3d5760405162461bcd60e51b8152600401610a0090613d9b565b60008282600401541115610d8b576004820154610c5a9084612fdc565b905060006003830154600160a01b900460ff166002811115610c7e57610c7e613a3a565b1415610cb757604051339082156108fc029083906000818181858888f19350505050158015610cb1573d6000803e3d6000fd5b50610ef8565b60016003830154600160a01b900460ff166002811115610cd957610cd9613a3a565b1415610d545760995460405163a9059cbb60e01b81526001600160a01b039091169063a9059cbb90610d119033908590600401613dc7565b6020604051808303816000875af1158015610d30573d6000803e3d6000fd5b505050506040513d601f19601f82011682018060405250810190610cb19190613de0565b60985460405163a9059cbb60e01b81526001600160a01b039091169063a9059cbb90610d119033908590600401613dc7565b610ef8565b6004820154610d9b908490612fdc565b905060006003830154600160a01b900460ff166002811115610dbf57610dbf613a3a565b1415610e235780341015610de55760405162461bcd60e51b8152600401610a0090613e02565b80341115610d8657336108fc610dfb3484612fdc565b6040518115909202916000818181858888f19350505050158015610cb1573d6000803e3d6000fd5b60016003830154600160a01b900460ff166002811115610e4557610e45613a3a565b1415610e7f576099546040516323b872dd60e01b81526001600160a01b03909116906323b872dd90610d1190339030908690600401613d77565b6098546040516323b872dd60e01b81526001600160a01b03909116906323b872dd90610eb390339030908690600401613d77565b6020604051808303816000875af1158015610ed2573d6000803e3d6000fd5b505050506040513d601f19601f82011682018060405250810190610ef69190613de0565b505b81546004830154604080513381526020810193909352820152606081018490527f56cfae79da87be8793aa103e2b0510863a7ff19a8b4a29af2ef589580b87e8f39060800160405180910390a15060048101919091554260059091015550565b610f60612d61565b6001600160a01b038516610fa75760405162461bcd60e51b815260206004820152600e60248201526d494e56414c49445f49535355524560901b6044820152606401610a00565b428111610fed5760405162461bcd60e51b8152602060048201526014602482015273115614125490551253d397d513d3d7d4d350531360621b6044820152606401610a00565b6000821161100d5760405162461bcd60e51b8152600401610a0090613d9b565b61101885853361301e565b6110645760405162461bcd60e51b815260206004820152601b60248201527f544f4b454e5f4e4f545f42454c4c4f4e475f544f5f53454e44455200000000006044820152606401610a00565b6040516323b872dd60e01b81526001600160a01b038616906323b872dd9061109490339030908990600401613d77565b600060405180830381600087803b1580156110ae57600080fd5b505af11580156110c2573d6000803e3d6000fd5b505050506000604051806101000160405280609c60008154809291906110e790613d35565b9091555081526001600160a01b03881660208201526040810187905233606082015260800185600281111561111e5761111e613a3a565b815242602080830191909152604080830187905260609283018690528351600090815260a0835281902084518155918401516001830180546001600160a01b03199081166001600160a01b0393841617909155918501516002808501919091559385015160038401805493841691909216908117825560808601519596508695939491926001600160a81b0319161790600160a01b9084908111156111c5576111c5613a3a565b021790555060a082810151600483015560c0830151600583015560e09092015160069091015581516001600160a01b038816600090815260a1602090815260408083208a84528252808320939093553380835260a2825283832086518154600181018355918552929093209092015583519284015191517f65bb2aa85cdce53aad2c957d49a05b316b3fd7f2df8a168b528be35035f6e9c293611272938b928b918b918b91908b90613e2e565b60405180910390a1505050505050565b61128a612f82565b6001600160a01b0381166112b05760405162461bcd60e51b8152600401610a0090613e62565b6099546040517f6aca743edeb4e0ea2946d2ebfd5a2328eca6b0f0250566cf6003c1724aef3377916112ef9133916001600160a01b0316908590613e8b565b60405180910390a1609980546001600160a01b0319166001600160a01b0392909216919091179055565b611321612d61565b600082815260a06020526040902060018101546001600160a01b03166113595760405162461bcd60e51b8152600401610a0090613d50565b60038101546001600160a01b031633146113ad5760405162461bcd60e51b815260206004820152601560248201527429a427aaa6222fa122afa7a92222a92fa7aba722a960591b6044820152606401610a00565b428160060154116113f05760405162461bcd60e51b815260206004820152600d60248201526c13d491115497d1561412549151609a1b6044820152606401610a00565b600082116114315760405162461bcd60e51b815260206004820152600e60248201526d50524943455f4c54455f5a45524f60901b6044820152606401610a00565b600581015460408051338152602081018690528082019290925260608201849052517f80bfb1c2c88c39acd1902f520205cd407abd405310c1a96e5b7fa2dbec270b4e9181900360800190a160058101919091554260049091015550565b600061149c84848461301e565b6114ec5760006114ac8585612464565b60608101519091506001600160a01b03166114cb5760009150506114f0565b826001600160a01b031681606001516001600160a01b0316149150506114f0565b5060015b9392505050565b600080600061151d6103e8611517609e54876130a790919063ffffffff16565b90613126565b90508061152a8582612fdc565b9250925050915091565b60a4602052826000526040600020602052816000526040600020818154811061155c57600080fd5b9060005260206000200160009250925050505481565b60a2602052816000526040600020818154811061158e57600080fd5b90600052602060002001600091509150505481565b6115ab612f82565b6115b56000613168565b565b6001600160a01b038216600090815260a16020908152604080832084845290915290205415155b92915050565b6001600160a01b038316600090815260a260205260409020805460609190829085101561179f5760006116178587613eae565b83549091508111611628578061162b565b82545b90506116378682613ec6565b67ffffffffffffffff81111561164f5761164f613edd565b60405190808252806020026020018201604052801561168857816020015b61167561399e565b81526020019060019003908161166d5790505b50915060005b8187101561179c5760a060008589815481106116ac576116ac613d09565b6000918252602080832090910154835282810193909352604091820190208151610100810183528154815260018201546001600160a01b03908116948201949094526002808301549382019390935260038201549384166060820152929091608084019160ff600160a01b909104169081111561172b5761172b613a3a565b600281111561173c5761173c613a3a565b8152602001600482015481526020016005820154815260200160068201548152505083828151811061177057611770613d09565b6020026020010181905250868061178690613d35565b975050808061179490613d35565b91505061168e565b50505b95945050505050565b6117b0612f82565b6001600160a01b0381166117d65760405162461bcd60e51b8152600401610a0090613e62565b609b546040517fc6bc29e495f43077b898bfa29b8be68f4c836ccf780f9f7782f916dfd3874f15916118159133916001600160a01b0316908590613e8b565b60405180910390a1609b80546001600160a01b0319166001600160a01b0392909216919091179055565b6001600160a01b038316600090815260a4602090815260408083208584529091528120815b81548110156118d857836001600160a01b031660a3600084848154811061188d5761188d613d09565b600091825260208083209091015483528201929092526040019020600301546001600160a01b031614156118c6576001925050506114f0565b806118d081613d35565b915050611864565b50600095945050505050565b6118ec612f82565b6103e88111156119365760405162461bcd60e51b8152602060048201526015602482015274494e56414c49445f524f59414c54595f524154494f60581b6044820152606401610a00565b609f5460408051338152602081019290925281018290527fb9244459ced173945367be3d64fa5a4a1d91721bc816e5797c9d450280e0331a9060600160405180910390a1609f55565b611987612f82565b6001600160a01b0381166119ad5760405162461bcd60e51b8152600401610a0090613e62565b609a546040517f5debc9a579ebcaf3dcc7526051ee83a5686ec09736fd9aa41e7833ec368e5bb4916119ec9133916001600160a01b0316908590613e8b565b60405180910390a1609a80546001600160a01b0319166001600160a01b0392909216919091179055565b611a1e612d61565b6001600160a01b038516611a445760405162461bcd60e51b8152600401610a0090613e62565b611a4f85853361301e565b15611a9c5760405162461bcd60e51b815260206004820152601960248201527f43414e545f4d414b455f4f464645525f574954485f53454c46000000000000006044820152606401610a00565b611aa785853361183f565b15611ae55760405162461bcd60e51b815260206004820152600e60248201526d2420a9afa6a0a222afa7a32322a960911b6044820152606401610a00565b428111611b2c5760405162461bcd60e51b8152602060048201526015602482015274115614125490551253d397d513d3d317d4d3505313605a1b6044820152606401610a00565b60008211611b4c5760405162461bcd60e51b8152600401610a0090613d9b565b6000836002811115611b6057611b60613a3a565b1415611bcb5781341015611b865760405162461bcd60e51b8152600401610a0090613e02565b81341115611bc657336108fc611b9c3485612fdc565b6040518115909202916000818181858888f19350505050158015611bc4573d6000803e3d6000fd5b505b611cd5565b6001836002811115611bdf57611bdf613a3a565b1415611c5c576099546040516323b872dd60e01b81526001600160a01b03909116906323b872dd90611c1990339030908790600401613d77565b6020604051808303816000875af1158015611c38573d6000803e3d6000fd5b505050506040513d601f19601f82011682018060405250810190611bc49190613de0565b6098546040516323b872dd60e01b81526001600160a01b03909116906323b872dd90611c9090339030908790600401613d77565b6020604051808303816000875af1158015611caf573d6000803e3d6000fd5b505050506040513d601f19601f82011682018060405250810190611cd39190613de0565b505b6000604051806101000160405280609d6000815480929190611cf690613d35565b9091555081526001600160a01b038816602082015260408101879052336060820152608001856002811115611d2d57611d2d613a3a565b815260208082018690524260408084019190915260609283018690528351600090815260a3835281902084518155918401516001830180546001600160a01b03199081166001600160a01b0393841617909155918501516002808501919091559385015160038401805493841691909216908117825560808601519596508695939491926001600160a81b0319161790600160a01b908490811115611dd457611dd4613a3a565b021790555060a082810151600483015560c080840151600584015560e0938401516006909301929092556001600160a01b038916600090815260a4602090815260408083208b8452825280832087518154600181018355918552938390200192909255850151858201518651608088015194880151958801519688015193517f17e9690f1079f600c096a2dd7629be8e3c0588d103b8021355f041984b7285bd976112729733979596949593949092613e2e565b611e90612d61565b600081815260a36020526040902060018101546001600160a01b0316611ee85760405162461bcd60e51b815260206004820152600d60248201526c24a72b20a624a22fa7a32322a960991b6044820152606401610a00565b60038101546001600160a01b0316331415611f455760405162461bcd60e51b815260206004820152601860248201527f43414e545f4d414b455f4445414c5f574954485f53454c4600000000000000006044820152606401610a00565b42816006015411611f885760405162461bcd60e51b815260206004820152600d60248201526c13d191915497d1561412549151609a1b6044820152606401610a00565b60018101546002820154600091611faa916001600160a01b0390911690612464565b60608101519091506001600160a01b031661201a5760018201546002830154611fdd916001600160a01b0316903361301e565b6120155760405162461bcd60e51b81526020600482015260096024820152682727aa2fa7aba722a960b91b6044820152606401610a00565b612062565b60608101516001600160a01b031633146120625760405162461bcd60e51b81526020600482015260096024820152682727aa2fa7aba722a960b91b6044820152606401610a00565b60008061207284600401546114f7565b9092509050600061208383836131ba565b9050600061209e828760040154612fdc90919063ffffffff16565b905060006003870154600160a01b900460ff1660028111156120c2576120c2613a3a565b141561210657604051339082156108fc029083906000818181858888f193505050501580156120f5573d6000803e3d6000fd5b50612101600083613219565b612230565b60016003870154600160a01b900460ff16600281111561212857612128613a3a565b14156121af5760995460405163a9059cbb60e01b81526001600160a01b039091169063a9059cbb906121609033908590600401613dc7565b6020604051808303816000875af115801561217f573d6000803e3d6000fd5b505050506040513d601f19601f820116820180604052508101906121a39190613de0565b50612101600183613219565b60985460405163a9059cbb60e01b81526001600160a01b039091169063a9059cbb906121e19033908590600401613dc7565b6020604051808303816000875af1158015612200573d6000803e3d6000fd5b505050506040513d601f19601f820116820180604052508101906122249190613de0565b50612230600283613219565b60608501516001600160a01b03166122ba576001860154600387015460028801546040516323b872dd60e01b81526001600160a01b03938416936323b872dd936122839333939290911691600401613d77565b600060405180830381600087803b15801561229d57600080fd5b505af11580156122b1573d6000803e3d6000fd5b5050505061232e565b6001860154600387015460028801546040516323b872dd60e01b81526001600160a01b03938416936323b872dd936122fb9330939290911691600401613d77565b600060405180830381600087803b15801561231557600080fd5b505af1158015612329573d6000803e3d6000fd5b505050505b60038601546001870154600288015460048901546040517f51e5812fb8587a35a721431e37ba7556e9c1cdd1dbb37bb4d09018d4a684f9129461239394339485946001600160a01b03808516959316939192600160a01b90920460ff16918b90613ef3565b60405180910390a160608501516001600160a01b03163314156123bb5784516123bb90612da7565b6123c487613574565b50505050505050565b6123d5612f82565b6001600160a01b0381166123fb5760405162461bcd60e51b8152600401610a0090613e62565b6098546040517f55263a2c34e1ca945ec24e98ab7634dfbdea3867d19adaac6da2ad9381018d399161243a9133916001600160a01b0316908590613e8b565b60405180910390a1609880546001600160a01b0319166001600160a01b0392909216919091179055565b61246c61399e565b6001600160a01b03838116600090815260a160209081526040808320868452825280832054835260a08252918290208251610100810184528154815260018201548516928101929092526002808201549383019390935260038101549384166060830152909290916080840191600160a01b900460ff16908111156124f3576124f3613a3a565b600281111561250457612504613a3a565b815260048201546020820152600582015460408201526006909101546060909101529392505050565b612535612d61565b600081815260a06020526040902060018101546001600160a01b031661256d5760405162461bcd60e51b8152600401610a0090613d50565b60038101546001600160a01b03163314156125ca5760405162461bcd60e51b815260206004820152601960248201527f53484f554c445f4e4f545f42455f4f524445525f4f574e4552000000000000006044820152606401610a00565b4281600601541161260d5760405162461bcd60e51b815260206004820152600d60248201526c13d491115497d1561412549151609a1b6044820152606401610a00565b60008061261d83600501546114f7565b9092509050600061262e83836131ba565b90506000612649828660050154612fdc90919063ffffffff16565b905060006003860154600160a01b900460ff16600281111561266d5761266d613a3a565b14156127305784600501543410156126975760405162461bcd60e51b8152600401610a0090613e02565b60038501546040516001600160a01b039091169082156108fc029083906000818181858888f193505050501580156126d3573d6000803e3d6000fd5b506126df6000836136f9565b846005015434111561272b57600585015433906108fc90612701903490612fdc565b6040518115909202916000818181858888f19350505050158015612729573d6000803e3d6000fd5b505b61286c565b60016003860154600160a01b900460ff16600281111561275257612752613a3a565b14156127e25760995460038601546040516323b872dd60e01b81526001600160a01b03928316926323b872dd92612793923392909116908690600401613d77565b6020604051808303816000875af11580156127b2573d6000803e3d6000fd5b505050506040513d601f19601f820116820180604052508101906127d69190613de0565b5061272b6001836136f9565b60985460038601546040516323b872dd60e01b81526001600160a01b03928316926323b872dd9261281d923392909116908690600401613d77565b6020604051808303816000875af115801561283c573d6000803e3d6000fd5b505050506040513d601f19601f820116820180604052508101906128609190613de0565b5061286c6002836136f9565b600185015460028601546040516323b872dd60e01b81526001600160a01b03909216916323b872dd916128a59130913391600401613d77565b600060405180830381600087803b1580156128bf57600080fd5b505af11580156128d3573d6000803e3d6000fd5b50505060038601546001870154600288015460058901546040517f51e5812fb8587a35a721431e37ba7556e9c1cdd1dbb37bb4d09018d4a684f912955061293f9433946001600160a01b038083169587959290911693909260ff600160a01b9091041691908b90613ef3565b60405180910390a160018501546002860154600091829161296a916001600160a01b03169033610832565b91509150811561297f57805161297f90612992565b61298888612da7565b5050505050505050565b61299a612d61565b600081815260a36020526040902060038101546001600160a01b031633146129fc5760405162461bcd60e51b815260206004820152601560248201527429a427aaa6222fa122afa7a32322a92fa6a0a5a2a960591b6044820152606401610a00565b60006003820154600160a01b900460ff166002811115612a1e57612a1e613a3a565b1415612a6a57600381015460048201546040516001600160a01b039092169181156108fc0291906000818181858888f19350505050158015612a64573d6000803e3d6000fd5b50612b90565b60016003820154600160a01b900460ff166002811115612a8c57612a8c613a3a565b1415612b1057609954600382015460048084015460405163a9059cbb60e01b81526001600160a01b039485169463a9059cbb94612acd949116929101613dc7565b6020604051808303816000875af1158015612aec573d6000803e3d6000fd5b505050506040513d601f19601f82011682018060405250810190612a649190613de0565b609854600382015460048084015460405163a9059cbb60e01b81526001600160a01b039485169463a9059cbb94612b4b949116929101613dc7565b6020604051808303816000875af1158015612b6a573d6000803e3d6000fd5b505050506040513d601f19601f82011682018060405250810190612b8e9190613de0565b505b610ad982613574565b612ba1612f82565b6001600160a01b038116612c065760405162461bcd60e51b815260206004820152602660248201527f4f776e61626c653a206e6577206f776e657220697320746865207a65726f206160448201526564647265737360d01b6064820152608401610a00565b612c0f81613168565b50565b600054600190610100900460ff16158015612c34575060005460ff8083169116105b612c975760405162461bcd60e51b815260206004820152602e60248201527f496e697469616c697a61626c653a20636f6e747261637420697320616c72656160448201526d191e481a5b9a5d1a585b1a5e995960921b6064820152608401610a00565b6000805461ffff191660ff831617610100179055609780546001600160a01b038085166001600160a01b031992831617909255609a80548884169083161790556098805487841690831617905560998054928616929091169190911790556001609c819055609d556019609e55604b609f55612d1161387e565b612d196138ad565b6000805461ff001916905560405160ff821681527f7f26b83ff96e1f2b6a682f133852f6798a09c465da95921460cefb38474024989060200160405180910390a15050505050565b60655460ff16156115b55760405162461bcd60e51b815260206004820152601060248201526f14185d5cd8589b194e881c185d5cd95960821b6044820152606401610a00565b600081815260a06020526040902060018101546001600160a01b0316612ddf5760405162461bcd60e51b8152600401610a0090613d50565b60038101546001600160a01b0316600090815260a260205260408120905b8154811015612ec8578360a06000848481548110612e1d57612e1d613d09565b90600052602060002001548152602001908152602001600020600001541415612eb65781548290612e5090600190613ec6565b81548110612e6057612e60613d09565b9060005260206000200154828281548110612e7d57612e7d613d09565b906000526020600020018190555081805480612e9b57612e9b613f46565b60019003818190600052602060002001600090559055612ec8565b80612ec081613d35565b915050612dfd565b50600083815260a060209081526040808320838155600180820180546001600160a01b031916905560028083018690556003830180546001600160a81b0319169055600483018690556005830186905560069092018590558601546001600160a01b0316845260a1835281842090860154845290915280822091909155517f7cd0e59220608af7c85ce462315f844545ceec744e00c7ab40f8c5a42c2e829f90612f759033908690613dc7565b60405180910390a1505050565b6033546001600160a01b031633146115b55760405162461bcd60e51b815260206004820181905260248201527f4f776e61626c653a2063616c6c6572206973206e6f7420746865206f776e65726044820152606401610a00565b60006114f083836040518060400160405280601e81526020017f536166654d6174683a207375627472616374696f6e206f766572666c6f7700008152506138dc565b6040516331a9108f60e11b8152600481018390526000906001600160a01b03851690636352211e90602401602060405180830381865afa158015613066573d6000803e3d6000fd5b505050506040513d601f19601f8201168201806040525081019061308a9190613f5c565b6001600160a01b0316826001600160a01b03161490509392505050565b6000826130b6575060006115de565b60006130c28385613f79565b9050826130cf8583613f98565b146114f05760405162461bcd60e51b815260206004820152602160248201527f536166654d6174683a206d756c7469706c69636174696f6e206f766572666c6f6044820152607760f81b6064820152608401610a00565b60006114f083836040518060400160405280601a81526020017f536166654d6174683a206469766973696f6e206279207a65726f00000000000081525061390d565b603380546001600160a01b038381166001600160a01b0319831681179093556040519116919082907f8be0079c531659141344cd1fd0a4f28419497f9722a3daafe3b4186f6b6457e090600090a35050565b6000806131c78385613eae565b9050838110156114f05760405162461bcd60e51b815260206004820152601b60248201527f536166654d6174683a206164646974696f6e206f766572666c6f7700000000006044820152606401610a00565b600082600281111561322d5761322d613a3a565b141561331e57609b546001600160a01b0316156132df57609b546040516001600160a01b039091169082156108fc029083906000818181858888f1935050505015801561327e573d6000803e3d6000fd5b50609b5460405163340e59a160e01b8152600481018390526001600160a01b039091169063340e59a1906024015b600060405180830381600087803b1580156132c657600080fd5b505af19250505080156132d7575060015b610ad9575050565b6097546040516001600160a01b039091169082156108fc029083906000818181858888f19350505050158015613319573d6000803e3d6000fd5b505050565b600182600281111561333257613332613a3a565b141561346d57609b546001600160a01b0316156133f457609954609b5460405163a9059cbb60e01b81526001600160a01b039283169263a9059cbb9261337f929116908590600401613dc7565b6020604051808303816000875af115801561339e573d6000803e3d6000fd5b505050506040513d601f19601f820116820180604052508101906133c29190613de0565b50609b5460405163890967dd60e01b8152600481018390526001600160a01b039091169063890967dd906024016132ac565b60995460975460405163a9059cbb60e01b81526001600160a01b039283169263a9059cbb9261342a929116908590600401613dc7565b6020604051808303816000875af1158015613449573d6000803e3d6000fd5b505050506040513d601f19601f820116820180604052508101906133199190613de0565b609b546001600160a01b03161561353e57609854609b5460405163a9059cbb60e01b81526001600160a01b039283169263a9059cbb926134b4929116908590600401613dc7565b6020604051808303816000875af11580156134d3573d6000803e3d6000fd5b505050506040513d601f19601f820116820180604052508101906134f79190613de0565b50609b5460405163fad288df60e01b8152600481018390526001600160a01b039091169063fad288df90602401600060405180830381600087803b1580156132c657600080fd5b60985460975460405163a9059cbb60e01b81526001600160a01b039283169263a9059cbb9261342a929116908590600401613dc7565b600081815260a36020908152604080832060018101546001600160a01b0316845260a4835281842060028201548552909252822090915b8154811015613676578360a360008484815481106135cb576135cb613d09565b9060005260206000200154815260200190815260200160002060000154141561366457815482906135fe90600190613ec6565b8154811061360e5761360e613d09565b906000526020600020015482828154811061362b5761362b613d09565b90600052602060002001819055508180548061364957613649613f46565b60019003818190600052602060002001600090559055613676565b8061366e81613d35565b9150506135ab565b50600083815260a360205260408082208281556001810180546001600160a01b0319169055600281018390556003810180546001600160a81b0319169055600481018390556005810183905560060191909155517fdea570bb3f4c454d84d0e1dd20f9c155901284eaaf86e5d61ea837d31629fb4790612f759033908690613dc7565b600082600281111561370d5761370d613a3a565b141561375e57609b546001600160a01b0316156132df57609b546040516001600160a01b039091169082156108fc029083906000818181858888f1935050505015801561327e573d6000803e3d6000fd5b600182600281111561377257613772613a3a565b14156137fb57609b546001600160a01b0316156137c257609954609b546040516323b872dd60e01b81526001600160a01b03928316926323b872dd9261337f923392909116908690600401613d77565b6099546097546040516323b872dd60e01b81526001600160a01b03928316926323b872dd9261342a923392909116908690600401613d77565b609b546001600160a01b03161561384557609854609b546040516323b872dd60e01b81526001600160a01b03928316926323b872dd926134b4923392909116908690600401613d77565b6098546097546040516323b872dd60e01b81526001600160a01b03928316926323b872dd9261342a923392909116908690600401613d77565b600054610100900460ff166138a55760405162461bcd60e51b8152600401610a0090613fba565b6115b561393b565b600054610100900460ff166138d45760405162461bcd60e51b8152600401610a0090613fba565b6115b561396e565b600081848411156139005760405162461bcd60e51b8152600401610a009190614005565b50600061179f8486613ec6565b6000818361392e5760405162461bcd60e51b8152600401610a009190614005565b50600061179f8486613f98565b600054610100900460ff166139625760405162461bcd60e51b8152600401610a0090613fba565b6065805460ff19169055565b600054610100900460ff166139955760405162461bcd60e51b8152600401610a0090613fba565b6115b533613168565b60408051610100810182526000808252602082018190529181018290526060810182905290608082019081526020016000815260200160008152602001600081525090565b6001600160a01b0381168114612c0f57600080fd5b600080600060608486031215613a0d57600080fd5b8335613a18816139e3565b9250602084013591506040840135613a2f816139e3565b809150509250925092565b634e487b7160e01b600052602160045260246000fd5b60038110613a6e57634e487b7160e01b600052602160045260246000fd5b9052565b80518252602081015160018060a01b0380821660208501526040830151604085015280606084015116606085015250506080810151613ab46080840182613a50565b5060a081015160a083015260c081015160c083015260e081015160e08301525050565b821515815261012081016114f06020830184613a72565b600060208284031215613b0057600080fd5b5035919050565b60008060408385031215613b1a57600080fd5b50508035926020909101359150565b600080600080600060a08688031215613b4157600080fd5b8535613b4c816139e3565b945060208601359350604086013560038110613b6757600080fd5b94979396509394606081013594506080013592915050565b600060208284031215613b9157600080fd5b81356114f0816139e3565b600080600060608486031215613bb157600080fd5b8335613bbc816139e3565b95602085013595506040909401359392505050565b60008060408385031215613be457600080fd5b8235613bef816139e3565b946020939093013593505050565b6020808252825182820181905260009190848201906040850190845b81811015613c4057613c2c838551613a72565b928401926101009290920191600101613c19565b50909695505050505050565b8881526001600160a01b03888116602083015260408201889052861660608201526101008101613c7f6080830187613a50565b8460a08301528360c08301528260e08301529998505050505050505050565b61010081016115de8284613a72565b60008060008060808587031215613cc357600080fd5b8435613cce816139e3565b93506020850135613cde816139e3565b92506040850135613cee816139e3565b91506060850135613cfe816139e3565b939692955090935050565b634e487b7160e01b600052603260045260246000fd5b634e487b7160e01b600052601160045260246000fd5b6000600019821415613d4957613d49613d1f565b5060010190565b6020808252600d908201526c24a72b20a624a22fa7a92222a960991b604082015260600190565b6001600160a01b039384168152919092166020820152604081019190915260600190565b602080825260129082015271282924a1a2afa727aa2fa122afad22a927a960711b604082015260600190565b6001600160a01b03929092168252602082015260400190565b600060208284031215613df257600080fd5b815180151581146114f057600080fd5b602080825260129082015271494e53554646494349454e545f46554e445360701b604082015260600190565b6001600160a01b0389811682528816602082015260408101879052606081018690526101008101613c7f6080830187613a50565b6020808252600f908201526e494e56414c49445f4144445245535360881b604082015260600190565b6001600160a01b0393841681529183166020830152909116604082015260600190565b60008219821115613ec157613ec1613d1f565b500190565b600082821015613ed857613ed8613d1f565b500390565b634e487b7160e01b600052604160045260246000fd5b6001600160a01b0389811682528881166020830152878116604083015286166060820152608081018590526101008101613f3060a0830186613a50565b60c082019390935260e001529695505050505050565b634e487b7160e01b600052603160045260246000fd5b600060208284031215613f6e57600080fd5b81516114f0816139e3565b6000816000190483118215151615613f9357613f93613d1f565b500290565b600082613fb557634e487b7160e01b600052601260045260246000fd5b500490565b6020808252602b908201527f496e697469616c697a61626c653a20636f6e7472616374206973206e6f74206960408201526a6e697469616c697a696e6760a81b606082015260800190565b600060208083528351808285015260005b8181101561403257858101830151858201604001528201614016565b81811115614044576000604083870101525b50601f01601f191692909201604001939250505056fea2646970667358221220ed05ba8a8a85fd9c5c4739450587030153b33332e6ae88a3190c8181a379c65164736f6c634300080b0033",
  "linkReferences": {},
  "deployedLinkReferences": {}
}