{
  "_format": "hh-sol-artifact-1",
  "contractName": "SoccerStarNftMarket",
  "sourceName": "contracts/market/SoccerStarNftMarket.sol",
  "abi": [
    {
      "anonymous": false,
      "inputs": [
        {
          "indexed": false,
          "internalType": "address",
          "name": "sender",
          "type": "address"
        },
        {
          "indexed": false,
          "internalType": "address",
          "name": "oldValue",
          "type": "address"
        },
        {
          "indexed": false,
          "internalType": "address",
          "name": "newValue",
          "type": "address"
        }
      ],
      "name": "BIBContractChanged",
      "type": "event"
    },
    {
      "anonymous": false,
      "inputs": [
        {
          "indexed": false,
          "internalType": "address",
          "name": "sender",
          "type": "address"
        },
        {
          "indexed": false,
          "internalType": "address",
          "name": "oldValue",
          "type": "address"
        },
        {
          "indexed": false,
          "internalType": "address",
          "name": "newValue",
          "type": "address"
        }
      ],
      "name": "BUSDContractChanged",
      "type": "event"
    },
    {
      "anonymous": false,
      "inputs": [
        {
          "indexed": false,
          "internalType": "address",
          "name": "sender",
          "type": "address"
        },
        {
          "indexed": false,
          "internalType": "uint256",
          "name": "offerId",
          "type": "uint256"
        }
      ],
      "name": "CancelOffer",
      "type": "event"
    },
    {
      "anonymous": false,
      "inputs": [
        {
          "indexed": false,
          "internalType": "address",
          "name": "sender",
          "type": "address"
        },
        {
          "indexed": false,
          "internalType": "uint256",
          "name": "orderId",
          "type": "uint256"
        }
      ],
      "name": "CloseOrder",
      "type": "event"
    },
    {
      "anonymous": false,
      "inputs": [
        {
          "indexed": false,
          "internalType": "address",
          "name": "sender",
          "type": "address"
        },
        {
          "indexed": false,
          "internalType": "address",
          "name": "oldValue",
          "type": "address"
        },
        {
          "indexed": false,
          "internalType": "address",
          "name": "newValue",
          "type": "address"
        }
      ],
      "name": "FeeCollectorChanged",
      "type": "event"
    },
    {
      "anonymous": false,
      "inputs": [
        {
          "indexed": false,
          "internalType": "address",
          "name": "sender",
          "type": "address"
        },
        {
          "indexed": false,
          "internalType": "uint256",
          "name": "oldValue",
          "type": "uint256"
        },
        {
          "indexed": false,
          "internalType": "uint256",
          "name": "newValue",
          "type": "uint256"
        }
      ],
      "name": "FeeRatioChanged",
      "type": "event"
    },
    {
      "anonymous": false,
      "inputs": [
        {
          "indexed": false,
          "internalType": "uint8",
          "name": "version",
          "type": "uint8"
        }
      ],
      "name": "Initialized",
      "type": "event"
    },
    {
      "anonymous": false,
      "inputs": [
        {
          "indexed": false,
          "internalType": "address",
          "name": "sender",
          "type": "address"
        },
        {
          "indexed": false,
          "internalType": "address",
          "name": "owner",
          "type": "address"
        },
        {
          "indexed": false,
          "internalType": "address",
          "name": "buyer",
          "type": "address"
        },
        {
          "indexed": false,
          "internalType": "address",
          "name": "issuer",
          "type": "address"
        },
        {
          "indexed": false,
          "internalType": "uint256",
          "name": "tokenId",
          "type": "uint256"
        },
        {
          "indexed": false,
          "internalType": "enum ISoccerStarNftMarket.PayMethod",
          "name": "payMethod",
          "type": "uint8"
        },
        {
          "indexed": false,
          "internalType": "uint256",
          "name": "price",
          "type": "uint256"
        },
        {
          "indexed": false,
          "internalType": "uint256",
          "name": "fee",
          "type": "uint256"
        }
      ],
      "name": "MakeDeal",
      "type": "event"
    },
    {
      "anonymous": false,
      "inputs": [
        {
          "indexed": false,
          "internalType": "address",
          "name": "sender",
          "type": "address"
        },
        {
          "indexed": false,
          "internalType": "address",
          "name": "issuer",
          "type": "address"
        },
        {
          "indexed": false,
          "internalType": "uint256",
          "name": "tokenId",
          "type": "uint256"
        },
        {
          "indexed": false,
          "internalType": "uint256",
          "name": "offerId",
          "type": "uint256"
        },
        {
          "indexed": false,
          "internalType": "enum ISoccerStarNftMarket.PayMethod",
          "name": "payMethod",
          "type": "uint8"
        },
        {
          "indexed": false,
          "internalType": "uint256",
          "name": "price",
          "type": "uint256"
        },
        {
          "indexed": false,
          "internalType": "uint256",
          "name": "mt",
          "type": "uint256"
        },
        {
          "indexed": false,
          "internalType": "uint256",
          "name": "expiration",
          "type": "uint256"
        }
      ],
      "name": "MakeOffer",
      "type": "event"
    },
    {
      "anonymous": false,
      "inputs": [
        {
          "indexed": false,
          "internalType": "address",
          "name": "sender",
          "type": "address"
        },
        {
          "indexed": false,
          "internalType": "address",
          "name": "issuer",
          "type": "address"
        },
        {
          "indexed": false,
          "internalType": "uint256",
          "name": "orderId",
          "type": "uint256"
        },
        {
          "indexed": false,
          "internalType": "uint256",
          "name": "tokenId",
          "type": "uint256"
        },
        {
          "indexed": false,
          "internalType": "enum ISoccerStarNftMarket.PayMethod",
          "name": "payMethod",
          "type": "uint8"
        },
        {
          "indexed": false,
          "internalType": "uint256",
          "name": "price",
          "type": "uint256"
        },
        {
          "indexed": false,
          "internalType": "uint256",
          "name": "mt",
          "type": "uint256"
        },
        {
          "indexed": false,
          "internalType": "uint256",
          "name": "expiration",
          "type": "uint256"
        }
      ],
      "name": "OpenOrder",
      "type": "event"
    },
    {
      "anonymous": false,
      "inputs": [
        {
          "indexed": true,
          "internalType": "address",
          "name": "previousOwner",
          "type": "address"
        },
        {
          "indexed": true,
          "internalType": "address",
          "name": "newOwner",
          "type": "address"
        }
      ],
      "name": "OwnershipTransferred",
      "type": "event"
    },
    {
      "anonymous": false,
      "inputs": [
        {
          "indexed": false,
          "internalType": "address",
          "name": "account",
          "type": "address"
        }
      ],
      "name": "Paused",
      "type": "event"
    },
    {
      "anonymous": false,
      "inputs": [
        {
          "indexed": false,
          "internalType": "address",
          "name": "sender",
          "type": "address"
        },
        {
          "indexed": false,
          "internalType": "uint256",
          "name": "oldValue",
          "type": "uint256"
        },
        {
          "indexed": false,
          "internalType": "uint256",
          "name": "newValue",
          "type": "uint256"
        }
      ],
      "name": "RoyaltyRatioChanged",
      "type": "event"
    },
    {
      "anonymous": false,
      "inputs": [
        {
          "indexed": false,
          "internalType": "address",
          "name": "sender",
          "type": "address"
        },
        {
          "indexed": false,
          "internalType": "address",
          "name": "oldValue",
          "type": "address"
        },
        {
          "indexed": false,
          "internalType": "address",
          "name": "newValue",
          "type": "address"
        }
      ],
      "name": "TokenContractChanged",
      "type": "event"
    },
    {
      "anonymous": false,
      "inputs": [
        {
          "indexed": false,
          "internalType": "address",
          "name": "account",
          "type": "address"
        }
      ],
      "name": "Unpaused",
      "type": "event"
    },
    {
      "anonymous": false,
      "inputs": [
        {
          "indexed": false,
          "internalType": "address",
          "name": "sender",
          "type": "address"
        },
        {
          "indexed": false,
          "internalType": "uint256",
          "name": "offerId",
          "type": "uint256"
        },
        {
          "indexed": false,
          "internalType": "uint256",
          "name": "oldPrice",
          "type": "uint256"
        },
        {
          "indexed": false,
          "internalType": "uint256",
          "name": "newPrice",
          "type": "uint256"
        }
      ],
      "name": "UpdateOfferPrice",
      "type": "event"
    },
    {
      "anonymous": false,
      "inputs": [
        {
          "indexed": false,
          "internalType": "address",
          "name": "sender",
          "type": "address"
        },
        {
          "indexed": false,
          "internalType": "uint256",
          "name": "orderId",
          "type": "uint256"
        },
        {
          "indexed": false,
          "internalType": "uint256",
          "name": "oldPrice",
          "type": "uint256"
        },
        {
          "indexed": false,
          "internalType": "uint256",
          "name": "newPrice",
          "type": "uint256"
        }
      ],
      "name": "UpdateOrderPrice",
      "type": "event"
    },
    {
      "inputs": [],
      "name": "FEE_RATIO_DIV",
      "outputs": [
        {
          "internalType": "uint256",
          "name": "",
          "type": "uint256"
        }
      ],
      "stateMutability": "view",
      "type": "function"
    },
    {
      "inputs": [
        {
          "internalType": "uint256",
          "name": "offerId",
          "type": "uint256"
        }
      ],
      "name": "acceptOffer",
      "outputs": [],
      "stateMutability": "payable",
      "type": "function"
    },
    {
      "inputs": [
        {
          "internalType": "uint256",
          "name": "orderId",
          "type": "uint256"
        }
      ],
      "name": "acceptOrder",
      "outputs": [],
      "stateMutability": "payable",
      "type": "function"
    },
    {
      "inputs": [],
      "name": "bibContract",
      "outputs": [
        {
          "internalType": "contract IERC20",
          "name": "",
          "type": "address"
        }
      ],
      "stateMutability": "view",
      "type": "function"
    },
    {
      "inputs": [],
      "name": "busdContract",
      "outputs": [
        {
          "internalType": "contract IERC20",
          "name": "",
          "type": "address"
        }
      ],
      "stateMutability": "view",
      "type": "function"
    },
    {
      "inputs": [
        {
          "internalType": "uint256",
          "name": "amount",
          "type": "uint256"
        }
      ],
      "name": "caculateFees",
      "outputs": [
        {
          "internalType": "uint256",
          "name": "",
          "type": "uint256"
        },
        {
          "internalType": "uint256",
          "name": "",
          "type": "uint256"
        }
      ],
      "stateMutability": "view",
      "type": "function"
    },
    {
      "inputs": [
        {
          "internalType": "address",
          "name": "issuer",
          "type": "address"
        }
      ],
      "name": "cancelAllOffersByIssuer",
      "outputs": [],
      "stateMutability": "nonpayable",
      "type": "function"
    },
    {
      "inputs": [
        {
          "internalType": "uint256",
          "name": "offerId",
          "type": "uint256"
        }
      ],
      "name": "cancelOffer",
      "outputs": [],
      "stateMutability": "nonpayable",
      "type": "function"
    },
    {
      "inputs": [
        {
          "internalType": "uint256",
          "name": "orderId",
          "type": "uint256"
        }
      ],
      "name": "closeOrder",
      "outputs": [],
      "stateMutability": "nonpayable",
      "type": "function"
    },
    {
      "inputs": [],
      "name": "feeCollector",
      "outputs": [
        {
          "internalType": "contract IFeeCollector",
          "name": "",
          "type": "address"
        }
      ],
      "stateMutability": "view",
      "type": "function"
    },
    {
      "inputs": [],
      "name": "feeRatio",
      "outputs": [
        {
          "internalType": "uint256",
          "name": "",
          "type": "uint256"
        }
      ],
      "stateMutability": "view",
      "type": "function"
    },
    {
      "inputs": [],
      "name": "getBlockTime",
      "outputs": [
        {
          "internalType": "uint256",
          "name": "",
          "type": "uint256"
        }
      ],
      "stateMutability": "view",
      "type": "function"
    },
    {
      "inputs": [
        {
          "internalType": "address",
          "name": "issuer",
          "type": "address"
        },
        {
          "internalType": "uint256",
          "name": "tokenId",
          "type": "uint256"
        },
        {
          "internalType": "address",
          "name": "user",
          "type": "address"
        }
      ],
      "name": "getOffer",
      "outputs": [
        {
          "internalType": "bool",
          "name": "",
          "type": "bool"
        },
        {
          "components": [
            {
              "internalType": "uint256",
              "name": "offerId",
              "type": "uint256"
            },
            {
              "internalType": "address",
              "name": "issuer",
              "type": "address"
            },
            {
              "internalType": "uint256",
              "name": "tokenId",
              "type": "uint256"
            },
            {
              "internalType": "address",
              "name": "buyer",
              "type": "address"
            },
            {
              "internalType": "enum ISoccerStarNftMarket.PayMethod",
              "name": "payMethod",
              "type": "uint8"
            },
            {
              "internalType": "uint256",
              "name": "bid",
              "type": "uint256"
            },
            {
              "internalType": "uint256",
              "name": "mt",
              "type": "uint256"
            },
            {
              "internalType": "uint256",
              "name": "expiration",
              "type": "uint256"
            }
          ],
          "internalType": "struct ISoccerStarNftMarket.Offer",
          "name": "",
          "type": "tuple"
        }
      ],
      "stateMutability": "view",
      "type": "function"
    },
    {
      "inputs": [
        {
          "internalType": "address",
          "name": "issuer",
          "type": "address"
        },
        {
          "internalType": "uint256",
          "name": "tokenId",
          "type": "uint256"
        }
      ],
      "name": "getOrder",
      "outputs": [
        {
          "components": [
            {
              "internalType": "uint256",
              "name": "orderId",
              "type": "uint256"
            },
            {
              "internalType": "address",
              "name": "issuer",
              "type": "address"
            },
            {
              "internalType": "uint256",
              "name": "tokenId",
              "type": "uint256"
            },
            {
              "internalType": "address",
              "name": "owner",
              "type": "address"
            },
            {
              "internalType": "enum ISoccerStarNftMarket.PayMethod",
              "name": "payMethod",
              "type": "uint8"
            },
            {
              "internalType": "uint256",
              "name": "mt",
              "type": "uint256"
            },
            {
              "internalType": "uint256",
              "name": "price",
              "type": "uint256"
            },
            {
              "internalType": "uint256",
              "name": "expiration",
              "type": "uint256"
            }
          ],
          "internalType": "struct ISoccerStarNftMarket.Order",
          "name": "",
          "type": "tuple"
        }
      ],
      "stateMutability": "view",
      "type": "function"
    },
    {
      "inputs": [
        {
          "internalType": "address",
          "name": "user",
          "type": "address"
        },
        {
          "internalType": "uint256",
          "name": "pageSt",
          "type": "uint256"
        },
        {
          "internalType": "uint256",
          "name": "pageSz",
          "type": "uint256"
        }
      ],
      "name": "getUserOrdersByPage",
      "outputs": [
        {
          "components": [
            {
              "internalType": "uint256",
              "name": "orderId",
              "type": "uint256"
            },
            {
              "internalType": "address",
              "name": "issuer",
              "type": "address"
            },
            {
              "internalType": "uint256",
              "name": "tokenId",
              "type": "uint256"
            },
            {
              "internalType": "address",
              "name": "owner",
              "type": "address"
            },
            {
              "internalType": "enum ISoccerStarNftMarket.PayMethod",
              "name": "payMethod",
              "type": "uint8"
            },
            {
              "internalType": "uint256",
              "name": "mt",
              "type": "uint256"
            },
            {
              "internalType": "uint256",
              "name": "price",
              "type": "uint256"
            },
            {
              "internalType": "uint256",
              "name": "expiration",
              "type": "uint256"
            }
          ],
          "internalType": "struct ISoccerStarNftMarket.Order[]",
          "name": "",
          "type": "tuple[]"
        }
      ],
      "stateMutability": "view",
      "type": "function"
    },
    {
      "inputs": [
        {
          "internalType": "address",
          "name": "issuer",
          "type": "address"
        },
        {
          "internalType": "uint256",
          "name": "tokenId",
          "type": "uint256"
        },
        {
          "internalType": "address",
          "name": "user",
          "type": "address"
        }
      ],
      "name": "hasOffer",
      "outputs": [
        {
          "internalType": "bool",
          "name": "",
          "type": "bool"
        }
      ],
      "stateMutability": "view",
      "type": "function"
    },
    {
      "inputs": [
        {
          "internalType": "address",
          "name": "issuer",
          "type": "address"
        },
        {
          "internalType": "uint256",
          "name": "tokenId",
          "type": "uint256"
        }
      ],
      "name": "hasOrder",
      "outputs": [
        {
          "internalType": "bool",
          "name": "",
          "type": "bool"
        }
      ],
      "stateMutability": "view",
      "type": "function"
    },
    {
      "inputs": [
        {
          "internalType": "address",
          "name": "_tokenContract",
          "type": "address"
        },
        {
          "internalType": "address",
          "name": "_bibContract",
          "type": "address"
        },
        {
          "internalType": "address",
          "name": "_busdContract",
          "type": "address"
        },
        {
          "internalType": "address",
          "name": "_treasury",
          "type": "address"
        }
      ],
      "name": "initialize",
      "outputs": [],
      "stateMutability": "nonpayable",
      "type": "function"
    },
    {
      "inputs": [
        {
          "internalType": "address",
          "name": "issuer",
          "type": "address"
        },
        {
          "internalType": "uint256",
          "name": "tokenId",
          "type": "uint256"
        },
        {
          "internalType": "address",
          "name": "owner",
          "type": "address"
        }
      ],
      "name": "isOriginOwner",
      "outputs": [
        {
          "internalType": "bool",
          "name": "",
          "type": "bool"
        }
      ],
      "stateMutability": "view",
      "type": "function"
    },
    {
      "inputs": [
        {
          "internalType": "address",
          "name": "issuer",
          "type": "address"
        },
        {
          "internalType": "uint256",
          "name": "tokenId",
          "type": "uint256"
        },
        {
          "internalType": "enum ISoccerStarNftMarket.PayMethod",
          "name": "payMethod",
          "type": "uint8"
        },
        {
          "internalType": "uint256",
          "name": "price",
          "type": "uint256"
        },
        {
          "internalType": "uint256",
          "name": "expiration",
          "type": "uint256"
        }
      ],
      "name": "makeOffer",
      "outputs": [],
      "stateMutability": "payable",
      "type": "function"
    },
    {
      "inputs": [],
      "name": "nextOfferIndex",
      "outputs": [
        {
          "internalType": "uint256",
          "name": "",
          "type": "uint256"
        }
      ],
      "stateMutability": "view",
      "type": "function"
    },
    {
      "inputs": [],
      "name": "nextOrderIndex",
      "outputs": [
        {
          "internalType": "uint256",
          "name": "",
          "type": "uint256"
        }
      ],
      "stateMutability": "view",
      "type": "function"
    },
    {
      "inputs": [
        {
          "internalType": "uint256",
          "name": "",
          "type": "uint256"
        }
      ],
      "name": "offerTb",
      "outputs": [
        {
          "internalType": "uint256",
          "name": "offerId",
          "type": "uint256"
        },
        {
          "internalType": "address",
          "name": "issuer",
          "type": "address"
        },
        {
          "internalType": "uint256",
          "name": "tokenId",
          "type": "uint256"
        },
        {
          "internalType": "address",
          "name": "buyer",
          "type": "address"
        },
        {
          "internalType": "enum ISoccerStarNftMarket.PayMethod",
          "name": "payMethod",
          "type": "uint8"
        },
        {
          "internalType": "uint256",
          "name": "bid",
          "type": "uint256"
        },
        {
          "internalType": "uint256",
          "name": "mt",
          "type": "uint256"
        },
        {
          "internalType": "uint256",
          "name": "expiration",
          "type": "uint256"
        }
      ],
      "stateMutability": "view",
      "type": "function"
    },
    {
      "inputs": [
        {
          "internalType": "address",
          "name": "issuer",
          "type": "address"
        },
        {
          "internalType": "uint256",
          "name": "tokenId",
          "type": "uint256"
        },
        {
          "internalType": "enum ISoccerStarNftMarket.PayMethod",
          "name": "payMethod",
          "type": "uint8"
        },
        {
          "internalType": "uint256",
          "name": "price",
          "type": "uint256"
        },
        {
          "internalType": "uint256",
          "name": "expiration",
          "type": "uint256"
        }
      ],
      "name": "openOrder",
      "outputs": [],
      "stateMutability": "payable",
      "type": "function"
    },
    {
      "inputs": [
        {
          "internalType": "uint256",
          "name": "",
          "type": "uint256"
        }
      ],
      "name": "orderTb",
      "outputs": [
        {
          "internalType": "uint256",
          "name": "orderId",
          "type": "uint256"
        },
        {
          "internalType": "address",
          "name": "issuer",
          "type": "address"
        },
        {
          "internalType": "uint256",
          "name": "tokenId",
          "type": "uint256"
        },
        {
          "internalType": "address",
          "name": "owner",
          "type": "address"
        },
        {
          "internalType": "enum ISoccerStarNftMarket.PayMethod",
          "name": "payMethod",
          "type": "uint8"
        },
        {
          "internalType": "uint256",
          "name": "mt",
          "type": "uint256"
        },
        {
          "internalType": "uint256",
          "name": "price",
          "type": "uint256"
        },
        {
          "internalType": "uint256",
          "name": "expiration",
          "type": "uint256"
        }
      ],
      "stateMutability": "view",
      "type": "function"
    },
    {
      "inputs": [],
      "name": "owner",
      "outputs": [
        {
          "internalType": "address",
          "name": "",
          "type": "address"
        }
      ],
      "stateMutability": "view",
      "type": "function"
    },
    {
      "inputs": [],
      "name": "paused",
      "outputs": [
        {
          "internalType": "bool",
          "name": "",
          "type": "bool"
        }
      ],
      "stateMutability": "view",
      "type": "function"
    },
    {
      "inputs": [],
      "name": "renounceOwnership",
      "outputs": [],
      "stateMutability": "nonpayable",
      "type": "function"
    },
    {
      "inputs": [],
      "name": "royaltyRatio",
      "outputs": [
        {
          "internalType": "uint256",
          "name": "",
          "type": "uint256"
        }
      ],
      "stateMutability": "view",
      "type": "function"
    },
    {
      "inputs": [
        {
          "internalType": "address",
          "name": "_bibContract",
          "type": "address"
        }
      ],
      "name": "setBIBContract",
      "outputs": [],
      "stateMutability": "nonpayable",
      "type": "function"
    },
    {
      "inputs": [
        {
          "internalType": "address",
          "name": "_busdContract",
          "type": "address"
        }
      ],
      "name": "setBUSDContract",
      "outputs": [],
      "stateMutability": "nonpayable",
      "type": "function"
    },
    {
      "inputs": [
        {
          "internalType": "address",
          "name": "_feeCollector",
          "type": "address"
        }
      ],
      "name": "setFeeCollector",
      "outputs": [],
      "stateMutability": "nonpayable",
      "type": "function"
    },
    {
      "inputs": [
        {
          "internalType": "uint256",
          "name": "_feeRatio",
          "type": "uint256"
        }
      ],
      "name": "setFeeRatio",
      "outputs": [],
      "stateMutability": "nonpayable",
      "type": "function"
    },
    {
      "inputs": [
        {
          "internalType": "uint256",
          "name": "_royaltyRatio",
          "type": "uint256"
        }
      ],
      "name": "setRoyaltyRatio",
      "outputs": [],
      "stateMutability": "nonpayable",
      "type": "function"
    },
    {
      "inputs": [
        {
          "internalType": "address",
          "name": "_tokenContract",
          "type": "address"
        }
      ],
      "name": "setTokenContract",
      "outputs": [],
      "stateMutability": "nonpayable",
      "type": "function"
    },
    {
      "inputs": [],
      "name": "tokenContract",
      "outputs": [
        {
          "internalType": "contract ISoccerStarNft",
          "name": "",
          "type": "address"
        }
      ],
      "stateMutability": "view",
      "type": "function"
    },
    {
      "inputs": [
        {
          "internalType": "address",
          "name": "",
          "type": "address"
        },
        {
          "internalType": "uint256",
          "name": "",
          "type": "uint256"
        },
        {
          "internalType": "uint256",
          "name": "",
          "type": "uint256"
        }
      ],
      "name": "tokenOffersTb",
      "outputs": [
        {
          "internalType": "uint256",
          "name": "",
          "type": "uint256"
        }
      ],
      "stateMutability": "view",
      "type": "function"
    },
    {
      "inputs": [
        {
          "internalType": "address",
          "name": "",
          "type": "address"
        },
        {
          "internalType": "uint256",
          "name": "",
          "type": "uint256"
        }
      ],
      "name": "tokenOrderTb",
      "outputs": [
        {
          "internalType": "uint256",
          "name": "",
          "type": "uint256"
        }
      ],
      "stateMutability": "view",
      "type": "function"
    },
    {
      "inputs": [
        {
          "internalType": "address",
          "name": "newOwner",
          "type": "address"
        }
      ],
      "name": "transferOwnership",
      "outputs": [],
      "stateMutability": "nonpayable",
      "type": "function"
    },
    {
      "inputs": [],
      "name": "treasury",
      "outputs": [
        {
          "internalType": "address",
          "name": "",
          "type": "address"
        }
      ],
      "stateMutability": "view",
      "type": "function"
    },
    {
      "inputs": [
        {
          "internalType": "uint256",
          "name": "offerId",
          "type": "uint256"
        },
        {
          "internalType": "uint256",
          "name": "price",
          "type": "uint256"
        }
      ],
      "name": "updateOfferPrice",
      "outputs": [],
      "stateMutability": "payable",
      "type": "function"
    },
    {
      "inputs": [
        {
          "internalType": "uint256",
          "name": "orderId",
          "type": "uint256"
        },
        {
          "internalType": "uint256",
          "name": "price",
          "type": "uint256"
        }
      ],
      "name": "updateOrderPrice",
      "outputs": [],
      "stateMutability": "payable",
      "type": "function"
    },
    {
      "inputs": [
        {
          "internalType": "address",
          "name": "",
          "type": "address"
        },
        {
          "internalType": "uint256",
          "name": "",
          "type": "uint256"
        }
      ],
      "name": "userOffersTb",
      "outputs": [
        {
          "internalType": "uint256",
          "name": "",
          "type": "uint256"
        }
      ],
      "stateMutability": "view",
      "type": "function"
    },
    {
      "inputs": [
        {
          "internalType": "address",
          "name": "",
          "type": "address"
        },
        {
          "internalType": "uint256",
          "name": "",
          "type": "uint256"
        }
      ],
      "name": "userOrdersTb",
      "outputs": [
        {
          "internalType": "uint256",
          "name": "",
          "type": "uint256"
        }
      ],
      "stateMutability": "view",
      "type": "function"
    }
  ],
  "bytecode": "0x608060405234801561001057600080fd5b5061458c806100206000396000f3fe6080604052600436106102675760003560e01c8063978f8bf811610144578063c415b95c116100b6578063e217f6741161007a578063e217f674146107c8578063edb25841146107e8578063ef18e9ed14610815578063ef706adf14610828578063f2fde38b14610848578063f8c8765e1461086857600080fd5b8063c415b95c14610735578063c815729d14610755578063cf9d101c14610768578063d789571514610788578063df4858b9146107a857600080fd5b8063ac54ed9a11610108578063ac54ed9a14610628578063b661c37514610660578063b855902f14610680578063bb8951b6146106ec578063bbcd5bbe14610702578063c3b3595d1461072257600080fd5b8063978f8bf8146105255780639b81743e1461053b578063a42dce8014610568578063a76de94c14610588578063a8b016ff146105a857600080fd5b80635c975abb116101dd57806369eca585116101a157806369eca5851461047f5780636f6c71341461049f578063715018a6146104bf57806387ceff09146104d45780638da5cb5b146104e75780638ffef6641461050557600080fd5b80635c975abb146103d35780635e9e78d0146103f757806360bbcfbc1461040a57806361d027b31461042a578063690b23f31461044a57600080fd5b80632b4382d11161022f5780632b4382d1146103415780632d286ca41461035457806341744dd414610367578063445964451461037d578063524191471461039357806355a373d6146103b357600080fd5b80630168033a1461026c578063069d6d1c146102a357806310cc6bb9146102c557806319f4ff2f146102fd5780631f9082d11461031d575b600080fd5b34801561027857600080fd5b5061028c610287366004613ef4565b610888565b60405161029a929190613fd3565b60405180910390f35b3480156102af57600080fd5b506102c36102be366004613fea565b610a16565b005b3480156102d157600080fd5b506098546102e5906001600160a01b031681565b6040516001600160a01b03909116815260200161029a565b34801561030957600080fd5b506102c3610318366004613fea565b610b33565b34801561032957600080fd5b506103336103e881565b60405190815260200161029a565b6102c361034f366004614003565b610bc6565b6102c3610362366004614025565b610fae565b34801561037357600080fd5b50610333609e5481565b34801561038957600080fd5b50610333609f5481565b34801561039f57600080fd5b506102c36103ae36600461407b565b611327565b3480156103bf57600080fd5b50609a546102e5906001600160a01b031681565b3480156103df57600080fd5b5060655460ff165b604051901515815260200161029a565b6102c3610405366004614003565b6113be565b34801561041657600080fd5b506103e7610425366004613ef4565b611534565b34801561043657600080fd5b506097546102e5906001600160a01b031681565b34801561045657600080fd5b5061046a610465366004613fea565b61159c565b6040805192835260208301919091520161029a565b34801561048b57600080fd5b5061033361049a366004614098565b6115e4565b3480156104ab57600080fd5b506103336104ba3660046140cd565b611622565b3480156104cb57600080fd5b506102c3611653565b3480156104e057600080fd5b5042610333565b3480156104f357600080fd5b506033546001600160a01b03166102e5565b34801561051157600080fd5b506103e76105203660046140cd565b611667565b34801561053157600080fd5b50610333609c5481565b34801561054757600080fd5b5061055b610556366004614098565b611694565b60405161029a91906140f9565b34801561057457600080fd5b506102c361058336600461407b565b611858565b34801561059457600080fd5b506103e76105a3366004613ef4565b6118ef565b3480156105b457600080fd5b506106146105c3366004613fea565b60a360205260009081526040902080546001820154600283015460038401546004850154600586015460069096015494956001600160a01b03948516959394831693600160a01b90930460ff169288565b60405161029a989796959493929190614148565b34801561063457600080fd5b506103336106433660046140cd565b60a160209081526000928352604080842090915290825290205481565b34801561066c57600080fd5b506102c361067b366004613fea565b611994565b34801561068c57600080fd5b5061061461069b366004613fea565b60a060205260009081526040902080546001820154600283015460038401546004850154600586015460069096015494956001600160a01b03948516959394831693600160a01b90930460ff169288565b3480156106f857600080fd5b50610333609d5481565b34801561070e57600080fd5b506102c361071d36600461407b565b611a2f565b6102c3610730366004614025565b611ac6565b34801561074157600080fd5b50609b546102e5906001600160a01b031681565b6102c3610763366004613fea565b611f5a565b34801561077457600080fd5b506099546102e5906001600160a01b031681565b34801561079457600080fd5b506102c36107a336600461407b565b612509565b3480156107b457600080fd5b506103336107c33660046140cd565b6127d2565b3480156107d457600080fd5b506102c36107e336600461407b565b6127ee565b3480156107f457600080fd5b506108086108033660046140cd565b612885565b60405161029a919061419a565b6102c3610823366004613fea565b61294e565b34801561083457600080fd5b506102c3610843366004613fea565b612db3565b34801561085457600080fd5b506102c361086336600461407b565b612fba565b34801561087457600080fd5b506102c36108833660046141a9565b613033565b6000610892613e9a565b61089a613e9a565b6001600160a01b038616600090815260a4602090815260408083208884529091528120905b8154811015610a0457856001600160a01b031660a360008484815481106108e8576108e8614205565b600091825260208083209091015483528201929092526040019020600301546001600160a01b031614156109f257600160a3600084848154811061092e5761092e614205565b600091825260208083209190910154835282810193909352604091820190208151610100810183528154815260018201546001600160a01b039081169482019490945260028083015493820193909352600382015493841660608201529092909183916080840191600160a01b90910460ff16908111156109b1576109b1613f36565b60028111156109c2576109c2613f36565b81526020016004820154815260200160058201548152602001600682015481525050905094509450505050610a0e565b806109fc81614231565b9150506108bf565b5060009350909150505b935093915050565b610a1e613182565b600081815260a06020526040902060018101546001600160a01b0316610a5f5760405162461bcd60e51b8152600401610a569061424c565b60405180910390fd5b60038101546001600160a01b03163314610ab35760405162461bcd60e51b815260206004820152601560248201527429a427aaa6222fa122afa7a92222a92fa7aba722a960591b6044820152606401610a56565b6001810154600382015460028301546040516323b872dd60e01b81526001600160a01b03938416936323b872dd93610af49330939290911691600401614273565b600060405180830381600087803b158015610b0e57600080fd5b505af1158015610b22573d6000803e3d6000fd5b50505050610b2f826131c8565b5050565b610b3b6133a3565b6103e8811115610b7d5760405162461bcd60e51b815260206004820152600d60248201526c494e56414c49445f524154494f60981b6044820152606401610a56565b609e5460408051338152602081019290925281018290527f93028a0c57bb808eee7eb9f7e15084346cae24916f69252ea4c36cfdcb9f5de19060600160405180910390a1609e55565b610bce613182565b600082815260a36020526040902060038101546001600160a01b03163314610c305760405162461bcd60e51b815260206004820152601560248201527429a427aaa6222fa122afa7a32322a92fa6a0a5a2a960591b6044820152606401610a56565b42816006015411610c735760405162461bcd60e51b815260206004820152600d60248201526c13d191915497d1561412549151609a1b6044820152606401610a56565b60008211610c935760405162461bcd60e51b8152600401610a5690614297565b60008282600401541115610de1576004820154610cb090846133fd565b905060006003830154600160a01b900460ff166002811115610cd457610cd4613f36565b1415610d0d57604051339082156108fc029083906000818181858888f19350505050158015610d07573d6000803e3d6000fd5b50610f4e565b60016003830154600160a01b900460ff166002811115610d2f57610d2f613f36565b1415610daa5760995460405163a9059cbb60e01b81526001600160a01b039091169063a9059cbb90610d6790339085906004016142c3565b6020604051808303816000875af1158015610d86573d6000803e3d6000fd5b505050506040513d601f19601f82011682018060405250810190610d0791906142dc565b60985460405163a9059cbb60e01b81526001600160a01b039091169063a9059cbb90610d6790339085906004016142c3565b610f4e565b6004820154610df19084906133fd565b905060006003830154600160a01b900460ff166002811115610e1557610e15613f36565b1415610e795780341015610e3b5760405162461bcd60e51b8152600401610a56906142fe565b80341115610ddc57336108fc610e5134846133fd565b6040518115909202916000818181858888f19350505050158015610d07573d6000803e3d6000fd5b60016003830154600160a01b900460ff166002811115610e9b57610e9b613f36565b1415610ed5576099546040516323b872dd60e01b81526001600160a01b03909116906323b872dd90610d6790339030908690600401614273565b6098546040516323b872dd60e01b81526001600160a01b03909116906323b872dd90610f0990339030908690600401614273565b6020604051808303816000875af1158015610f28573d6000803e3d6000fd5b505050506040513d601f19601f82011682018060405250810190610f4c91906142dc565b505b81546004830154604080513381526020810193909352820152606081018490527f56cfae79da87be8793aa103e2b0510863a7ff19a8b4a29af2ef589580b87e8f39060800160405180910390a15060048101919091554260059091015550565b610fb6613182565b6001600160a01b038516610ffd5760405162461bcd60e51b815260206004820152600e60248201526d494e56414c49445f49535355524560901b6044820152606401610a56565b4281116110435760405162461bcd60e51b8152602060048201526014602482015273115614125490551253d397d513d3d7d4d350531360621b6044820152606401610a56565b600082116110635760405162461bcd60e51b8152600401610a5690614297565b61106e85853361343f565b6110ba5760405162461bcd60e51b815260206004820152601b60248201527f544f4b454e5f4e4f545f42454c4c4f4e475f544f5f53454e44455200000000006044820152606401610a56565b6040516323b872dd60e01b81526001600160a01b038616906323b872dd906110ea90339030908990600401614273565b600060405180830381600087803b15801561110457600080fd5b505af1158015611118573d6000803e3d6000fd5b5050505061112785853061343f565b61116b5760405162461bcd60e51b815260206004820152601560248201527422a9219b9918afa320a622a22faa2920a729a322a960591b6044820152606401610a56565b6000604051806101000160405280609c600081548092919061118c90614231565b9091555081526001600160a01b0388166020820152604081018790523360608201526080018560028111156111c3576111c3613f36565b815242602080830191909152604080830187905260609283018690528351600090815260a0835281902084518155918401516001830180546001600160a01b03199081166001600160a01b0393841617909155918501516002808501919091559385015160038401805493841691909216908117825560808601519596508695939491926001600160a81b0319161790600160a01b90849081111561126a5761126a613f36565b021790555060a082810151600483015560c0830151600583015560e09092015160069091015581516001600160a01b038816600090815260a1602090815260408083208a84528252808320939093553380835260a2825283832086518154600181018355918552929093209092015583519284015191517f65bb2aa85cdce53aad2c957d49a05b316b3fd7f2df8a168b528be35035f6e9c293611317938b928b918b918b91908b9061432a565b60405180910390a1505050505050565b61132f6133a3565b6001600160a01b0381166113555760405162461bcd60e51b8152600401610a569061435e565b6099546040517f6aca743edeb4e0ea2946d2ebfd5a2328eca6b0f0250566cf6003c1724aef3377916113949133916001600160a01b0316908590614387565b60405180910390a1609980546001600160a01b0319166001600160a01b0392909216919091179055565b6113c6613182565b600082815260a06020526040902060018101546001600160a01b03166113fe5760405162461bcd60e51b8152600401610a569061424c565b60038101546001600160a01b031633146114525760405162461bcd60e51b815260206004820152601560248201527429a427aaa6222fa122afa7a92222a92fa7aba722a960591b6044820152606401610a56565b428160060154116114955760405162461bcd60e51b815260206004820152600d60248201526c13d491115497d1561412549151609a1b6044820152606401610a56565b600082116114d65760405162461bcd60e51b815260206004820152600e60248201526d50524943455f4c54455f5a45524f60901b6044820152606401610a56565b600581015460408051338152602081018690528082019290925260608201849052517f80bfb1c2c88c39acd1902f520205cd407abd405310c1a96e5b7fa2dbec270b4e9181900360800190a160058101919091554260049091015550565b600061154184848461343f565b6115915760006115518585612885565b60608101519091506001600160a01b0316611570576000915050611595565b826001600160a01b031681606001516001600160a01b031614915050611595565b5060015b9392505050565b6000806115c06103e86115ba609e54866134c890919063ffffffff16565b90613547565b6115db6103e86115ba609f54876134c890919063ffffffff16565b91509150915091565b60a4602052826000526040600020602052816000526040600020818154811061160c57600080fd5b9060005260206000200160009250925050505481565b60a2602052816000526040600020818154811061163e57600080fd5b90600052602060002001600091509150505481565b61165b6133a3565b6116656000613589565b565b6001600160a01b038216600090815260a16020908152604080832084845290915290205415155b92915050565b6001600160a01b038316600090815260a260205260409020805460609190829085101561184f5760006116c785876143aa565b835490915081116116d857806116db565b82545b90506116e786826143c2565b67ffffffffffffffff8111156116ff576116ff6143d9565b60405190808252806020026020018201604052801561173857816020015b611725613e9a565b81526020019060019003908161171d5790505b50915060005b8187101561184c5760a0600085898154811061175c5761175c614205565b6000918252602080832090910154835282810193909352604091820190208151610100810183528154815260018201546001600160a01b03908116948201949094526002808301549382019390935260038201549384166060820152929091608084019160ff600160a01b90910416908111156117db576117db613f36565b60028111156117ec576117ec613f36565b8152602001600482015481526020016005820154815260200160068201548152505083828151811061182057611820614205565b6020026020010181905250868061183690614231565b975050808061184490614231565b91505061173e565b50505b95945050505050565b6118606133a3565b6001600160a01b0381166118865760405162461bcd60e51b8152600401610a569061435e565b609b546040517fc6bc29e495f43077b898bfa29b8be68f4c836ccf780f9f7782f916dfd3874f15916118c59133916001600160a01b0316908590614387565b60405180910390a1609b80546001600160a01b0319166001600160a01b0392909216919091179055565b6001600160a01b038316600090815260a4602090815260408083208584529091528120815b815481101561198857836001600160a01b031660a3600084848154811061193d5761193d614205565b600091825260208083209091015483528201929092526040019020600301546001600160a01b0316141561197657600192505050611595565b8061198081614231565b915050611914565b50600095945050505050565b61199c6133a3565b6103e88111156119e65760405162461bcd60e51b8152602060048201526015602482015274494e56414c49445f524f59414c54595f524154494f60581b6044820152606401610a56565b609f5460408051338152602081019290925281018290527fb9244459ced173945367be3d64fa5a4a1d91721bc816e5797c9d450280e0331a9060600160405180910390a1609f55565b611a376133a3565b6001600160a01b038116611a5d5760405162461bcd60e51b8152600401610a569061435e565b609a546040517f5debc9a579ebcaf3dcc7526051ee83a5686ec09736fd9aa41e7833ec368e5bb491611a9c9133916001600160a01b0316908590614387565b60405180910390a1609a80546001600160a01b0319166001600160a01b0392909216919091179055565b611ace613182565b6001600160a01b038516611af45760405162461bcd60e51b8152600401610a569061435e565b611aff85853361343f565b15611b4c5760405162461bcd60e51b815260206004820152601960248201527f43414e545f4d414b455f4f464645525f574954485f53454c46000000000000006044820152606401610a56565b611b578585336118ef565b15611b955760405162461bcd60e51b815260206004820152600e60248201526d2420a9afa6a0a222afa7a32322a960911b6044820152606401610a56565b428111611bdc5760405162461bcd60e51b8152602060048201526015602482015274115614125490551253d397d513d3d317d4d3505313605a1b6044820152606401610a56565b60008211611bfc5760405162461bcd60e51b8152600401610a5690614297565b6000836002811115611c1057611c10613f36565b1415611c7b5781341015611c365760405162461bcd60e51b8152600401610a56906142fe565b81341115611c7657336108fc611c4c34856133fd565b6040518115909202916000818181858888f19350505050158015611c74573d6000803e3d6000fd5b505b611d85565b6001836002811115611c8f57611c8f613f36565b1415611d0c576099546040516323b872dd60e01b81526001600160a01b03909116906323b872dd90611cc990339030908790600401614273565b6020604051808303816000875af1158015611ce8573d6000803e3d6000fd5b505050506040513d601f19601f82011682018060405250810190611c7491906142dc565b6098546040516323b872dd60e01b81526001600160a01b03909116906323b872dd90611d4090339030908790600401614273565b6020604051808303816000875af1158015611d5f573d6000803e3d6000fd5b505050506040513d601f19601f82011682018060405250810190611d8391906142dc565b505b6000604051806101000160405280609d6000815480929190611da690614231565b9091555081526001600160a01b038816602082015260408101879052336060820152608001856002811115611ddd57611ddd613f36565b815260208082018690524260408084019190915260609283018690528351600090815260a3835281902084518155918401516001830180546001600160a01b03199081166001600160a01b0393841617909155918501516002808501919091559385015160038401805493841691909216908117825560808601519596508695939491926001600160a81b0319161790600160a01b908490811115611e8457611e84613f36565b021790555060a082810151600483015560c080840151600584015560e0938401516006909301929092556001600160a01b038916600090815260a4602090815260408083208b84528252808320875181546001818101845592865284862001553380855260a58452828520895181549384018255908652948490209091019390935590860151868201518751608089015195890151968901519789015193517f17e9690f1079f600c096a2dd7629be8e3c0588d103b8021355f041984b7285bd986113179896979496939592949392909161432a565b611f62613182565b600081815260a36020526040902060018101546001600160a01b0316611fba5760405162461bcd60e51b815260206004820152600d60248201526c24a72b20a624a22fa7a32322a960991b6044820152606401610a56565b60038101546001600160a01b03163314156120175760405162461bcd60e51b815260206004820152601860248201527f43414e545f4d414b455f4445414c5f574954485f53454c4600000000000000006044820152606401610a56565b4281600601541161205a5760405162461bcd60e51b815260206004820152600d60248201526c13d191915497d1561412549151609a1b6044820152606401610a56565b6001810154600282015460009161207c916001600160a01b0390911690612885565b60608101519091506001600160a01b03166120ec57600182015460028301546120af916001600160a01b0316903361343f565b6120e75760405162461bcd60e51b81526020600482015260096024820152682727aa2fa7aba722a960b91b6044820152606401610a56565b612134565b60608101516001600160a01b031633146121345760405162461bcd60e51b81526020600482015260096024820152682727aa2fa7aba722a960b91b6044820152606401610a56565b600080612144846004015461159c565b9092509050600061215583836135db565b905060006121708287600401546133fd90919063ffffffff16565b905060006003870154600160a01b900460ff16600281111561219457612194613f36565b14156121d857604051339082156108fc029083906000818181858888f193505050501580156121c7573d6000803e3d6000fd5b506121d360008361363a565b612302565b60016003870154600160a01b900460ff1660028111156121fa576121fa613f36565b14156122815760995460405163a9059cbb60e01b81526001600160a01b039091169063a9059cbb9061223290339085906004016142c3565b6020604051808303816000875af1158015612251573d6000803e3d6000fd5b505050506040513d601f19601f8201168201806040525081019061227591906142dc565b506121d360018361363a565b60985460405163a9059cbb60e01b81526001600160a01b039091169063a9059cbb906122b390339085906004016142c3565b6020604051808303816000875af11580156122d2573d6000803e3d6000fd5b505050506040513d601f19601f820116820180604052508101906122f691906142dc565b5061230260028361363a565b60608501516001600160a01b031661238c576001860154600387015460028801546040516323b872dd60e01b81526001600160a01b03938416936323b872dd936123559333939290911691600401614273565b600060405180830381600087803b15801561236f57600080fd5b505af1158015612383573d6000803e3d6000fd5b50505050612400565b6001860154600387015460028801546040516323b872dd60e01b81526001600160a01b03938416936323b872dd936123cd9330939290911691600401614273565b600060405180830381600087803b1580156123e757600080fd5b505af11580156123fb573d6000803e3d6000fd5b505050505b600186015460028701546003880154612426926001600160a01b0390811692911661343f565b61246a5760405162461bcd60e51b815260206004820152601560248201527422a9219b9918afa320a622a22faa2920a729a322a960591b6044820152606401610a56565b60038601546001870154600288015460048901546040517f51e5812fb8587a35a721431e37ba7556e9c1cdd1dbb37bb4d09018d4a684f912946124cf94339485946001600160a01b03808516959316939192600160a01b90920460ff16918b906143ef565b60405180910390a160608501516001600160a01b03163314156124f75784516124f7906131c8565b61250087613990565b50505050505050565b612511613182565b33600090815260a560205260408120905b81548110156127cd57600060a3600084848154811061254357612543614205565b60009182526020808320909101548352820192909252604001902060018101549091506001600160a01b039081169085161461258c578161258381614231565b92505050612522565b60018101546001600160a01b0316600090815260a460209081526040808320600285015484529091528120905b815481101561268a578484815481106125d4576125d4614205565b90600052602060002001548282815481106125f1576125f1614205565b906000526020600020015414156126785781548290612612906001906143c2565b8154811061262257612622614205565b906000526020600020015482828154811061263f5761263f614205565b90600052602060002001819055508180548061265d5761265d614442565b6001900381819060005260206000200160009055905561268a565b8061268281614231565b9150506125b9565b5060a360008585815481106126a1576126a1614205565b6000918252602080832090910154835282019290925260400181208181556001810180546001600160a01b0319169055600281018290556003810180546001600160a81b031916905560048101829055600581018290556006015583547fdea570bb3f4c454d84d0e1dd20f9c155901284eaaf86e5d61ea837d31629fb4790339086908690811061273457612734614205565b906000526020600020015460405161274d9291906142c3565b60405180910390a183548490612765906001906143c2565b8154811061277557612775614205565b906000526020600020015484848154811061279257612792614205565b9060005260206000200181905550838054806127b0576127b0614442565b600190038181906000526020600020016000905590555050612522565b505050565b60a5602052816000526040600020818154811061163e57600080fd5b6127f66133a3565b6001600160a01b03811661281c5760405162461bcd60e51b8152600401610a569061435e565b6098546040517f55263a2c34e1ca945ec24e98ab7634dfbdea3867d19adaac6da2ad9381018d399161285b9133916001600160a01b0316908590614387565b60405180910390a1609880546001600160a01b0319166001600160a01b0392909216919091179055565b61288d613e9a565b6001600160a01b03838116600090815260a160209081526040808320868452825280832054835260a08252918290208251610100810184528154815260018201548516928101929092526002808201549383019390935260038101549384166060830152909290916080840191600160a01b900460ff169081111561291457612914613f36565b600281111561292557612925613f36565b815260048201546020820152600582015460408201526006909101546060909101529392505050565b612956613182565b600081815260a06020526040902060018101546001600160a01b031661298e5760405162461bcd60e51b8152600401610a569061424c565b60038101546001600160a01b03163314156129eb5760405162461bcd60e51b815260206004820152601960248201527f53484f554c445f4e4f545f42455f4f524445525f4f574e4552000000000000006044820152606401610a56565b42816006015411612a2e5760405162461bcd60e51b815260206004820152600d60248201526c13d491115497d1561412549151609a1b6044820152606401610a56565b600080612a3e836005015461159c565b90925090506000612a4f83836135db565b90506000612a6a8286600501546133fd90919063ffffffff16565b905060006003860154600160a01b900460ff166002811115612a8e57612a8e613f36565b1415612b51578460050154341015612ab85760405162461bcd60e51b8152600401610a56906142fe565b60038501546040516001600160a01b039091169082156108fc029083906000818181858888f19350505050158015612af4573d6000803e3d6000fd5b50612b00600083613bf5565b8460050154341115612b4c57600585015433906108fc90612b229034906133fd565b6040518115909202916000818181858888f19350505050158015612b4a573d6000803e3d6000fd5b505b612c8d565b60016003860154600160a01b900460ff166002811115612b7357612b73613f36565b1415612c035760995460038601546040516323b872dd60e01b81526001600160a01b03928316926323b872dd92612bb4923392909116908690600401614273565b6020604051808303816000875af1158015612bd3573d6000803e3d6000fd5b505050506040513d601f19601f82011682018060405250810190612bf791906142dc565b50612b4c600183613bf5565b60985460038601546040516323b872dd60e01b81526001600160a01b03928316926323b872dd92612c3e923392909116908690600401614273565b6020604051808303816000875af1158015612c5d573d6000803e3d6000fd5b505050506040513d601f19601f82011682018060405250810190612c8191906142dc565b50612c8d600283613bf5565b600185015460028601546040516323b872dd60e01b81526001600160a01b03909216916323b872dd91612cc69130913391600401614273565b600060405180830381600087803b158015612ce057600080fd5b505af1158015612cf4573d6000803e3d6000fd5b50505060038601546001870154600288015460058901546040517f51e5812fb8587a35a721431e37ba7556e9c1cdd1dbb37bb4d09018d4a684f9129550612d609433946001600160a01b038083169587959290911693909260ff600160a01b9091041691908b906143ef565b60405180910390a1600185015460028601546000918291612d8b916001600160a01b03169033610888565b915091508115612da0578051612da090612db3565b612da9886131c8565b5050505050505050565b612dbb613182565b600081815260a36020526040902060038101546001600160a01b03163314612e1d5760405162461bcd60e51b815260206004820152601560248201527429a427aaa6222fa122afa7a32322a92fa6a0a5a2a960591b6044820152606401610a56565b60006003820154600160a01b900460ff166002811115612e3f57612e3f613f36565b1415612e8b57600381015460048201546040516001600160a01b039092169181156108fc0291906000818181858888f19350505050158015612e85573d6000803e3d6000fd5b50612fb1565b60016003820154600160a01b900460ff166002811115612ead57612ead613f36565b1415612f3157609954600382015460048084015460405163a9059cbb60e01b81526001600160a01b039485169463a9059cbb94612eee9491169291016142c3565b6020604051808303816000875af1158015612f0d573d6000803e3d6000fd5b505050506040513d601f19601f82011682018060405250810190612e8591906142dc565b609854600382015460048084015460405163a9059cbb60e01b81526001600160a01b039485169463a9059cbb94612f6c9491169291016142c3565b6020604051808303816000875af1158015612f8b573d6000803e3d6000fd5b505050506040513d601f19601f82011682018060405250810190612faf91906142dc565b505b610b2f82613990565b612fc26133a3565b6001600160a01b0381166130275760405162461bcd60e51b815260206004820152602660248201527f4f776e61626c653a206e6577206f776e657220697320746865207a65726f206160448201526564647265737360d01b6064820152608401610a56565b61303081613589565b50565b600054600190610100900460ff16158015613055575060005460ff8083169116105b6130b85760405162461bcd60e51b815260206004820152602e60248201527f496e697469616c697a61626c653a20636f6e747261637420697320616c72656160448201526d191e481a5b9a5d1a585b1a5e995960921b6064820152608401610a56565b6000805461ffff191660ff831617610100179055609780546001600160a01b038085166001600160a01b031992831617909255609a80548884169083161790556098805487841690831617905560998054928616929091169190911790556001609c819055609d556019609e55604b609f55613132613d7a565b61313a613da9565b6000805461ff001916905560405160ff821681527f7f26b83ff96e1f2b6a682f133852f6798a09c465da95921460cefb38474024989060200160405180910390a15050505050565b60655460ff16156116655760405162461bcd60e51b815260206004820152601060248201526f14185d5cd8589b194e881c185d5cd95960821b6044820152606401610a56565b600081815260a06020526040902060018101546001600160a01b03166132005760405162461bcd60e51b8152600401610a569061424c565b60038101546001600160a01b0316600090815260a260205260408120905b81548110156132e9578360a0600084848154811061323e5761323e614205565b906000526020600020015481526020019081526020016000206000015414156132d75781548290613271906001906143c2565b8154811061328157613281614205565b906000526020600020015482828154811061329e5761329e614205565b9060005260206000200181905550818054806132bc576132bc614442565b600190038181906000526020600020016000905590556132e9565b806132e181614231565b91505061321e565b50600083815260a060209081526040808320838155600180820180546001600160a01b031916905560028083018690556003830180546001600160a81b0319169055600483018690556005830186905560069092018590558601546001600160a01b0316845260a1835281842090860154845290915280822091909155517f7cd0e59220608af7c85ce462315f844545ceec744e00c7ab40f8c5a42c2e829f9061339690339086906142c3565b60405180910390a1505050565b6033546001600160a01b031633146116655760405162461bcd60e51b815260206004820181905260248201527f4f776e61626c653a2063616c6c6572206973206e6f7420746865206f776e65726044820152606401610a56565b600061159583836040518060400160405280601e81526020017f536166654d6174683a207375627472616374696f6e206f766572666c6f770000815250613dd8565b6040516331a9108f60e11b8152600481018390526000906001600160a01b03851690636352211e90602401602060405180830381865afa158015613487573d6000803e3d6000fd5b505050506040513d601f19601f820116820180604052508101906134ab9190614458565b6001600160a01b0316826001600160a01b03161490509392505050565b6000826134d75750600061168e565b60006134e38385614475565b9050826134f08583614494565b146115955760405162461bcd60e51b815260206004820152602160248201527f536166654d6174683a206d756c7469706c69636174696f6e206f766572666c6f6044820152607760f81b6064820152608401610a56565b600061159583836040518060400160405280601a81526020017f536166654d6174683a206469766973696f6e206279207a65726f000000000000815250613e09565b603380546001600160a01b038381166001600160a01b0319831681179093556040519116919082907f8be0079c531659141344cd1fd0a4f28419497f9722a3daafe3b4186f6b6457e090600090a35050565b6000806135e883856143aa565b9050838110156115955760405162461bcd60e51b815260206004820152601b60248201527f536166654d6174683a206164646974696f6e206f766572666c6f7700000000006044820152606401610a56565b600082600281111561364e5761364e613f36565b141561373a57609b546001600160a01b03161561370057609b546040516001600160a01b039091169082156108fc029083906000818181858888f1935050505015801561369f573d6000803e3d6000fd5b50609b5460405163340e59a160e01b8152600481018390526001600160a01b039091169063340e59a1906024015b600060405180830381600087803b1580156136e757600080fd5b505af19250505080156136f8575060015b610b2f575050565b6097546040516001600160a01b039091169082156108fc029083906000818181858888f193505050501580156127cd573d6000803e3d6000fd5b600182600281111561374e5761374e613f36565b141561388957609b546001600160a01b03161561381057609954609b5460405163a9059cbb60e01b81526001600160a01b039283169263a9059cbb9261379b9291169085906004016142c3565b6020604051808303816000875af11580156137ba573d6000803e3d6000fd5b505050506040513d601f19601f820116820180604052508101906137de91906142dc565b50609b5460405163890967dd60e01b8152600481018390526001600160a01b039091169063890967dd906024016136cd565b60995460975460405163a9059cbb60e01b81526001600160a01b039283169263a9059cbb926138469291169085906004016142c3565b6020604051808303816000875af1158015613865573d6000803e3d6000fd5b505050506040513d601f19601f820116820180604052508101906127cd91906142dc565b609b546001600160a01b03161561395a57609854609b5460405163a9059cbb60e01b81526001600160a01b039283169263a9059cbb926138d09291169085906004016142c3565b6020604051808303816000875af11580156138ef573d6000803e3d6000fd5b505050506040513d601f19601f8201168201806040525081019061391391906142dc565b50609b5460405163fad288df60e01b8152600481018390526001600160a01b039091169063fad288df90602401600060405180830381600087803b1580156136e757600080fd5b60985460975460405163a9059cbb60e01b81526001600160a01b039283169263a9059cbb926138469291169085906004016142c3565b600081815260a36020908152604080832060018101546001600160a01b0316845260a4835281842060028201548552909252822090915b8154811015613a92578360a360008484815481106139e7576139e7614205565b90600052602060002001548152602001908152602001600020600001541415613a805781548290613a1a906001906143c2565b81548110613a2a57613a2a614205565b9060005260206000200154828281548110613a4757613a47614205565b906000526020600020018190555081805480613a6557613a65614442565b60019003818190600052602060002001600090559055613a92565b80613a8a81614231565b9150506139c7565b50600083815260a3602090815260408083208381556001810180546001600160a01b031916905560028101849055600380820180546001600160a81b0319169055600482018590556005820185905560069091018490558501546001600160a01b0316835260a59091528120905b8154811015613bb55784828281548110613b1c57613b1c614205565b90600052602060002001541415613ba35781548290613b3d906001906143c2565b81548110613b4d57613b4d614205565b9060005260206000200154828281548110613b6a57613b6a614205565b906000526020600020018190555081805480613b8857613b88614442565b60019003818190600052602060002001600090559055613bb5565b80613bad81614231565b915050613b00565b507fdea570bb3f4c454d84d0e1dd20f9c155901284eaaf86e5d61ea837d31629fb473385604051613be79291906142c3565b60405180910390a150505050565b6000826002811115613c0957613c09613f36565b1415613c5a57609b546001600160a01b03161561370057609b546040516001600160a01b039091169082156108fc029083906000818181858888f1935050505015801561369f573d6000803e3d6000fd5b6001826002811115613c6e57613c6e613f36565b1415613cf757609b546001600160a01b031615613cbe57609954609b546040516323b872dd60e01b81526001600160a01b03928316926323b872dd9261379b923392909116908690600401614273565b6099546097546040516323b872dd60e01b81526001600160a01b03928316926323b872dd92613846923392909116908690600401614273565b609b546001600160a01b031615613d4157609854609b546040516323b872dd60e01b81526001600160a01b03928316926323b872dd926138d0923392909116908690600401614273565b6098546097546040516323b872dd60e01b81526001600160a01b03928316926323b872dd92613846923392909116908690600401614273565b600054610100900460ff16613da15760405162461bcd60e51b8152600401610a56906144b6565b611665613e37565b600054610100900460ff16613dd05760405162461bcd60e51b8152600401610a56906144b6565b611665613e6a565b60008184841115613dfc5760405162461bcd60e51b8152600401610a569190614501565b50600061184f84866143c2565b60008183613e2a5760405162461bcd60e51b8152600401610a569190614501565b50600061184f8486614494565b600054610100900460ff16613e5e5760405162461bcd60e51b8152600401610a56906144b6565b6065805460ff19169055565b600054610100900460ff16613e915760405162461bcd60e51b8152600401610a56906144b6565b61166533613589565b60408051610100810182526000808252602082018190529181018290526060810182905290608082019081526020016000815260200160008152602001600081525090565b6001600160a01b038116811461303057600080fd5b600080600060608486031215613f0957600080fd5b8335613f1481613edf565b9250602084013591506040840135613f2b81613edf565b809150509250925092565b634e487b7160e01b600052602160045260246000fd5b60038110613f6a57634e487b7160e01b600052602160045260246000fd5b9052565b80518252602081015160018060a01b0380821660208501526040830151604085015280606084015116606085015250506080810151613fb06080840182613f4c565b5060a081015160a083015260c081015160c083015260e081015160e08301525050565b821515815261012081016115956020830184613f6e565b600060208284031215613ffc57600080fd5b5035919050565b6000806040838503121561401657600080fd5b50508035926020909101359150565b600080600080600060a0868803121561403d57600080fd5b853561404881613edf565b94506020860135935060408601356003811061406357600080fd5b94979396509394606081013594506080013592915050565b60006020828403121561408d57600080fd5b813561159581613edf565b6000806000606084860312156140ad57600080fd5b83356140b881613edf565b95602085013595506040909401359392505050565b600080604083850312156140e057600080fd5b82356140eb81613edf565b946020939093013593505050565b6020808252825182820181905260009190848201906040850190845b8181101561413c57614128838551613f6e565b928401926101009290920191600101614115565b50909695505050505050565b8881526001600160a01b0388811660208301526040820188905286166060820152610100810161417b6080830187613f4c565b8460a08301528360c08301528260e08301529998505050505050505050565b610100810161168e8284613f6e565b600080600080608085870312156141bf57600080fd5b84356141ca81613edf565b935060208501356141da81613edf565b925060408501356141ea81613edf565b915060608501356141fa81613edf565b939692955090935050565b634e487b7160e01b600052603260045260246000fd5b634e487b7160e01b600052601160045260246000fd5b60006000198214156142455761424561421b565b5060010190565b6020808252600d908201526c24a72b20a624a22fa7a92222a960991b604082015260600190565b6001600160a01b039384168152919092166020820152604081019190915260600190565b602080825260129082015271282924a1a2afa727aa2fa122afad22a927a960711b604082015260600190565b6001600160a01b03929092168252602082015260400190565b6000602082840312156142ee57600080fd5b8151801515811461159557600080fd5b602080825260129082015271494e53554646494349454e545f46554e445360701b604082015260600190565b6001600160a01b038981168252881660208201526040810187905260608101869052610100810161417b6080830187613f4c565b6020808252600f908201526e494e56414c49445f4144445245535360881b604082015260600190565b6001600160a01b0393841681529183166020830152909116604082015260600190565b600082198211156143bd576143bd61421b565b500190565b6000828210156143d4576143d461421b565b500390565b634e487b7160e01b600052604160045260246000fd5b6001600160a01b038981168252888116602083015287811660408301528616606082015260808101859052610100810161442c60a0830186613f4c565b60c082019390935260e001529695505050505050565b634e487b7160e01b600052603160045260246000fd5b60006020828403121561446a57600080fd5b815161159581613edf565b600081600019048311821515161561448f5761448f61421b565b500290565b6000826144b157634e487b7160e01b600052601260045260246000fd5b500490565b6020808252602b908201527f496e697469616c697a61626c653a20636f6e7472616374206973206e6f74206960408201526a6e697469616c697a696e6760a81b606082015260800190565b600060208083528351808285015260005b8181101561452e57858101830151858201604001528201614512565b81811115614540576000604083870101525b50601f01601f191692909201604001939250505056fea264697066735822122084d3eb92e563bb3a34588420f4b25e96417b9615b17e07056fbc7155b1e9f17e64736f6c634300080b0033",
  "linkReferences": {},
  "deployedLinkReferences": {}
}