{
  "_format": "hh-sol-artifact-1",
  "contractName": "Faucet",
  "sourceName": "contracts/test/Faucet.sol",
  "abi": [
    {
      "anonymous": false,
      "inputs": [
        {
          "indexed": true,
          "internalType": "address",
          "name": "previousOwner",
          "type": "address"
        },
        {
          "indexed": true,
          "internalType": "address",
          "name": "newOwner",
          "type": "address"
        }
      ],
      "name": "OwnershipTransferred",
      "type": "event"
    },
    {
      "inputs": [
        {
          "components": [
            {
              "internalType": "string",
              "name": "asset",
              "type": "string"
            },
            {
              "internalType": "address",
              "name": "addr",
              "type": "address"
            },
            {
              "internalType": "uint256",
              "name": "frozenDuration",
              "type": "uint256"
            },
            {
              "internalType": "uint256",
              "name": "maxToClaimed",
              "type": "uint256"
            }
          ],
          "internalType": "struct IFaucet.ClaimAssetsInfo[]",
          "name": "_assets",
          "type": "tuple[]"
        }
      ],
      "name": "addAssets",
      "outputs": [],
      "stateMutability": "nonpayable",
      "type": "function"
    },
    {
      "inputs": [
        {
          "internalType": "string",
          "name": "",
          "type": "string"
        }
      ],
      "name": "assets",
      "outputs": [
        {
          "internalType": "string",
          "name": "asset",
          "type": "string"
        },
        {
          "internalType": "address",
          "name": "addr",
          "type": "address"
        },
        {
          "internalType": "uint256",
          "name": "frozenDuration",
          "type": "uint256"
        },
        {
          "internalType": "uint256",
          "name": "maxToClaimed",
          "type": "uint256"
        }
      ],
      "stateMutability": "view",
      "type": "function"
    },
    {
      "inputs": [
        {
          "internalType": "string",
          "name": "_asset",
          "type": "string"
        }
      ],
      "name": "claim",
      "outputs": [],
      "stateMutability": "nonpayable",
      "type": "function"
    },
    {
      "inputs": [
        {
          "internalType": "address",
          "name": "",
          "type": "address"
        },
        {
          "internalType": "string",
          "name": "",
          "type": "string"
        }
      ],
      "name": "lastClaimedStamp",
      "outputs": [
        {
          "internalType": "uint256",
          "name": "",
          "type": "uint256"
        }
      ],
      "stateMutability": "view",
      "type": "function"
    },
    {
      "inputs": [],
      "name": "owner",
      "outputs": [
        {
          "internalType": "address",
          "name": "",
          "type": "address"
        }
      ],
      "stateMutability": "view",
      "type": "function"
    },
    {
      "inputs": [],
      "name": "renounceOwnership",
      "outputs": [],
      "stateMutability": "nonpayable",
      "type": "function"
    },
    {
      "inputs": [
        {
          "internalType": "address",
          "name": "newOwner",
          "type": "address"
        }
      ],
      "name": "transferOwnership",
      "outputs": [],
      "stateMutability": "nonpayable",
      "type": "function"
    }
  ],
  "bytecode": "0x608060405234801561001057600080fd5b5061001a3361001f565b61006f565b600080546001600160a01b038381166001600160a01b0319831681178455604051919092169283917f8be0079c531659141344cd1fd0a4f28419497f9722a3daafe3b4186f6b6457e09190a35050565b610ba78061007e6000396000f3fe608060405234801561001057600080fd5b506004361061007d5760003560e01c80638da5cb5b1161005b5780638da5cb5b146100fe578063e0e674f814610119578063f2fde38b1461012c578063f3fe12c91461013f57600080fd5b806328632d4a14610082578063715018a6146100d157806385936228146100db575b600080fd5b6100be610090366004610855565b6002602090815260009283526040909220815180830184018051928152908401929093019190912091525481565b6040519081526020015b60405180910390f35b6100d9610152565b005b6100ee6100e93660046108a3565b610166565b6040516100c89493929190610910565b6000546040516001600160a01b0390911681526020016100c8565b6100d9610127366004610960565b61022d565b6100d961013a366004610a7e565b61037c565b6100d961014d3660046108a3565b6103f5565b61015a6105b0565b610164600061060a565b565b805160208183018101805160018252928201919093012091528054819061018c90610a99565b80601f01602080910402602001604051908101604052809291908181526020018280546101b890610a99565b80156102055780601f106101da57610100808354040283529160200191610205565b820191906000526020600020905b8154815290600101906020018083116101e857829003601f168201915b505050506001830154600284015460039094015492936001600160a01b039091169290915084565b6102356105b0565b60005b81518110156103785781818151811061025357610253610ad4565b6020026020010151602001516001600160a01b031660006001600160a01b031614156102b85760405162461bcd60e51b815260206004820152600f60248201526e494e56414c49445f4144445245535360881b60448201526064015b60405180910390fd5b8181815181106102ca576102ca610ad4565b602002602001015160018383815181106102e6576102e6610ad4565b6020026020010151600001516040516102ff9190610aea565b908152602001604051809103902060008201518160000190805190602001906103299291906106c0565b5060208201516001820180546001600160a01b0319166001600160a01b03909216919091179055604082015160028201556060909101516003909101558061037081610b1c565b915050610238565b5050565b6103846105b0565b6001600160a01b0381166103e95760405162461bcd60e51b815260206004820152602660248201527f4f776e61626c653a206e6577206f776e657220697320746865207a65726f206160448201526564647265737360d01b60648201526084016102af565b6103f28161060a565b50565b60006001826040516104079190610aea565b90815260405190819003602001902060018101549091506001600160a01b03166104635760405162461bcd60e51b815260206004820152600d60248201526c1253959053125117d054d4d155609a1b60448201526064016102af565b336000908152600260205260409081902090516104a19190610486908590610aea565b9081526040519081900360200190205460028301549061065a565b42116104e15760405162461bcd60e51b815260206004820152600f60248201526e554e41424c455f544f5f434c41494d60881b60448201526064016102af565b60006001836040516104f39190610aea565b90815260405190819003602001812060010154600384015463a9059cbb60e01b835233600484015260248301526001600160a01b03169150819063a9059cbb906044016020604051808303816000875af1158015610555573d6000803e3d6000fd5b505050506040513d601f19601f820116820180604052508101906105799190610b37565b503360009081526002602052604090819020905142919061059b908690610aea565b90815260405190819003602001902055505050565b6000546001600160a01b031633146101645760405162461bcd60e51b815260206004820181905260248201527f4f776e61626c653a2063616c6c6572206973206e6f7420746865206f776e657260448201526064016102af565b600080546001600160a01b038381166001600160a01b0319831681178455604051919092169283917f8be0079c531659141344cd1fd0a4f28419497f9722a3daafe3b4186f6b6457e09190a35050565b6000806106678385610b59565b9050838110156106b95760405162461bcd60e51b815260206004820152601b60248201527f536166654d6174683a206164646974696f6e206f766572666c6f77000000000060448201526064016102af565b9392505050565b8280546106cc90610a99565b90600052602060002090601f0160209004810192826106ee5760008555610734565b82601f1061070757805160ff1916838001178555610734565b82800160010185558215610734579182015b82811115610734578251825591602001919060010190610719565b50610740929150610744565b5090565b5b808211156107405760008155600101610745565b80356001600160a01b038116811461077057600080fd5b919050565b634e487b7160e01b600052604160045260246000fd5b6040516080810167ffffffffffffffff811182821017156107ae576107ae610775565b60405290565b604051601f8201601f1916810167ffffffffffffffff811182821017156107dd576107dd610775565b604052919050565b600082601f8301126107f657600080fd5b813567ffffffffffffffff81111561081057610810610775565b610823601f8201601f19166020016107b4565b81815284602083860101111561083857600080fd5b816020850160208301376000918101602001919091529392505050565b6000806040838503121561086857600080fd5b61087183610759565b9150602083013567ffffffffffffffff81111561088d57600080fd5b610899858286016107e5565b9150509250929050565b6000602082840312156108b557600080fd5b813567ffffffffffffffff8111156108cc57600080fd5b6108d8848285016107e5565b949350505050565b60005b838110156108fb5781810151838201526020016108e3565b8381111561090a576000848401525b50505050565b608081526000855180608084015261092f8160a0850160208a016108e0565b6001600160a01b03959095166020830152506040810192909252606082015260a0601f909201601f19160101919050565b6000602080838503121561097357600080fd5b823567ffffffffffffffff8082111561098b57600080fd5b818501915085601f83011261099f57600080fd5b8135818111156109b1576109b1610775565b8060051b6109c08582016107b4565b91825283810185019185810190898411156109da57600080fd5b86860192505b83831015610a71578235858111156109f85760008081fd5b86016080818c03601f1901811315610a105760008081fd5b610a1861078b565b8983013588811115610a2a5760008081fd5b610a388e8c838701016107e5565b8252506040610a48818501610759565b828c015260608481013591830191909152919092013590820152825291860191908601906109e0565b9998505050505050505050565b600060208284031215610a9057600080fd5b6106b982610759565b600181811c90821680610aad57607f821691505b60208210811415610ace57634e487b7160e01b600052602260045260246000fd5b50919050565b634e487b7160e01b600052603260045260246000fd5b60008251610afc8184602087016108e0565b9190910192915050565b634e487b7160e01b600052601160045260246000fd5b6000600019821415610b3057610b30610b06565b5060010190565b600060208284031215610b4957600080fd5b815180151581146106b957600080fd5b60008219821115610b6c57610b6c610b06565b50019056fea2646970667358221220607132be538e73c4bfb1b3b3c5d9c73ec318fab157a248db63b90b02880b3f6164736f6c634300080b0033",
  "linkReferences": {},
  "deployedLinkReferences": {}
}