{
  "_format": "hh-sol-artifact-1",
  "contractName": "BIBStakingHarness",
  "sourceName": "contracts/test/BIBStakingHarness.sol",
  "abi": [
    {
      "anonymous": false,
      "inputs": [
        {
          "indexed": false,
          "internalType": "uint8",
          "name": "version",
          "type": "uint8"
        }
      ],
      "name": "Initialized",
      "type": "event"
    },
    {
      "anonymous": false,
      "inputs": [
        {
          "indexed": true,
          "internalType": "address",
          "name": "previousOwner",
          "type": "address"
        },
        {
          "indexed": true,
          "internalType": "address",
          "name": "newOwner",
          "type": "address"
        }
      ],
      "name": "OwnershipTransferred",
      "type": "event"
    },
    {
      "anonymous": false,
      "inputs": [
        {
          "indexed": false,
          "internalType": "address",
          "name": "account",
          "type": "address"
        }
      ],
      "name": "Paused",
      "type": "event"
    },
    {
      "anonymous": false,
      "inputs": [
        {
          "indexed": false,
          "internalType": "uint256",
          "name": "iterations",
          "type": "uint256"
        },
        {
          "indexed": false,
          "internalType": "uint256",
          "name": "claims",
          "type": "uint256"
        },
        {
          "indexed": false,
          "internalType": "uint256",
          "name": "lastProcessedIndex",
          "type": "uint256"
        },
        {
          "indexed": true,
          "internalType": "bool",
          "name": "automatic",
          "type": "bool"
        },
        {
          "indexed": false,
          "internalType": "uint256",
          "name": "gas",
          "type": "uint256"
        },
        {
          "indexed": true,
          "internalType": "address",
          "name": "processor",
          "type": "address"
        }
      ],
      "name": "ProcessedDividendTracker",
      "type": "event"
    },
    {
      "anonymous": false,
      "inputs": [
        {
          "indexed": true,
          "internalType": "address",
          "name": "user",
          "type": "address"
        },
        {
          "indexed": true,
          "internalType": "uint256",
          "name": "ticketId",
          "type": "uint256"
        },
        {
          "indexed": false,
          "internalType": "uint256",
          "name": "bibAmount",
          "type": "uint256"
        }
      ],
      "name": "Staking",
      "type": "event"
    },
    {
      "anonymous": false,
      "inputs": [
        {
          "indexed": false,
          "internalType": "uint256",
          "name": "ticketId",
          "type": "uint256"
        }
      ],
      "name": "SuperNode",
      "type": "event"
    },
    {
      "anonymous": false,
      "inputs": [
        {
          "indexed": true,
          "internalType": "address",
          "name": "user",
          "type": "address"
        },
        {
          "indexed": true,
          "internalType": "uint256",
          "name": "ticketId",
          "type": "uint256"
        },
        {
          "indexed": false,
          "internalType": "uint256",
          "name": "bibAmount",
          "type": "uint256"
        }
      ],
      "name": "UnStaking",
      "type": "event"
    },
    {
      "anonymous": false,
      "inputs": [
        {
          "indexed": false,
          "internalType": "uint256",
          "name": "ticketId",
          "type": "uint256"
        }
      ],
      "name": "UnSuperNode",
      "type": "event"
    },
    {
      "anonymous": false,
      "inputs": [
        {
          "indexed": false,
          "internalType": "address",
          "name": "account",
          "type": "address"
        }
      ],
      "name": "Unpaused",
      "type": "event"
    },
    {
      "anonymous": false,
      "inputs": [
        {
          "indexed": true,
          "internalType": "uint256",
          "name": "level",
          "type": "uint256"
        },
        {
          "indexed": false,
          "internalType": "uint256",
          "name": "newMaxSetUp",
          "type": "uint256"
        }
      ],
      "name": "UpdateMaxSetUp",
      "type": "event"
    },
    {
      "inputs": [],
      "name": "BIBDividend",
      "outputs": [
        {
          "internalType": "contract IBIBDividend",
          "name": "",
          "type": "address"
        }
      ],
      "stateMutability": "view",
      "type": "function"
    },
    {
      "inputs": [],
      "name": "BIBNode",
      "outputs": [
        {
          "internalType": "contract IBIBNode",
          "name": "",
          "type": "address"
        }
      ],
      "stateMutability": "view",
      "type": "function"
    },
    {
      "inputs": [],
      "name": "BIBToken",
      "outputs": [
        {
          "internalType": "contract IERC20Upgradeable",
          "name": "",
          "type": "address"
        }
      ],
      "stateMutability": "view",
      "type": "function"
    },
    {
      "inputs": [
        {
          "internalType": "address",
          "name": "operator",
          "type": "address"
        },
        {
          "internalType": "uint256",
          "name": "_ticket",
          "type": "uint256"
        },
        {
          "internalType": "uint256",
          "name": "_bibAmount",
          "type": "uint256"
        }
      ],
      "name": "createNode",
      "outputs": [],
      "stateMutability": "nonpayable",
      "type": "function"
    },
    {
      "inputs": [],
      "name": "currentTime",
      "outputs": [
        {
          "internalType": "uint256",
          "name": "",
          "type": "uint256"
        }
      ],
      "stateMutability": "view",
      "type": "function"
    },
    {
      "inputs": [
        {
          "internalType": "address",
          "name": "operator",
          "type": "address"
        },
        {
          "internalType": "uint256",
          "name": "_ticket",
          "type": "uint256"
        }
      ],
      "name": "disbandNode",
      "outputs": [],
      "stateMutability": "nonpayable",
      "type": "function"
    },
    {
      "inputs": [],
      "name": "freezeTime",
      "outputs": [
        {
          "internalType": "uint256",
          "name": "",
          "type": "uint256"
        }
      ],
      "stateMutability": "view",
      "type": "function"
    },
    {
      "inputs": [],
      "name": "gasForProcessing",
      "outputs": [
        {
          "internalType": "uint256",
          "name": "",
          "type": "uint256"
        }
      ],
      "stateMutability": "view",
      "type": "function"
    },
    {
      "inputs": [
        {
          "internalType": "address",
          "name": "_account",
          "type": "address"
        }
      ],
      "name": "getAvailableAmount",
      "outputs": [
        {
          "internalType": "uint256",
          "name": "",
          "type": "uint256"
        }
      ],
      "stateMutability": "view",
      "type": "function"
    },
    {
      "inputs": [
        {
          "internalType": "address",
          "name": "_account",
          "type": "address"
        }
      ],
      "name": "getFreezeAmount",
      "outputs": [
        {
          "internalType": "uint256",
          "name": "",
          "type": "uint256"
        }
      ],
      "stateMutability": "view",
      "type": "function"
    },
    {
      "inputs": [
        {
          "internalType": "uint256",
          "name": "_ticketId",
          "type": "uint256"
        }
      ],
      "name": "getLevelByTicket",
      "outputs": [
        {
          "internalType": "uint256",
          "name": "",
          "type": "uint256"
        }
      ],
      "stateMutability": "view",
      "type": "function"
    },
    {
      "inputs": [
        {
          "internalType": "uint256",
          "name": "_ticketId",
          "type": "uint256"
        }
      ],
      "name": "getNodeCurrentMaxStake",
      "outputs": [
        {
          "internalType": "uint256",
          "name": "",
          "type": "uint256"
        }
      ],
      "stateMutability": "view",
      "type": "function"
    },
    {
      "inputs": [
        {
          "internalType": "uint256",
          "name": "_ticketId",
          "type": "uint256"
        }
      ],
      "name": "getNodeMaxStake",
      "outputs": [
        {
          "internalType": "uint256",
          "name": "",
          "type": "uint256"
        }
      ],
      "stateMutability": "view",
      "type": "function"
    },
    {
      "inputs": [
        {
          "internalType": "uint256",
          "name": "_ticketId",
          "type": "uint256"
        }
      ],
      "name": "getNodeMinStake",
      "outputs": [
        {
          "internalType": "uint256",
          "name": "",
          "type": "uint256"
        }
      ],
      "stateMutability": "view",
      "type": "function"
    },
    {
      "inputs": [
        {
          "internalType": "uint256",
          "name": "_ticket",
          "type": "uint256"
        }
      ],
      "name": "getNodeStakeAmount",
      "outputs": [
        {
          "internalType": "uint256",
          "name": "",
          "type": "uint256"
        }
      ],
      "stateMutability": "view",
      "type": "function"
    },
    {
      "inputs": [
        {
          "internalType": "uint256",
          "name": "_ticket",
          "type": "uint256"
        }
      ],
      "name": "getNodeStakingList",
      "outputs": [
        {
          "internalType": "address[]",
          "name": "",
          "type": "address[]"
        }
      ],
      "stateMutability": "view",
      "type": "function"
    },
    {
      "inputs": [
        {
          "internalType": "address",
          "name": "_account",
          "type": "address"
        }
      ],
      "name": "getUserStakeAmount",
      "outputs": [
        {
          "internalType": "uint256",
          "name": "",
          "type": "uint256"
        }
      ],
      "stateMutability": "view",
      "type": "function"
    },
    {
      "inputs": [
        {
          "internalType": "address",
          "name": "_account",
          "type": "address"
        }
      ],
      "name": "getUserStakeList",
      "outputs": [
        {
          "internalType": "uint256[]",
          "name": "nodeList",
          "type": "uint256[]"
        },
        {
          "internalType": "uint256[]",
          "name": "stakeDetail",
          "type": "uint256[]"
        }
      ],
      "stateMutability": "view",
      "type": "function"
    },
    {
      "inputs": [
        {
          "internalType": "address",
          "name": "_bibToken",
          "type": "address"
        },
        {
          "internalType": "address",
          "name": "_bibNode",
          "type": "address"
        },
        {
          "internalType": "address",
          "name": "_bibDividend",
          "type": "address"
        },
        {
          "internalType": "address",
          "name": "_soccerStarNft",
          "type": "address"
        }
      ],
      "name": "initialize",
      "outputs": [],
      "stateMutability": "nonpayable",
      "type": "function"
    },
    {
      "inputs": [
        {
          "internalType": "uint256",
          "name": "_ticketId",
          "type": "uint256"
        }
      ],
      "name": "isTopNode",
      "outputs": [
        {
          "internalType": "bool",
          "name": "",
          "type": "bool"
        }
      ],
      "stateMutability": "view",
      "type": "function"
    },
    {
      "inputs": [
        {
          "internalType": "uint256",
          "name": "",
          "type": "uint256"
        }
      ],
      "name": "maxSetupAmount",
      "outputs": [
        {
          "internalType": "uint256",
          "name": "",
          "type": "uint256"
        }
      ],
      "stateMutability": "view",
      "type": "function"
    },
    {
      "inputs": [
        {
          "internalType": "uint256",
          "name": "",
          "type": "uint256"
        }
      ],
      "name": "nodeMap",
      "outputs": [
        {
          "internalType": "uint256",
          "name": "stakingAmount",
          "type": "uint256"
        },
        {
          "internalType": "uint256",
          "name": "expireTime",
          "type": "uint256"
        },
        {
          "internalType": "address",
          "name": "owner",
          "type": "address"
        }
      ],
      "stateMutability": "view",
      "type": "function"
    },
    {
      "inputs": [
        {
          "internalType": "uint256",
          "name": "_from",
          "type": "uint256"
        },
        {
          "internalType": "uint256",
          "name": "_to",
          "type": "uint256"
        }
      ],
      "name": "nodeStake",
      "outputs": [
        {
          "internalType": "uint256",
          "name": "",
          "type": "uint256"
        }
      ],
      "stateMutability": "nonpayable",
      "type": "function"
    },
    {
      "inputs": [
        {
          "internalType": "uint256",
          "name": "",
          "type": "uint256"
        },
        {
          "internalType": "address",
          "name": "",
          "type": "address"
        }
      ],
      "name": "nodeStakedDetail",
      "outputs": [
        {
          "internalType": "uint256",
          "name": "",
          "type": "uint256"
        }
      ],
      "stateMutability": "view",
      "type": "function"
    },
    {
      "inputs": [
        {
          "internalType": "uint256",
          "name": "",
          "type": "uint256"
        },
        {
          "internalType": "uint256",
          "name": "",
          "type": "uint256"
        }
      ],
      "name": "nodeStakedUsers",
      "outputs": [
        {
          "internalType": "address",
          "name": "",
          "type": "address"
        }
      ],
      "stateMutability": "view",
      "type": "function"
    },
    {
      "inputs": [
        {
          "internalType": "uint256",
          "name": "_from",
          "type": "uint256"
        },
        {
          "internalType": "uint256",
          "name": "_to",
          "type": "uint256"
        }
      ],
      "name": "nodeUnStake",
      "outputs": [
        {
          "internalType": "uint256",
          "name": "",
          "type": "uint256"
        }
      ],
      "stateMutability": "nonpayable",
      "type": "function"
    },
    {
      "inputs": [
        {
          "internalType": "uint256",
          "name": "",
          "type": "uint256"
        }
      ],
      "name": "nodeWigth",
      "outputs": [
        {
          "internalType": "uint256",
          "name": "",
          "type": "uint256"
        }
      ],
      "stateMutability": "view",
      "type": "function"
    },
    {
      "inputs": [],
      "name": "owner",
      "outputs": [
        {
          "internalType": "address",
          "name": "",
          "type": "address"
        }
      ],
      "stateMutability": "view",
      "type": "function"
    },
    {
      "inputs": [],
      "name": "paused",
      "outputs": [
        {
          "internalType": "bool",
          "name": "",
          "type": "bool"
        }
      ],
      "stateMutability": "view",
      "type": "function"
    },
    {
      "inputs": [],
      "name": "renounceOwnership",
      "outputs": [],
      "stateMutability": "nonpayable",
      "type": "function"
    },
    {
      "inputs": [
        {
          "internalType": "address",
          "name": "_bibToken",
          "type": "address"
        }
      ],
      "name": "setBIBToken",
      "outputs": [],
      "stateMutability": "nonpayable",
      "type": "function"
    },
    {
      "inputs": [
        {
          "internalType": "uint256",
          "name": "_currentTime",
          "type": "uint256"
        }
      ],
      "name": "setCurrentTime",
      "outputs": [],
      "stateMutability": "nonpayable",
      "type": "function"
    },
    {
      "inputs": [
        {
          "internalType": "uint256",
          "name": "times",
          "type": "uint256"
        }
      ],
      "name": "setFreezeTime",
      "outputs": [],
      "stateMutability": "nonpayable",
      "type": "function"
    },
    {
      "inputs": [
        {
          "internalType": "uint256",
          "name": "level",
          "type": "uint256"
        },
        {
          "internalType": "uint256",
          "name": "setupAmount",
          "type": "uint256"
        }
      ],
      "name": "setMaxSetupAmount",
      "outputs": [],
      "stateMutability": "nonpayable",
      "type": "function"
    },
    {
      "inputs": [
        {
          "internalType": "uint256[]",
          "name": "_nodeWigth",
          "type": "uint256[]"
        }
      ],
      "name": "setNodeWeight",
      "outputs": [],
      "stateMutability": "nonpayable",
      "type": "function"
    },
    {
      "inputs": [
        {
          "internalType": "address",
          "name": "_soccerStarNft",
          "type": "address"
        }
      ],
      "name": "setSoccerStarNft",
      "outputs": [],
      "stateMutability": "nonpayable",
      "type": "function"
    },
    {
      "inputs": [
        {
          "internalType": "uint256",
          "name": "times",
          "type": "uint256"
        }
      ],
      "name": "setStakeCapTimes",
      "outputs": [],
      "stateMutability": "nonpayable",
      "type": "function"
    },
    {
      "inputs": [
        {
          "internalType": "uint256",
          "name": "c",
          "type": "uint256"
        }
      ],
      "name": "setTopNodeCount",
      "outputs": [],
      "stateMutability": "nonpayable",
      "type": "function"
    },
    {
      "inputs": [],
      "name": "soccerStarNft",
      "outputs": [
        {
          "internalType": "contract ISoccerStarNft",
          "name": "",
          "type": "address"
        }
      ],
      "stateMutability": "view",
      "type": "function"
    },
    {
      "inputs": [],
      "name": "stakeCapTimes",
      "outputs": [
        {
          "internalType": "uint256",
          "name": "",
          "type": "uint256"
        }
      ],
      "stateMutability": "view",
      "type": "function"
    },
    {
      "inputs": [
        {
          "internalType": "address",
          "name": "",
          "type": "address"
        },
        {
          "internalType": "uint256",
          "name": "",
          "type": "uint256"
        }
      ],
      "name": "stakeNodesMap",
      "outputs": [
        {
          "internalType": "uint256",
          "name": "",
          "type": "uint256"
        }
      ],
      "stateMutability": "view",
      "type": "function"
    },
    {
      "inputs": [],
      "name": "topNodeCount",
      "outputs": [
        {
          "internalType": "uint256",
          "name": "",
          "type": "uint256"
        }
      ],
      "stateMutability": "view",
      "type": "function"
    },
    {
      "inputs": [
        {
          "internalType": "address",
          "name": "from",
          "type": "address"
        },
        {
          "internalType": "address",
          "name": "to",
          "type": "address"
        },
        {
          "internalType": "uint256",
          "name": "_ticket",
          "type": "uint256"
        }
      ],
      "name": "transferNodeSetUp",
      "outputs": [],
      "stateMutability": "nonpayable",
      "type": "function"
    },
    {
      "inputs": [
        {
          "internalType": "address",
          "name": "newOwner",
          "type": "address"
        }
      ],
      "name": "transferOwnership",
      "outputs": [],
      "stateMutability": "nonpayable",
      "type": "function"
    },
    {
      "inputs": [
        {
          "internalType": "uint256",
          "name": "newValue",
          "type": "uint256"
        }
      ],
      "name": "updateGasForProcessing",
      "outputs": [],
      "stateMutability": "nonpayable",
      "type": "function"
    },
    {
      "inputs": [
        {
          "internalType": "uint256[]",
          "name": "_tickets",
          "type": "uint256[]"
        },
        {
          "internalType": "uint256[]",
          "name": "_bibAmounts",
          "type": "uint256[]"
        }
      ],
      "name": "updateStake",
      "outputs": [],
      "stateMutability": "nonpayable",
      "type": "function"
    },
    {
      "inputs": [
        {
          "internalType": "address",
          "name": "",
          "type": "address"
        },
        {
          "internalType": "uint256",
          "name": "",
          "type": "uint256"
        }
      ],
      "name": "userFreezeMap",
      "outputs": [
        {
          "internalType": "uint256",
          "name": "amount",
          "type": "uint256"
        },
        {
          "internalType": "uint256",
          "name": "expireTime",
          "type": "uint256"
        }
      ],
      "stateMutability": "view",
      "type": "function"
    }
  ],
  "bytecode": "0x608060405234801561001057600080fd5b50613773806100206000396000f3fe608060405234801561001057600080fd5b50600436106102955760003560e01c8063824430fa11610167578063a9dcb09b116100ce578063d18e81b311610087578063d18e81b314610646578063e4ca273a1461064f578063e9ab1eb41461067a578063f2fde38b1461068d578063f8c8765e146106a0578063fd7e1bee146106b357600080fd5b8063a9dcb09b146105c7578063aa5a34bd146105da578063aafc057f146105fa578063b55dd98e1461060d578063b78a4a9214610620578063be54aa9a1461063357600080fd5b8063953548861161012057806395354886146105525780639c1b8af514610565578063a10f2dab1461056e578063a2f8de7714610581578063a3d0812714610594578063a537809d146105b457600080fd5b8063824430fa146104d5578063871c128d146104f5578063887dd220146105085780638da5cb5b1461051b578063932196801461052c57806395336bae1461053f57600080fd5b8063356ff5cd1161020b5780636b9fa445116101c45780636b9fa445146104635780636d629dbe1461048b5780636f1d2f641461049e578063715018a6146104a75780637612f53c146104af5780637d4f6e77146104c257600080fd5b8063356ff5cd146103aa5780633a12dc19146104065780633b533b201461042957806342d287691461043c5780635c975abb146104455780635f4bc2871461045057600080fd5b80631f3a71ba1161025d5780631f3a71ba146103385780631fce699e1461034b5780632299d43d1461035e57806322f8e566146103715780632f6e60fb14610384578063333fd8a21461039757600080fd5b806305652c801461029a57806307f461d0146102af5780630c98a385146102d957806314cf76c814610304578063178fd18814610317575b600080fd5b6102ad6102a8366004612f9c565b6106bc565b005b6102c26102bd366004612fca565b6106c9565b6040516102d0929190613022565b60405180910390f35b609c546102ec906001600160a01b031681565b6040516001600160a01b0390911681526020016102d0565b609a546102ec906001600160a01b031681565b61032a610325366004612f9c565b610819565b6040519081526020016102d0565b61032a610346366004612fca565b61083a565b61032a610359366004612f9c565b6108c2565b6102ad61036c366004613050565b6109bb565b6102ad61037f366004612f9c565b60a855565b6102ad6103923660046130be565b610a14565b61032a6103a536600461312a565b610fe4565b6103e26103b8366004612f9c565b60a6602052600090815260409020805460018201546002909201549091906001600160a01b031683565b6040805193845260208401929092526001600160a01b0316908201526060016102d0565b610419610414366004612f9c565b611015565b60405190151581526020016102d0565b61032a610437366004613050565b611049565b61032a609f5481565b60335460ff16610419565b6102ad61045e366004612fca565b611167565b61047661047136600461312a565b611191565b604080519283526020830191909152016102d0565b6102ad61049936600461312a565b6111cd565b61032a609e5481565b6102ad61122b565b61032a6104bd366004612fca565b61123f565b609b546102ec906001600160a01b031681565b61032a6104e3366004612f9c565b600090815260a6602052604090205490565b6102ad610503366004612f9c565b611363565b61032a610516366004613050565b611370565b6065546001600160a01b03166102ec565b6099546102ec906001600160a01b031681565b6102ad61054d366004612fca565b6113ba565b6102ad6105603660046131c6565b6113e4565b61032a60a75481565b6102ec61057c366004613050565b611446565b6102ad61058f36600461326c565b61147e565b6105a76105a2366004612f9c565b611662565b6040516102d091906132a1565b61032a6105c2366004612f9c565b6116ce565b61032a6105d5366004612f9c565b611700565b61032a6105e8366004612f9c565b60a16020526000908152604090205481565b6102ad610608366004612f9c565b61171e565b61032a61061b366004612f9c565b61172b565b61032a61062e366004612fca565b611798565b6102ad610641366004612f9c565b6119b3565b61032a60a85481565b61032a61065d3660046132ee565b60a560209081526000928352604080842090915290825290205481565b6102ad61068836600461331e565b6119c0565b6102ad61069b366004612fca565b611d69565b6102ad6106ae36600461335f565b611de2565b61032a609d5481565b6106c4611fcd565b609e55565b60608060a26000846001600160a01b03166001600160a01b0316815260200190815260200160002080548060200260200160405190810160405280929190818152602001828054801561073b57602002820191906000526020600020905b815481526020019060010190808311610727575b50505050509150815167ffffffffffffffff81111561075c5761075c613156565b604051908082528060200260200182016040528015610785578160200160208202803683370190505b50905060005b82518110156108135760a560008483815181106107aa576107aa6133bb565b602002602001015181526020019081526020016000206000856001600160a01b03166001600160a01b03168152602001908152602001600020548282815181106107f6576107f66133bb565b60209081029190910101528061080b816133e7565b91505061078b565b50915091565b60a0818154811061082957600080fd5b600091825260209091200154905081565b60006108bc61084883611798565b609a546040516370a0823160e01b81526001600160a01b038681166004830152909116906370a0823190602401602060405180830381865afa158015610892573d6000803e3d6000fd5b505050506040513d601f19601f820116820180604052508101906108b69190613402565b90612027565b92915050565b60995460405163356ff5cd60e01b81526004810183905260009182916001600160a01b039091169063356ff5cd90602401608060405180830381865afa158015610910573d6000803e3d6000fd5b505050506040513d601f19601f82011682018060405250810190610934919061341b565b60200151609c546040516301ff8f7360e41b8152600481018390529192506000916001600160a01b0390911690631ff8f73090602401600060405180830381865afa158015610987573d6000803e3d6000fd5b505050506040513d6000823e601f3d908101601f191682016040526109af9190810190613516565b60600151949350505050565b6109c3611fcd565b600082815260a16020526040908190208290555182907f8a6cdf838d1eb4be6812cb55a4c0b92fc14f098944cec72ad3158ed986101dcf90610a089084815260200190565b60405180910390a25050565b828114610a575760405162461bcd60e51b815260206004820152600c60248201526b496e76616c6964206172677360a01b60448201526064015b60405180910390fd5b3360008080610a658461083a565b905060005b87811015610e3357600060a560008b8b85818110610a8a57610a8a6133bb565b9050602002013581526020019081526020016000206000876001600160a01b03166001600160a01b0316815260200190815260200160002054905080888884818110610ad857610ad86133bb565b905060200201351415610aeb5750610e21565b80888884818110610afe57610afe6133bb565b905060200201351115610b70576000610b38828a8a86818110610b2357610b236133bb565b9050602002013561202790919063ffffffff16565b9050610b44868261203a565b9550610b69878c8c86818110610b5c57610b5c6133bb565b9050602002013583612046565b5050610bf1565b80888884818110610b8357610b836133bb565b905060200201351015610bf1576000610bbd898985818110610ba757610ba76133bb565b905060200201358361202790919063ffffffff16565b9050610bc9858261203a565b9450610bee878c8c86818110610be157610be16133bb565b905060200201358361220a565b50505b610c1d8a8a84818110610c0657610c066133bb565b90506020020135609761233f90919063ffffffff16565b15610c4857610c438a8a84818110610c3757610c376133bb565b905060200201356123c3565b610dae565b6099546000906001600160a01b031663356ff5cd8c8c86818110610c6e57610c6e6133bb565b905060200201356040518263ffffffff1660e01b8152600401610c9391815260200190565b608060405180830381865afa158015610cb0573d6000803e3d6000fd5b505050506040513d601f19601f82011682018060405250810190610cd4919061341b565b606001519050600060a660008d8d87818110610cf257610cf26133bb565b905060200201358152602001908152602001600020600001549050600060039050610d1c83611015565b15610d25575060015b610daa60a660008f8f89818110610d3e57610d3e6133bb565b60209081029290920135835250810191909152604001600020600201546001600160a01b0316610d6e84846125c5565b8f8f89818110610d8057610d806133bb565b9050602002013560a08581548110610d9a57610d9a6133bb565b9060005260206000200154612602565b5050505b610e1f868b8b85818110610dc457610dc46133bb565b9050602002013560a560008e8e88818110610de157610de16133bb565b90506020020135815260200190815260200160002060008a6001600160a01b03166001600160a01b031681526020019081526020016000205461270d565b505b80610e2b816133e7565b915050610a6a565b50818310610e9057610e458383612027565b811015610e8b5760405162461bcd60e51b8152602060048201526014602482015273496e73756666696369656e742062616c616e636560601b6044820152606401610a4e565b610f02565b6001600160a01b038416600090815260a360205260409081902081518083019092529080610ebe8587612027565b8152602001610ed8609d54610ed260a85490565b9061203a565b90528154600181810184556000938452602093849020835160029093020191825592909101519101555b610f0b84612776565b609b5460a7546040516001624d3b8760e01b031981526001600160a01b039092169163ffb2c47991610f439160040190815260200190565b6060604051808303816000875af1925050508015610f7e575060408051601f3d908101601f19168201909252610f7b918101906135e2565b60015b610f8757610fda565b60a754604080518581526020810185905280820184905260608101929092525132916001917fc864333d6121033635ab41b29ae52f10a22cf4438c3e4f1c4c68518feb2f8a989181900360800190a35050505b5050505050505050565b60a2602052816000526040600020818154811061100057600080fd5b90600052602060002001600091509150505481565b6000609f5461102360975490565b101561103157506001919050565b600061103e60978461286a565b609f54119392505050565b6099546000906001600160a01b031633146110765760405162461bcd60e51b8152600401610a4e90613610565b600083815260a66020526040902054609f5460975411801561109c575061109c84611015565b156111025760006110b9609f5460976128e390919063ffffffff16565b600081815260a66020526040812060028101549054929350611100926001600160a01b03909116916110eb91906125c5565b8360a0600081548110610d9a57610d9a6133bb565b505b61110d609785612952565b50600361111984611015565b15611122575060015b600085815260a6602052604090206002015461115f906001600160a01b031661114b84846125c5565b8760a08581548110610d9a57610d9a6133bb565b509392505050565b61116f611fcd565b609a80546001600160a01b0319166001600160a01b0392909216919091179055565b60a360205281600052604060002081815481106111ad57600080fd5b600091825260209091206002909102018054600190910154909250905082565b6099546001600160a01b031633146111f75760405162461bcd60e51b8152600401610a4e90613610565b600081815260a660205260409020611214609d54610ed260a85490565b600182015560008155611226826123c3565b505050565b611233611fcd565b61123d60006129ec565b565b6001600160a01b038116600090815260a2602090815260408083208054825181850281018501909352808352849383018282801561129c57602002820191906000526020600020905b815481526020019060010190808311611288575b50505050509050600080600090505b825181101561115f5760a660008483815181106112ca576112ca6133bb565b6020026020010151815260200190815260200160002060010154600014156113515761134e60a56000858481518110611305576113056133bb565b602002602001015181526020019081526020016000206000876001600160a01b03166001600160a01b03168152602001908152602001600020548361203a90919063ffffffff16565b91505b8061135b816133e7565b9150506112ab565b61136b611fcd565b60a755565b6099546000906001600160a01b0316331461139d5760405162461bcd60e51b8152600401610a4e90613610565b6113a6836123c3565b5050600090815260a6602052604090205490565b6113c2611fcd565b609c80546001600160a01b0319166001600160a01b0392909216919091179055565b6113ec611fcd565b60048151101561142f5760405162461bcd60e51b815260206004820152600e60248201526d496e76616c696420636f6e66696760901b6044820152606401610a4e565b80516114429060a0906020840190612efc565b5050565b60a4602052816000526040600020818154811061146257600080fd5b6000918252602090912001546001600160a01b03169150829050565b6099546001600160a01b031633146114a85760405162461bcd60e51b8152600401610a4e90613610565b600082815260a6602052604090208054156114f55760405162461bcd60e51b815260206004820152600d60248201526c139bd919481a5cc8195e1a5cdd609a1b6044820152606401610a4e565b816114ff8561083a565b10156115445760405162461bcd60e51b8152602060048201526014602482015273496e73756666696369656e742062616c616e636560601b6044820152606401610a4e565b8181556002810180546001600160a01b0386166001600160a01b03199182168117909255600085815260a460209081526040808320805460018181018355918552838520018054909516861790945584835260a2825280832080549485018155835281832090930187905586825260a581528282208483529052819020849055518491907fa7cce4e8ff59a515dccbee3a6382e94deb1db79bdb43cf35a51251d41ea395f0906115f79086815260200190565b60405180910390a3611608836123c3565b81611612846116ce565b10156116515760405162461bcd60e51b815260206004820152600e60248201526d131a5b5a5d08195e18d95959195960921b6044820152606401610a4e565b61165c84848461270d565b50505050565b600081815260a460209081526040918290208054835181840281018401909452808452606093928301828280156116c257602002820191906000526020600020905b81546001600160a01b031681526001909101906020018083116116a4575b50505050509050919050565b60006108bc609e5460a160006116e3866108c2565b815260200190815260200160002054612a3e90919063ffffffff16565b609e54600082815260a6602052604081205490916108bc9190612a4a565b611726611fcd565b609d55565b600080611737836116ce565b600084815260a6602090815260408083206002015460a583528184206001600160a01b039091168085529252822054609e54939450909290919061177c908390612a3e565b90508084111561178c578061178e565b835b9695505050505050565b6001600160a01b038116600090815260a260209081526040808320805482518185028101850190935280835284938301828280156117f557602002820191906000526020600020905b8154815260200190600101908083116117e1575b50505050509050600080600090505b82518110156118af5760a66000848381518110611823576118236133bb565b60200260200101518152602001908152602001600020600101546000148061187c575060a85460a6600085848151811061185f5761185f6133bb565b602002602001015181526020019081526020016000206001015410155b1561189d5761189a60a56000858481518110611305576113056133bb565b91505b806118a7816133e7565b915050611804565b506001600160a01b038416600090815260a36020908152604080832080548251818502810185019093528083529192909190849084015b8282101561192c578382906000526020600020906002020160405180604001604052908160008201548152602001600182015481525050815260200190600101906118e6565b50505050905060005b81518110156119a95760a854828281518110611953576119536133bb565b6020026020010151602001511061199757611994828281518110611979576119796133bb565b6020026020010151600001518461203a90919063ffffffff16565b92505b806119a1816133e7565b915050611935565b5090949350505050565b6119bb611fcd565b609f55565b6099546001600160a01b031633146119ea5760405162461bcd60e51b8152600401610a4e90613610565b600081815260a660205260409020600060a16000611a07856108c2565b8152602080820192909252604090810160009081205486825260a584528282206001600160a01b038a16835290935290812054919250818310611a4a5781611a4c565b825b6002850180546001600160a01b0319166001600160a01b038916908117909155600087815260a5602090815260408083209383529290522054909150611ae257600085815260a4602090815260408083208054600180820183559185528385200180546001600160a01b0319166001600160a01b038c16908117909155845260a283529083208054918201815583529120018590555b600085815260a5602090815260408083206001600160a01b038a168452909152902054611b0f908261203a565b600086815260a5602090815260408083206001600160a01b038b81168552925280832093909355891681522054811415611b5257611b4d8786612a56565b611ba3565b600085815260a5602090815260408083206001600160a01b038b168452909152902054611b7f9082612027565b600086815260a5602090815260408083206001600160a01b038c1684529091529020555b609a546040516323b872dd60e01b81526001600160a01b03898116600483015230602483015260448201849052909116906323b872dd906064016020604051808303816000875af1158015611bfc573d6000803e3d6000fd5b505050506040513d601f19601f82011682018060405250810190611c209190613633565b50609a5460405163a9059cbb60e01b81526001600160a01b038881166004830152602482018490529091169063a9059cbb906044016020604051808303816000875af1158015611c74573d6000803e3d6000fd5b505050506040513d601f19601f82011682018060405250810190611c989190613633565b50600085815260a5602090815260408083206001600160a01b038b168452909152902054611cc9908890879061270d565b600085815260a5602090815260408083206001600160a01b038a168452909152902054611cf9908790879061270d565b609b546040516325c5ecbb60e01b81526001600160a01b0389811660048301528881166024830152909116906325c5ecbb90604401600060405180830381600087803b158015611d4857600080fd5b505af1158015611d5c573d6000803e3d6000fd5b5050505050505050505050565b611d71611fcd565b6001600160a01b038116611dd65760405162461bcd60e51b815260206004820152602660248201527f4f776e61626c653a206e6577206f776e657220697320746865207a65726f206160448201526564647265737360d01b6064820152608401610a4e565b611ddf816129ec565b50565b600054600190610100900460ff16158015611e04575060005460ff8083169116105b611e675760405162461bcd60e51b815260206004820152602e60248201527f496e697469616c697a61626c653a20636f6e747261637420697320616c72656160448201526d191e481a5b9a5d1a585b1a5e995960921b6064820152608401610a4e565b6000805461ffff191660ff831617610100179055609a80546001600160a01b038088166001600160a01b03199283161790925560998054878416908316179055609b8054868416908316179055609c805492851692909116919091179055611ecd612c54565b611ed5612c83565b60a16020908152692a5a058fc295ed0000007f82810f81d5d6068ad5b62b5073b1161d037affd3559d84ef47a831e06ad04e8655600460008190526a01a784379d99db420000007f452a9a645b43619dc9681d051339fd2836f59d845037283e59145a406fad0d005562093a80609d556032609e55601e609f556040805160808101825260648152605a9381019390935260509083015260486060830152611f7f9160a091612f47565b50600060a7819055805461ff001916905560405160ff821681527f7f26b83ff96e1f2b6a682f133852f6798a09c465da95921460cefb38474024989060200160405180910390a15050505050565b6065546001600160a01b0316331461123d5760405162461bcd60e51b815260206004820181905260248201527f4f776e61626c653a2063616c6c6572206973206e6f7420746865206f776e65726044820152606401610a4e565b60006120338284613655565b9392505050565b6000612033828461366c565b600082815260a6602052604081206001810154156120975760405162461bcd60e51b815260206004820152600e60248201526d139bd919481b9bdd08195e1a5cdd60921b6044820152606401610a4e565b600084815260a5602090815260408083206001600160a01b038916845290915290205461211457600084815260a4602090815260408083208054600180820183559185528385200180546001600160a01b0319166001600160a01b038b16908117909155845260a283529083208054918201815583529120018490555b600084815260a5602090815260408083206001600160a01b0389168452909152902054612141908461203a565b600085815260a5602090815260408083206001600160a01b038a1684529091529020558054612170908461203a565b80825561217c8561172b565b10156121bb5760405162461bcd60e51b815260206004820152600e60248201526d131a5b5a5d08195e18d95959195960921b6044820152606401610a4e565b83856001600160a01b03167fa7cce4e8ff59a515dccbee3a6382e94deb1db79bdb43cf35a51251d41ea395f0856040516121f791815260200190565b60405180910390a3506001949350505050565b600082815260a66020908152604080832060a583528184206001600160a01b0380891680875291909452918420546002820154919390929116141561229c576122538185612027565b61225c86611700565b111561229c5760405162461bcd60e51b815260206004820152600f60248201526e135a5b881cd95d1d5c081b1a5b5a5d608a1b6044820152606401610a4e565b81546122a89085612027565b8255808414156122c1576122bc8686612a56565b6122ef565b6122cb8185612027565b600086815260a5602090815260408083206001600160a01b038b1684529091529020555b84866001600160a01b03167fc7c828c532c03d3105bb4d86d724a0b9aae548a0fb733a5eaee9fea00959c5e58660405161232b91815260200190565b60405180910390a350600195945050505050565b6000818152600183016020908152604080832083805290915281205415801561238257506000828152600180850160209081526040808420928452919052902054155b156123bb5760008080526001808501602090815260408084209284529190529020548214156123b3575060016108bc565b5060006108bc565b5060016108bc565b60006123d060978361286a565b6123db90600161366c565b90506123e8609783612952565b50600082815260a660205260408120805460029091015460975491926001600160a01b039091169161241b90600161366c565b9050821561249257600061243160973086612cb2565b905061243f60978288612d85565b5061244b60978761286a565b61245690600161366c565b609f549092506002908311612469575060005b61248b8461247787846125c5565b8960a08581548110610d9a57610d9a6133bb565b5050612510565b8261251057609b54600086815260a66020526040908190206002015490516336b14edf60e11b81526001600160a01b03918216600482015260248101889052911690636d629dbe90604401600060405180830381600087803b1580156124f757600080fd5b505af115801561250b573d6000803e3d6000fd5b505050505b600080609f5486111580156125265750609f5483115b1561254557600090506001609f5461253e9190613655565b9150612572565b609f54861180156125585750609f548311155b15612569575050609f546002612572565b50505050505050565b600061257f6097846128e3565b600081815260a66020526040902060028101549054919250610fda916001600160a01b03909116906125b190856125c5565b8360a08681548110610d9a57610d9a6133bb565b600061203360646125fc60a085815481106125e2576125e26133bb565b906000526020600020015486612a3e90919063ffffffff16565b90612a4a565b609b5460405163dfb2147760e01b81526001600160a01b0386811660048301526024820186905260448201859052606482018490529091169063dfb2147790608401600060405180830381600087803b15801561265e57600080fd5b505af1158015612672573d6000803e3d6000fd5b5050505060a060008154811061268a5761268a6133bb565b90600052602060002001548114156126d4576040518281527fb6c736c794c1532c9da42ce0da65d14c9eb97d61760ceb2ebca32f24a4e042d19060200160405180910390a161165c565b6040518281527f118869071cb652a628d27af83fd5e44c01eea1aea7c78b23f6cdbfb10f2bb3d89060200160405180910390a150505050565b609b546040516304a8d8b560e01b81526001600160a01b0385811660048301526024820185905260448201849052909116906304a8d8b590606401600060405180830381600087803b15801561276257600080fd5b505af1158015612569573d6000803e3d6000fd5b6001600160a01b038116600090815260a36020526040902080545b801561122657806127a181613684565b9150506127ad60a85490565b8282815481106127bf576127bf6133bb565b906000526020600020906002020160010154101561286557815482906127e790600190613655565b815481106127f7576127f76133bb565b9060005260206000209060020201828281548110612817576128176133bb565b60009182526020909120825460029092020190815560019182015491015581548290806128465761284661369b565b6000828152602081206002600019909301928302018181556001015590555b612791565b6000612874835490565b612880575060006108bc565b600061288f8460006001612d94565b9150505b80158015906128a55750828114600114155b156128dc57816128b4816133e7565b6000928352600180870160209081526040808620928652919052909220549192506128939050565b5092915050565b60006128ed835490565b6128f9575060006108bc565b60006129088460006001612d94565b9150505b801580159061291b5750600083115b15612033578261292a81613684565b60009283526001808701602090815260408086209286529190529092205491935061290c9050565b60008115806129685750612966838361233f565b155b15612975575060006108bc565b6000828152600184810160209081526040808420848052909152808320548284529220546129a7928692909190612ddb565b600082815260018481016020908152604080842084805290915280832083905581835282208290558454909185916129e0908490613655565b90915550919392505050565b606580546001600160a01b038381166001600160a01b0319831681179093556040519116919082907f8be0079c531659141344cd1fd0a4f28419497f9722a3daafe3b4186f6b6457e090600090a35050565b600061203382846136b1565b600061203382846136d0565b600081815260a46020526040902080545b8015612b6b5780612a7781613684565b915050836001600160a01b0316828281548110612a9657612a966133bb565b6000918252602090912001546001600160a01b03161415612b665781548290612ac190600190613655565b81548110612ad157612ad16133bb565b9060005260206000200160009054906101000a90046001600160a01b0316828281548110612b0157612b016133bb565b9060005260206000200160006101000a8154816001600160a01b0302191690836001600160a01b0316021790555081805480612b3f57612b3f61369b565b600082815260209020810160001990810180546001600160a01b0319169055019055612b6b565b612a67565b600083815260a5602090815260408083206001600160a01b0388168452825280832083905560a2909152902080545b8015612c4c5780612baa81613684565b91505084828281548110612bc057612bc06133bb565b90600052602060002001541415612c475781548290612be190600190613655565b81548110612bf157612bf16133bb565b9060005260206000200154828281548110612c0e57612c0e6133bb565b906000526020600020018190555081805480612c2c57612c2c61369b565b60019003818190600052602060002001600090559055612c4c565b612b9a565b505050505050565b600054610100900460ff16612c7b5760405162461bcd60e51b8152600401610a4e906136f2565b61123d612e10565b600054610100900460ff16612caa5760405162461bcd60e51b8152600401610a4e906136f2565b61123d612e43565b6000612cbc845490565b612cc857506000612033565b6000612cd78560006001612d94565b9150505b8015801590612d565750604051634122187d60e11b8152600481018290526001906001600160a01b0386169063824430fa90602401602060405180830381865afa158015612d2d573d6000803e3d6000fd5b505050506040513d601f19601f82011682018060405250810190612d519190613402565b841115145b15612d7d576000908152600180860160209081526040808420928452919052902054612cdb565b949350505050565b6000612d7d8484846000612e73565b600080612da1858561233f565b612db057506000905080612dd3565b505060008281526001848101602090815260408084208515158552909152909120545b935093915050565b600082815260019094016020818152604080872093158088529382528087208690559486529081528385209115855252912055565b600054610100900460ff16612e375760405162461bcd60e51b8152600401610a4e906136f2565b6033805460ff19169055565b600054610100900460ff16612e6a5760405162461bcd60e51b8152600401610a4e906136f2565b61123d336129ec565b6000612e7f858461233f565b158015612e915750612e91858561233f565b15612ef157600084815260018601602090815260408083208515158452909152902054612ec086868686612ddb565b612ecc86858386612ddb565b6001866000016000828254612ee1919061366c565b9091555060019250612d7d915050565b506000949350505050565b828054828255906000526020600020908101928215612f37579160200282015b82811115612f37578251825591602001919060010190612f1c565b50612f43929150612f87565b5090565b828054828255906000526020600020908101928215612f37579160200282015b82811115612f37578251829060ff16905591602001919060010190612f67565b5b80821115612f435760008155600101612f88565b600060208284031215612fae57600080fd5b5035919050565b6001600160a01b0381168114611ddf57600080fd5b600060208284031215612fdc57600080fd5b813561203381612fb5565b600081518084526020808501945080840160005b8381101561301757815187529582019590820190600101612ffb565b509495945050505050565b6040815260006130356040830185612fe7565b82810360208401526130478185612fe7565b95945050505050565b6000806040838503121561306357600080fd5b50508035926020909101359150565b60008083601f84011261308457600080fd5b50813567ffffffffffffffff81111561309c57600080fd5b6020830191508360208260051b85010111156130b757600080fd5b9250929050565b600080600080604085870312156130d457600080fd5b843567ffffffffffffffff808211156130ec57600080fd5b6130f888838901613072565b9096509450602087013591508082111561311157600080fd5b5061311e87828801613072565b95989497509550505050565b6000806040838503121561313d57600080fd5b823561314881612fb5565b946020939093013593505050565b634e487b7160e01b600052604160045260246000fd5b60405160a0810167ffffffffffffffff8111828210171561318f5761318f613156565b60405290565b604051601f8201601f1916810167ffffffffffffffff811182821017156131be576131be613156565b604052919050565b600060208083850312156131d957600080fd5b823567ffffffffffffffff808211156131f157600080fd5b818501915085601f83011261320557600080fd5b81358181111561321757613217613156565b8060051b9150613228848301613195565b818152918301840191848101908884111561324257600080fd5b938501935b8385101561326057843582529385019390850190613247565b98975050505050505050565b60008060006060848603121561328157600080fd5b833561328c81612fb5565b95602085013595506040909401359392505050565b6020808252825182820181905260009190848201906040850190845b818110156132e25783516001600160a01b0316835292840192918401916001016132bd565b50909695505050505050565b6000806040838503121561330157600080fd5b82359150602083013561331381612fb5565b809150509250929050565b60008060006060848603121561333357600080fd5b833561333e81612fb5565b9250602084013561334e81612fb5565b929592945050506040919091013590565b6000806000806080858703121561337557600080fd5b843561338081612fb5565b9350602085013561339081612fb5565b925060408501356133a081612fb5565b915060608501356133b081612fb5565b939692955090935050565b634e487b7160e01b600052603260045260246000fd5b634e487b7160e01b600052601160045260246000fd5b60006000198214156133fb576133fb6133d1565b5060010190565b60006020828403121561341457600080fd5b5051919050565b60006080828403121561342d57600080fd5b6040516080810181811067ffffffffffffffff8211171561345057613450613156565b604052825161345e81612fb5565b808252506020830151602082015260408301516040820152606083015160608201528091505092915050565b600082601f83011261349b57600080fd5b815167ffffffffffffffff8111156134b5576134b5613156565b60206134c9601f8301601f19168201613195565b82815285828487010111156134dd57600080fd5b60005b838110156134fb5785810183015182820184015282016134e0565b8381111561350c5760008385840101525b5095945050505050565b60006020828403121561352857600080fd5b815167ffffffffffffffff8082111561354057600080fd5b9083019060a0828603121561355457600080fd5b61355c61316c565b82518281111561356b57600080fd5b6135778782860161348a565b82525060208301518281111561358c57600080fd5b6135988782860161348a565b6020830152506040830151828111156135b057600080fd5b6135bc8782860161348a565b604083015250606083015160608201526080830151608082015280935050505092915050565b6000806000606084860312156135f757600080fd5b8351925060208401519150604084015190509250925092565b6020808252600990820152684f4e4c595f4e4f444560b81b604082015260600190565b60006020828403121561364557600080fd5b8151801515811461203357600080fd5b600082821015613667576136676133d1565b500390565b6000821982111561367f5761367f6133d1565b500190565b600081613693576136936133d1565b506000190190565b634e487b7160e01b600052603160045260246000fd5b60008160001904831182151516156136cb576136cb6133d1565b500290565b6000826136ed57634e487b7160e01b600052601260045260246000fd5b500490565b6020808252602b908201527f496e697469616c697a61626c653a20636f6e7472616374206973206e6f74206960408201526a6e697469616c697a696e6760a81b60608201526080019056fea264697066735822122015ffb055f534432488e711bb9f4a73f82f46ff648a681aa1a693ee88036bbe5564736f6c634300080b0033",
  "linkReferences": {},
  "deployedLinkReferences": {}
}