{
  "_format": "hh-sol-artifact-1",
  "contractName": "BIBStakingHarness",
  "sourceName": "contracts/test/BIBStakingHarness.sol",
  "abi": [
    {
      "anonymous": false,
      "inputs": [
        {
          "indexed": false,
          "internalType": "uint8",
          "name": "version",
          "type": "uint8"
        }
      ],
      "name": "Initialized",
      "type": "event"
    },
    {
      "anonymous": false,
      "inputs": [
        {
          "indexed": true,
          "internalType": "address",
          "name": "previousOwner",
          "type": "address"
        },
        {
          "indexed": true,
          "internalType": "address",
          "name": "newOwner",
          "type": "address"
        }
      ],
      "name": "OwnershipTransferred",
      "type": "event"
    },
    {
      "anonymous": false,
      "inputs": [
        {
          "indexed": false,
          "internalType": "address",
          "name": "account",
          "type": "address"
        }
      ],
      "name": "Paused",
      "type": "event"
    },
    {
      "anonymous": false,
      "inputs": [
        {
          "indexed": false,
          "internalType": "uint256",
          "name": "iterations",
          "type": "uint256"
        },
        {
          "indexed": false,
          "internalType": "uint256",
          "name": "claims",
          "type": "uint256"
        },
        {
          "indexed": false,
          "internalType": "uint256",
          "name": "lastProcessedIndex",
          "type": "uint256"
        },
        {
          "indexed": true,
          "internalType": "bool",
          "name": "automatic",
          "type": "bool"
        },
        {
          "indexed": false,
          "internalType": "uint256",
          "name": "gas",
          "type": "uint256"
        },
        {
          "indexed": true,
          "internalType": "address",
          "name": "processor",
          "type": "address"
        }
      ],
      "name": "ProcessedDividendTracker",
      "type": "event"
    },
    {
      "anonymous": false,
      "inputs": [
        {
          "indexed": true,
          "internalType": "address",
          "name": "user",
          "type": "address"
        },
        {
          "indexed": true,
          "internalType": "uint256",
          "name": "ticketId",
          "type": "uint256"
        },
        {
          "indexed": false,
          "internalType": "uint256",
          "name": "bibAmount",
          "type": "uint256"
        }
      ],
      "name": "Staking",
      "type": "event"
    },
    {
      "anonymous": false,
      "inputs": [
        {
          "indexed": false,
          "internalType": "uint256",
          "name": "ticketId",
          "type": "uint256"
        }
      ],
      "name": "SuperNode",
      "type": "event"
    },
    {
      "anonymous": false,
      "inputs": [
        {
          "indexed": true,
          "internalType": "address",
          "name": "user",
          "type": "address"
        },
        {
          "indexed": true,
          "internalType": "uint256",
          "name": "ticketId",
          "type": "uint256"
        },
        {
          "indexed": false,
          "internalType": "uint256",
          "name": "bibAmount",
          "type": "uint256"
        }
      ],
      "name": "UnStaking",
      "type": "event"
    },
    {
      "anonymous": false,
      "inputs": [
        {
          "indexed": false,
          "internalType": "uint256",
          "name": "ticketId",
          "type": "uint256"
        }
      ],
      "name": "UnSuperNode",
      "type": "event"
    },
    {
      "anonymous": false,
      "inputs": [
        {
          "indexed": false,
          "internalType": "address",
          "name": "account",
          "type": "address"
        }
      ],
      "name": "Unpaused",
      "type": "event"
    },
    {
      "anonymous": false,
      "inputs": [
        {
          "indexed": true,
          "internalType": "uint256",
          "name": "level",
          "type": "uint256"
        },
        {
          "indexed": false,
          "internalType": "uint256",
          "name": "newMaxSetUp",
          "type": "uint256"
        }
      ],
      "name": "UpdateMaxSetUp",
      "type": "event"
    },
    {
      "inputs": [],
      "name": "BIBDividend",
      "outputs": [
        {
          "internalType": "contract IBIBDividend",
          "name": "",
          "type": "address"
        }
      ],
      "stateMutability": "view",
      "type": "function"
    },
    {
      "inputs": [],
      "name": "BIBNode",
      "outputs": [
        {
          "internalType": "contract IBIBNode",
          "name": "",
          "type": "address"
        }
      ],
      "stateMutability": "view",
      "type": "function"
    },
    {
      "inputs": [],
      "name": "BIBToken",
      "outputs": [
        {
          "internalType": "contract IERC20Upgradeable",
          "name": "",
          "type": "address"
        }
      ],
      "stateMutability": "view",
      "type": "function"
    },
    {
      "inputs": [
        {
          "internalType": "address",
          "name": "operator",
          "type": "address"
        },
        {
          "internalType": "uint256",
          "name": "_ticket",
          "type": "uint256"
        },
        {
          "internalType": "uint256",
          "name": "_bibAmount",
          "type": "uint256"
        }
      ],
      "name": "createNode",
      "outputs": [],
      "stateMutability": "nonpayable",
      "type": "function"
    },
    {
      "inputs": [],
      "name": "currentTime",
      "outputs": [
        {
          "internalType": "uint256",
          "name": "",
          "type": "uint256"
        }
      ],
      "stateMutability": "view",
      "type": "function"
    },
    {
      "inputs": [
        {
          "internalType": "address",
          "name": "operator",
          "type": "address"
        },
        {
          "internalType": "uint256",
          "name": "_ticket",
          "type": "uint256"
        }
      ],
      "name": "disbandNode",
      "outputs": [],
      "stateMutability": "nonpayable",
      "type": "function"
    },
    {
      "inputs": [],
      "name": "freezeTime",
      "outputs": [
        {
          "internalType": "uint256",
          "name": "",
          "type": "uint256"
        }
      ],
      "stateMutability": "view",
      "type": "function"
    },
    {
      "inputs": [],
      "name": "gasForProcessing",
      "outputs": [
        {
          "internalType": "uint256",
          "name": "",
          "type": "uint256"
        }
      ],
      "stateMutability": "view",
      "type": "function"
    },
    {
      "inputs": [
        {
          "internalType": "address",
          "name": "_account",
          "type": "address"
        }
      ],
      "name": "getAvailableAmount",
      "outputs": [
        {
          "internalType": "uint256",
          "name": "",
          "type": "uint256"
        }
      ],
      "stateMutability": "view",
      "type": "function"
    },
    {
      "inputs": [
        {
          "internalType": "address",
          "name": "_account",
          "type": "address"
        }
      ],
      "name": "getFreezeAmount",
      "outputs": [
        {
          "internalType": "uint256",
          "name": "",
          "type": "uint256"
        }
      ],
      "stateMutability": "view",
      "type": "function"
    },
    {
      "inputs": [
        {
          "internalType": "uint256",
          "name": "_ticketId",
          "type": "uint256"
        }
      ],
      "name": "getNodeCurrentMaxStake",
      "outputs": [
        {
          "internalType": "uint256",
          "name": "",
          "type": "uint256"
        }
      ],
      "stateMutability": "view",
      "type": "function"
    },
    {
      "inputs": [
        {
          "internalType": "uint256",
          "name": "_ticketId",
          "type": "uint256"
        }
      ],
      "name": "getNodeMaxStake",
      "outputs": [
        {
          "internalType": "uint256",
          "name": "",
          "type": "uint256"
        }
      ],
      "stateMutability": "view",
      "type": "function"
    },
    {
      "inputs": [
        {
          "internalType": "uint256",
          "name": "_ticketId",
          "type": "uint256"
        }
      ],
      "name": "getNodeMinStake",
      "outputs": [
        {
          "internalType": "uint256",
          "name": "",
          "type": "uint256"
        }
      ],
      "stateMutability": "view",
      "type": "function"
    },
    {
      "inputs": [
        {
          "internalType": "uint256",
          "name": "_ticket",
          "type": "uint256"
        }
      ],
      "name": "getNodeStakeAmount",
      "outputs": [
        {
          "internalType": "uint256",
          "name": "",
          "type": "uint256"
        }
      ],
      "stateMutability": "view",
      "type": "function"
    },
    {
      "inputs": [
        {
          "internalType": "uint256",
          "name": "_ticket",
          "type": "uint256"
        }
      ],
      "name": "getNodeStakingList",
      "outputs": [
        {
          "internalType": "address[]",
          "name": "",
          "type": "address[]"
        }
      ],
      "stateMutability": "view",
      "type": "function"
    },
    {
      "inputs": [
        {
          "internalType": "address",
          "name": "_account",
          "type": "address"
        }
      ],
      "name": "getUserStakeAmount",
      "outputs": [
        {
          "internalType": "uint256",
          "name": "",
          "type": "uint256"
        }
      ],
      "stateMutability": "view",
      "type": "function"
    },
    {
      "inputs": [
        {
          "internalType": "address",
          "name": "_account",
          "type": "address"
        }
      ],
      "name": "getUserStakeList",
      "outputs": [
        {
          "internalType": "uint256[]",
          "name": "nodeList",
          "type": "uint256[]"
        },
        {
          "internalType": "uint256[]",
          "name": "stakeDetail",
          "type": "uint256[]"
        }
      ],
      "stateMutability": "view",
      "type": "function"
    },
    {
      "inputs": [
        {
          "internalType": "address",
          "name": "_bibToken",
          "type": "address"
        },
        {
          "internalType": "address",
          "name": "_bibNode",
          "type": "address"
        },
        {
          "internalType": "address",
          "name": "_bibDividend",
          "type": "address"
        },
        {
          "internalType": "address",
          "name": "_soccerStarNft",
          "type": "address"
        }
      ],
      "name": "initialize",
      "outputs": [],
      "stateMutability": "nonpayable",
      "type": "function"
    },
    {
      "inputs": [
        {
          "internalType": "uint256",
          "name": "_ticketId",
          "type": "uint256"
        }
      ],
      "name": "isTopNode",
      "outputs": [
        {
          "internalType": "bool",
          "name": "",
          "type": "bool"
        }
      ],
      "stateMutability": "view",
      "type": "function"
    },
    {
      "inputs": [
        {
          "internalType": "uint256",
          "name": "",
          "type": "uint256"
        }
      ],
      "name": "maxSetupAmount",
      "outputs": [
        {
          "internalType": "uint256",
          "name": "",
          "type": "uint256"
        }
      ],
      "stateMutability": "view",
      "type": "function"
    },
    {
      "inputs": [
        {
          "internalType": "uint256",
          "name": "",
          "type": "uint256"
        }
      ],
      "name": "nodeMap",
      "outputs": [
        {
          "internalType": "uint256",
          "name": "stakingAmount",
          "type": "uint256"
        },
        {
          "internalType": "uint256",
          "name": "expireTime",
          "type": "uint256"
        },
        {
          "internalType": "address",
          "name": "owner",
          "type": "address"
        }
      ],
      "stateMutability": "view",
      "type": "function"
    },
    {
      "inputs": [
        {
          "internalType": "uint256",
          "name": "_from",
          "type": "uint256"
        },
        {
          "internalType": "uint256",
          "name": "_to",
          "type": "uint256"
        }
      ],
      "name": "nodeStake",
      "outputs": [
        {
          "internalType": "uint256",
          "name": "",
          "type": "uint256"
        }
      ],
      "stateMutability": "nonpayable",
      "type": "function"
    },
    {
      "inputs": [
        {
          "internalType": "uint256",
          "name": "",
          "type": "uint256"
        },
        {
          "internalType": "address",
          "name": "",
          "type": "address"
        }
      ],
      "name": "nodeStakedDetail",
      "outputs": [
        {
          "internalType": "uint256",
          "name": "",
          "type": "uint256"
        }
      ],
      "stateMutability": "view",
      "type": "function"
    },
    {
      "inputs": [
        {
          "internalType": "uint256",
          "name": "",
          "type": "uint256"
        },
        {
          "internalType": "uint256",
          "name": "",
          "type": "uint256"
        }
      ],
      "name": "nodeStakedUsers",
      "outputs": [
        {
          "internalType": "address",
          "name": "",
          "type": "address"
        }
      ],
      "stateMutability": "view",
      "type": "function"
    },
    {
      "inputs": [
        {
          "internalType": "uint256",
          "name": "_from",
          "type": "uint256"
        },
        {
          "internalType": "uint256",
          "name": "_to",
          "type": "uint256"
        }
      ],
      "name": "nodeUnStake",
      "outputs": [
        {
          "internalType": "uint256",
          "name": "",
          "type": "uint256"
        }
      ],
      "stateMutability": "nonpayable",
      "type": "function"
    },
    {
      "inputs": [
        {
          "internalType": "uint256",
          "name": "",
          "type": "uint256"
        }
      ],
      "name": "nodeWigth",
      "outputs": [
        {
          "internalType": "uint256",
          "name": "",
          "type": "uint256"
        }
      ],
      "stateMutability": "view",
      "type": "function"
    },
    {
      "inputs": [],
      "name": "owner",
      "outputs": [
        {
          "internalType": "address",
          "name": "",
          "type": "address"
        }
      ],
      "stateMutability": "view",
      "type": "function"
    },
    {
      "inputs": [],
      "name": "paused",
      "outputs": [
        {
          "internalType": "bool",
          "name": "",
          "type": "bool"
        }
      ],
      "stateMutability": "view",
      "type": "function"
    },
    {
      "inputs": [],
      "name": "renounceOwnership",
      "outputs": [],
      "stateMutability": "nonpayable",
      "type": "function"
    },
    {
      "inputs": [
        {
          "internalType": "uint256",
          "name": "_currentTime",
          "type": "uint256"
        }
      ],
      "name": "setCurrentTime",
      "outputs": [],
      "stateMutability": "nonpayable",
      "type": "function"
    },
    {
      "inputs": [
        {
          "internalType": "uint256",
          "name": "times",
          "type": "uint256"
        }
      ],
      "name": "setFreezeTime",
      "outputs": [],
      "stateMutability": "nonpayable",
      "type": "function"
    },
    {
      "inputs": [
        {
          "internalType": "uint256",
          "name": "level",
          "type": "uint256"
        },
        {
          "internalType": "uint256",
          "name": "setupAmount",
          "type": "uint256"
        }
      ],
      "name": "setMaxSetupAmount",
      "outputs": [],
      "stateMutability": "nonpayable",
      "type": "function"
    },
    {
      "inputs": [
        {
          "internalType": "uint256[]",
          "name": "_nodeWigth",
          "type": "uint256[]"
        }
      ],
      "name": "setNodeWeight",
      "outputs": [],
      "stateMutability": "nonpayable",
      "type": "function"
    },
    {
      "inputs": [
        {
          "internalType": "address",
          "name": "_soccerStarNft",
          "type": "address"
        }
      ],
      "name": "setSoccerStarNft",
      "outputs": [],
      "stateMutability": "nonpayable",
      "type": "function"
    },
    {
      "inputs": [
        {
          "internalType": "uint256",
          "name": "times",
          "type": "uint256"
        }
      ],
      "name": "setStakeCapTimes",
      "outputs": [],
      "stateMutability": "nonpayable",
      "type": "function"
    },
    {
      "inputs": [
        {
          "internalType": "uint256",
          "name": "c",
          "type": "uint256"
        }
      ],
      "name": "setTopNodeCount",
      "outputs": [],
      "stateMutability": "nonpayable",
      "type": "function"
    },
    {
      "inputs": [],
      "name": "soccerStarNft",
      "outputs": [
        {
          "internalType": "contract ISoccerStarNft",
          "name": "",
          "type": "address"
        }
      ],
      "stateMutability": "view",
      "type": "function"
    },
    {
      "inputs": [],
      "name": "stakeCapTimes",
      "outputs": [
        {
          "internalType": "uint256",
          "name": "",
          "type": "uint256"
        }
      ],
      "stateMutability": "view",
      "type": "function"
    },
    {
      "inputs": [
        {
          "internalType": "address",
          "name": "",
          "type": "address"
        },
        {
          "internalType": "uint256",
          "name": "",
          "type": "uint256"
        }
      ],
      "name": "stakeNodesMap",
      "outputs": [
        {
          "internalType": "uint256",
          "name": "",
          "type": "uint256"
        }
      ],
      "stateMutability": "view",
      "type": "function"
    },
    {
      "inputs": [],
      "name": "topNodeCount",
      "outputs": [
        {
          "internalType": "uint256",
          "name": "",
          "type": "uint256"
        }
      ],
      "stateMutability": "view",
      "type": "function"
    },
    {
      "inputs": [
        {
          "internalType": "address",
          "name": "from",
          "type": "address"
        },
        {
          "internalType": "address",
          "name": "to",
          "type": "address"
        },
        {
          "internalType": "uint256",
          "name": "_ticket",
          "type": "uint256"
        }
      ],
      "name": "transferNodeSetUp",
      "outputs": [],
      "stateMutability": "nonpayable",
      "type": "function"
    },
    {
      "inputs": [
        {
          "internalType": "address",
          "name": "newOwner",
          "type": "address"
        }
      ],
      "name": "transferOwnership",
      "outputs": [],
      "stateMutability": "nonpayable",
      "type": "function"
    },
    {
      "inputs": [
        {
          "internalType": "uint256",
          "name": "newValue",
          "type": "uint256"
        }
      ],
      "name": "updateGasForProcessing",
      "outputs": [],
      "stateMutability": "nonpayable",
      "type": "function"
    },
    {
      "inputs": [
        {
          "internalType": "uint256[]",
          "name": "_tickets",
          "type": "uint256[]"
        },
        {
          "internalType": "uint256[]",
          "name": "_bibAmounts",
          "type": "uint256[]"
        }
      ],
      "name": "updateStake",
      "outputs": [],
      "stateMutability": "nonpayable",
      "type": "function"
    },
    {
      "inputs": [
        {
          "internalType": "address",
          "name": "",
          "type": "address"
        },
        {
          "internalType": "uint256",
          "name": "",
          "type": "uint256"
        }
      ],
      "name": "userFreezeMap",
      "outputs": [
        {
          "internalType": "uint256",
          "name": "amount",
          "type": "uint256"
        },
        {
          "internalType": "uint256",
          "name": "expireTime",
          "type": "uint256"
        }
      ],
      "stateMutability": "view",
      "type": "function"
    }
  ],
  "bytecode": "0x608060405234801561001057600080fd5b506136b9806100206000396000f3fe608060405234801561001057600080fd5b506004361061027f5760003560e01c8063871c128d1161015c578063a9dcb09b116100ce578063d18e81b311610087578063d18e81b31461060a578063e4ca273a14610613578063e9ab1eb41461063e578063f2fde38b14610651578063f8c8765e14610664578063fd7e1bee1461067757600080fd5b8063a9dcb09b1461058b578063aa5a34bd1461059e578063aafc057f146105be578063b55dd98e146105d1578063b78a4a92146105e4578063be54aa9a146105f757600080fd5b8063953548861161012057806395354886146105165780639c1b8af514610529578063a10f2dab14610532578063a2f8de7714610545578063a3d0812714610558578063a537809d1461057857600080fd5b8063871c128d146104b9578063887dd220146104cc5780638da5cb5b146104df57806393219680146104f057806395336bae1461050357600080fd5b80633a12dc19116101f55780636d629dbe116101b95780636d629dbe1461044f5780636f1d2f6414610462578063715018a61461046b5780637612f53c146104735780637d4f6e7714610486578063824430fa1461049957600080fd5b80633a12dc19146103dd5780633b533b201461040057806342d28769146104135780635c975abb1461041c5780636b9fa4451461042757600080fd5b80631f3a71ba116102475780631f3a71ba146103225780632299d43d1461033557806322f8e566146103485780632f6e60fb1461035b578063333fd8a21461036e578063356ff5cd1461038157600080fd5b806305652c801461028457806307f461d0146102995780630c98a385146102c357806314cf76c8146102ee578063178fd18814610301575b600080fd5b610297610292366004612ec2565b610680565b005b6102ac6102a7366004612ef0565b61068d565b6040516102ba929190612f48565b60405180910390f35b609c546102d6906001600160a01b031681565b6040516001600160a01b0390911681526020016102ba565b609a546102d6906001600160a01b031681565b61031461030f366004612ec2565b6107dd565b6040519081526020016102ba565b610314610330366004612ef0565b6107fe565b610297610343366004612f76565b610886565b610297610356366004612ec2565b60a855565b610297610369366004612fe4565b6108df565b61031461037c366004613050565b610bd8565b6103b961038f366004612ec2565b60a6602052600090815260409020805460018201546002909201549091906001600160a01b031683565b6040805193845260208401929092526001600160a01b0316908201526060016102ba565b6103f06103eb366004612ec2565b610c09565b60405190151581526020016102ba565b61031461040e366004612f76565b610c3d565b610314609f5481565b60335460ff166103f0565b61043a610435366004613050565b610da6565b604080519283526020830191909152016102ba565b61029761045d366004613050565b610de2565b610314609e5481565b610297610ea4565b610314610481366004612ef0565b610eb8565b609b546102d6906001600160a01b031681565b6103146104a7366004612ec2565b600090815260a6602052604090205490565b6102976104c7366004612ec2565b610fe4565b6103146104da366004612f76565b611030565b6065546001600160a01b03166102d6565b6099546102d6906001600160a01b031681565b610297610511366004612ef0565b6110d5565b6102976105243660046130ec565b6110ff565b61031460a75481565b6102d6610540366004612f76565b611161565b610297610553366004613192565b611199565b61056b610566366004612ec2565b61137e565b6040516102ba91906131c7565b610314610586366004612ec2565b6113ea565b610314610599366004612ec2565b611503565b6103146105ac366004612ec2565b60a16020526000908152604090205481565b6102976105cc366004612ec2565b61152c565b6103146105df366004612ec2565b611539565b6103146105f2366004612ef0565b6115b1565b610297610605366004612ec2565b6117cc565b61031460a85481565b610314610621366004613214565b60a560209081526000928352604080842090915290825290205481565b61029761064c366004613244565b6117d9565b61029761065f366004612ef0565b611b83565b610297610672366004613285565b611bfc565b610314609d5481565b610688611de9565b609e55565b60608060a26000846001600160a01b03166001600160a01b031681526020019081526020016000208054806020026020016040519081016040528092919081815260200182805480156106ff57602002820191906000526020600020905b8154815260200190600101908083116106eb575b50505050509150815167ffffffffffffffff8111156107205761072061307c565b604051908082528060200260200182016040528015610749578160200160208202803683370190505b50905060005b82518110156107d75760a5600084838151811061076e5761076e6132e1565b602002602001015181526020019081526020016000206000856001600160a01b03166001600160a01b03168152602001908152602001600020548282815181106107ba576107ba6132e1565b6020908102919091010152806107cf8161330d565b91505061074f565b50915091565b60a081815481106107ed57600080fd5b600091825260209091200154905081565b600061088061080c836115b1565b609a546040516370a0823160e01b81526001600160a01b038681166004830152909116906370a0823190602401602060405180830381865afa158015610856573d6000803e3d6000fd5b505050506040513d601f19601f8201168201806040525081019061087a9190613328565b90611e43565b92915050565b61088e611de9565b600082815260a16020526040908190208290555182907f8a6cdf838d1eb4be6812cb55a4c0b92fc14f098944cec72ad3158ed986101dcf906108d39084815260200190565b60405180910390a25050565b8281146109225760405162461bcd60e51b815260206004820152600c60248201526b496e76616c6964206172677360a01b60448201526064015b60405180910390fd5b33600061092e826107fe565b905060005b85811015610af757600060a56000898985818110610953576109536132e1565b9050602002013581526020019081526020016000206000856001600160a01b03166001600160a01b03168152602001908152602001600020549050808686848181106109a1576109a16132e1565b9050602002013514156109b45750610ae5565b808686848181106109c7576109c76132e1565b905060200201351115610a74576000610a01828888868181106109ec576109ec6132e1565b90506020020135611e4390919063ffffffff16565b905080841015610a4a5760405162461bcd60e51b8152602060048201526014602482015273496e73756666696369656e742062616c616e636560601b6044820152606401610919565b610a6d858a8a86818110610a6057610a606132e1565b9050602002013583611e56565b5050610ae3565b80868684818110610a8757610a876132e1565b905060200201351015610ae357610ae184898985818110610aaa57610aaa6132e1565b90506020020135610adc898987818110610ac657610ac66132e1565b9050602002013585611e4390919063ffffffff16565b612053565b505b505b80610aef8161330d565b915050610933565b50610b0182612280565b609b5460a7546040516001624d3b8760e01b031981526001600160a01b039092169163ffb2c47991610b399160040190815260200190565b6060604051808303816000875af1925050508015610b74575060408051601f3d908101601f19168201909252610b7191810190613341565b60015b610b7d57610bd0565b60a754604080518581526020810185905280820184905260608101929092525132916001917fc864333d6121033635ab41b29ae52f10a22cf4438c3e4f1c4c68518feb2f8a989181900360800190a35050505b505050505050565b60a26020528160005260406000208181548110610bf457600080fd5b90600052602060002001600091509150505481565b6000609f54610c1760975490565b1015610c2557506001919050565b6000610c32609784612379565b609f54119392505050565b6099546000906001600160a01b03163314610c6a5760405162461bcd60e51b81526004016109199061336f565b600083815260a660209081526040918290205491518581527fb6c736c794c1532c9da42ce0da65d14c9eb97d61760ceb2ebca32f24a4e042d1910160405180910390a1610cb683610c09565b15610d3057600084815260a66020526040902060020154610d0a906001600160a01b0316610ce58360016123f2565b8660a0600181548110610cfa57610cfa6132e1565b906000526020600020015461242f565b6040518481526000805160206136648339815191529060200160405180910390a1610d91565b600084815260a66020526040902060020154610d6f906001600160a01b0316610d5a8360036123f2565b8660a0600381548110610cfa57610cfa6132e1565b6040518481526000805160206136648339815191529060200160405180910390a15b505050600090815260a6602052604090205490565b60a36020528160005260406000208181548110610dc257600080fd5b600091825260209091206002909102018054600190910154909250905082565b6099546001600160a01b03163314610e0c5760405162461bcd60e51b81526004016109199061336f565b600081815260a660205260409020610e2f609d54610e2960a85490565b906124a9565b600182015560008155609b546040516336b14edf60e11b81526001600160a01b0385811660048301526024820185905290911690636d629dbe906044015b600060405180830381600087803b158015610e8757600080fd5b505af1158015610e9b573d6000803e3d6000fd5b50505050505050565b610eac611de9565b610eb660006124b5565b565b6001600160a01b038116600090815260a26020908152604080832080548251818502810185019093528083528493830182828015610f1557602002820191906000526020600020905b815481526020019060010190808311610f01575b50505050509050600080600090505b8251811015610fdc5760a66000848381518110610f4357610f436132e1565b602002602001015181526020019081526020016000206001015460001415610fca57610fc760a56000858481518110610f7e57610f7e6132e1565b602002602001015181526020019081526020016000206000876001600160a01b03166001600160a01b0316815260200190815260200160002054836124a990919063ffffffff16565b91505b80610fd48161330d565b915050610f24565b509392505050565b610fec611de9565b60a75481141561102b5760405162461bcd60e51b815260206004820152600a60248201526953616d652076616c756560b01b6044820152606401610919565b60a755565b6099546000906001600160a01b0316331461105d5760405162461bcd60e51b81526004016109199061336f565b600083815260a660205260409020600281015490546110a0916001600160a01b03169061108b9060016123f2565b8560a0600181548110610cfa57610cfa6132e1565b6040518381526000805160206136648339815191529060200160405180910390a15050600090815260a6602052604090205490565b6110dd611de9565b609c80546001600160a01b0319166001600160a01b0392909216919091179055565b611107611de9565b60048151101561114a5760405162461bcd60e51b815260206004820152600e60248201526d496e76616c696420636f6e66696760901b6044820152606401610919565b805161115d9060a0906020840190612e22565b5050565b60a4602052816000526040600020818154811061117d57600080fd5b6000918252602090912001546001600160a01b03169150829050565b6099546001600160a01b031633146111c35760405162461bcd60e51b81526004016109199061336f565b600082815260a6602052604090208054156112105760405162461bcd60e51b815260206004820152600d60248201526c139bd919481a5cc8195e1a5cdd609a1b6044820152606401610919565b8161121a856107fe565b101561125f5760405162461bcd60e51b8152602060048201526014602482015273496e73756666696369656e742062616c616e636560601b6044820152606401610919565b8181556002810180546001600160a01b0386166001600160a01b03199182168117909255600085815260a460209081526040808320805460018181018355918552838520018054909516861790945584835260a2825280832080549485018155835281832090930187905586825260a581528282208483529052819020849055518491907fa7cce4e8ff59a515dccbee3a6382e94deb1db79bdb43cf35a51251d41ea395f0906113129086815260200190565b60405180910390a361132383612507565b805461132e846113ea565b101561136d5760405162461bcd60e51b815260206004820152600e60248201526d131a5b5a5d08195e18d95959195960921b6044820152606401610919565b6113788484846127a7565b50505050565b600081815260a460209081526040918290208054835181840281018401909452808452606093928301828280156113de57602002820191906000526020600020905b81546001600160a01b031681526001909101906020018083116113c0575b50505050509050919050565b60995460405163356ff5cd60e01b81526004810183905260009182916001600160a01b039091169063356ff5cd90602401608060405180830381865afa158015611438573d6000803e3d6000fd5b505050506040513d601f19601f8201168201806040525081019061145c9190613392565b60200151609c546040516301ff8f7360e41b8152600481018390529192506000916001600160a01b0390911690631ff8f73090602401600060405180830381865afa1580156114af573d6000803e3d6000fd5b505050506040513d6000823e601f3d908101601f191682016040526114d7919081019061348d565b609e546060820151600090815260a160205260409020549192506114fb91906127e7565b949350505050565b6000610880609e5460016115179190613559565b600084815260a66020526040902054906127f3565b611534611de9565b609d55565b600080611545836113ea565b600084815260a6602090815260408083206002015460a583528184206001600160a01b039091168085529252822054609e5493945090929091906115959061158e906001613559565b83906127e7565b9050808411156115a557806115a7565b835b9695505050505050565b6001600160a01b038116600090815260a2602090815260408083208054825181850281018501909352808352849383018282801561160e57602002820191906000526020600020905b8154815260200190600101908083116115fa575b50505050509050600080600090505b82518110156116c85760a6600084838151811061163c5761163c6132e1565b602002602001015181526020019081526020016000206001015460001480611695575060a85460a66000858481518110611678576116786132e1565b602002602001015181526020019081526020016000206001015410155b156116b6576116b360a56000858481518110610f7e57610f7e6132e1565b91505b806116c08161330d565b91505061161d565b506001600160a01b038416600090815260a36020908152604080832080548251818502810185019093528083529192909190849084015b82821015611745578382906000526020600020906002020160405180604001604052908160008201548152602001600182015481525050815260200190600101906116ff565b50505050905060005b81518110156117c25760a85482828151811061176c5761176c6132e1565b602002602001015160200151106117b0576117ad828281518110611792576117926132e1565b602002602001015160000151846124a990919063ffffffff16565b92505b806117ba8161330d565b91505061174e565b5090949350505050565b6117d4611de9565b609f55565b6099546001600160a01b031633146118035760405162461bcd60e51b81526004016109199061336f565b600081815260a66020526040902060995460405163356ff5cd60e01b8152600481018490526000916001600160a01b03169063356ff5cd90602401608060405180830381865afa15801561185b573d6000803e3d6000fd5b505050506040513d601f19601f8201168201806040525081019061187f9190613392565b60200151609c546040516301ff8f7360e41b8152600481018390529192506000916001600160a01b0390911690631ff8f73090602401600060405180830381865afa1580156118d2573d6000803e3d6000fd5b505050506040513d6000823e601f3d908101601f191682016040526118fa919081019061348d565b6060810151600090815260a1602090815260408083205488845260a583528184206001600160a01b038c168552909252822054929350919081831061193f5781611941565b825b6002870180546001600160a01b0319166001600160a01b038b16908117909155600089815260a56020908152604080832093835292905220549091506119d757600087815260a4602090815260408083208054600180820183559185528385200180546001600160a01b0319166001600160a01b038e16908117909155845260a283529083208054918201815583529120018790555b600087815260a5602090815260408083206001600160a01b038c168452909152902054611a0490826124a9565b600088815260a5602090815260408083206001600160a01b038d811685529252808320939093558b1681522054811415611a4757611a4289886127ff565b611a98565b600087815260a5602090815260408083206001600160a01b038d168452909152902054611a749082611e43565b600088815260a5602090815260408083206001600160a01b038e1684529091529020555b609a546040516323b872dd60e01b81526001600160a01b038b811660048301528a8116602483015260448201849052909116906323b872dd906064016020604051808303816000875af1158015611af3573d6000803e3d6000fd5b505050506040513d601f19601f82011682018060405250810190611b179190613571565b50600087815260a5602090815260408083206001600160a01b038d168452909152902054611b48908a9089906127a7565b600087815260a5602090815260408083206001600160a01b038c168452909152902054611b7890899089906127a7565b505050505050505050565b611b8b611de9565b6001600160a01b038116611bf05760405162461bcd60e51b815260206004820152602660248201527f4f776e61626c653a206e6577206f776e657220697320746865207a65726f206160448201526564647265737360d01b6064820152608401610919565b611bf9816124b5565b50565b600054600190610100900460ff16158015611c1e575060005460ff8083169116105b611c815760405162461bcd60e51b815260206004820152602e60248201527f496e697469616c697a61626c653a20636f6e747261637420697320616c72656160448201526d191e481a5b9a5d1a585b1a5e995960921b6064820152608401610919565b6000805461ffff191660ff831617610100179055609a80546001600160a01b038088166001600160a01b03199283161790925560998054878416908316179055609b8054868416908316179055609c805492851692909116919091179055611ce76129f5565b611cef612a24565b60a16020908152692a5a058fc295ed0000007f82810f81d5d6068ad5b62b5073b1161d037affd3559d84ef47a831e06ad04e8655600460008190526a01a784379d99db420000007f452a9a645b43619dc9681d051339fd2836f59d845037283e59145a406fad0d005562093a80609d556032609e55601e609f556040805160808101825260648152605a9381019390935260509083015260486060830152611d999160a091612e6d565b50620493e060a7556000805461ff001916905560405160ff821681527f7f26b83ff96e1f2b6a682f133852f6798a09c465da95921460cefb38474024989060200160405180910390a15050505050565b6065546001600160a01b03163314610eb65760405162461bcd60e51b815260206004820181905260248201527f4f776e61626c653a2063616c6c6572206973206e6f7420746865206f776e65726044820152606401610919565b6000611e4f8284613593565b9392505050565b600082815260a660205260408120600181015415611ea75760405162461bcd60e51b815260206004820152600e60248201526d139bd919481b9bdd08195e1a5cdd60921b6044820152606401610919565b600084815260a5602090815260408083206001600160a01b0389168452909152902054611f2457600084815260a4602090815260408083208054600180820183559185528385200180546001600160a01b0319166001600160a01b038b16908117909155845260a283529083208054918201815583529120018490555b600084815260a5602090815260408083206001600160a01b0389168452909152902054611f5190846124a9565b600085815260a5602090815260408083206001600160a01b038a1684529091529020558054611f8090846124a9565b808255611f8c85611539565b1015611fcb5760405162461bcd60e51b815260206004820152600e60248201526d131a5b5a5d08195e18d95959195960921b6044820152606401610919565b83856001600160a01b03167fa7cce4e8ff59a515dccbee3a6382e94deb1db79bdb43cf35a51251d41ea395f08560405161200791815260200190565b60405180910390a361201884612507565b600084815260a5602090815260408083206001600160a01b038916845290915290205461204890869086906127a7565b506001949350505050565b600082815260a66020908152604080832060a583528184206001600160a01b03881685529092528220548061208d57600192505050611e4f565b838110156120d25760405162461bcd60e51b8152602060048201526012602482015271496e73756666696369656e74207374616b6560701b6044820152606401610919565b60028201546001600160a01b038781169116141561213d576120f48185611e43565b6120fd86611503565b111561213d5760405162461bcd60e51b815260206004820152600f60248201526e135a5b881cd95d1d5c081b1a5b5a5d608a1b6044820152606401610919565b81546121499085611e43565b8255808414156121625761215d86866127ff565b612190565b61216c8185611e43565b600086815260a5602090815260408083206001600160a01b038b1684529091529020555b60a36000876001600160a01b03166001600160a01b0316815260200190815260200160002060405180604001604052808681526020016121d5609d54610e2960a85490565b9052815460018082018455600093845260209384902083516002909302019182559183015191015560405185815286916001600160a01b038916917fc7c828c532c03d3105bb4d86d724a0b9aae548a0fb733a5eaee9fea00959c5e5910160405180910390a361224485612507565b600085815260a5602090815260408083206001600160a01b038a16845290915290205461227490879087906127a7565b50600195945050505050565b6001600160a01b038116600090815260a36020526040902080545b801561237457806122ab816135aa565b9150506122b760a85490565b8282815481106122c9576122c96132e1565b906000526020600020906002020160010154101561236f57815482906122f190600190613593565b81548110612301576123016132e1565b9060005260206000209060020201828281548110612321576123216132e1565b6000918252602090912082546002909202019081556001918201549101558154829080612350576123506135c1565b6000828152602081206002600019909301928302018181556001015590555b61229b565b505050565b6000612383835490565b61238f57506000610880565b600061239e8460006001612a53565b9150505b80158015906123b45750828114600114155b156123eb57816123c38161330d565b6000928352600180870160209081526040808620928652919052909220549192506123a29050565b5092915050565b6000611e4f606461242960a0858154811061240f5761240f6132e1565b9060005260206000200154866127e790919063ffffffff16565b906127f3565b609b5460405163dfb2147760e01b81526001600160a01b0386811660048301526024820186905260448201859052606482018490529091169063dfb2147790608401600060405180830381600087803b15801561248b57600080fd5b505af115801561249f573d6000803e3d6000fd5b5050505050505050565b6000611e4f8284613559565b606580546001600160a01b038381166001600160a01b0319831681179093556040519116919082907f8be0079c531659141344cd1fd0a4f28419497f9722a3daafe3b4186f6b6457e090600090a35050565b6000612514609783612379565b61251f906001613559565b905061252c609783612a9a565b50600082815260a660205260408120549061254960973084612b34565b905061255760978286612bff565b50600084815260a660205260408120600201546001600160a01b03169061257f609787612379565b61258a906001613559565b9050609f54811115806125a15750609f5460975411155b15612602576125ca826125b58660006123f2565b8860a0600081548110610cfa57610cfa6132e1565b6040518681527fb6c736c794c1532c9da42ce0da65d14c9eb97d61760ceb2ebca32f24a4e042d19060200160405180910390a1612652565b609f54811115612652576126308261261b8660026123f2565b8860a0600281548110610cfa57610cfa6132e1565b6040518681526000805160206136648339815191529060200160405180910390a15b609f5485111580156126655750609f5481115b156127065760006126866001609f5461267e9190613593565b609790612c0e565b600081815260a660205260408120600281015490549293506126cd926001600160a01b03909116916126b891906123f2565b8360a0600081548110610cfa57610cfa6132e1565b6040518181527fb6c736c794c1532c9da42ce0da65d14c9eb97d61760ceb2ebca32f24a4e042d19060200160405180910390a150610bd0565b609f54851180156127195750609f548111155b15610bd0576000612736609f546097612c0e90919063ffffffff16565b600081815260a660205260409020600280820154915492935061277d926001600160a01b0390921691612768916123f2565b8360a0600281548110610cfa57610cfa6132e1565b6040518181526000805160206136648339815191529060200160405180910390a150505050505050565b609b546040516304a8d8b560e01b81526001600160a01b0385811660048301526024820185905260448201849052909116906304a8d8b590606401610e6d565b6000611e4f82846135d7565b6000611e4f82846135f6565b600081815260a46020526040902080545b80156129145780612820816135aa565b915050836001600160a01b031682828154811061283f5761283f6132e1565b6000918252602090912001546001600160a01b0316141561290f578154829061286a90600190613593565b8154811061287a5761287a6132e1565b9060005260206000200160009054906101000a90046001600160a01b03168282815481106128aa576128aa6132e1565b9060005260206000200160006101000a8154816001600160a01b0302191690836001600160a01b03160217905550818054806128e8576128e86135c1565b600082815260209020810160001990810180546001600160a01b0319169055019055612914565b612810565b600083815260a5602090815260408083206001600160a01b0388168452825280832083905560a2909152902080545b8015610bd05780612953816135aa565b91505084828281548110612969576129696132e1565b906000526020600020015414156129f0578154829061298a90600190613593565b8154811061299a5761299a6132e1565b90600052602060002001548282815481106129b7576129b76132e1565b9060005260206000200181905550818054806129d5576129d56135c1565b60019003818190600052602060002001600090559055610bd0565b612943565b600054610100900460ff16612a1c5760405162461bcd60e51b815260040161091990613618565b610eb6612c7d565b600054610100900460ff16612a4b5760405162461bcd60e51b815260040161091990613618565b610eb6612cb0565b600080612a608585612ce0565b612a6f57506000905080612a92565b505060008281526001848101602090815260408084208515158552909152909120545b935093915050565b6000811580612ab05750612aae8383612ce0565b155b15612abd57506000610880565b600082815260018481016020908152604080842084805290915280832054828452922054612aef928692909190612d64565b60008281526001848101602090815260408084208480529091528083208390558183528220829055845490918591612b28908490613593565b90915550919392505050565b6000612b3e845490565b612b4a57506000611e4f565b6000612b598560006001612a53565b9150505b8015801590612bd85750604051634122187d60e11b8152600481018290526001906001600160a01b0386169063824430fa90602401602060405180830381865afa158015612baf573d6000803e3d6000fd5b505050506040513d601f19601f82011682018060405250810190612bd39190613328565b841014155b156114fb576000908152600180860160209081526040808420928452919052902054612b5d565b60006114fb8484846001612d99565b6000612c18835490565b612c2457506000610880565b6000612c338460006001612a53565b9150505b8015801590612c465750600083115b15611e4f5782612c55816135aa565b600092835260018087016020908152604080862092865291905290922054919350612c379050565b600054610100900460ff16612ca45760405162461bcd60e51b815260040161091990613618565b6033805460ff19169055565b600054610100900460ff16612cd75760405162461bcd60e51b815260040161091990613618565b610eb6336124b5565b60008181526001830160209081526040808320838052909152812054158015612d2357506000828152600180850160209081526040808420928452919052902054155b15612d5c576000808052600180850160209081526040808420928452919052902054821415612d5457506001610880565b506000610880565b506001610880565b600082815260019094016020818152604080872093158088529382528087208690559486529081528385209115855252912055565b6000612da58584612ce0565b158015612db75750612db78585612ce0565b15612e1757600084815260018601602090815260408083208515158452909152902054612de686868686612d64565b612df286858386612d64565b6001866000016000828254612e079190613559565b90915550600192506114fb915050565b506000949350505050565b828054828255906000526020600020908101928215612e5d579160200282015b82811115612e5d578251825591602001919060010190612e42565b50612e69929150612ead565b5090565b828054828255906000526020600020908101928215612e5d579160200282015b82811115612e5d578251829060ff16905591602001919060010190612e8d565b5b80821115612e695760008155600101612eae565b600060208284031215612ed457600080fd5b5035919050565b6001600160a01b0381168114611bf957600080fd5b600060208284031215612f0257600080fd5b8135611e4f81612edb565b600081518084526020808501945080840160005b83811015612f3d57815187529582019590820190600101612f21565b509495945050505050565b604081526000612f5b6040830185612f0d565b8281036020840152612f6d8185612f0d565b95945050505050565b60008060408385031215612f8957600080fd5b50508035926020909101359150565b60008083601f840112612faa57600080fd5b50813567ffffffffffffffff811115612fc257600080fd5b6020830191508360208260051b8501011115612fdd57600080fd5b9250929050565b60008060008060408587031215612ffa57600080fd5b843567ffffffffffffffff8082111561301257600080fd5b61301e88838901612f98565b9096509450602087013591508082111561303757600080fd5b5061304487828801612f98565b95989497509550505050565b6000806040838503121561306357600080fd5b823561306e81612edb565b946020939093013593505050565b634e487b7160e01b600052604160045260246000fd5b60405160a0810167ffffffffffffffff811182821017156130b5576130b561307c565b60405290565b604051601f8201601f1916810167ffffffffffffffff811182821017156130e4576130e461307c565b604052919050565b600060208083850312156130ff57600080fd5b823567ffffffffffffffff8082111561311757600080fd5b818501915085601f83011261312b57600080fd5b81358181111561313d5761313d61307c565b8060051b915061314e8483016130bb565b818152918301840191848101908884111561316857600080fd5b938501935b838510156131865784358252938501939085019061316d565b98975050505050505050565b6000806000606084860312156131a757600080fd5b83356131b281612edb565b95602085013595506040909401359392505050565b6020808252825182820181905260009190848201906040850190845b818110156132085783516001600160a01b0316835292840192918401916001016131e3565b50909695505050505050565b6000806040838503121561322757600080fd5b82359150602083013561323981612edb565b809150509250929050565b60008060006060848603121561325957600080fd5b833561326481612edb565b9250602084013561327481612edb565b929592945050506040919091013590565b6000806000806080858703121561329b57600080fd5b84356132a681612edb565b935060208501356132b681612edb565b925060408501356132c681612edb565b915060608501356132d681612edb565b939692955090935050565b634e487b7160e01b600052603260045260246000fd5b634e487b7160e01b600052601160045260246000fd5b6000600019821415613321576133216132f7565b5060010190565b60006020828403121561333a57600080fd5b5051919050565b60008060006060848603121561335657600080fd5b8351925060208401519150604084015190509250925092565b6020808252600990820152684f4e4c595f4e4f444560b81b604082015260600190565b6000608082840312156133a457600080fd5b6040516080810181811067ffffffffffffffff821117156133c7576133c761307c565b60405282516133d581612edb565b808252506020830151602082015260408301516040820152606083015160608201528091505092915050565b600082601f83011261341257600080fd5b815167ffffffffffffffff81111561342c5761342c61307c565b6020613440601f8301601f191682016130bb565b828152858284870101111561345457600080fd5b60005b83811015613472578581018301518282018401528201613457565b838111156134835760008385840101525b5095945050505050565b60006020828403121561349f57600080fd5b815167ffffffffffffffff808211156134b757600080fd5b9083019060a082860312156134cb57600080fd5b6134d3613092565b8251828111156134e257600080fd5b6134ee87828601613401565b82525060208301518281111561350357600080fd5b61350f87828601613401565b60208301525060408301518281111561352757600080fd5b61353387828601613401565b604083015250606083015160608201526080830151608082015280935050505092915050565b6000821982111561356c5761356c6132f7565b500190565b60006020828403121561358357600080fd5b81518015158114611e4f57600080fd5b6000828210156135a5576135a56132f7565b500390565b6000816135b9576135b96132f7565b506000190190565b634e487b7160e01b600052603160045260246000fd5b60008160001904831182151516156135f1576135f16132f7565b500290565b60008261361357634e487b7160e01b600052601260045260246000fd5b500490565b6020808252602b908201527f496e697469616c697a61626c653a20636f6e7472616374206973206e6f74206960408201526a6e697469616c697a696e6760a81b60608201526080019056fe118869071cb652a628d27af83fd5e44c01eea1aea7c78b23f6cdbfb10f2bb3d8a2646970667358221220c9776df09b7c2fb403a1af2ccf6115f5e48d1f1ef65d15ea6558e7d5093adb1f64736f6c634300080b0033",
  "linkReferences": {},
  "deployedLinkReferences": {}
}