{
  "_format": "hh-sol-artifact-1",
  "contractName": "BIBOracle",
  "sourceName": "contracts/misc/oracle/BIBOracle.sol",
  "abi": [
    {
      "inputs": [
        {
          "internalType": "address",
          "name": "priceAggregatorAdapter",
          "type": "address"
        },
        {
          "internalType": "address",
          "name": "fallbackOracle",
          "type": "address"
        },
        {
          "internalType": "address",
          "name": "baseCurrency",
          "type": "address"
        },
        {
          "internalType": "uint256",
          "name": "baseCurrencyUnit",
          "type": "uint256"
        }
      ],
      "stateMutability": "nonpayable",
      "type": "constructor"
    },
    {
      "anonymous": false,
      "inputs": [
        {
          "indexed": true,
          "internalType": "address",
          "name": "priceAggregator",
          "type": "address"
        }
      ],
      "name": "AssetSourceUpdated",
      "type": "event"
    },
    {
      "anonymous": false,
      "inputs": [
        {
          "indexed": true,
          "internalType": "address",
          "name": "baseCurrency",
          "type": "address"
        },
        {
          "indexed": false,
          "internalType": "uint256",
          "name": "baseCurrencyUnit",
          "type": "uint256"
        }
      ],
      "name": "BaseCurrencySet",
      "type": "event"
    },
    {
      "anonymous": false,
      "inputs": [
        {
          "indexed": true,
          "internalType": "address",
          "name": "fallbackOracle",
          "type": "address"
        }
      ],
      "name": "FallbackOracleUpdated",
      "type": "event"
    },
    {
      "anonymous": false,
      "inputs": [
        {
          "indexed": true,
          "internalType": "address",
          "name": "previousOwner",
          "type": "address"
        },
        {
          "indexed": true,
          "internalType": "address",
          "name": "newOwner",
          "type": "address"
        }
      ],
      "name": "OwnershipTransferred",
      "type": "event"
    },
    {
      "inputs": [],
      "name": "BASE_CURRENCY",
      "outputs": [
        {
          "internalType": "address",
          "name": "",
          "type": "address"
        }
      ],
      "stateMutability": "view",
      "type": "function"
    },
    {
      "inputs": [],
      "name": "BASE_CURRENCY_UNIT",
      "outputs": [
        {
          "internalType": "uint256",
          "name": "",
          "type": "uint256"
        }
      ],
      "stateMutability": "view",
      "type": "function"
    },
    {
      "inputs": [
        {
          "internalType": "address",
          "name": "asset",
          "type": "address"
        }
      ],
      "name": "getAssetPrice",
      "outputs": [
        {
          "internalType": "uint256",
          "name": "",
          "type": "uint256"
        }
      ],
      "stateMutability": "view",
      "type": "function"
    },
    {
      "inputs": [
        {
          "internalType": "address[]",
          "name": "assets",
          "type": "address[]"
        }
      ],
      "name": "getAssetsPrices",
      "outputs": [
        {
          "internalType": "uint256[]",
          "name": "",
          "type": "uint256[]"
        }
      ],
      "stateMutability": "view",
      "type": "function"
    },
    {
      "inputs": [],
      "name": "getFallbackOracle",
      "outputs": [
        {
          "internalType": "address",
          "name": "",
          "type": "address"
        }
      ],
      "stateMutability": "view",
      "type": "function"
    },
    {
      "inputs": [],
      "name": "owner",
      "outputs": [
        {
          "internalType": "address",
          "name": "",
          "type": "address"
        }
      ],
      "stateMutability": "view",
      "type": "function"
    },
    {
      "inputs": [],
      "name": "renounceOwnership",
      "outputs": [],
      "stateMutability": "nonpayable",
      "type": "function"
    },
    {
      "inputs": [
        {
          "internalType": "address",
          "name": "fallbackOracle",
          "type": "address"
        }
      ],
      "name": "setFallbackOracle",
      "outputs": [],
      "stateMutability": "nonpayable",
      "type": "function"
    },
    {
      "inputs": [
        {
          "internalType": "address",
          "name": "priceAggregator",
          "type": "address"
        }
      ],
      "name": "setPriceAggregator",
      "outputs": [],
      "stateMutability": "nonpayable",
      "type": "function"
    },
    {
      "inputs": [
        {
          "internalType": "address",
          "name": "newOwner",
          "type": "address"
        }
      ],
      "name": "transferOwnership",
      "outputs": [],
      "stateMutability": "nonpayable",
      "type": "function"
    }
  ],
  "bytecode": "0x60c060405234801561001057600080fd5b5060405161094d38038061094d83398101604081905261002f9161019a565b6100383361009a565b610041836100ea565b61004a84610134565b6001600160a01b038216608081905260a08290526040518281527fe27c4c1372396a3d15a9922f74f9dfc7c72b1ad6d63868470787249c356454c19060200160405180910390a2505050506101e5565b600080546001600160a01b038381166001600160a01b0319831681178455604051919092169283917f8be0079c531659141344cd1fd0a4f28419497f9722a3daafe3b4186f6b6457e09190a35050565b600180546001600160a01b0319166001600160a01b0383169081179091556040517fce7a780d33665b1ea097af5f155e3821b809ecbaa839d3b33aa83ba28168cefb90600090a250565b600280546001600160a01b0319166001600160a01b0383169081179091556040517fc4439bc964d6232a275de14d02a2a09e1bbe352315d0f1aae1cfa52610299f3990600090a250565b80516001600160a01b038116811461019557600080fd5b919050565b600080600080608085870312156101b057600080fd5b6101b98561017e565b93506101c76020860161017e565b92506101d56040860161017e565b6060959095015193969295505050565b60805160a0516107356102186000396000818161010201526102dd01526000818161017b01526102a201526107356000f3fe608060405234801561001057600080fd5b506004361061009e5760003560e01c80638da5cb5b116100665780638da5cb5b146101325780639d23d9f214610143578063b3596f0714610163578063e19f470014610176578063f2fde38b1461019d57600080fd5b8063170aee73146100a35780635070e837146100b85780636210308c146100cb578063715018a6146100f55780638c89b64f146100fd575b600080fd5b6100b66100b13660046105af565b6101b0565b005b6100b66100c63660046105af565b6101c4565b6001546001600160a01b03165b6040516001600160a01b0390911681526020015b60405180910390f35b6100b66101d5565b6101247f000000000000000000000000000000000000000000000000000000000000000081565b6040519081526020016100ec565b6000546001600160a01b03166100d8565b6101566101513660046105d8565b6101e9565b6040516100ec919061064d565b6101246101713660046105af565b61029e565b6100d87f000000000000000000000000000000000000000000000000000000000000000081565b6100b66101ab3660046105af565b6103f6565b6101b8610471565b6101c1816104cb565b50565b6101cc610471565b6101c181610515565b6101dd610471565b6101e7600061055f565b565b606060008267ffffffffffffffff81111561020657610206610691565b60405190808252806020026020018201604052801561022f578160200160208202803683370190505b50905060005b8381101561029657610267858583818110610252576102526106a7565b905060200201602081019061017191906105af565b828281518110610279576102796106a7565b60209081029190910101528061028e816106bd565b915050610235565b509392505050565b60007f00000000000000000000000000000000000000000000000000000000000000006001600160a01b0316826001600160a01b0316141561030157507f0000000000000000000000000000000000000000000000000000000000000000919050565b60025460405163e9833c2f60e01b81526001600160a01b038481166004830152600092169063e9833c2f90602401602060405180830381865afa15801561034c573d6000803e3d6000fd5b505050506040513d601f19601f8201168201806040525081019061037091906106e6565b905060008113156103815792915050565b60015460405163b3596f0760e01b81526001600160a01b0385811660048301529091169063b3596f0790602401602060405180830381865afa1580156103cb573d6000803e3d6000fd5b505050506040513d601f19601f820116820180604052508101906103ef91906106e6565b9392505050565b6103fe610471565b6001600160a01b0381166104685760405162461bcd60e51b815260206004820152602660248201527f4f776e61626c653a206e6577206f776e657220697320746865207a65726f206160448201526564647265737360d01b60648201526084015b60405180910390fd5b6101c18161055f565b6000546001600160a01b031633146101e75760405162461bcd60e51b815260206004820181905260248201527f4f776e61626c653a2063616c6c6572206973206e6f7420746865206f776e6572604482015260640161045f565b600180546001600160a01b0319166001600160a01b0383169081179091556040517fce7a780d33665b1ea097af5f155e3821b809ecbaa839d3b33aa83ba28168cefb90600090a250565b600280546001600160a01b0319166001600160a01b0383169081179091556040517fc4439bc964d6232a275de14d02a2a09e1bbe352315d0f1aae1cfa52610299f3990600090a250565b600080546001600160a01b038381166001600160a01b0319831681178455604051919092169283917f8be0079c531659141344cd1fd0a4f28419497f9722a3daafe3b4186f6b6457e09190a35050565b6000602082840312156105c157600080fd5b81356001600160a01b03811681146103ef57600080fd5b600080602083850312156105eb57600080fd5b823567ffffffffffffffff8082111561060357600080fd5b818501915085601f83011261061757600080fd5b81358181111561062657600080fd5b8660208260051b850101111561063b57600080fd5b60209290920196919550909350505050565b6020808252825182820181905260009190848201906040850190845b8181101561068557835183529284019291840191600101610669565b50909695505050505050565b634e487b7160e01b600052604160045260246000fd5b634e487b7160e01b600052603260045260246000fd5b60006000198214156106df57634e487b7160e01b600052601160045260246000fd5b5060010190565b6000602082840312156106f857600080fd5b505191905056fea264697066735822122028a20dca12e2d335c6e8fdfd591c11a4bc38ece645813e75660492f9fc2fdb8b64736f6c634300080b0033",
  "linkReferences": {},
  "deployedLinkReferences": {}
}