{
  "_format": "hh-sol-artifact-1",
  "contractName": "BIBNode",
  "sourceName": "contracts/community/BIBNode.sol",
  "abi": [
    {
      "anonymous": false,
      "inputs": [
        {
          "indexed": true,
          "internalType": "address",
          "name": "owner",
          "type": "address"
        },
        {
          "indexed": true,
          "internalType": "address",
          "name": "approved",
          "type": "address"
        },
        {
          "indexed": true,
          "internalType": "uint256",
          "name": "tokenId",
          "type": "uint256"
        }
      ],
      "name": "Approval",
      "type": "event"
    },
    {
      "anonymous": false,
      "inputs": [
        {
          "indexed": true,
          "internalType": "address",
          "name": "owner",
          "type": "address"
        },
        {
          "indexed": true,
          "internalType": "address",
          "name": "operator",
          "type": "address"
        },
        {
          "indexed": false,
          "internalType": "bool",
          "name": "approved",
          "type": "bool"
        }
      ],
      "name": "ApprovalForAll",
      "type": "event"
    },
    {
      "anonymous": false,
      "inputs": [
        {
          "indexed": true,
          "internalType": "address",
          "name": "user",
          "type": "address"
        },
        {
          "indexed": true,
          "internalType": "uint256",
          "name": "cardNFTId",
          "type": "uint256"
        },
        {
          "indexed": false,
          "internalType": "uint256",
          "name": "bibAmount",
          "type": "uint256"
        },
        {
          "indexed": false,
          "internalType": "uint256",
          "name": "ticketId",
          "type": "uint256"
        }
      ],
      "name": "CreateNode",
      "type": "event"
    },
    {
      "anonymous": false,
      "inputs": [
        {
          "indexed": true,
          "internalType": "address",
          "name": "user",
          "type": "address"
        },
        {
          "indexed": true,
          "internalType": "uint256",
          "name": "cardNFTId",
          "type": "uint256"
        },
        {
          "indexed": false,
          "internalType": "uint256",
          "name": "ticketId",
          "type": "uint256"
        }
      ],
      "name": "DisbandNode",
      "type": "event"
    },
    {
      "anonymous": false,
      "inputs": [
        {
          "indexed": false,
          "internalType": "uint8",
          "name": "version",
          "type": "uint8"
        }
      ],
      "name": "Initialized",
      "type": "event"
    },
    {
      "anonymous": false,
      "inputs": [
        {
          "indexed": true,
          "internalType": "uint256",
          "name": "fromTicketId",
          "type": "uint256"
        },
        {
          "indexed": true,
          "internalType": "uint256",
          "name": "ticketId",
          "type": "uint256"
        },
        {
          "indexed": false,
          "internalType": "uint256",
          "name": "bibAmount",
          "type": "uint256"
        }
      ],
      "name": "NodeStaking",
      "type": "event"
    },
    {
      "anonymous": false,
      "inputs": [
        {
          "indexed": true,
          "internalType": "uint256",
          "name": "fromTicketId",
          "type": "uint256"
        },
        {
          "indexed": true,
          "internalType": "uint256",
          "name": "ticketId",
          "type": "uint256"
        },
        {
          "indexed": false,
          "internalType": "uint256",
          "name": "bibAmount",
          "type": "uint256"
        }
      ],
      "name": "NodeUnStaking",
      "type": "event"
    },
    {
      "anonymous": false,
      "inputs": [
        {
          "indexed": true,
          "internalType": "address",
          "name": "previousOwner",
          "type": "address"
        },
        {
          "indexed": true,
          "internalType": "address",
          "name": "newOwner",
          "type": "address"
        }
      ],
      "name": "OwnershipTransferred",
      "type": "event"
    },
    {
      "anonymous": false,
      "inputs": [
        {
          "indexed": false,
          "internalType": "address",
          "name": "account",
          "type": "address"
        }
      ],
      "name": "Paused",
      "type": "event"
    },
    {
      "anonymous": false,
      "inputs": [
        {
          "indexed": true,
          "internalType": "address",
          "name": "from",
          "type": "address"
        },
        {
          "indexed": true,
          "internalType": "address",
          "name": "to",
          "type": "address"
        },
        {
          "indexed": true,
          "internalType": "uint256",
          "name": "tokenId",
          "type": "uint256"
        }
      ],
      "name": "Transfer",
      "type": "event"
    },
    {
      "anonymous": false,
      "inputs": [
        {
          "indexed": false,
          "internalType": "address",
          "name": "account",
          "type": "address"
        }
      ],
      "name": "Unpaused",
      "type": "event"
    },
    {
      "anonymous": false,
      "inputs": [
        {
          "indexed": false,
          "internalType": "uint256",
          "name": "maxCount",
          "type": "uint256"
        }
      ],
      "name": "UpdateMaxSubNodeCount",
      "type": "event"
    },
    {
      "anonymous": false,
      "inputs": [
        {
          "indexed": true,
          "internalType": "address",
          "name": "user",
          "type": "address"
        },
        {
          "indexed": true,
          "internalType": "uint256",
          "name": "cardNFTId",
          "type": "uint256"
        },
        {
          "indexed": false,
          "internalType": "uint256",
          "name": "starLevel",
          "type": "uint256"
        }
      ],
      "name": "UpgradeNode",
      "type": "event"
    },
    {
      "inputs": [],
      "name": "BIBStaking",
      "outputs": [
        {
          "internalType": "contract IBIBStaking",
          "name": "",
          "type": "address"
        }
      ],
      "stateMutability": "view",
      "type": "function"
    },
    {
      "inputs": [],
      "name": "BIBToken",
      "outputs": [
        {
          "internalType": "contract IERC20Upgradeable",
          "name": "",
          "type": "address"
        }
      ],
      "stateMutability": "view",
      "type": "function"
    },
    {
      "inputs": [],
      "name": "BLACK_HOLE",
      "outputs": [
        {
          "internalType": "address",
          "name": "",
          "type": "address"
        }
      ],
      "stateMutability": "view",
      "type": "function"
    },
    {
      "inputs": [
        {
          "internalType": "address",
          "name": "to",
          "type": "address"
        },
        {
          "internalType": "uint256",
          "name": "tokenId",
          "type": "uint256"
        }
      ],
      "name": "approve",
      "outputs": [],
      "stateMutability": "nonpayable",
      "type": "function"
    },
    {
      "inputs": [
        {
          "internalType": "address",
          "name": "owner",
          "type": "address"
        }
      ],
      "name": "balanceOf",
      "outputs": [
        {
          "internalType": "uint256",
          "name": "",
          "type": "uint256"
        }
      ],
      "stateMutability": "view",
      "type": "function"
    },
    {
      "inputs": [],
      "name": "baseURI",
      "outputs": [
        {
          "internalType": "string",
          "name": "",
          "type": "string"
        }
      ],
      "stateMutability": "view",
      "type": "function"
    },
    {
      "inputs": [
        {
          "internalType": "uint256",
          "name": "tokenId",
          "type": "uint256"
        }
      ],
      "name": "burn",
      "outputs": [],
      "stateMutability": "nonpayable",
      "type": "function"
    },
    {
      "inputs": [
        {
          "internalType": "uint256",
          "name": "",
          "type": "uint256"
        }
      ],
      "name": "cardNFTOwners",
      "outputs": [
        {
          "internalType": "address",
          "name": "",
          "type": "address"
        }
      ],
      "stateMutability": "view",
      "type": "function"
    },
    {
      "inputs": [],
      "name": "cardNFTStake",
      "outputs": [
        {
          "internalType": "contract IStakedSoccerStarNftV2",
          "name": "",
          "type": "address"
        }
      ],
      "stateMutability": "view",
      "type": "function"
    },
    {
      "inputs": [
        {
          "internalType": "uint256",
          "name": "_ticket",
          "type": "uint256"
        }
      ],
      "name": "changeStakeNode",
      "outputs": [],
      "stateMutability": "nonpayable",
      "type": "function"
    },
    {
      "inputs": [
        {
          "internalType": "uint256",
          "name": "_cardNFTId",
          "type": "uint256"
        },
        {
          "internalType": "uint256",
          "name": "_bibAmount",
          "type": "uint256"
        },
        {
          "internalType": "uint256",
          "name": "ticket",
          "type": "uint256"
        }
      ],
      "name": "createNode",
      "outputs": [],
      "stateMutability": "nonpayable",
      "type": "function"
    },
    {
      "inputs": [
        {
          "internalType": "uint256",
          "name": "_ticket",
          "type": "uint256"
        }
      ],
      "name": "deleteSubNode",
      "outputs": [
        {
          "internalType": "bool",
          "name": "",
          "type": "bool"
        }
      ],
      "stateMutability": "nonpayable",
      "type": "function"
    },
    {
      "inputs": [],
      "name": "disbandNode",
      "outputs": [],
      "stateMutability": "nonpayable",
      "type": "function"
    },
    {
      "inputs": [
        {
          "internalType": "uint256",
          "name": "tokenId",
          "type": "uint256"
        }
      ],
      "name": "getApproved",
      "outputs": [
        {
          "internalType": "address",
          "name": "",
          "type": "address"
        }
      ],
      "stateMutability": "view",
      "type": "function"
    },
    {
      "inputs": [
        {
          "internalType": "address",
          "name": "user",
          "type": "address"
        }
      ],
      "name": "getCardNFTByAddress",
      "outputs": [
        {
          "internalType": "uint256",
          "name": "",
          "type": "uint256"
        }
      ],
      "stateMutability": "view",
      "type": "function"
    },
    {
      "inputs": [
        {
          "internalType": "uint256",
          "name": "tokenId",
          "type": "uint256"
        }
      ],
      "name": "getCardProperty",
      "outputs": [
        {
          "components": [
            {
              "internalType": "string",
              "name": "name",
              "type": "string"
            },
            {
              "internalType": "string",
              "name": "country",
              "type": "string"
            },
            {
              "internalType": "string",
              "name": "position",
              "type": "string"
            },
            {
              "internalType": "uint256",
              "name": "starLevel",
              "type": "uint256"
            },
            {
              "internalType": "uint256",
              "name": "gradient",
              "type": "uint256"
            }
          ],
          "internalType": "struct ISoccerStarNft.SoccerStar",
          "name": "",
          "type": "tuple"
        }
      ],
      "stateMutability": "view",
      "type": "function"
    },
    {
      "inputs": [
        {
          "internalType": "address",
          "name": "_cardNFTStake",
          "type": "address"
        },
        {
          "internalType": "address",
          "name": "_soccerStarNft",
          "type": "address"
        },
        {
          "internalType": "address",
          "name": "_bibToken",
          "type": "address"
        },
        {
          "internalType": "address",
          "name": "_bibStaking",
          "type": "address"
        },
        {
          "internalType": "address",
          "name": "_soccerStartNftMarket",
          "type": "address"
        }
      ],
      "name": "initialize",
      "outputs": [],
      "stateMutability": "nonpayable",
      "type": "function"
    },
    {
      "inputs": [
        {
          "internalType": "address",
          "name": "owner",
          "type": "address"
        },
        {
          "internalType": "address",
          "name": "operator",
          "type": "address"
        }
      ],
      "name": "isApprovedForAll",
      "outputs": [
        {
          "internalType": "bool",
          "name": "",
          "type": "bool"
        }
      ],
      "stateMutability": "view",
      "type": "function"
    },
    {
      "inputs": [
        {
          "internalType": "uint256",
          "name": "tokenId",
          "type": "uint256"
        }
      ],
      "name": "isStakedAsNode",
      "outputs": [
        {
          "internalType": "bool",
          "name": "",
          "type": "bool"
        }
      ],
      "stateMutability": "view",
      "type": "function"
    },
    {
      "inputs": [],
      "name": "maxSubNodeCount",
      "outputs": [
        {
          "internalType": "uint256",
          "name": "",
          "type": "uint256"
        }
      ],
      "stateMutability": "view",
      "type": "function"
    },
    {
      "inputs": [
        {
          "internalType": "address",
          "name": "to",
          "type": "address"
        },
        {
          "internalType": "uint256",
          "name": "tokenId",
          "type": "uint256"
        }
      ],
      "name": "mint",
      "outputs": [],
      "stateMutability": "nonpayable",
      "type": "function"
    },
    {
      "inputs": [],
      "name": "name",
      "outputs": [
        {
          "internalType": "string",
          "name": "",
          "type": "string"
        }
      ],
      "stateMutability": "view",
      "type": "function"
    },
    {
      "inputs": [
        {
          "internalType": "uint256",
          "name": "",
          "type": "uint256"
        }
      ],
      "name": "nodeList",
      "outputs": [
        {
          "internalType": "uint256",
          "name": "",
          "type": "uint256"
        }
      ],
      "stateMutability": "view",
      "type": "function"
    },
    {
      "inputs": [
        {
          "internalType": "uint256",
          "name": "",
          "type": "uint256"
        }
      ],
      "name": "nodeMap",
      "outputs": [
        {
          "internalType": "address",
          "name": "ownerAddress",
          "type": "address"
        },
        {
          "internalType": "uint256",
          "name": "cardNftId",
          "type": "uint256"
        },
        {
          "internalType": "uint256",
          "name": "createTime",
          "type": "uint256"
        },
        {
          "internalType": "uint256",
          "name": "upNode",
          "type": "uint256"
        }
      ],
      "stateMutability": "view",
      "type": "function"
    },
    {
      "inputs": [],
      "name": "owner",
      "outputs": [
        {
          "internalType": "address",
          "name": "",
          "type": "address"
        }
      ],
      "stateMutability": "view",
      "type": "function"
    },
    {
      "inputs": [
        {
          "internalType": "uint256",
          "name": "tokenId",
          "type": "uint256"
        }
      ],
      "name": "ownerOf",
      "outputs": [
        {
          "internalType": "address",
          "name": "",
          "type": "address"
        }
      ],
      "stateMutability": "view",
      "type": "function"
    },
    {
      "inputs": [],
      "name": "paused",
      "outputs": [
        {
          "internalType": "bool",
          "name": "",
          "type": "bool"
        }
      ],
      "stateMutability": "view",
      "type": "function"
    },
    {
      "inputs": [],
      "name": "renounceOwnership",
      "outputs": [],
      "stateMutability": "nonpayable",
      "type": "function"
    },
    {
      "inputs": [
        {
          "internalType": "address",
          "name": "from",
          "type": "address"
        },
        {
          "internalType": "address",
          "name": "to",
          "type": "address"
        },
        {
          "internalType": "uint256",
          "name": "tokenId",
          "type": "uint256"
        }
      ],
      "name": "safeTransferFrom",
      "outputs": [],
      "stateMutability": "nonpayable",
      "type": "function"
    },
    {
      "inputs": [
        {
          "internalType": "address",
          "name": "from",
          "type": "address"
        },
        {
          "internalType": "address",
          "name": "to",
          "type": "address"
        },
        {
          "internalType": "uint256",
          "name": "tokenId",
          "type": "uint256"
        },
        {
          "internalType": "bytes",
          "name": "data",
          "type": "bytes"
        }
      ],
      "name": "safeTransferFrom",
      "outputs": [],
      "stateMutability": "nonpayable",
      "type": "function"
    },
    {
      "inputs": [
        {
          "internalType": "address",
          "name": "operator",
          "type": "address"
        },
        {
          "internalType": "bool",
          "name": "approved",
          "type": "bool"
        }
      ],
      "name": "setApprovalForAll",
      "outputs": [],
      "stateMutability": "nonpayable",
      "type": "function"
    },
    {
      "inputs": [
        {
          "internalType": "address",
          "name": "_bibToken",
          "type": "address"
        }
      ],
      "name": "setBIBToken",
      "outputs": [],
      "stateMutability": "nonpayable",
      "type": "function"
    },
    {
      "inputs": [
        {
          "internalType": "string",
          "name": "uri",
          "type": "string"
        }
      ],
      "name": "setBaseURI",
      "outputs": [],
      "stateMutability": "nonpayable",
      "type": "function"
    },
    {
      "inputs": [
        {
          "internalType": "address",
          "name": "_cardNft",
          "type": "address"
        }
      ],
      "name": "setCardNft",
      "outputs": [],
      "stateMutability": "nonpayable",
      "type": "function"
    },
    {
      "inputs": [
        {
          "internalType": "address",
          "name": "_cardNftStake",
          "type": "address"
        }
      ],
      "name": "setCardNftStake",
      "outputs": [],
      "stateMutability": "nonpayable",
      "type": "function"
    },
    {
      "inputs": [
        {
          "internalType": "uint256",
          "name": "_maxSubNodeCount",
          "type": "uint256"
        }
      ],
      "name": "setMaxSubNodeCount",
      "outputs": [],
      "stateMutability": "nonpayable",
      "type": "function"
    },
    {
      "inputs": [],
      "name": "soccerStarNft",
      "outputs": [
        {
          "internalType": "contract ERC721Upgradeable",
          "name": "",
          "type": "address"
        }
      ],
      "stateMutability": "view",
      "type": "function"
    },
    {
      "inputs": [],
      "name": "soccerStartNftMarket",
      "outputs": [
        {
          "internalType": "address",
          "name": "",
          "type": "address"
        }
      ],
      "stateMutability": "view",
      "type": "function"
    },
    {
      "inputs": [
        {
          "internalType": "uint256",
          "name": "_ticket",
          "type": "uint256"
        }
      ],
      "name": "stakeNode",
      "outputs": [
        {
          "internalType": "bool",
          "name": "",
          "type": "bool"
        }
      ],
      "stateMutability": "nonpayable",
      "type": "function"
    },
    {
      "inputs": [
        {
          "internalType": "uint256",
          "name": "",
          "type": "uint256"
        },
        {
          "internalType": "uint256",
          "name": "",
          "type": "uint256"
        }
      ],
      "name": "subNodes",
      "outputs": [
        {
          "internalType": "uint256",
          "name": "",
          "type": "uint256"
        }
      ],
      "stateMutability": "view",
      "type": "function"
    },
    {
      "inputs": [
        {
          "internalType": "bytes4",
          "name": "interfaceId",
          "type": "bytes4"
        }
      ],
      "name": "supportsInterface",
      "outputs": [
        {
          "internalType": "bool",
          "name": "",
          "type": "bool"
        }
      ],
      "stateMutability": "view",
      "type": "function"
    },
    {
      "inputs": [],
      "name": "symbol",
      "outputs": [
        {
          "internalType": "string",
          "name": "",
          "type": "string"
        }
      ],
      "stateMutability": "view",
      "type": "function"
    },
    {
      "inputs": [
        {
          "internalType": "address",
          "name": "",
          "type": "address"
        }
      ],
      "name": "ticketMap",
      "outputs": [
        {
          "internalType": "uint256",
          "name": "",
          "type": "uint256"
        }
      ],
      "stateMutability": "view",
      "type": "function"
    },
    {
      "inputs": [
        {
          "internalType": "uint256",
          "name": "",
          "type": "uint256"
        }
      ],
      "name": "ticketProperty",
      "outputs": [
        {
          "internalType": "string",
          "name": "name",
          "type": "string"
        },
        {
          "internalType": "string",
          "name": "country",
          "type": "string"
        },
        {
          "internalType": "string",
          "name": "position",
          "type": "string"
        },
        {
          "internalType": "uint256",
          "name": "starLevel",
          "type": "uint256"
        },
        {
          "internalType": "uint256",
          "name": "gradient",
          "type": "uint256"
        }
      ],
      "stateMutability": "view",
      "type": "function"
    },
    {
      "inputs": [
        {
          "internalType": "uint256",
          "name": "_nftId",
          "type": "uint256"
        }
      ],
      "name": "tokenURI",
      "outputs": [
        {
          "internalType": "string",
          "name": "",
          "type": "string"
        }
      ],
      "stateMutability": "view",
      "type": "function"
    },
    {
      "inputs": [
        {
          "internalType": "address",
          "name": "from",
          "type": "address"
        },
        {
          "internalType": "address",
          "name": "to",
          "type": "address"
        },
        {
          "internalType": "uint256",
          "name": "tokenId",
          "type": "uint256"
        }
      ],
      "name": "transferFrom",
      "outputs": [],
      "stateMutability": "nonpayable",
      "type": "function"
    },
    {
      "inputs": [
        {
          "internalType": "address",
          "name": "newOwner",
          "type": "address"
        }
      ],
      "name": "transferOwnership",
      "outputs": [],
      "stateMutability": "nonpayable",
      "type": "function"
    },
    {
      "inputs": [
        {
          "internalType": "uint256",
          "name": "_ticket",
          "type": "uint256"
        }
      ],
      "name": "unStakeNode",
      "outputs": [
        {
          "internalType": "bool",
          "name": "",
          "type": "bool"
        }
      ],
      "stateMutability": "nonpayable",
      "type": "function"
    },
    {
      "inputs": [
        {
          "internalType": "uint256[]",
          "name": "_cardNFTIds",
          "type": "uint256[]"
        }
      ],
      "name": "upgradeNode",
      "outputs": [],
      "stateMutability": "nonpayable",
      "type": "function"
    }
  ],
  "bytecode": "0x608060405234801561001057600080fd5b50613f4e806100206000396000f3fe608060405234801561001057600080fd5b50600436106102ba5760003560e01c806355f804b31161018257806395d89b41116100e9578063be783433116100a2578063d810fe6b1161007c578063d810fe6b146106ae578063e985e9c5146106d2578063f2fde38b146106e5578063f6a9010b146106f857600080fd5b8063be78343314610675578063c87b56dd14610688578063d1577c7c1461069b57600080fd5b806395d89b41146105e957806396ae99b4146105f1578063a22cb46514610612578063a4ab0b2e14610625578063b7d5f2e414610638578063b88d4fde1461066257600080fd5b806370a082311161013b57806370a082311461056b578063715018a61461057e57806378f64c8c146105865780638908d67614610599578063893c8cc1146105ac5780638da5cb5b146105d857600080fd5b806355f804b31461050b57806357299d291461051e5780635c975abb146105325780635f4bc2871461053d5780636352211e146105505780636c0360eb1461056357600080fd5b80632269d36d11610226578063356ff5cd116101df578063356ff5cd1461044d57806340c10f19146104b757806342842e0e146104ca57806342966c68146104dd5780634d351f65146104f057806355eda4e81461050357600080fd5b80632269d36d146103db57806323b872dd146103ee5780632aa64771146104015780632f973512146104145780633328bd4e14610427578063342874ec1461043a57600080fd5b80630c98a385116102785780630c98a385146103675780631459457a1461037a57806314cf76c81461038d57806316833cca146103a05780631ff8f730146103a8578063208f2a31146103c857600080fd5b80627c3d54146102bf57806301d38091146102d457806301ffc9a7146102f157806306fdde0314610314578063081812fc14610329578063095ea7b314610354575b600080fd5b6102d26102cd366004613559565b61070b565b005b6102de6101075481565b6040519081526020015b60405180910390f35b6103046102ff366004613588565b61074f565b60405190151581526020016102e8565b61031c6107a1565b6040516102e891906135fd565b61033c610337366004613559565b610833565b6040516001600160a01b0390911681526020016102e8565b6102d2610362366004613625565b61085a565b60ff5461033c906001600160a01b031681565b6102d2610388366004613651565b610975565b60fe5461033c906001600160a01b031681565b6102d2610b46565b6103bb6103b6366004613559565b610d41565b6040516102e891906136c2565b6102de6103d6366004613559565b610f5d565b6102de6103e936600461373b565b610f7f565b6102d26103fc366004613758565b610fac565b61030461040f366004613559565b610fdd565b6102d261042236600461373b565b6112b3565b6102d2610435366004613559565b611325565b610304610448366004613559565b611381565b61048d61045b366004613559565b6101016020526000908152604090208054600182015460028301546003909301546001600160a01b0390921692909184565b604080516001600160a01b03909516855260208501939093529183015260608201526080016102e8565b6102d26104c5366004613625565b61160f565b6102d26104d8366004613758565b611625565b6102d26104eb366004613559565b611640565b60fc5461033c906001600160a01b031681565b61033c600181565b6102d261051936600461386f565b611654565b6101005461033c906001600160a01b031681565b60335460ff16610304565b6102d261054b36600461373b565b61166f565b61033c61055e366004613559565b611699565b61031c6116f9565b6102de61057936600461373b565b611787565b6102d261180d565b60fd5461033c906001600160a01b031681565b6102d26105a736600461373b565b611821565b6103046105ba366004613559565b600090815261010460205260409020546001600160a01b0316151590565b6065546001600160a01b031661033c565b61031c611893565b6102de6105ff36600461373b565b6101036020526000908152604090205481565b6102d26106203660046138c6565b6118a2565b610304610633366004613559565b6118ad565b61033c610646366004613559565b610104602052600090815260409020546001600160a01b031681565b6102d26106703660046138ff565b611b3a565b6102d261068336600461397f565b611b6c565b61031c610696366004613559565b611ef3565b6102d26106a93660046139f4565b611fb6565b6106c16106bc366004613559565b61245e565b6040516102e8959493929190613a20565b6103046106e0366004613a6e565b612625565b6102d26106f336600461373b565b612653565b6102de610706366004613a9c565b6126c9565b6107136126fb565b6101078190556040518181527f12290ca071004812e79b71614c6f6473592118262e3e527d82585aa4d3aa1d389060200160405180910390a150565b60006001600160e01b031982166380ac58cd60e01b148061078057506001600160e01b03198216635b5e139f60e01b145b8061079b57506301ffc9a760e01b6001600160e01b03198316145b92915050565b606060c980546107b090613abe565b80601f01602080910402602001604051908101604052809291908181526020018280546107dc90613abe565b80156108295780601f106107fe57610100808354040283529160200191610829565b820191906000526020600020905b81548152906001019060200180831161080c57829003601f168201915b5050505050905090565b600061083e82612755565b50600090815260cd60205260409020546001600160a01b031690565b600061086582611699565b9050806001600160a01b0316836001600160a01b031614156108d85760405162461bcd60e51b815260206004820152602160248201527f4552433732313a20617070726f76616c20746f2063757272656e74206f776e656044820152603960f91b60648201526084015b60405180910390fd5b336001600160a01b03821614806108f457506108f48133612625565b6109665760405162461bcd60e51b815260206004820152603e60248201527f4552433732313a20617070726f76652063616c6c6572206973206e6f7420746f60448201527f6b656e206f776e6572206e6f7220617070726f76656420666f7220616c6c000060648201526084016108cf565b61097083836127b4565b505050565b600054600190610100900460ff16158015610997575060005460ff8083169116105b6109fa5760405162461bcd60e51b815260206004820152602e60248201527f496e697469616c697a61626c653a20636f6e747261637420697320616c72656160448201526d191e481a5b9a5d1a585b1a5e995960921b60648201526084016108cf565b6000805461ffff191660ff8084169190911761010090811790925560fc80546001600160a01b03808b166001600160a01b03199283161790925582548983169082161790925560fe805488831690841617905560fd805487831690841617905582549085169116179055604080518082018252601081526f424942204e4f4445204552432037323160801b602080830191909152825180840190935260078352664249424e6f646560c81b90830152610ab291612822565b610aba612853565b610ac2612882565b600a6101078190556040519081527f12290ca071004812e79b71614c6f6473592118262e3e527d82585aa4d3aa1d389060200160405180910390a16000805461ff001916905560405160ff821681527f7f26b83ff96e1f2b6a682f133852f6798a09c465da95921460cefb38474024989060200160405180910390a1505050505050565b33600081815261010360209081526040808320548084526101019092529091206002810154610b875760405162461bcd60e51b81526004016108cf90613af9565b6000610b9284610f7f565b9050610b9d836128b1565b6001600160a01b03848116600081815261010360205260408082209190915560fd5490516336b14edf60e11b815260048101929092526024820186905290911690636d629dbe90604401600060405180830381600087803b158015610c0157600080fd5b505af1158015610c15573d6000803e3d6000fd5b5050610102549150505b8015610cd65780610c2f81613b3d565b915050836101028281548110610c4757610c47613b54565b90600052602060002001541415610cd1576101028054610c6990600190613b6a565b81548110610c7957610c79613b54565b90600052602060002001546101028281548110610c9857610c98613b54565b600091825260209091200155610102805480610cb657610cb6613b81565b60019003818190600052602060002001600090559055610cd6565b610c1f565b600082815261010460205260409081902080546001600160a01b03191690555182906001600160a01b038716907fe89522f30cc3ab418b3126979d7793b955bf00d510a3d265b7065d62a423061790610d329088815260200190565b60405180910390a35050505050565b610d736040518060a0016040528060608152602001606081526020016060815260200160008152602001600081525090565b6000828152610105602052604090819020815160a08101909252805482908290610d9c90613abe565b80601f0160208091040260200160405190810160405280929190818152602001828054610dc890613abe565b8015610e155780601f10610dea57610100808354040283529160200191610e15565b820191906000526020600020905b815481529060010190602001808311610df857829003601f168201915b50505050508152602001600182018054610e2e90613abe565b80601f0160208091040260200160405190810160405280929190818152602001828054610e5a90613abe565b8015610ea75780601f10610e7c57610100808354040283529160200191610ea7565b820191906000526020600020905b815481529060010190602001808311610e8a57829003601f168201915b50505050508152602001600282018054610ec090613abe565b80601f0160208091040260200160405190810160405280929190818152602001828054610eec90613abe565b8015610f395780601f10610f0e57610100808354040283529160200191610f39565b820191906000526020600020905b815481529060010190602001808311610f1c57829003601f168201915b50505050508152602001600382015481526020016004820154815250509050919050565b6101028181548110610f6e57600080fd5b600091825260209091200154905081565b6001600160a01b031660009081526101036020908152604080832054835261010190915290206001015490565b610fb6338261294c565b610fd25760405162461bcd60e51b81526004016108cf90613b97565b6109708383836129ab565b6000818152610101602052604081206002015461100c5760405162461bcd60e51b81526004016108cf90613be5565b60008281526101066020526040902054600a1161105a5760405162461bcd60e51b815260206004820152600c60248201526b139bd919481a5cc8199d5b1b60a21b60448201526064016108cf565b3360008181526101036020908152604080832054808452610101909252909120600281015461109b5760405162461bcd60e51b81526004016108cf90613af9565b848160030154146110e15760405162461bcd60e51b815260206004820152601060248201526f4e6f7420796f7572207570206e6f646560801b60448201526064016108cf565b600085815261010660205260409020545b80156111ea578061110281613b3d565b915050826101066000888152602001908152602001600020828154811061112b5761112b613b54565b906000526020600020015414156111e557600086815261010660205260409020805461115990600190613b6a565b8154811061116957611169613b54565b90600052602060002001546101066000888152602001908152602001600020828154811061119957611199613b54565b906000526020600020018190555061010660008781526020019081526020016000208054806111ca576111ca613b81565b600190038181906000526020600020016000905590556111ea565b6110f2565b60006003830181905560fd54604051630443ee9160e51b815260048101869052602481018990526001600160a01b039091169063887dd220906044016020604051808303816000875af1158015611245573d6000803e3d6000fd5b505050506040513d601f19601f820116820180604052508101906112699190613c0d565b905086847f1167679d9905b71e2c953444b39b9d22bf70de84ab2994e46a787ad43e5a42d08360405161129e91815260200190565b60405180910390a35060019695505050505050565b6112bb6126fb565b6001600160a01b0381166113035760405162461bcd60e51b815260206004820152600f60248201526e496e76616c6964206164647265737360881b60448201526064016108cf565b60ff80546001600160a01b0319166001600160a01b0392909216919091179055565b33600081815261010360209081526040808320548084526101019092529091206003015483141561135557505050565b6000818152610101602052604090206003015461137190610fdd565b5061137b836118ad565b50505050565b600081815261010160205260408120600201546113b05760405162461bcd60e51b81526004016108cf90613be5565b336000818152610103602090815260408083205480845261010190925290912060028101546113f15760405162461bcd60e51b81526004016108cf90613af9565b6000858152610101602052604090206003015482146114465760405162461bcd60e51b81526020600482015260116024820152704e6f7420796f757220737562206e6f646560781b60448201526064016108cf565b600082815261010660205260409020545b801561154f578061146781613b3d565b915050856101066000858152602001908152602001600020828154811061149057611490613b54565b9060005260206000200154141561154a5760008381526101066020526040902080546114be90600190613b6a565b815481106114ce576114ce613b54565b9060005260206000200154610106600085815260200190815260200160002082815481106114fe576114fe613b54565b9060005260206000200181905550610106600084815260200190815260200160002080548061152f5761152f613b81565b6001900381819060005260206000200160009055905561154f565b611457565b6000868152610101602052604080822060030182905560fd549051630443ee9160e51b815260048101899052602481018690526001600160a01b039091169063887dd220906044016020604051808303816000875af11580156115b6573d6000803e3d6000fd5b505050506040513d601f19601f820116820180604052508101906115da9190613c0d565b905083877f1167679d9905b71e2c953444b39b9d22bf70de84ab2994e46a787ad43e5a42d08360405161129e91815260200190565b6116176126fb565b6116218282612c05565b5050565b61097083838360405180602001604052806000815250611b3a565b6116486126fb565b611651816128b1565b50565b61165c6126fb565b80516116219060fb9060208401906134c0565b6116776126fb565b60fe80546001600160a01b0319166001600160a01b0392909216919091179055565b600081815260cb60205260408120546001600160a01b03168061079b5760405162461bcd60e51b8152602060048201526018602482015277115490cdcc8c4e881a5b9d985b1a59081d1bdad95b88125160421b60448201526064016108cf565b60fb805461170690613abe565b80601f016020809104026020016040519081016040528092919081815260200182805461173290613abe565b801561177f5780601f106117545761010080835404028352916020019161177f565b820191906000526020600020905b81548152906001019060200180831161176257829003601f168201915b505050505081565b60006001600160a01b0382166117f15760405162461bcd60e51b815260206004820152602960248201527f4552433732313a2061646472657373207a65726f206973206e6f7420612076616044820152683634b21037bbb732b960b91b60648201526084016108cf565b506001600160a01b0316600090815260cc602052604090205490565b6118156126fb565b61181f6000612d47565b565b6118296126fb565b6001600160a01b0381166118715760405162461bcd60e51b815260206004820152600f60248201526e496e76616c6964206164647265737360881b60448201526064016108cf565b60fc80546001600160a01b0319166001600160a01b0392909216919091179055565b606060ca80546107b090613abe565b611621338383612d99565b600081815261010160205260408120600201546118dc5760405162461bcd60e51b81526004016108cf90613be5565b600082815261010160205260409020600301541561192e5760405162461bcd60e51b815260206004820152600f60248201526e4e6f6465206973207375626e6f646560881b60448201526064016108cf565b61010754600083815261010660205260409020541061197e5760405162461bcd60e51b815260206004820152600c60248201526b139bd919481a5cc8199d5b1b60a21b60448201526064016108cf565b3360008181526101036020526040902054838114156119d75760405162461bcd60e51b815260206004820152601560248201527421b0b73713ba1039ba30b5b2903cb7bab939b2b63360591b60448201526064016108cf565b6000818152610101602052604090206002810154611a075760405162461bcd60e51b81526004016108cf90613af9565b600381015415611a4f5760405162461bcd60e51b81526020600482015260136024820152722cb7ba9030b63932b0b23c9039ba30b5b2b21760691b60448201526064016108cf565b60008581526101066020908152604080832080546001810182559084529183209091018490556003830187905560fd5490516301da99d960e51b815260048101859052602481018890526001600160a01b0390911690633b533b20906044016020604051808303816000875af1158015611acd573d6000803e3d6000fd5b505050506040513d601f19601f82011682018060405250810190611af19190613c0d565b905085837f0130450a68fc0dbac40ab2206a57f484144fbb75cdf86c3fdaa0c813d6bce5c783604051611b2691815260200190565b60405180910390a350600195945050505050565b611b44338361294c565b611b605760405162461bcd60e51b81526004016108cf90613b97565b61137b84848484612e68565b33600081815261010360209081526040808320548084526101019092529091206002810154611bad5760405162461bcd60e51b81526004016108cf90613af9565b6000611bb884610f7f565b60ff546040516301ff8f7360e41b8152600481018390529192506000916001600160a01b0390911690631ff8f73090602401600060405180830381865afa158015611c07573d6000803e3d6000fd5b505050506040513d6000823e601f3d908101601f19168201604052611c2f9190810190613c6b565b90508060600151600314611c7c5760405162461bcd60e51b81526020600482015260146024820152734f4e4c595f535441524c4556454c5f544852454560601b60448201526064016108cf565b60fc5460608201516001600160a01b0390911690637ae6d741908490611ca3906001613d37565b6040516001600160e01b031960e085901b16815260048101929092526024820152604401600060405180830381600087803b158015611ce157600080fd5b505af1158015611cf5573d6000803e3d6000fd5b5050506060820151611d0991506001613d37565b6000858152610105602052604090206003015560048614611d5f5760405162461bcd60e51b815260206004820152601060248201526f4e4545445f464f55525f544f4b454e5360801b60448201526064016108cf565b611d9c82888880806020026020016040519081016040528093929190818152602001838360200280828437600092019190915250612e9b92505050565b611de85760405162461bcd60e51b815260206004820152601860248201527f4e4545445f53414d455f544f4b454e5f50524f5045525459000000000000000060448201526064016108cf565b60005b86811015611e9b5760ff546001600160a01b03166323b872dd3360018b8b86818110611e1957611e19613b54565b6040516001600160e01b031960e088901b1681526001600160a01b03958616600482015294909316602485015250602090910201356044820152606401600060405180830381600087803b158015611e7057600080fd5b505af1158015611e84573d6000803e3d6000fd5b505050508080611e9390613d4f565b915050611deb565b5081856001600160a01b03167fd8b0734c4fb9ac9d66dc0c553b24ee5baee3215f9006d5188dc91460aa603af783606001516001611ed99190613d37565b60405190815260200160405180910390a350505050505050565b600081815260cb60205260409020546060906001600160a01b0316611f5a5760405162461bcd60e51b815260206004820152601760248201527f54686973204e465420646f65736e27742065786973742e00000000000000000060448201526064016108cf565b6000611f64612ff6565b90506000815111611f845760405180602001604052806000815250611faf565b80611f8e84613005565b604051602001611f9f929190613d6a565b6040516020818303038152906040525b9392505050565b60fc54604051635d528fc360e11b8152600481018590526001600160a01b039091169063baa51f8690602401602060405180830381865afa158015611fff573d6000803e3d6000fd5b505050506040513d601f19601f820116820180604052508101906120239190613da9565b6120655760405162461bcd60e51b815260206004820152601360248201527210d85c99081b5d5cdd081899481cdd185ad959606a1b60448201526064016108cf565b60003360fc5460405163a5cd761f60e01b8152600481018790529192506001600160a01b038084169291169063a5cd761f90602401602060405180830381865afa1580156120b7573d6000803e3d6000fd5b505050506040513d601f19601f820116820180604052508101906120db9190613dc6565b6001600160a01b0316146121245760405162461bcd60e51b815260206004820152601060248201526f4e4654206973206e6f7420796f75727360801b60448201526064016108cf565b61212d81611787565b1561216e5760405162461bcd60e51b8152602060048201526011602482015270416c72656164792068617665206e6f646560781b60448201526064016108cf565b600084815261010460205260409020546001600160a01b0316156121c95760405162461bcd60e51b8152602060048201526012602482015271105b1c9958591e481c9959da5cdd195c995960721b60448201526064016108cf565b600082815261010160205260409020546001600160a01b0316156122205760405162461bcd60e51b815260206004820152600e60248201526d1d1a58dad95d081a5cc81d5cd95960921b60448201526064016108cf565b60008481526101046020908152604080832080546001600160a01b0386166001600160a01b03199182168117909255868552610101909352922080549091169091178155600181018590556122724290565b60028201556122818284612c05565b6001600160a01b0382811660008181526101036020526040808220879055610102805460018101825592527f93bdaa6a4190909b7c3fbe8d42169ffe1cab19f51dfc8db24c71abf849eced4a90910186905560fd54905163a2f8de7760e01b8152600481019290925260248201869052604482018790529091169063a2f8de7790606401600060405180830381600087803b15801561231f57600080fd5b505af1158015612333573d6000803e3d6000fd5b505060ff546040516301ff8f7360e41b8152600481018990526001600160a01b039091169250631ff8f7309150602401600060405180830381865afa158015612380573d6000803e3d6000fd5b505050506040513d6000823e601f3d908101601f191682016040526123a89190810190613c6b565b6000848152610105602090815260409091208251805191926123cf928492909101906134c0565b5060208281015180516123e892600185019201906134c0565b50604082015180516124049160028401916020909101906134c0565b5060608201516003820155608090910151600490910155604080518581526020810185905286916001600160a01b038516917f970d66696fa342805d6fc5131876bf40c04110feed7e00001baee26b8f6109b89101610d32565b6101056020526000908152604090208054819061247a90613abe565b80601f01602080910402602001604051908101604052809291908181526020018280546124a690613abe565b80156124f35780601f106124c8576101008083540402835291602001916124f3565b820191906000526020600020905b8154815290600101906020018083116124d657829003601f168201915b50505050509080600101805461250890613abe565b80601f016020809104026020016040519081016040528092919081815260200182805461253490613abe565b80156125815780601f1061255657610100808354040283529160200191612581565b820191906000526020600020905b81548152906001019060200180831161256457829003601f168201915b50505050509080600201805461259690613abe565b80601f01602080910402602001604051908101604052809291908181526020018280546125c290613abe565b801561260f5780601f106125e45761010080835404028352916020019161260f565b820191906000526020600020905b8154815290600101906020018083116125f257829003601f168201915b5050505050908060030154908060040154905085565b6001600160a01b03918216600090815260ce6020908152604080832093909416825291909152205460ff1690565b61265b6126fb565b6001600160a01b0381166126c05760405162461bcd60e51b815260206004820152602660248201527f4f776e61626c653a206e6577206f776e657220697320746865207a65726f206160448201526564647265737360d01b60648201526084016108cf565b61165181612d47565b61010660205281600052604060002081815481106126e657600080fd5b90600052602060002001600091509150505481565b6065546001600160a01b0316331461181f5760405162461bcd60e51b815260206004820181905260248201527f4f776e61626c653a2063616c6c6572206973206e6f7420746865206f776e657260448201526064016108cf565b600081815260cb60205260409020546001600160a01b03166116515760405162461bcd60e51b8152602060048201526018602482015277115490cdcc8c4e881a5b9d985b1a59081d1bdad95b88125160421b60448201526064016108cf565b600081815260cd6020526040902080546001600160a01b0319166001600160a01b03841690811790915581906127e982611699565b6001600160a01b03167f8c5be1e5ebec7d5bd14f71427d1e84f3dd0314c0f7b2291e5b200ac8c7c3b92560405160405180910390a45050565b600054610100900460ff166128495760405162461bcd60e51b81526004016108cf90613de3565b6116218282613103565b600054610100900460ff1661287a5760405162461bcd60e51b81526004016108cf90613de3565b61181f613151565b600054610100900460ff166128a95760405162461bcd60e51b81526004016108cf90613de3565b61181f613184565b60006128bc82611699565b90506128c96000836127b4565b6001600160a01b038116600090815260cc602052604081208054600192906128f2908490613b6a565b9091555050600082815260cb602052604080822080546001600160a01b0319169055518391906001600160a01b038416907fddf252ad1be2c89b69c2b068fc378daa952ba7f163c4a11628f55a4df523b3ef908390a45050565b60008061295883611699565b9050806001600160a01b0316846001600160a01b0316148061297f575061297f8185612625565b806129a35750836001600160a01b031661299884610833565b6001600160a01b0316145b949350505050565b6129b68383836131b4565b610100546001600160a01b03838116911614156129d257505050565b610100546001600160a01b0384811691161415612a0557600081815261010160205260409020546001600160a01b031692505b816001600160a01b0316836001600160a01b03161415612a2457505050565b6001600160a01b0382166000908152610103602052604090205415612a835760405162461bcd60e51b8152602060048201526015602482015274596f7520616c72656164792068617665206e6f646560581b60448201526064016108cf565b6001600160a01b038381166000818152610103602090815260408083208390558685168084528184208790558684526101019092529182902080546001600160a01b0319168217905560fd549151633a6ac7ad60e21b815260048101939093526024830152604482018490529091169063e9ab1eb490606401600060405180830381600087803b158015612b1657600080fd5b505af1158015612b2a573d6000803e3d6000fd5b505050506000612b3983610f7f565b60fc546040516359de158160e11b8152600481018390526001600160a01b03868116602483015292935091169063b3bc2b0290604401600060405180830381600087803b158015612b8957600080fd5b505af1158015612b9d573d6000803e3d6000fd5b50506101005460405163d789571560e01b81523060048201526001600160a01b03909116925063d78957159150602401600060405180830381600087803b158015612be757600080fd5b505af1158015612bfb573d6000803e3d6000fd5b5050505050505050565b6001600160a01b038216612c5b5760405162461bcd60e51b815260206004820181905260248201527f4552433732313a206d696e7420746f20746865207a65726f206164647265737360448201526064016108cf565b600081815260cb60205260409020546001600160a01b031615612cc05760405162461bcd60e51b815260206004820152601c60248201527f4552433732313a20746f6b656e20616c7265616479206d696e7465640000000060448201526064016108cf565b6001600160a01b038216600090815260cc60205260408120805460019290612ce9908490613d37565b9091555050600081815260cb602052604080822080546001600160a01b0319166001600160a01b03861690811790915590518392907fddf252ad1be2c89b69c2b068fc378daa952ba7f163c4a11628f55a4df523b3ef908290a45050565b606580546001600160a01b038381166001600160a01b0319831681179093556040519116919082907f8be0079c531659141344cd1fd0a4f28419497f9722a3daafe3b4186f6b6457e090600090a35050565b816001600160a01b0316836001600160a01b03161415612dfb5760405162461bcd60e51b815260206004820152601960248201527f4552433732313a20617070726f766520746f2063616c6c65720000000000000060448201526064016108cf565b6001600160a01b03838116600081815260ce6020908152604080832094871680845294825291829020805460ff191686151590811790915591519182527f17307eab39ab6107e8899845ad3d59bd9653f200f220920489ca2b5937696c31910160405180910390a3505050565b612e738484846129ab565b612e7f84848484613350565b61137b5760405162461bcd60e51b81526004016108cf90613e2e565b6000815160001415612eaf5750600061079b565b60ff546040516301ff8f7360e41b8152600481018590526001600160a01b03909116906000908290631ff8f73090602401600060405180830381865afa158015612efd573d6000803e3d6000fd5b505050506040513d6000823e601f3d908101601f19168201604052612f259190810190613c6b565b905060005b8451811015612fea57612fc882846001600160a01b0316631ff8f730888581518110612f5857612f58613b54565b60200260200101516040518263ffffffff1660e01b8152600401612f7e91815260200190565b600060405180830381865afa158015612f9b573d6000803e3d6000fd5b505050506040513d6000823e601f3d908101601f19168201604052612fc39190810190613c6b565b61344e565b612fd8576000935050505061079b565b80612fe281613d4f565b915050612f2a565b50600195945050505050565b606060fb80546107b090613abe565b6060816130295750506040805180820190915260018152600360fc1b602082015290565b8160005b8115613053578061303d81613d4f565b915061304c9050600a83613e96565b915061302d565b60008167ffffffffffffffff81111561306e5761306e613799565b6040519080825280601f01601f191660200182016040528015613098576020820181803683370190505b5090505b84156129a3576130ad600183613b6a565b91506130ba600a86613eaa565b6130c5906030613d37565b60f81b8183815181106130da576130da613b54565b60200101906001600160f81b031916908160001a9053506130fc600a86613e96565b945061309c565b600054610100900460ff1661312a5760405162461bcd60e51b81526004016108cf90613de3565b815161313d9060c99060208501906134c0565b5080516109709060ca9060208401906134c0565b600054610100900460ff166131785760405162461bcd60e51b81526004016108cf90613de3565b6033805460ff19169055565b600054610100900460ff166131ab5760405162461bcd60e51b81526004016108cf90613de3565b61181f33612d47565b826001600160a01b03166131c782611699565b6001600160a01b03161461322b5760405162461bcd60e51b815260206004820152602560248201527f4552433732313a207472616e736665722066726f6d20696e636f72726563742060448201526437bbb732b960d91b60648201526084016108cf565b6001600160a01b03821661328d5760405162461bcd60e51b8152602060048201526024808201527f4552433732313a207472616e7366657220746f20746865207a65726f206164646044820152637265737360e01b60648201526084016108cf565b6132986000826127b4565b6001600160a01b038316600090815260cc602052604081208054600192906132c1908490613b6a565b90915550506001600160a01b038216600090815260cc602052604081208054600192906132ef908490613d37565b9091555050600081815260cb602052604080822080546001600160a01b0319166001600160a01b0386811691821790925591518493918716917fddf252ad1be2c89b69c2b068fc378daa952ba7f163c4a11628f55a4df523b3ef91a4505050565b60006001600160a01b0384163b1561344357604051630a85bd0160e11b81526001600160a01b0385169063150b7a0290613394903390899088908890600401613ebe565b6020604051808303816000875af19250505080156133cf575060408051601f3d908101601f191682019092526133cc91810190613efb565b60015b613429573d8080156133fd576040519150601f19603f3d011682016040523d82523d6000602084013e613402565b606091505b5080516134215760405162461bcd60e51b81526004016108cf90613e2e565b805181602001fd5b6001600160e01b031916630a85bd0160e11b1490506129a3565b506001949350505050565b600081600001518051906020012083600001518051906020012014801561348a5750816020015180519060200120836020015180519060200120145b80156134ab5750816040015180519060200120836040015180519060200120145b8015611faf5750506080908101519101511490565b8280546134cc90613abe565b90600052602060002090601f0160209004810192826134ee5760008555613534565b82601f1061350757805160ff1916838001178555613534565b82800160010185558215613534579182015b82811115613534578251825591602001919060010190613519565b50613540929150613544565b5090565b5b808211156135405760008155600101613545565b60006020828403121561356b57600080fd5b5035919050565b6001600160e01b03198116811461165157600080fd5b60006020828403121561359a57600080fd5b8135611faf81613572565b60005b838110156135c05781810151838201526020016135a8565b8381111561137b5750506000910152565b600081518084526135e98160208601602086016135a5565b601f01601f19169290920160200192915050565b602081526000611faf60208301846135d1565b6001600160a01b038116811461165157600080fd5b6000806040838503121561363857600080fd5b823561364381613610565b946020939093013593505050565b600080600080600060a0868803121561366957600080fd5b853561367481613610565b9450602086013561368481613610565b9350604086013561369481613610565b925060608601356136a481613610565b915060808601356136b481613610565b809150509295509295909350565b602081526000825160a060208401526136de60c08401826135d1565b90506020840151601f19808584030160408601526136fc83836135d1565b925060408601519150808584030160608601525061371a82826135d1565b91505060608401516080840152608084015160a08401528091505092915050565b60006020828403121561374d57600080fd5b8135611faf81613610565b60008060006060848603121561376d57600080fd5b833561377881613610565b9250602084013561378881613610565b929592945050506040919091013590565b634e487b7160e01b600052604160045260246000fd5b60405160a0810167ffffffffffffffff811182821017156137d2576137d2613799565b60405290565b604051601f8201601f1916810167ffffffffffffffff8111828210171561380157613801613799565b604052919050565b600067ffffffffffffffff82111561382357613823613799565b50601f01601f191660200190565b600061384461383f84613809565b6137d8565b905082815283838301111561385857600080fd5b828260208301376000602084830101529392505050565b60006020828403121561388157600080fd5b813567ffffffffffffffff81111561389857600080fd5b8201601f810184136138a957600080fd5b6129a384823560208401613831565b801515811461165157600080fd5b600080604083850312156138d957600080fd5b82356138e481613610565b915060208301356138f4816138b8565b809150509250929050565b6000806000806080858703121561391557600080fd5b843561392081613610565b9350602085013561393081613610565b925060408501359150606085013567ffffffffffffffff81111561395357600080fd5b8501601f8101871361396457600080fd5b61397387823560208401613831565b91505092959194509250565b6000806020838503121561399257600080fd5b823567ffffffffffffffff808211156139aa57600080fd5b818501915085601f8301126139be57600080fd5b8135818111156139cd57600080fd5b8660208260051b85010111156139e257600080fd5b60209290920196919550909350505050565b600080600060608486031215613a0957600080fd5b505081359360208301359350604090920135919050565b60a081526000613a3360a08301886135d1565b8281036020840152613a4581886135d1565b90508281036040840152613a5981876135d1565b60608401959095525050608001529392505050565b60008060408385031215613a8157600080fd5b8235613a8c81613610565b915060208301356138f481613610565b60008060408385031215613aaf57600080fd5b50508035926020909101359150565b600181811c90821680613ad257607f821691505b60208210811415613af357634e487b7160e01b600052602260045260246000fd5b50919050565b6020808252601490820152732cb7ba903237b713ba103430bb32903737b2329760611b604082015260600190565b634e487b7160e01b600052601160045260246000fd5b600081613b4c57613b4c613b27565b506000190190565b634e487b7160e01b600052603260045260246000fd5b600082821015613b7c57613b7c613b27565b500390565b634e487b7160e01b600052603160045260246000fd5b6020808252602e908201527f4552433732313a2063616c6c6572206973206e6f7420746f6b656e206f776e6560408201526d1c881b9bdc88185c1c1c9bdd995960921b606082015260800190565b6020808252600e908201526d139bd919481b9bdd08195e1a5cdd60921b604082015260600190565b600060208284031215613c1f57600080fd5b5051919050565b600082601f830112613c3757600080fd5b8151613c4561383f82613809565b818152846020838601011115613c5a57600080fd5b6129a38260208301602087016135a5565b600060208284031215613c7d57600080fd5b815167ffffffffffffffff80821115613c9557600080fd5b9083019060a08286031215613ca957600080fd5b613cb16137af565b825182811115613cc057600080fd5b613ccc87828601613c26565b825250602083015182811115613ce157600080fd5b613ced87828601613c26565b602083015250604083015182811115613d0557600080fd5b613d1187828601613c26565b604083015250606083015160608201526080830151608082015280935050505092915050565b60008219821115613d4a57613d4a613b27565b500190565b6000600019821415613d6357613d63613b27565b5060010190565b60008351613d7c8184602088016135a5565b835190830190613d908183602088016135a5565b64173539b7b760d91b9101908152600501949350505050565b600060208284031215613dbb57600080fd5b8151611faf816138b8565b600060208284031215613dd857600080fd5b8151611faf81613610565b6020808252602b908201527f496e697469616c697a61626c653a20636f6e7472616374206973206e6f74206960408201526a6e697469616c697a696e6760a81b606082015260800190565b60208082526032908201527f4552433732313a207472616e7366657220746f206e6f6e20455243373231526560408201527131b2b4bb32b91034b6b83632b6b2b73a32b960711b606082015260800190565b634e487b7160e01b600052601260045260246000fd5b600082613ea557613ea5613e80565b500490565b600082613eb957613eb9613e80565b500690565b6001600160a01b0385811682528416602082015260408101839052608060608201819052600090613ef1908301846135d1565b9695505050505050565b600060208284031215613f0d57600080fd5b8151611faf8161357256fea264697066735822122070c7231fabebf4b4f01704fa1665f5d47111e604d7670ab3689436d2debec8ca64736f6c634300080b0033",
  "linkReferences": {},
  "deployedLinkReferences": {}
}