{
  "_format": "hh-sol-artifact-1",
  "contractName": "BIBNode",
  "sourceName": "contracts/community/BIBNode.sol",
  "abi": [
    {
      "anonymous": false,
      "inputs": [
        {
          "indexed": true,
          "internalType": "address",
          "name": "owner",
          "type": "address"
        },
        {
          "indexed": true,
          "internalType": "address",
          "name": "approved",
          "type": "address"
        },
        {
          "indexed": true,
          "internalType": "uint256",
          "name": "tokenId",
          "type": "uint256"
        }
      ],
      "name": "Approval",
      "type": "event"
    },
    {
      "anonymous": false,
      "inputs": [
        {
          "indexed": true,
          "internalType": "address",
          "name": "owner",
          "type": "address"
        },
        {
          "indexed": true,
          "internalType": "address",
          "name": "operator",
          "type": "address"
        },
        {
          "indexed": false,
          "internalType": "bool",
          "name": "approved",
          "type": "bool"
        }
      ],
      "name": "ApprovalForAll",
      "type": "event"
    },
    {
      "anonymous": false,
      "inputs": [
        {
          "indexed": true,
          "internalType": "address",
          "name": "user",
          "type": "address"
        },
        {
          "indexed": true,
          "internalType": "uint256",
          "name": "cardNFTId",
          "type": "uint256"
        },
        {
          "indexed": false,
          "internalType": "uint256",
          "name": "bibAmount",
          "type": "uint256"
        },
        {
          "indexed": false,
          "internalType": "uint256",
          "name": "ticketId",
          "type": "uint256"
        }
      ],
      "name": "CreateNode",
      "type": "event"
    },
    {
      "anonymous": false,
      "inputs": [
        {
          "indexed": true,
          "internalType": "address",
          "name": "user",
          "type": "address"
        },
        {
          "indexed": true,
          "internalType": "uint256",
          "name": "cardNFTId",
          "type": "uint256"
        },
        {
          "indexed": false,
          "internalType": "uint256",
          "name": "ticketId",
          "type": "uint256"
        }
      ],
      "name": "DisbandNode",
      "type": "event"
    },
    {
      "anonymous": false,
      "inputs": [
        {
          "indexed": false,
          "internalType": "uint8",
          "name": "version",
          "type": "uint8"
        }
      ],
      "name": "Initialized",
      "type": "event"
    },
    {
      "anonymous": false,
      "inputs": [
        {
          "indexed": true,
          "internalType": "uint256",
          "name": "fromTicketId",
          "type": "uint256"
        },
        {
          "indexed": true,
          "internalType": "uint256",
          "name": "ticketId",
          "type": "uint256"
        },
        {
          "indexed": false,
          "internalType": "uint256",
          "name": "bibAmount",
          "type": "uint256"
        }
      ],
      "name": "NodeStaking",
      "type": "event"
    },
    {
      "anonymous": false,
      "inputs": [
        {
          "indexed": true,
          "internalType": "uint256",
          "name": "fromTicketId",
          "type": "uint256"
        },
        {
          "indexed": true,
          "internalType": "uint256",
          "name": "ticketId",
          "type": "uint256"
        },
        {
          "indexed": false,
          "internalType": "uint256",
          "name": "bibAmount",
          "type": "uint256"
        }
      ],
      "name": "NodeUnStaking",
      "type": "event"
    },
    {
      "anonymous": false,
      "inputs": [
        {
          "indexed": true,
          "internalType": "address",
          "name": "previousOwner",
          "type": "address"
        },
        {
          "indexed": true,
          "internalType": "address",
          "name": "newOwner",
          "type": "address"
        }
      ],
      "name": "OwnershipTransferred",
      "type": "event"
    },
    {
      "anonymous": false,
      "inputs": [
        {
          "indexed": false,
          "internalType": "address",
          "name": "account",
          "type": "address"
        }
      ],
      "name": "Paused",
      "type": "event"
    },
    {
      "anonymous": false,
      "inputs": [
        {
          "indexed": true,
          "internalType": "address",
          "name": "from",
          "type": "address"
        },
        {
          "indexed": true,
          "internalType": "address",
          "name": "to",
          "type": "address"
        },
        {
          "indexed": true,
          "internalType": "uint256",
          "name": "tokenId",
          "type": "uint256"
        }
      ],
      "name": "Transfer",
      "type": "event"
    },
    {
      "anonymous": false,
      "inputs": [
        {
          "indexed": false,
          "internalType": "address",
          "name": "account",
          "type": "address"
        }
      ],
      "name": "Unpaused",
      "type": "event"
    },
    {
      "anonymous": false,
      "inputs": [
        {
          "indexed": true,
          "internalType": "address",
          "name": "user",
          "type": "address"
        },
        {
          "indexed": true,
          "internalType": "uint256",
          "name": "cardNFTId",
          "type": "uint256"
        },
        {
          "indexed": false,
          "internalType": "uint256",
          "name": "starLevel",
          "type": "uint256"
        }
      ],
      "name": "UpgradeNode",
      "type": "event"
    },
    {
      "inputs": [],
      "name": "BIBStaking",
      "outputs": [
        {
          "internalType": "contract IBIBStaking",
          "name": "",
          "type": "address"
        }
      ],
      "stateMutability": "view",
      "type": "function"
    },
    {
      "inputs": [],
      "name": "BIBToken",
      "outputs": [
        {
          "internalType": "contract IERC20Upgradeable",
          "name": "",
          "type": "address"
        }
      ],
      "stateMutability": "view",
      "type": "function"
    },
    {
      "inputs": [],
      "name": "BLACK_HOLE",
      "outputs": [
        {
          "internalType": "address",
          "name": "",
          "type": "address"
        }
      ],
      "stateMutability": "view",
      "type": "function"
    },
    {
      "inputs": [
        {
          "internalType": "address",
          "name": "to",
          "type": "address"
        },
        {
          "internalType": "uint256",
          "name": "tokenId",
          "type": "uint256"
        }
      ],
      "name": "approve",
      "outputs": [],
      "stateMutability": "nonpayable",
      "type": "function"
    },
    {
      "inputs": [
        {
          "internalType": "address",
          "name": "owner",
          "type": "address"
        }
      ],
      "name": "balanceOf",
      "outputs": [
        {
          "internalType": "uint256",
          "name": "",
          "type": "uint256"
        }
      ],
      "stateMutability": "view",
      "type": "function"
    },
    {
      "inputs": [],
      "name": "baseURI",
      "outputs": [
        {
          "internalType": "string",
          "name": "",
          "type": "string"
        }
      ],
      "stateMutability": "view",
      "type": "function"
    },
    {
      "inputs": [
        {
          "internalType": "uint256",
          "name": "tokenId",
          "type": "uint256"
        }
      ],
      "name": "burn",
      "outputs": [],
      "stateMutability": "nonpayable",
      "type": "function"
    },
    {
      "inputs": [
        {
          "internalType": "address",
          "name": "",
          "type": "address"
        }
      ],
      "name": "cardNFTFreezeMap",
      "outputs": [
        {
          "internalType": "uint256",
          "name": "cardNftId",
          "type": "uint256"
        },
        {
          "internalType": "uint256",
          "name": "expireTime",
          "type": "uint256"
        }
      ],
      "stateMutability": "view",
      "type": "function"
    },
    {
      "inputs": [
        {
          "internalType": "uint256",
          "name": "",
          "type": "uint256"
        }
      ],
      "name": "cardNFTOwners",
      "outputs": [
        {
          "internalType": "address",
          "name": "",
          "type": "address"
        }
      ],
      "stateMutability": "view",
      "type": "function"
    },
    {
      "inputs": [],
      "name": "cardNFTStake",
      "outputs": [
        {
          "internalType": "contract IStakedSoccerStarNftV2",
          "name": "",
          "type": "address"
        }
      ],
      "stateMutability": "view",
      "type": "function"
    },
    {
      "inputs": [
        {
          "internalType": "uint256",
          "name": "_ticket",
          "type": "uint256"
        }
      ],
      "name": "changeStakeNode",
      "outputs": [],
      "stateMutability": "nonpayable",
      "type": "function"
    },
    {
      "inputs": [
        {
          "internalType": "uint256",
          "name": "_cardNFTId",
          "type": "uint256"
        },
        {
          "internalType": "uint256",
          "name": "_bibAmount",
          "type": "uint256"
        },
        {
          "internalType": "uint256",
          "name": "ticket",
          "type": "uint256"
        }
      ],
      "name": "createNode",
      "outputs": [],
      "stateMutability": "nonpayable",
      "type": "function"
    },
    {
      "inputs": [],
      "name": "disbandNode",
      "outputs": [],
      "stateMutability": "nonpayable",
      "type": "function"
    },
    {
      "inputs": [
        {
          "internalType": "uint256",
          "name": "tokenId",
          "type": "uint256"
        }
      ],
      "name": "getApproved",
      "outputs": [
        {
          "internalType": "address",
          "name": "",
          "type": "address"
        }
      ],
      "stateMutability": "view",
      "type": "function"
    },
    {
      "inputs": [
        {
          "internalType": "address",
          "name": "user",
          "type": "address"
        }
      ],
      "name": "getCardNFTByAddress",
      "outputs": [
        {
          "internalType": "uint256",
          "name": "",
          "type": "uint256"
        }
      ],
      "stateMutability": "view",
      "type": "function"
    },
    {
      "inputs": [
        {
          "internalType": "address",
          "name": "_cardNFTStake",
          "type": "address"
        },
        {
          "internalType": "address",
          "name": "_soccerStarNft",
          "type": "address"
        },
        {
          "internalType": "address",
          "name": "_bibToken",
          "type": "address"
        },
        {
          "internalType": "address",
          "name": "_bibStaking",
          "type": "address"
        }
      ],
      "name": "initialize",
      "outputs": [],
      "stateMutability": "nonpayable",
      "type": "function"
    },
    {
      "inputs": [
        {
          "internalType": "address",
          "name": "owner",
          "type": "address"
        },
        {
          "internalType": "address",
          "name": "operator",
          "type": "address"
        }
      ],
      "name": "isApprovedForAll",
      "outputs": [
        {
          "internalType": "bool",
          "name": "",
          "type": "bool"
        }
      ],
      "stateMutability": "view",
      "type": "function"
    },
    {
      "inputs": [
        {
          "internalType": "uint256",
          "name": "tokenId",
          "type": "uint256"
        }
      ],
      "name": "isStakedAsNode",
      "outputs": [
        {
          "internalType": "bool",
          "name": "",
          "type": "bool"
        }
      ],
      "stateMutability": "view",
      "type": "function"
    },
    {
      "inputs": [],
      "name": "maxSubNodeCount",
      "outputs": [
        {
          "internalType": "uint256",
          "name": "",
          "type": "uint256"
        }
      ],
      "stateMutability": "view",
      "type": "function"
    },
    {
      "inputs": [
        {
          "internalType": "address",
          "name": "to",
          "type": "address"
        },
        {
          "internalType": "uint256",
          "name": "tokenId",
          "type": "uint256"
        }
      ],
      "name": "mint",
      "outputs": [],
      "stateMutability": "nonpayable",
      "type": "function"
    },
    {
      "inputs": [],
      "name": "name",
      "outputs": [
        {
          "internalType": "string",
          "name": "",
          "type": "string"
        }
      ],
      "stateMutability": "view",
      "type": "function"
    },
    {
      "inputs": [
        {
          "internalType": "uint256",
          "name": "",
          "type": "uint256"
        }
      ],
      "name": "nodeList",
      "outputs": [
        {
          "internalType": "uint256",
          "name": "",
          "type": "uint256"
        }
      ],
      "stateMutability": "view",
      "type": "function"
    },
    {
      "inputs": [
        {
          "internalType": "uint256",
          "name": "",
          "type": "uint256"
        }
      ],
      "name": "nodeMap",
      "outputs": [
        {
          "internalType": "address",
          "name": "ownerAddress",
          "type": "address"
        },
        {
          "internalType": "uint256",
          "name": "cardNftId",
          "type": "uint256"
        },
        {
          "internalType": "uint256",
          "name": "createTime",
          "type": "uint256"
        },
        {
          "internalType": "uint256",
          "name": "upNode",
          "type": "uint256"
        }
      ],
      "stateMutability": "view",
      "type": "function"
    },
    {
      "inputs": [],
      "name": "owner",
      "outputs": [
        {
          "internalType": "address",
          "name": "",
          "type": "address"
        }
      ],
      "stateMutability": "view",
      "type": "function"
    },
    {
      "inputs": [
        {
          "internalType": "uint256",
          "name": "tokenId",
          "type": "uint256"
        }
      ],
      "name": "ownerOf",
      "outputs": [
        {
          "internalType": "address",
          "name": "",
          "type": "address"
        }
      ],
      "stateMutability": "view",
      "type": "function"
    },
    {
      "inputs": [],
      "name": "paused",
      "outputs": [
        {
          "internalType": "bool",
          "name": "",
          "type": "bool"
        }
      ],
      "stateMutability": "view",
      "type": "function"
    },
    {
      "inputs": [],
      "name": "renounceOwnership",
      "outputs": [],
      "stateMutability": "nonpayable",
      "type": "function"
    },
    {
      "inputs": [
        {
          "internalType": "address",
          "name": "from",
          "type": "address"
        },
        {
          "internalType": "address",
          "name": "to",
          "type": "address"
        },
        {
          "internalType": "uint256",
          "name": "tokenId",
          "type": "uint256"
        }
      ],
      "name": "safeTransferFrom",
      "outputs": [],
      "stateMutability": "nonpayable",
      "type": "function"
    },
    {
      "inputs": [
        {
          "internalType": "address",
          "name": "from",
          "type": "address"
        },
        {
          "internalType": "address",
          "name": "to",
          "type": "address"
        },
        {
          "internalType": "uint256",
          "name": "tokenId",
          "type": "uint256"
        },
        {
          "internalType": "bytes",
          "name": "data",
          "type": "bytes"
        }
      ],
      "name": "safeTransferFrom",
      "outputs": [],
      "stateMutability": "nonpayable",
      "type": "function"
    },
    {
      "inputs": [
        {
          "internalType": "address",
          "name": "operator",
          "type": "address"
        },
        {
          "internalType": "bool",
          "name": "approved",
          "type": "bool"
        }
      ],
      "name": "setApprovalForAll",
      "outputs": [],
      "stateMutability": "nonpayable",
      "type": "function"
    },
    {
      "inputs": [
        {
          "internalType": "string",
          "name": "uri",
          "type": "string"
        }
      ],
      "name": "setBaseURI",
      "outputs": [],
      "stateMutability": "nonpayable",
      "type": "function"
    },
    {
      "inputs": [
        {
          "internalType": "address",
          "name": "_cardNft",
          "type": "address"
        }
      ],
      "name": "setCardNft",
      "outputs": [],
      "stateMutability": "nonpayable",
      "type": "function"
    },
    {
      "inputs": [
        {
          "internalType": "address",
          "name": "_cardNftStake",
          "type": "address"
        }
      ],
      "name": "setCardNftStake",
      "outputs": [],
      "stateMutability": "nonpayable",
      "type": "function"
    },
    {
      "inputs": [],
      "name": "soccerStarNft",
      "outputs": [
        {
          "internalType": "contract ERC721Upgradeable",
          "name": "",
          "type": "address"
        }
      ],
      "stateMutability": "view",
      "type": "function"
    },
    {
      "inputs": [
        {
          "internalType": "uint256",
          "name": "_ticket",
          "type": "uint256"
        }
      ],
      "name": "stakeNode",
      "outputs": [
        {
          "internalType": "bool",
          "name": "",
          "type": "bool"
        }
      ],
      "stateMutability": "nonpayable",
      "type": "function"
    },
    {
      "inputs": [
        {
          "internalType": "uint256",
          "name": "",
          "type": "uint256"
        },
        {
          "internalType": "uint256",
          "name": "",
          "type": "uint256"
        }
      ],
      "name": "subNodes",
      "outputs": [
        {
          "internalType": "uint256",
          "name": "",
          "type": "uint256"
        }
      ],
      "stateMutability": "view",
      "type": "function"
    },
    {
      "inputs": [
        {
          "internalType": "bytes4",
          "name": "interfaceId",
          "type": "bytes4"
        }
      ],
      "name": "supportsInterface",
      "outputs": [
        {
          "internalType": "bool",
          "name": "",
          "type": "bool"
        }
      ],
      "stateMutability": "view",
      "type": "function"
    },
    {
      "inputs": [],
      "name": "symbol",
      "outputs": [
        {
          "internalType": "string",
          "name": "",
          "type": "string"
        }
      ],
      "stateMutability": "view",
      "type": "function"
    },
    {
      "inputs": [
        {
          "internalType": "address",
          "name": "",
          "type": "address"
        }
      ],
      "name": "ticketMap",
      "outputs": [
        {
          "internalType": "uint256",
          "name": "",
          "type": "uint256"
        }
      ],
      "stateMutability": "view",
      "type": "function"
    },
    {
      "inputs": [
        {
          "internalType": "uint256",
          "name": "tokenId",
          "type": "uint256"
        }
      ],
      "name": "tokenURI",
      "outputs": [
        {
          "internalType": "string",
          "name": "",
          "type": "string"
        }
      ],
      "stateMutability": "view",
      "type": "function"
    },
    {
      "inputs": [
        {
          "internalType": "address",
          "name": "from",
          "type": "address"
        },
        {
          "internalType": "address",
          "name": "to",
          "type": "address"
        },
        {
          "internalType": "uint256",
          "name": "tokenId",
          "type": "uint256"
        }
      ],
      "name": "transferFrom",
      "outputs": [],
      "stateMutability": "nonpayable",
      "type": "function"
    },
    {
      "inputs": [
        {
          "internalType": "address",
          "name": "newOwner",
          "type": "address"
        }
      ],
      "name": "transferOwnership",
      "outputs": [],
      "stateMutability": "nonpayable",
      "type": "function"
    },
    {
      "inputs": [
        {
          "internalType": "uint256",
          "name": "_ticket",
          "type": "uint256"
        }
      ],
      "name": "unStakeNode",
      "outputs": [
        {
          "internalType": "bool",
          "name": "",
          "type": "bool"
        }
      ],
      "stateMutability": "nonpayable",
      "type": "function"
    },
    {
      "inputs": [
        {
          "internalType": "uint256[]",
          "name": "_cardNFTIds",
          "type": "uint256[]"
        }
      ],
      "name": "upgradeNode",
      "outputs": [],
      "stateMutability": "nonpayable",
      "type": "function"
    }
  ],
  "bytecode": "0x608060405234801561001057600080fd5b5061339d806100206000396000f3fe608060405234801561001057600080fd5b50600436106102745760003560e01c80636352211e11610151578063a4ab0b2e116100c3578063c87b56dd11610087578063c87b56dd146105fd578063d1577c7c14610610578063e985e9c514610623578063f2fde38b14610636578063f6a9010b14610649578063f8c8765e1461065c57600080fd5b8063a4ab0b2e1461055d578063b7d5f2e414610570578063b88d4fde1461059a578063be60c83b146105ad578063be783433146105ea57600080fd5b80638908d676116101155780638908d676146104d1578063893c8cc1146104e45780638da5cb5b1461051057806395d89b411461052157806396ae99b414610529578063a22cb4651461054a57600080fd5b80636352211e146104885780636c0360eb1461049b57806370a08231146104a3578063715018a6146104b657806378f64c8c146104be57600080fd5b80632aa64771116101ea57806342842e0e116101ae57806342842e0e1461042957806342966c681461043c5780634d351f651461044f57806355eda4e81461046257806355f804b31461046a5780635c975abb1461047d57600080fd5b80632aa64771146103735780632f973512146103865780633328bd4e14610399578063356ff5cd146103ac57806340c10f191461041657600080fd5b80630c98a3851161023c5780630c98a3851461030c57806314cf76c81461031f57806316833cca14610332578063208f2a311461033a5780632269d36d1461034d57806323b872dd1461036057600080fd5b806301d380911461027957806301ffc9a71461029457806306fdde03146102b7578063081812fc146102cc578063095ea7b3146102f7575b600080fd5b610281600a81565b6040519081526020015b60405180910390f35b6102a76102a2366004612ad2565b61066f565b604051901515815260200161028b565b6102bf6106c1565b60405161028b9190612b47565b6102df6102da366004612b5a565b610753565b6040516001600160a01b03909116815260200161028b565b61030a610305366004612b88565b61077a565b005b60ff546102df906001600160a01b031681565b60fe546102df906001600160a01b031681565b61030a610895565b610281610348366004612b5a565b610a90565b61028161035b366004612bb4565b610ab2565b61030a61036e366004612bd1565b610adf565b6102a7610381366004612b5a565b610b10565b61030a610394366004612bb4565b610e07565b61030a6103a7366004612b5a565b610e79565b6103ec6103ba366004612b5a565b6101006020526000908152604090208054600182015460028301546003909301546001600160a01b0390921692909184565b604080516001600160a01b039095168552602085019390935291830152606082015260800161028b565b61030a610424366004612b88565b610ed5565b61030a610437366004612bd1565b610eeb565b61030a61044a366004612b5a565b610f06565b60fc546102df906001600160a01b031681565b6102df600181565b61030a610478366004612ce8565b610f1a565b60335460ff166102a7565b6102df610496366004612b5a565b610f35565b6102bf610f95565b6102816104b1366004612bb4565b611023565b61030a6110a9565b60fd546102df906001600160a01b031681565b61030a6104df366004612bb4565b6110bd565b6102a76104f2366004612b5a565b600090815261010360205260409020546001600160a01b0316151590565b6065546001600160a01b03166102df565b6102bf61112f565b610281610537366004612bb4565b6101026020526000908152604090205481565b61030a610558366004612d3f565b61113e565b6102a761056b366004612b5a565b611149565b6102df61057e366004612b5a565b610103602052600090815260409020546001600160a01b031681565b61030a6105a8366004612d78565b61135b565b6105d56105bb366004612bb4565b610104602052600090815260409020805460019091015482565b6040805192835260208301919091520161028b565b61030a6105f8366004612df8565b61138d565b6102bf61060b366004612b5a565b6116f2565b61030a61061e366004612e6d565b611759565b6102a7610631366004612e99565b611b1d565b61030a610644366004612bb4565b611b4b565b610281610657366004612ec7565b611bc1565b61030a61066a366004612ee9565b611bf3565b60006001600160e01b031982166380ac58cd60e01b14806106a057506001600160e01b03198216635b5e139f60e01b145b806106bb57506301ffc9a760e01b6001600160e01b03198316145b92915050565b606060c980546106d090612f45565b80601f01602080910402602001604051908101604052809291908181526020018280546106fc90612f45565b80156107495780601f1061071e57610100808354040283529160200191610749565b820191906000526020600020905b81548152906001019060200180831161072c57829003601f168201915b5050505050905090565b600061075e82611d7d565b50600090815260cd60205260409020546001600160a01b031690565b600061078582610f35565b9050806001600160a01b0316836001600160a01b031614156107f85760405162461bcd60e51b815260206004820152602160248201527f4552433732313a20617070726f76616c20746f2063757272656e74206f776e656044820152603960f91b60648201526084015b60405180910390fd5b336001600160a01b038216148061081457506108148133611b1d565b6108865760405162461bcd60e51b815260206004820152603e60248201527f4552433732313a20617070726f76652063616c6c6572206973206e6f7420746f60448201527f6b656e206f776e6572206e6f7220617070726f76656420666f7220616c6c000060648201526084016107ef565b6108908383611ddc565b505050565b336000818152610102602090815260408083205480845261010090925290912060028101546108d65760405162461bcd60e51b81526004016107ef90612f80565b60006108e184610ab2565b90506108ec83611e4a565b6001600160a01b03848116600081815261010260205260408082209190915560fd5490516336b14edf60e11b815260048101929092526024820186905290911690636d629dbe90604401600060405180830381600087803b15801561095057600080fd5b505af1158015610964573d6000803e3d6000fd5b5050610101549150505b8015610a25578061097e81612fc4565b91505083610101828154811061099657610996612fdb565b90600052602060002001541415610a205761010180546109b890600190612ff1565b815481106109c8576109c8612fdb565b906000526020600020015461010182815481106109e7576109e7612fdb565b600091825260209091200155610101805480610a0557610a05613008565b60019003818190600052602060002001600090559055610a25565b61096e565b600082815261010360205260409081902080546001600160a01b03191690555182906001600160a01b038716907fe89522f30cc3ab418b3126979d7793b955bf00d510a3d265b7065d62a423061790610a819088815260200190565b60405180910390a35050505050565b6101018181548110610aa157600080fd5b600091825260209091200154905081565b6001600160a01b031660009081526101026020908152604080832054835261010090915290206001015490565b610ae93382611ee5565b610b055760405162461bcd60e51b81526004016107ef9061301e565b610890838383611f44565b60008181526101006020526040812060020154610b605760405162461bcd60e51b815260206004820152600e60248201526d139bd919481b9bdd08195e1a5cdd60921b60448201526064016107ef565b60008281526101056020526040902054600a11610bae5760405162461bcd60e51b815260206004820152600c60248201526b139bd919481a5cc8199d5b1b60a21b60448201526064016107ef565b33600081815261010260209081526040808320548084526101009092529091206002810154610bef5760405162461bcd60e51b81526004016107ef90612f80565b84816003015414610c355760405162461bcd60e51b815260206004820152601060248201526f4e6f7420796f7572207570206e6f646560801b60448201526064016107ef565b600085815261010560205260409020545b8015610d3e5780610c5681612fc4565b9150508261010560008881526020019081526020016000208281548110610c7f57610c7f612fdb565b90600052602060002001541415610d39576000868152610105602052604090208054610cad90600190612ff1565b81548110610cbd57610cbd612fdb565b906000526020600020015461010560008881526020019081526020016000208281548110610ced57610ced612fdb565b90600052602060002001819055506101056000878152602001908152602001600020805480610d1e57610d1e613008565b60019003818190600052602060002001600090559055610d3e565b610c46565b60006003830181905560fd54604051630443ee9160e51b815260048101869052602481018990526001600160a01b039091169063887dd220906044016020604051808303816000875af1158015610d99573d6000803e3d6000fd5b505050506040513d601f19601f82011682018060405250810190610dbd919061306c565b905086847f1167679d9905b71e2c953444b39b9d22bf70de84ab2994e46a787ad43e5a42d083604051610df291815260200190565b60405180910390a35060019695505050505050565b610e0f61207f565b6001600160a01b038116610e575760405162461bcd60e51b815260206004820152600f60248201526e496e76616c6964206164647265737360881b60448201526064016107ef565b60ff80546001600160a01b0319166001600160a01b0392909216919091179055565b336000818152610102602090815260408083205480845261010090925290912060030154831415610ea957505050565b60008181526101006020526040902060030154610ec590610b10565b50610ecf83611149565b50505050565b610edd61207f565b610ee782826120d9565b5050565b6108908383836040518060200160405280600081525061135b565b610f0e61207f565b610f1781611e4a565b50565b610f2261207f565b8051610ee79060fb906020840190612a23565b600081815260cb60205260408120546001600160a01b0316806106bb5760405162461bcd60e51b8152602060048201526018602482015277115490cdcc8c4e881a5b9d985b1a59081d1bdad95b88125160421b60448201526064016107ef565b60fb8054610fa290612f45565b80601f0160208091040260200160405190810160405280929190818152602001828054610fce90612f45565b801561101b5780601f10610ff05761010080835404028352916020019161101b565b820191906000526020600020905b815481529060010190602001808311610ffe57829003601f168201915b505050505081565b60006001600160a01b03821661108d5760405162461bcd60e51b815260206004820152602960248201527f4552433732313a2061646472657373207a65726f206973206e6f7420612076616044820152683634b21037bbb732b960b91b60648201526084016107ef565b506001600160a01b0316600090815260cc602052604090205490565b6110b161207f565b6110bb600061221b565b565b6110c561207f565b6001600160a01b03811661110d5760405162461bcd60e51b815260206004820152600f60248201526e496e76616c6964206164647265737360881b60448201526064016107ef565b60fc80546001600160a01b0319166001600160a01b0392909216919091179055565b606060ca80546106d090612f45565b610ee733838361226d565b600081815261010060205260408120600201546111995760405162461bcd60e51b815260206004820152600e60248201526d139bd919481b9bdd08195e1a5cdd60921b60448201526064016107ef565b60008281526101056020526040902054600a116111e75760405162461bcd60e51b815260206004820152600c60248201526b139bd919481a5cc8199d5b1b60a21b60448201526064016107ef565b3360008181526101026020526040902054838114156112405760405162461bcd60e51b815260206004820152601560248201527421b0b73713ba1039ba30b5b2903cb7bab939b2b63360591b60448201526064016107ef565b60008181526101006020526040902060028101546112705760405162461bcd60e51b81526004016107ef90612f80565b60008581526101056020908152604080832080546001810182559084529183209091018490556003830187905560fd5490516301da99d960e51b815260048101859052602481018890526001600160a01b0390911690633b533b20906044016020604051808303816000875af11580156112ee573d6000803e3d6000fd5b505050506040513d601f19601f82011682018060405250810190611312919061306c565b905085837f0130450a68fc0dbac40ab2206a57f484144fbb75cdf86c3fdaa0c813d6bce5c78360405161134791815260200190565b60405180910390a350600195945050505050565b6113653383611ee5565b6113815760405162461bcd60e51b81526004016107ef9061301e565b610ecf8484848461233c565b336000818152610102602090815260408083205480845261010090925290912060028101546113ce5760405162461bcd60e51b81526004016107ef90612f80565b60006113d984610ab2565b60ff546040516301ff8f7360e41b8152600481018390529192506000916001600160a01b0390911690631ff8f73090602401600060405180830381865afa158015611428573d6000803e3d6000fd5b505050506040513d6000823e601f3d908101601f1916820160405261145091908101906130ca565b9050806060015160031461149d5760405162461bcd60e51b81526020600482015260146024820152734f4e4c595f535441524c4556454c5f544852454560601b60448201526064016107ef565b60fc5460608201516001600160a01b0390911690637ae6d7419084906114c4906001613196565b6040516001600160e01b031960e085901b16815260048101929092526024820152604401600060405180830381600087803b15801561150257600080fd5b505af1158015611516573d6000803e3d6000fd5b50505060048714905061155e5760405162461bcd60e51b815260206004820152601060248201526f4e4545445f464f55525f544f4b454e5360801b60448201526064016107ef565b61159b8288888080602002602001604051908101604052809392919081815260200183836020028082843760009201919091525061236f92505050565b6115e75760405162461bcd60e51b815260206004820152601860248201527f4e4545445f53414d455f544f4b454e5f50524f5045525459000000000000000060448201526064016107ef565b60005b8681101561169a5760ff546001600160a01b03166323b872dd3360018b8b8681811061161857611618612fdb565b6040516001600160e01b031960e088901b1681526001600160a01b03958616600482015294909316602485015250602090910201356044820152606401600060405180830381600087803b15801561166f57600080fd5b505af1158015611683573d6000803e3d6000fd5b505050508080611692906131ae565b9150506115ea565b5081856001600160a01b03167fd8b0734c4fb9ac9d66dc0c553b24ee5baee3215f9006d5188dc91460aa603af7836060015160016116d89190613196565b60405190815260200160405180910390a350505050505050565b60606116fd82611d7d565b60006117076124ca565b905060008151116117275760405180602001604052806000815250611752565b80611731846124d9565b6040516020016117429291906131c9565b6040516020818303038152906040525b9392505050565b60fc54604051635d528fc360e11b8152600481018590526001600160a01b039091169063baa51f8690602401602060405180830381865afa1580156117a2573d6000803e3d6000fd5b505050506040513d601f19601f820116820180604052508101906117c691906131f8565b6118085760405162461bcd60e51b815260206004820152601360248201527210d85c99081b5d5cdd081899481cdd185ad959606a1b60448201526064016107ef565b60003360fc5460405163a5cd761f60e01b8152600481018790529192506001600160a01b038084169291169063a5cd761f90602401602060405180830381865afa15801561185a573d6000803e3d6000fd5b505050506040513d601f19601f8201168201806040525081019061187e9190613215565b6001600160a01b0316146118c75760405162461bcd60e51b815260206004820152601060248201526f4e4654206973206e6f7420796f75727360801b60448201526064016107ef565b6118d081611023565b156119115760405162461bcd60e51b8152602060048201526011602482015270416c72656164792068617665206e6f646560781b60448201526064016107ef565b600084815261010360205260409020546001600160a01b03161561196c5760405162461bcd60e51b8152602060048201526012602482015271105b1c9958591e481c9959da5cdd195c995960721b60448201526064016107ef565b600082815261010060205260409020546001600160a01b0316156119c35760405162461bcd60e51b815260206004820152600e60248201526d1d1a58dad95d081a5cc81d5cd95960921b60448201526064016107ef565b60008481526101036020908152604080832080546001600160a01b0386166001600160a01b0319918216811790925586855261010090935292208054909116909117815560018101859055611a154290565b6002820155611a2482846120d9565b6001600160a01b0382811660008181526101026020526040808220879055610101805460018101825592527f109ea3cebb188b9c1b9fc5bb3920be60dfdc8699098dff92f3d80daaca74768990910186905560fd54905163a2f8de7760e01b8152600481019290925260248201869052604482018790529091169063a2f8de7790606401600060405180830381600087803b158015611ac257600080fd5b505af1158015611ad6573d6000803e3d6000fd5b505060408051878152602081018790528893506001600160a01b03861692507f970d66696fa342805d6fc5131876bf40c04110feed7e00001baee26b8f6109b89101610a81565b6001600160a01b03918216600090815260ce6020908152604080832093909416825291909152205460ff1690565b611b5361207f565b6001600160a01b038116611bb85760405162461bcd60e51b815260206004820152602660248201527f4f776e61626c653a206e6577206f776e657220697320746865207a65726f206160448201526564647265737360d01b60648201526084016107ef565b610f178161221b565b6101056020528160005260406000208181548110611bde57600080fd5b90600052602060002001600091509150505481565b600054600190610100900460ff16158015611c15575060005460ff8083169116105b611c785760405162461bcd60e51b815260206004820152602e60248201527f496e697469616c697a61626c653a20636f6e747261637420697320616c72656160448201526d191e481a5b9a5d1a585b1a5e995960921b60648201526084016107ef565b6000805461ffff191660ff808416919091176101001790915560fc80546001600160a01b038089166001600160a01b03199283161790925582548783169082161790925560fe805486831690841617905560fd805491851691909216179055604080518082018252601081526f424942204e4f4445204552432037323160801b602080830191909152825180840190935260078352664249424e6f646560c81b90830152611d25916125d7565b611d2d612608565b611d35612637565b6000805461ff001916905560405160ff821681527f7f26b83ff96e1f2b6a682f133852f6798a09c465da95921460cefb38474024989060200160405180910390a15050505050565b600081815260cb60205260409020546001600160a01b0316610f175760405162461bcd60e51b8152602060048201526018602482015277115490cdcc8c4e881a5b9d985b1a59081d1bdad95b88125160421b60448201526064016107ef565b600081815260cd6020526040902080546001600160a01b0319166001600160a01b0384169081179091558190611e1182610f35565b6001600160a01b03167f8c5be1e5ebec7d5bd14f71427d1e84f3dd0314c0f7b2291e5b200ac8c7c3b92560405160405180910390a45050565b6000611e5582610f35565b9050611e62600083611ddc565b6001600160a01b038116600090815260cc60205260408120805460019290611e8b908490612ff1565b9091555050600082815260cb602052604080822080546001600160a01b0319169055518391906001600160a01b038416907fddf252ad1be2c89b69c2b068fc378daa952ba7f163c4a11628f55a4df523b3ef908390a45050565b600080611ef183610f35565b9050806001600160a01b0316846001600160a01b03161480611f185750611f188185611b1d565b80611f3c5750836001600160a01b0316611f3184610753565b6001600160a01b0316145b949350505050565b6001600160a01b0380841660009081526101026020908152604080832083905592851680835283832085905584835261010090915291902080546001600160a01b0319169091179055611f98838383612666565b60fd54604051633a6ac7ad60e21b81526001600160a01b0385811660048301528481166024830152604482018490529091169063e9ab1eb490606401600060405180830381600087803b158015611fee57600080fd5b505af1158015612002573d6000803e3d6000fd5b50505050600061201184610ab2565b60fc546040516359de158160e11b8152600481018390526001600160a01b03868116602483015292935091169063b3bc2b0290604401600060405180830381600087803b15801561206157600080fd5b505af1158015612075573d6000803e3d6000fd5b5050505050505050565b6065546001600160a01b031633146110bb5760405162461bcd60e51b815260206004820181905260248201527f4f776e61626c653a2063616c6c6572206973206e6f7420746865206f776e657260448201526064016107ef565b6001600160a01b03821661212f5760405162461bcd60e51b815260206004820181905260248201527f4552433732313a206d696e7420746f20746865207a65726f206164647265737360448201526064016107ef565b600081815260cb60205260409020546001600160a01b0316156121945760405162461bcd60e51b815260206004820152601c60248201527f4552433732313a20746f6b656e20616c7265616479206d696e7465640000000060448201526064016107ef565b6001600160a01b038216600090815260cc602052604081208054600192906121bd908490613196565b9091555050600081815260cb602052604080822080546001600160a01b0319166001600160a01b03861690811790915590518392907fddf252ad1be2c89b69c2b068fc378daa952ba7f163c4a11628f55a4df523b3ef908290a45050565b606580546001600160a01b038381166001600160a01b0319831681179093556040519116919082907f8be0079c531659141344cd1fd0a4f28419497f9722a3daafe3b4186f6b6457e090600090a35050565b816001600160a01b0316836001600160a01b031614156122cf5760405162461bcd60e51b815260206004820152601960248201527f4552433732313a20617070726f766520746f2063616c6c65720000000000000060448201526064016107ef565b6001600160a01b03838116600081815260ce6020908152604080832094871680845294825291829020805460ff191686151590811790915591519182527f17307eab39ab6107e8899845ad3d59bd9653f200f220920489ca2b5937696c31910160405180910390a3505050565b612347848484611f44565b61235384848484612802565b610ecf5760405162461bcd60e51b81526004016107ef90613232565b6000815160001415612383575060006106bb565b60ff546040516301ff8f7360e41b8152600481018590526001600160a01b03909116906000908290631ff8f73090602401600060405180830381865afa1580156123d1573d6000803e3d6000fd5b505050506040513d6000823e601f3d908101601f191682016040526123f991908101906130ca565b905060005b84518110156124be5761249c82846001600160a01b0316631ff8f73088858151811061242c5761242c612fdb565b60200260200101516040518263ffffffff1660e01b815260040161245291815260200190565b600060405180830381865afa15801561246f573d6000803e3d6000fd5b505050506040513d6000823e601f3d908101601f1916820160405261249791908101906130ca565b612900565b6124ac57600093505050506106bb565b806124b6816131ae565b9150506123fe565b50600195945050505050565b606060fb80546106d090612f45565b6060816124fd5750506040805180820190915260018152600360fc1b602082015290565b8160005b81156125275780612511816131ae565b91506125209050600a8361329a565b9150612501565b60008167ffffffffffffffff81111561254257612542612c12565b6040519080825280601f01601f19166020018201604052801561256c576020820181803683370190505b5090505b8415611f3c57612581600183612ff1565b915061258e600a866132ae565b612599906030613196565b60f81b8183815181106125ae576125ae612fdb565b60200101906001600160f81b031916908160001a9053506125d0600a8661329a565b9450612570565b600054610100900460ff166125fe5760405162461bcd60e51b81526004016107ef906132c2565b610ee78282612972565b600054610100900460ff1661262f5760405162461bcd60e51b81526004016107ef906132c2565b6110bb6129c0565b600054610100900460ff1661265e5760405162461bcd60e51b81526004016107ef906132c2565b6110bb6129f3565b826001600160a01b031661267982610f35565b6001600160a01b0316146126dd5760405162461bcd60e51b815260206004820152602560248201527f4552433732313a207472616e736665722066726f6d20696e636f72726563742060448201526437bbb732b960d91b60648201526084016107ef565b6001600160a01b03821661273f5760405162461bcd60e51b8152602060048201526024808201527f4552433732313a207472616e7366657220746f20746865207a65726f206164646044820152637265737360e01b60648201526084016107ef565b61274a600082611ddc565b6001600160a01b038316600090815260cc60205260408120805460019290612773908490612ff1565b90915550506001600160a01b038216600090815260cc602052604081208054600192906127a1908490613196565b9091555050600081815260cb602052604080822080546001600160a01b0319166001600160a01b0386811691821790925591518493918716917fddf252ad1be2c89b69c2b068fc378daa952ba7f163c4a11628f55a4df523b3ef91a4505050565b60006001600160a01b0384163b156128f557604051630a85bd0160e11b81526001600160a01b0385169063150b7a029061284690339089908890889060040161330d565b6020604051808303816000875af1925050508015612881575060408051601f3d908101601f1916820190925261287e9181019061334a565b60015b6128db573d8080156128af576040519150601f19603f3d011682016040523d82523d6000602084013e6128b4565b606091505b5080516128d35760405162461bcd60e51b81526004016107ef90613232565b805181602001fd5b6001600160e01b031916630a85bd0160e11b149050611f3c565b506001949350505050565b600081600001518051906020012083600001518051906020012014801561293c5750816020015180519060200120836020015180519060200120145b801561295d5750816040015180519060200120836040015180519060200120145b80156117525750506080908101519101511490565b600054610100900460ff166129995760405162461bcd60e51b81526004016107ef906132c2565b81516129ac9060c9906020850190612a23565b5080516108909060ca906020840190612a23565b600054610100900460ff166129e75760405162461bcd60e51b81526004016107ef906132c2565b6033805460ff19169055565b600054610100900460ff16612a1a5760405162461bcd60e51b81526004016107ef906132c2565b6110bb3361221b565b828054612a2f90612f45565b90600052602060002090601f016020900481019282612a515760008555612a97565b82601f10612a6a57805160ff1916838001178555612a97565b82800160010185558215612a97579182015b82811115612a97578251825591602001919060010190612a7c565b50612aa3929150612aa7565b5090565b5b80821115612aa35760008155600101612aa8565b6001600160e01b031981168114610f1757600080fd5b600060208284031215612ae457600080fd5b813561175281612abc565b60005b83811015612b0a578181015183820152602001612af2565b83811115610ecf5750506000910152565b60008151808452612b33816020860160208601612aef565b601f01601f19169290920160200192915050565b6020815260006117526020830184612b1b565b600060208284031215612b6c57600080fd5b5035919050565b6001600160a01b0381168114610f1757600080fd5b60008060408385031215612b9b57600080fd5b8235612ba681612b73565b946020939093013593505050565b600060208284031215612bc657600080fd5b813561175281612b73565b600080600060608486031215612be657600080fd5b8335612bf181612b73565b92506020840135612c0181612b73565b929592945050506040919091013590565b634e487b7160e01b600052604160045260246000fd5b60405160a0810167ffffffffffffffff81118282101715612c4b57612c4b612c12565b60405290565b604051601f8201601f1916810167ffffffffffffffff81118282101715612c7a57612c7a612c12565b604052919050565b600067ffffffffffffffff821115612c9c57612c9c612c12565b50601f01601f191660200190565b6000612cbd612cb884612c82565b612c51565b9050828152838383011115612cd157600080fd5b828260208301376000602084830101529392505050565b600060208284031215612cfa57600080fd5b813567ffffffffffffffff811115612d1157600080fd5b8201601f81018413612d2257600080fd5b611f3c84823560208401612caa565b8015158114610f1757600080fd5b60008060408385031215612d5257600080fd5b8235612d5d81612b73565b91506020830135612d6d81612d31565b809150509250929050565b60008060008060808587031215612d8e57600080fd5b8435612d9981612b73565b93506020850135612da981612b73565b925060408501359150606085013567ffffffffffffffff811115612dcc57600080fd5b8501601f81018713612ddd57600080fd5b612dec87823560208401612caa565b91505092959194509250565b60008060208385031215612e0b57600080fd5b823567ffffffffffffffff80821115612e2357600080fd5b818501915085601f830112612e3757600080fd5b813581811115612e4657600080fd5b8660208260051b8501011115612e5b57600080fd5b60209290920196919550909350505050565b600080600060608486031215612e8257600080fd5b505081359360208301359350604090920135919050565b60008060408385031215612eac57600080fd5b8235612eb781612b73565b91506020830135612d6d81612b73565b60008060408385031215612eda57600080fd5b50508035926020909101359150565b60008060008060808587031215612eff57600080fd5b8435612f0a81612b73565b93506020850135612f1a81612b73565b92506040850135612f2a81612b73565b91506060850135612f3a81612b73565b939692955090935050565b600181811c90821680612f5957607f821691505b60208210811415612f7a57634e487b7160e01b600052602260045260246000fd5b50919050565b6020808252601490820152732cb7ba903237b713ba103430bb32903737b2329760611b604082015260600190565b634e487b7160e01b600052601160045260246000fd5b600081612fd357612fd3612fae565b506000190190565b634e487b7160e01b600052603260045260246000fd5b60008282101561300357613003612fae565b500390565b634e487b7160e01b600052603160045260246000fd5b6020808252602e908201527f4552433732313a2063616c6c6572206973206e6f7420746f6b656e206f776e6560408201526d1c881b9bdc88185c1c1c9bdd995960921b606082015260800190565b60006020828403121561307e57600080fd5b5051919050565b600082601f83011261309657600080fd5b81516130a4612cb882612c82565b8181528460208386010111156130b957600080fd5b611f3c826020830160208701612aef565b6000602082840312156130dc57600080fd5b815167ffffffffffffffff808211156130f457600080fd5b9083019060a0828603121561310857600080fd5b613110612c28565b82518281111561311f57600080fd5b61312b87828601613085565b82525060208301518281111561314057600080fd5b61314c87828601613085565b60208301525060408301518281111561316457600080fd5b61317087828601613085565b604083015250606083015160608201526080830151608082015280935050505092915050565b600082198211156131a9576131a9612fae565b500190565b60006000198214156131c2576131c2612fae565b5060010190565b600083516131db818460208801612aef565b8351908301906131ef818360208801612aef565b01949350505050565b60006020828403121561320a57600080fd5b815161175281612d31565b60006020828403121561322757600080fd5b815161175281612b73565b60208082526032908201527f4552433732313a207472616e7366657220746f206e6f6e20455243373231526560408201527131b2b4bb32b91034b6b83632b6b2b73a32b960711b606082015260800190565b634e487b7160e01b600052601260045260246000fd5b6000826132a9576132a9613284565b500490565b6000826132bd576132bd613284565b500690565b6020808252602b908201527f496e697469616c697a61626c653a20636f6e7472616374206973206e6f74206960408201526a6e697469616c697a696e6760a81b606082015260800190565b6001600160a01b038581168252841660208201526040810183905260806060820181905260009061334090830184612b1b565b9695505050505050565b60006020828403121561335c57600080fd5b815161175281612abc56fea26469706673582212206def4ba1ad7e483889440ed92a402c624e52a19719426c63f9ccc051d2c133fa64736f6c634300080b0033",
  "linkReferences": {},
  "deployedLinkReferences": {}
}