{
  "_format": "hh-sol-artifact-1",
  "contractName": "BIBNode",
  "sourceName": "contracts/community/BIBNode.sol",
  "abi": [
    {
      "anonymous": false,
      "inputs": [
        {
          "indexed": true,
          "internalType": "address",
          "name": "owner",
          "type": "address"
        },
        {
          "indexed": true,
          "internalType": "address",
          "name": "approved",
          "type": "address"
        },
        {
          "indexed": true,
          "internalType": "uint256",
          "name": "tokenId",
          "type": "uint256"
        }
      ],
      "name": "Approval",
      "type": "event"
    },
    {
      "anonymous": false,
      "inputs": [
        {
          "indexed": true,
          "internalType": "address",
          "name": "owner",
          "type": "address"
        },
        {
          "indexed": true,
          "internalType": "address",
          "name": "operator",
          "type": "address"
        },
        {
          "indexed": false,
          "internalType": "bool",
          "name": "approved",
          "type": "bool"
        }
      ],
      "name": "ApprovalForAll",
      "type": "event"
    },
    {
      "anonymous": false,
      "inputs": [
        {
          "indexed": true,
          "internalType": "address",
          "name": "user",
          "type": "address"
        },
        {
          "indexed": true,
          "internalType": "uint256",
          "name": "cardNFTId",
          "type": "uint256"
        },
        {
          "indexed": false,
          "internalType": "uint256",
          "name": "bibAmount",
          "type": "uint256"
        },
        {
          "indexed": false,
          "internalType": "uint256",
          "name": "ticketId",
          "type": "uint256"
        }
      ],
      "name": "CreateNode",
      "type": "event"
    },
    {
      "anonymous": false,
      "inputs": [
        {
          "indexed": true,
          "internalType": "address",
          "name": "user",
          "type": "address"
        },
        {
          "indexed": true,
          "internalType": "uint256",
          "name": "cardNFTId",
          "type": "uint256"
        },
        {
          "indexed": false,
          "internalType": "uint256",
          "name": "ticketId",
          "type": "uint256"
        }
      ],
      "name": "DisbandNode",
      "type": "event"
    },
    {
      "anonymous": false,
      "inputs": [
        {
          "indexed": false,
          "internalType": "uint8",
          "name": "version",
          "type": "uint8"
        }
      ],
      "name": "Initialized",
      "type": "event"
    },
    {
      "anonymous": false,
      "inputs": [
        {
          "indexed": true,
          "internalType": "uint256",
          "name": "fromTicketId",
          "type": "uint256"
        },
        {
          "indexed": true,
          "internalType": "uint256",
          "name": "ticketId",
          "type": "uint256"
        },
        {
          "indexed": false,
          "internalType": "uint256",
          "name": "bibAmount",
          "type": "uint256"
        }
      ],
      "name": "NodeStaking",
      "type": "event"
    },
    {
      "anonymous": false,
      "inputs": [
        {
          "indexed": true,
          "internalType": "uint256",
          "name": "fromTicketId",
          "type": "uint256"
        },
        {
          "indexed": true,
          "internalType": "uint256",
          "name": "ticketId",
          "type": "uint256"
        },
        {
          "indexed": false,
          "internalType": "uint256",
          "name": "bibAmount",
          "type": "uint256"
        }
      ],
      "name": "NodeUnStaking",
      "type": "event"
    },
    {
      "anonymous": false,
      "inputs": [
        {
          "indexed": true,
          "internalType": "address",
          "name": "previousOwner",
          "type": "address"
        },
        {
          "indexed": true,
          "internalType": "address",
          "name": "newOwner",
          "type": "address"
        }
      ],
      "name": "OwnershipTransferred",
      "type": "event"
    },
    {
      "anonymous": false,
      "inputs": [
        {
          "indexed": false,
          "internalType": "address",
          "name": "account",
          "type": "address"
        }
      ],
      "name": "Paused",
      "type": "event"
    },
    {
      "anonymous": false,
      "inputs": [
        {
          "indexed": true,
          "internalType": "address",
          "name": "from",
          "type": "address"
        },
        {
          "indexed": true,
          "internalType": "address",
          "name": "to",
          "type": "address"
        },
        {
          "indexed": true,
          "internalType": "uint256",
          "name": "tokenId",
          "type": "uint256"
        }
      ],
      "name": "Transfer",
      "type": "event"
    },
    {
      "anonymous": false,
      "inputs": [
        {
          "indexed": false,
          "internalType": "address",
          "name": "account",
          "type": "address"
        }
      ],
      "name": "Unpaused",
      "type": "event"
    },
    {
      "anonymous": false,
      "inputs": [
        {
          "indexed": false,
          "internalType": "uint256",
          "name": "maxCount",
          "type": "uint256"
        }
      ],
      "name": "UpdateMaxSubNodeCount",
      "type": "event"
    },
    {
      "anonymous": false,
      "inputs": [
        {
          "indexed": true,
          "internalType": "address",
          "name": "user",
          "type": "address"
        },
        {
          "indexed": true,
          "internalType": "uint256",
          "name": "cardNFTId",
          "type": "uint256"
        },
        {
          "indexed": false,
          "internalType": "uint256",
          "name": "starLevel",
          "type": "uint256"
        }
      ],
      "name": "UpgradeNode",
      "type": "event"
    },
    {
      "inputs": [],
      "name": "BIBStaking",
      "outputs": [
        {
          "internalType": "contract IBIBStaking",
          "name": "",
          "type": "address"
        }
      ],
      "stateMutability": "view",
      "type": "function"
    },
    {
      "inputs": [],
      "name": "BIBToken",
      "outputs": [
        {
          "internalType": "contract IERC20Upgradeable",
          "name": "",
          "type": "address"
        }
      ],
      "stateMutability": "view",
      "type": "function"
    },
    {
      "inputs": [],
      "name": "BLACK_HOLE",
      "outputs": [
        {
          "internalType": "address",
          "name": "",
          "type": "address"
        }
      ],
      "stateMutability": "view",
      "type": "function"
    },
    {
      "inputs": [
        {
          "internalType": "address",
          "name": "to",
          "type": "address"
        },
        {
          "internalType": "uint256",
          "name": "tokenId",
          "type": "uint256"
        }
      ],
      "name": "approve",
      "outputs": [],
      "stateMutability": "nonpayable",
      "type": "function"
    },
    {
      "inputs": [
        {
          "internalType": "address",
          "name": "owner",
          "type": "address"
        }
      ],
      "name": "balanceOf",
      "outputs": [
        {
          "internalType": "uint256",
          "name": "",
          "type": "uint256"
        }
      ],
      "stateMutability": "view",
      "type": "function"
    },
    {
      "inputs": [],
      "name": "baseURI",
      "outputs": [
        {
          "internalType": "string",
          "name": "",
          "type": "string"
        }
      ],
      "stateMutability": "view",
      "type": "function"
    },
    {
      "inputs": [
        {
          "internalType": "uint256",
          "name": "tokenId",
          "type": "uint256"
        }
      ],
      "name": "burn",
      "outputs": [],
      "stateMutability": "nonpayable",
      "type": "function"
    },
    {
      "inputs": [
        {
          "internalType": "uint256",
          "name": "",
          "type": "uint256"
        }
      ],
      "name": "cardNFTOwners",
      "outputs": [
        {
          "internalType": "address",
          "name": "",
          "type": "address"
        }
      ],
      "stateMutability": "view",
      "type": "function"
    },
    {
      "inputs": [],
      "name": "cardNFTStake",
      "outputs": [
        {
          "internalType": "contract IStakedSoccerStarNftV2",
          "name": "",
          "type": "address"
        }
      ],
      "stateMutability": "view",
      "type": "function"
    },
    {
      "inputs": [
        {
          "internalType": "uint256",
          "name": "_ticket",
          "type": "uint256"
        }
      ],
      "name": "changeStakeNode",
      "outputs": [],
      "stateMutability": "nonpayable",
      "type": "function"
    },
    {
      "inputs": [
        {
          "internalType": "uint256",
          "name": "_cardNFTId",
          "type": "uint256"
        },
        {
          "internalType": "uint256",
          "name": "_bibAmount",
          "type": "uint256"
        },
        {
          "internalType": "uint256",
          "name": "ticket",
          "type": "uint256"
        }
      ],
      "name": "createNode",
      "outputs": [],
      "stateMutability": "nonpayable",
      "type": "function"
    },
    {
      "inputs": [
        {
          "internalType": "uint256",
          "name": "_ticket",
          "type": "uint256"
        }
      ],
      "name": "deleteSubNode",
      "outputs": [
        {
          "internalType": "bool",
          "name": "",
          "type": "bool"
        }
      ],
      "stateMutability": "nonpayable",
      "type": "function"
    },
    {
      "inputs": [],
      "name": "disbandNode",
      "outputs": [],
      "stateMutability": "nonpayable",
      "type": "function"
    },
    {
      "inputs": [
        {
          "internalType": "uint256",
          "name": "tokenId",
          "type": "uint256"
        }
      ],
      "name": "getApproved",
      "outputs": [
        {
          "internalType": "address",
          "name": "",
          "type": "address"
        }
      ],
      "stateMutability": "view",
      "type": "function"
    },
    {
      "inputs": [
        {
          "internalType": "address",
          "name": "user",
          "type": "address"
        }
      ],
      "name": "getCardNFTByAddress",
      "outputs": [
        {
          "internalType": "uint256",
          "name": "",
          "type": "uint256"
        }
      ],
      "stateMutability": "view",
      "type": "function"
    },
    {
      "inputs": [
        {
          "internalType": "uint256",
          "name": "tokenId",
          "type": "uint256"
        }
      ],
      "name": "getCardProperty",
      "outputs": [
        {
          "components": [
            {
              "internalType": "string",
              "name": "name",
              "type": "string"
            },
            {
              "internalType": "string",
              "name": "country",
              "type": "string"
            },
            {
              "internalType": "string",
              "name": "position",
              "type": "string"
            },
            {
              "internalType": "uint256",
              "name": "starLevel",
              "type": "uint256"
            },
            {
              "internalType": "uint256",
              "name": "gradient",
              "type": "uint256"
            }
          ],
          "internalType": "struct ISoccerStarNft.SoccerStar",
          "name": "",
          "type": "tuple"
        }
      ],
      "stateMutability": "view",
      "type": "function"
    },
    {
      "inputs": [
        {
          "internalType": "address",
          "name": "_cardNFTStake",
          "type": "address"
        },
        {
          "internalType": "address",
          "name": "_soccerStarNft",
          "type": "address"
        },
        {
          "internalType": "address",
          "name": "_bibToken",
          "type": "address"
        },
        {
          "internalType": "address",
          "name": "_bibStaking",
          "type": "address"
        },
        {
          "internalType": "address",
          "name": "_soccerStartNftMarket",
          "type": "address"
        }
      ],
      "name": "initialize",
      "outputs": [],
      "stateMutability": "nonpayable",
      "type": "function"
    },
    {
      "inputs": [
        {
          "internalType": "address",
          "name": "owner",
          "type": "address"
        },
        {
          "internalType": "address",
          "name": "operator",
          "type": "address"
        }
      ],
      "name": "isApprovedForAll",
      "outputs": [
        {
          "internalType": "bool",
          "name": "",
          "type": "bool"
        }
      ],
      "stateMutability": "view",
      "type": "function"
    },
    {
      "inputs": [
        {
          "internalType": "uint256",
          "name": "tokenId",
          "type": "uint256"
        }
      ],
      "name": "isStakedAsNode",
      "outputs": [
        {
          "internalType": "bool",
          "name": "",
          "type": "bool"
        }
      ],
      "stateMutability": "view",
      "type": "function"
    },
    {
      "inputs": [],
      "name": "maxSubNodeCount",
      "outputs": [
        {
          "internalType": "uint256",
          "name": "",
          "type": "uint256"
        }
      ],
      "stateMutability": "view",
      "type": "function"
    },
    {
      "inputs": [
        {
          "internalType": "address",
          "name": "to",
          "type": "address"
        },
        {
          "internalType": "uint256",
          "name": "tokenId",
          "type": "uint256"
        }
      ],
      "name": "mint",
      "outputs": [],
      "stateMutability": "nonpayable",
      "type": "function"
    },
    {
      "inputs": [],
      "name": "name",
      "outputs": [
        {
          "internalType": "string",
          "name": "",
          "type": "string"
        }
      ],
      "stateMutability": "view",
      "type": "function"
    },
    {
      "inputs": [
        {
          "internalType": "uint256",
          "name": "",
          "type": "uint256"
        }
      ],
      "name": "nodeList",
      "outputs": [
        {
          "internalType": "uint256",
          "name": "",
          "type": "uint256"
        }
      ],
      "stateMutability": "view",
      "type": "function"
    },
    {
      "inputs": [
        {
          "internalType": "uint256",
          "name": "",
          "type": "uint256"
        }
      ],
      "name": "nodeMap",
      "outputs": [
        {
          "internalType": "address",
          "name": "ownerAddress",
          "type": "address"
        },
        {
          "internalType": "uint256",
          "name": "cardNftId",
          "type": "uint256"
        },
        {
          "internalType": "uint256",
          "name": "createTime",
          "type": "uint256"
        },
        {
          "internalType": "uint256",
          "name": "upNode",
          "type": "uint256"
        }
      ],
      "stateMutability": "view",
      "type": "function"
    },
    {
      "inputs": [],
      "name": "owner",
      "outputs": [
        {
          "internalType": "address",
          "name": "",
          "type": "address"
        }
      ],
      "stateMutability": "view",
      "type": "function"
    },
    {
      "inputs": [
        {
          "internalType": "uint256",
          "name": "tokenId",
          "type": "uint256"
        }
      ],
      "name": "ownerOf",
      "outputs": [
        {
          "internalType": "address",
          "name": "",
          "type": "address"
        }
      ],
      "stateMutability": "view",
      "type": "function"
    },
    {
      "inputs": [],
      "name": "paused",
      "outputs": [
        {
          "internalType": "bool",
          "name": "",
          "type": "bool"
        }
      ],
      "stateMutability": "view",
      "type": "function"
    },
    {
      "inputs": [],
      "name": "renounceOwnership",
      "outputs": [],
      "stateMutability": "nonpayable",
      "type": "function"
    },
    {
      "inputs": [
        {
          "internalType": "address",
          "name": "from",
          "type": "address"
        },
        {
          "internalType": "address",
          "name": "to",
          "type": "address"
        },
        {
          "internalType": "uint256",
          "name": "tokenId",
          "type": "uint256"
        }
      ],
      "name": "safeTransferFrom",
      "outputs": [],
      "stateMutability": "nonpayable",
      "type": "function"
    },
    {
      "inputs": [
        {
          "internalType": "address",
          "name": "from",
          "type": "address"
        },
        {
          "internalType": "address",
          "name": "to",
          "type": "address"
        },
        {
          "internalType": "uint256",
          "name": "tokenId",
          "type": "uint256"
        },
        {
          "internalType": "bytes",
          "name": "data",
          "type": "bytes"
        }
      ],
      "name": "safeTransferFrom",
      "outputs": [],
      "stateMutability": "nonpayable",
      "type": "function"
    },
    {
      "inputs": [
        {
          "internalType": "address",
          "name": "operator",
          "type": "address"
        },
        {
          "internalType": "bool",
          "name": "approved",
          "type": "bool"
        }
      ],
      "name": "setApprovalForAll",
      "outputs": [],
      "stateMutability": "nonpayable",
      "type": "function"
    },
    {
      "inputs": [
        {
          "internalType": "string",
          "name": "uri",
          "type": "string"
        }
      ],
      "name": "setBaseURI",
      "outputs": [],
      "stateMutability": "nonpayable",
      "type": "function"
    },
    {
      "inputs": [
        {
          "internalType": "address",
          "name": "_cardNft",
          "type": "address"
        }
      ],
      "name": "setCardNft",
      "outputs": [],
      "stateMutability": "nonpayable",
      "type": "function"
    },
    {
      "inputs": [
        {
          "internalType": "address",
          "name": "_cardNftStake",
          "type": "address"
        }
      ],
      "name": "setCardNftStake",
      "outputs": [],
      "stateMutability": "nonpayable",
      "type": "function"
    },
    {
      "inputs": [
        {
          "internalType": "uint256",
          "name": "_maxSubNodeCount",
          "type": "uint256"
        }
      ],
      "name": "setMaxSubNodeCount",
      "outputs": [],
      "stateMutability": "nonpayable",
      "type": "function"
    },
    {
      "inputs": [],
      "name": "soccerStarNft",
      "outputs": [
        {
          "internalType": "contract ERC721Upgradeable",
          "name": "",
          "type": "address"
        }
      ],
      "stateMutability": "view",
      "type": "function"
    },
    {
      "inputs": [],
      "name": "soccerStartNftMarket",
      "outputs": [
        {
          "internalType": "address",
          "name": "",
          "type": "address"
        }
      ],
      "stateMutability": "view",
      "type": "function"
    },
    {
      "inputs": [
        {
          "internalType": "uint256",
          "name": "_ticket",
          "type": "uint256"
        }
      ],
      "name": "stakeNode",
      "outputs": [
        {
          "internalType": "bool",
          "name": "",
          "type": "bool"
        }
      ],
      "stateMutability": "nonpayable",
      "type": "function"
    },
    {
      "inputs": [
        {
          "internalType": "uint256",
          "name": "",
          "type": "uint256"
        },
        {
          "internalType": "uint256",
          "name": "",
          "type": "uint256"
        }
      ],
      "name": "subNodes",
      "outputs": [
        {
          "internalType": "uint256",
          "name": "",
          "type": "uint256"
        }
      ],
      "stateMutability": "view",
      "type": "function"
    },
    {
      "inputs": [
        {
          "internalType": "bytes4",
          "name": "interfaceId",
          "type": "bytes4"
        }
      ],
      "name": "supportsInterface",
      "outputs": [
        {
          "internalType": "bool",
          "name": "",
          "type": "bool"
        }
      ],
      "stateMutability": "view",
      "type": "function"
    },
    {
      "inputs": [],
      "name": "symbol",
      "outputs": [
        {
          "internalType": "string",
          "name": "",
          "type": "string"
        }
      ],
      "stateMutability": "view",
      "type": "function"
    },
    {
      "inputs": [
        {
          "internalType": "address",
          "name": "",
          "type": "address"
        }
      ],
      "name": "ticketMap",
      "outputs": [
        {
          "internalType": "uint256",
          "name": "",
          "type": "uint256"
        }
      ],
      "stateMutability": "view",
      "type": "function"
    },
    {
      "inputs": [
        {
          "internalType": "uint256",
          "name": "",
          "type": "uint256"
        }
      ],
      "name": "ticketProperty",
      "outputs": [
        {
          "internalType": "string",
          "name": "name",
          "type": "string"
        },
        {
          "internalType": "string",
          "name": "country",
          "type": "string"
        },
        {
          "internalType": "string",
          "name": "position",
          "type": "string"
        },
        {
          "internalType": "uint256",
          "name": "starLevel",
          "type": "uint256"
        },
        {
          "internalType": "uint256",
          "name": "gradient",
          "type": "uint256"
        }
      ],
      "stateMutability": "view",
      "type": "function"
    },
    {
      "inputs": [
        {
          "internalType": "uint256",
          "name": "_nftId",
          "type": "uint256"
        }
      ],
      "name": "tokenURI",
      "outputs": [
        {
          "internalType": "string",
          "name": "",
          "type": "string"
        }
      ],
      "stateMutability": "view",
      "type": "function"
    },
    {
      "inputs": [
        {
          "internalType": "address",
          "name": "from",
          "type": "address"
        },
        {
          "internalType": "address",
          "name": "to",
          "type": "address"
        },
        {
          "internalType": "uint256",
          "name": "tokenId",
          "type": "uint256"
        }
      ],
      "name": "transferFrom",
      "outputs": [],
      "stateMutability": "nonpayable",
      "type": "function"
    },
    {
      "inputs": [
        {
          "internalType": "address",
          "name": "newOwner",
          "type": "address"
        }
      ],
      "name": "transferOwnership",
      "outputs": [],
      "stateMutability": "nonpayable",
      "type": "function"
    },
    {
      "inputs": [
        {
          "internalType": "uint256",
          "name": "_ticket",
          "type": "uint256"
        }
      ],
      "name": "unStakeNode",
      "outputs": [
        {
          "internalType": "bool",
          "name": "",
          "type": "bool"
        }
      ],
      "stateMutability": "nonpayable",
      "type": "function"
    },
    {
      "inputs": [
        {
          "internalType": "uint256[]",
          "name": "_cardNFTIds",
          "type": "uint256[]"
        }
      ],
      "name": "upgradeNode",
      "outputs": [],
      "stateMutability": "nonpayable",
      "type": "function"
    }
  ],
  "bytecode": "0x608060405234801561001057600080fd5b50613e5c806100206000396000f3fe608060405234801561001057600080fd5b506004361061029f5760003560e01c806355f804b31161016757806396ae99b4116100ce578063c87b56dd11610087578063c87b56dd1461065a578063d1577c7c1461066d578063d810fe6b14610680578063e985e9c5146106a4578063f2fde38b146106b7578063f6a9010b146106ca57600080fd5b806396ae99b4146105c3578063a22cb465146105e4578063a4ab0b2e146105f7578063b7d5f2e41461060a578063b88d4fde14610634578063be7834331461064757600080fd5b8063715018a611610120578063715018a61461055057806378f64c8c146105585780638908d6761461056b578063893c8cc11461057e5780638da5cb5b146105aa57806395d89b41146105bb57600080fd5b806355f804b3146104f057806357299d29146105035780635c975abb146105175780636352211e146105225780636c0360eb1461053557806370a082311461053d57600080fd5b80632269d36d1161020b578063356ff5cd116101c4578063356ff5cd1461043257806340c10f191461049c57806342842e0e146104af57806342966c68146104c25780634d351f65146104d557806355eda4e8146104e857600080fd5b80632269d36d146103c057806323b872dd146103d35780632aa64771146103e65780632f973512146103f95780633328bd4e1461040c578063342874ec1461041f57600080fd5b80630c98a3851161025d5780630c98a3851461034c5780631459457a1461035f57806314cf76c81461037257806316833cca146103855780631ff8f7301461038d578063208f2a31146103ad57600080fd5b80627c3d54146102a457806301d38091146102b957806301ffc9a7146102d657806306fdde03146102f9578063081812fc1461030e578063095ea7b314610339575b600080fd5b6102b76102b2366004613467565b6106dd565b005b6102c36101075481565b6040519081526020015b60405180910390f35b6102e96102e4366004613496565b610721565b60405190151581526020016102cd565b610301610773565b6040516102cd919061350b565b61032161031c366004613467565b610805565b6040516001600160a01b0390911681526020016102cd565b6102b7610347366004613533565b61082c565b60ff54610321906001600160a01b031681565b6102b761036d36600461355f565b610947565b60fe54610321906001600160a01b031681565b6102b7610b18565b6103a061039b366004613467565b610d13565b6040516102cd91906135d0565b6102c36103bb366004613467565b610f2f565b6102c36103ce366004613649565b610f51565b6102b76103e1366004613666565b610f7e565b6102e96103f4366004613467565b610faf565b6102b7610407366004613649565b611285565b6102b761041a366004613467565b6112f7565b6102e961042d366004613467565b611353565b610472610440366004613467565b6101016020526000908152604090208054600182015460028301546003909301546001600160a01b0390921692909184565b604080516001600160a01b03909516855260208501939093529183015260608201526080016102cd565b6102b76104aa366004613533565b6115e1565b6102b76104bd366004613666565b6115f7565b6102b76104d0366004613467565b611612565b60fc54610321906001600160a01b031681565b610321600181565b6102b76104fe36600461377d565b611626565b61010054610321906001600160a01b031681565b60335460ff166102e9565b610321610530366004613467565b611641565b6103016116a1565b6102c361054b366004613649565b61172f565b6102b76117b5565b60fd54610321906001600160a01b031681565b6102b7610579366004613649565b6117c9565b6102e961058c366004613467565b600090815261010460205260409020546001600160a01b0316151590565b6065546001600160a01b0316610321565b61030161183b565b6102c36105d1366004613649565b6101036020526000908152604090205481565b6102b76105f23660046137d4565b61184a565b6102e9610605366004613467565b611855565b610321610618366004613467565b610104602052600090815260409020546001600160a01b031681565b6102b761064236600461380d565b611a48565b6102b761065536600461388d565b611a7a565b610301610668366004613467565b611e01565b6102b761067b366004613902565b611ec4565b61069361068e366004613467565b61236c565b6040516102cd95949392919061392e565b6102e96106b236600461397c565b612533565b6102b76106c5366004613649565b612561565b6102c36106d83660046139aa565b6125d7565b6106e5612609565b6101078190556040518181527f12290ca071004812e79b71614c6f6473592118262e3e527d82585aa4d3aa1d389060200160405180910390a150565b60006001600160e01b031982166380ac58cd60e01b148061075257506001600160e01b03198216635b5e139f60e01b145b8061076d57506301ffc9a760e01b6001600160e01b03198316145b92915050565b606060c98054610782906139cc565b80601f01602080910402602001604051908101604052809291908181526020018280546107ae906139cc565b80156107fb5780601f106107d0576101008083540402835291602001916107fb565b820191906000526020600020905b8154815290600101906020018083116107de57829003601f168201915b5050505050905090565b600061081082612663565b50600090815260cd60205260409020546001600160a01b031690565b600061083782611641565b9050806001600160a01b0316836001600160a01b031614156108aa5760405162461bcd60e51b815260206004820152602160248201527f4552433732313a20617070726f76616c20746f2063757272656e74206f776e656044820152603960f91b60648201526084015b60405180910390fd5b336001600160a01b03821614806108c657506108c68133612533565b6109385760405162461bcd60e51b815260206004820152603e60248201527f4552433732313a20617070726f76652063616c6c6572206973206e6f7420746f60448201527f6b656e206f776e6572206e6f7220617070726f76656420666f7220616c6c000060648201526084016108a1565b61094283836126c2565b505050565b600054600190610100900460ff16158015610969575060005460ff8083169116105b6109cc5760405162461bcd60e51b815260206004820152602e60248201527f496e697469616c697a61626c653a20636f6e747261637420697320616c72656160448201526d191e481a5b9a5d1a585b1a5e995960921b60648201526084016108a1565b6000805461ffff191660ff8084169190911761010090811790925560fc80546001600160a01b03808b166001600160a01b03199283161790925582548983169082161790925560fe805488831690841617905560fd805487831690841617905582549085169116179055604080518082018252601081526f424942204e4f4445204552432037323160801b602080830191909152825180840190935260078352664249424e6f646560c81b90830152610a8491612730565b610a8c612761565b610a94612790565b600a6101078190556040519081527f12290ca071004812e79b71614c6f6473592118262e3e527d82585aa4d3aa1d389060200160405180910390a16000805461ff001916905560405160ff821681527f7f26b83ff96e1f2b6a682f133852f6798a09c465da95921460cefb38474024989060200160405180910390a1505050505050565b33600081815261010360209081526040808320548084526101019092529091206002810154610b595760405162461bcd60e51b81526004016108a190613a07565b6000610b6484610f51565b9050610b6f836127bf565b6001600160a01b03848116600081815261010360205260408082209190915560fd5490516336b14edf60e11b815260048101929092526024820186905290911690636d629dbe90604401600060405180830381600087803b158015610bd357600080fd5b505af1158015610be7573d6000803e3d6000fd5b5050610102549150505b8015610ca85780610c0181613a4b565b915050836101028281548110610c1957610c19613a62565b90600052602060002001541415610ca3576101028054610c3b90600190613a78565b81548110610c4b57610c4b613a62565b90600052602060002001546101028281548110610c6a57610c6a613a62565b600091825260209091200155610102805480610c8857610c88613a8f565b60019003818190600052602060002001600090559055610ca8565b610bf1565b600082815261010460205260409081902080546001600160a01b03191690555182906001600160a01b038716907fe89522f30cc3ab418b3126979d7793b955bf00d510a3d265b7065d62a423061790610d049088815260200190565b60405180910390a35050505050565b610d456040518060a0016040528060608152602001606081526020016060815260200160008152602001600081525090565b6000828152610105602052604090819020815160a08101909252805482908290610d6e906139cc565b80601f0160208091040260200160405190810160405280929190818152602001828054610d9a906139cc565b8015610de75780601f10610dbc57610100808354040283529160200191610de7565b820191906000526020600020905b815481529060010190602001808311610dca57829003601f168201915b50505050508152602001600182018054610e00906139cc565b80601f0160208091040260200160405190810160405280929190818152602001828054610e2c906139cc565b8015610e795780601f10610e4e57610100808354040283529160200191610e79565b820191906000526020600020905b815481529060010190602001808311610e5c57829003601f168201915b50505050508152602001600282018054610e92906139cc565b80601f0160208091040260200160405190810160405280929190818152602001828054610ebe906139cc565b8015610f0b5780601f10610ee057610100808354040283529160200191610f0b565b820191906000526020600020905b815481529060010190602001808311610eee57829003601f168201915b50505050508152602001600382015481526020016004820154815250509050919050565b6101028181548110610f4057600080fd5b600091825260209091200154905081565b6001600160a01b031660009081526101036020908152604080832054835261010190915290206001015490565b610f88338261285a565b610fa45760405162461bcd60e51b81526004016108a190613aa5565b6109428383836128b9565b60008181526101016020526040812060020154610fde5760405162461bcd60e51b81526004016108a190613af3565b60008281526101066020526040902054600a1161102c5760405162461bcd60e51b815260206004820152600c60248201526b139bd919481a5cc8199d5b1b60a21b60448201526064016108a1565b3360008181526101036020908152604080832054808452610101909252909120600281015461106d5760405162461bcd60e51b81526004016108a190613a07565b848160030154146110b35760405162461bcd60e51b815260206004820152601060248201526f4e6f7420796f7572207570206e6f646560801b60448201526064016108a1565b600085815261010660205260409020545b80156111bc57806110d481613a4b565b91505082610106600088815260200190815260200160002082815481106110fd576110fd613a62565b906000526020600020015414156111b757600086815261010660205260409020805461112b90600190613a78565b8154811061113b5761113b613a62565b90600052602060002001546101066000888152602001908152602001600020828154811061116b5761116b613a62565b9060005260206000200181905550610106600087815260200190815260200160002080548061119c5761119c613a8f565b600190038181906000526020600020016000905590556111bc565b6110c4565b60006003830181905560fd54604051630443ee9160e51b815260048101869052602481018990526001600160a01b039091169063887dd220906044016020604051808303816000875af1158015611217573d6000803e3d6000fd5b505050506040513d601f19601f8201168201806040525081019061123b9190613b1b565b905086847f1167679d9905b71e2c953444b39b9d22bf70de84ab2994e46a787ad43e5a42d08360405161127091815260200190565b60405180910390a35060019695505050505050565b61128d612609565b6001600160a01b0381166112d55760405162461bcd60e51b815260206004820152600f60248201526e496e76616c6964206164647265737360881b60448201526064016108a1565b60ff80546001600160a01b0319166001600160a01b0392909216919091179055565b33600081815261010360209081526040808320548084526101019092529091206003015483141561132757505050565b6000818152610101602052604090206003015461134390610faf565b5061134d83611855565b50505050565b600081815261010160205260408120600201546113825760405162461bcd60e51b81526004016108a190613af3565b336000818152610103602090815260408083205480845261010190925290912060028101546113c35760405162461bcd60e51b81526004016108a190613a07565b6000858152610101602052604090206003015482146114185760405162461bcd60e51b81526020600482015260116024820152704e6f7420796f757220737562206e6f646560781b60448201526064016108a1565b600082815261010660205260409020545b8015611521578061143981613a4b565b915050856101066000858152602001908152602001600020828154811061146257611462613a62565b9060005260206000200154141561151c57600083815261010660205260409020805461149090600190613a78565b815481106114a0576114a0613a62565b9060005260206000200154610106600085815260200190815260200160002082815481106114d0576114d0613a62565b9060005260206000200181905550610106600084815260200190815260200160002080548061150157611501613a8f565b60019003818190600052602060002001600090559055611521565b611429565b6000868152610101602052604080822060030182905560fd549051630443ee9160e51b815260048101899052602481018690526001600160a01b039091169063887dd220906044016020604051808303816000875af1158015611588573d6000803e3d6000fd5b505050506040513d601f19601f820116820180604052508101906115ac9190613b1b565b905083877f1167679d9905b71e2c953444b39b9d22bf70de84ab2994e46a787ad43e5a42d08360405161127091815260200190565b6115e9612609565b6115f38282612b13565b5050565b61094283838360405180602001604052806000815250611a48565b61161a612609565b611623816127bf565b50565b61162e612609565b80516115f39060fb9060208401906133ce565b600081815260cb60205260408120546001600160a01b03168061076d5760405162461bcd60e51b8152602060048201526018602482015277115490cdcc8c4e881a5b9d985b1a59081d1bdad95b88125160421b60448201526064016108a1565b60fb80546116ae906139cc565b80601f01602080910402602001604051908101604052809291908181526020018280546116da906139cc565b80156117275780601f106116fc57610100808354040283529160200191611727565b820191906000526020600020905b81548152906001019060200180831161170a57829003601f168201915b505050505081565b60006001600160a01b0382166117995760405162461bcd60e51b815260206004820152602960248201527f4552433732313a2061646472657373207a65726f206973206e6f7420612076616044820152683634b21037bbb732b960b91b60648201526084016108a1565b506001600160a01b0316600090815260cc602052604090205490565b6117bd612609565b6117c76000612c55565b565b6117d1612609565b6001600160a01b0381166118195760405162461bcd60e51b815260206004820152600f60248201526e496e76616c6964206164647265737360881b60448201526064016108a1565b60fc80546001600160a01b0319166001600160a01b0392909216919091179055565b606060ca8054610782906139cc565b6115f3338383612ca7565b600081815261010160205260408120600201546118845760405162461bcd60e51b81526004016108a190613af3565b6101075460008381526101066020526040902054106118d45760405162461bcd60e51b815260206004820152600c60248201526b139bd919481a5cc8199d5b1b60a21b60448201526064016108a1565b33600081815261010360205260409020548381141561192d5760405162461bcd60e51b815260206004820152601560248201527421b0b73713ba1039ba30b5b2903cb7bab939b2b63360591b60448201526064016108a1565b600081815261010160205260409020600281015461195d5760405162461bcd60e51b81526004016108a190613a07565b60008581526101066020908152604080832080546001810182559084529183209091018490556003830187905560fd5490516301da99d960e51b815260048101859052602481018890526001600160a01b0390911690633b533b20906044016020604051808303816000875af11580156119db573d6000803e3d6000fd5b505050506040513d601f19601f820116820180604052508101906119ff9190613b1b565b905085837f0130450a68fc0dbac40ab2206a57f484144fbb75cdf86c3fdaa0c813d6bce5c783604051611a3491815260200190565b60405180910390a350600195945050505050565b611a52338361285a565b611a6e5760405162461bcd60e51b81526004016108a190613aa5565b61134d84848484612d76565b33600081815261010360209081526040808320548084526101019092529091206002810154611abb5760405162461bcd60e51b81526004016108a190613a07565b6000611ac684610f51565b60ff546040516301ff8f7360e41b8152600481018390529192506000916001600160a01b0390911690631ff8f73090602401600060405180830381865afa158015611b15573d6000803e3d6000fd5b505050506040513d6000823e601f3d908101601f19168201604052611b3d9190810190613b79565b90508060600151600314611b8a5760405162461bcd60e51b81526020600482015260146024820152734f4e4c595f535441524c4556454c5f544852454560601b60448201526064016108a1565b60fc5460608201516001600160a01b0390911690637ae6d741908490611bb1906001613c45565b6040516001600160e01b031960e085901b16815260048101929092526024820152604401600060405180830381600087803b158015611bef57600080fd5b505af1158015611c03573d6000803e3d6000fd5b5050506060820151611c1791506001613c45565b6000858152610105602052604090206003015560048614611c6d5760405162461bcd60e51b815260206004820152601060248201526f4e4545445f464f55525f544f4b454e5360801b60448201526064016108a1565b611caa82888880806020026020016040519081016040528093929190818152602001838360200280828437600092019190915250612da992505050565b611cf65760405162461bcd60e51b815260206004820152601860248201527f4e4545445f53414d455f544f4b454e5f50524f5045525459000000000000000060448201526064016108a1565b60005b86811015611da95760ff546001600160a01b03166323b872dd3360018b8b86818110611d2757611d27613a62565b6040516001600160e01b031960e088901b1681526001600160a01b03958616600482015294909316602485015250602090910201356044820152606401600060405180830381600087803b158015611d7e57600080fd5b505af1158015611d92573d6000803e3d6000fd5b505050508080611da190613c5d565b915050611cf9565b5081856001600160a01b03167fd8b0734c4fb9ac9d66dc0c553b24ee5baee3215f9006d5188dc91460aa603af783606001516001611de79190613c45565b60405190815260200160405180910390a350505050505050565b600081815260cb60205260409020546060906001600160a01b0316611e685760405162461bcd60e51b815260206004820152601760248201527f54686973204e465420646f65736e27742065786973742e00000000000000000060448201526064016108a1565b6000611e72612f04565b90506000815111611e925760405180602001604052806000815250611ebd565b80611e9c84612f13565b604051602001611ead929190613c78565b6040516020818303038152906040525b9392505050565b60fc54604051635d528fc360e11b8152600481018590526001600160a01b039091169063baa51f8690602401602060405180830381865afa158015611f0d573d6000803e3d6000fd5b505050506040513d601f19601f82011682018060405250810190611f319190613cb7565b611f735760405162461bcd60e51b815260206004820152601360248201527210d85c99081b5d5cdd081899481cdd185ad959606a1b60448201526064016108a1565b60003360fc5460405163a5cd761f60e01b8152600481018790529192506001600160a01b038084169291169063a5cd761f90602401602060405180830381865afa158015611fc5573d6000803e3d6000fd5b505050506040513d601f19601f82011682018060405250810190611fe99190613cd4565b6001600160a01b0316146120325760405162461bcd60e51b815260206004820152601060248201526f4e4654206973206e6f7420796f75727360801b60448201526064016108a1565b61203b8161172f565b1561207c5760405162461bcd60e51b8152602060048201526011602482015270416c72656164792068617665206e6f646560781b60448201526064016108a1565b600084815261010460205260409020546001600160a01b0316156120d75760405162461bcd60e51b8152602060048201526012602482015271105b1c9958591e481c9959da5cdd195c995960721b60448201526064016108a1565b600082815261010160205260409020546001600160a01b03161561212e5760405162461bcd60e51b815260206004820152600e60248201526d1d1a58dad95d081a5cc81d5cd95960921b60448201526064016108a1565b60008481526101046020908152604080832080546001600160a01b0386166001600160a01b03199182168117909255868552610101909352922080549091169091178155600181018590556121804290565b600282015561218f8284612b13565b6001600160a01b0382811660008181526101036020526040808220879055610102805460018101825592527f93bdaa6a4190909b7c3fbe8d42169ffe1cab19f51dfc8db24c71abf849eced4a90910186905560fd54905163a2f8de7760e01b8152600481019290925260248201869052604482018790529091169063a2f8de7790606401600060405180830381600087803b15801561222d57600080fd5b505af1158015612241573d6000803e3d6000fd5b505060ff546040516301ff8f7360e41b8152600481018990526001600160a01b039091169250631ff8f7309150602401600060405180830381865afa15801561228e573d6000803e3d6000fd5b505050506040513d6000823e601f3d908101601f191682016040526122b69190810190613b79565b6000848152610105602090815260409091208251805191926122dd928492909101906133ce565b5060208281015180516122f692600185019201906133ce565b50604082015180516123129160028401916020909101906133ce565b5060608201516003820155608090910151600490910155604080518581526020810185905286916001600160a01b038516917f970d66696fa342805d6fc5131876bf40c04110feed7e00001baee26b8f6109b89101610d04565b61010560205260009081526040902080548190612388906139cc565b80601f01602080910402602001604051908101604052809291908181526020018280546123b4906139cc565b80156124015780601f106123d657610100808354040283529160200191612401565b820191906000526020600020905b8154815290600101906020018083116123e457829003601f168201915b505050505090806001018054612416906139cc565b80601f0160208091040260200160405190810160405280929190818152602001828054612442906139cc565b801561248f5780601f106124645761010080835404028352916020019161248f565b820191906000526020600020905b81548152906001019060200180831161247257829003601f168201915b5050505050908060020180546124a4906139cc565b80601f01602080910402602001604051908101604052809291908181526020018280546124d0906139cc565b801561251d5780601f106124f25761010080835404028352916020019161251d565b820191906000526020600020905b81548152906001019060200180831161250057829003601f168201915b5050505050908060030154908060040154905085565b6001600160a01b03918216600090815260ce6020908152604080832093909416825291909152205460ff1690565b612569612609565b6001600160a01b0381166125ce5760405162461bcd60e51b815260206004820152602660248201527f4f776e61626c653a206e6577206f776e657220697320746865207a65726f206160448201526564647265737360d01b60648201526084016108a1565b61162381612c55565b61010660205281600052604060002081815481106125f457600080fd5b90600052602060002001600091509150505481565b6065546001600160a01b031633146117c75760405162461bcd60e51b815260206004820181905260248201527f4f776e61626c653a2063616c6c6572206973206e6f7420746865206f776e657260448201526064016108a1565b600081815260cb60205260409020546001600160a01b03166116235760405162461bcd60e51b8152602060048201526018602482015277115490cdcc8c4e881a5b9d985b1a59081d1bdad95b88125160421b60448201526064016108a1565b600081815260cd6020526040902080546001600160a01b0319166001600160a01b03841690811790915581906126f782611641565b6001600160a01b03167f8c5be1e5ebec7d5bd14f71427d1e84f3dd0314c0f7b2291e5b200ac8c7c3b92560405160405180910390a45050565b600054610100900460ff166127575760405162461bcd60e51b81526004016108a190613cf1565b6115f38282613011565b600054610100900460ff166127885760405162461bcd60e51b81526004016108a190613cf1565b6117c761305f565b600054610100900460ff166127b75760405162461bcd60e51b81526004016108a190613cf1565b6117c7613092565b60006127ca82611641565b90506127d76000836126c2565b6001600160a01b038116600090815260cc60205260408120805460019290612800908490613a78565b9091555050600082815260cb602052604080822080546001600160a01b0319169055518391906001600160a01b038416907fddf252ad1be2c89b69c2b068fc378daa952ba7f163c4a11628f55a4df523b3ef908390a45050565b60008061286683611641565b9050806001600160a01b0316846001600160a01b0316148061288d575061288d8185612533565b806128b15750836001600160a01b03166128a684610805565b6001600160a01b0316145b949350505050565b6128c48383836130c2565b610100546001600160a01b03838116911614156128e057505050565b610100546001600160a01b038481169116141561291357600081815261010160205260409020546001600160a01b031692505b816001600160a01b0316836001600160a01b0316141561293257505050565b6001600160a01b03821660009081526101036020526040902054156129915760405162461bcd60e51b8152602060048201526015602482015274596f7520616c72656164792068617665206e6f646560581b60448201526064016108a1565b6001600160a01b038381166000818152610103602090815260408083208390558685168084528184208790558684526101019092529182902080546001600160a01b0319168217905560fd549151633a6ac7ad60e21b815260048101939093526024830152604482018490529091169063e9ab1eb490606401600060405180830381600087803b158015612a2457600080fd5b505af1158015612a38573d6000803e3d6000fd5b505050506000612a4783610f51565b60fc546040516359de158160e11b8152600481018390526001600160a01b03868116602483015292935091169063b3bc2b0290604401600060405180830381600087803b158015612a9757600080fd5b505af1158015612aab573d6000803e3d6000fd5b50506101005460405163d789571560e01b81523060048201526001600160a01b03909116925063d78957159150602401600060405180830381600087803b158015612af557600080fd5b505af1158015612b09573d6000803e3d6000fd5b5050505050505050565b6001600160a01b038216612b695760405162461bcd60e51b815260206004820181905260248201527f4552433732313a206d696e7420746f20746865207a65726f206164647265737360448201526064016108a1565b600081815260cb60205260409020546001600160a01b031615612bce5760405162461bcd60e51b815260206004820152601c60248201527f4552433732313a20746f6b656e20616c7265616479206d696e7465640000000060448201526064016108a1565b6001600160a01b038216600090815260cc60205260408120805460019290612bf7908490613c45565b9091555050600081815260cb602052604080822080546001600160a01b0319166001600160a01b03861690811790915590518392907fddf252ad1be2c89b69c2b068fc378daa952ba7f163c4a11628f55a4df523b3ef908290a45050565b606580546001600160a01b038381166001600160a01b0319831681179093556040519116919082907f8be0079c531659141344cd1fd0a4f28419497f9722a3daafe3b4186f6b6457e090600090a35050565b816001600160a01b0316836001600160a01b03161415612d095760405162461bcd60e51b815260206004820152601960248201527f4552433732313a20617070726f766520746f2063616c6c65720000000000000060448201526064016108a1565b6001600160a01b03838116600081815260ce6020908152604080832094871680845294825291829020805460ff191686151590811790915591519182527f17307eab39ab6107e8899845ad3d59bd9653f200f220920489ca2b5937696c31910160405180910390a3505050565b612d818484846128b9565b612d8d8484848461325e565b61134d5760405162461bcd60e51b81526004016108a190613d3c565b6000815160001415612dbd5750600061076d565b60ff546040516301ff8f7360e41b8152600481018590526001600160a01b03909116906000908290631ff8f73090602401600060405180830381865afa158015612e0b573d6000803e3d6000fd5b505050506040513d6000823e601f3d908101601f19168201604052612e339190810190613b79565b905060005b8451811015612ef857612ed682846001600160a01b0316631ff8f730888581518110612e6657612e66613a62565b60200260200101516040518263ffffffff1660e01b8152600401612e8c91815260200190565b600060405180830381865afa158015612ea9573d6000803e3d6000fd5b505050506040513d6000823e601f3d908101601f19168201604052612ed19190810190613b79565b61335c565b612ee6576000935050505061076d565b80612ef081613c5d565b915050612e38565b50600195945050505050565b606060fb8054610782906139cc565b606081612f375750506040805180820190915260018152600360fc1b602082015290565b8160005b8115612f615780612f4b81613c5d565b9150612f5a9050600a83613da4565b9150612f3b565b60008167ffffffffffffffff811115612f7c57612f7c6136a7565b6040519080825280601f01601f191660200182016040528015612fa6576020820181803683370190505b5090505b84156128b157612fbb600183613a78565b9150612fc8600a86613db8565b612fd3906030613c45565b60f81b818381518110612fe857612fe8613a62565b60200101906001600160f81b031916908160001a90535061300a600a86613da4565b9450612faa565b600054610100900460ff166130385760405162461bcd60e51b81526004016108a190613cf1565b815161304b9060c99060208501906133ce565b5080516109429060ca9060208401906133ce565b600054610100900460ff166130865760405162461bcd60e51b81526004016108a190613cf1565b6033805460ff19169055565b600054610100900460ff166130b95760405162461bcd60e51b81526004016108a190613cf1565b6117c733612c55565b826001600160a01b03166130d582611641565b6001600160a01b0316146131395760405162461bcd60e51b815260206004820152602560248201527f4552433732313a207472616e736665722066726f6d20696e636f72726563742060448201526437bbb732b960d91b60648201526084016108a1565b6001600160a01b03821661319b5760405162461bcd60e51b8152602060048201526024808201527f4552433732313a207472616e7366657220746f20746865207a65726f206164646044820152637265737360e01b60648201526084016108a1565b6131a66000826126c2565b6001600160a01b038316600090815260cc602052604081208054600192906131cf908490613a78565b90915550506001600160a01b038216600090815260cc602052604081208054600192906131fd908490613c45565b9091555050600081815260cb602052604080822080546001600160a01b0319166001600160a01b0386811691821790925591518493918716917fddf252ad1be2c89b69c2b068fc378daa952ba7f163c4a11628f55a4df523b3ef91a4505050565b60006001600160a01b0384163b1561335157604051630a85bd0160e11b81526001600160a01b0385169063150b7a02906132a2903390899088908890600401613dcc565b6020604051808303816000875af19250505080156132dd575060408051601f3d908101601f191682019092526132da91810190613e09565b60015b613337573d80801561330b576040519150601f19603f3d011682016040523d82523d6000602084013e613310565b606091505b50805161332f5760405162461bcd60e51b81526004016108a190613d3c565b805181602001fd5b6001600160e01b031916630a85bd0160e11b1490506128b1565b506001949350505050565b60008160000151805190602001208360000151805190602001201480156133985750816020015180519060200120836020015180519060200120145b80156133b95750816040015180519060200120836040015180519060200120145b8015611ebd5750506080908101519101511490565b8280546133da906139cc565b90600052602060002090601f0160209004810192826133fc5760008555613442565b82601f1061341557805160ff1916838001178555613442565b82800160010185558215613442579182015b82811115613442578251825591602001919060010190613427565b5061344e929150613452565b5090565b5b8082111561344e5760008155600101613453565b60006020828403121561347957600080fd5b5035919050565b6001600160e01b03198116811461162357600080fd5b6000602082840312156134a857600080fd5b8135611ebd81613480565b60005b838110156134ce5781810151838201526020016134b6565b8381111561134d5750506000910152565b600081518084526134f78160208601602086016134b3565b601f01601f19169290920160200192915050565b602081526000611ebd60208301846134df565b6001600160a01b038116811461162357600080fd5b6000806040838503121561354657600080fd5b82356135518161351e565b946020939093013593505050565b600080600080600060a0868803121561357757600080fd5b85356135828161351e565b945060208601356135928161351e565b935060408601356135a28161351e565b925060608601356135b28161351e565b915060808601356135c28161351e565b809150509295509295909350565b602081526000825160a060208401526135ec60c08401826134df565b90506020840151601f198085840301604086015261360a83836134df565b925060408601519150808584030160608601525061362882826134df565b91505060608401516080840152608084015160a08401528091505092915050565b60006020828403121561365b57600080fd5b8135611ebd8161351e565b60008060006060848603121561367b57600080fd5b83356136868161351e565b925060208401356136968161351e565b929592945050506040919091013590565b634e487b7160e01b600052604160045260246000fd5b60405160a0810167ffffffffffffffff811182821017156136e0576136e06136a7565b60405290565b604051601f8201601f1916810167ffffffffffffffff8111828210171561370f5761370f6136a7565b604052919050565b600067ffffffffffffffff821115613731576137316136a7565b50601f01601f191660200190565b600061375261374d84613717565b6136e6565b905082815283838301111561376657600080fd5b828260208301376000602084830101529392505050565b60006020828403121561378f57600080fd5b813567ffffffffffffffff8111156137a657600080fd5b8201601f810184136137b757600080fd5b6128b18482356020840161373f565b801515811461162357600080fd5b600080604083850312156137e757600080fd5b82356137f28161351e565b91506020830135613802816137c6565b809150509250929050565b6000806000806080858703121561382357600080fd5b843561382e8161351e565b9350602085013561383e8161351e565b925060408501359150606085013567ffffffffffffffff81111561386157600080fd5b8501601f8101871361387257600080fd5b6138818782356020840161373f565b91505092959194509250565b600080602083850312156138a057600080fd5b823567ffffffffffffffff808211156138b857600080fd5b818501915085601f8301126138cc57600080fd5b8135818111156138db57600080fd5b8660208260051b85010111156138f057600080fd5b60209290920196919550909350505050565b60008060006060848603121561391757600080fd5b505081359360208301359350604090920135919050565b60a08152600061394160a08301886134df565b828103602084015261395381886134df565b9050828103604084015261396781876134df565b60608401959095525050608001529392505050565b6000806040838503121561398f57600080fd5b823561399a8161351e565b915060208301356138028161351e565b600080604083850312156139bd57600080fd5b50508035926020909101359150565b600181811c908216806139e057607f821691505b60208210811415613a0157634e487b7160e01b600052602260045260246000fd5b50919050565b6020808252601490820152732cb7ba903237b713ba103430bb32903737b2329760611b604082015260600190565b634e487b7160e01b600052601160045260246000fd5b600081613a5a57613a5a613a35565b506000190190565b634e487b7160e01b600052603260045260246000fd5b600082821015613a8a57613a8a613a35565b500390565b634e487b7160e01b600052603160045260246000fd5b6020808252602e908201527f4552433732313a2063616c6c6572206973206e6f7420746f6b656e206f776e6560408201526d1c881b9bdc88185c1c1c9bdd995960921b606082015260800190565b6020808252600e908201526d139bd919481b9bdd08195e1a5cdd60921b604082015260600190565b600060208284031215613b2d57600080fd5b5051919050565b600082601f830112613b4557600080fd5b8151613b5361374d82613717565b818152846020838601011115613b6857600080fd5b6128b18260208301602087016134b3565b600060208284031215613b8b57600080fd5b815167ffffffffffffffff80821115613ba357600080fd5b9083019060a08286031215613bb757600080fd5b613bbf6136bd565b825182811115613bce57600080fd5b613bda87828601613b34565b825250602083015182811115613bef57600080fd5b613bfb87828601613b34565b602083015250604083015182811115613c1357600080fd5b613c1f87828601613b34565b604083015250606083015160608201526080830151608082015280935050505092915050565b60008219821115613c5857613c58613a35565b500190565b6000600019821415613c7157613c71613a35565b5060010190565b60008351613c8a8184602088016134b3565b835190830190613c9e8183602088016134b3565b64173539b7b760d91b9101908152600501949350505050565b600060208284031215613cc957600080fd5b8151611ebd816137c6565b600060208284031215613ce657600080fd5b8151611ebd8161351e565b6020808252602b908201527f496e697469616c697a61626c653a20636f6e7472616374206973206e6f74206960408201526a6e697469616c697a696e6760a81b606082015260800190565b60208082526032908201527f4552433732313a207472616e7366657220746f206e6f6e20455243373231526560408201527131b2b4bb32b91034b6b83632b6b2b73a32b960711b606082015260800190565b634e487b7160e01b600052601260045260246000fd5b600082613db357613db3613d8e565b500490565b600082613dc757613dc7613d8e565b500690565b6001600160a01b0385811682528416602082015260408101839052608060608201819052600090613dff908301846134df565b9695505050505050565b600060208284031215613e1b57600080fd5b8151611ebd8161348056fea26469706673582212208d2c49a1ec1ce66e3fc8000f5af2faf631771c9d3fe0fc3d19895d144ebff95064736f6c634300080b0033",
  "linkReferences": {},
  "deployedLinkReferences": {}
}