{
  "_format": "hh-sol-artifact-1",
  "contractName": "MockBIBOracle",
  "sourceName": "contracts/mock/MockBIBOracle.sol",
  "abi": [
    {
      "inputs": [],
      "name": "BASE_CURRENCY",
      "outputs": [
        {
          "internalType": "address",
          "name": "",
          "type": "address"
        }
      ],
      "stateMutability": "pure",
      "type": "function"
    },
    {
      "inputs": [],
      "name": "BASE_CURRENCY_UNIT",
      "outputs": [
        {
          "internalType": "uint256",
          "name": "",
          "type": "uint256"
        }
      ],
      "stateMutability": "pure",
      "type": "function"
    },
    {
      "inputs": [
        {
          "internalType": "address",
          "name": "asset",
          "type": "address"
        }
      ],
      "name": "getAssetPrice",
      "outputs": [
        {
          "internalType": "uint256",
          "name": "",
          "type": "uint256"
        }
      ],
      "stateMutability": "pure",
      "type": "function"
    }
  ],
  "bytecode": "0x608060405234801561001057600080fd5b5060e88061001f6000396000f3fe6080604052348015600f57600080fd5b5060043610603c5760003560e01c80638c89b64f146041578063b3596f0714605e578063e19f4700146076575b600080fd5b670de0b6b3a76400005b6040519081526020015b60405180910390f35b604b60693660046084565b50671bc16d674ec8000090565b604051600081526020016055565b600060208284031215609557600080fd5b81356001600160a01b038116811460ab57600080fd5b939250505056fea264697066735822122086b0a61756a1704037d285264fdeb94cf47197aab2a6cfce0910e9bdb740555c64736f6c634300080b0033",
  "linkReferences": {},
  "deployedLinkReferences": {}
}