{
  "_format": "hh-sol-artifact-1",
  "contractName": "BIBFallbackOracle",
  "sourceName": "contracts/misc/oracle/BIBFallbackOracle.sol",
  "abi": [
    {
      "anonymous": false,
      "inputs": [
        {
          "indexed": true,
          "internalType": "address",
          "name": "previousOwner",
          "type": "address"
        },
        {
          "indexed": true,
          "internalType": "address",
          "name": "newOwner",
          "type": "address"
        }
      ],
      "name": "OwnershipTransferred",
      "type": "event"
    },
    {
      "anonymous": false,
      "inputs": [
        {
          "indexed": false,
          "internalType": "address",
          "name": "sybil",
          "type": "address"
        },
        {
          "indexed": false,
          "internalType": "address[]",
          "name": "assets",
          "type": "address[]"
        },
        {
          "indexed": false,
          "internalType": "uint128[]",
          "name": "prices",
          "type": "uint128[]"
        }
      ],
      "name": "PricesSubmitted",
      "type": "event"
    },
    {
      "anonymous": false,
      "inputs": [
        {
          "indexed": true,
          "internalType": "address",
          "name": "sybil",
          "type": "address"
        }
      ],
      "name": "SybilAuthorized",
      "type": "event"
    },
    {
      "anonymous": false,
      "inputs": [
        {
          "indexed": true,
          "internalType": "address",
          "name": "sybil",
          "type": "address"
        }
      ],
      "name": "SybilUnauthorized",
      "type": "event"
    },
    {
      "inputs": [],
      "name": "PERCENTAGE_BASE",
      "outputs": [
        {
          "internalType": "uint256",
          "name": "",
          "type": "uint256"
        }
      ],
      "stateMutability": "view",
      "type": "function"
    },
    {
      "inputs": [
        {
          "internalType": "address",
          "name": "sybil",
          "type": "address"
        }
      ],
      "name": "authorizeSybil",
      "outputs": [],
      "stateMutability": "nonpayable",
      "type": "function"
    },
    {
      "inputs": [
        {
          "internalType": "uint256",
          "name": "deviation",
          "type": "uint256"
        },
        {
          "internalType": "address[]",
          "name": "assets",
          "type": "address[]"
        },
        {
          "internalType": "uint256[]",
          "name": "candidatePrices",
          "type": "uint256[]"
        }
      ],
      "name": "filterCandidatePricesByDeviation",
      "outputs": [
        {
          "internalType": "address[]",
          "name": "",
          "type": "address[]"
        },
        {
          "internalType": "uint256[]",
          "name": "",
          "type": "uint256[]"
        }
      ],
      "stateMutability": "view",
      "type": "function"
    },
    {
      "inputs": [
        {
          "internalType": "address",
          "name": "asset",
          "type": "address"
        }
      ],
      "name": "getAssetPrice",
      "outputs": [
        {
          "internalType": "uint256",
          "name": "",
          "type": "uint256"
        }
      ],
      "stateMutability": "view",
      "type": "function"
    },
    {
      "inputs": [
        {
          "internalType": "address[]",
          "name": "assets",
          "type": "address[]"
        }
      ],
      "name": "getPricesData",
      "outputs": [
        {
          "components": [
            {
              "internalType": "uint64",
              "name": "blockNumber",
              "type": "uint64"
            },
            {
              "internalType": "uint64",
              "name": "blockTimestamp",
              "type": "uint64"
            },
            {
              "internalType": "uint128",
              "name": "price",
              "type": "uint128"
            }
          ],
          "internalType": "struct BIBFallbackOracle.Price[]",
          "name": "",
          "type": "tuple[]"
        }
      ],
      "stateMutability": "view",
      "type": "function"
    },
    {
      "inputs": [
        {
          "internalType": "address",
          "name": "sybil",
          "type": "address"
        }
      ],
      "name": "isSybilWhitelisted",
      "outputs": [
        {
          "internalType": "bool",
          "name": "",
          "type": "bool"
        }
      ],
      "stateMutability": "view",
      "type": "function"
    },
    {
      "inputs": [],
      "name": "owner",
      "outputs": [
        {
          "internalType": "address",
          "name": "",
          "type": "address"
        }
      ],
      "stateMutability": "view",
      "type": "function"
    },
    {
      "inputs": [],
      "name": "renounceOwnership",
      "outputs": [],
      "stateMutability": "nonpayable",
      "type": "function"
    },
    {
      "inputs": [
        {
          "internalType": "address[]",
          "name": "assets",
          "type": "address[]"
        },
        {
          "internalType": "uint128[]",
          "name": "prices",
          "type": "uint128[]"
        }
      ],
      "name": "submitPrices",
      "outputs": [],
      "stateMutability": "nonpayable",
      "type": "function"
    },
    {
      "inputs": [
        {
          "internalType": "address",
          "name": "newOwner",
          "type": "address"
        }
      ],
      "name": "transferOwnership",
      "outputs": [],
      "stateMutability": "nonpayable",
      "type": "function"
    },
    {
      "inputs": [
        {
          "internalType": "address",
          "name": "sybil",
          "type": "address"
        }
      ],
      "name": "unauthorizeSybil",
      "outputs": [],
      "stateMutability": "nonpayable",
      "type": "function"
    }
  ],
  "bytecode": "0x608060405234801561001057600080fd5b5061001a3361001f565b61006f565b600080546001600160a01b038381166001600160a01b0319831681178455604051919092169283917f8be0079c531659141344cd1fd0a4f28419497f9722a3daafe3b4186f6b6457e09190a35050565b610f7f8061007e6000396000f3fe608060405234801561001057600080fd5b50600436106100a95760003560e01c8063715018a611610071578063715018a61461015857806387c13943146101605780638da5cb5b14610177578063b3596f0714610192578063f2be88cd146101cb578063f2fde38b146101de57600080fd5b80630e5665e6146100ae57806330d454f0146100c357806342136b08146101045780635e91734c146101245780635f1e09d914610137575b600080fd5b6100c16100bc366004610b5e565b6101f1565b005b6100ef6100d1366004610be5565b6001600160a01b031660009081526002602052604090205460ff1690565b60405190151581526020015b60405180910390f35b610117610112366004610c00565b6103ad565b6040516100fb9190610c41565b6100c1610132366004610be5565b6104de565b61014a610145366004610caf565b610532565b6040516100fb929190610d28565b6100c16108fc565b61016961271081565b6040519081526020016100fb565b6000546040516001600160a01b0390911681526020016100fb565b6101696101a0366004610be5565b6001600160a01b0316600090815260016020526040902054600160801b90046001600160801b031690565b6100c16101d9366004610be5565b610910565b6100c16101ec366004610be5565b610961565b6101fa336109da565b82811461024e5760405162461bcd60e51b815260206004820152601a60248201527f494e434f4e53495354454e545f504152414d535f4c454e47544800000000000060448201526064015b60405180910390fd5b60005b83811015610367576040518060600160405280436001600160401b03168152602001426001600160401b0316815260200184848481811061029457610294610dac565b90506020020160208101906102a99190610dd9565b6001600160801b03169052600160008787858181106102ca576102ca610dac565b90506020020160208101906102df9190610be5565b6001600160a01b031681526020808201929092526040908101600020835181549385015194909201516001600160801b03908116600160801b026001600160401b03958616600160401b026fffffffffffffffffffffffffffffffff19909516959093169490941792909217929092169190911790558061035f81610e0a565b915050610251565b507f995dd01082df56f242aad7e0a6f87116e5d4c972ab8377309354fa2bd0de3e59338585858560405161039f959493929190610e25565b60405180910390a150505050565b60606000826001600160401b038111156103c9576103c9610ec3565b60405190808252806020026020018201604052801561041457816020015b60408051606081018252600080825260208083018290529282015282526000199092019101816103e75790505b50905060005b838110156104d6576001600086868481811061043857610438610dac565b905060200201602081019061044d9190610be5565b6001600160a01b031681526020808201929092526040908101600020815160608101835290546001600160401b038082168352600160401b82041693820193909352600160801b9092046001600160801b03169082015282518390839081106104b8576104b8610dac565b602002602001018190525080806104ce90610e0a565b91505061041a565b509392505050565b6104e6610a32565b6001600160a01b038116600081815260026020526040808220805460ff19166001179055517fe7d975a644451bd7331add56a59563e5d19b661497948c38d25b9694874706739190a250565b6060808483146105845760405162461bcd60e51b815260206004820152601a60248201527f494e434f4e53495354454e545f504152414d535f4c454e4754480000000000006044820152606401610245565b6000856001600160401b0381111561059e5761059e610ec3565b6040519080825280602002602001820160405280156105c7578160200160208202803683370190505b5090506000866001600160401b038111156105e4576105e4610ec3565b60405190808252806020026020018201604052801561060d578160200160208202803683370190505b5090506000805b888110156107bd576000600160008c8c8581811061063457610634610dac565b90506020020160208101906106499190610be5565b6001600160a01b03166001600160a01b0316815260200190815260200160002060000160109054906101000a90046001600160801b031690506106cd6127106106c76106a08f612710610a8c90919063ffffffff16565b8c8c878181106106b2576106b2610dac565b90506020020135610a9f90919063ffffffff16565b90610aab565b816001600160801b0316118061070857506106fc6127106106c76106a08f612710610ab790919063ffffffff16565b816001600160801b0316105b156107aa578a8a8381811061071f5761071f610dac565b90506020020160208101906107349190610be5565b85848151811061074657610746610dac565b60200260200101906001600160a01b031690816001600160a01b03168152505088888381811061077857610778610dac565b9050602002013584848151811061079157610791610dac565b6020908102919091010152826107a681610e0a565b9350505b50806107b581610e0a565b915050610614565b506000816001600160401b038111156107d8576107d8610ec3565b604051908082528060200260200182016040528015610801578160200160208202803683370190505b5090506000826001600160401b0381111561081e5761081e610ec3565b604051908082528060200260200182016040528015610847578160200160208202803683370190505b50905060005b838110156108ea5785818151811061086757610867610dac565b602002602001015183828151811061088157610881610dac565b60200260200101906001600160a01b031690816001600160a01b0316815250508481815181106108b3576108b3610dac565b60200260200101518282815181106108cd576108cd610dac565b6020908102919091010152806108e281610e0a565b91505061084d565b50909b909a5098505050505050505050565b610904610a32565b61090e6000610ac3565b565b610918610a32565b6001600160a01b038116600081815260026020526040808220805460ff19169055517f8bde64628aa5dae6d1c378a97b785745a4db9beaa7d503f91a8274c7b58d2f019190a250565b610969610a32565b6001600160a01b0381166109ce5760405162461bcd60e51b815260206004820152602660248201527f4f776e61626c653a206e6577206f776e657220697320746865207a65726f206160448201526564647265737360d01b6064820152608401610245565b6109d781610ac3565b50565b6001600160a01b03811660009081526002602052604090205460ff166109d75760405162461bcd60e51b815260206004820152600d60248201526c1253959053125117d4d6509253609a1b6044820152606401610245565b6000546001600160a01b0316331461090e5760405162461bcd60e51b815260206004820181905260248201527f4f776e61626c653a2063616c6c6572206973206e6f7420746865206f776e65726044820152606401610245565b6000610a988284610ed9565b9392505050565b6000610a988284610ef1565b6000610a988284610f10565b6000610a988284610f32565b600080546001600160a01b038381166001600160a01b0319831681178455604051919092169283917f8be0079c531659141344cd1fd0a4f28419497f9722a3daafe3b4186f6b6457e09190a35050565b60008083601f840112610b2557600080fd5b5081356001600160401b03811115610b3c57600080fd5b6020830191508360208260051b8501011115610b5757600080fd5b9250929050565b60008060008060408587031215610b7457600080fd5b84356001600160401b0380821115610b8b57600080fd5b610b9788838901610b13565b90965094506020870135915080821115610bb057600080fd5b50610bbd87828801610b13565b95989497509550505050565b80356001600160a01b0381168114610be057600080fd5b919050565b600060208284031215610bf757600080fd5b610a9882610bc9565b60008060208385031215610c1357600080fd5b82356001600160401b03811115610c2957600080fd5b610c3585828601610b13565b90969095509350505050565b602080825282518282018190526000919060409081850190868401855b82811015610ca257815180516001600160401b0390811686528782015116878601528501516001600160801b03168585015260609093019290850190600101610c5e565b5091979650505050505050565b600080600080600060608688031215610cc757600080fd5b8535945060208601356001600160401b0380821115610ce557600080fd5b610cf189838a01610b13565b90965094506040880135915080821115610d0a57600080fd5b50610d1788828901610b13565b969995985093965092949392505050565b604080825283519082018190526000906020906060840190828701845b82811015610d6a5781516001600160a01b031684529284019290840190600101610d45565b5050508381038285015284518082528583019183019060005b81811015610d9f57835183529284019291840191600101610d83565b5090979650505050505050565b634e487b7160e01b600052603260045260246000fd5b80356001600160801b0381168114610be057600080fd5b600060208284031215610deb57600080fd5b610a9882610dc2565b634e487b7160e01b600052601160045260246000fd5b6000600019821415610e1e57610e1e610df4565b5060010190565b6001600160a01b03868116825260606020808401829052908301869052600091879160808501845b89811015610e725783610e5f86610bc9565b1682529382019390820190600101610e4d565b5085810360408701528681528101925086915060005b86811015610eb4576001600160801b03610ea184610dc2565b1684529281019291810191600101610e88565b50919998505050505050505050565b634e487b7160e01b600052604160045260246000fd5b60008219821115610eec57610eec610df4565b500190565b6000816000190483118215151615610f0b57610f0b610df4565b500290565b600082610f2d57634e487b7160e01b600052601260045260246000fd5b500490565b600082821015610f4457610f44610df4565b50039056fea26469706673582212206559778b7ee4ed4c0bc95b9dfc85e5645d3420138da2f975f9eb0af35bd02f0164736f6c634300080b0033",
  "linkReferences": {},
  "deployedLinkReferences": {}
}