{
  "_format": "hh-sol-artifact-1",
  "contractName": "DividendCollector",
  "sourceName": "contracts/misc/DividendCollector.sol",
  "abi": [
    {
      "anonymous": false,
      "inputs": [
        {
          "indexed": false,
          "internalType": "uint8",
          "name": "version",
          "type": "uint8"
        }
      ],
      "name": "Initialized",
      "type": "event"
    },
    {
      "anonymous": false,
      "inputs": [
        {
          "indexed": true,
          "internalType": "address",
          "name": "previousOwner",
          "type": "address"
        },
        {
          "indexed": true,
          "internalType": "address",
          "name": "newOwner",
          "type": "address"
        }
      ],
      "name": "OwnershipTransferred",
      "type": "event"
    },
    {
      "anonymous": false,
      "inputs": [
        {
          "indexed": true,
          "internalType": "address",
          "name": "user",
          "type": "address"
        },
        {
          "indexed": false,
          "internalType": "uint256",
          "name": "amount",
          "type": "uint256"
        }
      ],
      "name": "ReceiveToken",
      "type": "event"
    },
    {
      "inputs": [],
      "name": "asset",
      "outputs": [
        {
          "internalType": "contract IERC20",
          "name": "",
          "type": "address"
        }
      ],
      "stateMutability": "view",
      "type": "function"
    },
    {
      "inputs": [],
      "name": "dividendSetter",
      "outputs": [
        {
          "internalType": "address",
          "name": "",
          "type": "address"
        }
      ],
      "stateMutability": "view",
      "type": "function"
    },
    {
      "inputs": [
        {
          "internalType": "uint256",
          "name": "amount",
          "type": "uint256"
        }
      ],
      "name": "handleReceive",
      "outputs": [],
      "stateMutability": "nonpayable",
      "type": "function"
    },
    {
      "inputs": [
        {
          "internalType": "contract IERC20",
          "name": "_asset",
          "type": "address"
        }
      ],
      "name": "initialize",
      "outputs": [],
      "stateMutability": "nonpayable",
      "type": "function"
    },
    {
      "inputs": [],
      "name": "owner",
      "outputs": [
        {
          "internalType": "address",
          "name": "",
          "type": "address"
        }
      ],
      "stateMutability": "view",
      "type": "function"
    },
    {
      "inputs": [],
      "name": "receiveToken",
      "outputs": [],
      "stateMutability": "nonpayable",
      "type": "function"
    },
    {
      "inputs": [
        {
          "internalType": "address",
          "name": "_asset",
          "type": "address"
        }
      ],
      "name": "receiveTokens",
      "outputs": [],
      "stateMutability": "nonpayable",
      "type": "function"
    },
    {
      "inputs": [],
      "name": "receiver",
      "outputs": [
        {
          "internalType": "address",
          "name": "",
          "type": "address"
        }
      ],
      "stateMutability": "view",
      "type": "function"
    },
    {
      "inputs": [],
      "name": "renounceOwnership",
      "outputs": [],
      "stateMutability": "nonpayable",
      "type": "function"
    },
    {
      "inputs": [
        {
          "internalType": "address",
          "name": "_setter",
          "type": "address"
        }
      ],
      "name": "setDividendSetter",
      "outputs": [],
      "stateMutability": "nonpayable",
      "type": "function"
    },
    {
      "inputs": [
        {
          "internalType": "address",
          "name": "_receiver",
          "type": "address"
        }
      ],
      "name": "setReceiver",
      "outputs": [],
      "stateMutability": "nonpayable",
      "type": "function"
    },
    {
      "inputs": [
        {
          "internalType": "address",
          "name": "newOwner",
          "type": "address"
        }
      ],
      "name": "transferOwnership",
      "outputs": [],
      "stateMutability": "nonpayable",
      "type": "function"
    }
  ],
  "bytecode": "0x608060405234801561001057600080fd5b506108a6806100206000396000f3fe608060405234801561001057600080fd5b50600436106100b45760003560e01c80638da5cb5b116100715780638da5cb5b1461013e578063c4d66de81461014f578063ddaf484814610162578063e9ba77fb14610173578063f2fde38b1461017b578063f7260d3e1461018e57600080fd5b80630940c8be146100b957806338d52e0f146100ce5780634195c410146100fd5780635f13bb8d14610110578063715018a614610123578063718da7ee1461012b575b600080fd5b6100cc6100c73660046107ad565b6101a1565b005b6065546100e1906001600160a01b031681565b6040516001600160a01b03909116815260200160405180910390f35b6100cc61010b3660046107ad565b6102cc565b6066546100e1906001600160a01b031681565b6100cc61033f565b6100cc6101393660046107ad565b610353565b6033546001600160a01b03166100e1565b6100cc61015d3660046107ad565b6103c1565b6100cc6101703660046107d1565b50565b6100cc6104ee565b6100cc6101893660046107ad565b61061c565b6067546100e1906001600160a01b031681565b6040516370a0823160e01b81523060048201526000906001600160a01b038316906370a0823190602401602060405180830381865afa1580156101e8573d6000803e3d6000fd5b505050506040513d601f19601f8201168201806040525081019061020c91906107ea565b60675460405163a9059cbb60e01b81526001600160a01b0391821660048201526024810183905291925083169063a9059cbb906044016020604051808303816000875af1158015610261573d6000803e3d6000fd5b505050506040513d601f19601f820116820180604052508101906102859190610803565b506067546040518281526001600160a01b03909116907f8461980fcfd4dd5fdee9260d0c6c5357a377f4d9315f3c7c4efb1fe26965b3ba9060200160405180910390a25050565b6102d4610692565b6001600160a01b03811661031d5760405162461bcd60e51b815260206004820152600b60248201526a24a72b2624a22fa0a2222960a91b60448201526064015b60405180910390fd5b606680546001600160a01b0319166001600160a01b0392909216919091179055565b610347610692565b61035160006106ec565b565b61035b610692565b6001600160a01b03811661039f5760405162461bcd60e51b815260206004820152600b60248201526a24a72b2624a22fa0a2222960a91b6044820152606401610314565b606780546001600160a01b0319166001600160a01b0392909216919091179055565b600054610100900460ff16158080156103e15750600054600160ff909116105b806103fb5750303b1580156103fb575060005460ff166001145b61045e5760405162461bcd60e51b815260206004820152602e60248201527f496e697469616c697a61626c653a20636f6e747261637420697320616c72656160448201526d191e481a5b9a5d1a585b1a5e995960921b6064820152608401610314565b6000805460ff191660011790558015610481576000805461ff0019166101001790555b61048961073e565b606580546001600160a01b0319166001600160a01b03841617905580156104ea576000805461ff0019169055604051600181527f7f26b83ff96e1f2b6a682f133852f6798a09c465da95921460cefb38474024989060200160405180910390a15b5050565b6065546040516370a0823160e01b81523060048201526000916001600160a01b0316906370a0823190602401602060405180830381865afa158015610537573d6000803e3d6000fd5b505050506040513d601f19601f8201168201806040525081019061055b91906107ea565b60655460675460405163a9059cbb60e01b81526001600160a01b03918216600482015260248101849052929350169063a9059cbb906044016020604051808303816000875af11580156105b2573d6000803e3d6000fd5b505050506040513d601f19601f820116820180604052508101906105d69190610803565b506067546040518281526001600160a01b03909116907f8461980fcfd4dd5fdee9260d0c6c5357a377f4d9315f3c7c4efb1fe26965b3ba9060200160405180910390a250565b610624610692565b6001600160a01b0381166106895760405162461bcd60e51b815260206004820152602660248201527f4f776e61626c653a206e6577206f776e657220697320746865207a65726f206160448201526564647265737360d01b6064820152608401610314565b610170816106ec565b6033546001600160a01b031633146103515760405162461bcd60e51b815260206004820181905260248201527f4f776e61626c653a2063616c6c6572206973206e6f7420746865206f776e65726044820152606401610314565b603380546001600160a01b038381166001600160a01b0319831681179093556040519116919082907f8be0079c531659141344cd1fd0a4f28419497f9722a3daafe3b4186f6b6457e090600090a35050565b600054610100900460ff166107655760405162461bcd60e51b815260040161031490610825565b610351600054610100900460ff1661078f5760405162461bcd60e51b815260040161031490610825565b610351336106ec565b6001600160a01b038116811461017057600080fd5b6000602082840312156107bf57600080fd5b81356107ca81610798565b9392505050565b6000602082840312156107e357600080fd5b5035919050565b6000602082840312156107fc57600080fd5b5051919050565b60006020828403121561081557600080fd5b815180151581146107ca57600080fd5b6020808252602b908201527f496e697469616c697a61626c653a20636f6e7472616374206973206e6f74206960408201526a6e697469616c697a696e6760a81b60608201526080019056fea2646970667358221220cd2044459a77c2ab595d013d74cca3b0ada66a446965777e5bd9b26096fb937f64736f6c634300080b0033",
  "linkReferences": {},
  "deployedLinkReferences": {}
}