{
  "_format": "hh-sol-artifact-1",
  "contractName": "BIBDividend",
  "sourceName": "contracts/community/BIBDividend.sol",
  "abi": [
    {
      "anonymous": false,
      "inputs": [
        {
          "indexed": true,
          "internalType": "uint256",
          "name": "newValue",
          "type": "uint256"
        },
        {
          "indexed": true,
          "internalType": "uint256",
          "name": "oldValue",
          "type": "uint256"
        }
      ],
      "name": "ClaimWaitUpdated",
      "type": "event"
    },
    {
      "anonymous": false,
      "inputs": [
        {
          "indexed": false,
          "internalType": "uint256",
          "name": "dripRatePerSecond",
          "type": "uint256"
        }
      ],
      "name": "DripRateChanged",
      "type": "event"
    },
    {
      "anonymous": false,
      "inputs": [
        {
          "indexed": false,
          "internalType": "uint8",
          "name": "version",
          "type": "uint8"
        }
      ],
      "name": "Initialized",
      "type": "event"
    },
    {
      "anonymous": false,
      "inputs": [
        {
          "indexed": true,
          "internalType": "address",
          "name": "user",
          "type": "address"
        },
        {
          "indexed": false,
          "internalType": "uint256",
          "name": "newTokens",
          "type": "uint256"
        }
      ],
      "name": "NodeClaimed",
      "type": "event"
    },
    {
      "anonymous": false,
      "inputs": [
        {
          "indexed": true,
          "internalType": "address",
          "name": "previousOwner",
          "type": "address"
        },
        {
          "indexed": true,
          "internalType": "address",
          "name": "newOwner",
          "type": "address"
        }
      ],
      "name": "OwnershipTransferred",
      "type": "event"
    },
    {
      "anonymous": false,
      "inputs": [
        {
          "indexed": true,
          "internalType": "address",
          "name": "user",
          "type": "address"
        },
        {
          "indexed": false,
          "internalType": "uint256",
          "name": "newTokens",
          "type": "uint256"
        }
      ],
      "name": "UserClaimed",
      "type": "event"
    },
    {
      "anonymous": false,
      "inputs": [
        {
          "indexed": true,
          "internalType": "address",
          "name": "to",
          "type": "address"
        },
        {
          "indexed": false,
          "internalType": "uint256",
          "name": "amount",
          "type": "uint256"
        }
      ],
      "name": "Withdrawn",
      "type": "event"
    },
    {
      "inputs": [
        {
          "components": [
            {
              "internalType": "uint256",
              "name": "lastExchangeRateMantissa",
              "type": "uint256"
            },
            {
              "internalType": "uint256",
              "name": "balance",
              "type": "uint256"
            },
            {
              "internalType": "uint256",
              "name": "totalClaim",
              "type": "uint256"
            },
            {
              "internalType": "uint256",
              "name": "unClaim",
              "type": "uint256"
            },
            {
              "internalType": "uint256",
              "name": "lastDividendPerShare",
              "type": "uint256"
            }
          ],
          "internalType": "struct BIBDividend.ExState",
          "name": "userState",
          "type": "tuple"
        },
        {
          "internalType": "uint256",
          "name": "_exchangeRateMantissa",
          "type": "uint256"
        },
        {
          "internalType": "uint256",
          "name": "_dividendPerShare",
          "type": "uint256"
        }
      ],
      "name": "_getUserAllRewards",
      "outputs": [
        {
          "internalType": "uint256",
          "name": "",
          "type": "uint256"
        }
      ],
      "stateMutability": "pure",
      "type": "function"
    },
    {
      "inputs": [],
      "name": "asset",
      "outputs": [
        {
          "internalType": "contract IERC20Upgradeable",
          "name": "",
          "type": "address"
        }
      ],
      "stateMutability": "view",
      "type": "function"
    },
    {
      "inputs": [],
      "name": "claimWait",
      "outputs": [
        {
          "internalType": "uint256",
          "name": "",
          "type": "uint256"
        }
      ],
      "stateMutability": "view",
      "type": "function"
    },
    {
      "inputs": [],
      "name": "controller",
      "outputs": [
        {
          "internalType": "address",
          "name": "",
          "type": "address"
        }
      ],
      "stateMutability": "view",
      "type": "function"
    },
    {
      "inputs": [
        {
          "internalType": "uint256",
          "name": "amount",
          "type": "uint256"
        }
      ],
      "name": "distributeDividends",
      "outputs": [],
      "stateMutability": "nonpayable",
      "type": "function"
    },
    {
      "inputs": [],
      "name": "dividendSetter",
      "outputs": [
        {
          "internalType": "address",
          "name": "",
          "type": "address"
        }
      ],
      "stateMutability": "view",
      "type": "function"
    },
    {
      "inputs": [],
      "name": "drip",
      "outputs": [
        {
          "internalType": "uint256",
          "name": "",
          "type": "uint256"
        }
      ],
      "stateMutability": "nonpayable",
      "type": "function"
    },
    {
      "inputs": [],
      "name": "dripRatePerSecond",
      "outputs": [
        {
          "internalType": "uint256",
          "name": "",
          "type": "uint256"
        }
      ],
      "stateMutability": "view",
      "type": "function"
    },
    {
      "inputs": [
        {
          "internalType": "address",
          "name": "_account",
          "type": "address"
        }
      ],
      "name": "getAccount",
      "outputs": [
        {
          "internalType": "address",
          "name": "account",
          "type": "address"
        },
        {
          "internalType": "int256",
          "name": "index",
          "type": "int256"
        },
        {
          "internalType": "int256",
          "name": "iterationsUntilProcessed",
          "type": "int256"
        },
        {
          "internalType": "uint256",
          "name": "withdrawableDividends",
          "type": "uint256"
        },
        {
          "internalType": "uint256",
          "name": "totalDividends",
          "type": "uint256"
        },
        {
          "internalType": "uint256",
          "name": "lastClaimTime",
          "type": "uint256"
        },
        {
          "internalType": "uint256",
          "name": "nextClaimTime",
          "type": "uint256"
        },
        {
          "internalType": "uint256",
          "name": "secondsUntilAutoClaimAvailable",
          "type": "uint256"
        }
      ],
      "stateMutability": "view",
      "type": "function"
    },
    {
      "inputs": [
        {
          "internalType": "uint256",
          "name": "index",
          "type": "uint256"
        }
      ],
      "name": "getAccountAtIndex",
      "outputs": [
        {
          "internalType": "address",
          "name": "",
          "type": "address"
        },
        {
          "internalType": "int256",
          "name": "",
          "type": "int256"
        },
        {
          "internalType": "int256",
          "name": "",
          "type": "int256"
        },
        {
          "internalType": "uint256",
          "name": "",
          "type": "uint256"
        },
        {
          "internalType": "uint256",
          "name": "",
          "type": "uint256"
        },
        {
          "internalType": "uint256",
          "name": "",
          "type": "uint256"
        },
        {
          "internalType": "uint256",
          "name": "",
          "type": "uint256"
        },
        {
          "internalType": "uint256",
          "name": "",
          "type": "uint256"
        }
      ],
      "stateMutability": "view",
      "type": "function"
    },
    {
      "inputs": [],
      "name": "getLastProcessedIndex",
      "outputs": [
        {
          "internalType": "uint256",
          "name": "",
          "type": "uint256"
        }
      ],
      "stateMutability": "view",
      "type": "function"
    },
    {
      "inputs": [
        {
          "internalType": "address",
          "name": "user",
          "type": "address"
        }
      ],
      "name": "getNodeUnClaim",
      "outputs": [
        {
          "internalType": "uint256",
          "name": "",
          "type": "uint256"
        }
      ],
      "stateMutability": "view",
      "type": "function"
    },
    {
      "inputs": [
        {
          "internalType": "address[]",
          "name": "users",
          "type": "address[]"
        }
      ],
      "name": "getNodesAllRewards",
      "outputs": [
        {
          "internalType": "uint256[]",
          "name": "rewards",
          "type": "uint256[]"
        }
      ],
      "stateMutability": "view",
      "type": "function"
    },
    {
      "inputs": [
        {
          "internalType": "address[]",
          "name": "users",
          "type": "address[]"
        }
      ],
      "name": "getNodesUnClaim",
      "outputs": [
        {
          "internalType": "uint256[]",
          "name": "unClaims",
          "type": "uint256[]"
        }
      ],
      "stateMutability": "view",
      "type": "function"
    },
    {
      "inputs": [],
      "name": "getNumberOfTokenHolders",
      "outputs": [
        {
          "internalType": "uint256",
          "name": "",
          "type": "uint256"
        }
      ],
      "stateMutability": "view",
      "type": "function"
    },
    {
      "inputs": [
        {
          "internalType": "address",
          "name": "_user",
          "type": "address"
        }
      ],
      "name": "getUserApr",
      "outputs": [
        {
          "internalType": "uint256",
          "name": "",
          "type": "uint256"
        }
      ],
      "stateMutability": "view",
      "type": "function"
    },
    {
      "inputs": [
        {
          "internalType": "address",
          "name": "user",
          "type": "address"
        }
      ],
      "name": "getUserUnClaim",
      "outputs": [
        {
          "internalType": "uint256",
          "name": "",
          "type": "uint256"
        }
      ],
      "stateMutability": "view",
      "type": "function"
    },
    {
      "inputs": [
        {
          "internalType": "address[]",
          "name": "users",
          "type": "address[]"
        }
      ],
      "name": "getUsersAllRewards",
      "outputs": [
        {
          "internalType": "uint256[]",
          "name": "rewards",
          "type": "uint256[]"
        }
      ],
      "stateMutability": "view",
      "type": "function"
    },
    {
      "inputs": [
        {
          "internalType": "address[]",
          "name": "users",
          "type": "address[]"
        }
      ],
      "name": "getUsersUnClaim",
      "outputs": [
        {
          "internalType": "uint256[]",
          "name": "unClaims",
          "type": "uint256[]"
        }
      ],
      "stateMutability": "view",
      "type": "function"
    },
    {
      "inputs": [
        {
          "internalType": "uint256",
          "name": "amount",
          "type": "uint256"
        }
      ],
      "name": "handleReceive",
      "outputs": [],
      "stateMutability": "nonpayable",
      "type": "function"
    },
    {
      "inputs": [
        {
          "internalType": "contract IERC20Upgradeable",
          "name": "_asset",
          "type": "address"
        },
        {
          "internalType": "uint256",
          "name": "_dripRatePerSecond",
          "type": "uint256"
        }
      ],
      "name": "initialize",
      "outputs": [],
      "stateMutability": "nonpayable",
      "type": "function"
    },
    {
      "inputs": [
        {
          "internalType": "address",
          "name": "",
          "type": "address"
        }
      ],
      "name": "lastClaimTimes",
      "outputs": [
        {
          "internalType": "uint256",
          "name": "",
          "type": "uint256"
        }
      ],
      "stateMutability": "view",
      "type": "function"
    },
    {
      "inputs": [],
      "name": "lastDripTimestamp",
      "outputs": [
        {
          "internalType": "uint32",
          "name": "",
          "type": "uint32"
        }
      ],
      "stateMutability": "view",
      "type": "function"
    },
    {
      "inputs": [],
      "name": "lastProcessedIndex",
      "outputs": [
        {
          "internalType": "uint256",
          "name": "",
          "type": "uint256"
        }
      ],
      "stateMutability": "view",
      "type": "function"
    },
    {
      "inputs": [],
      "name": "minimumTokenBalanceForDividends",
      "outputs": [
        {
          "internalType": "uint256",
          "name": "",
          "type": "uint256"
        }
      ],
      "stateMutability": "view",
      "type": "function"
    },
    {
      "inputs": [
        {
          "internalType": "address",
          "name": "user",
          "type": "address"
        }
      ],
      "name": "nodeClaim",
      "outputs": [
        {
          "internalType": "uint256",
          "name": "",
          "type": "uint256"
        }
      ],
      "stateMutability": "nonpayable",
      "type": "function"
    },
    {
      "inputs": [],
      "name": "nodeDividendPerShare",
      "outputs": [
        {
          "internalType": "uint256",
          "name": "",
          "type": "uint256"
        }
      ],
      "stateMutability": "view",
      "type": "function"
    },
    {
      "inputs": [],
      "name": "nodeExchangeRateMantissa",
      "outputs": [
        {
          "internalType": "uint256",
          "name": "",
          "type": "uint256"
        }
      ],
      "stateMutability": "view",
      "type": "function"
    },
    {
      "inputs": [],
      "name": "nodeRate",
      "outputs": [
        {
          "internalType": "uint256",
          "name": "",
          "type": "uint256"
        }
      ],
      "stateMutability": "view",
      "type": "function"
    },
    {
      "inputs": [
        {
          "internalType": "address",
          "name": "",
          "type": "address"
        }
      ],
      "name": "nodeStates",
      "outputs": [
        {
          "internalType": "uint256",
          "name": "lastExchangeRateMantissa",
          "type": "uint256"
        },
        {
          "internalType": "uint256",
          "name": "balance",
          "type": "uint256"
        },
        {
          "internalType": "uint256",
          "name": "totalClaim",
          "type": "uint256"
        },
        {
          "internalType": "uint256",
          "name": "unClaim",
          "type": "uint256"
        },
        {
          "internalType": "uint256",
          "name": "lastDividendPerShare",
          "type": "uint256"
        }
      ],
      "stateMutability": "view",
      "type": "function"
    },
    {
      "inputs": [],
      "name": "nodeTotalStake",
      "outputs": [
        {
          "internalType": "uint256",
          "name": "",
          "type": "uint256"
        }
      ],
      "stateMutability": "view",
      "type": "function"
    },
    {
      "inputs": [
        {
          "internalType": "uint256",
          "name": "",
          "type": "uint256"
        }
      ],
      "name": "nodeWeight",
      "outputs": [
        {
          "internalType": "uint256",
          "name": "",
          "type": "uint256"
        }
      ],
      "stateMutability": "view",
      "type": "function"
    },
    {
      "inputs": [],
      "name": "owner",
      "outputs": [
        {
          "internalType": "address",
          "name": "",
          "type": "address"
        }
      ],
      "stateMutability": "view",
      "type": "function"
    },
    {
      "inputs": [
        {
          "internalType": "uint256",
          "name": "gas",
          "type": "uint256"
        }
      ],
      "name": "process",
      "outputs": [
        {
          "internalType": "uint256",
          "name": "",
          "type": "uint256"
        },
        {
          "internalType": "uint256",
          "name": "",
          "type": "uint256"
        },
        {
          "internalType": "uint256",
          "name": "",
          "type": "uint256"
        }
      ],
      "stateMutability": "nonpayable",
      "type": "function"
    },
    {
      "inputs": [
        {
          "internalType": "address",
          "name": "account",
          "type": "address"
        },
        {
          "internalType": "bool",
          "name": "automatic",
          "type": "bool"
        }
      ],
      "name": "processAccount",
      "outputs": [
        {
          "internalType": "bool",
          "name": "",
          "type": "bool"
        }
      ],
      "stateMutability": "nonpayable",
      "type": "function"
    },
    {
      "inputs": [],
      "name": "renounceOwnership",
      "outputs": [],
      "stateMutability": "nonpayable",
      "type": "function"
    },
    {
      "inputs": [
        {
          "internalType": "address",
          "name": "_cntr",
          "type": "address"
        }
      ],
      "name": "setController",
      "outputs": [],
      "stateMutability": "nonpayable",
      "type": "function"
    },
    {
      "inputs": [
        {
          "internalType": "address",
          "name": "_setter",
          "type": "address"
        }
      ],
      "name": "setDividendSetter",
      "outputs": [],
      "stateMutability": "nonpayable",
      "type": "function"
    },
    {
      "inputs": [
        {
          "internalType": "uint256",
          "name": "_dripRatePerSecond",
          "type": "uint256"
        }
      ],
      "name": "setDripRatePerSecond",
      "outputs": [],
      "stateMutability": "nonpayable",
      "type": "function"
    },
    {
      "inputs": [
        {
          "internalType": "address",
          "name": "nodeOwner",
          "type": "address"
        },
        {
          "internalType": "uint256",
          "name": "amount",
          "type": "uint256"
        },
        {
          "internalType": "uint256",
          "name": "ticketId",
          "type": "uint256"
        },
        {
          "internalType": "uint256",
          "name": "weight",
          "type": "uint256"
        }
      ],
      "name": "setNodeBalance",
      "outputs": [],
      "stateMutability": "nonpayable",
      "type": "function"
    },
    {
      "inputs": [
        {
          "internalType": "address",
          "name": "user",
          "type": "address"
        },
        {
          "internalType": "uint256",
          "name": "ticketId",
          "type": "uint256"
        },
        {
          "internalType": "uint256",
          "name": "amount",
          "type": "uint256"
        }
      ],
      "name": "setUserBalance",
      "outputs": [],
      "stateMutability": "nonpayable",
      "type": "function"
    },
    {
      "inputs": [],
      "name": "totalDividendsDistributed",
      "outputs": [
        {
          "internalType": "uint256",
          "name": "",
          "type": "uint256"
        }
      ],
      "stateMutability": "view",
      "type": "function"
    },
    {
      "inputs": [],
      "name": "totalDrip",
      "outputs": [
        {
          "internalType": "uint256",
          "name": "",
          "type": "uint256"
        }
      ],
      "stateMutability": "view",
      "type": "function"
    },
    {
      "inputs": [
        {
          "internalType": "address",
          "name": "newOwner",
          "type": "address"
        }
      ],
      "name": "transferOwnership",
      "outputs": [],
      "stateMutability": "nonpayable",
      "type": "function"
    },
    {
      "inputs": [
        {
          "internalType": "uint256",
          "name": "newClaimWait",
          "type": "uint256"
        }
      ],
      "name": "updateClaimWait",
      "outputs": [],
      "stateMutability": "nonpayable",
      "type": "function"
    },
    {
      "inputs": [
        {
          "internalType": "address",
          "name": "user",
          "type": "address"
        }
      ],
      "name": "userClaim",
      "outputs": [
        {
          "internalType": "uint256",
          "name": "",
          "type": "uint256"
        }
      ],
      "stateMutability": "nonpayable",
      "type": "function"
    },
    {
      "inputs": [],
      "name": "userDividendPerShare",
      "outputs": [
        {
          "internalType": "uint256",
          "name": "",
          "type": "uint256"
        }
      ],
      "stateMutability": "view",
      "type": "function"
    },
    {
      "inputs": [],
      "name": "userExchangeRateMantissa",
      "outputs": [
        {
          "internalType": "uint256",
          "name": "",
          "type": "uint256"
        }
      ],
      "stateMutability": "view",
      "type": "function"
    },
    {
      "inputs": [
        {
          "internalType": "uint256",
          "name": "",
          "type": "uint256"
        }
      ],
      "name": "userNodeStates",
      "outputs": [
        {
          "internalType": "uint256",
          "name": "lastExchangeRateMantissa",
          "type": "uint256"
        },
        {
          "internalType": "uint256",
          "name": "balance",
          "type": "uint256"
        },
        {
          "internalType": "uint256",
          "name": "totalClaim",
          "type": "uint256"
        },
        {
          "internalType": "uint256",
          "name": "unClaim",
          "type": "uint256"
        },
        {
          "internalType": "uint256",
          "name": "lastDividendPerShare",
          "type": "uint256"
        }
      ],
      "stateMutability": "view",
      "type": "function"
    },
    {
      "inputs": [],
      "name": "userNodeTotalStake",
      "outputs": [
        {
          "internalType": "uint256",
          "name": "",
          "type": "uint256"
        }
      ],
      "stateMutability": "view",
      "type": "function"
    },
    {
      "inputs": [
        {
          "internalType": "address",
          "name": "",
          "type": "address"
        }
      ],
      "name": "userStakeStates",
      "outputs": [
        {
          "internalType": "uint256",
          "name": "unClaim",
          "type": "uint256"
        },
        {
          "internalType": "uint256",
          "name": "totalClaim",
          "type": "uint256"
        }
      ],
      "stateMutability": "view",
      "type": "function"
    },
    {
      "inputs": [
        {
          "internalType": "address",
          "name": "to",
          "type": "address"
        },
        {
          "internalType": "uint256",
          "name": "amount",
          "type": "uint256"
        }
      ],
      "name": "withdrawTo",
      "outputs": [],
      "stateMutability": "nonpayable",
      "type": "function"
    }
  ],
  "bytecode": "0x60a06040526014606955610e10607d55655af3107a400060805234801561002557600080fd5b50608051612fda610048600039600081816106790152610ac70152612fda6000f3fe608060405234801561001057600080fd5b506004361061030c5760003560e01c80638da5cb5b1161019d578063d2677c05116100e9578063e98030c7116100a2578063f77c47911161007c578063f77c47911461077c578063fbcbc0f11461078f578063fd380621146107a2578063ffb2c479146107ab57600080fd5b8063e98030c714610743578063f2fde38b14610756578063f39a19bf1461076957600080fd5b8063d2677c05146106d4578063d9772a25146106e7578063ddaf48481461070c578063dfb214771461071f578063e7841ec014610732578063e964058c1461073a57600080fd5b8063b3c1999e11610156578063be10b61411610130578063be10b61414610674578063c7f6d4cc1461069b578063ca5baafc146106ae578063cd6dc687146106c157600080fd5b8063b3c1999e14610635578063b6f0731614610648578063bc4c4b371461065157600080fd5b80638da5cb5b146105e457806392eefe9b146105f55780639f678cca146106085780639fd4e1cf14610610578063a57e643714610619578063a60d5a1a1461062257600080fd5b806338d52e0f1161025c5780635f13bb8d116102155780636f2789ec116101ef5780636f2789ec146105aa578063715018a6146105b357806380b49cdd146105bb57806385a6b3ae146105db57600080fd5b80635f13bb8d1461057b57806360a22e501461058e57806368fd2e9f1461059757600080fd5b806338d52e0f146104565780633bdfe437146104815780633df93072146104be5780633f7b2ed9146104d15780634195c410146105105780635183d6fd1461052357600080fd5b8063187f3334116102c957806325f3cbeb116102a357806325f3cbeb146103c25780633009a609146104275780633243c791146104305780633749ea101461044357600080fd5b8063187f333414610386578063205c28781461038f578063226cfa3d146103a257600080fd5b806304a8d8b514610311578063051020621461032657806309bbedde146103425780630a6b433f1461034a5780630d0246841461035d5780630fc1f0821461037d575b600080fd5b61032461031f366004612afb565b6107d9565b005b61032f606a5481565b6040519081526020015b60405180910390f35b60775461032f565b61032f610358366004612b30565b610be5565b61037061036b366004612b4d565b610ed2565b6040516103399190612bc2565b61032f606e5481565b61032f60685481565b61032461039d366004612c06565b610fd6565b61032f6103b0366004612b30565b607c6020526000908152604090205481565b6103ff6103d0366004612b30565b607460205260009081526040902080546001820154600283015460038401546004909401549293919290919085565b604080519586526020860194909452928401919091526060830152608082015260a001610339565b61032f607b5481565b61032461043e366004612c32565b611166565b61032f610451366004612b30565b611277565b606554610469906001600160a01b031681565b6040516001600160a01b039091168152602001610339565b6103ff61048f366004612c32565b607360205260009081526040902080546001820154600283015460038401546004909401549293919290919085565b61032f6104cc366004612b30565b6112e3565b6104fb6104df366004612b30565b6076602052600090815260409020600281015460039091015482565b60408051928352602083019190915201610339565b61032461051e366004612b30565b61143b565b610536610531366004612c32565b6114a9565b604080516001600160a01b0390991689526020890197909752958701949094526060860192909252608085015260a084015260c083015260e082015261010001610339565b606754610469906001600160a01b031681565b61032f606d5481565b6103706105a5366004612b4d565b6115fd565b61032f607d5481565b610324611711565b61032f6105c9366004612c32565b60756020526000908152604090205481565b61032f60705481565b6033546001600160a01b0316610469565b610324610603366004612b30565b611725565b61032f611793565b61032f606f5481565b61032f60725481565b61032f610630366004612c61565b6118a8565b610370610643366004612b4d565b6118d3565b61032f60715481565b61066461065f366004612d09565b6119ef565b6040519015158152602001610339565b61032f7f000000000000000000000000000000000000000000000000000000000000000081565b61032f6106a9366004612b30565b611a31565b6103246106bc366004612c32565b611b51565b6103246106cf366004612c06565b611bed565b6103706106e2366004612b4d565b611d1a565b606c546106f79063ffffffff1681565b60405163ffffffff9091168152602001610339565b61032461071a366004612c32565b611db0565b61032461072d366004612d42565b611e0a565b607b5461032f565b61032f606b5481565b610324610751366004612c32565b611ff0565b610324610764366004612b30565b61213e565b61032f610777366004612b30565b6121b4565b606654610469906001600160a01b031681565b61053661079d366004612b30565b61231f565b61032f60695481565b6107be6107b9366004612c32565b6124e0565b60408051938452602084019290925290820152606001610339565b6066546001600160a01b0316331461082a5760405162461bcd60e51b815260206004820152600f60248201526e27a7262cafa1a7a72a2927a62622a960891b60448201526064015b60405180910390fd5b610832611793565b5060008281526073602052604090206001810154606a54606e54610858939291906125fb565b506001600160a01b03831660009081526076602090815260408083208584526001908101835281842060759093529220549181015490916108c79183916108ac916064916108a6919061269b565b906126a7565b600086815260736020526040902080546004909101546125fb565b506001808201546000858152607360205260409020909101546108f59184916108ef916126b3565b906126bf565b6000848152607360209081526040808320600190810194909455607590915281205491830154909161092e916064916108a6919061269b565b60008581526075602052604081205491925090610953906064906108a690879061269b565b905061096e816108ef846071546126b390919063ffffffff16565b60715560018301541580156109835750600084115b156109b4576001600160a01b0386166000908152607660209081526040822080546001810182559083529120018590555b6001830184905583610ac5576001600160a01b03861660008181526076602081815260408084208a8552600180820184529185208581559182018590556002820185905560038201859055600490910184905593909252905280545b8015610ac25780610a2081612d93565b91505086828281548110610a3657610a36612daa565b90600052602060002001541415610abd5781548290610a5790600190612dc0565b81548110610a6757610a67612daa565b9060005260206000200154828281548110610a8457610a84612daa565b906000526020600020018190555081805480610aa257610aa2612dd7565b60019003818190600052602060002001600090559055610ac2565b610a10565b50505b7f00000000000000000000000000000000000000000000000000000000000000008410610b6a57604051632f0ad01760e21b8152607760048201526001600160a01b03871660248201526044810185905273__$4b09164eaf8a84d7a8044fedc88418fa6b$__9063bc2b405c9060640160006040518083038186803b158015610b4d57600080fd5b505af4158015610b61573d6000803e3d6000fd5b50505050610bdd565b60405163131836e760e21b8152607760048201526001600160a01b038716602482015273__$4b09164eaf8a84d7a8044fedc88418fa6b$__90634c60db9c9060440160006040518083038186803b158015610bc457600080fd5b505af4158015610bd8573d6000803e3d6000fd5b505050505b505050505050565b6000610bef611793565b506001600160a01b03821660009081526076602052604081206002810180549083905590915b8254811015610dd157610c8e60736000858481548110610c3757610c37612daa565b9060005260206000200154815260200190815260200160002060736000868581548110610c6657610c66612daa565b9060005260206000200154815260200190815260200160002060010154606a54606e546125fb565b50600060766000876001600160a01b03166001600160a01b031681526020019081526020016000206001016000858481548110610ccd57610ccd612daa565b906000526020600020015481526020019081526020016000209050610da281610d3760646108a6607560008a8981548110610d0a57610d0a612daa565b9060005260206000200154815260200190815260200160002054866001015461269b90919063ffffffff16565b60736000888781548110610d4d57610d4d612daa565b906000526020600020015481526020019081526020016000206000015460736000898881548110610d8057610d80612daa565b90600052602060002001548152602001908152602001600020600401546125fb565b506003810154610db290846126bf565b6000600390920191909155915080610dc981612ded565b915050610c15565b506001600160a01b038416600090815260766020526040902060030154610df890826126bf565b6001600160a01b038581166000818152607660205260409081902060030193909355606554925163a9059cbb60e01b815260048101919091526024810184905291169063a9059cbb906044016020604051808303816000875af1158015610e63573d6000803e3d6000fd5b505050506040513d601f19601f82011682018060405250810190610e879190612e08565b50836001600160a01b03167f5329b89678b0f095cae2abe10b88ad57329871ee9296ae8f358a46b9fa0ff32882604051610ec391815260200190565b60405180910390a29392505050565b60608167ffffffffffffffff811115610eed57610eed612c4b565b604051908082528060200260200182016040528015610f16578160200160208202803683370190505b50905060005b82811015610fcf57610fa060766000868685818110610f3d57610f3d612daa565b9050602002016020810190610f529190612b30565b6001600160a01b03166001600160a01b03168152602001908152602001600020600301546108ef868685818110610f8b57610f8b612daa565b90506020020160208101906104cc9190612b30565b828281518110610fb257610fb2612daa565b602090810291909101015280610fc781612ded565b915050610f1c565b5092915050565b610fde6126cb565b610fe6611793565b506065546040516370a0823160e01b81523060048201526000916001600160a01b0316906370a0823190602401602060405180830381865afa158015611030573d6000803e3d6000fd5b505050506040513d601f19601f820116820180604052508101906110549190612e25565b9050808211156110a65760405162461bcd60e51b815260206004820152601b60248201527f4469766964656e642f696e73756666696369656e742d66756e647300000000006044820152606401610821565b60655460405163a9059cbb60e01b81526001600160a01b038581166004830152602482018590529091169063a9059cbb906044016020604051808303816000875af11580156110f9573d6000803e3d6000fd5b505050506040513d601f19601f8201168201806040525081019061111d9190612e08565b50826001600160a01b03167f7084f5476618d8e60b11ef0d7d3f06914655adb8793e28ff7f018d4c76d505d58360405161115991815260200190565b60405180910390a2505050565b6067546001600160a01b031633146111b75760405162461bcd60e51b815260206004820152601460248201527327a7262cafa234bb34b232b7321029b2b2ba32b960611b6044820152606401610821565b8015806111d057506071546072546111ce916126bf565b155b156111d85750565b60006111f460646108a66069548561269b90919063ffffffff16565b6072549091501561122e5761121a606f546108ef607254846126a790919063ffffffff16565b606f5560705461122a90826126bf565b6070555b6071541561127257611255606e546108ef6071546108a685876126b390919063ffffffff16565b606e5561126e61126583836126b3565b607054906126bf565b6070555b505b50565b6001600160a01b0381166000908152607460209081526040808320815160a08101835281548152600182015493810193909352600281015491830191909152600381015460608301526004015460808201526112dd906112d5612725565b606f5461279b565b92915050565b6000806112ee61282a565b6001600160a01b0384166000908152607660205260408120600281015492935091905b825481101561143257600060766000886001600160a01b03166001600160a01b03168152602001908152602001600020600101600085848154811061135857611358612daa565b90600052602060002001548152602001908152602001600020905060006113c060646108a66075600089888154811061139357611393612daa565b9060005260206000200154815260200190815260200160002054856001015461269b90919063ffffffff16565b82549091506000906113d39088906126b3565b905060006113e183836128a3565b905060006114086114018660040154606e546126b390919063ffffffff16565b859061269b565b9050611418816108ef89856126bf565b96505050505050808061142a90612ded565b915050611311565b50949350505050565b6114436126cb565b6001600160a01b0381166114875760405162461bcd60e51b815260206004820152600b60248201526a24a72b2624a22fa0a2222960a91b6044820152606401610821565b606780546001600160a01b0319166001600160a01b0392909216919091179055565b600080600080600080600080607773__$4b09164eaf8a84d7a8044fedc88418fa6b$__63deb3d89690916040518263ffffffff1660e01b81526004016114f191815260200190565b602060405180830381865af415801561150e573d6000803e3d6000fd5b505050506040513d601f19601f820116820180604052508101906115329190612e25565b89106115575750600096506000199550859450869350839250829150819050806115f2565b6040516368d54f3f60e11b815260776004820152602481018a905260009073__$4b09164eaf8a84d7a8044fedc88418fa6b$__9063d1aa9e7e90604401602060405180830381865af41580156115b1573d6000803e3d6000fd5b505050506040513d601f19601f820116820180604052508101906115d59190612e3e565b90506115e08161231f565b98509850985098509850985098509850505b919395975091939597565b60608167ffffffffffffffff81111561161857611618612c4b565b604051908082528060200260200182016040528015611641578160200160208202803683370190505b50905060005b82811015610fcf576116e26074600086868581811061166857611668612daa565b905060200201602081019061167d9190612b30565b6001600160a01b03166001600160a01b031681526020019081526020016000206040518060a0016040529081600082015481526020016001820154815260200160028201548152602001600382015481526020016004820154815250506112d5612725565b8282815181106116f4576116f4612daa565b60209081029190910101528061170981612ded565b915050611647565b6117196126cb565b61172360006128c4565b565b61172d6126cb565b6001600160a01b0381166117715760405162461bcd60e51b815260206004820152600b60248201526a24a72b2624a22fa0a2222960a91b6044820152606401610821565b606680546001600160a01b0319166001600160a01b0392909216919091179055565b60008061179e612916565b606c5463ffffffff9182169250168114156117bb57600091505090565b606c546000906117d690839063ffffffff908116906126b316565b905060006117ef6068548361269b90919063ffffffff16565b9050600061180d60646108a66069548561269b90919063ffffffff16565b6072549091501561183b57600061182682607254612926565b606b5490915061183690826126bf565b606b55505b6071541561186f57600061185a61185284846126b3565b607154612926565b606a5490915061186a90826126bf565b606a55505b61187884612947565b606c805463ffffffff191663ffffffff928316179055606d5461189d9184906126bf16565b606d55509392505050565b6000806118b685858561279b565b60408601519091506118c890826126bf565b9150505b9392505050565b60608167ffffffffffffffff8111156118ee576118ee612c4b565b604051908082528060200260200182016040528015611917578160200160208202803683370190505b50905060005b82811015610fcf576119c06074600086868581811061193e5761193e612daa565b90506020020160208101906119539190612b30565b6001600160a01b03166001600160a01b031681526020019081526020016000206040518060a0016040529081600082015481526020016001820154815260200160028201548152602001600382015481526020016004820154815250506119b8612725565b606f546118a8565b8282815181106119d2576119d2612daa565b6020908102919091010152806119e781612ded565b91505061191d565b6000806119fb84610be5565b90508015611a275750506001600160a01b0382166000908152607c6020526040902042905560016112dd565b5060009392505050565b600060715460001415611a4657506000919050565b6001600160a01b03821660009081526076602052604081208190815b8154811015611b1557600060766000886001600160a01b03166001600160a01b031681526020019081526020016000206001016000848481548110611aa957611aa9612daa565b906000526020600020015481526020019081526020016000209050611ae6856108ef60646108a660756000898981548110610d0a57610d0a612daa565b9450611aff8160010154856126bf90919063ffffffff16565b9350508080611b0d90612ded565b915050611a62565b50611b48826108a6611b34607054606d546126bf90919063ffffffff16565b607154611b429088906126a7565b9061269b565b95945050505050565b611b596126cb565b60008111611ba95760405162461bcd60e51b815260206004820152601c60248201527f546f6b656e4661756365742f64726970526174652d67742d7a65726f000000006044820152606401610821565b611bb1611793565b5060688190556040518181527f3d38e7cd2e029035006f9977a727c8724cd41dffb6d2a40d9f66bd4c26836a329060200160405180910390a150565b600054600190610100900460ff16158015611c0f575060005460ff8083169116105b611c725760405162461bcd60e51b815260206004820152602e60248201527f496e697469616c697a61626c653a20636f6e747261637420697320616c72656160448201526d191e481a5b9a5d1a585b1a5e995960921b6064820152608401610821565b6000805461ffff191660ff831617610100179055611c8e6129b0565b611c96612916565b606c805463ffffffff191663ffffffff92909216919091179055606580546001600160a01b0319166001600160a01b038516179055611cd482611b51565b6000805461ff001916905560405160ff821681527f7f26b83ff96e1f2b6a682f133852f6798a09c465da95921460cefb38474024989060200160405180910390a1505050565b60608167ffffffffffffffff811115611d3557611d35612c4b565b604051908082528060200260200182016040528015611d5e578160200160208202803683370190505b50905060005b82811015610fcf57611d81848483818110610f8b57610f8b612daa565b828281518110611d9357611d93612daa565b602090810291909101015280611da881612ded565b915050611d64565b6067546001600160a01b03163314611e015760405162461bcd60e51b815260206004820152601460248201527327a7262cafa234bb34b232b7321029b2b2ba32b960611b6044820152606401610821565b61127481611166565b6066546001600160a01b03163314611e565760405162461bcd60e51b815260206004820152600f60248201526e27a7262cafa1a7a72a2927a62622a960891b6044820152606401610821565b611e5e611793565b506001600160a01b03841660009081526074602052604090206001810154606b54606f54611e8e939291906125fb565b506001600160a01b038416600090815260746020526040902060010154607254611ebd9185916108ef916126b3565b6072556001600160a01b038416600090815260746020908152604080832060010186905584835260759091529020548114611f71576000828152607560209081526040808320546073909252822060010154611f1f916064916108a69161269b565b60008481526073602052604081206001015491925090611f3f908461269b565b9050611f5a816108ef846071546126b390919063ffffffff16565b607155505060008281526075602052604090208190555b604051632f0ad01760e21b8152607760048201526001600160a01b03851660248201526044810184905273__$4b09164eaf8a84d7a8044fedc88418fa6b$__9063bc2b405c9060640160006040518083038186803b158015611fd257600080fd5b505af4158015611fe6573d6000803e3d6000fd5b5050505050505050565b611ff86126cb565b610e10811015801561200d5750620151808111155b6120935760405162461bcd60e51b815260206004820152604b60248201527f546f6b656e5f4469766964656e645f547261636b65723a20636c61696d57616960448201527f74206d757374206265207570646174656420746f206265747765656e2031206160648201526a6e6420323420686f75727360a81b608482015260a401610821565b607d5481141561210b5760405162461bcd60e51b815260206004820152603d60248201527f546f6b656e5f4469766964656e645f547261636b65723a2043616e6e6f74207560448201527f706461746520636c61696d5761697420746f2073616d652076616c75650000006064820152608401610821565b607d5460405182907f474ea64804364a1e29a4487ddb63c3342a2dd826ccd8acf48825e680a0e6f20f90600090a3607d55565b6121466126cb565b6001600160a01b0381166121ab5760405162461bcd60e51b815260206004820152602660248201527f4f776e61626c653a206e6577206f776e657220697320746865207a65726f206160448201526564647265737360d01b6064820152608401610821565b611274816128c4565b60006121be611793565b506001600160a01b03821660009081526074602052604090206001810154606b54606f546121ee939291906125fb565b506001600160a01b03821660009081526074602052604090206003015461221757506000919050565b6001600160a01b03821660009081526074602052604081206003810180549290556002015461224690826126bf565b6001600160a01b038481166000818152607460205260409081902060020193909355606554925163a9059cbb60e01b815260048101919091526024810184905291169063a9059cbb906044016020604051808303816000875af11580156122b1573d6000803e3d6000fd5b505050506040513d601f19601f820116820180604052508101906122d59190612e08565b50826001600160a01b03167f638b31b360307f664fe65f94e19b3fb3b6569d947245b7195cff88cf1c0e1c148260405161231191815260200190565b60405180910390a292915050565b6040516317e142d160e01b8152607760048201526001600160a01b0382166024820152819060009081908190819081908190819073__$4b09164eaf8a84d7a8044fedc88418fa6b$__906317e142d190604401602060405180830381865af415801561238f573d6000803e3d6000fd5b505050506040513d601f19601f820116820180604052508101906123b39190612e25565b965060001995506000871261241557607b548711156123e157607b546123da9088906129df565b9550612415565b607b54607754600091106123f6576000612405565b607b54607754612405916126b3565b90506124118882612a2b565b9650505b6001600160a01b038816600090815260746020908152604080832060030154607690925290912060020154612449916126bf565b6001600160a01b03891660009081526074602090815260408083206002015460769092529091206003015491965061248191906126bf565b6001600160a01b0389166000908152607c60205260409020549094509250826124ab5760006124b9565b607d546124b99084906126bf565b91504282116124c95760006124d3565b6124d382426126b3565b9050919395975091939597565b6077546000908190819080612500575050607b54600092508291506125f4565b607b546000805a90506000805b898410801561251b57508582105b156125e3578461252a81612ded565b6077549096508610905061253d57600094505b60006077600001868154811061255557612555612daa565b60009182526020808320909101546001600160a01b0316808352607c90915260409091205490915061258690612a69565b156125a9576125968160016119ef565b156125a957816125a581612ded565b9250505b826125b381612ded565b93505060005a9050808511156125da576125d76125d086836126b3565b87906126bf565b95505b935061250d9050565b607b85905590975095509193505050505b9193909250565b835460009083141561260f57506000612693565b845460009061261f9085906126b3565b9050600061262d86836128a3565b858855600388015490915061264290826126bf565b600388015560048701546000906126659061265e9087906126b3565b889061269b565b60048901869055600389015490915061267e90826126bf565b600389015561268d82826126bf565b93505050505b949350505050565b60006118cc8284612e5b565b60006118cc8284612e7a565b60006118cc8284612dc0565b60006118cc8284612e9c565b6033546001600160a01b031633146117235760405162461bcd60e51b815260206004820181905260248201527f4f776e61626c653a2063616c6c6572206973206e6f7420746865206f776e65726044820152606401610821565b606c54600090819063ffffffff1661273b612916565b6127459190612eb4565b63ffffffff16905060006127646068548361269b90919063ffffffff16565b9050600061278260646108a66069548561269b90919063ffffffff16565b9050612793606b5460725483612a90565b935050505090565b6000806127bd8560200151611b428760800151866126b390919063ffffffff16565b85519091508414156127e05760608501516127d890826126bf565b9150506118cc565b84516000906127f09086906126b3565b905060006128028760200151836128a3565b905061281f836108ef838a606001516126bf90919063ffffffff16565b979650505050505050565b606c54600090819063ffffffff16612840612916565b61284a9190612eb4565b63ffffffff16905060006128696068548361269b90919063ffffffff16565b9050600061288760646108a66069548561269b90919063ffffffff16565b606a546071549192506127939161289e85856126b3565b612a90565b6000806128b0838561269b565b905061269381670de0b6b3a76400006126a7565b603380546001600160a01b038381166001600160a01b0319831681179093556040519116919082907f8be0079c531659141344cd1fd0a4f28419497f9722a3daafe3b4186f6b6457e090600090a35050565b600061292142612947565b905090565b60008061293b84670de0b6b3a764000061269b565b905061269381846126a7565b600063ffffffff8211156129ac5760405162461bcd60e51b815260206004820152602660248201527f53616665436173743a2076616c756520646f65736e27742066697420696e203360448201526532206269747360d01b6064820152608401610821565b5090565b600054610100900460ff166129d75760405162461bcd60e51b815260040161082190612ed9565b611723612ab6565b60008082121580156129fa5750826129f78382612f24565b13155b80612a185750600082128015612a18575082612a168382612f24565b135b612a2157600080fd5b6118cc8284612f24565b600080612a388385612f63565b905060008312158015612a4b5750838112155b80612a605750600083128015612a6057508381125b6118cc57600080fd5b600042821115612a7b57506000919050565b607d54612a8842846126b3565b101592915050565b600082612a9e5750826118cc565b6000612aaa8385612926565b90506118c881866126bf565b600054610100900460ff16612add5760405162461bcd60e51b815260040161082190612ed9565b611723336128c4565b6001600160a01b038116811461127457600080fd5b600080600060608486031215612b1057600080fd5b8335612b1b81612ae6565b95602085013595506040909401359392505050565b600060208284031215612b4257600080fd5b81356118cc81612ae6565b60008060208385031215612b6057600080fd5b823567ffffffffffffffff80821115612b7857600080fd5b818501915085601f830112612b8c57600080fd5b813581811115612b9b57600080fd5b8660208260051b8501011115612bb057600080fd5b60209290920196919550909350505050565b6020808252825182820181905260009190848201906040850190845b81811015612bfa57835183529284019291840191600101612bde565b50909695505050505050565b60008060408385031215612c1957600080fd5b8235612c2481612ae6565b946020939093013593505050565b600060208284031215612c4457600080fd5b5035919050565b634e487b7160e01b600052604160045260246000fd5b600080600083850360e0811215612c7757600080fd5b60a0811215612c8557600080fd5b5060405160a0810181811067ffffffffffffffff82111715612cb757634e487b7160e01b600052604160045260246000fd5b60409081528535825260208087013590830152858101359082015260608086013590820152608080860135908201529560a0850135955060c0909401359392505050565b801515811461127457600080fd5b60008060408385031215612d1c57600080fd5b8235612d2781612ae6565b91506020830135612d3781612cfb565b809150509250929050565b60008060008060808587031215612d5857600080fd5b8435612d6381612ae6565b966020860135965060408601359560600135945092505050565b634e487b7160e01b600052601160045260246000fd5b600081612da257612da2612d7d565b506000190190565b634e487b7160e01b600052603260045260246000fd5b600082821015612dd257612dd2612d7d565b500390565b634e487b7160e01b600052603160045260246000fd5b6000600019821415612e0157612e01612d7d565b5060010190565b600060208284031215612e1a57600080fd5b81516118cc81612cfb565b600060208284031215612e3757600080fd5b5051919050565b600060208284031215612e5057600080fd5b81516118cc81612ae6565b6000816000190483118215151615612e7557612e75612d7d565b500290565b600082612e9757634e487b7160e01b600052601260045260246000fd5b500490565b60008219821115612eaf57612eaf612d7d565b500190565b600063ffffffff83811690831681811015612ed157612ed1612d7d565b039392505050565b6020808252602b908201527f496e697469616c697a61626c653a20636f6e7472616374206973206e6f74206960408201526a6e697469616c697a696e6760a81b606082015260800190565b60008083128015600160ff1b850184121615612f4257612f42612d7d565b6001600160ff1b0384018313811615612f5d57612f5d612d7d565b50500390565b600080821280156001600160ff1b0384900385131615612f8557612f85612d7d565b600160ff1b8390038412811615612f9e57612f9e612d7d565b5050019056fea2646970667358221220f868d2ba751c9f5b052cd94c0dfa3f03ba0bbbd71ecd406e76c9831f940c9daf64736f6c634300080b0033",
  "linkReferences": {
    "contracts/lib/IterableMapping.sol": {
      "IterableMapping": [
        {
          "length": 20,
          "start": 2912
        },
        {
          "length": 20,
          "start": 3031
        },
        {
          "length": 20,
          "start": 5377
        },
        {
          "length": 20,
          "start": 5567
        },
        {
          "length": 20,
          "start": 8165
        },
        {
          "length": 20,
          "start": 9117
        }
      ]
    }
  },
  "deployedLinkReferences": {
    "contracts/lib/IterableMapping.sol": {
      "IterableMapping": [
        {
          "length": 20,
          "start": 2840
        },
        {
          "length": 20,
          "start": 2959
        },
        {
          "length": 20,
          "start": 5305
        },
        {
          "length": 20,
          "start": 5495
        },
        {
          "length": 20,
          "start": 8093
        },
        {
          "length": 20,
          "start": 9045
        }
      ]
    }
  }
}