{
  "_format": "hh-sol-artifact-1",
  "contractName": "BIBDividend",
  "sourceName": "contracts/community/BIBDividend.sol",
  "abi": [
    {
      "anonymous": false,
      "inputs": [
        {
          "indexed": true,
          "internalType": "uint256",
          "name": "newValue",
          "type": "uint256"
        },
        {
          "indexed": true,
          "internalType": "uint256",
          "name": "oldValue",
          "type": "uint256"
        }
      ],
      "name": "ClaimWaitUpdated",
      "type": "event"
    },
    {
      "anonymous": false,
      "inputs": [
        {
          "indexed": false,
          "internalType": "uint256",
          "name": "dripRatePerSecond",
          "type": "uint256"
        }
      ],
      "name": "DripRateChanged",
      "type": "event"
    },
    {
      "anonymous": false,
      "inputs": [
        {
          "indexed": false,
          "internalType": "uint8",
          "name": "version",
          "type": "uint8"
        }
      ],
      "name": "Initialized",
      "type": "event"
    },
    {
      "anonymous": false,
      "inputs": [
        {
          "indexed": true,
          "internalType": "address",
          "name": "user",
          "type": "address"
        },
        {
          "indexed": false,
          "internalType": "uint256",
          "name": "newTokens",
          "type": "uint256"
        }
      ],
      "name": "NodeClaimed",
      "type": "event"
    },
    {
      "anonymous": false,
      "inputs": [
        {
          "indexed": false,
          "internalType": "uint256",
          "name": "nodeRate",
          "type": "uint256"
        }
      ],
      "name": "NodeRateChange",
      "type": "event"
    },
    {
      "anonymous": false,
      "inputs": [
        {
          "indexed": true,
          "internalType": "address",
          "name": "previousOwner",
          "type": "address"
        },
        {
          "indexed": true,
          "internalType": "address",
          "name": "newOwner",
          "type": "address"
        }
      ],
      "name": "OwnershipTransferred",
      "type": "event"
    },
    {
      "anonymous": false,
      "inputs": [
        {
          "indexed": true,
          "internalType": "address",
          "name": "user",
          "type": "address"
        },
        {
          "indexed": false,
          "internalType": "uint256",
          "name": "newTokens",
          "type": "uint256"
        }
      ],
      "name": "UserClaimed",
      "type": "event"
    },
    {
      "anonymous": false,
      "inputs": [
        {
          "indexed": true,
          "internalType": "address",
          "name": "to",
          "type": "address"
        },
        {
          "indexed": false,
          "internalType": "uint256",
          "name": "amount",
          "type": "uint256"
        }
      ],
      "name": "Withdrawn",
      "type": "event"
    },
    {
      "inputs": [
        {
          "components": [
            {
              "internalType": "uint256",
              "name": "lastExchangeRateMantissa",
              "type": "uint256"
            },
            {
              "internalType": "uint256",
              "name": "balance",
              "type": "uint256"
            },
            {
              "internalType": "uint256",
              "name": "totalClaim",
              "type": "uint256"
            },
            {
              "internalType": "uint256",
              "name": "unClaim",
              "type": "uint256"
            },
            {
              "internalType": "uint256",
              "name": "lastDividendPerShare",
              "type": "uint256"
            }
          ],
          "internalType": "struct BIBDividend.ExState",
          "name": "userState",
          "type": "tuple"
        },
        {
          "internalType": "uint256",
          "name": "_exchangeRateMantissa",
          "type": "uint256"
        },
        {
          "internalType": "uint256",
          "name": "_dividendPerShare",
          "type": "uint256"
        }
      ],
      "name": "_getUserAllRewards",
      "outputs": [
        {
          "internalType": "uint256",
          "name": "",
          "type": "uint256"
        }
      ],
      "stateMutability": "pure",
      "type": "function"
    },
    {
      "inputs": [],
      "name": "asset",
      "outputs": [
        {
          "internalType": "contract IERC20Upgradeable",
          "name": "",
          "type": "address"
        }
      ],
      "stateMutability": "view",
      "type": "function"
    },
    {
      "inputs": [],
      "name": "claimWait",
      "outputs": [
        {
          "internalType": "uint256",
          "name": "",
          "type": "uint256"
        }
      ],
      "stateMutability": "view",
      "type": "function"
    },
    {
      "inputs": [],
      "name": "controller",
      "outputs": [
        {
          "internalType": "address",
          "name": "",
          "type": "address"
        }
      ],
      "stateMutability": "view",
      "type": "function"
    },
    {
      "inputs": [
        {
          "internalType": "address",
          "name": "nodeOwner",
          "type": "address"
        },
        {
          "internalType": "uint256",
          "name": "ticketId",
          "type": "uint256"
        }
      ],
      "name": "disbandNode",
      "outputs": [],
      "stateMutability": "nonpayable",
      "type": "function"
    },
    {
      "inputs": [
        {
          "internalType": "uint256",
          "name": "amount",
          "type": "uint256"
        }
      ],
      "name": "distributeDividends",
      "outputs": [],
      "stateMutability": "nonpayable",
      "type": "function"
    },
    {
      "inputs": [],
      "name": "dividendSetter",
      "outputs": [
        {
          "internalType": "address",
          "name": "",
          "type": "address"
        }
      ],
      "stateMutability": "view",
      "type": "function"
    },
    {
      "inputs": [],
      "name": "drip",
      "outputs": [
        {
          "internalType": "uint256",
          "name": "",
          "type": "uint256"
        }
      ],
      "stateMutability": "nonpayable",
      "type": "function"
    },
    {
      "inputs": [],
      "name": "dripRatePerSecond",
      "outputs": [
        {
          "internalType": "uint256",
          "name": "",
          "type": "uint256"
        }
      ],
      "stateMutability": "view",
      "type": "function"
    },
    {
      "inputs": [
        {
          "internalType": "address",
          "name": "_account",
          "type": "address"
        }
      ],
      "name": "getAccount",
      "outputs": [
        {
          "internalType": "address",
          "name": "account",
          "type": "address"
        },
        {
          "internalType": "int256",
          "name": "index",
          "type": "int256"
        },
        {
          "internalType": "int256",
          "name": "iterationsUntilProcessed",
          "type": "int256"
        },
        {
          "internalType": "uint256",
          "name": "withdrawableDividends",
          "type": "uint256"
        },
        {
          "internalType": "uint256",
          "name": "totalDividends",
          "type": "uint256"
        },
        {
          "internalType": "uint256",
          "name": "lastClaimTime",
          "type": "uint256"
        },
        {
          "internalType": "uint256",
          "name": "nextClaimTime",
          "type": "uint256"
        },
        {
          "internalType": "uint256",
          "name": "secondsUntilAutoClaimAvailable",
          "type": "uint256"
        }
      ],
      "stateMutability": "view",
      "type": "function"
    },
    {
      "inputs": [
        {
          "internalType": "uint256",
          "name": "index",
          "type": "uint256"
        }
      ],
      "name": "getAccountAtIndex",
      "outputs": [
        {
          "internalType": "address",
          "name": "",
          "type": "address"
        },
        {
          "internalType": "int256",
          "name": "",
          "type": "int256"
        },
        {
          "internalType": "int256",
          "name": "",
          "type": "int256"
        },
        {
          "internalType": "uint256",
          "name": "",
          "type": "uint256"
        },
        {
          "internalType": "uint256",
          "name": "",
          "type": "uint256"
        },
        {
          "internalType": "uint256",
          "name": "",
          "type": "uint256"
        },
        {
          "internalType": "uint256",
          "name": "",
          "type": "uint256"
        },
        {
          "internalType": "uint256",
          "name": "",
          "type": "uint256"
        }
      ],
      "stateMutability": "view",
      "type": "function"
    },
    {
      "inputs": [],
      "name": "getLastProcessedIndex",
      "outputs": [
        {
          "internalType": "uint256",
          "name": "",
          "type": "uint256"
        }
      ],
      "stateMutability": "view",
      "type": "function"
    },
    {
      "inputs": [
        {
          "internalType": "address",
          "name": "user",
          "type": "address"
        }
      ],
      "name": "getNodeUnClaim",
      "outputs": [
        {
          "internalType": "uint256",
          "name": "",
          "type": "uint256"
        }
      ],
      "stateMutability": "view",
      "type": "function"
    },
    {
      "inputs": [
        {
          "internalType": "address[]",
          "name": "users",
          "type": "address[]"
        }
      ],
      "name": "getNodesAllRewards",
      "outputs": [
        {
          "internalType": "uint256[]",
          "name": "rewards",
          "type": "uint256[]"
        }
      ],
      "stateMutability": "view",
      "type": "function"
    },
    {
      "inputs": [
        {
          "internalType": "address[]",
          "name": "users",
          "type": "address[]"
        }
      ],
      "name": "getNodesUnClaim",
      "outputs": [
        {
          "internalType": "uint256[]",
          "name": "unClaims",
          "type": "uint256[]"
        }
      ],
      "stateMutability": "view",
      "type": "function"
    },
    {
      "inputs": [],
      "name": "getNumberOfTokenHolders",
      "outputs": [
        {
          "internalType": "uint256",
          "name": "",
          "type": "uint256"
        }
      ],
      "stateMutability": "view",
      "type": "function"
    },
    {
      "inputs": [
        {
          "internalType": "address",
          "name": "_user",
          "type": "address"
        }
      ],
      "name": "getUserApr",
      "outputs": [
        {
          "internalType": "uint256",
          "name": "",
          "type": "uint256"
        }
      ],
      "stateMutability": "view",
      "type": "function"
    },
    {
      "inputs": [
        {
          "internalType": "address",
          "name": "user",
          "type": "address"
        }
      ],
      "name": "getUserUnClaim",
      "outputs": [
        {
          "internalType": "uint256",
          "name": "newTokens",
          "type": "uint256"
        }
      ],
      "stateMutability": "view",
      "type": "function"
    },
    {
      "inputs": [
        {
          "internalType": "address",
          "name": "user",
          "type": "address"
        }
      ],
      "name": "getUserUnClaimWithNode",
      "outputs": [
        {
          "internalType": "uint256[]",
          "name": "_nodeList",
          "type": "uint256[]"
        },
        {
          "internalType": "uint256[]",
          "name": "_rewardsList",
          "type": "uint256[]"
        }
      ],
      "stateMutability": "view",
      "type": "function"
    },
    {
      "inputs": [
        {
          "internalType": "address[]",
          "name": "users",
          "type": "address[]"
        }
      ],
      "name": "getUsersAllRewards",
      "outputs": [
        {
          "internalType": "uint256[]",
          "name": "rewards",
          "type": "uint256[]"
        }
      ],
      "stateMutability": "view",
      "type": "function"
    },
    {
      "inputs": [
        {
          "internalType": "address[]",
          "name": "users",
          "type": "address[]"
        }
      ],
      "name": "getUsersUnClaim",
      "outputs": [
        {
          "internalType": "uint256[]",
          "name": "unClaims",
          "type": "uint256[]"
        }
      ],
      "stateMutability": "view",
      "type": "function"
    },
    {
      "inputs": [
        {
          "internalType": "uint256",
          "name": "amount",
          "type": "uint256"
        }
      ],
      "name": "handleReceive",
      "outputs": [],
      "stateMutability": "nonpayable",
      "type": "function"
    },
    {
      "inputs": [
        {
          "internalType": "contract IERC20Upgradeable",
          "name": "_asset",
          "type": "address"
        },
        {
          "internalType": "uint256",
          "name": "_dripRatePerSecond",
          "type": "uint256"
        }
      ],
      "name": "initialize",
      "outputs": [],
      "stateMutability": "nonpayable",
      "type": "function"
    },
    {
      "inputs": [
        {
          "internalType": "address",
          "name": "",
          "type": "address"
        }
      ],
      "name": "lastClaimTimes",
      "outputs": [
        {
          "internalType": "uint256",
          "name": "",
          "type": "uint256"
        }
      ],
      "stateMutability": "view",
      "type": "function"
    },
    {
      "inputs": [],
      "name": "lastDripTimestamp",
      "outputs": [
        {
          "internalType": "uint32",
          "name": "",
          "type": "uint32"
        }
      ],
      "stateMutability": "view",
      "type": "function"
    },
    {
      "inputs": [],
      "name": "lastProcessedIndex",
      "outputs": [
        {
          "internalType": "uint256",
          "name": "",
          "type": "uint256"
        }
      ],
      "stateMutability": "view",
      "type": "function"
    },
    {
      "inputs": [],
      "name": "minimumTokenBalanceForDividends",
      "outputs": [
        {
          "internalType": "uint256",
          "name": "",
          "type": "uint256"
        }
      ],
      "stateMutability": "view",
      "type": "function"
    },
    {
      "inputs": [
        {
          "internalType": "address",
          "name": "user",
          "type": "address"
        }
      ],
      "name": "nodeClaim",
      "outputs": [
        {
          "internalType": "uint256",
          "name": "",
          "type": "uint256"
        }
      ],
      "stateMutability": "nonpayable",
      "type": "function"
    },
    {
      "inputs": [],
      "name": "nodeDividendPerShare",
      "outputs": [
        {
          "internalType": "uint256",
          "name": "",
          "type": "uint256"
        }
      ],
      "stateMutability": "view",
      "type": "function"
    },
    {
      "inputs": [],
      "name": "nodeExchangeRateMantissa",
      "outputs": [
        {
          "internalType": "uint256",
          "name": "",
          "type": "uint256"
        }
      ],
      "stateMutability": "view",
      "type": "function"
    },
    {
      "inputs": [],
      "name": "nodeRate",
      "outputs": [
        {
          "internalType": "uint256",
          "name": "",
          "type": "uint256"
        }
      ],
      "stateMutability": "view",
      "type": "function"
    },
    {
      "inputs": [
        {
          "internalType": "address",
          "name": "",
          "type": "address"
        }
      ],
      "name": "nodeStates",
      "outputs": [
        {
          "internalType": "uint256",
          "name": "lastExchangeRateMantissa",
          "type": "uint256"
        },
        {
          "internalType": "uint256",
          "name": "balance",
          "type": "uint256"
        },
        {
          "internalType": "uint256",
          "name": "totalClaim",
          "type": "uint256"
        },
        {
          "internalType": "uint256",
          "name": "unClaim",
          "type": "uint256"
        },
        {
          "internalType": "uint256",
          "name": "lastDividendPerShare",
          "type": "uint256"
        }
      ],
      "stateMutability": "view",
      "type": "function"
    },
    {
      "inputs": [],
      "name": "nodeTotalStake",
      "outputs": [
        {
          "internalType": "uint256",
          "name": "",
          "type": "uint256"
        }
      ],
      "stateMutability": "view",
      "type": "function"
    },
    {
      "inputs": [
        {
          "internalType": "uint256",
          "name": "",
          "type": "uint256"
        }
      ],
      "name": "nodeWeight",
      "outputs": [
        {
          "internalType": "uint256",
          "name": "",
          "type": "uint256"
        }
      ],
      "stateMutability": "view",
      "type": "function"
    },
    {
      "inputs": [],
      "name": "owner",
      "outputs": [
        {
          "internalType": "address",
          "name": "",
          "type": "address"
        }
      ],
      "stateMutability": "view",
      "type": "function"
    },
    {
      "inputs": [
        {
          "internalType": "uint256",
          "name": "gas",
          "type": "uint256"
        }
      ],
      "name": "process",
      "outputs": [
        {
          "internalType": "uint256",
          "name": "",
          "type": "uint256"
        },
        {
          "internalType": "uint256",
          "name": "",
          "type": "uint256"
        },
        {
          "internalType": "uint256",
          "name": "",
          "type": "uint256"
        }
      ],
      "stateMutability": "nonpayable",
      "type": "function"
    },
    {
      "inputs": [
        {
          "internalType": "address",
          "name": "account",
          "type": "address"
        },
        {
          "internalType": "bool",
          "name": "automatic",
          "type": "bool"
        }
      ],
      "name": "processAccount",
      "outputs": [
        {
          "internalType": "bool",
          "name": "",
          "type": "bool"
        }
      ],
      "stateMutability": "nonpayable",
      "type": "function"
    },
    {
      "inputs": [],
      "name": "renounceOwnership",
      "outputs": [],
      "stateMutability": "nonpayable",
      "type": "function"
    },
    {
      "inputs": [
        {
          "internalType": "address",
          "name": "_asset",
          "type": "address"
        }
      ],
      "name": "setAsset",
      "outputs": [],
      "stateMutability": "nonpayable",
      "type": "function"
    },
    {
      "inputs": [
        {
          "internalType": "address",
          "name": "_cntr",
          "type": "address"
        }
      ],
      "name": "setController",
      "outputs": [],
      "stateMutability": "nonpayable",
      "type": "function"
    },
    {
      "inputs": [
        {
          "internalType": "address",
          "name": "_setter",
          "type": "address"
        }
      ],
      "name": "setDividendSetter",
      "outputs": [],
      "stateMutability": "nonpayable",
      "type": "function"
    },
    {
      "inputs": [
        {
          "internalType": "uint256",
          "name": "_dripRatePerSecond",
          "type": "uint256"
        }
      ],
      "name": "setDripRatePerSecond",
      "outputs": [],
      "stateMutability": "nonpayable",
      "type": "function"
    },
    {
      "inputs": [
        {
          "internalType": "address",
          "name": "nodeOwner",
          "type": "address"
        },
        {
          "internalType": "uint256",
          "name": "amount",
          "type": "uint256"
        },
        {
          "internalType": "uint256",
          "name": "ticketId",
          "type": "uint256"
        },
        {
          "internalType": "uint256",
          "name": "weight",
          "type": "uint256"
        }
      ],
      "name": "setNodeBalance",
      "outputs": [],
      "stateMutability": "nonpayable",
      "type": "function"
    },
    {
      "inputs": [
        {
          "internalType": "uint256",
          "name": "_nodeRate",
          "type": "uint256"
        }
      ],
      "name": "setNodeRate",
      "outputs": [],
      "stateMutability": "nonpayable",
      "type": "function"
    },
    {
      "inputs": [
        {
          "internalType": "address",
          "name": "user",
          "type": "address"
        },
        {
          "internalType": "uint256",
          "name": "ticketId",
          "type": "uint256"
        },
        {
          "internalType": "uint256",
          "name": "amount",
          "type": "uint256"
        }
      ],
      "name": "setUserBalance",
      "outputs": [],
      "stateMutability": "nonpayable",
      "type": "function"
    },
    {
      "inputs": [],
      "name": "totalDividendsDistributed",
      "outputs": [
        {
          "internalType": "uint256",
          "name": "",
          "type": "uint256"
        }
      ],
      "stateMutability": "view",
      "type": "function"
    },
    {
      "inputs": [],
      "name": "totalDrip",
      "outputs": [
        {
          "internalType": "uint256",
          "name": "",
          "type": "uint256"
        }
      ],
      "stateMutability": "view",
      "type": "function"
    },
    {
      "inputs": [
        {
          "internalType": "address",
          "name": "olduser",
          "type": "address"
        },
        {
          "internalType": "address",
          "name": "newUser",
          "type": "address"
        }
      ],
      "name": "transferNode",
      "outputs": [],
      "stateMutability": "nonpayable",
      "type": "function"
    },
    {
      "inputs": [
        {
          "internalType": "address",
          "name": "newOwner",
          "type": "address"
        }
      ],
      "name": "transferOwnership",
      "outputs": [],
      "stateMutability": "nonpayable",
      "type": "function"
    },
    {
      "inputs": [
        {
          "internalType": "uint256",
          "name": "newClaimWait",
          "type": "uint256"
        }
      ],
      "name": "updateClaimWait",
      "outputs": [],
      "stateMutability": "nonpayable",
      "type": "function"
    },
    {
      "inputs": [
        {
          "internalType": "address",
          "name": "user",
          "type": "address"
        }
      ],
      "name": "userClaim",
      "outputs": [
        {
          "internalType": "uint256",
          "name": "",
          "type": "uint256"
        }
      ],
      "stateMutability": "nonpayable",
      "type": "function"
    },
    {
      "inputs": [],
      "name": "userDividendPerShare",
      "outputs": [
        {
          "internalType": "uint256",
          "name": "",
          "type": "uint256"
        }
      ],
      "stateMutability": "view",
      "type": "function"
    },
    {
      "inputs": [],
      "name": "userExchangeRateMantissa",
      "outputs": [
        {
          "internalType": "uint256",
          "name": "",
          "type": "uint256"
        }
      ],
      "stateMutability": "view",
      "type": "function"
    },
    {
      "inputs": [
        {
          "internalType": "uint256",
          "name": "",
          "type": "uint256"
        }
      ],
      "name": "userNodeDividendPerShare",
      "outputs": [
        {
          "internalType": "uint256",
          "name": "",
          "type": "uint256"
        }
      ],
      "stateMutability": "view",
      "type": "function"
    },
    {
      "inputs": [
        {
          "internalType": "uint256",
          "name": "",
          "type": "uint256"
        }
      ],
      "name": "userNodeRateMantissa",
      "outputs": [
        {
          "internalType": "uint256",
          "name": "",
          "type": "uint256"
        }
      ],
      "stateMutability": "view",
      "type": "function"
    },
    {
      "inputs": [
        {
          "internalType": "uint256",
          "name": "",
          "type": "uint256"
        }
      ],
      "name": "userNodeStates",
      "outputs": [
        {
          "internalType": "uint256",
          "name": "lastExchangeRateMantissa",
          "type": "uint256"
        },
        {
          "internalType": "uint256",
          "name": "balance",
          "type": "uint256"
        },
        {
          "internalType": "uint256",
          "name": "totalClaim",
          "type": "uint256"
        },
        {
          "internalType": "uint256",
          "name": "unClaim",
          "type": "uint256"
        },
        {
          "internalType": "uint256",
          "name": "lastDividendPerShare",
          "type": "uint256"
        }
      ],
      "stateMutability": "view",
      "type": "function"
    },
    {
      "inputs": [],
      "name": "userNodeTotalStake",
      "outputs": [
        {
          "internalType": "uint256",
          "name": "",
          "type": "uint256"
        }
      ],
      "stateMutability": "view",
      "type": "function"
    },
    {
      "inputs": [
        {
          "internalType": "address",
          "name": "",
          "type": "address"
        }
      ],
      "name": "userStakeStates",
      "outputs": [
        {
          "internalType": "uint256",
          "name": "unClaim",
          "type": "uint256"
        },
        {
          "internalType": "uint256",
          "name": "totalClaim",
          "type": "uint256"
        }
      ],
      "stateMutability": "view",
      "type": "function"
    },
    {
      "inputs": [
        {
          "internalType": "address",
          "name": "to",
          "type": "address"
        },
        {
          "internalType": "uint256",
          "name": "amount",
          "type": "uint256"
        }
      ],
      "name": "withdrawTo",
      "outputs": [],
      "stateMutability": "nonpayable",
      "type": "function"
    }
  ],
  "bytecode": "0x608060405234801561001057600080fd5b5061348c806100206000396000f3fe608060405234801561001057600080fd5b50600436106103995760003560e01c806392eefe9b116101e9578063d2677c051161010f578063e964058c116100ad578063f77c47911161007c578063f77c479114610898578063fbcbc0f1146108ab578063fd380621146108be578063ffb2c479146108c757600080fd5b8063e964058c14610856578063e98030c71461085f578063f2fde38b14610872578063f39a19bf1461088557600080fd5b8063ddaf4848116100e9578063ddaf484814610807578063dfb214771461081a578063e4b1eacc1461082d578063e7841ec01461084e57600080fd5b8063d2677c05146107af578063d33a9811146107c2578063d9772a25146107e257600080fd5b8063b6f0731611610187578063c7f6d4cc11610156578063c7f6d4cc14610763578063ca5baafc14610776578063cd6dc68714610789578063d0d552dd1461079c57600080fd5b8063b6f073161461071b578063bc4c4b3714610724578063be10b61414610747578063c7ad5eff1461075057600080fd5b8063a57e6437116101c3578063a57e6437146106cc578063a60d5a1a146106d5578063ab69b8ce146106e8578063b3c1999e1461070857600080fd5b806392eefe9b146106a85780639f678cca146106bb5780639fd4e1cf146106c357600080fd5b806338d52e0f116102ce57806360a22e501161026c578063715018a61161023b578063715018a61461066657806380b49cdd1461066e57806385a6b3ae1461068e5780638da5cb5b1461069757600080fd5b806360a22e501461062e57806368fd2e9f146106375780636d629dbe1461064a5780636f2789ec1461065d57600080fd5b80633f7b2ed9116102a85780633f7b2ed9146105715780634195c410146105b05780635183d6fd146105c35780635f13bb8d1461061b57600080fd5b806338d52e0f146104f65780633bdfe437146105215780633df930721461055e57600080fd5b8063205c28781161033b57806325f3cbeb1161031557806325f3cbeb146104625780633009a609146104c75780633243c791146104d05780633749ea10146104e357600080fd5b8063205c28781461041c578063226cfa3d1461042f57806325c5ecbb1461044f57600080fd5b80630a6b433f116103775780630a6b433f146103d75780630d024684146103ea5780630fc1f0821461040a578063187f33341461041357600080fd5b806304a8d8b51461039e57806305102062146103b357806309bbedde146103cf575b600080fd5b6103b16103ac366004612f27565b6108f5565b005b6103bc606a5481565b6040519081526020015b60405180910390f35b6077546103bc565b6103bc6103e5366004612f5c565b610c02565b6103fd6103f8366004612f79565b610ea9565b6040516103c69190613029565b6103bc606e5481565b6103bc60685481565b6103b161042a36600461303c565b610fad565b6103bc61043d366004612f5c565b607c6020526000908152604090205481565b6103b161045d366004613068565b61113d565b61049f610470366004612f5c565b607460205260009081526040902080546001820154600283015460038401546004909401549293919290919085565b604080519586526020860194909452928401919091526060830152608082015260a0016103c6565b6103bc607b5481565b6103b16104de3660046130a1565b6111e0565b6103bc6104f1366004612f5c565b6112b9565b606554610509906001600160a01b031681565b6040516001600160a01b0390911681526020016103c6565b61049f61052f3660046130a1565b607360205260009081526040902080546001820154600283015460038401546004909401549293919290919085565b6103bc61056c366004612f5c565b611325565b61059b61057f366004612f5c565b6076602052600090815260409020600281015460039091015482565b604080519283526020830191909152016103c6565b6103b16105be366004612f5c565b6113a3565b6105d66105d13660046130a1565b611411565b604080516001600160a01b0390991689526020890197909752958701949094526060860192909252608085015260a084015260c083015260e0820152610100016103c6565b606754610509906001600160a01b031681565b6103bc606d5481565b6103fd610645366004612f79565b611565565b6103b161065836600461303c565b611679565b6103bc607d5481565b6103b161172b565b6103bc61067c3660046130a1565b60756020526000908152604090205481565b6103bc60705481565b6033546001600160a01b0316610509565b6103b16106b6366004612f5c565b61173f565b6103bc6117ad565b6103bc606f5481565b6103bc60725481565b6103bc6106e33660046130d0565b6118b1565b6103bc6106f63660046130a1565b607f6020526000908152604090205481565b6103fd610716366004612f79565b6118dc565b6103bc60715481565b610737610732366004613178565b6119f8565b60405190151581526020016103c6565b6103bc607e5481565b6103b161075e3660046130a1565b611a3a565b6103bc610771366004612f5c565b611ad7565b6103b16107843660046130a1565b611c24565b6103b161079736600461303c565b611cba565b6103b16107aa366004612f5c565b611dfc565b6103fd6107bd366004612f79565b611e26565b6103bc6107d03660046130a1565b60806020526000908152604090205481565b606c546107f29063ffffffff1681565b60405163ffffffff90911681526020016103c6565b6103b16108153660046130a1565b611ebc565b6103b16108283660046131a6565b611f16565b61084061083b366004612f5c565b612062565b6040516103c69291906131e1565b607b546103bc565b6103bc606b5481565b6103b161086d3660046130a1565b6122c7565b6103b1610880366004612f5c565b612415565b6103bc610893366004612f5c565b61248b565b606654610509906001600160a01b031681565b6105d66108b9366004612f5c565b6125f6565b6103bc60695481565b6108da6108d53660046130a1565b6127b7565b604080519384526020840192909252908201526060016103c6565b6066546001600160a01b031633146109285760405162461bcd60e51b815260040161091f90613206565b60405180910390fd5b6109306117ad565b5060008281526073602090815260408083206001600160a01b0387168452607690925290912080610960856128d2565b50600085815260018084016020908152604080842092830154607f8352818520546080909352932054919261099792849290612a06565b506109bd856109b783600101548760010154612aa690919063ffffffff16565b90612ab2565b6001808601919091558101541580156109d65750600085115b156109f1578154600181018355600083815260209020018690555b6001810185905560038101546002840154610a0b91612ab2565b60028401556000600382015584610aff57600086815260018085016020526040822082815590810182905560028101829055600381018290556004015581545b8015610afd5780610a5b81613245565b91505086838281548110610a7157610a7161325c565b90600052602060002001541415610af85782548390610a9290600190613272565b81548110610aa257610aa261325c565b9060005260206000200154838281548110610abf57610abf61325c565b906000526020600020018190555082805480610add57610add613289565b60019003818190600052602060002001600090559055610afd565b610a4b565b505b607e548510610b8657604051632f0ad01760e21b8152607760048201526001600160a01b03881660248201526044810186905273__$4b09164eaf8a84d7a8044fedc88418fa6b$__9063bc2b405c9060640160006040518083038186803b158015610b6957600080fd5b505af4158015610b7d573d6000803e3d6000fd5b50505050610bf9565b60405163131836e760e21b8152607760048201526001600160a01b038816602482015273__$4b09164eaf8a84d7a8044fedc88418fa6b$__90634c60db9c9060440160006040518083038186803b158015610be057600080fd5b505af4158015610bf4573d6000803e3d6000fd5b505050505b50505050505050565b6000610c0c6117ad565b506001600160a01b038216600090815260766020526040812060028101805492905580549091905b8015610da857610c45600182613272565b90506000838281548110610c5b57610c5b61325c565b90600052602060002001549050610c71816128d2565b506001600160a01b03861660009081526076602090815260408083208484526001908101835281842090810154607f84528285205460809094529190932054610cbc92849291612a06565b506003810154610ccc9085612ab2565b60006003830181905583815260736020526040902060010154909450610da1576001600160a01b03871660009081526076602090815260408083208584526001908101909252822082815580820183905560028101839055600381018390556004019190915585548691610d3f91613272565b81548110610d4f57610d4f61325c565b9060005260206000200154858481548110610d6c57610d6c61325c565b906000526020600020018190555084805480610d8a57610d8a613289565b600190038181906000526020600020016000905590555b5050610c34565b6001600160a01b038516600090815260766020526040902060030154610dce9083612ab2565b6001600160a01b038681166000818152607660205260409081902060030193909355606554925163a9059cbb60e01b815260048101919091526024810185905291169063a9059cbb906044016020604051808303816000875af1158015610e39573d6000803e3d6000fd5b505050506040513d601f19601f82011682018060405250810190610e5d919061329f565b50846001600160a01b03167f5329b89678b0f095cae2abe10b88ad57329871ee9296ae8f358a46b9fa0ff32883604051610e9991815260200190565b60405180910390a2509392505050565b60608167ffffffffffffffff811115610ec457610ec46130ba565b604051908082528060200260200182016040528015610eed578160200160208202803683370190505b50905060005b82811015610fa657610f7760766000868685818110610f1457610f1461325c565b9050602002016020810190610f299190612f5c565b6001600160a01b03166001600160a01b03168152602001908152602001600020600301546109b7868685818110610f6257610f6261325c565b905060200201602081019061056c9190612f5c565b828281518110610f8957610f8961325c565b602090810291909101015280610f9e816132bc565b915050610ef3565b5092915050565b610fb5612abe565b610fbd6117ad565b506065546040516370a0823160e01b81523060048201526000916001600160a01b0316906370a0823190602401602060405180830381865afa158015611007573d6000803e3d6000fd5b505050506040513d601f19601f8201168201806040525081019061102b91906132d7565b90508082111561107d5760405162461bcd60e51b815260206004820152601b60248201527f4469766964656e642f696e73756666696369656e742d66756e64730000000000604482015260640161091f565b60655460405163a9059cbb60e01b81526001600160a01b038581166004830152602482018590529091169063a9059cbb906044016020604051808303816000875af11580156110d0573d6000803e3d6000fd5b505050506040513d601f19601f820116820180604052508101906110f4919061329f565b50826001600160a01b03167f7084f5476618d8e60b11ef0d7d3f06914655adb8793e28ff7f018d4c76d505d58360405161113091815260200190565b60405180910390a2505050565b6066546001600160a01b031633146111675760405162461bcd60e51b815260040161091f90613206565b6111708261248b565b506001600160a01b039081166000908152607460205260408082209390921681529081208054835560018082018054918501919091556002808301805491860191909155600380840180549187019190915560048085018054919097015592849055908390558290558190559055565b6067546001600160a01b031633146112315760405162461bcd60e51b815260206004820152601460248201527327a7262cafa234bb34b232b7321029b2b2ba32b960611b604482015260640161091f565b80158061123e5750607254155b156112465750565b6070546112539082612ab2565b6070556069546000906112749060649061126e908590612b18565b90612b24565b607254909150156112b457611291606f546109b783607254612b30565b606f55606e546112b0906109b76112a88585612aa6565b607254612b30565b606e555b505b50565b6001600160a01b0381166000908152607460209081526040808320815160a081018352815481526001820154938101939093526002810154918301919091526003810154606083015260040154608082015261131f90611317612b51565b606f54612bc7565b92915050565b6001600160a01b038116600090815260766020526040902060020154606061134c83612062565b9150600090505b815181101561139c576113888282815181106113715761137161325c565b602002602001015184612ab290919063ffffffff16565b925080611394816132bc565b915050611353565b5050919050565b6113ab612abe565b6001600160a01b0381166113ef5760405162461bcd60e51b815260206004820152600b60248201526a24a72b2624a22fa0a2222960a91b604482015260640161091f565b606780546001600160a01b0319166001600160a01b0392909216919091179055565b600080600080600080600080607773__$4b09164eaf8a84d7a8044fedc88418fa6b$__63deb3d89690916040518263ffffffff1660e01b815260040161145991815260200190565b602060405180830381865af4158015611476573d6000803e3d6000fd5b505050506040513d601f19601f8201168201806040525081019061149a91906132d7565b89106114bf57506000965060001995508594508693508392508291508190508061155a565b6040516368d54f3f60e11b815260776004820152602481018a905260009073__$4b09164eaf8a84d7a8044fedc88418fa6b$__9063d1aa9e7e90604401602060405180830381865af4158015611519573d6000803e3d6000fd5b505050506040513d601f19601f8201168201806040525081019061153d91906132f0565b9050611548816125f6565b98509850985098509850985098509850505b919395975091939597565b60608167ffffffffffffffff811115611580576115806130ba565b6040519080825280602002602001820160405280156115a9578160200160208202803683370190505b50905060005b82811015610fa65761164a607460008686858181106115d0576115d061325c565b90506020020160208101906115e59190612f5c565b6001600160a01b03166001600160a01b031681526020019081526020016000206040518060a001604052908160008201548152602001600182015481526020016002820154815260200160038201548152602001600482015481525050611317612b51565b82828151811061165c5761165c61325c565b602090810291909101015280611671816132bc565b9150506115af565b6066546001600160a01b031633146116a35760405162461bcd60e51b815260040161091f90613206565b6116ac8261248b565b506001600160a01b0382166000908152607460205260409020600101546072546116d591612aa6565b6072556001600160a01b038216600090815260746020526040812081815560018101829055600281018290556003810182905560040155611715816128d2565b5060009081526073602052604081206001015550565b611733612abe565b61173d6000612c56565b565b611747612abe565b6001600160a01b03811661178b5760405162461bcd60e51b815260206004820152600b60248201526a24a72b2624a22fa0a2222960a91b604482015260640161091f565b606680546001600160a01b0319166001600160a01b0392909216919091179055565b6000806117b8612ca8565b606c5463ffffffff9182169250168114156117d557600091505090565b606c546000906117f090839063ffffffff90811690612aa616565b9050600061180960685483612b1890919063ffffffff16565b90506000611827606461126e60695485612b1890919063ffffffff16565b6072549091501561187857600061184082607254612b30565b606b549091506118509082612ab2565b606b5560006118626112a88585612aa6565b606a549091506118729082612ab2565b606a5550505b61188184612cb8565b606c805463ffffffff191663ffffffff928316179055606d546118a6918490612ab216565b606d55509392505050565b6000806118bf858585612bc7565b60408601519091506118d19082612ab2565b9150505b9392505050565b60608167ffffffffffffffff8111156118f7576118f76130ba565b604051908082528060200260200182016040528015611920578160200160208202803683370190505b50905060005b82811015610fa6576119c9607460008686858181106119475761194761325c565b905060200201602081019061195c9190612f5c565b6001600160a01b03166001600160a01b031681526020019081526020016000206040518060a0016040529081600082015481526020016001820154815260200160028201548152602001600382015481526020016004820154815250506119c1612b51565b606f546118b1565b8282815181106119db576119db61325c565b6020908102919091010152806119f0816132bc565b915050611926565b600080611a0484610c02565b90508015611a305750506001600160a01b0382166000908152607c60205260409020429055600161131f565b5060009392505050565b611a42612abe565b60008111611a925760405162461bcd60e51b815260206004820152601c60248201527f546f6b656e4661756365742f6e6f6465526174652d67742d7a65726f00000000604482015260640161091f565b611a9a6117ad565b5060698190556040518181527ffab63a863d2b8bf77782de36d1f7ee259e4663ac848a09ffc79a72286bd7c3de906020015b60405180910390a150565b600060725460001415611aec57506000919050565b6001600160a01b03821660009081526076602052604081208190815b8154811015611bca576000828281548110611b2557611b2561325c565b90600052602060002001549050607360008281526020019081526020016000206001015460001415611b575750611bb8565b6001600160a01b0387166000908152607660209081526040808320848452600190810183528184206073909352922090910154611b9a9087906109b79085612d21565b9550611bb3816001015486612ab290919063ffffffff16565b945050505b80611bc2816132bc565b915050611b08565b5081611bdb57506000949350505050565b606854600090611bee9062015180612b18565b9050611c1a8361126e60725461126e6237b1d0611c14878b612b1890919063ffffffff16565b90612b18565b9695505050505050565b611c2c612abe565b60008111611c7c5760405162461bcd60e51b815260206004820152601c60248201527f546f6b656e4661756365742f64726970526174652d67742d7a65726f00000000604482015260640161091f565b611c846117ad565b5060688190556040518181527f3d38e7cd2e029035006f9977a727c8724cd41dffb6d2a40d9f66bd4c26836a3290602001611acc565b600054600190610100900460ff16158015611cdc575060005460ff8083169116105b611d3f5760405162461bcd60e51b815260206004820152602e60248201527f496e697469616c697a61626c653a20636f6e747261637420697320616c72656160448201526d191e481a5b9a5d1a585b1a5e995960921b606482015260840161091f565b6000805461ffff191660ff831617610100179055611d5b612d42565b611d63612ca8565b606c805463ffffffff191663ffffffff92909216919091179055606580546001600160a01b0319166001600160a01b038516179055611da182611c24565b6014606955655af3107a4000607e55610e10607d556000805461ff001916905560405160ff821681527f7f26b83ff96e1f2b6a682f133852f6798a09c465da95921460cefb38474024989060200160405180910390a1505050565b611e04612abe565b606580546001600160a01b0319166001600160a01b0392909216919091179055565b60608167ffffffffffffffff811115611e4157611e416130ba565b604051908082528060200260200182016040528015611e6a578160200160208202803683370190505b50905060005b82811015610fa657611e8d848483818110610f6257610f6261325c565b828281518110611e9f57611e9f61325c565b602090810291909101015280611eb4816132bc565b915050611e70565b6067546001600160a01b03163314611f0d5760405162461bcd60e51b815260206004820152601460248201527327a7262cafa234bb34b232b7321029b2b2ba32b960611b604482015260640161091f565b6112b6816111e0565b6066546001600160a01b03163314611f405760405162461bcd60e51b815260040161091f90613206565b611f486117ad565b506001600160a01b03841660009081526074602052604090206001810154606b54606f54611f7893929190612a06565b506001600160a01b038416600090815260746020526040902060010154607254611fa79185916109b791612aa6565b6072556001600160a01b0384166000908152607460205260409020600101839055611fd1826128d2565b506000828152607560205260409081902082905551632f0ad01760e21b8152607760048201526001600160a01b03851660248201526044810184905273__$4b09164eaf8a84d7a8044fedc88418fa6b$__9063bc2b405c9060640160006040518083038186803b15801561204457600080fd5b505af4158015612058573d6000803e3d6000fd5b5050505050505050565b606080600061206f612d71565b6001600160a01b038516600090815260766020526040902080549192509067ffffffffffffffff8111156120a5576120a56130ba565b6040519080825280602002602001820160405280156120ce578160200160208202803683370190505b50815490945067ffffffffffffffff8111156120ec576120ec6130ba565b604051908082528060200260200182016040528015612115578160200160208202803683370190505b50925060005b81548110156122bf5760008282815481106121385761213861325c565b60009182526020808320909101546001600160a01b038a168352607682526040808420828552600190810190935283209182015490935090919061217c9084612d21565b600084815260736020526040812060010154919250908190156121f0576000858152607360205260409020546121b3908990612aa6565b91506121bf8286612d21565b600086815260736020526040902060040154606e549193506121e19190612aa6565b90506121ed8186612d21565b90505b83546000868152607f60205260409020546122179190612211908590612ab2565b90612aa6565b91506000612229856001015484612dea565b600486015460008881526080602052604090205491925061224f91612211908590612ab2565b9150600061225d8584612dea565b9050868c89815181106122725761227261325c565b60209081029190910101526122878282612ab2565b8b89815181106122995761229961325c565b6020026020010181815250505050505050505080806122b7906132bc565b91505061211b565b505050915091565b6122cf612abe565b610e1081101580156122e45750620151808111155b61236a5760405162461bcd60e51b815260206004820152604b60248201527f546f6b656e5f4469766964656e645f547261636b65723a20636c61696d57616960448201527f74206d757374206265207570646174656420746f206265747765656e2031206160648201526a6e6420323420686f75727360a81b608482015260a40161091f565b607d548114156123e25760405162461bcd60e51b815260206004820152603d60248201527f546f6b656e5f4469766964656e645f547261636b65723a2043616e6e6f74207560448201527f706461746520636c61696d5761697420746f2073616d652076616c7565000000606482015260840161091f565b607d5460405182907f474ea64804364a1e29a4487ddb63c3342a2dd826ccd8acf48825e680a0e6f20f90600090a3607d55565b61241d612abe565b6001600160a01b0381166124825760405162461bcd60e51b815260206004820152602660248201527f4f776e61626c653a206e6577206f776e657220697320746865207a65726f206160448201526564647265737360d01b606482015260840161091f565b6112b681612c56565b60006124956117ad565b506001600160a01b03821660009081526074602052604090206001810154606b54606f546124c593929190612a06565b506001600160a01b0382166000908152607460205260409020600301546124ee57506000919050565b6001600160a01b03821660009081526074602052604081206003810180549290556002015461251d9082612ab2565b6001600160a01b038481166000818152607460205260409081902060020193909355606554925163a9059cbb60e01b815260048101919091526024810184905291169063a9059cbb906044016020604051808303816000875af1158015612588573d6000803e3d6000fd5b505050506040513d601f19601f820116820180604052508101906125ac919061329f565b50826001600160a01b03167f638b31b360307f664fe65f94e19b3fb3b6569d947245b7195cff88cf1c0e1c14826040516125e891815260200190565b60405180910390a292915050565b6040516317e142d160e01b8152607760048201526001600160a01b0382166024820152819060009081908190819081908190819073__$4b09164eaf8a84d7a8044fedc88418fa6b$__906317e142d190604401602060405180830381865af4158015612666573d6000803e3d6000fd5b505050506040513d601f19601f8201168201806040525081019061268a91906132d7565b96506000199550600087126126ec57607b548711156126b857607b546126b1908890612e0b565b95506126ec565b607b54607754600091106126cd5760006126dc565b607b546077546126dc91612aa6565b90506126e88882612e57565b9650505b6001600160a01b03881660009081526074602090815260408083206003015460769092529091206002015461272091612ab2565b6001600160a01b0389166000908152607460209081526040808320600201546076909252909120600301549196506127589190612ab2565b6001600160a01b0389166000908152607c6020526040902054909450925082612782576000612790565b607d54612790908490612ab2565b91504282116127a05760006127aa565b6127aa8242612aa6565b9050919395975091939597565b60775460009081908190806127d7575050607b54600092508291506128cb565b607b546000805a90506000805b89841080156127f257508582105b156128ba5784612801816132bc565b6077549096508610905061281457600094505b60006077600001868154811061282c5761282c61325c565b60009182526020808320909101546001600160a01b0316808352607c90915260409091205490915061285d90612e95565b156128805761286d8160016119f8565b15612880578161287c816132bc565b9250505b8261288a816132bc565b93505060005a9050808511156128b1576128ae6128a78683612aa6565b8790612ab2565b95505b93506127e49050565b607b85905590975095509193505050505b9193909250565b6000818152607360205260408120600181015482906128f19085612d21565b8254606a549192501415612909575060009392505050565b8154606a5460009161291b9190612aa6565b905060006129298383612dea565b606a54855560038501549091506129409082612ab2565b60038501556004840154606e5460009161295a9190612aa6565b905060006129688583612dea565b606e54600488015560038701549091506129829082612ab2565b600387015584156129f0576129af61299a858a612d21565b60008a8152607f602052604090205490612ab2565b6000898152607f60205260409020556129e06129cb838a612d21565b60008a81526080602052604090205490612ab2565b6000898152608060205260409020555b6129fa8382612ab2565b98975050505050505050565b8354600090831415612a1a57506000612a9e565b8454600090612a2a908590612aa6565b90506000612a388683612dea565b8588556003880154909150612a4d9082612ab2565b60038801556004870154600090612a70908890612a6b908890612aa6565b612dea565b600489018690556003890154909150612a899082612ab2565b6003890155612a988282612ab2565b93505050505b949350505050565b60006118d58284613272565b60006118d5828461330d565b6033546001600160a01b0316331461173d5760405162461bcd60e51b815260206004820181905260248201527f4f776e61626c653a2063616c6c6572206973206e6f7420746865206f776e6572604482015260640161091f565b60006118d58284613325565b60006118d58284613344565b600080612b4584670de0b6b3a7640000612b18565b9050612a9e8184612b24565b606c54600090819063ffffffff16612b67612ca8565b612b719190613366565b63ffffffff1690506000612b9060685483612b1890919063ffffffff16565b90506000612bae606461126e60695485612b1890919063ffffffff16565b9050612bbf606b5460725483612ebc565b935050505090565b600080612be98560200151611c14876080015186612aa690919063ffffffff16565b8551909150841415612c0c576060850151612c049082612ab2565b9150506118d5565b8451600090612c1c908690612aa6565b90506000612c2e876020015183612dea565b9050612c4b836109b7838a60600151612ab290919063ffffffff16565b979650505050505050565b603380546001600160a01b038381166001600160a01b0319831681179093556040519116919082907f8be0079c531659141344cd1fd0a4f28419497f9722a3daafe3b4186f6b6457e090600090a35050565b6000612cb342612cb8565b905090565b600063ffffffff821115612d1d5760405162461bcd60e51b815260206004820152602660248201527f53616665436173743a2076616c756520646f65736e27742066697420696e203360448201526532206269747360d01b606482015260840161091f565b5090565b6000818152607560205260408120546118d59060649061126e908690612b18565b600054610100900460ff16612d695760405162461bcd60e51b815260040161091f9061338b565b61173d612ee2565b606c54600090819063ffffffff16612d87612ca8565b612d919190613366565b63ffffffff1690506000612db060685483612b1890919063ffffffff16565b90506000612dce606461126e60695485612b1890919063ffffffff16565b606a54607254919250612bbf91612de58585612aa6565b612ebc565b600080612df78385612b18565b9050612a9e81670de0b6b3a7640000612b24565b6000808212158015612e26575082612e2383826133d6565b13155b80612e445750600082128015612e44575082612e4283826133d6565b135b612e4d57600080fd5b6118d582846133d6565b600080612e648385613415565b905060008312158015612e775750838112155b80612e8c5750600083128015612e8c57508381125b6118d557600080fd5b600042821115612ea757506000919050565b607d54612eb44284612aa6565b101592915050565b600082612eca5750826118d5565b6000612ed68385612b30565b90506118d18186612ab2565b600054610100900460ff16612f095760405162461bcd60e51b815260040161091f9061338b565b61173d33612c56565b6001600160a01b03811681146112b657600080fd5b600080600060608486031215612f3c57600080fd5b8335612f4781612f12565b95602085013595506040909401359392505050565b600060208284031215612f6e57600080fd5b81356118d581612f12565b60008060208385031215612f8c57600080fd5b823567ffffffffffffffff80821115612fa457600080fd5b818501915085601f830112612fb857600080fd5b813581811115612fc757600080fd5b8660208260051b8501011115612fdc57600080fd5b60209290920196919550909350505050565b600081518084526020808501945080840160005b8381101561301e57815187529582019590820190600101613002565b509495945050505050565b6020815260006118d56020830184612fee565b6000806040838503121561304f57600080fd5b823561305a81612f12565b946020939093013593505050565b6000806040838503121561307b57600080fd5b823561308681612f12565b9150602083013561309681612f12565b809150509250929050565b6000602082840312156130b357600080fd5b5035919050565b634e487b7160e01b600052604160045260246000fd5b600080600083850360e08112156130e657600080fd5b60a08112156130f457600080fd5b5060405160a0810181811067ffffffffffffffff8211171561312657634e487b7160e01b600052604160045260246000fd5b60409081528535825260208087013590830152858101359082015260608086013590820152608080860135908201529560a0850135955060c0909401359392505050565b80151581146112b657600080fd5b6000806040838503121561318b57600080fd5b823561319681612f12565b915060208301356130968161316a565b600080600080608085870312156131bc57600080fd5b84356131c781612f12565b966020860135965060408601359560600135945092505050565b6040815260006131f46040830185612fee565b82810360208401526118d18185612fee565b6020808252600f908201526e27a7262cafa1a7a72a2927a62622a960891b604082015260600190565b634e487b7160e01b600052601160045260246000fd5b6000816132545761325461322f565b506000190190565b634e487b7160e01b600052603260045260246000fd5b6000828210156132845761328461322f565b500390565b634e487b7160e01b600052603160045260246000fd5b6000602082840312156132b157600080fd5b81516118d58161316a565b60006000198214156132d0576132d061322f565b5060010190565b6000602082840312156132e957600080fd5b5051919050565b60006020828403121561330257600080fd5b81516118d581612f12565b600082198211156133205761332061322f565b500190565b600081600019048311821515161561333f5761333f61322f565b500290565b60008261336157634e487b7160e01b600052601260045260246000fd5b500490565b600063ffffffff838116908316818110156133835761338361322f565b039392505050565b6020808252602b908201527f496e697469616c697a61626c653a20636f6e7472616374206973206e6f74206960408201526a6e697469616c697a696e6760a81b606082015260800190565b60008083128015600160ff1b8501841216156133f4576133f461322f565b6001600160ff1b038401831381161561340f5761340f61322f565b50500390565b600080821280156001600160ff1b03849003851316156134375761343761322f565b600160ff1b83900384128116156134505761345061322f565b5050019056fea264697066735822122055516dcb497ee3aac00c5ea2d77e63ddb8cf19feaffee3cc86dd31179e60e53664736f6c634300080b0033",
  "linkReferences": {
    "contracts/lib/IterableMapping.sol": {
      "IterableMapping": [
        {
          "length": 20,
          "start": 2900
        },
        {
          "length": 20,
          "start": 3019
        },
        {
          "length": 20,
          "start": 5185
        },
        {
          "length": 20,
          "start": 5375
        },
        {
          "length": 20,
          "start": 8239
        },
        {
          "length": 20,
          "start": 9804
        }
      ]
    }
  },
  "deployedLinkReferences": {
    "contracts/lib/IterableMapping.sol": {
      "IterableMapping": [
        {
          "length": 20,
          "start": 2868
        },
        {
          "length": 20,
          "start": 2987
        },
        {
          "length": 20,
          "start": 5153
        },
        {
          "length": 20,
          "start": 5343
        },
        {
          "length": 20,
          "start": 8207
        },
        {
          "length": 20,
          "start": 9772
        }
      ]
    }
  }
}