{
  "_format": "hh-sol-artifact-1",
  "contractName": "BIBDividend",
  "sourceName": "contracts/community/BIBDividend.sol",
  "abi": [
    {
      "anonymous": false,
      "inputs": [
        {
          "indexed": true,
          "internalType": "uint256",
          "name": "newValue",
          "type": "uint256"
        },
        {
          "indexed": true,
          "internalType": "uint256",
          "name": "oldValue",
          "type": "uint256"
        }
      ],
      "name": "ClaimWaitUpdated",
      "type": "event"
    },
    {
      "anonymous": false,
      "inputs": [
        {
          "indexed": false,
          "internalType": "uint256",
          "name": "dripRatePerSecond",
          "type": "uint256"
        }
      ],
      "name": "DripRateChanged",
      "type": "event"
    },
    {
      "anonymous": false,
      "inputs": [
        {
          "indexed": false,
          "internalType": "uint8",
          "name": "version",
          "type": "uint8"
        }
      ],
      "name": "Initialized",
      "type": "event"
    },
    {
      "anonymous": false,
      "inputs": [
        {
          "indexed": true,
          "internalType": "address",
          "name": "user",
          "type": "address"
        },
        {
          "indexed": false,
          "internalType": "uint256",
          "name": "newTokens",
          "type": "uint256"
        }
      ],
      "name": "NodeClaimed",
      "type": "event"
    },
    {
      "anonymous": false,
      "inputs": [
        {
          "indexed": false,
          "internalType": "uint256",
          "name": "nodeRate",
          "type": "uint256"
        }
      ],
      "name": "NodeRateChange",
      "type": "event"
    },
    {
      "anonymous": false,
      "inputs": [
        {
          "indexed": true,
          "internalType": "address",
          "name": "previousOwner",
          "type": "address"
        },
        {
          "indexed": true,
          "internalType": "address",
          "name": "newOwner",
          "type": "address"
        }
      ],
      "name": "OwnershipTransferred",
      "type": "event"
    },
    {
      "anonymous": false,
      "inputs": [
        {
          "indexed": true,
          "internalType": "address",
          "name": "user",
          "type": "address"
        },
        {
          "indexed": false,
          "internalType": "uint256",
          "name": "newTokens",
          "type": "uint256"
        }
      ],
      "name": "UserClaimed",
      "type": "event"
    },
    {
      "anonymous": false,
      "inputs": [
        {
          "indexed": true,
          "internalType": "address",
          "name": "to",
          "type": "address"
        },
        {
          "indexed": false,
          "internalType": "uint256",
          "name": "amount",
          "type": "uint256"
        }
      ],
      "name": "Withdrawn",
      "type": "event"
    },
    {
      "inputs": [
        {
          "components": [
            {
              "internalType": "uint256",
              "name": "lastExchangeRateMantissa",
              "type": "uint256"
            },
            {
              "internalType": "uint256",
              "name": "balance",
              "type": "uint256"
            },
            {
              "internalType": "uint256",
              "name": "totalClaim",
              "type": "uint256"
            },
            {
              "internalType": "uint256",
              "name": "unClaim",
              "type": "uint256"
            },
            {
              "internalType": "uint256",
              "name": "lastDividendPerShare",
              "type": "uint256"
            }
          ],
          "internalType": "struct BIBDividend.ExState",
          "name": "userState",
          "type": "tuple"
        },
        {
          "internalType": "uint256",
          "name": "_exchangeRateMantissa",
          "type": "uint256"
        },
        {
          "internalType": "uint256",
          "name": "_dividendPerShare",
          "type": "uint256"
        }
      ],
      "name": "_getUserAllRewards",
      "outputs": [
        {
          "internalType": "uint256",
          "name": "",
          "type": "uint256"
        }
      ],
      "stateMutability": "pure",
      "type": "function"
    },
    {
      "inputs": [],
      "name": "asset",
      "outputs": [
        {
          "internalType": "contract IERC20Upgradeable",
          "name": "",
          "type": "address"
        }
      ],
      "stateMutability": "view",
      "type": "function"
    },
    {
      "inputs": [],
      "name": "claimWait",
      "outputs": [
        {
          "internalType": "uint256",
          "name": "",
          "type": "uint256"
        }
      ],
      "stateMutability": "view",
      "type": "function"
    },
    {
      "inputs": [],
      "name": "controller",
      "outputs": [
        {
          "internalType": "address",
          "name": "",
          "type": "address"
        }
      ],
      "stateMutability": "view",
      "type": "function"
    },
    {
      "inputs": [
        {
          "internalType": "address",
          "name": "nodeOwner",
          "type": "address"
        },
        {
          "internalType": "uint256",
          "name": "ticketId",
          "type": "uint256"
        }
      ],
      "name": "disbandNode",
      "outputs": [],
      "stateMutability": "nonpayable",
      "type": "function"
    },
    {
      "inputs": [
        {
          "internalType": "uint256",
          "name": "amount",
          "type": "uint256"
        }
      ],
      "name": "distributeDividends",
      "outputs": [],
      "stateMutability": "nonpayable",
      "type": "function"
    },
    {
      "inputs": [],
      "name": "dividendSetter",
      "outputs": [
        {
          "internalType": "address",
          "name": "",
          "type": "address"
        }
      ],
      "stateMutability": "view",
      "type": "function"
    },
    {
      "inputs": [],
      "name": "drip",
      "outputs": [
        {
          "internalType": "uint256",
          "name": "",
          "type": "uint256"
        }
      ],
      "stateMutability": "nonpayable",
      "type": "function"
    },
    {
      "inputs": [],
      "name": "dripRatePerSecond",
      "outputs": [
        {
          "internalType": "uint256",
          "name": "",
          "type": "uint256"
        }
      ],
      "stateMutability": "view",
      "type": "function"
    },
    {
      "inputs": [
        {
          "internalType": "address",
          "name": "_account",
          "type": "address"
        }
      ],
      "name": "getAccount",
      "outputs": [
        {
          "internalType": "address",
          "name": "account",
          "type": "address"
        },
        {
          "internalType": "int256",
          "name": "index",
          "type": "int256"
        },
        {
          "internalType": "int256",
          "name": "iterationsUntilProcessed",
          "type": "int256"
        },
        {
          "internalType": "uint256",
          "name": "withdrawableDividends",
          "type": "uint256"
        },
        {
          "internalType": "uint256",
          "name": "totalDividends",
          "type": "uint256"
        },
        {
          "internalType": "uint256",
          "name": "lastClaimTime",
          "type": "uint256"
        },
        {
          "internalType": "uint256",
          "name": "nextClaimTime",
          "type": "uint256"
        },
        {
          "internalType": "uint256",
          "name": "secondsUntilAutoClaimAvailable",
          "type": "uint256"
        }
      ],
      "stateMutability": "view",
      "type": "function"
    },
    {
      "inputs": [
        {
          "internalType": "uint256",
          "name": "index",
          "type": "uint256"
        }
      ],
      "name": "getAccountAtIndex",
      "outputs": [
        {
          "internalType": "address",
          "name": "",
          "type": "address"
        },
        {
          "internalType": "int256",
          "name": "",
          "type": "int256"
        },
        {
          "internalType": "int256",
          "name": "",
          "type": "int256"
        },
        {
          "internalType": "uint256",
          "name": "",
          "type": "uint256"
        },
        {
          "internalType": "uint256",
          "name": "",
          "type": "uint256"
        },
        {
          "internalType": "uint256",
          "name": "",
          "type": "uint256"
        },
        {
          "internalType": "uint256",
          "name": "",
          "type": "uint256"
        },
        {
          "internalType": "uint256",
          "name": "",
          "type": "uint256"
        }
      ],
      "stateMutability": "view",
      "type": "function"
    },
    {
      "inputs": [],
      "name": "getLastProcessedIndex",
      "outputs": [
        {
          "internalType": "uint256",
          "name": "",
          "type": "uint256"
        }
      ],
      "stateMutability": "view",
      "type": "function"
    },
    {
      "inputs": [
        {
          "internalType": "uint256",
          "name": "_ticketId",
          "type": "uint256"
        }
      ],
      "name": "getNodeApr",
      "outputs": [
        {
          "internalType": "uint256",
          "name": "",
          "type": "uint256"
        }
      ],
      "stateMutability": "view",
      "type": "function"
    },
    {
      "inputs": [
        {
          "internalType": "address",
          "name": "user",
          "type": "address"
        }
      ],
      "name": "getNodeUnClaim",
      "outputs": [
        {
          "internalType": "uint256",
          "name": "",
          "type": "uint256"
        }
      ],
      "stateMutability": "view",
      "type": "function"
    },
    {
      "inputs": [
        {
          "internalType": "address[]",
          "name": "users",
          "type": "address[]"
        }
      ],
      "name": "getNodesAllRewards",
      "outputs": [
        {
          "internalType": "uint256[]",
          "name": "rewards",
          "type": "uint256[]"
        }
      ],
      "stateMutability": "view",
      "type": "function"
    },
    {
      "inputs": [
        {
          "internalType": "address[]",
          "name": "users",
          "type": "address[]"
        }
      ],
      "name": "getNodesUnClaim",
      "outputs": [
        {
          "internalType": "uint256[]",
          "name": "unClaims",
          "type": "uint256[]"
        }
      ],
      "stateMutability": "view",
      "type": "function"
    },
    {
      "inputs": [],
      "name": "getNumberOfTokenHolders",
      "outputs": [
        {
          "internalType": "uint256",
          "name": "",
          "type": "uint256"
        }
      ],
      "stateMutability": "view",
      "type": "function"
    },
    {
      "inputs": [
        {
          "internalType": "address",
          "name": "_user",
          "type": "address"
        }
      ],
      "name": "getUserApr",
      "outputs": [
        {
          "internalType": "uint256",
          "name": "",
          "type": "uint256"
        }
      ],
      "stateMutability": "view",
      "type": "function"
    },
    {
      "inputs": [
        {
          "internalType": "address",
          "name": "user",
          "type": "address"
        }
      ],
      "name": "getUserUnClaim",
      "outputs": [
        {
          "internalType": "uint256",
          "name": "newTokens",
          "type": "uint256"
        }
      ],
      "stateMutability": "view",
      "type": "function"
    },
    {
      "inputs": [
        {
          "internalType": "address",
          "name": "user",
          "type": "address"
        }
      ],
      "name": "getUserUnClaimWithNode",
      "outputs": [
        {
          "internalType": "uint256[]",
          "name": "_nodeList",
          "type": "uint256[]"
        },
        {
          "internalType": "uint256[]",
          "name": "_rewardsList",
          "type": "uint256[]"
        }
      ],
      "stateMutability": "view",
      "type": "function"
    },
    {
      "inputs": [
        {
          "internalType": "address[]",
          "name": "users",
          "type": "address[]"
        }
      ],
      "name": "getUsersAllRewards",
      "outputs": [
        {
          "internalType": "uint256[]",
          "name": "rewards",
          "type": "uint256[]"
        }
      ],
      "stateMutability": "view",
      "type": "function"
    },
    {
      "inputs": [
        {
          "internalType": "address[]",
          "name": "users",
          "type": "address[]"
        }
      ],
      "name": "getUsersUnClaim",
      "outputs": [
        {
          "internalType": "uint256[]",
          "name": "unClaims",
          "type": "uint256[]"
        }
      ],
      "stateMutability": "view",
      "type": "function"
    },
    {
      "inputs": [
        {
          "internalType": "uint256",
          "name": "amount",
          "type": "uint256"
        }
      ],
      "name": "handleReceive",
      "outputs": [],
      "stateMutability": "nonpayable",
      "type": "function"
    },
    {
      "inputs": [
        {
          "internalType": "contract IERC20Upgradeable",
          "name": "_asset",
          "type": "address"
        },
        {
          "internalType": "uint256",
          "name": "_dripRatePerSecond",
          "type": "uint256"
        }
      ],
      "name": "initialize",
      "outputs": [],
      "stateMutability": "nonpayable",
      "type": "function"
    },
    {
      "inputs": [
        {
          "internalType": "address",
          "name": "",
          "type": "address"
        }
      ],
      "name": "lastClaimTimes",
      "outputs": [
        {
          "internalType": "uint256",
          "name": "",
          "type": "uint256"
        }
      ],
      "stateMutability": "view",
      "type": "function"
    },
    {
      "inputs": [],
      "name": "lastDripTimestamp",
      "outputs": [
        {
          "internalType": "uint32",
          "name": "",
          "type": "uint32"
        }
      ],
      "stateMutability": "view",
      "type": "function"
    },
    {
      "inputs": [],
      "name": "lastProcessedIndex",
      "outputs": [
        {
          "internalType": "uint256",
          "name": "",
          "type": "uint256"
        }
      ],
      "stateMutability": "view",
      "type": "function"
    },
    {
      "inputs": [],
      "name": "minimumTokenBalanceForDividends",
      "outputs": [
        {
          "internalType": "uint256",
          "name": "",
          "type": "uint256"
        }
      ],
      "stateMutability": "view",
      "type": "function"
    },
    {
      "inputs": [
        {
          "internalType": "address",
          "name": "user",
          "type": "address"
        }
      ],
      "name": "nodeClaim",
      "outputs": [
        {
          "internalType": "uint256",
          "name": "",
          "type": "uint256"
        }
      ],
      "stateMutability": "nonpayable",
      "type": "function"
    },
    {
      "inputs": [],
      "name": "nodeDividendPerShare",
      "outputs": [
        {
          "internalType": "uint256",
          "name": "",
          "type": "uint256"
        }
      ],
      "stateMutability": "view",
      "type": "function"
    },
    {
      "inputs": [],
      "name": "nodeExchangeRateMantissa",
      "outputs": [
        {
          "internalType": "uint256",
          "name": "",
          "type": "uint256"
        }
      ],
      "stateMutability": "view",
      "type": "function"
    },
    {
      "inputs": [],
      "name": "nodeRate",
      "outputs": [
        {
          "internalType": "uint256",
          "name": "",
          "type": "uint256"
        }
      ],
      "stateMutability": "view",
      "type": "function"
    },
    {
      "inputs": [
        {
          "internalType": "address",
          "name": "",
          "type": "address"
        }
      ],
      "name": "nodeStates",
      "outputs": [
        {
          "internalType": "uint256",
          "name": "lastExchangeRateMantissa",
          "type": "uint256"
        },
        {
          "internalType": "uint256",
          "name": "balance",
          "type": "uint256"
        },
        {
          "internalType": "uint256",
          "name": "totalClaim",
          "type": "uint256"
        },
        {
          "internalType": "uint256",
          "name": "unClaim",
          "type": "uint256"
        },
        {
          "internalType": "uint256",
          "name": "lastDividendPerShare",
          "type": "uint256"
        }
      ],
      "stateMutability": "view",
      "type": "function"
    },
    {
      "inputs": [],
      "name": "nodeTotalStake",
      "outputs": [
        {
          "internalType": "uint256",
          "name": "",
          "type": "uint256"
        }
      ],
      "stateMutability": "view",
      "type": "function"
    },
    {
      "inputs": [
        {
          "internalType": "uint256",
          "name": "",
          "type": "uint256"
        }
      ],
      "name": "nodeWeight",
      "outputs": [
        {
          "internalType": "uint256",
          "name": "",
          "type": "uint256"
        }
      ],
      "stateMutability": "view",
      "type": "function"
    },
    {
      "inputs": [],
      "name": "owner",
      "outputs": [
        {
          "internalType": "address",
          "name": "",
          "type": "address"
        }
      ],
      "stateMutability": "view",
      "type": "function"
    },
    {
      "inputs": [
        {
          "internalType": "uint256",
          "name": "gas",
          "type": "uint256"
        }
      ],
      "name": "process",
      "outputs": [
        {
          "internalType": "uint256",
          "name": "",
          "type": "uint256"
        },
        {
          "internalType": "uint256",
          "name": "",
          "type": "uint256"
        },
        {
          "internalType": "uint256",
          "name": "",
          "type": "uint256"
        }
      ],
      "stateMutability": "nonpayable",
      "type": "function"
    },
    {
      "inputs": [
        {
          "internalType": "address",
          "name": "account",
          "type": "address"
        },
        {
          "internalType": "bool",
          "name": "automatic",
          "type": "bool"
        }
      ],
      "name": "processAccount",
      "outputs": [
        {
          "internalType": "bool",
          "name": "",
          "type": "bool"
        }
      ],
      "stateMutability": "nonpayable",
      "type": "function"
    },
    {
      "inputs": [],
      "name": "renounceOwnership",
      "outputs": [],
      "stateMutability": "nonpayable",
      "type": "function"
    },
    {
      "inputs": [
        {
          "internalType": "address",
          "name": "_asset",
          "type": "address"
        }
      ],
      "name": "setAsset",
      "outputs": [],
      "stateMutability": "nonpayable",
      "type": "function"
    },
    {
      "inputs": [
        {
          "internalType": "address",
          "name": "_cntr",
          "type": "address"
        }
      ],
      "name": "setController",
      "outputs": [],
      "stateMutability": "nonpayable",
      "type": "function"
    },
    {
      "inputs": [
        {
          "internalType": "address",
          "name": "_setter",
          "type": "address"
        }
      ],
      "name": "setDividendSetter",
      "outputs": [],
      "stateMutability": "nonpayable",
      "type": "function"
    },
    {
      "inputs": [
        {
          "internalType": "uint256",
          "name": "_dripRatePerSecond",
          "type": "uint256"
        }
      ],
      "name": "setDripRatePerSecond",
      "outputs": [],
      "stateMutability": "nonpayable",
      "type": "function"
    },
    {
      "inputs": [
        {
          "internalType": "address",
          "name": "nodeOwner",
          "type": "address"
        },
        {
          "internalType": "uint256",
          "name": "amount",
          "type": "uint256"
        },
        {
          "internalType": "uint256",
          "name": "ticketId",
          "type": "uint256"
        },
        {
          "internalType": "uint256",
          "name": "weight",
          "type": "uint256"
        }
      ],
      "name": "setNodeBalance",
      "outputs": [],
      "stateMutability": "nonpayable",
      "type": "function"
    },
    {
      "inputs": [
        {
          "internalType": "uint256",
          "name": "_nodeRate",
          "type": "uint256"
        }
      ],
      "name": "setNodeRate",
      "outputs": [],
      "stateMutability": "nonpayable",
      "type": "function"
    },
    {
      "inputs": [
        {
          "internalType": "address",
          "name": "user",
          "type": "address"
        },
        {
          "internalType": "uint256",
          "name": "ticketId",
          "type": "uint256"
        },
        {
          "internalType": "uint256",
          "name": "amount",
          "type": "uint256"
        }
      ],
      "name": "setUserBalance",
      "outputs": [],
      "stateMutability": "nonpayable",
      "type": "function"
    },
    {
      "inputs": [],
      "name": "totalDividendsDistributed",
      "outputs": [
        {
          "internalType": "uint256",
          "name": "",
          "type": "uint256"
        }
      ],
      "stateMutability": "view",
      "type": "function"
    },
    {
      "inputs": [],
      "name": "totalDrip",
      "outputs": [
        {
          "internalType": "uint256",
          "name": "",
          "type": "uint256"
        }
      ],
      "stateMutability": "view",
      "type": "function"
    },
    {
      "inputs": [
        {
          "internalType": "address",
          "name": "olduser",
          "type": "address"
        },
        {
          "internalType": "address",
          "name": "newUser",
          "type": "address"
        }
      ],
      "name": "transferNode",
      "outputs": [],
      "stateMutability": "nonpayable",
      "type": "function"
    },
    {
      "inputs": [
        {
          "internalType": "address",
          "name": "newOwner",
          "type": "address"
        }
      ],
      "name": "transferOwnership",
      "outputs": [],
      "stateMutability": "nonpayable",
      "type": "function"
    },
    {
      "inputs": [
        {
          "internalType": "uint256",
          "name": "newClaimWait",
          "type": "uint256"
        }
      ],
      "name": "updateClaimWait",
      "outputs": [],
      "stateMutability": "nonpayable",
      "type": "function"
    },
    {
      "inputs": [
        {
          "internalType": "address",
          "name": "user",
          "type": "address"
        }
      ],
      "name": "userClaim",
      "outputs": [
        {
          "internalType": "uint256",
          "name": "",
          "type": "uint256"
        }
      ],
      "stateMutability": "nonpayable",
      "type": "function"
    },
    {
      "inputs": [],
      "name": "userDividendPerShare",
      "outputs": [
        {
          "internalType": "uint256",
          "name": "",
          "type": "uint256"
        }
      ],
      "stateMutability": "view",
      "type": "function"
    },
    {
      "inputs": [],
      "name": "userExchangeRateMantissa",
      "outputs": [
        {
          "internalType": "uint256",
          "name": "",
          "type": "uint256"
        }
      ],
      "stateMutability": "view",
      "type": "function"
    },
    {
      "inputs": [
        {
          "internalType": "uint256",
          "name": "",
          "type": "uint256"
        }
      ],
      "name": "userNodeDividendPerShare",
      "outputs": [
        {
          "internalType": "uint256",
          "name": "",
          "type": "uint256"
        }
      ],
      "stateMutability": "view",
      "type": "function"
    },
    {
      "inputs": [
        {
          "internalType": "uint256",
          "name": "",
          "type": "uint256"
        }
      ],
      "name": "userNodeRateMantissa",
      "outputs": [
        {
          "internalType": "uint256",
          "name": "",
          "type": "uint256"
        }
      ],
      "stateMutability": "view",
      "type": "function"
    },
    {
      "inputs": [
        {
          "internalType": "uint256",
          "name": "",
          "type": "uint256"
        }
      ],
      "name": "userNodeStates",
      "outputs": [
        {
          "internalType": "uint256",
          "name": "lastExchangeRateMantissa",
          "type": "uint256"
        },
        {
          "internalType": "uint256",
          "name": "balance",
          "type": "uint256"
        },
        {
          "internalType": "uint256",
          "name": "totalClaim",
          "type": "uint256"
        },
        {
          "internalType": "uint256",
          "name": "unClaim",
          "type": "uint256"
        },
        {
          "internalType": "uint256",
          "name": "lastDividendPerShare",
          "type": "uint256"
        }
      ],
      "stateMutability": "view",
      "type": "function"
    },
    {
      "inputs": [],
      "name": "userNodeTotalStake",
      "outputs": [
        {
          "internalType": "uint256",
          "name": "",
          "type": "uint256"
        }
      ],
      "stateMutability": "view",
      "type": "function"
    },
    {
      "inputs": [
        {
          "internalType": "address",
          "name": "",
          "type": "address"
        }
      ],
      "name": "userStakeStates",
      "outputs": [
        {
          "internalType": "uint256",
          "name": "unClaim",
          "type": "uint256"
        },
        {
          "internalType": "uint256",
          "name": "totalClaim",
          "type": "uint256"
        }
      ],
      "stateMutability": "view",
      "type": "function"
    },
    {
      "inputs": [
        {
          "internalType": "address",
          "name": "to",
          "type": "address"
        },
        {
          "internalType": "uint256",
          "name": "amount",
          "type": "uint256"
        }
      ],
      "name": "withdrawTo",
      "outputs": [],
      "stateMutability": "nonpayable",
      "type": "function"
    }
  ],
  "bytecode": "0x608060405234801561001057600080fd5b50613545806100206000396000f3fe608060405234801561001057600080fd5b50600436106103a45760003560e01c806392eefe9b116101e9578063d2677c051161010f578063e964058c116100ad578063f77c47911161007c578063f77c4791146108b6578063fbcbc0f1146108c9578063fd380621146108dc578063ffb2c479146108e557600080fd5b8063e964058c14610874578063e98030c71461087d578063f2fde38b14610890578063f39a19bf146108a357600080fd5b8063ddaf4848116100e9578063ddaf484814610825578063dfb2147714610838578063e4b1eacc1461084b578063e7841ec01461086c57600080fd5b8063d2677c05146107cd578063d33a9811146107e0578063d9772a251461080057600080fd5b8063b6f0731611610187578063c7f6d4cc11610156578063c7f6d4cc14610781578063ca5baafc14610794578063cd6dc687146107a7578063d0d552dd146107ba57600080fd5b8063b6f0731614610739578063bc4c4b3714610742578063be10b61414610765578063c7ad5eff1461076e57600080fd5b8063a57e6437116101c3578063a57e6437146106ea578063a60d5a1a146106f3578063ab69b8ce14610706578063b3c1999e1461072657600080fd5b806392eefe9b146106c65780639f678cca146106d95780639fd4e1cf146106e157600080fd5b806338d52e0f116102ce57806360a22e501161026c578063715018a61161023b578063715018a61461068457806380b49cdd1461068c57806385a6b3ae146106ac5780638da5cb5b146106b557600080fd5b806360a22e501461064c57806368fd2e9f146106555780636d629dbe146106685780636f2789ec1461067b57600080fd5b80633f7b2ed9116102a85780633f7b2ed91461058f5780634195c410146105ce5780635183d6fd146105e15780635f13bb8d1461063957600080fd5b806338d52e0f146105145780633bdfe4371461053f5780633df930721461057c57600080fd5b8063187f33341161034657806325f3cbeb1161031557806325f3cbeb146104805780633009a609146104e55780633243c791146104ee5780633749ea101461050157600080fd5b8063187f333414610431578063205c28781461043a578063226cfa3d1461044d57806325c5ecbb1461046d57600080fd5b80630a6b433f116103825780630a6b433f146103e25780630d024684146103f55780630fc1f08214610415578063163f7df51461041e57600080fd5b806304a8d8b5146103a957806305102062146103be57806309bbedde146103da575b600080fd5b6103bc6103b7366004612fe0565b610913565b005b6103c7606a5481565b6040519081526020015b60405180910390f35b6077546103c7565b6103c76103f0366004613015565b610c20565b610408610403366004613032565b610ec7565b6040516103d191906130e2565b6103c7606e5481565b6103c761042c3660046130f5565b610fcb565b6103c760685481565b6103bc61044836600461310e565b61106b565b6103c761045b366004613015565b607c6020526000908152604090205481565b6103bc61047b36600461313a565b6111fb565b6104bd61048e366004613015565b607460205260009081526040902080546001820154600283015460038401546004909401549293919290919085565b604080519586526020860194909452928401919091526060830152608082015260a0016103d1565b6103c7607b5481565b6103bc6104fc3660046130f5565b61129e565b6103c761050f366004613015565b611371565b606554610527906001600160a01b031681565b6040516001600160a01b0390911681526020016103d1565b6104bd61054d3660046130f5565b607360205260009081526040902080546001820154600283015460038401546004909401549293919290919085565b6103c761058a366004613015565b6113dd565b6105b961059d366004613015565b6076602052600090815260409020600281015460039091015482565b604080519283526020830191909152016103d1565b6103bc6105dc366004613015565b61145b565b6105f46105ef3660046130f5565b6114c9565b604080516001600160a01b0390991689526020890197909752958701949094526060860192909252608085015260a084015260c083015260e0820152610100016103d1565b606754610527906001600160a01b031681565b6103c7606d5481565b610408610663366004613032565b61161d565b6103bc61067636600461310e565b611731565b6103c7607d5481565b6103bc6117e3565b6103c761069a3660046130f5565b60756020526000908152604090205481565b6103c760705481565b6033546001600160a01b0316610527565b6103bc6106d4366004613015565b6117f7565b6103c7611865565b6103c7606f5481565b6103c760725481565b6103c7610701366004613189565b611969565b6103c76107143660046130f5565b607f6020526000908152604090205481565b610408610734366004613032565b611994565b6103c760715481565b610755610750366004613231565b611ab0565b60405190151581526020016103d1565b6103c7607e5481565b6103bc61077c3660046130f5565b611af2565b6103c761078f366004613015565b611b8f565b6103bc6107a23660046130f5565b611ce1565b6103bc6107b536600461310e565b611d77565b6103bc6107c8366004613015565b611eb9565b6104086107db366004613032565b611ee3565b6103c76107ee3660046130f5565b60806020526000908152604090205481565b606c546108109063ffffffff1681565b60405163ffffffff90911681526020016103d1565b6103bc6108333660046130f5565b611f79565b6103bc61084636600461325f565b611fd3565b61085e610859366004613015565b61211f565b6040516103d192919061329a565b607b546103c7565b6103c7606b5481565b6103bc61088b3660046130f5565b612384565b6103bc61089e366004613015565b6124d2565b6103c76108b1366004613015565b612548565b606654610527906001600160a01b031681565b6105f46108d7366004613015565b6126b3565b6103c760695481565b6108f86108f33660046130f5565b612874565b604080519384526020840192909252908201526060016103d1565b6066546001600160a01b031633146109465760405162461bcd60e51b815260040161093d906132bf565b60405180910390fd5b61094e611865565b5060008281526073602090815260408083206001600160a01b038716845260769092529091208061097e8561298f565b50600085815260018084016020908152604080842092830154607f835281852054608090935293205491926109b592849290612ac3565b506109db856109d583600101548760010154612b6390919063ffffffff16565b90612b6f565b6001808601919091558101541580156109f45750600085115b15610a0f578154600181018355600083815260209020018690555b6001810185905560038101546002840154610a2991612b6f565b60028401556000600382015584610b1d57600086815260018085016020526040822082815590810182905560028101829055600381018290556004015581545b8015610b1b5780610a79816132fe565b91505086838281548110610a8f57610a8f613315565b90600052602060002001541415610b165782548390610ab09060019061332b565b81548110610ac057610ac0613315565b9060005260206000200154838281548110610add57610add613315565b906000526020600020018190555082805480610afb57610afb613342565b60019003818190600052602060002001600090559055610b1b565b610a69565b505b607e548510610ba457604051632f0ad01760e21b8152607760048201526001600160a01b03881660248201526044810186905273__$4b09164eaf8a84d7a8044fedc88418fa6b$__9063bc2b405c9060640160006040518083038186803b158015610b8757600080fd5b505af4158015610b9b573d6000803e3d6000fd5b50505050610c17565b60405163131836e760e21b8152607760048201526001600160a01b038816602482015273__$4b09164eaf8a84d7a8044fedc88418fa6b$__90634c60db9c9060440160006040518083038186803b158015610bfe57600080fd5b505af4158015610c12573d6000803e3d6000fd5b505050505b50505050505050565b6000610c2a611865565b506001600160a01b038216600090815260766020526040812060028101805492905580549091905b8015610dc657610c6360018261332b565b90506000838281548110610c7957610c79613315565b90600052602060002001549050610c8f8161298f565b506001600160a01b03861660009081526076602090815260408083208484526001908101835281842090810154607f84528285205460809094529190932054610cda92849291612ac3565b506003810154610cea9085612b6f565b60006003830181905583815260736020526040902060010154909450610dbf576001600160a01b03871660009081526076602090815260408083208584526001908101909252822082815580820183905560028101839055600381018390556004019190915585548691610d5d9161332b565b81548110610d6d57610d6d613315565b9060005260206000200154858481548110610d8a57610d8a613315565b906000526020600020018190555084805480610da857610da8613342565b600190038181906000526020600020016000905590555b5050610c52565b6001600160a01b038516600090815260766020526040902060030154610dec9083612b6f565b6001600160a01b038681166000818152607660205260409081902060030193909355606554925163a9059cbb60e01b815260048101919091526024810185905291169063a9059cbb906044016020604051808303816000875af1158015610e57573d6000803e3d6000fd5b505050506040513d601f19601f82011682018060405250810190610e7b9190613358565b50846001600160a01b03167f5329b89678b0f095cae2abe10b88ad57329871ee9296ae8f358a46b9fa0ff32883604051610eb791815260200190565b60405180910390a2509392505050565b60608167ffffffffffffffff811115610ee257610ee2613173565b604051908082528060200260200182016040528015610f0b578160200160208202803683370190505b50905060005b82811015610fc457610f9560766000868685818110610f3257610f32613315565b9050602002016020810190610f479190613015565b6001600160a01b03166001600160a01b03168152602001908152602001600020600301546109d5868685818110610f8057610f80613315565b905060200201602081019061058a9190613015565b828281518110610fa757610fa7613315565b602090810291909101015280610fbc81613375565b915050610f11565b5092915050565b600060725460001415610fe057506000919050565b600082815260736020526040902060018101546110005750600092915050565b6000611010826001015485612b7b565b9050600061102c62015180606854612b9890919063ffffffff16565b9050611062836001015461105c60725461105c6237b1d06110568789612b9890919063ffffffff16565b90612b98565b90612ba4565b95945050505050565b611073612bb0565b61107b611865565b506065546040516370a0823160e01b81523060048201526000916001600160a01b0316906370a0823190602401602060405180830381865afa1580156110c5573d6000803e3d6000fd5b505050506040513d601f19601f820116820180604052508101906110e99190613390565b90508082111561113b5760405162461bcd60e51b815260206004820152601b60248201527f4469766964656e642f696e73756666696369656e742d66756e64730000000000604482015260640161093d565b60655460405163a9059cbb60e01b81526001600160a01b038581166004830152602482018590529091169063a9059cbb906044016020604051808303816000875af115801561118e573d6000803e3d6000fd5b505050506040513d601f19601f820116820180604052508101906111b29190613358565b50826001600160a01b03167f7084f5476618d8e60b11ef0d7d3f06914655adb8793e28ff7f018d4c76d505d5836040516111ee91815260200190565b60405180910390a2505050565b6066546001600160a01b031633146112255760405162461bcd60e51b815260040161093d906132bf565b61122e82612548565b506001600160a01b039081166000908152607460205260408082209390921681529081208054835560018082018054918501919091556002808301805491860191909155600380840180549187019190915560048085018054919097015592849055908390558290558190559055565b6067546001600160a01b031633146112ef5760405162461bcd60e51b815260206004820152601460248201527327a7262cafa234bb34b232b7321029b2b2ba32b960611b604482015260640161093d565b8015806112fc5750607254155b156113045750565b6070546113119082612b6f565b60705560695460009061132c9060649061105c908590612b98565b6072549091501561136c57611349606f546109d583607254612c0a565b606f55606e54611368906109d56113608585612b63565b607254612c0a565b606e555b505b50565b6001600160a01b0381166000908152607460209081526040808320815160a08101835281548152600182015493810193909352600281015491830191909152600381015460608301526004015460808201526113d7906113cf612c2b565b606f54612ca1565b92915050565b6001600160a01b03811660009081526076602052604090206002015460606114048361211f565b9150600090505b81518110156114545761144082828151811061142957611429613315565b602002602001015184612b6f90919063ffffffff16565b92508061144c81613375565b91505061140b565b5050919050565b611463612bb0565b6001600160a01b0381166114a75760405162461bcd60e51b815260206004820152600b60248201526a24a72b2624a22fa0a2222960a91b604482015260640161093d565b606780546001600160a01b0319166001600160a01b0392909216919091179055565b600080600080600080600080607773__$4b09164eaf8a84d7a8044fedc88418fa6b$__63deb3d89690916040518263ffffffff1660e01b815260040161151191815260200190565b602060405180830381865af415801561152e573d6000803e3d6000fd5b505050506040513d601f19601f820116820180604052508101906115529190613390565b8910611577575060009650600019955085945086935083925082915081905080611612565b6040516368d54f3f60e11b815260776004820152602481018a905260009073__$4b09164eaf8a84d7a8044fedc88418fa6b$__9063d1aa9e7e90604401602060405180830381865af41580156115d1573d6000803e3d6000fd5b505050506040513d601f19601f820116820180604052508101906115f591906133a9565b9050611600816126b3565b98509850985098509850985098509850505b919395975091939597565b60608167ffffffffffffffff81111561163857611638613173565b604051908082528060200260200182016040528015611661578160200160208202803683370190505b50905060005b82811015610fc4576117026074600086868581811061168857611688613315565b905060200201602081019061169d9190613015565b6001600160a01b03166001600160a01b031681526020019081526020016000206040518060a0016040529081600082015481526020016001820154815260200160028201548152602001600382015481526020016004820154815250506113cf612c2b565b82828151811061171457611714613315565b60209081029190910101528061172981613375565b915050611667565b6066546001600160a01b0316331461175b5760405162461bcd60e51b815260040161093d906132bf565b61176482612548565b506001600160a01b03821660009081526074602052604090206001015460725461178d91612b63565b6072556001600160a01b0382166000908152607460205260408120818155600181018290556002810182905560038101829055600401556117cd8161298f565b5060009081526073602052604081206001015550565b6117eb612bb0565b6117f56000612d30565b565b6117ff612bb0565b6001600160a01b0381166118435760405162461bcd60e51b815260206004820152600b60248201526a24a72b2624a22fa0a2222960a91b604482015260640161093d565b606680546001600160a01b0319166001600160a01b0392909216919091179055565b600080611870612d82565b606c5463ffffffff91821692501681141561188d57600091505090565b606c546000906118a890839063ffffffff90811690612b6316565b905060006118c160685483612b9890919063ffffffff16565b905060006118df606461105c60695485612b9890919063ffffffff16565b607254909150156119305760006118f882607254612c0a565b606b549091506119089082612b6f565b606b55600061191a6113608585612b63565b606a5490915061192a9082612b6f565b606a5550505b61193984612d92565b606c805463ffffffff191663ffffffff928316179055606d5461195e918490612b6f16565b606d55509392505050565b600080611977858585612ca1565b60408601519091506119899082612b6f565b9150505b9392505050565b60608167ffffffffffffffff8111156119af576119af613173565b6040519080825280602002602001820160405280156119d8578160200160208202803683370190505b50905060005b82811015610fc457611a81607460008686858181106119ff576119ff613315565b9050602002016020810190611a149190613015565b6001600160a01b03166001600160a01b031681526020019081526020016000206040518060a001604052908160008201548152602001600182015481526020016002820154815260200160038201548152602001600482015481525050611a79612c2b565b606f54611969565b828281518110611a9357611a93613315565b602090810291909101015280611aa881613375565b9150506119de565b600080611abc84610c20565b90508015611ae85750506001600160a01b0382166000908152607c6020526040902042905560016113d7565b5060009392505050565b611afa612bb0565b60008111611b4a5760405162461bcd60e51b815260206004820152601c60248201527f546f6b656e4661756365742f6e6f6465526174652d67742d7a65726f00000000604482015260640161093d565b611b52611865565b5060698190556040518181527ffab63a863d2b8bf77782de36d1f7ee259e4663ac848a09ffc79a72286bd7c3de906020015b60405180910390a150565b600060725460001415611ba457506000919050565b6001600160a01b03821660009081526076602052604081208190815b8154811015611c7c576000828281548110611bdd57611bdd613315565b90600052602060002001549050607360008281526020019081526020016000206001015460001415611c0f5750611c6a565b6001600160a01b0387166000908152607660209081526040808320848452600190810190925290912090810154611c4c9087906109d59085612b7b565b9550611c65816001015486612b6f90919063ffffffff16565b945050505b80611c7481613375565b915050611bc0565b5081611c8d57506000949350505050565b6000611cb1600a61105c600861105662015180606854612b9890919063ffffffff16565b9050611cd78361105c60725461105c6237b1d0611056878b612b9890919063ffffffff16565b9695505050505050565b611ce9612bb0565b60008111611d395760405162461bcd60e51b815260206004820152601c60248201527f546f6b656e4661756365742f64726970526174652d67742d7a65726f00000000604482015260640161093d565b611d41611865565b5060688190556040518181527f3d38e7cd2e029035006f9977a727c8724cd41dffb6d2a40d9f66bd4c26836a3290602001611b84565b600054600190610100900460ff16158015611d99575060005460ff8083169116105b611dfc5760405162461bcd60e51b815260206004820152602e60248201527f496e697469616c697a61626c653a20636f6e747261637420697320616c72656160448201526d191e481a5b9a5d1a585b1a5e995960921b606482015260840161093d565b6000805461ffff191660ff831617610100179055611e18612dfb565b611e20612d82565b606c805463ffffffff191663ffffffff92909216919091179055606580546001600160a01b0319166001600160a01b038516179055611e5e82611ce1565b6014606955655af3107a4000607e55610e10607d556000805461ff001916905560405160ff821681527f7f26b83ff96e1f2b6a682f133852f6798a09c465da95921460cefb38474024989060200160405180910390a1505050565b611ec1612bb0565b606580546001600160a01b0319166001600160a01b0392909216919091179055565b60608167ffffffffffffffff811115611efe57611efe613173565b604051908082528060200260200182016040528015611f27578160200160208202803683370190505b50905060005b82811015610fc457611f4a848483818110610f8057610f80613315565b828281518110611f5c57611f5c613315565b602090810291909101015280611f7181613375565b915050611f2d565b6067546001600160a01b03163314611fca5760405162461bcd60e51b815260206004820152601460248201527327a7262cafa234bb34b232b7321029b2b2ba32b960611b604482015260640161093d565b61136e8161129e565b6066546001600160a01b03163314611ffd5760405162461bcd60e51b815260040161093d906132bf565b612005611865565b506001600160a01b03841660009081526074602052604090206001810154606b54606f5461203593929190612ac3565b506001600160a01b0384166000908152607460205260409020600101546072546120649185916109d591612b63565b6072556001600160a01b038416600090815260746020526040902060010183905561208e8261298f565b506000828152607560205260409081902082905551632f0ad01760e21b8152607760048201526001600160a01b03851660248201526044810184905273__$4b09164eaf8a84d7a8044fedc88418fa6b$__9063bc2b405c9060640160006040518083038186803b15801561210157600080fd5b505af4158015612115573d6000803e3d6000fd5b5050505050505050565b606080600061212c612e2a565b6001600160a01b038516600090815260766020526040902080549192509067ffffffffffffffff81111561216257612162613173565b60405190808252806020026020018201604052801561218b578160200160208202803683370190505b50815490945067ffffffffffffffff8111156121a9576121a9613173565b6040519080825280602002602001820160405280156121d2578160200160208202803683370190505b50925060005b815481101561237c5760008282815481106121f5576121f5613315565b60009182526020808320909101546001600160a01b038a16835260768252604080842082855260019081019093528320918201549093509091906122399084612b7b565b600084815260736020526040812060010154919250908190156122ad57600085815260736020526040902054612270908990612b63565b915061227c8286612b7b565b600086815260736020526040902060040154606e5491935061229e9190612b63565b90506122aa8186612b7b565b90505b83546000868152607f60205260409020546122d491906122ce908590612b6f565b90612b63565b915060006122e6856001015484612ea3565b600486015460008881526080602052604090205491925061230c916122ce908590612b6f565b9150600061231a8584612ea3565b9050868c898151811061232f5761232f613315565b60209081029190910101526123448282612b6f565b8b898151811061235657612356613315565b60200260200101818152505050505050505050808061237490613375565b9150506121d8565b505050915091565b61238c612bb0565b610e1081101580156123a15750620151808111155b6124275760405162461bcd60e51b815260206004820152604b60248201527f546f6b656e5f4469766964656e645f547261636b65723a20636c61696d57616960448201527f74206d757374206265207570646174656420746f206265747765656e2031206160648201526a6e6420323420686f75727360a81b608482015260a40161093d565b607d5481141561249f5760405162461bcd60e51b815260206004820152603d60248201527f546f6b656e5f4469766964656e645f547261636b65723a2043616e6e6f74207560448201527f706461746520636c61696d5761697420746f2073616d652076616c7565000000606482015260840161093d565b607d5460405182907f474ea64804364a1e29a4487ddb63c3342a2dd826ccd8acf48825e680a0e6f20f90600090a3607d55565b6124da612bb0565b6001600160a01b03811661253f5760405162461bcd60e51b815260206004820152602660248201527f4f776e61626c653a206e6577206f776e657220697320746865207a65726f206160448201526564647265737360d01b606482015260840161093d565b61136e81612d30565b6000612552611865565b506001600160a01b03821660009081526074602052604090206001810154606b54606f5461258293929190612ac3565b506001600160a01b0382166000908152607460205260409020600301546125ab57506000919050565b6001600160a01b0382166000908152607460205260408120600381018054929055600201546125da9082612b6f565b6001600160a01b038481166000818152607460205260409081902060020193909355606554925163a9059cbb60e01b815260048101919091526024810184905291169063a9059cbb906044016020604051808303816000875af1158015612645573d6000803e3d6000fd5b505050506040513d601f19601f820116820180604052508101906126699190613358565b50826001600160a01b03167f638b31b360307f664fe65f94e19b3fb3b6569d947245b7195cff88cf1c0e1c14826040516126a591815260200190565b60405180910390a292915050565b6040516317e142d160e01b8152607760048201526001600160a01b0382166024820152819060009081908190819081908190819073__$4b09164eaf8a84d7a8044fedc88418fa6b$__906317e142d190604401602060405180830381865af4158015612723573d6000803e3d6000fd5b505050506040513d601f19601f820116820180604052508101906127479190613390565b96506000199550600087126127a957607b5487111561277557607b5461276e908890612ec4565b95506127a9565b607b546077546000911061278a576000612799565b607b5460775461279991612b63565b90506127a58882612f10565b9650505b6001600160a01b0388166000908152607460209081526040808320600301546076909252909120600201546127dd91612b6f565b6001600160a01b0389166000908152607460209081526040808320600201546076909252909120600301549196506128159190612b6f565b6001600160a01b0389166000908152607c602052604090205490945092508261283f57600061284d565b607d5461284d908490612b6f565b915042821161285d576000612867565b6128678242612b63565b9050919395975091939597565b6077546000908190819080612894575050607b5460009250829150612988565b607b546000805a90506000805b89841080156128af57508582105b1561297757846128be81613375565b607754909650861090506128d157600094505b6000607760000186815481106128e9576128e9613315565b60009182526020808320909101546001600160a01b0316808352607c90915260409091205490915061291a90612f4e565b1561293d5761292a816001611ab0565b1561293d578161293981613375565b9250505b8261294781613375565b93505060005a90508085111561296e5761296b6129648683612b63565b8790612b6f565b95505b93506128a19050565b607b85905590975095509193505050505b9193909250565b6000818152607360205260408120600181015482906129ae9085612b7b565b8254606a5491925014156129c6575060009392505050565b8154606a546000916129d89190612b63565b905060006129e68383612ea3565b606a54855560038501549091506129fd9082612b6f565b60038501556004840154606e54600091612a179190612b63565b90506000612a258583612ea3565b606e5460048801556003870154909150612a3f9082612b6f565b60038701558415612aad57612a6c612a57858a612b7b565b60008a8152607f602052604090205490612b6f565b6000898152607f6020526040902055612a9d612a88838a612b7b565b60008a81526080602052604090205490612b6f565b6000898152608060205260409020555b612ab78382612b6f565b98975050505050505050565b8354600090831415612ad757506000612b5b565b8454600090612ae7908590612b63565b90506000612af58683612ea3565b8588556003880154909150612b0a9082612b6f565b60038801556004870154600090612b2d908890612b28908890612b63565b612ea3565b600489018690556003890154909150612b469082612b6f565b6003890155612b558282612b6f565b93505050505b949350505050565b600061198d828461332b565b600061198d82846133c6565b60008181526075602052604081205461198d9060649061105c9086905b600061198d82846133de565b600061198d82846133fd565b6033546001600160a01b031633146117f55760405162461bcd60e51b815260206004820181905260248201527f4f776e61626c653a2063616c6c6572206973206e6f7420746865206f776e6572604482015260640161093d565b600080612c1f84670de0b6b3a7640000612b98565b9050612b5b8184612ba4565b606c54600090819063ffffffff16612c41612d82565b612c4b919061341f565b63ffffffff1690506000612c6a60685483612b9890919063ffffffff16565b90506000612c88606461105c60695485612b9890919063ffffffff16565b9050612c99606b5460725483612f75565b935050505090565b600080612cbb856080015184612b6390919063ffffffff16565b90506000612ccd866020015183612ea3565b8651909150851415612cf1576060860151612ce89082612b6f565b9250505061198d565b8551600090612d01908790612b63565b90506000612d13886020015183612ea3565b9050612ab7836109d5838b60600151612b6f90919063ffffffff16565b603380546001600160a01b038381166001600160a01b0319831681179093556040519116919082907f8be0079c531659141344cd1fd0a4f28419497f9722a3daafe3b4186f6b6457e090600090a35050565b6000612d8d42612d92565b905090565b600063ffffffff821115612df75760405162461bcd60e51b815260206004820152602660248201527f53616665436173743a2076616c756520646f65736e27742066697420696e203360448201526532206269747360d01b606482015260840161093d565b5090565b600054610100900460ff16612e225760405162461bcd60e51b815260040161093d90613444565b6117f5612f9b565b606c54600090819063ffffffff16612e40612d82565b612e4a919061341f565b63ffffffff1690506000612e6960685483612b9890919063ffffffff16565b90506000612e87606461105c60695485612b9890919063ffffffff16565b606a54607254919250612c9991612e9e8585612b63565b612f75565b600080612eb08385612b98565b9050612b5b81670de0b6b3a7640000612ba4565b6000808212158015612edf575082612edc838261348f565b13155b80612efd5750600082128015612efd575082612efb838261348f565b135b612f0657600080fd5b61198d828461348f565b600080612f1d83856134ce565b905060008312158015612f305750838112155b80612f455750600083128015612f4557508381125b61198d57600080fd5b600042821115612f6057506000919050565b607d54612f6d4284612b63565b101592915050565b600082612f8357508261198d565b6000612f8f8385612c0a565b90506119898186612b6f565b600054610100900460ff16612fc25760405162461bcd60e51b815260040161093d90613444565b6117f533612d30565b6001600160a01b038116811461136e57600080fd5b600080600060608486031215612ff557600080fd5b833561300081612fcb565b95602085013595506040909401359392505050565b60006020828403121561302757600080fd5b813561198d81612fcb565b6000806020838503121561304557600080fd5b823567ffffffffffffffff8082111561305d57600080fd5b818501915085601f83011261307157600080fd5b81358181111561308057600080fd5b8660208260051b850101111561309557600080fd5b60209290920196919550909350505050565b600081518084526020808501945080840160005b838110156130d7578151875295820195908201906001016130bb565b509495945050505050565b60208152600061198d60208301846130a7565b60006020828403121561310757600080fd5b5035919050565b6000806040838503121561312157600080fd5b823561312c81612fcb565b946020939093013593505050565b6000806040838503121561314d57600080fd5b823561315881612fcb565b9150602083013561316881612fcb565b809150509250929050565b634e487b7160e01b600052604160045260246000fd5b600080600083850360e081121561319f57600080fd5b60a08112156131ad57600080fd5b5060405160a0810181811067ffffffffffffffff821117156131df57634e487b7160e01b600052604160045260246000fd5b60409081528535825260208087013590830152858101359082015260608086013590820152608080860135908201529560a0850135955060c0909401359392505050565b801515811461136e57600080fd5b6000806040838503121561324457600080fd5b823561324f81612fcb565b9150602083013561316881613223565b6000806000806080858703121561327557600080fd5b843561328081612fcb565b966020860135965060408601359560600135945092505050565b6040815260006132ad60408301856130a7565b828103602084015261198981856130a7565b6020808252600f908201526e27a7262cafa1a7a72a2927a62622a960891b604082015260600190565b634e487b7160e01b600052601160045260246000fd5b60008161330d5761330d6132e8565b506000190190565b634e487b7160e01b600052603260045260246000fd5b60008282101561333d5761333d6132e8565b500390565b634e487b7160e01b600052603160045260246000fd5b60006020828403121561336a57600080fd5b815161198d81613223565b6000600019821415613389576133896132e8565b5060010190565b6000602082840312156133a257600080fd5b5051919050565b6000602082840312156133bb57600080fd5b815161198d81612fcb565b600082198211156133d9576133d96132e8565b500190565b60008160001904831182151516156133f8576133f86132e8565b500290565b60008261341a57634e487b7160e01b600052601260045260246000fd5b500490565b600063ffffffff8381169083168181101561343c5761343c6132e8565b039392505050565b6020808252602b908201527f496e697469616c697a61626c653a20636f6e7472616374206973206e6f74206960408201526a6e697469616c697a696e6760a81b606082015260800190565b60008083128015600160ff1b8501841216156134ad576134ad6132e8565b6001600160ff1b03840183138116156134c8576134c86132e8565b50500390565b600080821280156001600160ff1b03849003851316156134f0576134f06132e8565b600160ff1b8390038412811615613509576135096132e8565b5050019056fea2646970667358221220c1d550a2bf4819e537b6592b224e8d8cd9587aad15a77cdafeda38298cf1fd8464736f6c634300080b0033",
  "linkReferences": {
    "contracts/lib/IterableMapping.sol": {
      "IterableMapping": [
        {
          "length": 20,
          "start": 2930
        },
        {
          "length": 20,
          "start": 3049
        },
        {
          "length": 20,
          "start": 5369
        },
        {
          "length": 20,
          "start": 5559
        },
        {
          "length": 20,
          "start": 8428
        },
        {
          "length": 20,
          "start": 9993
        }
      ]
    }
  },
  "deployedLinkReferences": {
    "contracts/lib/IterableMapping.sol": {
      "IterableMapping": [
        {
          "length": 20,
          "start": 2898
        },
        {
          "length": 20,
          "start": 3017
        },
        {
          "length": 20,
          "start": 5337
        },
        {
          "length": 20,
          "start": 5527
        },
        {
          "length": 20,
          "start": 8396
        },
        {
          "length": 20,
          "start": 9961
        }
      ]
    }
  }
}