{
  "_format": "hh-sol-artifact-1",
  "contractName": "BIBDividend",
  "sourceName": "contracts/community/BIBDividend.sol",
  "abi": [
    {
      "anonymous": false,
      "inputs": [
        {
          "indexed": true,
          "internalType": "uint256",
          "name": "newValue",
          "type": "uint256"
        },
        {
          "indexed": true,
          "internalType": "uint256",
          "name": "oldValue",
          "type": "uint256"
        }
      ],
      "name": "ClaimWaitUpdated",
      "type": "event"
    },
    {
      "anonymous": false,
      "inputs": [
        {
          "indexed": false,
          "internalType": "uint256",
          "name": "dripRatePerSecond",
          "type": "uint256"
        }
      ],
      "name": "DripRateChanged",
      "type": "event"
    },
    {
      "anonymous": false,
      "inputs": [
        {
          "indexed": false,
          "internalType": "uint8",
          "name": "version",
          "type": "uint8"
        }
      ],
      "name": "Initialized",
      "type": "event"
    },
    {
      "anonymous": false,
      "inputs": [
        {
          "indexed": true,
          "internalType": "address",
          "name": "user",
          "type": "address"
        },
        {
          "indexed": false,
          "internalType": "uint256",
          "name": "newTokens",
          "type": "uint256"
        }
      ],
      "name": "NodeClaimed",
      "type": "event"
    },
    {
      "anonymous": false,
      "inputs": [
        {
          "indexed": false,
          "internalType": "uint256",
          "name": "nodeRate",
          "type": "uint256"
        }
      ],
      "name": "NodeRateChange",
      "type": "event"
    },
    {
      "anonymous": false,
      "inputs": [
        {
          "indexed": true,
          "internalType": "address",
          "name": "previousOwner",
          "type": "address"
        },
        {
          "indexed": true,
          "internalType": "address",
          "name": "newOwner",
          "type": "address"
        }
      ],
      "name": "OwnershipTransferred",
      "type": "event"
    },
    {
      "anonymous": false,
      "inputs": [
        {
          "indexed": true,
          "internalType": "address",
          "name": "user",
          "type": "address"
        },
        {
          "indexed": false,
          "internalType": "uint256",
          "name": "newTokens",
          "type": "uint256"
        }
      ],
      "name": "UserClaimed",
      "type": "event"
    },
    {
      "anonymous": false,
      "inputs": [
        {
          "indexed": true,
          "internalType": "address",
          "name": "to",
          "type": "address"
        },
        {
          "indexed": false,
          "internalType": "uint256",
          "name": "amount",
          "type": "uint256"
        }
      ],
      "name": "Withdrawn",
      "type": "event"
    },
    {
      "inputs": [
        {
          "components": [
            {
              "internalType": "uint256",
              "name": "lastExchangeRateMantissa",
              "type": "uint256"
            },
            {
              "internalType": "uint256",
              "name": "balance",
              "type": "uint256"
            },
            {
              "internalType": "uint256",
              "name": "totalClaim",
              "type": "uint256"
            },
            {
              "internalType": "uint256",
              "name": "unClaim",
              "type": "uint256"
            },
            {
              "internalType": "uint256",
              "name": "lastDividendPerShare",
              "type": "uint256"
            }
          ],
          "internalType": "struct BIBDividend.ExState",
          "name": "userState",
          "type": "tuple"
        },
        {
          "internalType": "uint256",
          "name": "_exchangeRateMantissa",
          "type": "uint256"
        },
        {
          "internalType": "uint256",
          "name": "_dividendPerShare",
          "type": "uint256"
        }
      ],
      "name": "_getUserAllRewards",
      "outputs": [
        {
          "internalType": "uint256",
          "name": "",
          "type": "uint256"
        }
      ],
      "stateMutability": "pure",
      "type": "function"
    },
    {
      "inputs": [],
      "name": "asset",
      "outputs": [
        {
          "internalType": "contract IERC20Upgradeable",
          "name": "",
          "type": "address"
        }
      ],
      "stateMutability": "view",
      "type": "function"
    },
    {
      "inputs": [],
      "name": "claimWait",
      "outputs": [
        {
          "internalType": "uint256",
          "name": "",
          "type": "uint256"
        }
      ],
      "stateMutability": "view",
      "type": "function"
    },
    {
      "inputs": [],
      "name": "controller",
      "outputs": [
        {
          "internalType": "address",
          "name": "",
          "type": "address"
        }
      ],
      "stateMutability": "view",
      "type": "function"
    },
    {
      "inputs": [
        {
          "internalType": "address",
          "name": "nodeOwner",
          "type": "address"
        },
        {
          "internalType": "uint256",
          "name": "ticketId",
          "type": "uint256"
        }
      ],
      "name": "disbandNode",
      "outputs": [],
      "stateMutability": "nonpayable",
      "type": "function"
    },
    {
      "inputs": [
        {
          "internalType": "uint256",
          "name": "amount",
          "type": "uint256"
        }
      ],
      "name": "distributeDividends",
      "outputs": [],
      "stateMutability": "nonpayable",
      "type": "function"
    },
    {
      "inputs": [],
      "name": "dividendSetter",
      "outputs": [
        {
          "internalType": "address",
          "name": "",
          "type": "address"
        }
      ],
      "stateMutability": "view",
      "type": "function"
    },
    {
      "inputs": [],
      "name": "drip",
      "outputs": [
        {
          "internalType": "uint256",
          "name": "",
          "type": "uint256"
        }
      ],
      "stateMutability": "nonpayable",
      "type": "function"
    },
    {
      "inputs": [],
      "name": "dripRatePerSecond",
      "outputs": [
        {
          "internalType": "uint256",
          "name": "",
          "type": "uint256"
        }
      ],
      "stateMutability": "view",
      "type": "function"
    },
    {
      "inputs": [
        {
          "internalType": "address",
          "name": "_account",
          "type": "address"
        }
      ],
      "name": "getAccount",
      "outputs": [
        {
          "internalType": "address",
          "name": "account",
          "type": "address"
        },
        {
          "internalType": "int256",
          "name": "index",
          "type": "int256"
        },
        {
          "internalType": "int256",
          "name": "iterationsUntilProcessed",
          "type": "int256"
        },
        {
          "internalType": "uint256",
          "name": "withdrawableDividends",
          "type": "uint256"
        },
        {
          "internalType": "uint256",
          "name": "totalDividends",
          "type": "uint256"
        },
        {
          "internalType": "uint256",
          "name": "lastClaimTime",
          "type": "uint256"
        },
        {
          "internalType": "uint256",
          "name": "nextClaimTime",
          "type": "uint256"
        },
        {
          "internalType": "uint256",
          "name": "secondsUntilAutoClaimAvailable",
          "type": "uint256"
        }
      ],
      "stateMutability": "view",
      "type": "function"
    },
    {
      "inputs": [
        {
          "internalType": "uint256",
          "name": "index",
          "type": "uint256"
        }
      ],
      "name": "getAccountAtIndex",
      "outputs": [
        {
          "internalType": "address",
          "name": "",
          "type": "address"
        },
        {
          "internalType": "int256",
          "name": "",
          "type": "int256"
        },
        {
          "internalType": "int256",
          "name": "",
          "type": "int256"
        },
        {
          "internalType": "uint256",
          "name": "",
          "type": "uint256"
        },
        {
          "internalType": "uint256",
          "name": "",
          "type": "uint256"
        },
        {
          "internalType": "uint256",
          "name": "",
          "type": "uint256"
        },
        {
          "internalType": "uint256",
          "name": "",
          "type": "uint256"
        },
        {
          "internalType": "uint256",
          "name": "",
          "type": "uint256"
        }
      ],
      "stateMutability": "view",
      "type": "function"
    },
    {
      "inputs": [],
      "name": "getLastProcessedIndex",
      "outputs": [
        {
          "internalType": "uint256",
          "name": "",
          "type": "uint256"
        }
      ],
      "stateMutability": "view",
      "type": "function"
    },
    {
      "inputs": [
        {
          "internalType": "address",
          "name": "user",
          "type": "address"
        }
      ],
      "name": "getNodeUnClaim",
      "outputs": [
        {
          "internalType": "uint256",
          "name": "",
          "type": "uint256"
        }
      ],
      "stateMutability": "view",
      "type": "function"
    },
    {
      "inputs": [
        {
          "internalType": "address[]",
          "name": "users",
          "type": "address[]"
        }
      ],
      "name": "getNodesAllRewards",
      "outputs": [
        {
          "internalType": "uint256[]",
          "name": "rewards",
          "type": "uint256[]"
        }
      ],
      "stateMutability": "view",
      "type": "function"
    },
    {
      "inputs": [
        {
          "internalType": "address[]",
          "name": "users",
          "type": "address[]"
        }
      ],
      "name": "getNodesUnClaim",
      "outputs": [
        {
          "internalType": "uint256[]",
          "name": "unClaims",
          "type": "uint256[]"
        }
      ],
      "stateMutability": "view",
      "type": "function"
    },
    {
      "inputs": [],
      "name": "getNumberOfTokenHolders",
      "outputs": [
        {
          "internalType": "uint256",
          "name": "",
          "type": "uint256"
        }
      ],
      "stateMutability": "view",
      "type": "function"
    },
    {
      "inputs": [
        {
          "internalType": "address",
          "name": "_user",
          "type": "address"
        }
      ],
      "name": "getUserApr",
      "outputs": [
        {
          "internalType": "uint256",
          "name": "",
          "type": "uint256"
        }
      ],
      "stateMutability": "view",
      "type": "function"
    },
    {
      "inputs": [
        {
          "internalType": "address",
          "name": "user",
          "type": "address"
        }
      ],
      "name": "getUserUnClaim",
      "outputs": [
        {
          "internalType": "uint256",
          "name": "",
          "type": "uint256"
        }
      ],
      "stateMutability": "view",
      "type": "function"
    },
    {
      "inputs": [
        {
          "internalType": "address",
          "name": "user",
          "type": "address"
        }
      ],
      "name": "getUserUnClaimWithNode",
      "outputs": [
        {
          "internalType": "uint256[]",
          "name": "_nodeList",
          "type": "uint256[]"
        },
        {
          "internalType": "uint256[]",
          "name": "_rewardsList",
          "type": "uint256[]"
        }
      ],
      "stateMutability": "view",
      "type": "function"
    },
    {
      "inputs": [
        {
          "internalType": "address[]",
          "name": "users",
          "type": "address[]"
        }
      ],
      "name": "getUsersAllRewards",
      "outputs": [
        {
          "internalType": "uint256[]",
          "name": "rewards",
          "type": "uint256[]"
        }
      ],
      "stateMutability": "view",
      "type": "function"
    },
    {
      "inputs": [
        {
          "internalType": "address[]",
          "name": "users",
          "type": "address[]"
        }
      ],
      "name": "getUsersUnClaim",
      "outputs": [
        {
          "internalType": "uint256[]",
          "name": "unClaims",
          "type": "uint256[]"
        }
      ],
      "stateMutability": "view",
      "type": "function"
    },
    {
      "inputs": [
        {
          "internalType": "uint256",
          "name": "amount",
          "type": "uint256"
        }
      ],
      "name": "handleReceive",
      "outputs": [],
      "stateMutability": "nonpayable",
      "type": "function"
    },
    {
      "inputs": [
        {
          "internalType": "contract IERC20Upgradeable",
          "name": "_asset",
          "type": "address"
        },
        {
          "internalType": "uint256",
          "name": "_dripRatePerSecond",
          "type": "uint256"
        }
      ],
      "name": "initialize",
      "outputs": [],
      "stateMutability": "nonpayable",
      "type": "function"
    },
    {
      "inputs": [
        {
          "internalType": "address",
          "name": "",
          "type": "address"
        }
      ],
      "name": "lastClaimTimes",
      "outputs": [
        {
          "internalType": "uint256",
          "name": "",
          "type": "uint256"
        }
      ],
      "stateMutability": "view",
      "type": "function"
    },
    {
      "inputs": [],
      "name": "lastDripTimestamp",
      "outputs": [
        {
          "internalType": "uint32",
          "name": "",
          "type": "uint32"
        }
      ],
      "stateMutability": "view",
      "type": "function"
    },
    {
      "inputs": [],
      "name": "lastProcessedIndex",
      "outputs": [
        {
          "internalType": "uint256",
          "name": "",
          "type": "uint256"
        }
      ],
      "stateMutability": "view",
      "type": "function"
    },
    {
      "inputs": [],
      "name": "minimumTokenBalanceForDividends",
      "outputs": [
        {
          "internalType": "uint256",
          "name": "",
          "type": "uint256"
        }
      ],
      "stateMutability": "view",
      "type": "function"
    },
    {
      "inputs": [
        {
          "internalType": "address",
          "name": "user",
          "type": "address"
        }
      ],
      "name": "nodeClaim",
      "outputs": [
        {
          "internalType": "uint256",
          "name": "",
          "type": "uint256"
        }
      ],
      "stateMutability": "nonpayable",
      "type": "function"
    },
    {
      "inputs": [],
      "name": "nodeDividendPerShare",
      "outputs": [
        {
          "internalType": "uint256",
          "name": "",
          "type": "uint256"
        }
      ],
      "stateMutability": "view",
      "type": "function"
    },
    {
      "inputs": [],
      "name": "nodeExchangeRateMantissa",
      "outputs": [
        {
          "internalType": "uint256",
          "name": "",
          "type": "uint256"
        }
      ],
      "stateMutability": "view",
      "type": "function"
    },
    {
      "inputs": [],
      "name": "nodeRate",
      "outputs": [
        {
          "internalType": "uint256",
          "name": "",
          "type": "uint256"
        }
      ],
      "stateMutability": "view",
      "type": "function"
    },
    {
      "inputs": [
        {
          "internalType": "address",
          "name": "",
          "type": "address"
        }
      ],
      "name": "nodeStates",
      "outputs": [
        {
          "internalType": "uint256",
          "name": "lastExchangeRateMantissa",
          "type": "uint256"
        },
        {
          "internalType": "uint256",
          "name": "balance",
          "type": "uint256"
        },
        {
          "internalType": "uint256",
          "name": "totalClaim",
          "type": "uint256"
        },
        {
          "internalType": "uint256",
          "name": "unClaim",
          "type": "uint256"
        },
        {
          "internalType": "uint256",
          "name": "lastDividendPerShare",
          "type": "uint256"
        }
      ],
      "stateMutability": "view",
      "type": "function"
    },
    {
      "inputs": [],
      "name": "nodeTotalStake",
      "outputs": [
        {
          "internalType": "uint256",
          "name": "",
          "type": "uint256"
        }
      ],
      "stateMutability": "view",
      "type": "function"
    },
    {
      "inputs": [
        {
          "internalType": "uint256",
          "name": "",
          "type": "uint256"
        }
      ],
      "name": "nodeWeight",
      "outputs": [
        {
          "internalType": "uint256",
          "name": "",
          "type": "uint256"
        }
      ],
      "stateMutability": "view",
      "type": "function"
    },
    {
      "inputs": [],
      "name": "owner",
      "outputs": [
        {
          "internalType": "address",
          "name": "",
          "type": "address"
        }
      ],
      "stateMutability": "view",
      "type": "function"
    },
    {
      "inputs": [
        {
          "internalType": "uint256",
          "name": "gas",
          "type": "uint256"
        }
      ],
      "name": "process",
      "outputs": [
        {
          "internalType": "uint256",
          "name": "",
          "type": "uint256"
        },
        {
          "internalType": "uint256",
          "name": "",
          "type": "uint256"
        },
        {
          "internalType": "uint256",
          "name": "",
          "type": "uint256"
        }
      ],
      "stateMutability": "nonpayable",
      "type": "function"
    },
    {
      "inputs": [
        {
          "internalType": "address",
          "name": "account",
          "type": "address"
        },
        {
          "internalType": "bool",
          "name": "automatic",
          "type": "bool"
        }
      ],
      "name": "processAccount",
      "outputs": [
        {
          "internalType": "bool",
          "name": "",
          "type": "bool"
        }
      ],
      "stateMutability": "nonpayable",
      "type": "function"
    },
    {
      "inputs": [],
      "name": "renounceOwnership",
      "outputs": [],
      "stateMutability": "nonpayable",
      "type": "function"
    },
    {
      "inputs": [
        {
          "internalType": "address",
          "name": "_cntr",
          "type": "address"
        }
      ],
      "name": "setController",
      "outputs": [],
      "stateMutability": "nonpayable",
      "type": "function"
    },
    {
      "inputs": [
        {
          "internalType": "address",
          "name": "_setter",
          "type": "address"
        }
      ],
      "name": "setDividendSetter",
      "outputs": [],
      "stateMutability": "nonpayable",
      "type": "function"
    },
    {
      "inputs": [
        {
          "internalType": "uint256",
          "name": "_dripRatePerSecond",
          "type": "uint256"
        }
      ],
      "name": "setDripRatePerSecond",
      "outputs": [],
      "stateMutability": "nonpayable",
      "type": "function"
    },
    {
      "inputs": [
        {
          "internalType": "address",
          "name": "nodeOwner",
          "type": "address"
        },
        {
          "internalType": "uint256",
          "name": "amount",
          "type": "uint256"
        },
        {
          "internalType": "uint256",
          "name": "ticketId",
          "type": "uint256"
        },
        {
          "internalType": "uint256",
          "name": "weight",
          "type": "uint256"
        }
      ],
      "name": "setNodeBalance",
      "outputs": [],
      "stateMutability": "nonpayable",
      "type": "function"
    },
    {
      "inputs": [
        {
          "internalType": "uint256",
          "name": "_nodeRate",
          "type": "uint256"
        }
      ],
      "name": "setNodeRate",
      "outputs": [],
      "stateMutability": "nonpayable",
      "type": "function"
    },
    {
      "inputs": [
        {
          "internalType": "address",
          "name": "user",
          "type": "address"
        },
        {
          "internalType": "uint256",
          "name": "ticketId",
          "type": "uint256"
        },
        {
          "internalType": "uint256",
          "name": "amount",
          "type": "uint256"
        }
      ],
      "name": "setUserBalance",
      "outputs": [],
      "stateMutability": "nonpayable",
      "type": "function"
    },
    {
      "inputs": [],
      "name": "totalDividendsDistributed",
      "outputs": [
        {
          "internalType": "uint256",
          "name": "",
          "type": "uint256"
        }
      ],
      "stateMutability": "view",
      "type": "function"
    },
    {
      "inputs": [],
      "name": "totalDrip",
      "outputs": [
        {
          "internalType": "uint256",
          "name": "",
          "type": "uint256"
        }
      ],
      "stateMutability": "view",
      "type": "function"
    },
    {
      "inputs": [
        {
          "internalType": "address",
          "name": "newOwner",
          "type": "address"
        }
      ],
      "name": "transferOwnership",
      "outputs": [],
      "stateMutability": "nonpayable",
      "type": "function"
    },
    {
      "inputs": [
        {
          "internalType": "uint256",
          "name": "newClaimWait",
          "type": "uint256"
        }
      ],
      "name": "updateClaimWait",
      "outputs": [],
      "stateMutability": "nonpayable",
      "type": "function"
    },
    {
      "inputs": [
        {
          "internalType": "address",
          "name": "user",
          "type": "address"
        }
      ],
      "name": "userClaim",
      "outputs": [
        {
          "internalType": "uint256",
          "name": "",
          "type": "uint256"
        }
      ],
      "stateMutability": "nonpayable",
      "type": "function"
    },
    {
      "inputs": [],
      "name": "userDividendPerShare",
      "outputs": [
        {
          "internalType": "uint256",
          "name": "",
          "type": "uint256"
        }
      ],
      "stateMutability": "view",
      "type": "function"
    },
    {
      "inputs": [],
      "name": "userExchangeRateMantissa",
      "outputs": [
        {
          "internalType": "uint256",
          "name": "",
          "type": "uint256"
        }
      ],
      "stateMutability": "view",
      "type": "function"
    },
    {
      "inputs": [
        {
          "internalType": "uint256",
          "name": "",
          "type": "uint256"
        }
      ],
      "name": "userNodeStates",
      "outputs": [
        {
          "internalType": "uint256",
          "name": "lastExchangeRateMantissa",
          "type": "uint256"
        },
        {
          "internalType": "uint256",
          "name": "balance",
          "type": "uint256"
        },
        {
          "internalType": "uint256",
          "name": "totalClaim",
          "type": "uint256"
        },
        {
          "internalType": "uint256",
          "name": "unClaim",
          "type": "uint256"
        },
        {
          "internalType": "uint256",
          "name": "lastDividendPerShare",
          "type": "uint256"
        }
      ],
      "stateMutability": "view",
      "type": "function"
    },
    {
      "inputs": [],
      "name": "userNodeTotalStake",
      "outputs": [
        {
          "internalType": "uint256",
          "name": "",
          "type": "uint256"
        }
      ],
      "stateMutability": "view",
      "type": "function"
    },
    {
      "inputs": [
        {
          "internalType": "address",
          "name": "",
          "type": "address"
        }
      ],
      "name": "userStakeStates",
      "outputs": [
        {
          "internalType": "uint256",
          "name": "unClaim",
          "type": "uint256"
        },
        {
          "internalType": "uint256",
          "name": "totalClaim",
          "type": "uint256"
        }
      ],
      "stateMutability": "view",
      "type": "function"
    },
    {
      "inputs": [
        {
          "internalType": "address",
          "name": "to",
          "type": "address"
        },
        {
          "internalType": "uint256",
          "name": "amount",
          "type": "uint256"
        }
      ],
      "name": "withdrawTo",
      "outputs": [],
      "stateMutability": "nonpayable",
      "type": "function"
    }
  ],
  "bytecode": "0x608060405234801561001057600080fd5b506135b7806100206000396000f3fe608060405234801561001057600080fd5b506004361061035d5760003560e01c80638da5cb5b116101d3578063d2677c0511610104578063e98030c7116100a2578063f77c47911161007c578063f77c4791146107f6578063fbcbc0f114610809578063fd3806211461081c578063ffb2c4791461082557600080fd5b8063e98030c7146107bd578063f2fde38b146107d0578063f39a19bf146107e357600080fd5b8063dfb21477116100de578063dfb2147714610778578063e4b1eacc1461078b578063e7841ec0146107ac578063e964058c146107b457600080fd5b8063d2677c051461072d578063d9772a2514610740578063ddaf48481461076557600080fd5b8063b6f0731611610171578063c7ad5eff1161014b578063c7ad5eff146106e1578063c7f6d4cc146106f4578063ca5baafc14610707578063cd6dc6871461071a57600080fd5b8063b6f07316146106ac578063bc4c4b37146106b5578063be10b614146106d857600080fd5b80639fd4e1cf116101ad5780639fd4e1cf14610674578063a57e64371461067d578063a60d5a1a14610686578063b3c1999e1461069957600080fd5b80638da5cb5b1461064857806392eefe9b146106595780639f678cca1461066c57600080fd5b806338d52e0f116102ad57806360a22e501161024b5780636f2789ec116102255780636f2789ec1461060e578063715018a61461061757806380b49cdd1461061f57806385a6b3ae1461063f57600080fd5b806360a22e50146105df57806368fd2e9f146105e85780636d629dbe146105fb57600080fd5b80633f7b2ed9116102875780633f7b2ed9146105225780634195c410146105615780635183d6fd146105745780635f13bb8d146105cc57600080fd5b806338d52e0f146104a75780633bdfe437146104d25780633df930721461050f57600080fd5b8063187f33341161031a57806325f3cbeb116102f457806325f3cbeb146104135780633009a609146104785780633243c791146104815780633749ea101461049457600080fd5b8063187f3334146103d7578063205c2878146103e0578063226cfa3d146103f357600080fd5b806304a8d8b514610362578063051020621461037757806309bbedde146103935780630a6b433f1461039b5780630d024684146103ae5780630fc1f082146103ce575b600080fd5b610375610370366004613080565b610853565b005b610380606a5481565b6040519081526020015b60405180910390f35b607754610380565b6103806103a93660046130b5565b610c23565b6103c16103bc3660046130d2565b611032565b60405161038a9190613182565b610380606e5481565b61038060685481565b6103756103ee366004613195565b611136565b6103806104013660046130b5565b607c6020526000908152604090205481565b6104506104213660046130b5565b607460205260009081526040902080546001820154600283015460038401546004909401549293919290919085565b604080519586526020860194909452928401919091526060830152608082015260a00161038a565b610380607b5481565b61037561048f3660046131c1565b6112c6565b6103806104a23660046130b5565b6113d7565b6065546104ba906001600160a01b031681565b6040516001600160a01b03909116815260200161038a565b6104506104e03660046131c1565b607360205260009081526040902080546001820154600283015460038401546004909401549293919290919085565b61038061051d3660046130b5565b611443565b61054c6105303660046130b5565b6076602052600090815260409020600281015460039091015482565b6040805192835260208301919091520161038a565b61037561056f3660046130b5565b61159b565b6105876105823660046131c1565b611609565b604080516001600160a01b0390991689526020890197909752958701949094526060860192909252608085015260a084015260c083015260e08201526101000161038a565b6067546104ba906001600160a01b031681565b610380606d5481565b6103c16105f63660046130d2565b61175d565b610375610609366004613195565b611871565b610380607d5481565b610375611943565b61038061062d3660046131c1565b60756020526000908152604090205481565b61038060705481565b6033546001600160a01b03166104ba565b6103756106673660046130b5565b611957565b6103806119c5565b610380606f5481565b61038060725481565b6103806106943660046131f0565b611ada565b6103c16106a73660046130d2565b611b05565b61038060715481565b6106c86106c3366004613298565b611c21565b604051901515815260200161038a565b610380607e5481565b6103756106ef3660046131c1565b611c63565b6103806107023660046130b5565b611d00565b6103756107153660046131c1565b611ed9565b610375610728366004613195565b611f6f565b6103c161073b3660046130d2565b6120b1565b606c546107509063ffffffff1681565b60405163ffffffff909116815260200161038a565b6103756107733660046131c1565b612147565b6103756107863660046132d1565b6121a1565b61079e6107993660046130b5565b612365565b60405161038a92919061330c565b607b54610380565b610380606b5481565b6103756107cb3660046131c1565b61256c565b6103756107de3660046130b5565b6126ba565b6103806107f13660046130b5565b612730565b6066546104ba906001600160a01b031681565b6105876108173660046130b5565b61289b565b61038060695481565b6108386108333660046131c1565b612a5c565b6040805193845260208401929092529082015260600161038a565b6066546001600160a01b031633146108865760405162461bcd60e51b815260040161087d90613331565b60405180910390fd5b61088e6119c5565b5060008281526073602052604090206001810154606a54606e546108b493929190612b77565b506001600160a01b0383166000908152607660209081526040808320858452600190810183528184206075909352922054918101549091610923918391610908916064916109029190612c20565b90612c2c565b60008681526073602052604090208054600490910154612b77565b5060018082015460008581526073602052604090209091015461095191849161094b91612c38565b90612c44565b6000848152607360209081526040808320600190810194909455607590915281205491830154909161098a916064916109029190612c20565b600085815260756020526040812054919250906109af90606490610902908790612c20565b90506109ca8161094b84607154612c3890919063ffffffff16565b60715560018301541580156109df5750600084115b15610a10576001600160a01b0386166000908152607660209081526040822080546001810182559083529120018590555b6001830184905583610b21576001600160a01b03861660008181526076602081815260408084208a8552600180820184529185208581559182018590556002820185905560038201859055600490910184905593909252905280545b8015610b1e5780610a7c81613370565b91505086828281548110610a9257610a92613387565b90600052602060002001541415610b195781548290610ab39060019061339d565b81548110610ac357610ac3613387565b9060005260206000200154828281548110610ae057610ae0613387565b906000526020600020018190555081805480610afe57610afe6133b4565b60019003818190600052602060002001600090559055610b1e565b610a6c565b50505b607e548410610ba857604051632f0ad01760e21b8152607760048201526001600160a01b03871660248201526044810185905273__$4b09164eaf8a84d7a8044fedc88418fa6b$__9063bc2b405c9060640160006040518083038186803b158015610b8b57600080fd5b505af4158015610b9f573d6000803e3d6000fd5b50505050610c1b565b60405163131836e760e21b8152607760048201526001600160a01b038716602482015273__$4b09164eaf8a84d7a8044fedc88418fa6b$__90634c60db9c9060440160006040518083038186803b158015610c0257600080fd5b505af4158015610c16573d6000803e3d6000fd5b505050505b505050505050565b6000610c2d6119c5565b506001600160a01b038216600090815260766020526040812060028101805492905580549091905b8015610f3157610c6660018261339d565b9050610cd860736000858481548110610c8157610c81613387565b9060005260206000200154815260200190815260200160002060736000868581548110610cb057610cb0613387565b9060005260206000200154815260200190815260200160002060010154606a54606e54612b77565b50600060766000876001600160a01b03166001600160a01b031681526020019081526020016000206001016000858481548110610d1757610d17613387565b906000526020600020015481526020019081526020016000209050610dec81610d816064610902607560008a8981548110610d5457610d54613387565b90600052602060002001548152602001908152602001600020548660010154612c2090919063ffffffff16565b60736000888781548110610d9757610d97613387565b906000526020600020015481526020019081526020016000206000015460736000898881548110610dca57610dca613387565b9060005260206000200154815260200190815260200160002060040154612b77565b506003810154610dfc9084612c44565b92506000816003018190555060736000858481548110610e1e57610e1e613387565b906000526020600020015481526020019081526020016000206001015460001415610f2b5760766000876001600160a01b03166001600160a01b031681526020019081526020016000206001016000858481548110610e7f57610e7f613387565b6000918252602080832090910154835282019290925260400181208181556001808201839055600282018390556003820183905560049091019190915584548591610ec99161339d565b81548110610ed957610ed9613387565b9060005260206000200154848381548110610ef657610ef6613387565b906000526020600020018190555083805480610f1457610f146133b4565b600190038181906000526020600020016000905590555b50610c55565b6001600160a01b038516600090815260766020526040902060030154610f579083612c44565b6001600160a01b038681166000818152607660205260409081902060030193909355606554925163a9059cbb60e01b815260048101919091526024810185905291169063a9059cbb906044016020604051808303816000875af1158015610fc2573d6000803e3d6000fd5b505050506040513d601f19601f82011682018060405250810190610fe691906133ca565b50846001600160a01b03167f5329b89678b0f095cae2abe10b88ad57329871ee9296ae8f358a46b9fa0ff3288360405161102291815260200190565b60405180910390a2509392505050565b60608167ffffffffffffffff81111561104d5761104d6131da565b604051908082528060200260200182016040528015611076578160200160208202803683370190505b50905060005b8281101561112f576111006076600086868581811061109d5761109d613387565b90506020020160208101906110b291906130b5565b6001600160a01b03166001600160a01b031681526020019081526020016000206003015461094b8686858181106110eb576110eb613387565b905060200201602081019061051d91906130b5565b82828151811061111257611112613387565b602090810291909101015280611127816133e7565b91505061107c565b5092915050565b61113e612c50565b6111466119c5565b506065546040516370a0823160e01b81523060048201526000916001600160a01b0316906370a0823190602401602060405180830381865afa158015611190573d6000803e3d6000fd5b505050506040513d601f19601f820116820180604052508101906111b49190613402565b9050808211156112065760405162461bcd60e51b815260206004820152601b60248201527f4469766964656e642f696e73756666696369656e742d66756e64730000000000604482015260640161087d565b60655460405163a9059cbb60e01b81526001600160a01b038581166004830152602482018590529091169063a9059cbb906044016020604051808303816000875af1158015611259573d6000803e3d6000fd5b505050506040513d601f19601f8201168201806040525081019061127d91906133ca565b50826001600160a01b03167f7084f5476618d8e60b11ef0d7d3f06914655adb8793e28ff7f018d4c76d505d5836040516112b991815260200190565b60405180910390a2505050565b6067546001600160a01b031633146113175760405162461bcd60e51b815260206004820152601460248201527327a7262cafa234bb34b232b7321029b2b2ba32b960611b604482015260640161087d565b801580611330575060715460725461132e91612c44565b155b156113385750565b6000611354606461090260695485612c2090919063ffffffff16565b6072549091501561138e5761137a606f5461094b60725484612c2c90919063ffffffff16565b606f5560705461138a9082612c44565b6070555b607154156113d2576113b5606e5461094b6071546109028587612c3890919063ffffffff16565b606e556113ce6113c58383612c38565b60705490612c44565b6070555b505b50565b6001600160a01b0381166000908152607460209081526040808320815160a081018352815481526001820154938101939093526002810154918301919091526003810154606083015260040154608082015261143d90611435612caa565b606f54612d20565b92915050565b60008061144e612daf565b6001600160a01b0384166000908152607660205260408120600281015492935091905b825481101561159257600060766000886001600160a01b03166001600160a01b0316815260200190815260200160002060010160008584815481106114b8576114b8613387565b90600052602060002001548152602001908152602001600020905060006115206064610902607560008988815481106114f3576114f3613387565b90600052602060002001548152602001908152602001600020548560010154612c2090919063ffffffff16565b8254909150600090611533908890612c38565b905060006115418383612e28565b905060006115686115618660040154606e54612c3890919063ffffffff16565b8590612c20565b90506115788161094b8985612c44565b96505050505050808061158a906133e7565b915050611471565b50949350505050565b6115a3612c50565b6001600160a01b0381166115e75760405162461bcd60e51b815260206004820152600b60248201526a24a72b2624a22fa0a2222960a91b604482015260640161087d565b606780546001600160a01b0319166001600160a01b0392909216919091179055565b600080600080600080600080607773__$4b09164eaf8a84d7a8044fedc88418fa6b$__63deb3d89690916040518263ffffffff1660e01b815260040161165191815260200190565b602060405180830381865af415801561166e573d6000803e3d6000fd5b505050506040513d601f19601f820116820180604052508101906116929190613402565b89106116b7575060009650600019955085945086935083925082915081905080611752565b6040516368d54f3f60e11b815260776004820152602481018a905260009073__$4b09164eaf8a84d7a8044fedc88418fa6b$__9063d1aa9e7e90604401602060405180830381865af4158015611711573d6000803e3d6000fd5b505050506040513d601f19601f82011682018060405250810190611735919061341b565b90506117408161289b565b98509850985098509850985098509850505b919395975091939597565b60608167ffffffffffffffff811115611778576117786131da565b6040519080825280602002602001820160405280156117a1578160200160208202803683370190505b50905060005b8281101561112f57611842607460008686858181106117c8576117c8613387565b90506020020160208101906117dd91906130b5565b6001600160a01b03166001600160a01b031681526020019081526020016000206040518060a001604052908160008201548152602001600182015481526020016002820154815260200160038201548152602001600482015481525050611435612caa565b82828151811061185457611854613387565b602090810291909101015280611869816133e7565b9150506117a7565b6066546001600160a01b0316331461189b5760405162461bcd60e51b815260040161087d90613331565b6118a482612730565b506001600160a01b0382166000908152607460205260409020600101546072546118cd91612c38565b6072556001600160a01b0382166000908152607460209081526040808320838155600180820185905560028201859055600382018590556004909101849055848452607390925290912090810154606a54606e5461192d93929190612b77565b5060009081526073602052604081206001015550565b61194b612c50565b6119556000612e49565b565b61195f612c50565b6001600160a01b0381166119a35760405162461bcd60e51b815260206004820152600b60248201526a24a72b2624a22fa0a2222960a91b604482015260640161087d565b606680546001600160a01b0319166001600160a01b0392909216919091179055565b6000806119d0612e9b565b606c5463ffffffff9182169250168114156119ed57600091505090565b606c54600090611a0890839063ffffffff90811690612c3816565b90506000611a2160685483612c2090919063ffffffff16565b90506000611a3f606461090260695485612c2090919063ffffffff16565b60725490915015611a6d576000611a5882607254612eab565b606b54909150611a689082612c44565b606b55505b60715415611aa1576000611a8c611a848484612c38565b607154612eab565b606a54909150611a9c9082612c44565b606a55505b611aaa84612ecc565b606c805463ffffffff191663ffffffff928316179055606d54611acf918490612c4416565b606d55509392505050565b600080611ae8858585612d20565b6040860151909150611afa9082612c44565b9150505b9392505050565b60608167ffffffffffffffff811115611b2057611b206131da565b604051908082528060200260200182016040528015611b49578160200160208202803683370190505b50905060005b8281101561112f57611bf260746000868685818110611b7057611b70613387565b9050602002016020810190611b8591906130b5565b6001600160a01b03166001600160a01b031681526020019081526020016000206040518060a001604052908160008201548152602001600182015481526020016002820154815260200160038201548152602001600482015481525050611bea612caa565b606f54611ada565b828281518110611c0457611c04613387565b602090810291909101015280611c19816133e7565b915050611b4f565b600080611c2d84610c23565b90508015611c595750506001600160a01b0382166000908152607c60205260409020429055600161143d565b5060009392505050565b611c6b612c50565b60008111611cbb5760405162461bcd60e51b815260206004820152601c60248201527f546f6b656e4661756365742f6e6f6465526174652d67742d7a65726f00000000604482015260640161087d565b611cc36119c5565b5060698190556040518181527ffab63a863d2b8bf77782de36d1f7ee259e4663ac848a09ffc79a72286bd7c3de906020015b60405180910390a150565b600060715460001415611d1557506000919050565b6001600160a01b03821660009081526076602052604081208190815b8154811015611e7f5760736000838381548110611d5057611d50613387565b906000526020600020015481526020019081526020016000206001015460001415611d7a57611e6d565b600060766000886001600160a01b03166001600160a01b031681526020019081526020016000206001016000848481548110611db857611db8613387565b906000526020600020015481526020019081526020016000209050611e508561094b606461090260756000898981548110611df557611df5613387565b9060005260206000200154815260200190815260200160002054607360008a8a81548110611e2557611e25613387565b9060005260206000200154815260200190815260200160002060010154612c2090919063ffffffff16565b9450611e69816001015485612c4490919063ffffffff16565b9350505b80611e77816133e7565b915050611d31565b5081611e9057506000949350505050565b606854600090611ea39062015180612c20565b9050611ecf836109026071546109026237b1d0611ec9878b612c2090919063ffffffff16565b90612c20565b9695505050505050565b611ee1612c50565b60008111611f315760405162461bcd60e51b815260206004820152601c60248201527f546f6b656e4661756365742f64726970526174652d67742d7a65726f00000000604482015260640161087d565b611f396119c5565b5060688190556040518181527f3d38e7cd2e029035006f9977a727c8724cd41dffb6d2a40d9f66bd4c26836a3290602001611cf5565b600054600190610100900460ff16158015611f91575060005460ff8083169116105b611ff45760405162461bcd60e51b815260206004820152602e60248201527f496e697469616c697a61626c653a20636f6e747261637420697320616c72656160448201526d191e481a5b9a5d1a585b1a5e995960921b606482015260840161087d565b6000805461ffff191660ff831617610100179055612010612f35565b612018612e9b565b606c805463ffffffff191663ffffffff92909216919091179055606580546001600160a01b0319166001600160a01b03851617905561205682611ed9565b6014606955655af3107a4000607e55610e10607d556000805461ff001916905560405160ff821681527f7f26b83ff96e1f2b6a682f133852f6798a09c465da95921460cefb38474024989060200160405180910390a1505050565b60608167ffffffffffffffff8111156120cc576120cc6131da565b6040519080825280602002602001820160405280156120f5578160200160208202803683370190505b50905060005b8281101561112f576121188484838181106110eb576110eb613387565b82828151811061212a5761212a613387565b60209081029190910101528061213f816133e7565b9150506120fb565b6067546001600160a01b031633146121985760405162461bcd60e51b815260206004820152601460248201527327a7262cafa234bb34b232b7321029b2b2ba32b960611b604482015260640161087d565b6113d4816112c6565b6066546001600160a01b031633146121cb5760405162461bcd60e51b815260040161087d90613331565b6121d36119c5565b506001600160a01b03841660009081526074602052604090206001810154606b54606f5461220393929190612b77565b506001600160a01b03841660009081526074602052604090206001015460725461223291859161094b91612c38565b6072556001600160a01b0384166000908152607460209081526040808320600101869055848352607590915290205481146122e65760008281526075602090815260408083205460739092528220600101546122949160649161090291612c20565b600084815260736020526040812060010154919250906122b49084612c20565b90506122cf8161094b84607154612c3890919063ffffffff16565b607155505060008281526075602052604090208190555b604051632f0ad01760e21b8152607760048201526001600160a01b03851660248201526044810184905273__$4b09164eaf8a84d7a8044fedc88418fa6b$__9063bc2b405c9060640160006040518083038186803b15801561234757600080fd5b505af415801561235b573d6000803e3d6000fd5b5050505050505050565b6060806000612372612daf565b6001600160a01b038516600090815260766020526040902060028101548154929350909167ffffffffffffffff8111156123ae576123ae6131da565b6040519080825280602002602001820160405280156123d7578160200160208202803683370190505b50825490955067ffffffffffffffff8111156123f5576123f56131da565b60405190808252806020026020018201604052801561241e578160200160208202803683370190505b50935060005b825481101561256357600060766000896001600160a01b03166001600160a01b03168152602001908152602001600020600101600085848154811061246b5761246b613387565b90600052602060002001548152602001908152602001600020905060006124a66064610902607560008988815481106114f3576114f3613387565b82549091506000906124b9908890612c38565b905060006124c78383612e28565b905060006124e76115618660040154606e54612c3890919063ffffffff16565b90508786815481106124fb576124fb613387565b90600052602060002001548b878151811061251857612518613387565b602090810291909101015261252d8282612c44565b8a878151811061253f5761253f613387565b6020026020010181815250505050505050808061255b906133e7565b915050612424565b50505050915091565b612574612c50565b610e1081101580156125895750620151808111155b61260f5760405162461bcd60e51b815260206004820152604b60248201527f546f6b656e5f4469766964656e645f547261636b65723a20636c61696d57616960448201527f74206d757374206265207570646174656420746f206265747765656e2031206160648201526a6e6420323420686f75727360a81b608482015260a40161087d565b607d548114156126875760405162461bcd60e51b815260206004820152603d60248201527f546f6b656e5f4469766964656e645f547261636b65723a2043616e6e6f74207560448201527f706461746520636c61696d5761697420746f2073616d652076616c7565000000606482015260840161087d565b607d5460405182907f474ea64804364a1e29a4487ddb63c3342a2dd826ccd8acf48825e680a0e6f20f90600090a3607d55565b6126c2612c50565b6001600160a01b0381166127275760405162461bcd60e51b815260206004820152602660248201527f4f776e61626c653a206e6577206f776e657220697320746865207a65726f206160448201526564647265737360d01b606482015260840161087d565b6113d481612e49565b600061273a6119c5565b506001600160a01b03821660009081526074602052604090206001810154606b54606f5461276a93929190612b77565b506001600160a01b03821660009081526074602052604090206003015461279357506000919050565b6001600160a01b0382166000908152607460205260408120600381018054929055600201546127c29082612c44565b6001600160a01b038481166000818152607460205260409081902060020193909355606554925163a9059cbb60e01b815260048101919091526024810184905291169063a9059cbb906044016020604051808303816000875af115801561282d573d6000803e3d6000fd5b505050506040513d601f19601f8201168201806040525081019061285191906133ca565b50826001600160a01b03167f638b31b360307f664fe65f94e19b3fb3b6569d947245b7195cff88cf1c0e1c148260405161288d91815260200190565b60405180910390a292915050565b6040516317e142d160e01b8152607760048201526001600160a01b0382166024820152819060009081908190819081908190819073__$4b09164eaf8a84d7a8044fedc88418fa6b$__906317e142d190604401602060405180830381865af415801561290b573d6000803e3d6000fd5b505050506040513d601f19601f8201168201806040525081019061292f9190613402565b965060001995506000871261299157607b5487111561295d57607b54612956908890612f64565b9550612991565b607b5460775460009110612972576000612981565b607b5460775461298191612c38565b905061298d8882612fb0565b9650505b6001600160a01b0388166000908152607460209081526040808320600301546076909252909120600201546129c591612c44565b6001600160a01b0389166000908152607460209081526040808320600201546076909252909120600301549196506129fd9190612c44565b6001600160a01b0389166000908152607c6020526040902054909450925082612a27576000612a35565b607d54612a35908490612c44565b9150428211612a45576000612a4f565b612a4f8242612c38565b9050919395975091939597565b6077546000908190819080612a7c575050607b5460009250829150612b70565b607b546000805a90506000805b8984108015612a9757508582105b15612b5f5784612aa6816133e7565b60775490965086109050612ab957600094505b600060776000018681548110612ad157612ad1613387565b60009182526020808320909101546001600160a01b0316808352607c909152604090912054909150612b0290612fee565b15612b2557612b12816001611c21565b15612b255781612b21816133e7565b9250505b82612b2f816133e7565b93505060005a905080851115612b5657612b53612b4c8683612c38565b8790612c44565b95505b9350612a899050565b607b85905590975095509193505050505b9193909250565b8354600090831480612b87575083155b15612b9457506000612c18565b8454600090612ba4908590612c38565b90506000612bb28683612e28565b8588556003880154909150612bc79082612c44565b60038801556004870154600090612bea90612be3908790612c38565b8890612c20565b600489018690556003890154909150612c039082612c44565b6003890155612c128282612c44565b93505050505b949350505050565b6000611afe8284613438565b6000611afe8284613457565b6000611afe828461339d565b6000611afe8284613479565b6033546001600160a01b031633146119555760405162461bcd60e51b815260206004820181905260248201527f4f776e61626c653a2063616c6c6572206973206e6f7420746865206f776e6572604482015260640161087d565b606c54600090819063ffffffff16612cc0612e9b565b612cca9190613491565b63ffffffff1690506000612ce960685483612c2090919063ffffffff16565b90506000612d07606461090260695485612c2090919063ffffffff16565b9050612d18606b5460725483613015565b935050505090565b600080612d428560200151611ec9876080015186612c3890919063ffffffff16565b8551909150841415612d65576060850151612d5d9082612c44565b915050611afe565b8451600090612d75908690612c38565b90506000612d87876020015183612e28565b9050612da48361094b838a60600151612c4490919063ffffffff16565b979650505050505050565b606c54600090819063ffffffff16612dc5612e9b565b612dcf9190613491565b63ffffffff1690506000612dee60685483612c2090919063ffffffff16565b90506000612e0c606461090260695485612c2090919063ffffffff16565b606a54607154919250612d1891612e238585612c38565b613015565b600080612e358385612c20565b9050612c1881670de0b6b3a7640000612c2c565b603380546001600160a01b038381166001600160a01b0319831681179093556040519116919082907f8be0079c531659141344cd1fd0a4f28419497f9722a3daafe3b4186f6b6457e090600090a35050565b6000612ea642612ecc565b905090565b600080612ec084670de0b6b3a7640000612c20565b9050612c188184612c2c565b600063ffffffff821115612f315760405162461bcd60e51b815260206004820152602660248201527f53616665436173743a2076616c756520646f65736e27742066697420696e203360448201526532206269747360d01b606482015260840161087d565b5090565b600054610100900460ff16612f5c5760405162461bcd60e51b815260040161087d906134b6565b61195561303b565b6000808212158015612f7f575082612f7c8382613501565b13155b80612f9d5750600082128015612f9d575082612f9b8382613501565b135b612fa657600080fd5b611afe8284613501565b600080612fbd8385613540565b905060008312158015612fd05750838112155b80612fe55750600083128015612fe557508381125b611afe57600080fd5b60004282111561300057506000919050565b607d5461300d4284612c38565b101592915050565b600082613023575082611afe565b600061302f8385612eab565b9050611afa8186612c44565b600054610100900460ff166130625760405162461bcd60e51b815260040161087d906134b6565b61195533612e49565b6001600160a01b03811681146113d457600080fd5b60008060006060848603121561309557600080fd5b83356130a08161306b565b95602085013595506040909401359392505050565b6000602082840312156130c757600080fd5b8135611afe8161306b565b600080602083850312156130e557600080fd5b823567ffffffffffffffff808211156130fd57600080fd5b818501915085601f83011261311157600080fd5b81358181111561312057600080fd5b8660208260051b850101111561313557600080fd5b60209290920196919550909350505050565b600081518084526020808501945080840160005b838110156131775781518752958201959082019060010161315b565b509495945050505050565b602081526000611afe6020830184613147565b600080604083850312156131a857600080fd5b82356131b38161306b565b946020939093013593505050565b6000602082840312156131d357600080fd5b5035919050565b634e487b7160e01b600052604160045260246000fd5b600080600083850360e081121561320657600080fd5b60a081121561321457600080fd5b5060405160a0810181811067ffffffffffffffff8211171561324657634e487b7160e01b600052604160045260246000fd5b60409081528535825260208087013590830152858101359082015260608086013590820152608080860135908201529560a0850135955060c0909401359392505050565b80151581146113d457600080fd5b600080604083850312156132ab57600080fd5b82356132b68161306b565b915060208301356132c68161328a565b809150509250929050565b600080600080608085870312156132e757600080fd5b84356132f28161306b565b966020860135965060408601359560600135945092505050565b60408152600061331f6040830185613147565b8281036020840152611afa8185613147565b6020808252600f908201526e27a7262cafa1a7a72a2927a62622a960891b604082015260600190565b634e487b7160e01b600052601160045260246000fd5b60008161337f5761337f61335a565b506000190190565b634e487b7160e01b600052603260045260246000fd5b6000828210156133af576133af61335a565b500390565b634e487b7160e01b600052603160045260246000fd5b6000602082840312156133dc57600080fd5b8151611afe8161328a565b60006000198214156133fb576133fb61335a565b5060010190565b60006020828403121561341457600080fd5b5051919050565b60006020828403121561342d57600080fd5b8151611afe8161306b565b60008160001904831182151516156134525761345261335a565b500290565b60008261347457634e487b7160e01b600052601260045260246000fd5b500490565b6000821982111561348c5761348c61335a565b500190565b600063ffffffff838116908316818110156134ae576134ae61335a565b039392505050565b6020808252602b908201527f496e697469616c697a61626c653a20636f6e7472616374206973206e6f74206960408201526a6e697469616c697a696e6760a81b606082015260800190565b60008083128015600160ff1b85018412161561351f5761351f61335a565b6001600160ff1b038401831381161561353a5761353a61335a565b50500390565b600080821280156001600160ff1b03849003851316156135625761356261335a565b600160ff1b839003841281161561357b5761357b61335a565b5050019056fea26469706673582212204ad3c25ac8c66ce0e84d57564429f1e65d3709dc6d768aaba54328f9a9b954a164736f6c634300080b0033",
  "linkReferences": {
    "contracts/lib/IterableMapping.sol": {
      "IterableMapping": [
        {
          "length": 20,
          "start": 2934
        },
        {
          "length": 20,
          "start": 3053
        },
        {
          "length": 20,
          "start": 5689
        },
        {
          "length": 20,
          "start": 5879
        },
        {
          "length": 20,
          "start": 9010
        },
        {
          "length": 20,
          "start": 10481
        }
      ]
    }
  },
  "deployedLinkReferences": {
    "contracts/lib/IterableMapping.sol": {
      "IterableMapping": [
        {
          "length": 20,
          "start": 2902
        },
        {
          "length": 20,
          "start": 3021
        },
        {
          "length": 20,
          "start": 5657
        },
        {
          "length": 20,
          "start": 5847
        },
        {
          "length": 20,
          "start": 8978
        },
        {
          "length": 20,
          "start": 10449
        }
      ]
    }
  }
}