{
  "_format": "hh-sol-artifact-1",
  "contractName": "StakedSoccerStarNft",
  "sourceName": "contracts/stake/StakedSoccerStarNft.sol",
  "abi": [
    {
      "inputs": [
        {
          "internalType": "address",
          "name": "_rewardContract",
          "type": "address"
        },
        {
          "internalType": "address",
          "name": "_nftContract",
          "type": "address"
        },
        {
          "internalType": "uint256",
          "name": "_rewardPeriod",
          "type": "uint256"
        },
        {
          "internalType": "uint256",
          "name": "_rewardStart",
          "type": "uint256"
        }
      ],
      "stateMutability": "nonpayable",
      "type": "constructor"
    },
    {
      "anonymous": false,
      "inputs": [
        {
          "indexed": false,
          "internalType": "address",
          "name": "sender",
          "type": "address"
        },
        {
          "indexed": false,
          "internalType": "uint256",
          "name": "amount",
          "type": "uint256"
        }
      ],
      "name": "ClaimReward",
      "type": "event"
    },
    {
      "anonymous": false,
      "inputs": [
        {
          "indexed": false,
          "internalType": "address",
          "name": "sender",
          "type": "address"
        },
        {
          "indexed": false,
          "internalType": "uint256",
          "name": "round",
          "type": "uint256"
        },
        {
          "indexed": false,
          "internalType": "uint256",
          "name": "totalDeposit",
          "type": "uint256"
        },
        {
          "indexed": false,
          "internalType": "uint256",
          "name": "totalStaked",
          "type": "uint256"
        },
        {
          "indexed": false,
          "internalType": "uint256",
          "name": "totalPower",
          "type": "uint256"
        }
      ],
      "name": "CloseRound",
      "type": "event"
    },
    {
      "anonymous": false,
      "inputs": [
        {
          "indexed": false,
          "internalType": "address",
          "name": "sender",
          "type": "address"
        },
        {
          "indexed": false,
          "internalType": "uint256",
          "name": "round",
          "type": "uint256"
        },
        {
          "indexed": false,
          "internalType": "uint256",
          "name": "amount",
          "type": "uint256"
        }
      ],
      "name": "Deposit",
      "type": "event"
    },
    {
      "anonymous": false,
      "inputs": [
        {
          "indexed": false,
          "internalType": "uint256",
          "name": "oldValue",
          "type": "uint256"
        },
        {
          "indexed": false,
          "internalType": "uint256",
          "name": "newValue",
          "type": "uint256"
        }
      ],
      "name": "FrozenDurationChanged",
      "type": "event"
    },
    {
      "anonymous": false,
      "inputs": [
        {
          "indexed": false,
          "internalType": "address",
          "name": "oldValue",
          "type": "address"
        },
        {
          "indexed": false,
          "internalType": "address",
          "name": "newValue",
          "type": "address"
        }
      ],
      "name": "NftContractChanged",
      "type": "event"
    },
    {
      "anonymous": false,
      "inputs": [
        {
          "indexed": true,
          "internalType": "address",
          "name": "previousOwner",
          "type": "address"
        },
        {
          "indexed": true,
          "internalType": "address",
          "name": "newOwner",
          "type": "address"
        }
      ],
      "name": "OwnershipTransferred",
      "type": "event"
    },
    {
      "anonymous": false,
      "inputs": [
        {
          "indexed": false,
          "internalType": "address",
          "name": "sender",
          "type": "address"
        },
        {
          "indexed": false,
          "internalType": "uint256",
          "name": "tokenId",
          "type": "uint256"
        }
      ],
      "name": "Redeem",
      "type": "event"
    },
    {
      "anonymous": false,
      "inputs": [
        {
          "indexed": false,
          "internalType": "address",
          "name": "oldValue",
          "type": "address"
        },
        {
          "indexed": false,
          "internalType": "address",
          "name": "newValue",
          "type": "address"
        }
      ],
      "name": "RewardContractChanged",
      "type": "event"
    },
    {
      "anonymous": false,
      "inputs": [
        {
          "indexed": false,
          "internalType": "uint256",
          "name": "oldValue",
          "type": "uint256"
        },
        {
          "indexed": false,
          "internalType": "uint256",
          "name": "newValue",
          "type": "uint256"
        }
      ],
      "name": "RewardPeriodChanged",
      "type": "event"
    },
    {
      "anonymous": false,
      "inputs": [
        {
          "indexed": false,
          "internalType": "uint256",
          "name": "oldValue",
          "type": "uint256"
        },
        {
          "indexed": false,
          "internalType": "uint256",
          "name": "newValue",
          "type": "uint256"
        }
      ],
      "name": "RewardStartChanged",
      "type": "event"
    },
    {
      "anonymous": false,
      "inputs": [
        {
          "indexed": false,
          "internalType": "address",
          "name": "sender",
          "type": "address"
        },
        {
          "indexed": false,
          "internalType": "uint256",
          "name": "tokenId",
          "type": "uint256"
        }
      ],
      "name": "Stake",
      "type": "event"
    },
    {
      "anonymous": false,
      "inputs": [
        {
          "indexed": false,
          "internalType": "address",
          "name": "sender",
          "type": "address"
        },
        {
          "indexed": false,
          "internalType": "uint256",
          "name": "tokenId",
          "type": "uint256"
        }
      ],
      "name": "Withdraw",
      "type": "event"
    },
    {
      "inputs": [],
      "name": "INVLID_ROUND",
      "outputs": [
        {
          "internalType": "int256",
          "name": "",
          "type": "int256"
        }
      ],
      "stateMutability": "view",
      "type": "function"
    },
    {
      "inputs": [],
      "name": "checkAndGetRound",
      "outputs": [
        {
          "internalType": "bool",
          "name": "",
          "type": "bool"
        },
        {
          "internalType": "uint256",
          "name": "",
          "type": "uint256"
        },
        {
          "components": [
            {
              "internalType": "uint256",
              "name": "round",
              "type": "uint256"
            },
            {
              "internalType": "uint256",
              "name": "totalDeposit",
              "type": "uint256"
            },
            {
              "internalType": "uint256",
              "name": "totalStaked",
              "type": "uint256"
            },
            {
              "internalType": "uint256",
              "name": "totalPower",
              "type": "uint256"
            },
            {
              "internalType": "uint256",
              "name": "totalClaimed",
              "type": "uint256"
            }
          ],
          "internalType": "struct IStakedSoccerStarNft.DepositInfo",
          "name": "",
          "type": "tuple"
        }
      ],
      "stateMutability": "view",
      "type": "function"
    },
    {
      "inputs": [],
      "name": "claimRewards",
      "outputs": [],
      "stateMutability": "nonpayable",
      "type": "function"
    },
    {
      "inputs": [],
      "name": "closeRound",
      "outputs": [],
      "stateMutability": "nonpayable",
      "type": "function"
    },
    {
      "inputs": [
        {
          "internalType": "uint256",
          "name": "amount",
          "type": "uint256"
        }
      ],
      "name": "deposit",
      "outputs": [],
      "stateMutability": "nonpayable",
      "type": "function"
    },
    {
      "inputs": [
        {
          "internalType": "uint256",
          "name": "",
          "type": "uint256"
        }
      ],
      "name": "depositInfos",
      "outputs": [
        {
          "internalType": "uint256",
          "name": "round",
          "type": "uint256"
        },
        {
          "internalType": "uint256",
          "name": "totalDeposit",
          "type": "uint256"
        },
        {
          "internalType": "uint256",
          "name": "totalStaked",
          "type": "uint256"
        },
        {
          "internalType": "uint256",
          "name": "totalPower",
          "type": "uint256"
        },
        {
          "internalType": "uint256",
          "name": "totalClaimed",
          "type": "uint256"
        }
      ],
      "stateMutability": "view",
      "type": "function"
    },
    {
      "inputs": [],
      "name": "frozenDuration",
      "outputs": [
        {
          "internalType": "uint256",
          "name": "",
          "type": "uint256"
        }
      ],
      "stateMutability": "view",
      "type": "function"
    },
    {
      "inputs": [],
      "name": "getCurrentRound",
      "outputs": [
        {
          "internalType": "uint256",
          "name": "round",
          "type": "uint256"
        }
      ],
      "stateMutability": "view",
      "type": "function"
    },
    {
      "inputs": [],
      "name": "getDepositInfo",
      "outputs": [
        {
          "components": [
            {
              "internalType": "uint256",
              "name": "round",
              "type": "uint256"
            },
            {
              "internalType": "uint256",
              "name": "totalDeposit",
              "type": "uint256"
            },
            {
              "internalType": "uint256",
              "name": "totalStaked",
              "type": "uint256"
            },
            {
              "internalType": "uint256",
              "name": "totalPower",
              "type": "uint256"
            },
            {
              "internalType": "uint256",
              "name": "totalClaimed",
              "type": "uint256"
            }
          ],
          "internalType": "struct IStakedSoccerStarNft.DepositInfo[]",
          "name": "",
          "type": "tuple[]"
        }
      ],
      "stateMutability": "view",
      "type": "function"
    },
    {
      "inputs": [
        {
          "internalType": "uint256",
          "name": "pageSt",
          "type": "uint256"
        },
        {
          "internalType": "uint256",
          "name": "pageSz",
          "type": "uint256"
        }
      ],
      "name": "getDepositInfoByPage",
      "outputs": [
        {
          "components": [
            {
              "internalType": "uint256",
              "name": "round",
              "type": "uint256"
            },
            {
              "internalType": "uint256",
              "name": "totalDeposit",
              "type": "uint256"
            },
            {
              "internalType": "uint256",
              "name": "totalStaked",
              "type": "uint256"
            },
            {
              "internalType": "uint256",
              "name": "totalPower",
              "type": "uint256"
            },
            {
              "internalType": "uint256",
              "name": "totalClaimed",
              "type": "uint256"
            }
          ],
          "internalType": "struct IStakedSoccerStarNft.DepositInfo[]",
          "name": "",
          "type": "tuple[]"
        }
      ],
      "stateMutability": "view",
      "type": "function"
    },
    {
      "inputs": [
        {
          "internalType": "uint256",
          "name": "tokenId",
          "type": "uint256"
        }
      ],
      "name": "getTokenPower",
      "outputs": [
        {
          "internalType": "uint256",
          "name": "power",
          "type": "uint256"
        }
      ],
      "stateMutability": "view",
      "type": "function"
    },
    {
      "inputs": [
        {
          "internalType": "address",
          "name": "user",
          "type": "address"
        }
      ],
      "name": "getUnClaimedRewards",
      "outputs": [
        {
          "internalType": "uint256",
          "name": "amount",
          "type": "uint256"
        }
      ],
      "stateMutability": "view",
      "type": "function"
    },
    {
      "inputs": [
        {
          "internalType": "uint256",
          "name": "tokenId",
          "type": "uint256"
        }
      ],
      "name": "getUnClaimedRewardsByToken",
      "outputs": [
        {
          "internalType": "uint256",
          "name": "",
          "type": "uint256"
        }
      ],
      "stateMutability": "view",
      "type": "function"
    },
    {
      "inputs": [
        {
          "internalType": "uint256[]",
          "name": "tokenIds",
          "type": "uint256[]"
        }
      ],
      "name": "getUnClaimedRewardsByTokens",
      "outputs": [
        {
          "internalType": "uint256[]",
          "name": "amount",
          "type": "uint256[]"
        }
      ],
      "stateMutability": "view",
      "type": "function"
    },
    {
      "inputs": [
        {
          "internalType": "address",
          "name": "user",
          "type": "address"
        }
      ],
      "name": "getUserStakedInfo",
      "outputs": [
        {
          "components": [
            {
              "internalType": "uint256",
              "name": "tokenId",
              "type": "uint256"
            },
            {
              "internalType": "uint256",
              "name": "round",
              "type": "uint256"
            },
            {
              "internalType": "uint256",
              "name": "unfrozenTime",
              "type": "uint256"
            },
            {
              "internalType": "int256",
              "name": "claimedRound",
              "type": "int256"
            }
          ],
          "internalType": "struct IStakedSoccerStarNft.UserStakedInfo[]",
          "name": "userStaked",
          "type": "tuple[]"
        }
      ],
      "stateMutability": "view",
      "type": "function"
    },
    {
      "inputs": [
        {
          "internalType": "address",
          "name": "user",
          "type": "address"
        },
        {
          "internalType": "uint256",
          "name": "pageSt",
          "type": "uint256"
        },
        {
          "internalType": "uint256",
          "name": "pageSz",
          "type": "uint256"
        }
      ],
      "name": "getUserStakedInfoByPage",
      "outputs": [
        {
          "components": [
            {
              "internalType": "uint256",
              "name": "tokenId",
              "type": "uint256"
            },
            {
              "internalType": "uint256",
              "name": "round",
              "type": "uint256"
            },
            {
              "internalType": "uint256",
              "name": "unfrozenTime",
              "type": "uint256"
            },
            {
              "internalType": "int256",
              "name": "claimedRound",
              "type": "int256"
            }
          ],
          "internalType": "struct IStakedSoccerStarNft.UserStakedInfo[]",
          "name": "userStaked",
          "type": "tuple[]"
        }
      ],
      "stateMutability": "view",
      "type": "function"
    },
    {
      "inputs": [
        {
          "internalType": "uint256",
          "name": "tokenId",
          "type": "uint256"
        }
      ],
      "name": "isStaked",
      "outputs": [
        {
          "internalType": "bool",
          "name": "",
          "type": "bool"
        }
      ],
      "stateMutability": "view",
      "type": "function"
    },
    {
      "inputs": [],
      "name": "isStakedStart",
      "outputs": [
        {
          "internalType": "bool",
          "name": "",
          "type": "bool"
        }
      ],
      "stateMutability": "view",
      "type": "function"
    },
    {
      "inputs": [
        {
          "internalType": "uint256",
          "name": "tokenId",
          "type": "uint256"
        }
      ],
      "name": "isStaking",
      "outputs": [
        {
          "internalType": "bool",
          "name": "",
          "type": "bool"
        }
      ],
      "stateMutability": "view",
      "type": "function"
    },
    {
      "inputs": [
        {
          "internalType": "uint256",
          "name": "tokenId",
          "type": "uint256"
        }
      ],
      "name": "isUnfreezing",
      "outputs": [
        {
          "internalType": "bool",
          "name": "",
          "type": "bool"
        }
      ],
      "stateMutability": "view",
      "type": "function"
    },
    {
      "inputs": [
        {
          "internalType": "uint256",
          "name": "tokenId",
          "type": "uint256"
        }
      ],
      "name": "isWithdrawAble",
      "outputs": [
        {
          "internalType": "bool",
          "name": "",
          "type": "bool"
        }
      ],
      "stateMutability": "view",
      "type": "function"
    },
    {
      "inputs": [],
      "name": "nftContract",
      "outputs": [
        {
          "internalType": "contract IERC721",
          "name": "",
          "type": "address"
        }
      ],
      "stateMutability": "view",
      "type": "function"
    },
    {
      "inputs": [],
      "name": "owner",
      "outputs": [
        {
          "internalType": "address",
          "name": "",
          "type": "address"
        }
      ],
      "stateMutability": "view",
      "type": "function"
    },
    {
      "inputs": [
        {
          "internalType": "uint256",
          "name": "tokenId",
          "type": "uint256"
        }
      ],
      "name": "redeem",
      "outputs": [],
      "stateMutability": "nonpayable",
      "type": "function"
    },
    {
      "inputs": [],
      "name": "renounceOwnership",
      "outputs": [],
      "stateMutability": "nonpayable",
      "type": "function"
    },
    {
      "inputs": [],
      "name": "rewardContract",
      "outputs": [
        {
          "internalType": "contract IERC20",
          "name": "",
          "type": "address"
        }
      ],
      "stateMutability": "view",
      "type": "function"
    },
    {
      "inputs": [],
      "name": "rewardPeriod",
      "outputs": [
        {
          "internalType": "uint256",
          "name": "",
          "type": "uint256"
        }
      ],
      "stateMutability": "view",
      "type": "function"
    },
    {
      "inputs": [],
      "name": "rewardStart",
      "outputs": [
        {
          "internalType": "uint256",
          "name": "",
          "type": "uint256"
        }
      ],
      "stateMutability": "view",
      "type": "function"
    },
    {
      "inputs": [
        {
          "internalType": "uint256",
          "name": "newValue",
          "type": "uint256"
        }
      ],
      "name": "setFrozenDuration",
      "outputs": [],
      "stateMutability": "nonpayable",
      "type": "function"
    },
    {
      "inputs": [
        {
          "internalType": "address",
          "name": "newValue",
          "type": "address"
        }
      ],
      "name": "setNftContract",
      "outputs": [],
      "stateMutability": "nonpayable",
      "type": "function"
    },
    {
      "inputs": [
        {
          "internalType": "address",
          "name": "newValue",
          "type": "address"
        }
      ],
      "name": "setRewardContract",
      "outputs": [],
      "stateMutability": "nonpayable",
      "type": "function"
    },
    {
      "inputs": [
        {
          "internalType": "uint256",
          "name": "newValue",
          "type": "uint256"
        }
      ],
      "name": "setRewardPeroid",
      "outputs": [],
      "stateMutability": "nonpayable",
      "type": "function"
    },
    {
      "inputs": [
        {
          "internalType": "uint256",
          "name": "newValue",
          "type": "uint256"
        }
      ],
      "name": "setRewardStart",
      "outputs": [],
      "stateMutability": "nonpayable",
      "type": "function"
    },
    {
      "inputs": [
        {
          "internalType": "uint256",
          "name": "tokenId",
          "type": "uint256"
        }
      ],
      "name": "stake",
      "outputs": [],
      "stateMutability": "nonpayable",
      "type": "function"
    },
    {
      "inputs": [
        {
          "internalType": "address",
          "name": "",
          "type": "address"
        },
        {
          "internalType": "uint256",
          "name": "",
          "type": "uint256"
        }
      ],
      "name": "stakedInfos",
      "outputs": [
        {
          "internalType": "uint256",
          "name": "tokenId",
          "type": "uint256"
        },
        {
          "internalType": "uint256",
          "name": "round",
          "type": "uint256"
        },
        {
          "internalType": "uint256",
          "name": "unfrozenTime",
          "type": "uint256"
        },
        {
          "internalType": "int256",
          "name": "claimedRound",
          "type": "int256"
        }
      ],
      "stateMutability": "view",
      "type": "function"
    },
    {
      "inputs": [
        {
          "internalType": "uint256",
          "name": "",
          "type": "uint256"
        }
      ],
      "name": "tokenToUserStakedInfo",
      "outputs": [
        {
          "internalType": "uint256",
          "name": "tokenId",
          "type": "uint256"
        },
        {
          "internalType": "uint256",
          "name": "round",
          "type": "uint256"
        },
        {
          "internalType": "uint256",
          "name": "unfrozenTime",
          "type": "uint256"
        },
        {
          "internalType": "int256",
          "name": "claimedRound",
          "type": "int256"
        }
      ],
      "stateMutability": "view",
      "type": "function"
    },
    {
      "inputs": [],
      "name": "totalPower",
      "outputs": [
        {
          "internalType": "uint256",
          "name": "",
          "type": "uint256"
        }
      ],
      "stateMutability": "view",
      "type": "function"
    },
    {
      "inputs": [],
      "name": "totalStaked",
      "outputs": [
        {
          "internalType": "uint256",
          "name": "",
          "type": "uint256"
        }
      ],
      "stateMutability": "view",
      "type": "function"
    },
    {
      "inputs": [
        {
          "internalType": "address",
          "name": "newOwner",
          "type": "address"
        }
      ],
      "name": "transferOwnership",
      "outputs": [],
      "stateMutability": "nonpayable",
      "type": "function"
    },
    {
      "inputs": [
        {
          "internalType": "uint256",
          "name": "tokenId",
          "type": "uint256"
        }
      ],
      "name": "withdraw",
      "outputs": [],
      "stateMutability": "nonpayable",
      "type": "function"
    }
  ],
  "bytecode": "0x60806040526201518060035562093a806004553480156200001f57600080fd5b5060405162002c8838038062002c888339810160408190526200004291620000f9565b6200004d336200008c565b600180546001600160a01b039586166001600160a01b031991821617909155600280549490951693169290921790925560039190915560055562000141565b600080546001600160a01b038381166001600160a01b0319831681178455604051919092169283917f8be0079c531659141344cd1fd0a4f28419497f9722a3daafe3b4186f6b6457e09190a35050565b80516001600160a01b0381168114620000f457600080fd5b919050565b600080600080608085870312156200011057600080fd5b6200011b85620000dc565b93506200012b60208601620000dc565b6040860151606090960151949790965092505050565b612b3780620001516000396000f3fe608060405234801561001057600080fd5b50600436106102485760003560e01c80639e0130451161013b578063d14db45a116100b8578063db3ad22c1161007c578063db3ad22c1461055f578063e278fe6f14610568578063e88dc5b714610570578063e8a44ae014610579578063f2fde38b1461059957600080fd5b8063d14db45a146104e2578063d4010660146104eb578063d56d229d14610526578063db006a7514610539578063db21544e1461054c57600080fd5b8063b06b533e116100ff578063b06b533e14610495578063b6696cec146104a0578063b6b55f25146104b3578063b7ba7a86146104c6578063baa51f86146104cf57600080fd5b80639e01304514610441578063a32bf59714610454578063a68603fc1461045c578063a694fc3a1461046f578063aca119801461048257600080fd5b806352f5ad77116101c9578063817b1cd21161018d578063817b1cd2146103f957806387c5d832146104025780638969e0f9146104155780638da5cb5b1461041d57806390ae004b1461042e57600080fd5b806352f5ad7714610389578063547ccbb61461039c5780636ea69d62146103af578063715018a6146103da57806377ad1721146103e257600080fd5b8063372500ab11610210578063372500ab1461030a578063451ea5631461031257806345e588181461034357806346f140911461036357806351508f0a1461037657600080fd5b806316d7a8b31461024d5780631f30ac8514610276578063260954b7146102cb5780632c4854db146102de5780632e1a7d4d146102f5575b600080fd5b61026061025b3660046124be565b6105ac565b60405161026d91906124f3565b60405180910390f35b6102ab610284366004612557565b600a6020526000908152604090208054600182015460028301546003909301549192909184565b60408051948552602085019390935291830152606082015260800161026d565b6102ab6102d9366004612570565b61071d565b6102e6610763565b60405161026d9392919061259c565b610308610303366004612557565b6108af565b005b610308610a94565b610333610320366004612557565b6000818152600a60205260409020541490565b604051901515815260200161026d565b6103566103513660046125e4565b610b7e565b60405161026d9190612606565b610308610371366004612557565b610cec565b61030861038436600461267f565b610d35565b61030861039736600461267f565b610e36565b6103336103aa366004612557565b610f37565b6001546103c2906001600160a01b031681565b6040516001600160a01b03909116815260200161026d565b610308610f5e565b6103eb60001981565b60405190815260200161026d565b6103eb60065481565b6103eb610410366004612557565b610f72565b61035661104b565b6000546001600160a01b03166103c2565b61030861043c366004612557565b6110dc565b61026061044f36600461267f565b611175565b6103eb611212565b61030861046a366004612557565b611262565b61030861047d366004612557565b6112fe565b6103eb61049036600461267f565b611593565b600554421015610333565b6103eb6104ae366004612557565b61160b565b6103086104c1366004612557565b611735565b6103eb60045481565b6103336104dd366004612557565b611a0b565b6103eb60055481565b6104fe6104f9366004612557565b611a3a565b604080519586526020860194909452928401919091526060830152608082015260a00161026d565b6002546103c2906001600160a01b031681565b610308610547366004612557565b611a7b565b61033361055a366004612557565b611d95565b6103eb60075481565b610308611dba565b6103eb60035481565b61058c61058736600461270c565b611ed0565b60405161026d91906127b2565b6103086105a736600461267f565b611f7e565b6001600160a01b0383166000908152600960205260409020805460609182918510156107145760006105de8587612800565b825490915081116105ef57806105f2565b81545b90506105fe8682612818565b67ffffffffffffffff8111156106165761061661269c565b60405190808252806020026020018201604052801561067257816020015b61065f6040518060800160405280600081526020016000815260200160008152602001600081525090565b8152602001906001900390816106345790505b50925060005b81871015610711578287815481106106925761069261282f565b90600052602060002090600402016040518060800160405290816000820154815260200160018201548152602001600282015481526020016003820154815250508482815181106106e5576106e561282f565b602002602001018190525086806106fb90612845565b975050808061070990612845565b915050610678565b50505b50949350505050565b6009602052816000526040600020818154811061073957600080fd5b60009182526020909120600490910201805460018201546002830154600390930154919450925084565b6000806107986040518060a0016040528060008152602001600081526020016000815260200160008152602001600081525090565b6107ca6040518060a0016040528060008152602001600081526020016000815260200160008152602001600081525090565b6008546107de576000948594509092509050565b60006107e8611212565b60088054919250906107fc90600190612818565b8154811061080c5761080c61282f565b90600052602060002090600502016040518060a001604052908160008201548152602001600182015481526020016002820154815260200160038201548152602001600482015481525050915081600001518110156108a25760405162461bcd60e51b815260206004820152600d60248201526c1253959053125117d493d55391609a1b60448201526064015b60405180910390fd5b6001959094509092509050565b6005544210156108d15760405162461bcd60e51b815260040161089990612860565b6002546040516331a9108f60e11b81526004810183905282916001600160a01b031690636352211e90602401602060405180830381865afa15801561091a573d6000803e3d6000fd5b505050506040513d601f19601f8201168201806040525081019061093e919061288a565b6001600160a01b0316336001600160a01b03161461096e5760405162461bcd60e51b8152600401610899906128a7565b61097782610f37565b6109bc5760405162461bcd60e51b8152602060048201526016602482015275544f4b454e5f4e4f545f574954484452415741424c4560501b6044820152606401610899565b6109c4611dba565b6000828152600a6020526040808220828155600181018390556002808201849055600390910192909255905490516323b872dd60e01b8152306004820152336024820152604481018490526001600160a01b03909116906323b872dd90606401600060405180830381600087803b158015610a3e57600080fd5b505af1158015610a52573d6000803e3d6000fd5b505060408051338152602081018690527f884edad9ce6fa2440d8a54cc123490eb96d2768479d49ff9c7366125a9424364935001905060405180910390a15050565b600554421015610ab65760405162461bcd60e51b815260040161089990612860565b610abe611dba565b6000610acb336001611ff7565b60015460405163a9059cbb60e01b8152336004820152602481018390529192506001600160a01b03169063a9059cbb906044016020604051808303816000875af1158015610b1d573d6000803e3d6000fd5b505050506040513d601f19601f82011682018060405250810190610b4191906128de565b5060408051338152602081018390527fba8de60c3403ec381d1d484652ea1980e3c3e56359195c92525bff4ce47ad98e910160405180910390a150565b6008546060908190841015610ce3576000610b998486612800565b6008549091508111610bab5780610baf565b6008545b9050610bbb8582612818565b67ffffffffffffffff811115610bd357610bd361269c565b604051908082528060200260200182016040528015610c3657816020015b610c236040518060a0016040528060008152602001600081526020016000815260200160008152602001600081525090565b815260200190600190039081610bf15790505b50915060005b81861015610ce05760088681548110610c5757610c5761282f565b90600052602060002090600502016040518060a001604052908160008201548152602001600182015481526020016002820154815260200160038201548152602001600482015481525050838281518110610cb457610cb461282f565b60200260200101819052508580610cca90612845565b9650508080610cd890612845565b915050610c3c565b50505b90505b92915050565b610cf46121aa565b60045460408051918252602082018390527f59cf79c22ce2b7f60b88411d7a30818fdf70de0548c3003b5a1f780230b413e5910160405180910390a1600455565b610d3d6121aa565b806001600160a01b038116610d865760405162461bcd60e51b815260206004820152600f60248201526e494e56414c49445f4144445245535360881b6044820152606401610899565b6001600160a01b0381163b610dcc5760405162461bcd60e51b815260206004820152600c60248201526b1393d517d0d3d395149050d560a21b6044820152606401610899565b600154604080516001600160a01b03928316815291841660208301527ffab3bda4ccf2525e76de8166b900fa2e8325482230be2f42c7305c83b4da690f910160405180910390a150600180546001600160a01b0319166001600160a01b0392909216919091179055565b610e3e6121aa565b806001600160a01b038116610e875760405162461bcd60e51b815260206004820152600f60248201526e494e56414c49445f4144445245535360881b6044820152606401610899565b6001600160a01b0381163b610ecd5760405162461bcd60e51b815260206004820152600c60248201526b1393d517d0d3d395149050d560a21b6044820152606401610899565b600254604080516001600160a01b03928316815291841660208301527fc9a999887f14e7be08d843c42f5054c18d73f3420db8a223cf9fd8af8518021b910160405180910390a150600280546001600160a01b0319166001600160a01b0392909216919091179055565b6000818152600a60205260408120600201548015801590610f5757508042115b9392505050565b610f666121aa565b610f706000612204565b565b6002546040516301ff8f7360e41b81526004810183905260009182916001600160a01b0390911690631ff8f73090602401600060405180830381865afa158015610fc0573d6000803e3d6000fd5b505050506040513d6000823e601f3d908101601f19168201604052610fe89190810190612994565b9050600081606001511161102c5760405162461bcd60e51b815260206004820152600b60248201526a10d0549117d5539491505360aa1b6044820152606401610899565b6060810151610f5790611040906001612254565b608083015190612296565b60606008805480602002602001604051908101604052809291908181526020016000905b828210156110d357838290600052602060002090600502016040518060a0016040529081600082015481526020016001820154815260200160028201548152602001600382015481526020016004820154815250508152602001906001019061106f565b50505050905090565b6110e46121aa565b428110156111345760405162461bcd60e51b815260206004820152601e60248201527f5245574152445f53544152545f4c4553535f5448414e5f43555252454e5400006044820152606401610899565b60055460408051918252602082018390527fe97904fa134a80610e98b4cee6a4098dfc6b89b688e950cdb529f30a7eae1f57910160405180910390a1600555565b6001600160a01b0381166000908152600960209081526040808320805482518185028101850190935280835260609492939192909184015b828210156112075783829060005260206000209060040201604051806080016040529081600082015481526020016001820154815260200160028201548152602001600382015481525050815260200190600101906111ad565b505050509050919050565b600061122060055442101590565b61123c5760405162461bcd60e51b815260040161089990612860565b61125d6003546112576005544261225490919063ffffffff16565b906122d7565b905090565b61126a6121aa565b620151808110156112bd5760405162461bcd60e51b815260206004820152601760248201527f5245574152445f504552494f445f544f4f5f53484f52540000000000000000006044820152606401610899565b60035460408051918252602082018390527f5d1f9e1b79b809110064394f531900cd7c8e410aee95096ee9f097f0adaf344e910160405180910390a1600355565b6005544210156113205760405162461bcd60e51b815260040161089990612860565b6002546040516331a9108f60e11b81526004810183905282916001600160a01b031690636352211e90602401602060405180830381865afa158015611369573d6000803e3d6000fd5b505050506040513d601f19601f8201168201806040525081019061138d919061288a565b6001600160a01b0316336001600160a01b0316146113bd5760405162461bcd60e51b8152600401610899906128a7565b6000828152600a602052604090205482141561140b5760405162461bcd60e51b815260206004820152600d60248201526c544f4b454e5f5354414b494e4760981b6044820152606401610899565b611413611dba565b6006805490600061142383612845565b919050555061143182610f72565b600760008282546114429190612800565b9250508190555060006040518060800160405280848152602001611464611212565b815260006020808301829052600019604093840152338083526009825283832080546001808201835591855283852087516004928302909101908155878501805182850155888801805160028085019190915560608b0180516003958601558e8a52600a909852978990208a51815591519482019490945592518387015593519190930155915492516323b872dd60e01b815290810191909152306024820152604481018690529192506001600160a01b0316906323b872dd90606401600060405180830381600087803b15801561153b57600080fd5b505af115801561154f573d6000803e3d6000fd5b505060408051338152602081018790527febedb8b3c678666e7f36970bc8f57abf6d8fa2e828c0da91ea5b75bf68ed101a93500190505b60405180910390a1505050565b6001600160a01b03811660009081526009602052604081208190815b8154811015611602576115e48282815481106115cd576115cd61282f565b90600052602060002090600402016000015461160b565b6115ee9084612800565b9250806115fa81612845565b9150506115af565b50909392505050565b600061161682611a0b565b61162257506000919050565b60085461163157506000919050565b600061163b611212565b6000848152600a6020526040812060018101549293509091831461172d5760085460009061166b90600190612818565b90505b6000600882815481106116835761168361282f565b906000526020600020906005020190508481600001541461170757600383015481546116ae90612319565b14156116ba575061172b565b600081600301541180156116d2575060008160010154115b15611707576116fa81600301546112576116ef8660000154610f72565b600185015490612363565b6117049085612800565b93505b811561171f578161171781612a60565b925050611725565b5061172b565b5061166e565b505b509392505050565b6005544210156117575760405162461bcd60e51b815260040161089990612860565b6000811161179b5760405162461bcd60e51b8152602060048201526011602482015270105353d5539517d513d3d317d4d3505313607a1b6044820152606401610899565b60008060006117a8610763565b9250925092508215806117bb5750805182115b156118cb5782156117ce576117ce611dba565b6040805160a081018252838152602081018681526000928201838152606083018481526080840185815260088054600181018255965293517ff3f7a9fe364faab93b216da50a3214154f22a0a2b415b23a84c8169e8b636ee360059096029586015591517ff3f7a9fe364faab93b216da50a3214154f22a0a2b415b23a84c8169e8b636ee4850155517ff3f7a9fe364faab93b216da50a3214154f22a0a2b415b23a84c8169e8b636ee5840155517ff3f7a9fe364faab93b216da50a3214154f22a0a2b415b23a84c8169e8b636ee6830155517ff3f7a9fe364faab93b216da50a3214154f22a0a2b415b23a84c8169e8b636ee790910155611947565b83816020018181516118dd9190612800565b905250600880548291906118f390600190612818565b815481106119035761190361282f565b906000526020600020906005020160008201518160000155602082015181600101556040820151816002015560608201518160030155608082015181600401559050505b6001546040516323b872dd60e01b8152336004820152306024820152604481018690526001600160a01b03909116906323b872dd906064016020604051808303816000875af115801561199e573d6000803e3d6000fd5b505050506040513d601f19601f820116820180604052508101906119c291906128de565b5060408051338152602081018490529081018590527f90890809c654f11d6e72a28fa60149770a0d11ec6c92319d6ceb2bb0a4ea1a15906060015b60405180910390a150505050565b6000818152600a602052604081205482148015610ce65750506000908152600a60205260409020600201541590565b60088181548110611a4a57600080fd5b6000918252602090912060059091020180546001820154600283015460038401546004909401549294509092909185565b600554421015611a9d5760405162461bcd60e51b815260040161089990612860565b6002546040516331a9108f60e11b81526004810183905282916001600160a01b031690636352211e90602401602060405180830381865afa158015611ae6573d6000803e3d6000fd5b505050506040513d601f19601f82011682018060405250810190611b0a919061288a565b6001600160a01b0316336001600160a01b031614611b3a5760405162461bcd60e51b8152600401610899906128a7565b611b4382611a0b565b611b825760405162461bcd60e51b815260206004820152601060248201526f1513d2d15397d393d517d4d51052d15160821b6044820152606401610899565b611b8a611dba565b611b92610a94565b611b9b82610f72565b60076000828254611bac9190612818565b909155505060068054906000611bc183612a60565b9091555050600454611bd39042612800565b6000838152600a602090815260408083206002019390935533825260099052908120805490915b8254811015611c445784838281548110611c1657611c1661282f565b9060005260206000209060040201600001541415611c32578091505b80611c3c81612845565b915050611bfa565b5081548110611c875760405162461bcd60e51b815260206004820152600f60248201526e1513d2d15397d393d517d1561254d5608a1b6044820152606401610899565b805b8254611c9790600190612818565b811015611d1e5782611caa826001612800565b81548110611cba57611cba61282f565b9060005260206000209060040201838281548110611cda57611cda61282f565b600091825260209091208254600490920201908155600180830154908201556002808301549082015560039182015491015580611d1681612845565b915050611c89565b5081805480611d2f57611d2f612a77565b60008281526020808220600460001994909401938402018281556001810183905560028101839055600301919091559155604080513381529182018690527f222838db2794d11532d940e8dec38ae307ed0b63cd97c233322e221f998767a691016119fd565b6000818152600a60205260408120600201548015801590610f57575042111592915050565b600554421015611ddc5760405162461bcd60e51b815260040161089990612860565b6000806000611de9610763565b925092509250828015611dfc5750805182115b15611ecb576006546040820152600754606082015260088054829190611e2490600190612818565b81548110611e3457611e3461282f565b600091825260209182902083516005909202019081558282015160018201556040808401516002830155606080850151600384015560809485015160049093019290925584518584015186830151878501518451338152968701939093529285015291830152918101919091527fdc70146d89122dbf472c044dca5ff793d73522b5796e788fb6defb208f9b26789060a001611586565b505050565b60606000825167ffffffffffffffff811115611eee57611eee61269c565b604051908082528060200260200182016040528015611f17578160200160208202803683370190505b50905060005b8351811015611f7757611f48848281518110611f3b57611f3b61282f565b602002602001015161160b565b828281518110611f5a57611f5a61282f565b602090810291909101015280611f6f81612845565b915050611f1d565b5092915050565b611f866121aa565b6001600160a01b038116611feb5760405162461bcd60e51b815260206004820152602660248201527f4f776e61626c653a206e6577206f776e657220697320746865207a65726f206160448201526564647265737360d01b6064820152608401610899565b611ff481612204565b50565b60008080612003611212565b60085490915061201857600092505050610ce6565b6001600160a01b0385166000908152600960205260408120905b815481101561219f57600082828154811061204f5761204f61282f565b90600052602060002090600402019050600060001990508160010154851461218a5760085460009061208390600190612818565b90505b60006008828154811061209b5761209b61282f565b906000526020600020906005020190508681600001541461215757600384015481546120c690612319565b14156120d2575061217b565b6000198314156120ea5780546120e790612319565b92505b60008160030154118015612102575060008160010154115b1561215757600061212c82600301546112576121218860000154610f72565b600186015490612363565b90508a1561214957600482015461214390826123e2565b60048301555b612153818a612800565b9850505b811561216f578161216781612a60565b925050612175565b5061217b565b50612086565b50871561218a57600382018190555b5050808061219790612845565b915050612032565b509195945050505050565b6000546001600160a01b03163314610f705760405162461bcd60e51b815260206004820181905260248201527f4f776e61626c653a2063616c6c6572206973206e6f7420746865206f776e65726044820152606401610899565b600080546001600160a01b038381166001600160a01b0319831681178455604051919092169283917f8be0079c531659141344cd1fd0a4f28419497f9722a3daafe3b4186f6b6457e09190a35050565b6000610ce383836040518060400160405280601e81526020017f536166654d6174683a207375627472616374696f6e206f766572666c6f770000815250612441565b6000600160005b838110156122c4576122b082600a612363565b9150806122bc81612845565b91505061229d565b506122cf8482612363565b949350505050565b6000610ce383836040518060400160405280601a81526020017f536166654d6174683a206469766973696f6e206279207a65726f00000000000081525061247b565b6000600019821061235f5760405162461bcd60e51b815260206004820152601060248201526f434f4e564552545f4f564552464c4f5760801b6044820152606401610899565b5090565b60008261237257506000610ce6565b600061237e8385612a8d565b90508261238b8583612aac565b14610ce35760405162461bcd60e51b815260206004820152602160248201527f536166654d6174683a206d756c7469706c69636174696f6e206f766572666c6f6044820152607760f81b6064820152608401610899565b6000806123ef8385612800565b905083811015610ce35760405162461bcd60e51b815260206004820152601b60248201527f536166654d6174683a206164646974696f6e206f766572666c6f7700000000006044820152606401610899565b600081848411156124655760405162461bcd60e51b81526004016108999190612ace565b5060006124728486612818565b95945050505050565b6000818361249c5760405162461bcd60e51b81526004016108999190612ace565b5060006124728486612aac565b6001600160a01b0381168114611ff457600080fd5b6000806000606084860312156124d357600080fd5b83356124de816124a9565b95602085013595506040909401359392505050565b602080825282518282018190526000919060409081850190868401855b8281101561254a57815180518552868101518786015285810151868601526060908101519085015260809093019290850190600101612510565b5091979650505050505050565b60006020828403121561256957600080fd5b5035919050565b6000806040838503121561258357600080fd5b823561258e816124a9565b946020939093013593505050565b83151581526020810183905260e081016122cf604083018480518252602081015160208301526040810151604083015260608101516060830152608081015160808301525050565b600080604083850312156125f757600080fd5b50508035926020909101359150565b6020808252825182820181905260009190848201906040850190845b818110156126735761266083855180518252602081015160208301526040810151604083015260608101516060830152608081015160808301525050565b9284019260a09290920191600101612622565b50909695505050505050565b60006020828403121561269157600080fd5b8135610ce3816124a9565b634e487b7160e01b600052604160045260246000fd5b60405160a0810167ffffffffffffffff811182821017156126d5576126d561269c565b60405290565b604051601f8201601f1916810167ffffffffffffffff811182821017156127045761270461269c565b604052919050565b6000602080838503121561271f57600080fd5b823567ffffffffffffffff8082111561273757600080fd5b818501915085601f83011261274b57600080fd5b81358181111561275d5761275d61269c565b8060051b915061276e8483016126db565b818152918301840191848101908884111561278857600080fd5b938501935b838510156127a65784358252938501939085019061278d565b98975050505050505050565b6020808252825182820181905260009190848201906040850190845b81811015612673578351835292840192918401916001016127ce565b634e487b7160e01b600052601160045260246000fd5b60008219821115612813576128136127ea565b500190565b60008282101561282a5761282a6127ea565b500390565b634e487b7160e01b600052603260045260246000fd5b6000600019821415612859576128596127ea565b5060010190565b60208082526010908201526f149155d0549117d393d517d4d510549560821b604082015260600190565b60006020828403121561289c57600080fd5b8151610ce3816124a9565b6020808252601a908201527f544f4b454e5f4e4f545f42454c4f4e475f544f5f53454e444552000000000000604082015260600190565b6000602082840312156128f057600080fd5b81518015158114610ce357600080fd5b60005b8381101561291b578181015183820152602001612903565b8381111561292a576000848401525b50505050565b600082601f83011261294157600080fd5b815167ffffffffffffffff81111561295b5761295b61269c565b61296e601f8201601f19166020016126db565b81815284602083860101111561298357600080fd5b6122cf826020830160208701612900565b6000602082840312156129a657600080fd5b815167ffffffffffffffff808211156129be57600080fd5b9083019060a082860312156129d257600080fd5b6129da6126b2565b8251828111156129e957600080fd5b6129f587828601612930565b825250602083015182811115612a0a57600080fd5b612a1687828601612930565b602083015250604083015182811115612a2e57600080fd5b612a3a87828601612930565b604083015250606083015160608201526080830151608082015280935050505092915050565b600081612a6f57612a6f6127ea565b506000190190565b634e487b7160e01b600052603160045260246000fd5b6000816000190483118215151615612aa757612aa76127ea565b500290565b600082612ac957634e487b7160e01b600052601260045260246000fd5b500490565b6020815260008251806020840152612aed816040850160208701612900565b601f01601f1916919091016040019291505056fea264697066735822122067920216f12c081352b7eaa8ce84a307f0a1d9cd2a7b2c5e69b6bdbf9f7eb1f164736f6c634300080b0033",
  "linkReferences": {},
  "deployedLinkReferences": {}
}