{
  "_format": "hh-sol-artifact-1",
  "contractName": "PriceAggregatorAdapterChainlinkImpl",
  "sourceName": "contracts/misc/oracle/PriceAggregatorAdapterChainlinkImpl.sol",
  "abi": [
    {
      "anonymous": false,
      "inputs": [
        {
          "indexed": true,
          "internalType": "address",
          "name": "previousOwner",
          "type": "address"
        },
        {
          "indexed": true,
          "internalType": "address",
          "name": "newOwner",
          "type": "address"
        }
      ],
      "name": "OwnershipTransferred",
      "type": "event"
    },
    {
      "inputs": [
        {
          "internalType": "address",
          "name": "asset",
          "type": "address"
        }
      ],
      "name": "currentPrice",
      "outputs": [
        {
          "internalType": "int256",
          "name": "",
          "type": "int256"
        }
      ],
      "stateMutability": "view",
      "type": "function"
    },
    {
      "inputs": [],
      "name": "owner",
      "outputs": [
        {
          "internalType": "address",
          "name": "",
          "type": "address"
        }
      ],
      "stateMutability": "view",
      "type": "function"
    },
    {
      "inputs": [],
      "name": "renounceOwnership",
      "outputs": [],
      "stateMutability": "nonpayable",
      "type": "function"
    },
    {
      "inputs": [
        {
          "internalType": "address[]",
          "name": "assets",
          "type": "address[]"
        },
        {
          "internalType": "address[]",
          "name": "sources",
          "type": "address[]"
        }
      ],
      "name": "setAssetSources",
      "outputs": [],
      "stateMutability": "nonpayable",
      "type": "function"
    },
    {
      "inputs": [
        {
          "internalType": "address",
          "name": "newOwner",
          "type": "address"
        }
      ],
      "name": "transferOwnership",
      "outputs": [],
      "stateMutability": "nonpayable",
      "type": "function"
    }
  ],
  "bytecode": "0x608060405234801561001057600080fd5b5061001a3361001f565b61006f565b600080546001600160a01b038381166001600160a01b0319831681178455604051919092169283917f8be0079c531659141344cd1fd0a4f28419497f9722a3daafe3b4186f6b6457e09190a35050565b6105788061007e6000396000f3fe608060405234801561001057600080fd5b50600436106100575760003560e01c8063715018a61461005c5780638da5cb5b14610066578063abfd531014610086578063e9833c2f14610099578063f2fde38b146100ba575b600080fd5b6100646100cd565b005b6000546040516001600160a01b0390911681526020015b60405180910390f35b610064610094366004610455565b6100e1565b6100ac6100a73660046104c1565b61015c565b60405190815260200161007d565b6100646100c83660046104c1565b6101f0565b6100d561026e565b6100df60006102c8565b565b6100e961026e565b6101568484808060200260200160405190810160405280939291908181526020018383602002808284376000920191909152505060408051602080880282810182019093528782529093508792508691829185019084908082843760009201919091525061031892505050565b50505050565b6001600160a01b03808216600090815260016020526040812054909116806101875750600092915050565b806001600160a01b03166350d25bcd6040518163ffffffff1660e01b8152600401602060405180830381865afa1580156101c5573d6000803e3d6000fd5b505050506040513d601f19601f820116820180604052508101906101e991906104ea565b9392505050565b6101f861026e565b6001600160a01b0381166102625760405162461bcd60e51b815260206004820152602660248201527f4f776e61626c653a206e6577206f776e657220697320746865207a65726f206160448201526564647265737360d01b60648201526084015b60405180910390fd5b61026b816102c8565b50565b6000546001600160a01b031633146100df5760405162461bcd60e51b815260206004820181905260248201527f4f776e61626c653a2063616c6c6572206973206e6f7420746865206f776e65726044820152606401610259565b600080546001600160a01b038381166001600160a01b0319831681178455604051919092169283917f8be0079c531659141344cd1fd0a4f28419497f9722a3daafe3b4186f6b6457e09190a35050565b80518251146103695760405162461bcd60e51b815260206004820152601a60248201527f494e434f4e53495354454e545f504152414d535f4c454e4754480000000000006044820152606401610259565b60005b82518110156104045781818151811061038757610387610503565b6020026020010151600160008584815181106103a5576103a5610503565b60200260200101516001600160a01b03166001600160a01b0316815260200190815260200160002060006101000a8154816001600160a01b0302191690836001600160a01b0316021790555080806103fc90610519565b91505061036c565b505050565b60008083601f84011261041b57600080fd5b50813567ffffffffffffffff81111561043357600080fd5b6020830191508360208260051b850101111561044e57600080fd5b9250929050565b6000806000806040858703121561046b57600080fd5b843567ffffffffffffffff8082111561048357600080fd5b61048f88838901610409565b909650945060208701359150808211156104a857600080fd5b506104b587828801610409565b95989497509550505050565b6000602082840312156104d357600080fd5b81356001600160a01b03811681146101e957600080fd5b6000602082840312156104fc57600080fd5b5051919050565b634e487b7160e01b600052603260045260246000fd5b600060001982141561053b57634e487b7160e01b600052601160045260246000fd5b506001019056fea2646970667358221220227985e3663d7356a6db8f2df8870a816a68cb57c43b7c4b33c78f5498a441fd64736f6c634300080b0033",
  "linkReferences": {},
  "deployedLinkReferences": {}
}